{
	"contracts/Voting02.sol": {
		"PartyConvention": {
			"abi": [
				{
					"inputs": [],
					"stateMutability": "nonpayable",
					"type": "constructor"
				},
				{
					"inputs": [
						{
							"internalType": "enum PartyConvention.ConventionRole",
							"name": "role_",
							"type": "uint8"
						},
						{
							"internalType": "address",
							"name": "addr_",
							"type": "address"
						}
					],
					"name": "addParticipant",
					"outputs": [],
					"stateMutability": "nonpayable",
					"type": "function"
				},
				{
					"inputs": [
						{
							"internalType": "uint256",
							"name": "id_",
							"type": "uint256"
						}
					],
					"name": "closeMotion",
					"outputs": [],
					"stateMutability": "nonpayable",
					"type": "function"
				},
				{
					"inputs": [
						{
							"internalType": "string",
							"name": "txt_",
							"type": "string"
						}
					],
					"name": "createRegularMotion",
					"outputs": [
						{
							"internalType": "uint256",
							"name": "",
							"type": "uint256"
						}
					],
					"stateMutability": "nonpayable",
					"type": "function"
				},
				{
					"inputs": [
						{
							"internalType": "uint256",
							"name": "id_",
							"type": "uint256"
						}
					],
					"name": "enoughSupporters",
					"outputs": [
						{
							"internalType": "bool",
							"name": "",
							"type": "bool"
						}
					],
					"stateMutability": "view",
					"type": "function"
				},
				{
					"inputs": [
						{
							"internalType": "uint256",
							"name": "id_",
							"type": "uint256"
						}
					],
					"name": "initiallySupportMotion",
					"outputs": [],
					"stateMutability": "nonpayable",
					"type": "function"
				},
				{
					"inputs": [],
					"name": "motionCounter",
					"outputs": [
						{
							"internalType": "uint256",
							"name": "",
							"type": "uint256"
						}
					],
					"stateMutability": "view",
					"type": "function"
				},
				{
					"inputs": [
						{
							"internalType": "address[]",
							"name": "arr_",
							"type": "address[]"
						},
						{
							"internalType": "address",
							"name": "el_",
							"type": "address"
						}
					],
					"name": "notContainedInArray",
					"outputs": [
						{
							"internalType": "bool",
							"name": "",
							"type": "bool"
						}
					],
					"stateMutability": "pure",
					"type": "function"
				},
				{
					"inputs": [
						{
							"internalType": "address",
							"name": "",
							"type": "address"
						}
					],
					"name": "participants",
					"outputs": [
						{
							"internalType": "enum PartyConvention.ConventionRole",
							"name": "role",
							"type": "uint8"
						},
						{
							"internalType": "address",
							"name": "votingRight1from",
							"type": "address"
						},
						{
							"internalType": "address",
							"name": "votingRight2from",
							"type": "address"
						}
					],
					"stateMutability": "view",
					"type": "function"
				},
				{
					"inputs": [],
					"name": "reclaimOriginalVotingRight",
					"outputs": [
						{
							"internalType": "bool",
							"name": "",
							"type": "bool"
						}
					],
					"stateMutability": "nonpayable",
					"type": "function"
				},
				{
					"inputs": [
						{
							"internalType": "address",
							"name": "towhom_",
							"type": "address"
						}
					],
					"name": "transferVotingRight1",
					"outputs": [],
					"stateMutability": "nonpayable",
					"type": "function"
				},
				{
					"inputs": [
						{
							"internalType": "uint256",
							"name": "motionid_",
							"type": "uint256"
						},
						{
							"internalType": "uint256",
							"name": "optionid_",
							"type": "uint256"
						}
					],
					"name": "voteForMotion",
					"outputs": [],
					"stateMutability": "nonpayable",
					"type": "function"
				},
				{
					"inputs": [],
					"name": "votingRightsCounter",
					"outputs": [
						{
							"internalType": "uint256",
							"name": "",
							"type": "uint256"
						}
					],
					"stateMutability": "view",
					"type": "function"
				}
			],
			"devdoc": {
				"kind": "dev",
				"methods": {},
				"version": 1
			},
			"evm": {
				"assembly": "    /* \"contracts/Voting02.sol\":92:10600  contract PartyConvention {... */\n  mstore(0x40, 0x80)\n    /* \"contracts/Voting02.sol\":1495:1496  0 */\n  0x00\n    /* \"contracts/Voting02.sol\":1467:1496  uint public motionCounter = 0 */\n  dup1\n  sstore\n    /* \"contracts/Voting02.sol\":1537:1538  0 */\n  0x00\n    /* \"contracts/Voting02.sol\":1503:1538  uint public votingRightsCounter = 0 */\n  0x01\n  sstore\n    /* \"contracts/Voting02.sol\":2506:2776  constructor(){... */\n  callvalue\n  dup1\n  iszero\n  tag_1\n  jumpi\n  0x00\n  dup1\n  revert\ntag_1:\n  pop\n    /* \"contracts/Voting02.sol\":2530:2556  Participant memory creator */\n  tag_4\n  tag_5\n  jump\t// in\ntag_4:\n    /* \"contracts/Voting02.sol\":2580:2600  ConventionRole.ADMIN */\n  0x04\n    /* \"contracts/Voting02.sol\":2567:2574  creator */\n  dup2\n    /* \"contracts/Voting02.sol\":2567:2579  creator.role */\n  0x00\n  add\n    /* \"contracts/Voting02.sol\":2567:2600  creator.role=ConventionRole.ADMIN */\n  swap1\n  0x04\n  dup2\n  gt\n  iszero\n  tag_6\n  jumpi\n  tag_7\n  tag_8\n  jump\t// in\ntag_7:\ntag_6:\n  swap1\n  dup2\n  0x04\n  dup2\n  gt\n  iszero\n  tag_9\n  jumpi\n  tag_10\n  tag_8\n  jump\t// in\ntag_10:\ntag_9:\n  dup2\n  mstore\n  pop\n  pop\n    /* \"contracts/Voting02.sol\":2636:2646  msg.sender */\n  caller\n    /* \"contracts/Voting02.sol\":2611:2618  creator */\n  dup2\n    /* \"contracts/Voting02.sol\":2611:2635  creator.votingRight1from */\n  0x20\n  add\n    /* \"contracts/Voting02.sol\":2611:2646  creator.votingRight1from=msg.sender */\n  swap1\n  0xffffffffffffffffffffffffffffffffffffffff\n  and\n  swap1\n  dup2\n  0xffffffffffffffffffffffffffffffffffffffff\n  and\n  dup2\n  mstore\n  pop\n  pop\n    /* \"contracts/Voting02.sol\":2684:2691  creator */\n  dup1\n    /* \"contracts/Voting02.sol\":2657:2669  participants */\n  0x02\n    /* \"contracts/Voting02.sol\":2657:2681  participants[msg.sender] */\n  0x00\n    /* \"contracts/Voting02.sol\":2670:2680  msg.sender */\n  caller\n    /* \"contracts/Voting02.sol\":2657:2681  participants[msg.sender] */\n  0xffffffffffffffffffffffffffffffffffffffff\n  and\n  0xffffffffffffffffffffffffffffffffffffffff\n  and\n  dup2\n  mstore\n  0x20\n  add\n  swap1\n  dup2\n  mstore\n  0x20\n  add\n  0x00\n  keccak256\n    /* \"contracts/Voting02.sol\":2657:2691  participants[msg.sender] = creator */\n  0x00\n  dup3\n  add\n  mload\n  dup2\n  0x00\n  add\n  exp(0x0100, 0x00)\n  dup2\n  sload\n  dup2\n  0xff\n  mul\n  not\n  and\n  swap1\n  dup4\n  0x04\n  dup2\n  gt\n  iszero\n  tag_11\n  jumpi\n  tag_12\n  tag_8\n  jump\t// in\ntag_12:\ntag_11:\n  mul\n  or\n  swap1\n  sstore\n  pop\n  0x20\n  dup3\n  add\n  mload\n  dup2\n  0x00\n  add\n  exp(0x0100, 0x01)\n  dup2\n  sload\n  dup2\n  0xffffffffffffffffffffffffffffffffffffffff\n  mul\n  not\n  and\n  swap1\n  dup4\n  0xffffffffffffffffffffffffffffffffffffffff\n  and\n  mul\n  or\n  swap1\n  sstore\n  pop\n  0x40\n  dup3\n  add\n  mload\n  dup2\n  0x01\n  add\n  exp(0x0100, 0x00)\n  dup2\n  sload\n  dup2\n  0xffffffffffffffffffffffffffffffffffffffff\n  mul\n  not\n  and\n  swap1\n  dup4\n  0xffffffffffffffffffffffffffffffffffffffff\n  and\n  mul\n  or\n  swap1\n  sstore\n  pop\n  swap1\n  pop\n  pop\n    /* \"contracts/Voting02.sol\":2702:2719  participantsArray */\n  0x03\n    /* \"contracts/Voting02.sol\":2725:2735  msg.sender */\n  caller\n    /* \"contracts/Voting02.sol\":2702:2736  participantsArray.push(msg.sender) */\n  swap1\n  dup1\n  0x01\n  dup2\n  sload\n  add\n  dup1\n  dup3\n  sstore\n  dup1\n  swap2\n  pop\n  pop\n  0x01\n  swap1\n  sub\n  swap1\n  0x00\n  mstore\n  keccak256(0x00, 0x20)\n  add\n  0x00\n  swap1\n  swap2\n  swap1\n  swap2\n  swap1\n  swap2\n  0x0100\n  exp\n  dup2\n  sload\n  dup2\n  0xffffffffffffffffffffffffffffffffffffffff\n  mul\n  not\n  and\n  swap1\n  dup4\n  0xffffffffffffffffffffffffffffffffffffffff\n  and\n  mul\n  or\n  swap1\n  sstore\n  pop\n    /* \"contracts/Voting02.sol\":2747:2766  votingRightsCounter */\n  0x01\n  0x00\n    /* \"contracts/Voting02.sol\":2747:2768  votingRightsCounter++ */\n  dup2\n  sload\n  dup1\n  swap3\n  swap2\n  swap1\n  tag_14\n  swap1\n  tag_15\n  jump\t// in\ntag_14:\n  swap2\n  swap1\n  pop\n  sstore\n  pop\n    /* \"contracts/Voting02.sol\":2519:2776  {... */\n  pop\n    /* \"contracts/Voting02.sol\":92:10600  contract PartyConvention {... */\n  jump(tag_16)\ntag_5:\n  mload(0x40)\n  dup1\n  0x60\n  add\n  0x40\n  mstore\n  dup1\n  0x00\n  0x04\n  dup2\n  gt\n  iszero\n  tag_17\n  jumpi\n  tag_18\n  tag_8\n  jump\t// in\ntag_18:\ntag_17:\n  dup2\n  mstore\n  0x20\n  add\n  and(0xffffffffffffffffffffffffffffffffffffffff, 0x00)\n  dup2\n  mstore\n  0x20\n  add\n  and(0xffffffffffffffffffffffffffffffffffffffff, 0x00)\n  dup2\n  mstore\n  pop\n  swap1\n  jump\t// out\n    /* \"#utility.yul\":7:187   */\ntag_8:\n    /* \"#utility.yul\":55:132   */\n  0x4e487b7100000000000000000000000000000000000000000000000000000000\n    /* \"#utility.yul\":52:53   */\n  0x00\n    /* \"#utility.yul\":45:133   */\n  mstore\n    /* \"#utility.yul\":152:156   */\n  0x21\n    /* \"#utility.yul\":149:150   */\n  0x04\n    /* \"#utility.yul\":142:157   */\n  mstore\n    /* \"#utility.yul\":176:180   */\n  0x24\n    /* \"#utility.yul\":173:174   */\n  0x00\n    /* \"#utility.yul\":166:181   */\n  revert\n    /* \"#utility.yul\":193:373   */\ntag_19:\n    /* \"#utility.yul\":241:318   */\n  0x4e487b7100000000000000000000000000000000000000000000000000000000\n    /* \"#utility.yul\":238:239   */\n  0x00\n    /* \"#utility.yul\":231:319   */\n  mstore\n    /* \"#utility.yul\":338:342   */\n  0x11\n    /* \"#utility.yul\":335:336   */\n  0x04\n    /* \"#utility.yul\":328:343   */\n  mstore\n    /* \"#utility.yul\":362:366   */\n  0x24\n    /* \"#utility.yul\":359:360   */\n  0x00\n    /* \"#utility.yul\":352:367   */\n  revert\n    /* \"#utility.yul\":379:456   */\ntag_20:\n    /* \"#utility.yul\":416:423   */\n  0x00\n    /* \"#utility.yul\":445:450   */\n  dup2\n    /* \"#utility.yul\":434:450   */\n  swap1\n  pop\n    /* \"#utility.yul\":379:456   */\n  swap2\n  swap1\n  pop\n  jump\t// out\n    /* \"#utility.yul\":462:695   */\ntag_15:\n    /* \"#utility.yul\":501:504   */\n  0x00\n    /* \"#utility.yul\":524:548   */\n  tag_26\n    /* \"#utility.yul\":542:547   */\n  dup3\n    /* \"#utility.yul\":524:548   */\n  tag_20\n  jump\t// in\ntag_26:\n    /* \"#utility.yul\":515:548   */\n  swap2\n  pop\n    /* \"#utility.yul\":570:636   */\n  0xffffffffffffffffffffffffffffffffffffffffffffffffffffffffffffffff\n    /* \"#utility.yul\":563:568   */\n  dup3\n    /* \"#utility.yul\":560:637   */\n  sub\n    /* \"#utility.yul\":557:660   */\n  tag_27\n  jumpi\n    /* \"#utility.yul\":640:658   */\n  tag_28\n  tag_19\n  jump\t// in\ntag_28:\n    /* \"#utility.yul\":557:660   */\ntag_27:\n    /* \"#utility.yul\":687:688   */\n  0x01\n    /* \"#utility.yul\":680:685   */\n  dup3\n    /* \"#utility.yul\":676:689   */\n  add\n    /* \"#utility.yul\":669:689   */\n  swap1\n  pop\n    /* \"#utility.yul\":462:695   */\n  swap2\n  swap1\n  pop\n  jump\t// out\n    /* \"contracts/Voting02.sol\":92:10600  contract PartyConvention {... */\ntag_16:\n  dataSize(sub_0)\n  dup1\n  dataOffset(sub_0)\n  0x00\n  codecopy\n  0x00\n  return\nstop\n\nsub_0: assembly {\n        /* \"contracts/Voting02.sol\":92:10600  contract PartyConvention {... */\n      mstore(0x40, 0x80)\n      callvalue\n      dup1\n      iszero\n      tag_1\n      jumpi\n      0x00\n      dup1\n      revert\n    tag_1:\n      pop\n      jumpi(tag_2, lt(calldatasize, 0x04))\n      shr(0xe0, calldataload(0x00))\n      dup1\n      0xbd7bb654\n      gt\n      tag_15\n      jumpi\n      dup1\n      0xbd7bb654\n      eq\n      tag_9\n      jumpi\n      dup1\n      0xd5506819\n      eq\n      tag_10\n      jumpi\n      dup1\n      0xecd2713a\n      eq\n      tag_11\n      jumpi\n      dup1\n      0xf513edb4\n      eq\n      tag_12\n      jumpi\n      dup1\n      0xfc14ebbb\n      eq\n      tag_13\n      jumpi\n      dup1\n      0xfea2fa6a\n      eq\n      tag_14\n      jumpi\n      jump(tag_2)\n    tag_15:\n      dup1\n      0x09e69ede\n      eq\n      tag_3\n      jumpi\n      dup1\n      0x31b47842\n      eq\n      tag_4\n      jumpi\n      dup1\n      0x8a022b9c\n      eq\n      tag_5\n      jumpi\n      dup1\n      0x8de2fc3a\n      eq\n      tag_6\n      jumpi\n      dup1\n      0x9084f1f9\n      eq\n      tag_7\n      jumpi\n      dup1\n      0xa00f0236\n      eq\n      tag_8\n      jumpi\n    tag_2:\n      0x00\n      dup1\n      revert\n        /* \"contracts/Voting02.sol\":2384:2435  mapping(address => Participant) public participants */\n    tag_3:\n      tag_16\n      0x04\n      dup1\n      calldatasize\n      sub\n      dup2\n      add\n      swap1\n      tag_17\n      swap2\n      swap1\n      tag_18\n      jump\t// in\n    tag_17:\n      tag_19\n      jump\t// in\n    tag_16:\n      mload(0x40)\n      tag_20\n      swap4\n      swap3\n      swap2\n      swap1\n      tag_21\n      jump\t// in\n    tag_20:\n      mload(0x40)\n      dup1\n      swap2\n      sub\n      swap1\n      return\n        /* \"contracts/Voting02.sol\":5849:6575  function initiallySupportMotion(uint id_) public{... */\n    tag_4:\n      tag_22\n      0x04\n      dup1\n      calldatasize\n      sub\n      dup2\n      add\n      swap1\n      tag_23\n      swap2\n      swap1\n      tag_24\n      jump\t// in\n    tag_23:\n      tag_25\n      jump\t// in\n    tag_22:\n      stop\n        /* \"contracts/Voting02.sol\":5413:5841  function enoughSupporters(uint id_) view public returns (bool){... */\n    tag_5:\n      tag_26\n      0x04\n      dup1\n      calldatasize\n      sub\n      dup2\n      add\n      swap1\n      tag_27\n      swap2\n      swap1\n      tag_24\n      jump\t// in\n    tag_27:\n      tag_28\n      jump\t// in\n    tag_26:\n      mload(0x40)\n      tag_29\n      swap2\n      swap1\n      tag_30\n      jump\t// in\n    tag_29:\n      mload(0x40)\n      dup1\n      swap2\n      sub\n      swap1\n      return\n        /* \"contracts/Voting02.sol\":3308:4152  function addParticipant(ConventionRole role_, address addr_ ) external {... */\n    tag_6:\n      tag_31\n      0x04\n      dup1\n      calldatasize\n      sub\n      dup2\n      add\n      swap1\n      tag_32\n      swap2\n      swap1\n      tag_33\n      jump\t// in\n    tag_32:\n      tag_34\n      jump\t// in\n    tag_31:\n      stop\n        /* \"contracts/Voting02.sol\":4160:4459  function closeMotion(uint id_) public{... */\n    tag_7:\n      tag_35\n      0x04\n      dup1\n      calldatasize\n      sub\n      dup2\n      add\n      swap1\n      tag_36\n      swap2\n      swap1\n      tag_24\n      jump\t// in\n    tag_36:\n      tag_37\n      jump\t// in\n    tag_35:\n      stop\n        /* \"contracts/Voting02.sol\":8244:9063  function transferVotingRight1(address towhom_) public{... */\n    tag_8:\n      tag_38\n      0x04\n      dup1\n      calldatasize\n      sub\n      dup2\n      add\n      swap1\n      tag_39\n      swap2\n      swap1\n      tag_18\n      jump\t// in\n    tag_39:\n      tag_40\n      jump\t// in\n    tag_38:\n      stop\n        /* \"contracts/Voting02.sol\":4471:5403  function createRegularMotion(string memory txt_) public returns (uint){... */\n    tag_9:\n      tag_41\n      0x04\n      dup1\n      calldatasize\n      sub\n      dup2\n      add\n      swap1\n      tag_42\n      swap2\n      swap1\n      tag_43\n      jump\t// in\n    tag_42:\n      tag_44\n      jump\t// in\n    tag_41:\n      mload(0x40)\n      tag_45\n      swap2\n      swap1\n      tag_46\n      jump\t// in\n    tag_45:\n      mload(0x40)\n      dup1\n      swap2\n      sub\n      swap1\n      return\n        /* \"contracts/Voting02.sol\":9532:10579  function reclaimOriginalVotingRight() public returns(bool){... */\n    tag_10:\n      tag_47\n      tag_48\n      jump\t// in\n    tag_47:\n      mload(0x40)\n      tag_49\n      swap2\n      swap1\n      tag_30\n      jump\t// in\n    tag_49:\n      mload(0x40)\n      dup1\n      swap2\n      sub\n      swap1\n      return\n        /* \"contracts/Voting02.sol\":1467:1496  uint public motionCounter = 0 */\n    tag_11:\n      tag_50\n      tag_51\n      jump\t// in\n    tag_50:\n      mload(0x40)\n      tag_52\n      swap2\n      swap1\n      tag_46\n      jump\t// in\n    tag_52:\n      mload(0x40)\n      dup1\n      swap2\n      sub\n      swap1\n      return\n        /* \"contracts/Voting02.sol\":6583:8236  function voteForMotion(uint motionid_, uint optionid_) public{... */\n    tag_12:\n      tag_53\n      0x04\n      dup1\n      calldatasize\n      sub\n      dup2\n      add\n      swap1\n      tag_54\n      swap2\n      swap1\n      tag_55\n      jump\t// in\n    tag_54:\n      tag_56\n      jump\t// in\n    tag_53:\n      stop\n        /* \"contracts/Voting02.sol\":1503:1538  uint public votingRightsCounter = 0 */\n    tag_13:\n      tag_57\n      tag_58\n      jump\t// in\n    tag_57:\n      mload(0x40)\n      tag_59\n      swap2\n      swap1\n      tag_46\n      jump\t// in\n    tag_59:\n      mload(0x40)\n      dup1\n      swap2\n      sub\n      swap1\n      return\n        /* \"contracts/Voting02.sol\":3041:3298  function notContainedInArray(address[] memory arr_, address el_) pure public returns (bool){... */\n    tag_14:\n      tag_60\n      0x04\n      dup1\n      calldatasize\n      sub\n      dup2\n      add\n      swap1\n      tag_61\n      swap2\n      swap1\n      tag_62\n      jump\t// in\n    tag_61:\n      tag_63\n      jump\t// in\n    tag_60:\n      mload(0x40)\n      tag_64\n      swap2\n      swap1\n      tag_30\n      jump\t// in\n    tag_64:\n      mload(0x40)\n      dup1\n      swap2\n      sub\n      swap1\n      return\n        /* \"contracts/Voting02.sol\":2384:2435  mapping(address => Participant) public participants */\n    tag_19:\n      mstore(0x20, 0x02)\n      dup1\n      0x00\n      mstore\n      keccak256(0x00, 0x40)\n      0x00\n      swap2\n      pop\n      swap1\n      pop\n      dup1\n      0x00\n      add\n      0x00\n      swap1\n      sload\n      swap1\n      0x0100\n      exp\n      swap1\n      div\n      0xff\n      and\n      swap1\n      dup1\n      0x00\n      add\n      0x01\n      swap1\n      sload\n      swap1\n      0x0100\n      exp\n      swap1\n      div\n      0xffffffffffffffffffffffffffffffffffffffff\n      and\n      swap1\n      dup1\n      0x01\n      add\n      0x00\n      swap1\n      sload\n      swap1\n      0x0100\n      exp\n      swap1\n      div\n      0xffffffffffffffffffffffffffffffffffffffff\n      and\n      swap1\n      pop\n      dup4\n      jump\t// out\n        /* \"contracts/Voting02.sol\":5849:6575  function initiallySupportMotion(uint id_) public{... */\n    tag_25:\n        /* \"contracts/Voting02.sol\":5948:5969  ConventionRole.MEMBER */\n      0x01\n        /* \"contracts/Voting02.sol\":5916:5969  participants[msg.sender].role >=ConventionRole.MEMBER */\n      0x04\n      dup2\n      gt\n      iszero\n      tag_66\n      jumpi\n      tag_67\n      tag_68\n      jump\t// in\n    tag_67:\n    tag_66:\n        /* \"contracts/Voting02.sol\":5916:5928  participants */\n      0x02\n        /* \"contracts/Voting02.sol\":5916:5940  participants[msg.sender] */\n      0x00\n        /* \"contracts/Voting02.sol\":5929:5939  msg.sender */\n      caller\n        /* \"contracts/Voting02.sol\":5916:5940  participants[msg.sender] */\n      0xffffffffffffffffffffffffffffffffffffffff\n      and\n      0xffffffffffffffffffffffffffffffffffffffff\n      and\n      dup2\n      mstore\n      0x20\n      add\n      swap1\n      dup2\n      mstore\n      0x20\n      add\n      0x00\n      keccak256\n        /* \"contracts/Voting02.sol\":5916:5945  participants[msg.sender].role */\n      0x00\n      add\n      0x00\n      swap1\n      sload\n      swap1\n      0x0100\n      exp\n      swap1\n      div\n      0xff\n      and\n        /* \"contracts/Voting02.sol\":5916:5969  participants[msg.sender].role >=ConventionRole.MEMBER */\n      0x04\n      dup2\n      gt\n      iszero\n      tag_69\n      jumpi\n      tag_70\n      tag_68\n      jump\t// in\n    tag_70:\n    tag_69:\n      lt\n      iszero\n        /* \"contracts/Voting02.sol\":5908:6032  require(participants[msg.sender].role >=ConventionRole.MEMBER, \"Only party members can initially support a regular motion.\") */\n      tag_71\n      jumpi\n      mload(0x40)\n      0x08c379a000000000000000000000000000000000000000000000000000000000\n      dup2\n      mstore\n      0x04\n      add\n      tag_72\n      swap1\n      tag_73\n      jump\t// in\n    tag_72:\n      mload(0x40)\n      dup1\n      swap2\n      sub\n      swap1\n      revert\n    tag_71:\n        /* \"contracts/Voting02.sol\":6051:6113  notContainedInArray(motions[id_].initialSupporters,msg.sender) */\n      tag_74\n        /* \"contracts/Voting02.sol\":6071:6078  motions */\n      0x04\n        /* \"contracts/Voting02.sol\":6079:6082  id_ */\n      dup3\n        /* \"contracts/Voting02.sol\":6071:6083  motions[id_] */\n      dup2\n      sload\n      dup2\n      lt\n      tag_75\n      jumpi\n      tag_76\n      tag_77\n      jump\t// in\n    tag_76:\n    tag_75:\n      swap1\n      0x00\n      mstore\n      keccak256(0x00, 0x20)\n      swap1\n      0x06\n      mul\n      add\n        /* \"contracts/Voting02.sol\":6071:6101  motions[id_].initialSupporters */\n      0x05\n      add\n        /* \"contracts/Voting02.sol\":6051:6113  notContainedInArray(motions[id_].initialSupporters,msg.sender) */\n      dup1\n      sload\n      dup1\n      0x20\n      mul\n      0x20\n      add\n      mload(0x40)\n      swap1\n      dup2\n      add\n      0x40\n      mstore\n      dup1\n      swap3\n      swap2\n      swap1\n      dup2\n      dup2\n      mstore\n      0x20\n      add\n      dup3\n      dup1\n      sload\n      dup1\n      iszero\n      tag_79\n      jumpi\n      0x20\n      mul\n      dup3\n      add\n      swap2\n      swap1\n      0x00\n      mstore\n      keccak256(0x00, 0x20)\n      swap1\n    tag_80:\n      dup2\n      0x00\n      swap1\n      sload\n      swap1\n      0x0100\n      exp\n      swap1\n      div\n      0xffffffffffffffffffffffffffffffffffffffff\n      and\n      0xffffffffffffffffffffffffffffffffffffffff\n      and\n      dup2\n      mstore\n      0x20\n      add\n      swap1\n      0x01\n      add\n      swap1\n      dup1\n      dup4\n      gt\n      tag_80\n      jumpi\n    tag_79:\n      pop\n      pop\n      pop\n      pop\n      pop\n        /* \"contracts/Voting02.sol\":6102:6112  msg.sender */\n      caller\n        /* \"contracts/Voting02.sol\":6051:6070  notContainedInArray */\n      tag_63\n        /* \"contracts/Voting02.sol\":6051:6113  notContainedInArray(motions[id_].initialSupporters,msg.sender) */\n      jump\t// in\n    tag_74:\n        /* \"contracts/Voting02.sol\":6043:6176  require(notContainedInArray(motions[id_].initialSupporters,msg.sender), \"A member can only once support a regular motion initially.\") */\n      tag_81\n      jumpi\n      mload(0x40)\n      0x08c379a000000000000000000000000000000000000000000000000000000000\n      dup2\n      mstore\n      0x04\n      add\n      tag_82\n      swap1\n      tag_83\n      jump\t// in\n    tag_82:\n      mload(0x40)\n      dup1\n      swap2\n      sub\n      swap1\n      revert\n    tag_81:\n        /* \"contracts/Voting02.sol\":6280:6287  motions */\n      0x04\n        /* \"contracts/Voting02.sol\":6288:6291  id_ */\n      dup2\n        /* \"contracts/Voting02.sol\":6280:6292  motions[id_] */\n      dup2\n      sload\n      dup2\n      lt\n      tag_84\n      jumpi\n      tag_85\n      tag_77\n      jump\t// in\n    tag_85:\n    tag_84:\n      swap1\n      0x00\n      mstore\n      keccak256(0x00, 0x20)\n      swap1\n      0x06\n      mul\n      add\n        /* \"contracts/Voting02.sol\":6280:6310  motions[id_].initialSupporters */\n      0x05\n      add\n        /* \"contracts/Voting02.sol\":6316:6326  msg.sender */\n      caller\n        /* \"contracts/Voting02.sol\":6280:6327  motions[id_].initialSupporters.push(msg.sender) */\n      swap1\n      dup1\n      0x01\n      dup2\n      sload\n      add\n      dup1\n      dup3\n      sstore\n      dup1\n      swap2\n      pop\n      pop\n      0x01\n      swap1\n      sub\n      swap1\n      0x00\n      mstore\n      keccak256(0x00, 0x20)\n      add\n      0x00\n      swap1\n      swap2\n      swap1\n      swap2\n      swap1\n      swap2\n      0x0100\n      exp\n      dup2\n      sload\n      dup2\n      0xffffffffffffffffffffffffffffffffffffffff\n      mul\n      not\n      and\n      swap1\n      dup4\n      0xffffffffffffffffffffffffffffffffffffffff\n      and\n      mul\n      or\n      swap1\n      sstore\n      pop\n        /* \"contracts/Voting02.sol\":6383:6404  enoughSupporters(id_) */\n      tag_88\n        /* \"contracts/Voting02.sol\":6400:6403  id_ */\n      dup2\n        /* \"contracts/Voting02.sol\":6383:6399  enoughSupporters */\n      tag_28\n        /* \"contracts/Voting02.sol\":6383:6404  enoughSupporters(id_) */\n      jump\t// in\n    tag_88:\n        /* \"contracts/Voting02.sol\":6379:6568  if (enoughSupporters(id_)){... */\n      iszero\n      tag_89\n      jumpi\n        /* \"contracts/Voting02.sol\":6440:6457  MotionStatus.OPEN */\n      0x01\n        /* \"contracts/Voting02.sol\":6420:6427  motions */\n      0x04\n        /* \"contracts/Voting02.sol\":6428:6431  id_ */\n      dup3\n        /* \"contracts/Voting02.sol\":6420:6432  motions[id_] */\n      dup2\n      sload\n      dup2\n      lt\n      tag_90\n      jumpi\n      tag_91\n      tag_77\n      jump\t// in\n    tag_91:\n    tag_90:\n      swap1\n      0x00\n      mstore\n      keccak256(0x00, 0x20)\n      swap1\n      0x06\n      mul\n      add\n        /* \"contracts/Voting02.sol\":6420:6439  motions[id_].status */\n      0x02\n      add\n      0x01\n        /* \"contracts/Voting02.sol\":6420:6457  motions[id_].status=MotionStatus.OPEN */\n      0x0100\n      exp\n      dup2\n      sload\n      dup2\n      0xff\n      mul\n      not\n      and\n      swap1\n      dup4\n      0x02\n      dup2\n      gt\n      iszero\n      tag_93\n      jumpi\n      tag_94\n      tag_68\n      jump\t// in\n    tag_94:\n    tag_93:\n      mul\n      or\n      swap1\n      sstore\n      pop\n        /* \"contracts/Voting02.sol\":6379:6568  if (enoughSupporters(id_)){... */\n    tag_89:\n        /* \"contracts/Voting02.sol\":5849:6575  function initiallySupportMotion(uint id_) public{... */\n      pop\n      jump\t// out\n        /* \"contracts/Voting02.sol\":5413:5841  function enoughSupporters(uint id_) view public returns (bool){... */\n    tag_28:\n        /* \"contracts/Voting02.sol\":5470:5474  bool */\n      0x00\n        /* \"contracts/Voting02.sol\":5486:5501  uint  delegates */\n      dup1\n        /* \"contracts/Voting02.sol\":5504:5505  0 */\n      0x00\n        /* \"contracts/Voting02.sol\":5486:5505  uint  delegates = 0 */\n      swap1\n      pop\n        /* \"contracts/Voting02.sol\":5516:5529  uint  members */\n      0x00\n        /* \"contracts/Voting02.sol\":5551:5557  uint i */\n      dup1\n        /* \"contracts/Voting02.sol\":5546:5785  for (uint i=0; i<motions[id_].initialSupporters.length;i++ ){... */\n    tag_96:\n        /* \"contracts/Voting02.sol\":5563:5570  motions */\n      0x04\n        /* \"contracts/Voting02.sol\":5571:5574  id_ */\n      dup6\n        /* \"contracts/Voting02.sol\":5563:5575  motions[id_] */\n      dup2\n      sload\n      dup2\n      lt\n      tag_99\n      jumpi\n      tag_100\n      tag_77\n      jump\t// in\n    tag_100:\n    tag_99:\n      swap1\n      0x00\n      mstore\n      keccak256(0x00, 0x20)\n      swap1\n      0x06\n      mul\n      add\n        /* \"contracts/Voting02.sol\":5563:5593  motions[id_].initialSupporters */\n      0x05\n      add\n        /* \"contracts/Voting02.sol\":5563:5600  motions[id_].initialSupporters.length */\n      dup1\n      sload\n      swap1\n      pop\n        /* \"contracts/Voting02.sol\":5561:5562  i */\n      dup2\n        /* \"contracts/Voting02.sol\":5561:5600  i<motions[id_].initialSupporters.length */\n      lt\n        /* \"contracts/Voting02.sol\":5546:5785  for (uint i=0; i<motions[id_].initialSupporters.length;i++ ){... */\n      iszero\n      tag_97\n      jumpi\n        /* \"contracts/Voting02.sol\":5681:5704  ConventionRole.DELEGATE */\n      0x03\n        /* \"contracts/Voting02.sol\":5625:5704  participants[motions[id_].initialSupporters[i]].role >= ConventionRole.DELEGATE */\n      0x04\n      dup2\n      gt\n      iszero\n      tag_102\n      jumpi\n      tag_103\n      tag_68\n      jump\t// in\n    tag_103:\n    tag_102:\n        /* \"contracts/Voting02.sol\":5625:5637  participants */\n      0x02\n        /* \"contracts/Voting02.sol\":5625:5672  participants[motions[id_].initialSupporters[i]] */\n      0x00\n        /* \"contracts/Voting02.sol\":5638:5645  motions */\n      0x04\n        /* \"contracts/Voting02.sol\":5646:5649  id_ */\n      dup9\n        /* \"contracts/Voting02.sol\":5638:5650  motions[id_] */\n      dup2\n      sload\n      dup2\n      lt\n      tag_104\n      jumpi\n      tag_105\n      tag_77\n      jump\t// in\n    tag_105:\n    tag_104:\n      swap1\n      0x00\n      mstore\n      keccak256(0x00, 0x20)\n      swap1\n      0x06\n      mul\n      add\n        /* \"contracts/Voting02.sol\":5638:5668  motions[id_].initialSupporters */\n      0x05\n      add\n        /* \"contracts/Voting02.sol\":5669:5670  i */\n      dup5\n        /* \"contracts/Voting02.sol\":5638:5671  motions[id_].initialSupporters[i] */\n      dup2\n      sload\n      dup2\n      lt\n      tag_107\n      jumpi\n      tag_108\n      tag_77\n      jump\t// in\n    tag_108:\n    tag_107:\n      swap1\n      0x00\n      mstore\n      keccak256(0x00, 0x20)\n      add\n      0x00\n      swap1\n      sload\n      swap1\n      0x0100\n      exp\n      swap1\n      div\n      0xffffffffffffffffffffffffffffffffffffffff\n      and\n        /* \"contracts/Voting02.sol\":5625:5672  participants[motions[id_].initialSupporters[i]] */\n      0xffffffffffffffffffffffffffffffffffffffff\n      and\n      0xffffffffffffffffffffffffffffffffffffffff\n      and\n      dup2\n      mstore\n      0x20\n      add\n      swap1\n      dup2\n      mstore\n      0x20\n      add\n      0x00\n      keccak256\n        /* \"contracts/Voting02.sol\":5625:5677  participants[motions[id_].initialSupporters[i]].role */\n      0x00\n      add\n      0x00\n      swap1\n      sload\n      swap1\n      0x0100\n      exp\n      swap1\n      div\n      0xff\n      and\n        /* \"contracts/Voting02.sol\":5625:5704  participants[motions[id_].initialSupporters[i]].role >= ConventionRole.DELEGATE */\n      0x04\n      dup2\n      gt\n      iszero\n      tag_110\n      jumpi\n      tag_111\n      tag_68\n      jump\t// in\n    tag_111:\n    tag_110:\n      lt\n        /* \"contracts/Voting02.sol\":5621:5750  if (participants[motions[id_].initialSupporters[i]].role >= ConventionRole.DELEGATE){... */\n      tag_112\n      jumpi\n        /* \"contracts/Voting02.sol\":5723:5734  delegates++ */\n      dup3\n      dup1\n      tag_113\n      swap1\n      tag_114\n      jump\t// in\n    tag_113:\n      swap4\n      pop\n      pop\n        /* \"contracts/Voting02.sol\":5621:5750  if (participants[motions[id_].initialSupporters[i]].role >= ConventionRole.DELEGATE){... */\n    tag_112:\n        /* \"contracts/Voting02.sol\":5764:5773  members++ */\n      dup2\n      dup1\n      tag_115\n      swap1\n      tag_114\n      jump\t// in\n    tag_115:\n      swap3\n      pop\n      pop\n        /* \"contracts/Voting02.sol\":5601:5604  i++ */\n      dup1\n      dup1\n      tag_116\n      swap1\n      tag_114\n      jump\t// in\n    tag_116:\n      swap2\n      pop\n      pop\n        /* \"contracts/Voting02.sol\":5546:5785  for (uint i=0; i<motions[id_].initialSupporters.length;i++ ){... */\n      jump(tag_96)\n    tag_97:\n      pop\n        /* \"contracts/Voting02.sol\":5813:5815  10 */\n      0x0a\n        /* \"contracts/Voting02.sol\":5802:5811  delegates */\n      dup3\n        /* \"contracts/Voting02.sol\":5802:5815  delegates>=10 */\n      lt\n      iszero\n        /* \"contracts/Voting02.sol\":5802:5831  delegates>=10 || members >=30 */\n      dup1\n      tag_117\n      jumpi\n      pop\n        /* \"contracts/Voting02.sol\":5829:5831  30 */\n      0x1e\n        /* \"contracts/Voting02.sol\":5819:5826  members */\n      dup2\n        /* \"contracts/Voting02.sol\":5819:5831  members >=30 */\n      lt\n      iszero\n        /* \"contracts/Voting02.sol\":5802:5831  delegates>=10 || members >=30 */\n    tag_117:\n        /* \"contracts/Voting02.sol\":5795:5831  return delegates>=10 || members >=30 */\n      swap3\n      pop\n      pop\n      pop\n        /* \"contracts/Voting02.sol\":5413:5841  function enoughSupporters(uint id_) view public returns (bool){... */\n      swap2\n      swap1\n      pop\n      jump\t// out\n        /* \"contracts/Voting02.sol\":3308:4152  function addParticipant(ConventionRole role_, address addr_ ) external {... */\n    tag_34:\n        /* \"contracts/Voting02.sol\":3431:3451  ConventionRole.ADMIN */\n      0x04\n        /* \"contracts/Voting02.sol\":3398:3451  participants[msg.sender].role == ConventionRole.ADMIN */\n      dup1\n      dup2\n      gt\n      iszero\n      tag_119\n      jumpi\n      tag_120\n      tag_68\n      jump\t// in\n    tag_120:\n    tag_119:\n        /* \"contracts/Voting02.sol\":3398:3410  participants */\n      0x02\n        /* \"contracts/Voting02.sol\":3398:3422  participants[msg.sender] */\n      0x00\n        /* \"contracts/Voting02.sol\":3411:3421  msg.sender */\n      caller\n        /* \"contracts/Voting02.sol\":3398:3422  participants[msg.sender] */\n      0xffffffffffffffffffffffffffffffffffffffff\n      and\n      0xffffffffffffffffffffffffffffffffffffffff\n      and\n      dup2\n      mstore\n      0x20\n      add\n      swap1\n      dup2\n      mstore\n      0x20\n      add\n      0x00\n      keccak256\n        /* \"contracts/Voting02.sol\":3398:3427  participants[msg.sender].role */\n      0x00\n      add\n      0x00\n      swap1\n      sload\n      swap1\n      0x0100\n      exp\n      swap1\n      div\n      0xff\n      and\n        /* \"contracts/Voting02.sol\":3398:3451  participants[msg.sender].role == ConventionRole.ADMIN */\n      0x04\n      dup2\n      gt\n      iszero\n      tag_121\n      jumpi\n      tag_122\n      tag_68\n      jump\t// in\n    tag_122:\n    tag_121:\n      eq\n        /* \"contracts/Voting02.sol\":3390:3504  require(participants[msg.sender].role == ConventionRole.ADMIN, \"Only admins can add new convention participants.\") */\n      tag_123\n      jumpi\n      mload(0x40)\n      0x08c379a000000000000000000000000000000000000000000000000000000000\n      dup2\n      mstore\n      0x04\n      add\n      tag_124\n      swap1\n      tag_125\n      jump\t// in\n    tag_124:\n      mload(0x40)\n      dup1\n      swap2\n      sub\n      swap1\n      revert\n    tag_123:\n        /* \"contracts/Voting02.sol\":3570:3571  0 */\n      0x00\n        /* \"contracts/Voting02.sol\":3524:3572  participants[addr_].votingRight1from==address(0) */\n      0xffffffffffffffffffffffffffffffffffffffff\n      and\n        /* \"contracts/Voting02.sol\":3524:3536  participants */\n      0x02\n        /* \"contracts/Voting02.sol\":3524:3543  participants[addr_] */\n      0x00\n        /* \"contracts/Voting02.sol\":3537:3542  addr_ */\n      dup4\n        /* \"contracts/Voting02.sol\":3524:3543  participants[addr_] */\n      0xffffffffffffffffffffffffffffffffffffffff\n      and\n      0xffffffffffffffffffffffffffffffffffffffff\n      and\n      dup2\n      mstore\n      0x20\n      add\n      swap1\n      dup2\n      mstore\n      0x20\n      add\n      0x00\n      keccak256\n        /* \"contracts/Voting02.sol\":3524:3560  participants[addr_].votingRight1from */\n      0x00\n      add\n      0x01\n      swap1\n      sload\n      swap1\n      0x0100\n      exp\n      swap1\n      div\n      0xffffffffffffffffffffffffffffffffffffffff\n      and\n        /* \"contracts/Voting02.sol\":3524:3572  participants[addr_].votingRight1from==address(0) */\n      0xffffffffffffffffffffffffffffffffffffffff\n      and\n      eq\n        /* \"contracts/Voting02.sol\":3524:3624  participants[addr_].votingRight1from==address(0) && participants[addr_].votingRight2from==address(0) */\n      dup1\n      iszero\n      tag_126\n      jumpi\n      pop\n        /* \"contracts/Voting02.sol\":3622:3623  0 */\n      0x00\n        /* \"contracts/Voting02.sol\":3576:3624  participants[addr_].votingRight2from==address(0) */\n      0xffffffffffffffffffffffffffffffffffffffff\n      and\n        /* \"contracts/Voting02.sol\":3576:3588  participants */\n      0x02\n        /* \"contracts/Voting02.sol\":3576:3595  participants[addr_] */\n      0x00\n        /* \"contracts/Voting02.sol\":3589:3594  addr_ */\n      dup4\n        /* \"contracts/Voting02.sol\":3576:3595  participants[addr_] */\n      0xffffffffffffffffffffffffffffffffffffffff\n      and\n      0xffffffffffffffffffffffffffffffffffffffff\n      and\n      dup2\n      mstore\n      0x20\n      add\n      swap1\n      dup2\n      mstore\n      0x20\n      add\n      0x00\n      keccak256\n        /* \"contracts/Voting02.sol\":3576:3612  participants[addr_].votingRight2from */\n      0x01\n      add\n      0x00\n      swap1\n      sload\n      swap1\n      0x0100\n      exp\n      swap1\n      div\n      0xffffffffffffffffffffffffffffffffffffffff\n      and\n        /* \"contracts/Voting02.sol\":3576:3624  participants[addr_].votingRight2from==address(0) */\n      0xffffffffffffffffffffffffffffffffffffffff\n      and\n      eq\n        /* \"contracts/Voting02.sol\":3524:3624  participants[addr_].votingRight1from==address(0) && participants[addr_].votingRight2from==address(0) */\n    tag_126:\n        /* \"contracts/Voting02.sol\":3516:3688  require(participants[addr_].votingRight1from==address(0) && participants[addr_].votingRight2from==address(0), \"The Participant was already added and holds voting rights.\" ) */\n      tag_127\n      jumpi\n      mload(0x40)\n      0x08c379a000000000000000000000000000000000000000000000000000000000\n      dup2\n      mstore\n      0x04\n      add\n      tag_128\n      swap1\n      tag_129\n      jump\t// in\n    tag_128:\n      mload(0x40)\n      dup1\n      swap2\n      sub\n      swap1\n      revert\n    tag_127:\n        /* \"contracts/Voting02.sol\":3707:3722  noOpenMotions() */\n      tag_130\n        /* \"contracts/Voting02.sol\":3707:3720  noOpenMotions */\n      tag_131\n        /* \"contracts/Voting02.sol\":3707:3722  noOpenMotions() */\n      jump\t// in\n    tag_130:\n        /* \"contracts/Voting02.sol\":3699:3781  require(noOpenMotions(), \"Can not add new participants while voting is going on.\") */\n      tag_132\n      jumpi\n      mload(0x40)\n      0x08c379a000000000000000000000000000000000000000000000000000000000\n      dup2\n      mstore\n      0x04\n      add\n      tag_133\n      swap1\n      tag_134\n      jump\t// in\n    tag_133:\n      mload(0x40)\n      dup1\n      swap2\n      sub\n      swap1\n      revert\n    tag_132:\n        /* \"contracts/Voting02.sol\":3794:3827  Participant memory newParticipant */\n      tag_135\n      tag_136\n      jump\t// in\n    tag_135:\n        /* \"contracts/Voting02.sol\":3860:3865  role_ */\n      dup3\n        /* \"contracts/Voting02.sol\":3838:3852  newParticipant */\n      dup2\n        /* \"contracts/Voting02.sol\":3838:3857  newParticipant.role */\n      0x00\n      add\n        /* \"contracts/Voting02.sol\":3838:3865  newParticipant.role = role_ */\n      swap1\n      0x04\n      dup2\n      gt\n      iszero\n      tag_137\n      jumpi\n      tag_138\n      tag_68\n      jump\t// in\n    tag_138:\n    tag_137:\n      swap1\n      dup2\n      0x04\n      dup2\n      gt\n      iszero\n      tag_139\n      jumpi\n      tag_140\n      tag_68\n      jump\t// in\n    tag_140:\n    tag_139:\n      dup2\n      mstore\n      pop\n      pop\n        /* \"contracts/Voting02.sol\":3889:3912  ConventionRole.DELEGATE */\n      0x03\n        /* \"contracts/Voting02.sol\":3880:3912  role_ == ConventionRole.DELEGATE */\n      0x04\n      dup2\n      gt\n      iszero\n      tag_141\n      jumpi\n      tag_142\n      tag_68\n      jump\t// in\n    tag_142:\n    tag_141:\n        /* \"contracts/Voting02.sol\":3880:3885  role_ */\n      dup4\n        /* \"contracts/Voting02.sol\":3880:3912  role_ == ConventionRole.DELEGATE */\n      0x04\n      dup2\n      gt\n      iszero\n      tag_143\n      jumpi\n      tag_144\n      tag_68\n      jump\t// in\n    tag_144:\n    tag_143:\n      eq\n        /* \"contracts/Voting02.sol\":3880:3945  role_ == ConventionRole.DELEGATE || role_ == ConventionRole.ADMIN */\n      dup1\n      tag_145\n      jumpi\n      pop\n        /* \"contracts/Voting02.sol\":3925:3945  ConventionRole.ADMIN */\n      0x04\n        /* \"contracts/Voting02.sol\":3916:3945  role_ == ConventionRole.ADMIN */\n      dup1\n      dup2\n      gt\n      iszero\n      tag_146\n      jumpi\n      tag_147\n      tag_68\n      jump\t// in\n    tag_147:\n    tag_146:\n        /* \"contracts/Voting02.sol\":3916:3921  role_ */\n      dup4\n        /* \"contracts/Voting02.sol\":3916:3945  role_ == ConventionRole.ADMIN */\n      0x04\n      dup2\n      gt\n      iszero\n      tag_148\n      jumpi\n      tag_149\n      tag_68\n      jump\t// in\n    tag_149:\n    tag_148:\n      eq\n        /* \"contracts/Voting02.sol\":3880:3945  role_ == ConventionRole.DELEGATE || role_ == ConventionRole.ADMIN */\n    tag_145:\n        /* \"contracts/Voting02.sol\":3876:4047  if (role_ == ConventionRole.DELEGATE || role_ == ConventionRole.ADMIN){... */\n      iszero\n      tag_150\n      jumpi\n        /* \"contracts/Voting02.sol\":3994:3999  addr_ */\n      dup2\n        /* \"contracts/Voting02.sol\":3961:3975  newParticipant */\n      dup2\n        /* \"contracts/Voting02.sol\":3961:3992  newParticipant.votingRight1from */\n      0x20\n      add\n        /* \"contracts/Voting02.sol\":3961:3999  newParticipant.votingRight1from =addr_ */\n      swap1\n      0xffffffffffffffffffffffffffffffffffffffff\n      and\n      swap1\n      dup2\n      0xffffffffffffffffffffffffffffffffffffffff\n      and\n      dup2\n      mstore\n      pop\n      pop\n        /* \"contracts/Voting02.sol\":4014:4033  votingRightsCounter */\n      0x01\n      0x00\n        /* \"contracts/Voting02.sol\":4014:4035  votingRightsCounter++ */\n      dup2\n      sload\n      dup1\n      swap3\n      swap2\n      swap1\n      tag_151\n      swap1\n      tag_114\n      jump\t// in\n    tag_151:\n      swap2\n      swap1\n      pop\n      sstore\n      pop\n        /* \"contracts/Voting02.sol\":3876:4047  if (role_ == ConventionRole.DELEGATE || role_ == ConventionRole.ADMIN){... */\n    tag_150:\n        /* \"contracts/Voting02.sol\":4080:4094  newParticipant */\n      dup1\n        /* \"contracts/Voting02.sol\":4057:4069  participants */\n      0x02\n        /* \"contracts/Voting02.sol\":4057:4076  participants[addr_] */\n      0x00\n        /* \"contracts/Voting02.sol\":4070:4075  addr_ */\n      dup5\n        /* \"contracts/Voting02.sol\":4057:4076  participants[addr_] */\n      0xffffffffffffffffffffffffffffffffffffffff\n      and\n      0xffffffffffffffffffffffffffffffffffffffff\n      and\n      dup2\n      mstore\n      0x20\n      add\n      swap1\n      dup2\n      mstore\n      0x20\n      add\n      0x00\n      keccak256\n        /* \"contracts/Voting02.sol\":4057:4094  participants[addr_]  = newParticipant */\n      0x00\n      dup3\n      add\n      mload\n      dup2\n      0x00\n      add\n      exp(0x0100, 0x00)\n      dup2\n      sload\n      dup2\n      0xff\n      mul\n      not\n      and\n      swap1\n      dup4\n      0x04\n      dup2\n      gt\n      iszero\n      tag_152\n      jumpi\n      tag_153\n      tag_68\n      jump\t// in\n    tag_153:\n    tag_152:\n      mul\n      or\n      swap1\n      sstore\n      pop\n      0x20\n      dup3\n      add\n      mload\n      dup2\n      0x00\n      add\n      exp(0x0100, 0x01)\n      dup2\n      sload\n      dup2\n      0xffffffffffffffffffffffffffffffffffffffff\n      mul\n      not\n      and\n      swap1\n      dup4\n      0xffffffffffffffffffffffffffffffffffffffff\n      and\n      mul\n      or\n      swap1\n      sstore\n      pop\n      0x40\n      dup3\n      add\n      mload\n      dup2\n      0x01\n      add\n      exp(0x0100, 0x00)\n      dup2\n      sload\n      dup2\n      0xffffffffffffffffffffffffffffffffffffffff\n      mul\n      not\n      and\n      swap1\n      dup4\n      0xffffffffffffffffffffffffffffffffffffffff\n      and\n      mul\n      or\n      swap1\n      sstore\n      pop\n      swap1\n      pop\n      pop\n        /* \"contracts/Voting02.sol\":4105:4122  participantsArray */\n      0x03\n        /* \"contracts/Voting02.sol\":4128:4133  addr_ */\n      dup3\n        /* \"contracts/Voting02.sol\":4105:4134  participantsArray.push(addr_) */\n      swap1\n      dup1\n      0x01\n      dup2\n      sload\n      add\n      dup1\n      dup3\n      sstore\n      dup1\n      swap2\n      pop\n      pop\n      0x01\n      swap1\n      sub\n      swap1\n      0x00\n      mstore\n      keccak256(0x00, 0x20)\n      add\n      0x00\n      swap1\n      swap2\n      swap1\n      swap2\n      swap1\n      swap2\n      0x0100\n      exp\n      dup2\n      sload\n      dup2\n      0xffffffffffffffffffffffffffffffffffffffff\n      mul\n      not\n      and\n      swap1\n      dup4\n      0xffffffffffffffffffffffffffffffffffffffff\n      and\n      mul\n      or\n      swap1\n      sstore\n      pop\n        /* \"contracts/Voting02.sol\":3379:4152  {... */\n      pop\n        /* \"contracts/Voting02.sol\":3308:4152  function addParticipant(ConventionRole role_, address addr_ ) external {... */\n      pop\n      pop\n      jump\t// out\n        /* \"contracts/Voting02.sol\":4160:4459  function closeMotion(uint id_) public{... */\n    tag_37:\n        /* \"contracts/Voting02.sol\":4249:4269  ConventionRole.ADMIN */\n      0x04\n        /* \"contracts/Voting02.sol\":4216:4269  participants[msg.sender].role == ConventionRole.ADMIN */\n      dup1\n      dup2\n      gt\n      iszero\n      tag_156\n      jumpi\n      tag_157\n      tag_68\n      jump\t// in\n    tag_157:\n    tag_156:\n        /* \"contracts/Voting02.sol\":4216:4228  participants */\n      0x02\n        /* \"contracts/Voting02.sol\":4216:4240  participants[msg.sender] */\n      0x00\n        /* \"contracts/Voting02.sol\":4229:4239  msg.sender */\n      caller\n        /* \"contracts/Voting02.sol\":4216:4240  participants[msg.sender] */\n      0xffffffffffffffffffffffffffffffffffffffff\n      and\n      0xffffffffffffffffffffffffffffffffffffffff\n      and\n      dup2\n      mstore\n      0x20\n      add\n      swap1\n      dup2\n      mstore\n      0x20\n      add\n      0x00\n      keccak256\n        /* \"contracts/Voting02.sol\":4216:4245  participants[msg.sender].role */\n      0x00\n      add\n      0x00\n      swap1\n      sload\n      swap1\n      0x0100\n      exp\n      swap1\n      div\n      0xff\n      and\n        /* \"contracts/Voting02.sol\":4216:4269  participants[msg.sender].role == ConventionRole.ADMIN */\n      0x04\n      dup2\n      gt\n      iszero\n      tag_158\n      jumpi\n      tag_159\n      tag_68\n      jump\t// in\n    tag_159:\n    tag_158:\n      eq\n        /* \"contracts/Voting02.sol\":4208:4304  require(participants[msg.sender].role == ConventionRole.ADMIN, \"Only admins can close motions.\") */\n      tag_160\n      jumpi\n      mload(0x40)\n      0x08c379a000000000000000000000000000000000000000000000000000000000\n      dup2\n      mstore\n      0x04\n      add\n      tag_161\n      swap1\n      tag_162\n      jump\t// in\n    tag_161:\n      mload(0x40)\n      dup1\n      swap2\n      sub\n      swap1\n      revert\n    tag_160:\n        /* \"contracts/Voting02.sol\":4345:4362  MotionStatus.OPEN */\n      0x01\n        /* \"contracts/Voting02.sol\":4324:4362  motions[id_].status==MotionStatus.OPEN */\n      0x02\n      dup2\n      gt\n      iszero\n      tag_163\n      jumpi\n      tag_164\n      tag_68\n      jump\t// in\n    tag_164:\n    tag_163:\n        /* \"contracts/Voting02.sol\":4324:4331  motions */\n      0x04\n        /* \"contracts/Voting02.sol\":4332:4335  id_ */\n      dup3\n        /* \"contracts/Voting02.sol\":4324:4336  motions[id_] */\n      dup2\n      sload\n      dup2\n      lt\n      tag_165\n      jumpi\n      tag_166\n      tag_77\n      jump\t// in\n    tag_166:\n    tag_165:\n      swap1\n      0x00\n      mstore\n      keccak256(0x00, 0x20)\n      swap1\n      0x06\n      mul\n      add\n        /* \"contracts/Voting02.sol\":4324:4343  motions[id_].status */\n      0x02\n      add\n      0x01\n      swap1\n      sload\n      swap1\n      0x0100\n      exp\n      swap1\n      div\n      0xff\n      and\n        /* \"contracts/Voting02.sol\":4324:4362  motions[id_].status==MotionStatus.OPEN */\n      0x02\n      dup2\n      gt\n      iszero\n      tag_168\n      jumpi\n      tag_169\n      tag_68\n      jump\t// in\n    tag_169:\n    tag_168:\n      eq\n        /* \"contracts/Voting02.sol\":4316:4399  require(motions[id_].status==MotionStatus.OPEN, \"Only open motions can be closed.\") */\n      tag_170\n      jumpi\n      mload(0x40)\n      0x08c379a000000000000000000000000000000000000000000000000000000000\n      dup2\n      mstore\n      0x04\n      add\n      tag_171\n      swap1\n      tag_172\n      jump\t// in\n    tag_171:\n      mload(0x40)\n      dup1\n      swap2\n      sub\n      swap1\n      revert\n    tag_170:\n        /* \"contracts/Voting02.sol\":4432:4451  MotionStatus.CLOSED */\n      0x02\n        /* \"contracts/Voting02.sol\":4410:4417  motions */\n      0x04\n        /* \"contracts/Voting02.sol\":4418:4421  id_ */\n      dup3\n        /* \"contracts/Voting02.sol\":4410:4422  motions[id_] */\n      dup2\n      sload\n      dup2\n      lt\n      tag_173\n      jumpi\n      tag_174\n      tag_77\n      jump\t// in\n    tag_174:\n    tag_173:\n      swap1\n      0x00\n      mstore\n      keccak256(0x00, 0x20)\n      swap1\n      0x06\n      mul\n      add\n        /* \"contracts/Voting02.sol\":4410:4429  motions[id_].status */\n      0x02\n      add\n      0x01\n        /* \"contracts/Voting02.sol\":4410:4451  motions[id_].status = MotionStatus.CLOSED */\n      0x0100\n      exp\n      dup2\n      sload\n      dup2\n      0xff\n      mul\n      not\n      and\n      swap1\n      dup4\n      0x02\n      dup2\n      gt\n      iszero\n      tag_176\n      jumpi\n      tag_177\n      tag_68\n      jump\t// in\n    tag_177:\n    tag_176:\n      mul\n      or\n      swap1\n      sstore\n      pop\n        /* \"contracts/Voting02.sol\":4160:4459  function closeMotion(uint id_) public{... */\n      pop\n      jump\t// out\n        /* \"contracts/Voting02.sol\":8244:9063  function transferVotingRight1(address towhom_) public{... */\n    tag_40:\n        /* \"contracts/Voting02.sol\":8348:8382  ConventionRole.REPLACEMENTDELEGATE */\n      0x02\n        /* \"contracts/Voting02.sol\":8316:8382  participants[msg.sender].role >=ConventionRole.REPLACEMENTDELEGATE */\n      0x04\n      dup2\n      gt\n      iszero\n      tag_179\n      jumpi\n      tag_180\n      tag_68\n      jump\t// in\n    tag_180:\n    tag_179:\n        /* \"contracts/Voting02.sol\":8316:8328  participants */\n      0x02\n        /* \"contracts/Voting02.sol\":8316:8340  participants[msg.sender] */\n      0x00\n        /* \"contracts/Voting02.sol\":8329:8339  msg.sender */\n      caller\n        /* \"contracts/Voting02.sol\":8316:8340  participants[msg.sender] */\n      0xffffffffffffffffffffffffffffffffffffffff\n      and\n      0xffffffffffffffffffffffffffffffffffffffff\n      and\n      dup2\n      mstore\n      0x20\n      add\n      swap1\n      dup2\n      mstore\n      0x20\n      add\n      0x00\n      keccak256\n        /* \"contracts/Voting02.sol\":8316:8345  participants[msg.sender].role */\n      0x00\n      add\n      0x00\n      swap1\n      sload\n      swap1\n      0x0100\n      exp\n      swap1\n      div\n      0xff\n      and\n        /* \"contracts/Voting02.sol\":8316:8382  participants[msg.sender].role >=ConventionRole.REPLACEMENTDELEGATE */\n      0x04\n      dup2\n      gt\n      iszero\n      tag_181\n      jumpi\n      tag_182\n      tag_68\n      jump\t// in\n    tag_182:\n    tag_181:\n      lt\n      iszero\n        /* \"contracts/Voting02.sol\":8308:8442  require(participants[msg.sender].role >=ConventionRole.REPLACEMENTDELEGATE, \"Only (replacement)delegates can transfer voting rights.\") */\n      tag_183\n      jumpi\n      mload(0x40)\n      0x08c379a000000000000000000000000000000000000000000000000000000000\n      dup2\n      mstore\n      0x04\n      add\n      tag_184\n      swap1\n      tag_185\n      jump\t// in\n    tag_184:\n      mload(0x40)\n      dup1\n      swap2\n      sub\n      swap1\n      revert\n    tag_183:\n        /* \"contracts/Voting02.sol\":8490:8524  ConventionRole.REPLACEMENTDELEGATE */\n      0x02\n        /* \"contracts/Voting02.sol\":8461:8524  participants[towhom_].role >=ConventionRole.REPLACEMENTDELEGATE */\n      0x04\n      dup2\n      gt\n      iszero\n      tag_186\n      jumpi\n      tag_187\n      tag_68\n      jump\t// in\n    tag_187:\n    tag_186:\n        /* \"contracts/Voting02.sol\":8461:8473  participants */\n      0x02\n        /* \"contracts/Voting02.sol\":8461:8482  participants[towhom_] */\n      0x00\n        /* \"contracts/Voting02.sol\":8474:8481  towhom_ */\n      dup4\n        /* \"contracts/Voting02.sol\":8461:8482  participants[towhom_] */\n      0xffffffffffffffffffffffffffffffffffffffff\n      and\n      0xffffffffffffffffffffffffffffffffffffffff\n      and\n      dup2\n      mstore\n      0x20\n      add\n      swap1\n      dup2\n      mstore\n      0x20\n      add\n      0x00\n      keccak256\n        /* \"contracts/Voting02.sol\":8461:8487  participants[towhom_].role */\n      0x00\n      add\n      0x00\n      swap1\n      sload\n      swap1\n      0x0100\n      exp\n      swap1\n      div\n      0xff\n      and\n        /* \"contracts/Voting02.sol\":8461:8524  participants[towhom_].role >=ConventionRole.REPLACEMENTDELEGATE */\n      0x04\n      dup2\n      gt\n      iszero\n      tag_188\n      jumpi\n      tag_189\n      tag_68\n      jump\t// in\n    tag_189:\n    tag_188:\n      lt\n      iszero\n        /* \"contracts/Voting02.sol\":8453:8583  require(participants[towhom_].role >=ConventionRole.REPLACEMENTDELEGATE, \"Only (replacement)delegates can receive voting rights.\") */\n      tag_190\n      jumpi\n      mload(0x40)\n      0x08c379a000000000000000000000000000000000000000000000000000000000\n      dup2\n      mstore\n      0x04\n      add\n      tag_191\n      swap1\n      tag_192\n      jump\t// in\n    tag_191:\n      mload(0x40)\n      dup1\n      swap2\n      sub\n      swap1\n      revert\n    tag_190:\n        /* \"contracts/Voting02.sol\":8657:8658  0 */\n      0x00\n        /* \"contracts/Voting02.sol\":8604:8659  participants[msg.sender].votingRight1from != address(0) */\n      0xffffffffffffffffffffffffffffffffffffffff\n      and\n        /* \"contracts/Voting02.sol\":8604:8616  participants */\n      0x02\n        /* \"contracts/Voting02.sol\":8604:8628  participants[msg.sender] */\n      0x00\n        /* \"contracts/Voting02.sol\":8617:8627  msg.sender */\n      caller\n        /* \"contracts/Voting02.sol\":8604:8628  participants[msg.sender] */\n      0xffffffffffffffffffffffffffffffffffffffff\n      and\n      0xffffffffffffffffffffffffffffffffffffffff\n      and\n      dup2\n      mstore\n      0x20\n      add\n      swap1\n      dup2\n      mstore\n      0x20\n      add\n      0x00\n      keccak256\n        /* \"contracts/Voting02.sol\":8604:8645  participants[msg.sender].votingRight1from */\n      0x00\n      add\n      0x01\n      swap1\n      sload\n      swap1\n      0x0100\n      exp\n      swap1\n      div\n      0xffffffffffffffffffffffffffffffffffffffff\n      and\n        /* \"contracts/Voting02.sol\":8604:8659  participants[msg.sender].votingRight1from != address(0) */\n      0xffffffffffffffffffffffffffffffffffffffff\n      and\n      sub\n        /* \"contracts/Voting02.sol\":8596:8712  require(participants[msg.sender].votingRight1from != address(0), \"Message sender does not hold any voting right 1.\") */\n      tag_193\n      jumpi\n      mload(0x40)\n      0x08c379a000000000000000000000000000000000000000000000000000000000\n      dup2\n      mstore\n      0x04\n      add\n      tag_194\n      swap1\n      tag_195\n      jump\t// in\n    tag_194:\n      mload(0x40)\n      dup1\n      swap2\n      sub\n      swap1\n      revert\n    tag_193:\n        /* \"contracts/Voting02.sol\":8781:8782  0 */\n      0x00\n        /* \"contracts/Voting02.sol\":8731:8783  participants[towhom_].votingRight1from == address(0) */\n      0xffffffffffffffffffffffffffffffffffffffff\n      and\n        /* \"contracts/Voting02.sol\":8731:8743  participants */\n      0x02\n        /* \"contracts/Voting02.sol\":8731:8752  participants[towhom_] */\n      0x00\n        /* \"contracts/Voting02.sol\":8744:8751  towhom_ */\n      dup4\n        /* \"contracts/Voting02.sol\":8731:8752  participants[towhom_] */\n      0xffffffffffffffffffffffffffffffffffffffff\n      and\n      0xffffffffffffffffffffffffffffffffffffffff\n      and\n      dup2\n      mstore\n      0x20\n      add\n      swap1\n      dup2\n      mstore\n      0x20\n      add\n      0x00\n      keccak256\n        /* \"contracts/Voting02.sol\":8731:8769  participants[towhom_].votingRight1from */\n      0x00\n      add\n      0x01\n      swap1\n      sload\n      swap1\n      0x0100\n      exp\n      swap1\n      div\n      0xffffffffffffffffffffffffffffffffffffffff\n      and\n        /* \"contracts/Voting02.sol\":8731:8783  participants[towhom_].votingRight1from == address(0) */\n      0xffffffffffffffffffffffffffffffffffffffff\n      and\n      eq\n        /* \"contracts/Voting02.sol\":8731:8839  participants[towhom_].votingRight1from == address(0) || participants[towhom_].votingRight2from == address(0) */\n      dup1\n      tag_196\n      jumpi\n      pop\n        /* \"contracts/Voting02.sol\":8837:8838  0 */\n      0x00\n        /* \"contracts/Voting02.sol\":8787:8839  participants[towhom_].votingRight2from == address(0) */\n      0xffffffffffffffffffffffffffffffffffffffff\n      and\n        /* \"contracts/Voting02.sol\":8787:8799  participants */\n      0x02\n        /* \"contracts/Voting02.sol\":8787:8808  participants[towhom_] */\n      0x00\n        /* \"contracts/Voting02.sol\":8800:8807  towhom_ */\n      dup4\n        /* \"contracts/Voting02.sol\":8787:8808  participants[towhom_] */\n      0xffffffffffffffffffffffffffffffffffffffff\n      and\n      0xffffffffffffffffffffffffffffffffffffffff\n      and\n      dup2\n      mstore\n      0x20\n      add\n      swap1\n      dup2\n      mstore\n      0x20\n      add\n      0x00\n      keccak256\n        /* \"contracts/Voting02.sol\":8787:8825  participants[towhom_].votingRight2from */\n      0x01\n      add\n      0x00\n      swap1\n      sload\n      swap1\n      0x0100\n      exp\n      swap1\n      div\n      0xffffffffffffffffffffffffffffffffffffffff\n      and\n        /* \"contracts/Voting02.sol\":8787:8839  participants[towhom_].votingRight2from == address(0) */\n      0xffffffffffffffffffffffffffffffffffffffff\n      and\n      eq\n        /* \"contracts/Voting02.sol\":8731:8839  participants[towhom_].votingRight1from == address(0) || participants[towhom_].votingRight2from == address(0) */\n    tag_196:\n        /* \"contracts/Voting02.sol\":8723:8910  require(participants[towhom_].votingRight1from == address(0) || participants[towhom_].votingRight2from == address(0), \"Receiving (replacement)delegate has already 2 active voting rights\") */\n      tag_197\n      jumpi\n      mload(0x40)\n      0x08c379a000000000000000000000000000000000000000000000000000000000\n      dup2\n      mstore\n      0x04\n      add\n      tag_198\n      swap1\n      tag_199\n      jump\t// in\n    tag_198:\n      mload(0x40)\n      dup1\n      swap2\n      sub\n      swap1\n      revert\n    tag_197:\n        /* \"contracts/Voting02.sol\":8931:8946  noOpenMotions() */\n      tag_200\n        /* \"contracts/Voting02.sol\":8931:8944  noOpenMotions */\n      tag_131\n        /* \"contracts/Voting02.sol\":8931:8946  noOpenMotions() */\n      jump\t// in\n    tag_200:\n        /* \"contracts/Voting02.sol\":8923:9002  require(noOpenMotions(), \"Can not transfer votes during open voting processes\") */\n      tag_201\n      jumpi\n      mload(0x40)\n      0x08c379a000000000000000000000000000000000000000000000000000000000\n      dup2\n      mstore\n      0x04\n      add\n      tag_202\n      swap1\n      tag_203\n      jump\t// in\n    tag_202:\n      mload(0x40)\n      dup1\n      swap2\n      sub\n      swap1\n      revert\n    tag_201:\n        /* \"contracts/Voting02.sol\":9015:9046  transfer(msg.sender,towhom_, 1) */\n      tag_204\n        /* \"contracts/Voting02.sol\":9024:9034  msg.sender */\n      caller\n        /* \"contracts/Voting02.sol\":9035:9042  towhom_ */\n      dup3\n        /* \"contracts/Voting02.sol\":9044:9045  1 */\n      0x01\n        /* \"contracts/Voting02.sol\":9015:9023  transfer */\n      tag_205\n        /* \"contracts/Voting02.sol\":9015:9046  transfer(msg.sender,towhom_, 1) */\n      jump\t// in\n    tag_204:\n        /* \"contracts/Voting02.sol\":8244:9063  function transferVotingRight1(address towhom_) public{... */\n      pop\n      jump\t// out\n        /* \"contracts/Voting02.sol\":4471:5403  function createRegularMotion(string memory txt_) public returns (uint){... */\n    tag_44:\n        /* \"contracts/Voting02.sol\":4536:4540  uint */\n      0x00\n        /* \"contracts/Voting02.sol\":4592:4613  ConventionRole.MEMBER */\n      0x01\n        /* \"contracts/Voting02.sol\":4560:4613  participants[msg.sender].role >=ConventionRole.MEMBER */\n      0x04\n      dup2\n      gt\n      iszero\n      tag_207\n      jumpi\n      tag_208\n      tag_68\n      jump\t// in\n    tag_208:\n    tag_207:\n        /* \"contracts/Voting02.sol\":4560:4572  participants */\n      0x02\n        /* \"contracts/Voting02.sol\":4560:4584  participants[msg.sender] */\n      0x00\n        /* \"contracts/Voting02.sol\":4573:4583  msg.sender */\n      caller\n        /* \"contracts/Voting02.sol\":4560:4584  participants[msg.sender] */\n      0xffffffffffffffffffffffffffffffffffffffff\n      and\n      0xffffffffffffffffffffffffffffffffffffffff\n      and\n      dup2\n      mstore\n      0x20\n      add\n      swap1\n      dup2\n      mstore\n      0x20\n      add\n      0x00\n      keccak256\n        /* \"contracts/Voting02.sol\":4560:4589  participants[msg.sender].role */\n      0x00\n      add\n      0x00\n      swap1\n      sload\n      swap1\n      0x0100\n      exp\n      swap1\n      div\n      0xff\n      and\n        /* \"contracts/Voting02.sol\":4560:4613  participants[msg.sender].role >=ConventionRole.MEMBER */\n      0x04\n      dup2\n      gt\n      iszero\n      tag_209\n      jumpi\n      tag_210\n      tag_68\n      jump\t// in\n    tag_210:\n    tag_209:\n      lt\n      iszero\n        /* \"contracts/Voting02.sol\":4552:4665  require(participants[msg.sender].role >=ConventionRole.MEMBER, \"Only party members can create a regular motion.\") */\n      tag_211\n      jumpi\n      mload(0x40)\n      0x08c379a000000000000000000000000000000000000000000000000000000000\n      dup2\n      mstore\n      0x04\n      add\n      tag_212\n      swap1\n      tag_213\n      jump\t// in\n    tag_212:\n      mload(0x40)\n      dup1\n      swap2\n      sub\n      swap1\n      revert\n    tag_211:\n        /* \"contracts/Voting02.sol\":4684:4699  noOpenMotions() */\n      tag_214\n        /* \"contracts/Voting02.sol\":4684:4697  noOpenMotions */\n      tag_131\n        /* \"contracts/Voting02.sol\":4684:4699  noOpenMotions() */\n      jump\t// in\n    tag_214:\n        /* \"contracts/Voting02.sol\":4676:4756  require(noOpenMotions(), \"Can not create new motions while voting is going on.\") */\n      tag_215\n      jumpi\n      mload(0x40)\n      0x08c379a000000000000000000000000000000000000000000000000000000000\n      dup2\n      mstore\n      0x04\n      add\n      tag_216\n      swap1\n      tag_217\n      jump\t// in\n    tag_216:\n      mload(0x40)\n      dup1\n      swap2\n      sub\n      swap1\n      revert\n    tag_215:\n        /* \"contracts/Voting02.sol\":4776:4792  Motion storage m */\n      0x00\n        /* \"contracts/Voting02.sol\":4796:4803  motions */\n      0x04\n        /* \"contracts/Voting02.sol\":4796:4810  motions.push() */\n      0x01\n      dup2\n      0x01\n      dup2\n      sload\n      add\n      dup1\n      dup3\n      sstore\n      dup1\n      swap2\n      pop\n      pop\n      sub\n      swap1\n      0x00\n      mstore\n      keccak256(0x00, 0x20)\n      swap1\n      0x06\n      mul\n      add\n        /* \"contracts/Voting02.sol\":4776:4810  Motion storage m =  motions.push() */\n      swap1\n      pop\n        /* \"contracts/Voting02.sol\":4828:4841  motionCounter */\n      sload(0x00)\n        /* \"contracts/Voting02.sol\":4821:4822  m */\n      dup2\n        /* \"contracts/Voting02.sol\":4821:4825  m.id */\n      0x00\n      add\n        /* \"contracts/Voting02.sol\":4821:4841  m.id = motionCounter */\n      dup2\n      swap1\n      sstore\n      pop\n        /* \"contracts/Voting02.sol\":4861:4865  txt_ */\n      dup3\n        /* \"contracts/Voting02.sol\":4852:4853  m */\n      dup2\n        /* \"contracts/Voting02.sol\":4852:4858  m.text */\n      0x01\n      add\n        /* \"contracts/Voting02.sol\":4852:4865  m.text = txt_ */\n      swap1\n      dup2\n      tag_219\n      swap2\n      swap1\n      tag_220\n      jump\t// in\n    tag_219:\n      pop\n        /* \"contracts/Voting02.sol\":4886:4904  MotionType.REGULAR */\n      0x00\n        /* \"contracts/Voting02.sol\":4876:4877  m */\n      dup2\n        /* \"contracts/Voting02.sol\":4876:4883  m.mtype */\n      0x02\n      add\n      0x00\n        /* \"contracts/Voting02.sol\":4876:4904  m.mtype = MotionType.REGULAR */\n      0x0100\n      exp\n      dup2\n      sload\n      dup2\n      0xff\n      mul\n      not\n      and\n      swap1\n      dup4\n      0x01\n      dup2\n      gt\n      iszero\n      tag_221\n      jumpi\n      tag_222\n      tag_68\n      jump\t// in\n    tag_222:\n    tag_221:\n      mul\n      or\n      swap1\n      sstore\n      pop\n        /* \"contracts/Voting02.sol\":4926:4947  MotionStatus.PREPARED */\n      0x00\n        /* \"contracts/Voting02.sol\":4915:4916  m */\n      dup2\n        /* \"contracts/Voting02.sol\":4915:4923  m.status */\n      0x02\n      add\n      0x01\n        /* \"contracts/Voting02.sol\":4915:4947  m.status = MotionStatus.PREPARED */\n      0x0100\n      exp\n      dup2\n      sload\n      dup2\n      0xff\n      mul\n      not\n      and\n      swap1\n      dup4\n      0x02\n      dup2\n      gt\n      iszero\n      tag_223\n      jumpi\n      tag_224\n      tag_68\n      jump\t// in\n    tag_224:\n    tag_223:\n      mul\n      or\n      swap1\n      sstore\n      pop\n        /* \"contracts/Voting02.sol\":4992:5009  Option storage o1 */\n      0x00\n        /* \"contracts/Voting02.sol\":5012:5013  m */\n      dup2\n        /* \"contracts/Voting02.sol\":5012:5021  m.options */\n      0x03\n      add\n        /* \"contracts/Voting02.sol\":5012:5028  m.options.push() */\n      0x01\n      dup2\n      0x01\n      dup2\n      sload\n      add\n      dup1\n      dup3\n      sstore\n      dup1\n      swap2\n      pop\n      pop\n      sub\n      swap1\n      0x00\n      mstore\n      keccak256(0x00, 0x20)\n      swap1\n      0x02\n      mul\n      add\n        /* \"contracts/Voting02.sol\":4992:5028  Option storage o1 = m.options.push() */\n      swap1\n      pop\n        /* \"contracts/Voting02.sol\":5039:5054  o1.name = \"yes\" */\n      mload(0x40)\n      dup1\n      0x40\n      add\n      0x40\n      mstore\n      dup1\n      0x03\n      dup2\n      mstore\n      0x20\n      add\n      0x7965730000000000000000000000000000000000000000000000000000000000\n      dup2\n      mstore\n      pop\n        /* \"contracts/Voting02.sol\":5039:5041  o1 */\n      dup2\n        /* \"contracts/Voting02.sol\":5039:5046  o1.name */\n      0x00\n      add\n        /* \"contracts/Voting02.sol\":5039:5054  o1.name = \"yes\" */\n      swap1\n      dup2\n      tag_226\n      swap2\n      swap1\n      tag_220\n      jump\t// in\n    tag_226:\n      pop\n        /* \"contracts/Voting02.sol\":5080:5081  0 */\n      0x00\n        /* \"contracts/Voting02.sol\":5065:5067  o1 */\n      dup2\n        /* \"contracts/Voting02.sol\":5065:5077  o1.voteCount */\n      0x01\n      add\n        /* \"contracts/Voting02.sol\":5065:5081  o1.voteCount = 0 */\n      dup2\n      swap1\n      sstore\n      pop\n        /* \"contracts/Voting02.sol\":5094:5111  Option storage o2 */\n      0x00\n        /* \"contracts/Voting02.sol\":5114:5115  m */\n      dup3\n        /* \"contracts/Voting02.sol\":5114:5123  m.options */\n      0x03\n      add\n        /* \"contracts/Voting02.sol\":5114:5130  m.options.push() */\n      0x01\n      dup2\n      0x01\n      dup2\n      sload\n      add\n      dup1\n      dup3\n      sstore\n      dup1\n      swap2\n      pop\n      pop\n      sub\n      swap1\n      0x00\n      mstore\n      keccak256(0x00, 0x20)\n      swap1\n      0x02\n      mul\n      add\n        /* \"contracts/Voting02.sol\":5094:5130  Option storage o2 = m.options.push() */\n      swap1\n      pop\n        /* \"contracts/Voting02.sol\":5141:5155  o2.name = \"no\" */\n      mload(0x40)\n      dup1\n      0x40\n      add\n      0x40\n      mstore\n      dup1\n      0x02\n      dup2\n      mstore\n      0x20\n      add\n      0x6e6f000000000000000000000000000000000000000000000000000000000000\n      dup2\n      mstore\n      pop\n        /* \"contracts/Voting02.sol\":5141:5143  o2 */\n      dup2\n        /* \"contracts/Voting02.sol\":5141:5148  o2.name */\n      0x00\n      add\n        /* \"contracts/Voting02.sol\":5141:5155  o2.name = \"no\" */\n      swap1\n      dup2\n      tag_228\n      swap2\n      swap1\n      tag_220\n      jump\t// in\n    tag_228:\n      pop\n        /* \"contracts/Voting02.sol\":5181:5182  0 */\n      0x00\n        /* \"contracts/Voting02.sol\":5166:5168  o2 */\n      dup2\n        /* \"contracts/Voting02.sol\":5166:5178  o2.voteCount */\n      0x01\n      add\n        /* \"contracts/Voting02.sol\":5166:5182  o2.voteCount = 0 */\n      dup2\n      swap1\n      sstore\n      pop\n        /* \"contracts/Voting02.sol\":5195:5212  Option storage o3 */\n      0x00\n        /* \"contracts/Voting02.sol\":5215:5216  m */\n      dup4\n        /* \"contracts/Voting02.sol\":5215:5224  m.options */\n      0x03\n      add\n        /* \"contracts/Voting02.sol\":5215:5231  m.options.push() */\n      0x01\n      dup2\n      0x01\n      dup2\n      sload\n      add\n      dup1\n      dup3\n      sstore\n      dup1\n      swap2\n      pop\n      pop\n      sub\n      swap1\n      0x00\n      mstore\n      keccak256(0x00, 0x20)\n      swap1\n      0x02\n      mul\n      add\n        /* \"contracts/Voting02.sol\":5195:5231  Option storage o3 = m.options.push() */\n      swap1\n      pop\n        /* \"contracts/Voting02.sol\":5242:5261  o3.name = \"abstain\" */\n      mload(0x40)\n      dup1\n      0x40\n      add\n      0x40\n      mstore\n      dup1\n      0x07\n      dup2\n      mstore\n      0x20\n      add\n      0x6162737461696e00000000000000000000000000000000000000000000000000\n      dup2\n      mstore\n      pop\n        /* \"contracts/Voting02.sol\":5242:5244  o3 */\n      dup2\n        /* \"contracts/Voting02.sol\":5242:5249  o3.name */\n      0x00\n      add\n        /* \"contracts/Voting02.sol\":5242:5261  o3.name = \"abstain\" */\n      swap1\n      dup2\n      tag_230\n      swap2\n      swap1\n      tag_220\n      jump\t// in\n    tag_230:\n      pop\n        /* \"contracts/Voting02.sol\":5287:5288  0 */\n      0x00\n        /* \"contracts/Voting02.sol\":5272:5274  o3 */\n      dup2\n        /* \"contracts/Voting02.sol\":5272:5284  o3.voteCount */\n      0x01\n      add\n        /* \"contracts/Voting02.sol\":5272:5288  o3.voteCount = 0 */\n      dup2\n      swap1\n      sstore\n      pop\n        /* \"contracts/Voting02.sol\":5301:5302  m */\n      dup4\n        /* \"contracts/Voting02.sol\":5301:5320  m.initialSupporters */\n      0x05\n      add\n        /* \"contracts/Voting02.sol\":5326:5336  msg.sender */\n      caller\n        /* \"contracts/Voting02.sol\":5301:5337  m.initialSupporters.push(msg.sender) */\n      swap1\n      dup1\n      0x01\n      dup2\n      sload\n      add\n      dup1\n      dup3\n      sstore\n      dup1\n      swap2\n      pop\n      pop\n      0x01\n      swap1\n      sub\n      swap1\n      0x00\n      mstore\n      keccak256(0x00, 0x20)\n      add\n      0x00\n      swap1\n      swap2\n      swap1\n      swap2\n      swap1\n      swap2\n      0x0100\n      exp\n      dup2\n      sload\n      dup2\n      0xffffffffffffffffffffffffffffffffffffffff\n      mul\n      not\n      and\n      swap1\n      dup4\n      0xffffffffffffffffffffffffffffffffffffffff\n      and\n      mul\n      or\n      swap1\n      sstore\n      pop\n        /* \"contracts/Voting02.sol\":5356:5369  motionCounter */\n      0x00\n      dup1\n        /* \"contracts/Voting02.sol\":5356:5371  motionCounter++ */\n      dup2\n      sload\n      dup1\n      swap3\n      swap2\n      swap1\n      tag_232\n      swap1\n      tag_114\n      jump\t// in\n    tag_232:\n      swap2\n      swap1\n      pop\n      sstore\n      pop\n        /* \"contracts/Voting02.sol\":5389:5390  m */\n      dup4\n        /* \"contracts/Voting02.sol\":5389:5393  m.id */\n      0x00\n      add\n      sload\n        /* \"contracts/Voting02.sol\":5382:5393  return m.id */\n      swap5\n      pop\n      pop\n      pop\n      pop\n      pop\n        /* \"contracts/Voting02.sol\":4471:5403  function createRegularMotion(string memory txt_) public returns (uint){... */\n      swap2\n      swap1\n      pop\n      jump\t// out\n        /* \"contracts/Voting02.sol\":9532:10579  function reclaimOriginalVotingRight() public returns(bool){... */\n    tag_48:\n        /* \"contracts/Voting02.sol\":9585:9589  bool */\n      0x00\n        /* \"contracts/Voting02.sol\":9641:9664  ConventionRole.DELEGATE */\n      0x03\n        /* \"contracts/Voting02.sol\":9609:9664  participants[msg.sender].role >=ConventionRole.DELEGATE */\n      0x04\n      dup2\n      gt\n      iszero\n      tag_234\n      jumpi\n      tag_235\n      tag_68\n      jump\t// in\n    tag_235:\n    tag_234:\n        /* \"contracts/Voting02.sol\":9609:9621  participants */\n      0x02\n        /* \"contracts/Voting02.sol\":9609:9633  participants[msg.sender] */\n      0x00\n        /* \"contracts/Voting02.sol\":9622:9632  msg.sender */\n      caller\n        /* \"contracts/Voting02.sol\":9609:9633  participants[msg.sender] */\n      0xffffffffffffffffffffffffffffffffffffffff\n      and\n      0xffffffffffffffffffffffffffffffffffffffff\n      and\n      dup2\n      mstore\n      0x20\n      add\n      swap1\n      dup2\n      mstore\n      0x20\n      add\n      0x00\n      keccak256\n        /* \"contracts/Voting02.sol\":9609:9638  participants[msg.sender].role */\n      0x00\n      add\n      0x00\n      swap1\n      sload\n      swap1\n      0x0100\n      exp\n      swap1\n      div\n      0xff\n      and\n        /* \"contracts/Voting02.sol\":9609:9664  participants[msg.sender].role >=ConventionRole.DELEGATE */\n      0x04\n      dup2\n      gt\n      iszero\n      tag_236\n      jumpi\n      tag_237\n      tag_68\n      jump\t// in\n    tag_237:\n    tag_236:\n      lt\n      iszero\n        /* \"contracts/Voting02.sol\":9601:9724  require(participants[msg.sender].role >=ConventionRole.DELEGATE, \"Only delegates can reclaim their original voting right.\") */\n      tag_238\n      jumpi\n      mload(0x40)\n      0x08c379a000000000000000000000000000000000000000000000000000000000\n      dup2\n      mstore\n      0x04\n      add\n      tag_239\n      swap1\n      tag_240\n      jump\t// in\n    tag_239:\n      mload(0x40)\n      dup1\n      swap2\n      sub\n      swap1\n      revert\n    tag_238:\n        /* \"contracts/Voting02.sol\":9796:9797  0 */\n      0x00\n        /* \"contracts/Voting02.sol\":9743:9798  participants[msg.sender].votingRight1from == address(0) */\n      0xffffffffffffffffffffffffffffffffffffffff\n      and\n        /* \"contracts/Voting02.sol\":9743:9755  participants */\n      0x02\n        /* \"contracts/Voting02.sol\":9743:9767  participants[msg.sender] */\n      0x00\n        /* \"contracts/Voting02.sol\":9756:9766  msg.sender */\n      caller\n        /* \"contracts/Voting02.sol\":9743:9767  participants[msg.sender] */\n      0xffffffffffffffffffffffffffffffffffffffff\n      and\n      0xffffffffffffffffffffffffffffffffffffffff\n      and\n      dup2\n      mstore\n      0x20\n      add\n      swap1\n      dup2\n      mstore\n      0x20\n      add\n      0x00\n      keccak256\n        /* \"contracts/Voting02.sol\":9743:9784  participants[msg.sender].votingRight1from */\n      0x00\n      add\n      0x01\n      swap1\n      sload\n      swap1\n      0x0100\n      exp\n      swap1\n      div\n      0xffffffffffffffffffffffffffffffffffffffff\n      and\n        /* \"contracts/Voting02.sol\":9743:9798  participants[msg.sender].votingRight1from == address(0) */\n      0xffffffffffffffffffffffffffffffffffffffff\n      and\n      eq\n        /* \"contracts/Voting02.sol\":9743:9857  participants[msg.sender].votingRight1from == address(0) || participants[msg.sender].votingRight2from == address(0) */\n      dup1\n      tag_241\n      jumpi\n      pop\n        /* \"contracts/Voting02.sol\":9855:9856  0 */\n      0x00\n        /* \"contracts/Voting02.sol\":9802:9857  participants[msg.sender].votingRight2from == address(0) */\n      0xffffffffffffffffffffffffffffffffffffffff\n      and\n        /* \"contracts/Voting02.sol\":9802:9814  participants */\n      0x02\n        /* \"contracts/Voting02.sol\":9802:9826  participants[msg.sender] */\n      0x00\n        /* \"contracts/Voting02.sol\":9815:9825  msg.sender */\n      caller\n        /* \"contracts/Voting02.sol\":9802:9826  participants[msg.sender] */\n      0xffffffffffffffffffffffffffffffffffffffff\n      and\n      0xffffffffffffffffffffffffffffffffffffffff\n      and\n      dup2\n      mstore\n      0x20\n      add\n      swap1\n      dup2\n      mstore\n      0x20\n      add\n      0x00\n      keccak256\n        /* \"contracts/Voting02.sol\":9802:9843  participants[msg.sender].votingRight2from */\n      0x01\n      add\n      0x00\n      swap1\n      sload\n      swap1\n      0x0100\n      exp\n      swap1\n      div\n      0xffffffffffffffffffffffffffffffffffffffff\n      and\n        /* \"contracts/Voting02.sol\":9802:9857  participants[msg.sender].votingRight2from == address(0) */\n      0xffffffffffffffffffffffffffffffffffffffff\n      and\n      eq\n        /* \"contracts/Voting02.sol\":9743:9857  participants[msg.sender].votingRight1from == address(0) || participants[msg.sender].votingRight2from == address(0) */\n    tag_241:\n        /* \"contracts/Voting02.sol\":9735:9908  require(participants[msg.sender].votingRight1from == address(0) || participants[msg.sender].votingRight2from == address(0), \"Reclaimer already holds 2 active voting rights\") */\n      tag_242\n      jumpi\n      mload(0x40)\n      0x08c379a000000000000000000000000000000000000000000000000000000000\n      dup2\n      mstore\n      0x04\n      add\n      tag_243\n      swap1\n      tag_244\n      jump\t// in\n    tag_243:\n      mload(0x40)\n      dup1\n      swap2\n      sub\n      swap1\n      revert\n    tag_242:\n        /* \"contracts/Voting02.sol\":9972:9982  msg.sender */\n      caller\n        /* \"contracts/Voting02.sol\":9927:9982  participants[msg.sender].votingRight1from != msg.sender */\n      0xffffffffffffffffffffffffffffffffffffffff\n      and\n        /* \"contracts/Voting02.sol\":9927:9939  participants */\n      0x02\n        /* \"contracts/Voting02.sol\":9927:9951  participants[msg.sender] */\n      0x00\n        /* \"contracts/Voting02.sol\":9940:9950  msg.sender */\n      caller\n        /* \"contracts/Voting02.sol\":9927:9951  participants[msg.sender] */\n      0xffffffffffffffffffffffffffffffffffffffff\n      and\n      0xffffffffffffffffffffffffffffffffffffffff\n      and\n      dup2\n      mstore\n      0x20\n      add\n      swap1\n      dup2\n      mstore\n      0x20\n      add\n      0x00\n      keccak256\n        /* \"contracts/Voting02.sol\":9927:9968  participants[msg.sender].votingRight1from */\n      0x00\n      add\n      0x01\n      swap1\n      sload\n      swap1\n      0x0100\n      exp\n      swap1\n      div\n      0xffffffffffffffffffffffffffffffffffffffff\n      and\n        /* \"contracts/Voting02.sol\":9927:9982  participants[msg.sender].votingRight1from != msg.sender */\n      0xffffffffffffffffffffffffffffffffffffffff\n      and\n      eq\n      iszero\n        /* \"contracts/Voting02.sol\":9927:10041  participants[msg.sender].votingRight1from != msg.sender && participants[msg.sender].votingRight2from != msg.sender */\n      dup1\n      iszero\n      tag_245\n      jumpi\n      pop\n        /* \"contracts/Voting02.sol\":10031:10041  msg.sender */\n      caller\n        /* \"contracts/Voting02.sol\":9986:10041  participants[msg.sender].votingRight2from != msg.sender */\n      0xffffffffffffffffffffffffffffffffffffffff\n      and\n        /* \"contracts/Voting02.sol\":9986:9998  participants */\n      0x02\n        /* \"contracts/Voting02.sol\":9986:10010  participants[msg.sender] */\n      0x00\n        /* \"contracts/Voting02.sol\":9999:10009  msg.sender */\n      caller\n        /* \"contracts/Voting02.sol\":9986:10010  participants[msg.sender] */\n      0xffffffffffffffffffffffffffffffffffffffff\n      and\n      0xffffffffffffffffffffffffffffffffffffffff\n      and\n      dup2\n      mstore\n      0x20\n      add\n      swap1\n      dup2\n      mstore\n      0x20\n      add\n      0x00\n      keccak256\n        /* \"contracts/Voting02.sol\":9986:10027  participants[msg.sender].votingRight2from */\n      0x01\n      add\n      0x00\n      swap1\n      sload\n      swap1\n      0x0100\n      exp\n      swap1\n      div\n      0xffffffffffffffffffffffffffffffffffffffff\n      and\n        /* \"contracts/Voting02.sol\":9986:10041  participants[msg.sender].votingRight2from != msg.sender */\n      0xffffffffffffffffffffffffffffffffffffffff\n      and\n      eq\n      iszero\n        /* \"contracts/Voting02.sol\":9927:10041  participants[msg.sender].votingRight1from != msg.sender && participants[msg.sender].votingRight2from != msg.sender */\n    tag_245:\n        /* \"contracts/Voting02.sol\":9919:10099  require(participants[msg.sender].votingRight1from != msg.sender && participants[msg.sender].votingRight2from != msg.sender, \"Reclaimer already holds his/her original voting right\") */\n      tag_246\n      jumpi\n      mload(0x40)\n      0x08c379a000000000000000000000000000000000000000000000000000000000\n      dup2\n      mstore\n      0x04\n      add\n      tag_247\n      swap1\n      tag_248\n      jump\t// in\n    tag_247:\n      mload(0x40)\n      dup1\n      swap2\n      sub\n      swap1\n      revert\n    tag_246:\n        /* \"contracts/Voting02.sol\":10117:10123  uint i */\n      0x00\n        /* \"contracts/Voting02.sol\":10112:10549  for (uint i=0; i< participantsArray.length;i++){... */\n    tag_249:\n        /* \"contracts/Voting02.sol\":10130:10147  participantsArray */\n      0x03\n        /* \"contracts/Voting02.sol\":10130:10154  participantsArray.length */\n      dup1\n      sload\n      swap1\n      pop\n        /* \"contracts/Voting02.sol\":10127:10128  i */\n      dup2\n        /* \"contracts/Voting02.sol\":10127:10154  i< participantsArray.length */\n      lt\n        /* \"contracts/Voting02.sol\":10112:10549  for (uint i=0; i< participantsArray.length;i++){... */\n      iszero\n      tag_250\n      jumpi\n        /* \"contracts/Voting02.sol\":10230:10240  msg.sender */\n      caller\n        /* \"contracts/Voting02.sol\":10177:10240  participants[participantsArray[i]].votingRight1from==msg.sender */\n      0xffffffffffffffffffffffffffffffffffffffff\n      and\n        /* \"contracts/Voting02.sol\":10177:10189  participants */\n      0x02\n        /* \"contracts/Voting02.sol\":10177:10211  participants[participantsArray[i]] */\n      0x00\n        /* \"contracts/Voting02.sol\":10190:10207  participantsArray */\n      0x03\n        /* \"contracts/Voting02.sol\":10208:10209  i */\n      dup5\n        /* \"contracts/Voting02.sol\":10190:10210  participantsArray[i] */\n      dup2\n      sload\n      dup2\n      lt\n      tag_252\n      jumpi\n      tag_253\n      tag_77\n      jump\t// in\n    tag_253:\n    tag_252:\n      swap1\n      0x00\n      mstore\n      keccak256(0x00, 0x20)\n      add\n      0x00\n      swap1\n      sload\n      swap1\n      0x0100\n      exp\n      swap1\n      div\n      0xffffffffffffffffffffffffffffffffffffffff\n      and\n        /* \"contracts/Voting02.sol\":10177:10211  participants[participantsArray[i]] */\n      0xffffffffffffffffffffffffffffffffffffffff\n      and\n      0xffffffffffffffffffffffffffffffffffffffff\n      and\n      dup2\n      mstore\n      0x20\n      add\n      swap1\n      dup2\n      mstore\n      0x20\n      add\n      0x00\n      keccak256\n        /* \"contracts/Voting02.sol\":10177:10228  participants[participantsArray[i]].votingRight1from */\n      0x00\n      add\n      0x01\n      swap1\n      sload\n      swap1\n      0x0100\n      exp\n      swap1\n      div\n      0xffffffffffffffffffffffffffffffffffffffff\n      and\n        /* \"contracts/Voting02.sol\":10177:10240  participants[participantsArray[i]].votingRight1from==msg.sender */\n      0xffffffffffffffffffffffffffffffffffffffff\n      and\n      sub\n        /* \"contracts/Voting02.sol\":10174:10349  if(participants[participantsArray[i]].votingRight1from==msg.sender){... */\n      tag_255\n      jumpi\n        /* \"contracts/Voting02.sol\":10260:10303  transfer(participantsArray[i],msg.sender,1) */\n      tag_256\n        /* \"contracts/Voting02.sol\":10269:10286  participantsArray */\n      0x03\n        /* \"contracts/Voting02.sol\":10287:10288  i */\n      dup3\n        /* \"contracts/Voting02.sol\":10269:10289  participantsArray[i] */\n      dup2\n      sload\n      dup2\n      lt\n      tag_257\n      jumpi\n      tag_258\n      tag_77\n      jump\t// in\n    tag_258:\n    tag_257:\n      swap1\n      0x00\n      mstore\n      keccak256(0x00, 0x20)\n      add\n      0x00\n      swap1\n      sload\n      swap1\n      0x0100\n      exp\n      swap1\n      div\n      0xffffffffffffffffffffffffffffffffffffffff\n      and\n        /* \"contracts/Voting02.sol\":10290:10300  msg.sender */\n      caller\n        /* \"contracts/Voting02.sol\":10301:10302  1 */\n      0x01\n        /* \"contracts/Voting02.sol\":10260:10268  transfer */\n      tag_205\n        /* \"contracts/Voting02.sol\":10260:10303  transfer(participantsArray[i],msg.sender,1) */\n      jump\t// in\n    tag_256:\n        /* \"contracts/Voting02.sol\":10329:10333  true */\n      0x01\n        /* \"contracts/Voting02.sol\":10322:10333  return true */\n      swap2\n      pop\n      pop\n      jump(tag_233)\n        /* \"contracts/Voting02.sol\":10174:10349  if(participants[participantsArray[i]].votingRight1from==msg.sender){... */\n    tag_255:\n        /* \"contracts/Voting02.sol\":10419:10429  msg.sender */\n      caller\n        /* \"contracts/Voting02.sol\":10366:10429  participants[participantsArray[i]].votingRight2from==msg.sender */\n      0xffffffffffffffffffffffffffffffffffffffff\n      and\n        /* \"contracts/Voting02.sol\":10366:10378  participants */\n      0x02\n        /* \"contracts/Voting02.sol\":10366:10400  participants[participantsArray[i]] */\n      0x00\n        /* \"contracts/Voting02.sol\":10379:10396  participantsArray */\n      0x03\n        /* \"contracts/Voting02.sol\":10397:10398  i */\n      dup5\n        /* \"contracts/Voting02.sol\":10379:10399  participantsArray[i] */\n      dup2\n      sload\n      dup2\n      lt\n      tag_260\n      jumpi\n      tag_261\n      tag_77\n      jump\t// in\n    tag_261:\n    tag_260:\n      swap1\n      0x00\n      mstore\n      keccak256(0x00, 0x20)\n      add\n      0x00\n      swap1\n      sload\n      swap1\n      0x0100\n      exp\n      swap1\n      div\n      0xffffffffffffffffffffffffffffffffffffffff\n      and\n        /* \"contracts/Voting02.sol\":10366:10400  participants[participantsArray[i]] */\n      0xffffffffffffffffffffffffffffffffffffffff\n      and\n      0xffffffffffffffffffffffffffffffffffffffff\n      and\n      dup2\n      mstore\n      0x20\n      add\n      swap1\n      dup2\n      mstore\n      0x20\n      add\n      0x00\n      keccak256\n        /* \"contracts/Voting02.sol\":10366:10417  participants[participantsArray[i]].votingRight2from */\n      0x01\n      add\n      0x00\n      swap1\n      sload\n      swap1\n      0x0100\n      exp\n      swap1\n      div\n      0xffffffffffffffffffffffffffffffffffffffff\n      and\n        /* \"contracts/Voting02.sol\":10366:10429  participants[participantsArray[i]].votingRight2from==msg.sender */\n      0xffffffffffffffffffffffffffffffffffffffff\n      and\n      sub\n        /* \"contracts/Voting02.sol\":10363:10538  if(participants[participantsArray[i]].votingRight2from==msg.sender){... */\n      tag_263\n      jumpi\n        /* \"contracts/Voting02.sol\":10449:10492  transfer(participantsArray[i],msg.sender,2) */\n      tag_264\n        /* \"contracts/Voting02.sol\":10458:10475  participantsArray */\n      0x03\n        /* \"contracts/Voting02.sol\":10476:10477  i */\n      dup3\n        /* \"contracts/Voting02.sol\":10458:10478  participantsArray[i] */\n      dup2\n      sload\n      dup2\n      lt\n      tag_265\n      jumpi\n      tag_266\n      tag_77\n      jump\t// in\n    tag_266:\n    tag_265:\n      swap1\n      0x00\n      mstore\n      keccak256(0x00, 0x20)\n      add\n      0x00\n      swap1\n      sload\n      swap1\n      0x0100\n      exp\n      swap1\n      div\n      0xffffffffffffffffffffffffffffffffffffffff\n      and\n        /* \"contracts/Voting02.sol\":10479:10489  msg.sender */\n      caller\n        /* \"contracts/Voting02.sol\":10490:10491  2 */\n      0x02\n        /* \"contracts/Voting02.sol\":10449:10457  transfer */\n      tag_205\n        /* \"contracts/Voting02.sol\":10449:10492  transfer(participantsArray[i],msg.sender,2) */\n      jump\t// in\n    tag_264:\n        /* \"contracts/Voting02.sol\":10518:10522  true */\n      0x01\n        /* \"contracts/Voting02.sol\":10511:10522  return true */\n      swap2\n      pop\n      pop\n      jump(tag_233)\n        /* \"contracts/Voting02.sol\":10363:10538  if(participants[participantsArray[i]].votingRight2from==msg.sender){... */\n    tag_263:\n        /* \"contracts/Voting02.sol\":10155:10158  i++ */\n      dup1\n      dup1\n      tag_268\n      swap1\n      tag_114\n      jump\t// in\n    tag_268:\n      swap2\n      pop\n      pop\n        /* \"contracts/Voting02.sol\":10112:10549  for (uint i=0; i< participantsArray.length;i++){... */\n      jump(tag_249)\n    tag_250:\n      pop\n        /* \"contracts/Voting02.sol\":10566:10571  false */\n      0x00\n        /* \"contracts/Voting02.sol\":10559:10571  return false */\n      swap1\n      pop\n        /* \"contracts/Voting02.sol\":9532:10579  function reclaimOriginalVotingRight() public returns(bool){... */\n    tag_233:\n      swap1\n      jump\t// out\n        /* \"contracts/Voting02.sol\":1467:1496  uint public motionCounter = 0 */\n    tag_51:\n      sload(0x00)\n      dup2\n      jump\t// out\n        /* \"contracts/Voting02.sol\":6583:8236  function voteForMotion(uint motionid_, uint optionid_) public{... */\n    tag_56:\n        /* \"contracts/Voting02.sol\":6695:6729  ConventionRole.REPLACEMENTDELEGATE */\n      0x02\n        /* \"contracts/Voting02.sol\":6663:6729  participants[msg.sender].role >=ConventionRole.REPLACEMENTDELEGATE */\n      0x04\n      dup2\n      gt\n      iszero\n      tag_270\n      jumpi\n      tag_271\n      tag_68\n      jump\t// in\n    tag_271:\n    tag_270:\n        /* \"contracts/Voting02.sol\":6663:6675  participants */\n      0x02\n        /* \"contracts/Voting02.sol\":6663:6687  participants[msg.sender] */\n      0x00\n        /* \"contracts/Voting02.sol\":6676:6686  msg.sender */\n      caller\n        /* \"contracts/Voting02.sol\":6663:6687  participants[msg.sender] */\n      0xffffffffffffffffffffffffffffffffffffffff\n      and\n      0xffffffffffffffffffffffffffffffffffffffff\n      and\n      dup2\n      mstore\n      0x20\n      add\n      swap1\n      dup2\n      mstore\n      0x20\n      add\n      0x00\n      keccak256\n        /* \"contracts/Voting02.sol\":6663:6692  participants[msg.sender].role */\n      0x00\n      add\n      0x00\n      swap1\n      sload\n      swap1\n      0x0100\n      exp\n      swap1\n      div\n      0xff\n      and\n        /* \"contracts/Voting02.sol\":6663:6729  participants[msg.sender].role >=ConventionRole.REPLACEMENTDELEGATE */\n      0x04\n      dup2\n      gt\n      iszero\n      tag_272\n      jumpi\n      tag_273\n      tag_68\n      jump\t// in\n    tag_273:\n    tag_272:\n      lt\n      iszero\n        /* \"contracts/Voting02.sol\":6655:6777  require(participants[msg.sender].role >=ConventionRole.REPLACEMENTDELEGATE, \"Only (replacement)delegates can cast votes.\") */\n      tag_274\n      jumpi\n      mload(0x40)\n      0x08c379a000000000000000000000000000000000000000000000000000000000\n      dup2\n      mstore\n      0x04\n      add\n      tag_275\n      swap1\n      tag_276\n      jump\t// in\n    tag_275:\n      mload(0x40)\n      dup1\n      swap2\n      sub\n      swap1\n      revert\n    tag_274:\n        /* \"contracts/Voting02.sol\":6825:6842  MotionStatus.OPEN */\n      0x01\n        /* \"contracts/Voting02.sol\":6796:6842  motions[motionid_].status == MotionStatus.OPEN */\n      0x02\n      dup2\n      gt\n      iszero\n      tag_277\n      jumpi\n      tag_278\n      tag_68\n      jump\t// in\n    tag_278:\n    tag_277:\n        /* \"contracts/Voting02.sol\":6796:6803  motions */\n      0x04\n        /* \"contracts/Voting02.sol\":6804:6813  motionid_ */\n      dup4\n        /* \"contracts/Voting02.sol\":6796:6814  motions[motionid_] */\n      dup2\n      sload\n      dup2\n      lt\n      tag_279\n      jumpi\n      tag_280\n      tag_77\n      jump\t// in\n    tag_280:\n    tag_279:\n      swap1\n      0x00\n      mstore\n      keccak256(0x00, 0x20)\n      swap1\n      0x06\n      mul\n      add\n        /* \"contracts/Voting02.sol\":6796:6821  motions[motionid_].status */\n      0x02\n      add\n      0x01\n      swap1\n      sload\n      swap1\n      0x0100\n      exp\n      swap1\n      div\n      0xff\n      and\n        /* \"contracts/Voting02.sol\":6796:6842  motions[motionid_].status == MotionStatus.OPEN */\n      0x02\n      dup2\n      gt\n      iszero\n      tag_282\n      jumpi\n      tag_283\n      tag_68\n      jump\t// in\n    tag_283:\n    tag_282:\n      eq\n        /* \"contracts/Voting02.sol\":6788:6877  require(motions[motionid_].status == MotionStatus.OPEN, \"Motion is not open for voting.\") */\n      tag_284\n      jumpi\n      mload(0x40)\n      0x08c379a000000000000000000000000000000000000000000000000000000000\n      dup2\n      mstore\n      0x04\n      add\n      tag_285\n      swap1\n      tag_286\n      jump\t// in\n    tag_285:\n      mload(0x40)\n      dup1\n      swap2\n      sub\n      swap1\n      revert\n    tag_284:\n        /* \"contracts/Voting02.sol\":6947:6948  0 */\n      0x00\n        /* \"contracts/Voting02.sol\":6896:6949  participants[msg.sender].votingRight1from!=address(0) */\n      0xffffffffffffffffffffffffffffffffffffffff\n      and\n        /* \"contracts/Voting02.sol\":6896:6908  participants */\n      0x02\n        /* \"contracts/Voting02.sol\":6896:6920  participants[msg.sender] */\n      0x00\n        /* \"contracts/Voting02.sol\":6909:6919  msg.sender */\n      caller\n        /* \"contracts/Voting02.sol\":6896:6920  participants[msg.sender] */\n      0xffffffffffffffffffffffffffffffffffffffff\n      and\n      0xffffffffffffffffffffffffffffffffffffffff\n      and\n      dup2\n      mstore\n      0x20\n      add\n      swap1\n      dup2\n      mstore\n      0x20\n      add\n      0x00\n      keccak256\n        /* \"contracts/Voting02.sol\":6896:6937  participants[msg.sender].votingRight1from */\n      0x00\n      add\n      0x01\n      swap1\n      sload\n      swap1\n      0x0100\n      exp\n      swap1\n      div\n      0xffffffffffffffffffffffffffffffffffffffff\n      and\n        /* \"contracts/Voting02.sol\":6896:6949  participants[msg.sender].votingRight1from!=address(0) */\n      0xffffffffffffffffffffffffffffffffffffffff\n      and\n      eq\n      iszero\n        /* \"contracts/Voting02.sol\":6896:7006  participants[msg.sender].votingRight1from!=address(0) || participants[msg.sender].votingRight2from!=address(0) */\n      dup1\n      tag_287\n      jumpi\n      pop\n        /* \"contracts/Voting02.sol\":7004:7005  0 */\n      0x00\n        /* \"contracts/Voting02.sol\":6953:7006  participants[msg.sender].votingRight2from!=address(0) */\n      0xffffffffffffffffffffffffffffffffffffffff\n      and\n        /* \"contracts/Voting02.sol\":6953:6965  participants */\n      0x02\n        /* \"contracts/Voting02.sol\":6953:6977  participants[msg.sender] */\n      0x00\n        /* \"contracts/Voting02.sol\":6966:6976  msg.sender */\n      caller\n        /* \"contracts/Voting02.sol\":6953:6977  participants[msg.sender] */\n      0xffffffffffffffffffffffffffffffffffffffff\n      and\n      0xffffffffffffffffffffffffffffffffffffffff\n      and\n      dup2\n      mstore\n      0x20\n      add\n      swap1\n      dup2\n      mstore\n      0x20\n      add\n      0x00\n      keccak256\n        /* \"contracts/Voting02.sol\":6953:6994  participants[msg.sender].votingRight2from */\n      0x01\n      add\n      0x00\n      swap1\n      sload\n      swap1\n      0x0100\n      exp\n      swap1\n      div\n      0xffffffffffffffffffffffffffffffffffffffff\n      and\n        /* \"contracts/Voting02.sol\":6953:7006  participants[msg.sender].votingRight2from!=address(0) */\n      0xffffffffffffffffffffffffffffffffffffffff\n      and\n      eq\n      iszero\n        /* \"contracts/Voting02.sol\":6896:7006  participants[msg.sender].votingRight1from!=address(0) || participants[msg.sender].votingRight2from!=address(0) */\n    tag_287:\n        /* \"contracts/Voting02.sol\":6888:7049  require(participants[msg.sender].votingRight1from!=address(0) || participants[msg.sender].votingRight2from!=address(0), \"No active voting rights held by sender\") */\n      tag_288\n      jumpi\n      mload(0x40)\n      0x08c379a000000000000000000000000000000000000000000000000000000000\n      dup2\n      mstore\n      0x04\n      add\n      tag_289\n      swap1\n      tag_290\n      jump\t// in\n    tag_289:\n      mload(0x40)\n      dup1\n      swap2\n      sub\n      swap1\n      revert\n    tag_288:\n        /* \"contracts/Voting02.sol\":7119:7120  0 */\n      0x00\n        /* \"contracts/Voting02.sol\":7068:7121  participants[msg.sender].votingRight1from!=address(0) */\n      0xffffffffffffffffffffffffffffffffffffffff\n      and\n        /* \"contracts/Voting02.sol\":7068:7080  participants */\n      0x02\n        /* \"contracts/Voting02.sol\":7068:7092  participants[msg.sender] */\n      0x00\n        /* \"contracts/Voting02.sol\":7081:7091  msg.sender */\n      caller\n        /* \"contracts/Voting02.sol\":7068:7092  participants[msg.sender] */\n      0xffffffffffffffffffffffffffffffffffffffff\n      and\n      0xffffffffffffffffffffffffffffffffffffffff\n      and\n      dup2\n      mstore\n      0x20\n      add\n      swap1\n      dup2\n      mstore\n      0x20\n      add\n      0x00\n      keccak256\n        /* \"contracts/Voting02.sol\":7068:7109  participants[msg.sender].votingRight1from */\n      0x00\n      add\n      0x01\n      swap1\n      sload\n      swap1\n      0x0100\n      exp\n      swap1\n      div\n      0xffffffffffffffffffffffffffffffffffffffff\n      and\n        /* \"contracts/Voting02.sol\":7068:7121  participants[msg.sender].votingRight1from!=address(0) */\n      0xffffffffffffffffffffffffffffffffffffffff\n      and\n      eq\n      iszero\n        /* \"contracts/Voting02.sol\":7068:7214  participants[msg.sender].votingRight1from!=address(0) && notContainedInArray(motions[motionid_].voters, participants[msg.sender].votingRight1from) */\n      dup1\n      iszero\n      tag_291\n      jumpi\n      pop\n        /* \"contracts/Voting02.sol\":7125:7214  notContainedInArray(motions[motionid_].voters, participants[msg.sender].votingRight1from) */\n      tag_292\n        /* \"contracts/Voting02.sol\":7145:7152  motions */\n      0x04\n        /* \"contracts/Voting02.sol\":7153:7162  motionid_ */\n      dup4\n        /* \"contracts/Voting02.sol\":7145:7163  motions[motionid_] */\n      dup2\n      sload\n      dup2\n      lt\n      tag_293\n      jumpi\n      tag_294\n      tag_77\n      jump\t// in\n    tag_294:\n    tag_293:\n      swap1\n      0x00\n      mstore\n      keccak256(0x00, 0x20)\n      swap1\n      0x06\n      mul\n      add\n        /* \"contracts/Voting02.sol\":7145:7170  motions[motionid_].voters */\n      0x04\n      add\n        /* \"contracts/Voting02.sol\":7125:7214  notContainedInArray(motions[motionid_].voters, participants[msg.sender].votingRight1from) */\n      dup1\n      sload\n      dup1\n      0x20\n      mul\n      0x20\n      add\n      mload(0x40)\n      swap1\n      dup2\n      add\n      0x40\n      mstore\n      dup1\n      swap3\n      swap2\n      swap1\n      dup2\n      dup2\n      mstore\n      0x20\n      add\n      dup3\n      dup1\n      sload\n      dup1\n      iszero\n      tag_296\n      jumpi\n      0x20\n      mul\n      dup3\n      add\n      swap2\n      swap1\n      0x00\n      mstore\n      keccak256(0x00, 0x20)\n      swap1\n    tag_297:\n      dup2\n      0x00\n      swap1\n      sload\n      swap1\n      0x0100\n      exp\n      swap1\n      div\n      0xffffffffffffffffffffffffffffffffffffffff\n      and\n      0xffffffffffffffffffffffffffffffffffffffff\n      and\n      dup2\n      mstore\n      0x20\n      add\n      swap1\n      0x01\n      add\n      swap1\n      dup1\n      dup4\n      gt\n      tag_297\n      jumpi\n    tag_296:\n      pop\n      pop\n      pop\n      pop\n      pop\n        /* \"contracts/Voting02.sol\":7172:7184  participants */\n      0x02\n        /* \"contracts/Voting02.sol\":7172:7196  participants[msg.sender] */\n      0x00\n        /* \"contracts/Voting02.sol\":7185:7195  msg.sender */\n      caller\n        /* \"contracts/Voting02.sol\":7172:7196  participants[msg.sender] */\n      0xffffffffffffffffffffffffffffffffffffffff\n      and\n      0xffffffffffffffffffffffffffffffffffffffff\n      and\n      dup2\n      mstore\n      0x20\n      add\n      swap1\n      dup2\n      mstore\n      0x20\n      add\n      0x00\n      keccak256\n        /* \"contracts/Voting02.sol\":7172:7213  participants[msg.sender].votingRight1from */\n      0x00\n      add\n      0x01\n      swap1\n      sload\n      swap1\n      0x0100\n      exp\n      swap1\n      div\n      0xffffffffffffffffffffffffffffffffffffffff\n      and\n        /* \"contracts/Voting02.sol\":7125:7144  notContainedInArray */\n      tag_63\n        /* \"contracts/Voting02.sol\":7125:7214  notContainedInArray(motions[motionid_].voters, participants[msg.sender].votingRight1from) */\n      jump\t// in\n    tag_292:\n        /* \"contracts/Voting02.sol\":7068:7214  participants[msg.sender].votingRight1from!=address(0) && notContainedInArray(motions[motionid_].voters, participants[msg.sender].votingRight1from) */\n    tag_291:\n        /* \"contracts/Voting02.sol\":7068:7379  participants[msg.sender].votingRight1from!=address(0) && notContainedInArray(motions[motionid_].voters, participants[msg.sender].votingRight1from) ... */\n      dup1\n      tag_298\n      jumpi\n      pop\n        /* \"contracts/Voting02.sol\":7284:7285  0 */\n      0x00\n        /* \"contracts/Voting02.sol\":7233:7286  participants[msg.sender].votingRight2from!=address(0) */\n      0xffffffffffffffffffffffffffffffffffffffff\n      and\n        /* \"contracts/Voting02.sol\":7233:7245  participants */\n      0x02\n        /* \"contracts/Voting02.sol\":7233:7257  participants[msg.sender] */\n      0x00\n        /* \"contracts/Voting02.sol\":7246:7256  msg.sender */\n      caller\n        /* \"contracts/Voting02.sol\":7233:7257  participants[msg.sender] */\n      0xffffffffffffffffffffffffffffffffffffffff\n      and\n      0xffffffffffffffffffffffffffffffffffffffff\n      and\n      dup2\n      mstore\n      0x20\n      add\n      swap1\n      dup2\n      mstore\n      0x20\n      add\n      0x00\n      keccak256\n        /* \"contracts/Voting02.sol\":7233:7274  participants[msg.sender].votingRight2from */\n      0x01\n      add\n      0x00\n      swap1\n      sload\n      swap1\n      0x0100\n      exp\n      swap1\n      div\n      0xffffffffffffffffffffffffffffffffffffffff\n      and\n        /* \"contracts/Voting02.sol\":7233:7286  participants[msg.sender].votingRight2from!=address(0) */\n      0xffffffffffffffffffffffffffffffffffffffff\n      and\n      eq\n      iszero\n        /* \"contracts/Voting02.sol\":7233:7379  participants[msg.sender].votingRight2from!=address(0) && notContainedInArray(motions[motionid_].voters, participants[msg.sender].votingRight2from) */\n      dup1\n      iszero\n      tag_299\n      jumpi\n      pop\n        /* \"contracts/Voting02.sol\":7290:7379  notContainedInArray(motions[motionid_].voters, participants[msg.sender].votingRight2from) */\n      tag_300\n        /* \"contracts/Voting02.sol\":7310:7317  motions */\n      0x04\n        /* \"contracts/Voting02.sol\":7318:7327  motionid_ */\n      dup4\n        /* \"contracts/Voting02.sol\":7310:7328  motions[motionid_] */\n      dup2\n      sload\n      dup2\n      lt\n      tag_301\n      jumpi\n      tag_302\n      tag_77\n      jump\t// in\n    tag_302:\n    tag_301:\n      swap1\n      0x00\n      mstore\n      keccak256(0x00, 0x20)\n      swap1\n      0x06\n      mul\n      add\n        /* \"contracts/Voting02.sol\":7310:7335  motions[motionid_].voters */\n      0x04\n      add\n        /* \"contracts/Voting02.sol\":7290:7379  notContainedInArray(motions[motionid_].voters, participants[msg.sender].votingRight2from) */\n      dup1\n      sload\n      dup1\n      0x20\n      mul\n      0x20\n      add\n      mload(0x40)\n      swap1\n      dup2\n      add\n      0x40\n      mstore\n      dup1\n      swap3\n      swap2\n      swap1\n      dup2\n      dup2\n      mstore\n      0x20\n      add\n      dup3\n      dup1\n      sload\n      dup1\n      iszero\n      tag_304\n      jumpi\n      0x20\n      mul\n      dup3\n      add\n      swap2\n      swap1\n      0x00\n      mstore\n      keccak256(0x00, 0x20)\n      swap1\n    tag_305:\n      dup2\n      0x00\n      swap1\n      sload\n      swap1\n      0x0100\n      exp\n      swap1\n      div\n      0xffffffffffffffffffffffffffffffffffffffff\n      and\n      0xffffffffffffffffffffffffffffffffffffffff\n      and\n      dup2\n      mstore\n      0x20\n      add\n      swap1\n      0x01\n      add\n      swap1\n      dup1\n      dup4\n      gt\n      tag_305\n      jumpi\n    tag_304:\n      pop\n      pop\n      pop\n      pop\n      pop\n        /* \"contracts/Voting02.sol\":7337:7349  participants */\n      0x02\n        /* \"contracts/Voting02.sol\":7337:7361  participants[msg.sender] */\n      0x00\n        /* \"contracts/Voting02.sol\":7350:7360  msg.sender */\n      caller\n        /* \"contracts/Voting02.sol\":7337:7361  participants[msg.sender] */\n      0xffffffffffffffffffffffffffffffffffffffff\n      and\n      0xffffffffffffffffffffffffffffffffffffffff\n      and\n      dup2\n      mstore\n      0x20\n      add\n      swap1\n      dup2\n      mstore\n      0x20\n      add\n      0x00\n      keccak256\n        /* \"contracts/Voting02.sol\":7337:7378  participants[msg.sender].votingRight2from */\n      0x01\n      add\n      0x00\n      swap1\n      sload\n      swap1\n      0x0100\n      exp\n      swap1\n      div\n      0xffffffffffffffffffffffffffffffffffffffff\n      and\n        /* \"contracts/Voting02.sol\":7290:7309  notContainedInArray */\n      tag_63\n        /* \"contracts/Voting02.sol\":7290:7379  notContainedInArray(motions[motionid_].voters, participants[msg.sender].votingRight2from) */\n      jump\t// in\n    tag_300:\n        /* \"contracts/Voting02.sol\":7233:7379  participants[msg.sender].votingRight2from!=address(0) && notContainedInArray(motions[motionid_].voters, participants[msg.sender].votingRight2from) */\n    tag_299:\n        /* \"contracts/Voting02.sol\":7068:7379  participants[msg.sender].votingRight1from!=address(0) && notContainedInArray(motions[motionid_].voters, participants[msg.sender].votingRight1from) ... */\n    tag_298:\n        /* \"contracts/Voting02.sol\":7060:7409  require(participants[msg.sender].votingRight1from!=address(0) && notContainedInArray(motions[motionid_].voters, participants[msg.sender].votingRight1from) ... */\n      tag_306\n      jumpi\n      mload(0x40)\n      0x08c379a000000000000000000000000000000000000000000000000000000000\n      dup2\n      mstore\n      0x04\n      add\n      tag_307\n      swap1\n      tag_308\n      jump\t// in\n    tag_307:\n      mload(0x40)\n      dup1\n      swap2\n      sub\n      swap1\n      revert\n    tag_306:\n        /* \"contracts/Voting02.sol\":7476:7477  0 */\n      0x00\n        /* \"contracts/Voting02.sol\":7425:7478  participants[msg.sender].votingRight1from!=address(0) */\n      0xffffffffffffffffffffffffffffffffffffffff\n      and\n        /* \"contracts/Voting02.sol\":7425:7437  participants */\n      0x02\n        /* \"contracts/Voting02.sol\":7425:7449  participants[msg.sender] */\n      0x00\n        /* \"contracts/Voting02.sol\":7438:7448  msg.sender */\n      caller\n        /* \"contracts/Voting02.sol\":7425:7449  participants[msg.sender] */\n      0xffffffffffffffffffffffffffffffffffffffff\n      and\n      0xffffffffffffffffffffffffffffffffffffffff\n      and\n      dup2\n      mstore\n      0x20\n      add\n      swap1\n      dup2\n      mstore\n      0x20\n      add\n      0x00\n      keccak256\n        /* \"contracts/Voting02.sol\":7425:7466  participants[msg.sender].votingRight1from */\n      0x00\n      add\n      0x01\n      swap1\n      sload\n      swap1\n      0x0100\n      exp\n      swap1\n      div\n      0xffffffffffffffffffffffffffffffffffffffff\n      and\n        /* \"contracts/Voting02.sol\":7425:7478  participants[msg.sender].votingRight1from!=address(0) */\n      0xffffffffffffffffffffffffffffffffffffffff\n      and\n      eq\n      iszero\n        /* \"contracts/Voting02.sol\":7425:7571  participants[msg.sender].votingRight1from!=address(0) && notContainedInArray(motions[motionid_].voters, participants[msg.sender].votingRight1from) */\n      dup1\n      iszero\n      tag_309\n      jumpi\n      pop\n        /* \"contracts/Voting02.sol\":7482:7571  notContainedInArray(motions[motionid_].voters, participants[msg.sender].votingRight1from) */\n      tag_310\n        /* \"contracts/Voting02.sol\":7502:7509  motions */\n      0x04\n        /* \"contracts/Voting02.sol\":7510:7519  motionid_ */\n      dup4\n        /* \"contracts/Voting02.sol\":7502:7520  motions[motionid_] */\n      dup2\n      sload\n      dup2\n      lt\n      tag_311\n      jumpi\n      tag_312\n      tag_77\n      jump\t// in\n    tag_312:\n    tag_311:\n      swap1\n      0x00\n      mstore\n      keccak256(0x00, 0x20)\n      swap1\n      0x06\n      mul\n      add\n        /* \"contracts/Voting02.sol\":7502:7527  motions[motionid_].voters */\n      0x04\n      add\n        /* \"contracts/Voting02.sol\":7482:7571  notContainedInArray(motions[motionid_].voters, participants[msg.sender].votingRight1from) */\n      dup1\n      sload\n      dup1\n      0x20\n      mul\n      0x20\n      add\n      mload(0x40)\n      swap1\n      dup2\n      add\n      0x40\n      mstore\n      dup1\n      swap3\n      swap2\n      swap1\n      dup2\n      dup2\n      mstore\n      0x20\n      add\n      dup3\n      dup1\n      sload\n      dup1\n      iszero\n      tag_314\n      jumpi\n      0x20\n      mul\n      dup3\n      add\n      swap2\n      swap1\n      0x00\n      mstore\n      keccak256(0x00, 0x20)\n      swap1\n    tag_315:\n      dup2\n      0x00\n      swap1\n      sload\n      swap1\n      0x0100\n      exp\n      swap1\n      div\n      0xffffffffffffffffffffffffffffffffffffffff\n      and\n      0xffffffffffffffffffffffffffffffffffffffff\n      and\n      dup2\n      mstore\n      0x20\n      add\n      swap1\n      0x01\n      add\n      swap1\n      dup1\n      dup4\n      gt\n      tag_315\n      jumpi\n    tag_314:\n      pop\n      pop\n      pop\n      pop\n      pop\n        /* \"contracts/Voting02.sol\":7529:7541  participants */\n      0x02\n        /* \"contracts/Voting02.sol\":7529:7553  participants[msg.sender] */\n      0x00\n        /* \"contracts/Voting02.sol\":7542:7552  msg.sender */\n      caller\n        /* \"contracts/Voting02.sol\":7529:7553  participants[msg.sender] */\n      0xffffffffffffffffffffffffffffffffffffffff\n      and\n      0xffffffffffffffffffffffffffffffffffffffff\n      and\n      dup2\n      mstore\n      0x20\n      add\n      swap1\n      dup2\n      mstore\n      0x20\n      add\n      0x00\n      keccak256\n        /* \"contracts/Voting02.sol\":7529:7570  participants[msg.sender].votingRight1from */\n      0x00\n      add\n      0x01\n      swap1\n      sload\n      swap1\n      0x0100\n      exp\n      swap1\n      div\n      0xffffffffffffffffffffffffffffffffffffffff\n      and\n        /* \"contracts/Voting02.sol\":7482:7501  notContainedInArray */\n      tag_63\n        /* \"contracts/Voting02.sol\":7482:7571  notContainedInArray(motions[motionid_].voters, participants[msg.sender].votingRight1from) */\n      jump\t// in\n    tag_310:\n        /* \"contracts/Voting02.sol\":7425:7571  participants[msg.sender].votingRight1from!=address(0) && notContainedInArray(motions[motionid_].voters, participants[msg.sender].votingRight1from) */\n    tag_309:\n        /* \"contracts/Voting02.sol\":7422:7736  if(participants[msg.sender].votingRight1from!=address(0) && notContainedInArray(motions[motionid_].voters, participants[msg.sender].votingRight1from)){... */\n      iszero\n      tag_316\n      jumpi\n        /* \"contracts/Voting02.sol\":7587:7594  motions */\n      0x04\n        /* \"contracts/Voting02.sol\":7595:7604  motionid_ */\n      dup3\n        /* \"contracts/Voting02.sol\":7587:7605  motions[motionid_] */\n      dup2\n      sload\n      dup2\n      lt\n      tag_317\n      jumpi\n      tag_318\n      tag_77\n      jump\t// in\n    tag_318:\n    tag_317:\n      swap1\n      0x00\n      mstore\n      keccak256(0x00, 0x20)\n      swap1\n      0x06\n      mul\n      add\n        /* \"contracts/Voting02.sol\":7587:7612  motions[motionid_].voters */\n      0x04\n      add\n        /* \"contracts/Voting02.sol\":7618:7630  participants */\n      0x02\n        /* \"contracts/Voting02.sol\":7618:7642  participants[msg.sender] */\n      0x00\n        /* \"contracts/Voting02.sol\":7631:7641  msg.sender */\n      caller\n        /* \"contracts/Voting02.sol\":7618:7642  participants[msg.sender] */\n      0xffffffffffffffffffffffffffffffffffffffff\n      and\n      0xffffffffffffffffffffffffffffffffffffffff\n      and\n      dup2\n      mstore\n      0x20\n      add\n      swap1\n      dup2\n      mstore\n      0x20\n      add\n      0x00\n      keccak256\n        /* \"contracts/Voting02.sol\":7618:7659  participants[msg.sender].votingRight1from */\n      0x00\n      add\n      0x01\n      swap1\n      sload\n      swap1\n      0x0100\n      exp\n      swap1\n      div\n      0xffffffffffffffffffffffffffffffffffffffff\n      and\n        /* \"contracts/Voting02.sol\":7587:7660  motions[motionid_].voters.push(participants[msg.sender].votingRight1from) */\n      swap1\n      dup1\n      0x01\n      dup2\n      sload\n      add\n      dup1\n      dup3\n      sstore\n      dup1\n      swap2\n      pop\n      pop\n      0x01\n      swap1\n      sub\n      swap1\n      0x00\n      mstore\n      keccak256(0x00, 0x20)\n      add\n      0x00\n      swap1\n      swap2\n      swap1\n      swap2\n      swap1\n      swap2\n      0x0100\n      exp\n      dup2\n      sload\n      dup2\n      0xffffffffffffffffffffffffffffffffffffffff\n      mul\n      not\n      and\n      swap1\n      dup4\n      0xffffffffffffffffffffffffffffffffffffffff\n      and\n      mul\n      or\n      swap1\n      sstore\n      pop\n        /* \"contracts/Voting02.sol\":7675:7682  motions */\n      0x04\n        /* \"contracts/Voting02.sol\":7683:7692  motionid_ */\n      dup3\n        /* \"contracts/Voting02.sol\":7675:7693  motions[motionid_] */\n      dup2\n      sload\n      dup2\n      lt\n      tag_321\n      jumpi\n      tag_322\n      tag_77\n      jump\t// in\n    tag_322:\n    tag_321:\n      swap1\n      0x00\n      mstore\n      keccak256(0x00, 0x20)\n      swap1\n      0x06\n      mul\n      add\n        /* \"contracts/Voting02.sol\":7675:7701  motions[motionid_].options */\n      0x03\n      add\n        /* \"contracts/Voting02.sol\":7702:7711  optionid_ */\n      dup2\n        /* \"contracts/Voting02.sol\":7675:7712  motions[motionid_].options[optionid_] */\n      dup2\n      sload\n      dup2\n      lt\n      tag_324\n      jumpi\n      tag_325\n      tag_77\n      jump\t// in\n    tag_325:\n    tag_324:\n      swap1\n      0x00\n      mstore\n      keccak256(0x00, 0x20)\n      swap1\n      0x02\n      mul\n      add\n        /* \"contracts/Voting02.sol\":7675:7722  motions[motionid_].options[optionid_].voteCount */\n      0x01\n      add\n      0x00\n        /* \"contracts/Voting02.sol\":7675:7724  motions[motionid_].options[optionid_].voteCount++ */\n      dup2\n      sload\n      dup1\n      swap3\n      swap2\n      swap1\n      tag_327\n      swap1\n      tag_114\n      jump\t// in\n    tag_327:\n      swap2\n      swap1\n      pop\n      sstore\n      pop\n        /* \"contracts/Voting02.sol\":7422:7736  if(participants[msg.sender].votingRight1from!=address(0) && notContainedInArray(motions[motionid_].voters, participants[msg.sender].votingRight1from)){... */\n    tag_316:\n        /* \"contracts/Voting02.sol\":7802:7803  0 */\n      0x00\n        /* \"contracts/Voting02.sol\":7751:7804  participants[msg.sender].votingRight2from!=address(0) */\n      0xffffffffffffffffffffffffffffffffffffffff\n      and\n        /* \"contracts/Voting02.sol\":7751:7763  participants */\n      0x02\n        /* \"contracts/Voting02.sol\":7751:7775  participants[msg.sender] */\n      0x00\n        /* \"contracts/Voting02.sol\":7764:7774  msg.sender */\n      caller\n        /* \"contracts/Voting02.sol\":7751:7775  participants[msg.sender] */\n      0xffffffffffffffffffffffffffffffffffffffff\n      and\n      0xffffffffffffffffffffffffffffffffffffffff\n      and\n      dup2\n      mstore\n      0x20\n      add\n      swap1\n      dup2\n      mstore\n      0x20\n      add\n      0x00\n      keccak256\n        /* \"contracts/Voting02.sol\":7751:7792  participants[msg.sender].votingRight2from */\n      0x01\n      add\n      0x00\n      swap1\n      sload\n      swap1\n      0x0100\n      exp\n      swap1\n      div\n      0xffffffffffffffffffffffffffffffffffffffff\n      and\n        /* \"contracts/Voting02.sol\":7751:7804  participants[msg.sender].votingRight2from!=address(0) */\n      0xffffffffffffffffffffffffffffffffffffffff\n      and\n      eq\n      iszero\n        /* \"contracts/Voting02.sol\":7751:7897  participants[msg.sender].votingRight2from!=address(0) && notContainedInArray(motions[motionid_].voters, participants[msg.sender].votingRight2from) */\n      dup1\n      iszero\n      tag_328\n      jumpi\n      pop\n        /* \"contracts/Voting02.sol\":7808:7897  notContainedInArray(motions[motionid_].voters, participants[msg.sender].votingRight2from) */\n      tag_329\n        /* \"contracts/Voting02.sol\":7828:7835  motions */\n      0x04\n        /* \"contracts/Voting02.sol\":7836:7845  motionid_ */\n      dup4\n        /* \"contracts/Voting02.sol\":7828:7846  motions[motionid_] */\n      dup2\n      sload\n      dup2\n      lt\n      tag_330\n      jumpi\n      tag_331\n      tag_77\n      jump\t// in\n    tag_331:\n    tag_330:\n      swap1\n      0x00\n      mstore\n      keccak256(0x00, 0x20)\n      swap1\n      0x06\n      mul\n      add\n        /* \"contracts/Voting02.sol\":7828:7853  motions[motionid_].voters */\n      0x04\n      add\n        /* \"contracts/Voting02.sol\":7808:7897  notContainedInArray(motions[motionid_].voters, participants[msg.sender].votingRight2from) */\n      dup1\n      sload\n      dup1\n      0x20\n      mul\n      0x20\n      add\n      mload(0x40)\n      swap1\n      dup2\n      add\n      0x40\n      mstore\n      dup1\n      swap3\n      swap2\n      swap1\n      dup2\n      dup2\n      mstore\n      0x20\n      add\n      dup3\n      dup1\n      sload\n      dup1\n      iszero\n      tag_333\n      jumpi\n      0x20\n      mul\n      dup3\n      add\n      swap2\n      swap1\n      0x00\n      mstore\n      keccak256(0x00, 0x20)\n      swap1\n    tag_334:\n      dup2\n      0x00\n      swap1\n      sload\n      swap1\n      0x0100\n      exp\n      swap1\n      div\n      0xffffffffffffffffffffffffffffffffffffffff\n      and\n      0xffffffffffffffffffffffffffffffffffffffff\n      and\n      dup2\n      mstore\n      0x20\n      add\n      swap1\n      0x01\n      add\n      swap1\n      dup1\n      dup4\n      gt\n      tag_334\n      jumpi\n    tag_333:\n      pop\n      pop\n      pop\n      pop\n      pop\n        /* \"contracts/Voting02.sol\":7855:7867  participants */\n      0x02\n        /* \"contracts/Voting02.sol\":7855:7879  participants[msg.sender] */\n      0x00\n        /* \"contracts/Voting02.sol\":7868:7878  msg.sender */\n      caller\n        /* \"contracts/Voting02.sol\":7855:7879  participants[msg.sender] */\n      0xffffffffffffffffffffffffffffffffffffffff\n      and\n      0xffffffffffffffffffffffffffffffffffffffff\n      and\n      dup2\n      mstore\n      0x20\n      add\n      swap1\n      dup2\n      mstore\n      0x20\n      add\n      0x00\n      keccak256\n        /* \"contracts/Voting02.sol\":7855:7896  participants[msg.sender].votingRight2from */\n      0x01\n      add\n      0x00\n      swap1\n      sload\n      swap1\n      0x0100\n      exp\n      swap1\n      div\n      0xffffffffffffffffffffffffffffffffffffffff\n      and\n        /* \"contracts/Voting02.sol\":7808:7827  notContainedInArray */\n      tag_63\n        /* \"contracts/Voting02.sol\":7808:7897  notContainedInArray(motions[motionid_].voters, participants[msg.sender].votingRight2from) */\n      jump\t// in\n    tag_329:\n        /* \"contracts/Voting02.sol\":7751:7897  participants[msg.sender].votingRight2from!=address(0) && notContainedInArray(motions[motionid_].voters, participants[msg.sender].votingRight2from) */\n    tag_328:\n        /* \"contracts/Voting02.sol\":7748:8062  if(participants[msg.sender].votingRight2from!=address(0) && notContainedInArray(motions[motionid_].voters, participants[msg.sender].votingRight2from)){... */\n      iszero\n      tag_335\n      jumpi\n        /* \"contracts/Voting02.sol\":7913:7920  motions */\n      0x04\n        /* \"contracts/Voting02.sol\":7921:7930  motionid_ */\n      dup3\n        /* \"contracts/Voting02.sol\":7913:7931  motions[motionid_] */\n      dup2\n      sload\n      dup2\n      lt\n      tag_336\n      jumpi\n      tag_337\n      tag_77\n      jump\t// in\n    tag_337:\n    tag_336:\n      swap1\n      0x00\n      mstore\n      keccak256(0x00, 0x20)\n      swap1\n      0x06\n      mul\n      add\n        /* \"contracts/Voting02.sol\":7913:7938  motions[motionid_].voters */\n      0x04\n      add\n        /* \"contracts/Voting02.sol\":7944:7956  participants */\n      0x02\n        /* \"contracts/Voting02.sol\":7944:7968  participants[msg.sender] */\n      0x00\n        /* \"contracts/Voting02.sol\":7957:7967  msg.sender */\n      caller\n        /* \"contracts/Voting02.sol\":7944:7968  participants[msg.sender] */\n      0xffffffffffffffffffffffffffffffffffffffff\n      and\n      0xffffffffffffffffffffffffffffffffffffffff\n      and\n      dup2\n      mstore\n      0x20\n      add\n      swap1\n      dup2\n      mstore\n      0x20\n      add\n      0x00\n      keccak256\n        /* \"contracts/Voting02.sol\":7944:7985  participants[msg.sender].votingRight2from */\n      0x01\n      add\n      0x00\n      swap1\n      sload\n      swap1\n      0x0100\n      exp\n      swap1\n      div\n      0xffffffffffffffffffffffffffffffffffffffff\n      and\n        /* \"contracts/Voting02.sol\":7913:7986  motions[motionid_].voters.push(participants[msg.sender].votingRight2from) */\n      swap1\n      dup1\n      0x01\n      dup2\n      sload\n      add\n      dup1\n      dup3\n      sstore\n      dup1\n      swap2\n      pop\n      pop\n      0x01\n      swap1\n      sub\n      swap1\n      0x00\n      mstore\n      keccak256(0x00, 0x20)\n      add\n      0x00\n      swap1\n      swap2\n      swap1\n      swap2\n      swap1\n      swap2\n      0x0100\n      exp\n      dup2\n      sload\n      dup2\n      0xffffffffffffffffffffffffffffffffffffffff\n      mul\n      not\n      and\n      swap1\n      dup4\n      0xffffffffffffffffffffffffffffffffffffffff\n      and\n      mul\n      or\n      swap1\n      sstore\n      pop\n        /* \"contracts/Voting02.sol\":8001:8008  motions */\n      0x04\n        /* \"contracts/Voting02.sol\":8009:8018  motionid_ */\n      dup3\n        /* \"contracts/Voting02.sol\":8001:8019  motions[motionid_] */\n      dup2\n      sload\n      dup2\n      lt\n      tag_340\n      jumpi\n      tag_341\n      tag_77\n      jump\t// in\n    tag_341:\n    tag_340:\n      swap1\n      0x00\n      mstore\n      keccak256(0x00, 0x20)\n      swap1\n      0x06\n      mul\n      add\n        /* \"contracts/Voting02.sol\":8001:8027  motions[motionid_].options */\n      0x03\n      add\n        /* \"contracts/Voting02.sol\":8028:8037  optionid_ */\n      dup2\n        /* \"contracts/Voting02.sol\":8001:8038  motions[motionid_].options[optionid_] */\n      dup2\n      sload\n      dup2\n      lt\n      tag_343\n      jumpi\n      tag_344\n      tag_77\n      jump\t// in\n    tag_344:\n    tag_343:\n      swap1\n      0x00\n      mstore\n      keccak256(0x00, 0x20)\n      swap1\n      0x02\n      mul\n      add\n        /* \"contracts/Voting02.sol\":8001:8048  motions[motionid_].options[optionid_].voteCount */\n      0x01\n      add\n      0x00\n        /* \"contracts/Voting02.sol\":8001:8050  motions[motionid_].options[optionid_].voteCount++ */\n      dup2\n      sload\n      dup1\n      swap3\n      swap2\n      swap1\n      tag_346\n      swap1\n      tag_114\n      jump\t// in\n    tag_346:\n      swap2\n      swap1\n      pop\n      sstore\n      pop\n        /* \"contracts/Voting02.sol\":7748:8062  if(participants[msg.sender].votingRight2from!=address(0) && notContainedInArray(motions[motionid_].voters, participants[msg.sender].votingRight2from)){... */\n    tag_335:\n        /* \"contracts/Voting02.sol\":8113:8132  votingRightsCounter */\n      sload(0x01)\n        /* \"contracts/Voting02.sol\":8077:8084  motions */\n      0x04\n        /* \"contracts/Voting02.sol\":8085:8094  motionid_ */\n      dup4\n        /* \"contracts/Voting02.sol\":8077:8095  motions[motionid_] */\n      dup2\n      sload\n      dup2\n      lt\n      tag_347\n      jumpi\n      tag_348\n      tag_77\n      jump\t// in\n    tag_348:\n    tag_347:\n      swap1\n      0x00\n      mstore\n      keccak256(0x00, 0x20)\n      swap1\n      0x06\n      mul\n      add\n        /* \"contracts/Voting02.sol\":8077:8102  motions[motionid_].voters */\n      0x04\n      add\n        /* \"contracts/Voting02.sol\":8077:8109  motions[motionid_].voters.length */\n      dup1\n      sload\n      swap1\n      pop\n        /* \"contracts/Voting02.sol\":8077:8132  motions[motionid_].voters.length >= votingRightsCounter */\n      lt\n        /* \"contracts/Voting02.sol\":8074:8227  if(motions[motionid_].voters.length >= votingRightsCounter){ // everyone has voted... */\n      tag_350\n      jumpi\n        /* \"contracts/Voting02.sol\":8196:8215  MotionStatus.CLOSED */\n      0x02\n        /* \"contracts/Voting02.sol\":8170:8177  motions */\n      0x04\n        /* \"contracts/Voting02.sol\":8178:8187  motionid_ */\n      dup4\n        /* \"contracts/Voting02.sol\":8170:8188  motions[motionid_] */\n      dup2\n      sload\n      dup2\n      lt\n      tag_351\n      jumpi\n      tag_352\n      tag_77\n      jump\t// in\n    tag_352:\n    tag_351:\n      swap1\n      0x00\n      mstore\n      keccak256(0x00, 0x20)\n      swap1\n      0x06\n      mul\n      add\n        /* \"contracts/Voting02.sol\":8170:8195  motions[motionid_].status */\n      0x02\n      add\n      0x01\n        /* \"contracts/Voting02.sol\":8170:8215  motions[motionid_].status=MotionStatus.CLOSED */\n      0x0100\n      exp\n      dup2\n      sload\n      dup2\n      0xff\n      mul\n      not\n      and\n      swap1\n      dup4\n      0x02\n      dup2\n      gt\n      iszero\n      tag_354\n      jumpi\n      tag_355\n      tag_68\n      jump\t// in\n    tag_355:\n    tag_354:\n      mul\n      or\n      swap1\n      sstore\n      pop\n        /* \"contracts/Voting02.sol\":8074:8227  if(motions[motionid_].voters.length >= votingRightsCounter){ // everyone has voted... */\n    tag_350:\n        /* \"contracts/Voting02.sol\":6583:8236  function voteForMotion(uint motionid_, uint optionid_) public{... */\n      pop\n      pop\n      jump\t// out\n        /* \"contracts/Voting02.sol\":1503:1538  uint public votingRightsCounter = 0 */\n    tag_58:\n      sload(0x01)\n      dup2\n      jump\t// out\n        /* \"contracts/Voting02.sol\":3041:3298  function notContainedInArray(address[] memory arr_, address el_) pure public returns (bool){... */\n    tag_63:\n        /* \"contracts/Voting02.sol\":3127:3131  bool */\n      0x00\n        /* \"contracts/Voting02.sol\":3148:3154  uint i */\n      dup1\n        /* \"contracts/Voting02.sol\":3155:3156  0 */\n      0x00\n        /* \"contracts/Voting02.sol\":3148:3156  uint i=0 */\n      swap1\n      pop\n        /* \"contracts/Voting02.sol\":3143:3269  for (uint i=0; i<arr_.length;i++ ){... */\n    tag_357:\n        /* \"contracts/Voting02.sol\":3160:3164  arr_ */\n      dup4\n        /* \"contracts/Voting02.sol\":3160:3171  arr_.length */\n      mload\n        /* \"contracts/Voting02.sol\":3158:3159  i */\n      dup2\n        /* \"contracts/Voting02.sol\":3158:3171  i<arr_.length */\n      lt\n        /* \"contracts/Voting02.sol\":3143:3269  for (uint i=0; i<arr_.length;i++ ){... */\n      iszero\n      tag_358\n      jumpi\n        /* \"contracts/Voting02.sol\":3207:3210  el_ */\n      dup3\n        /* \"contracts/Voting02.sol\":3196:3210  arr_[i] == el_ */\n      0xffffffffffffffffffffffffffffffffffffffff\n      and\n        /* \"contracts/Voting02.sol\":3196:3200  arr_ */\n      dup5\n        /* \"contracts/Voting02.sol\":3201:3202  i */\n      dup3\n        /* \"contracts/Voting02.sol\":3196:3203  arr_[i] */\n      dup2\n      mload\n      dup2\n      lt\n      tag_360\n      jumpi\n      tag_361\n      tag_77\n      jump\t// in\n    tag_361:\n    tag_360:\n      0x20\n      mul\n      0x20\n      add\n      add\n      mload\n        /* \"contracts/Voting02.sol\":3196:3210  arr_[i] == el_ */\n      0xffffffffffffffffffffffffffffffffffffffff\n      and\n      sub\n        /* \"contracts/Voting02.sol\":3192:3258  if (arr_[i] == el_){... */\n      tag_362\n      jumpi\n        /* \"contracts/Voting02.sol\":3237:3242  false */\n      0x00\n        /* \"contracts/Voting02.sol\":3230:3242  return false */\n      swap2\n      pop\n      pop\n      jump(tag_356)\n        /* \"contracts/Voting02.sol\":3192:3258  if (arr_[i] == el_){... */\n    tag_362:\n        /* \"contracts/Voting02.sol\":3172:3175  i++ */\n      dup1\n      dup1\n      tag_363\n      swap1\n      tag_114\n      jump\t// in\n    tag_363:\n      swap2\n      pop\n      pop\n        /* \"contracts/Voting02.sol\":3143:3269  for (uint i=0; i<arr_.length;i++ ){... */\n      jump(tag_357)\n    tag_358:\n      pop\n        /* \"contracts/Voting02.sol\":3286:3290  true */\n      0x01\n        /* \"contracts/Voting02.sol\":3279:3290  return true */\n      swap1\n      pop\n        /* \"contracts/Voting02.sol\":3041:3298  function notContainedInArray(address[] memory arr_, address el_) pure public returns (bool){... */\n    tag_356:\n      swap3\n      swap2\n      pop\n      pop\n      jump\t// out\n        /* \"contracts/Voting02.sol\":2788:3033  function noOpenMotions() view private returns (bool){... */\n    tag_131:\n        /* \"contracts/Voting02.sol\":2835:2839  bool */\n      0x00\n        /* \"contracts/Voting02.sol\":2856:2862  uint i */\n      dup1\n        /* \"contracts/Voting02.sol\":2863:2864  0 */\n      0x00\n        /* \"contracts/Voting02.sol\":2856:2864  uint i=0 */\n      swap1\n      pop\n        /* \"contracts/Voting02.sol\":2851:3004  for (uint i=0; i<motions.length;i++ ){... */\n    tag_365:\n        /* \"contracts/Voting02.sol\":2868:2875  motions */\n      0x04\n        /* \"contracts/Voting02.sol\":2868:2882  motions.length */\n      dup1\n      sload\n      swap1\n      pop\n        /* \"contracts/Voting02.sol\":2866:2867  i */\n      dup2\n        /* \"contracts/Voting02.sol\":2866:2882  i<motions.length */\n      lt\n        /* \"contracts/Voting02.sol\":2851:3004  for (uint i=0; i<motions.length;i++ ){... */\n      iszero\n      tag_366\n      jumpi\n        /* \"contracts/Voting02.sol\":2928:2945  MotionStatus.OPEN */\n      0x01\n        /* \"contracts/Voting02.sol\":2907:2945  motions[i].status == MotionStatus.OPEN */\n      0x02\n      dup2\n      gt\n      iszero\n      tag_368\n      jumpi\n      tag_369\n      tag_68\n      jump\t// in\n    tag_369:\n    tag_368:\n        /* \"contracts/Voting02.sol\":2907:2914  motions */\n      0x04\n        /* \"contracts/Voting02.sol\":2915:2916  i */\n      dup3\n        /* \"contracts/Voting02.sol\":2907:2917  motions[i] */\n      dup2\n      sload\n      dup2\n      lt\n      tag_370\n      jumpi\n      tag_371\n      tag_77\n      jump\t// in\n    tag_371:\n    tag_370:\n      swap1\n      0x00\n      mstore\n      keccak256(0x00, 0x20)\n      swap1\n      0x06\n      mul\n      add\n        /* \"contracts/Voting02.sol\":2907:2924  motions[i].status */\n      0x02\n      add\n      0x01\n      swap1\n      sload\n      swap1\n      0x0100\n      exp\n      swap1\n      div\n      0xff\n      and\n        /* \"contracts/Voting02.sol\":2907:2945  motions[i].status == MotionStatus.OPEN */\n      0x02\n      dup2\n      gt\n      iszero\n      tag_373\n      jumpi\n      tag_374\n      tag_68\n      jump\t// in\n    tag_374:\n    tag_373:\n      sub\n        /* \"contracts/Voting02.sol\":2903:2993  if (motions[i].status == MotionStatus.OPEN){... */\n      tag_375\n      jumpi\n        /* \"contracts/Voting02.sol\":2972:2977  false */\n      0x00\n        /* \"contracts/Voting02.sol\":2965:2977  return false */\n      swap2\n      pop\n      pop\n      jump(tag_364)\n        /* \"contracts/Voting02.sol\":2903:2993  if (motions[i].status == MotionStatus.OPEN){... */\n    tag_375:\n        /* \"contracts/Voting02.sol\":2883:2886  i++ */\n      dup1\n      dup1\n      tag_376\n      swap1\n      tag_114\n      jump\t// in\n    tag_376:\n      swap2\n      pop\n      pop\n        /* \"contracts/Voting02.sol\":2851:3004  for (uint i=0; i<motions.length;i++ ){... */\n      jump(tag_365)\n    tag_366:\n      pop\n        /* \"contracts/Voting02.sol\":3021:3025  true */\n      0x01\n        /* \"contracts/Voting02.sol\":3014:3025  return true */\n      swap1\n      pop\n        /* \"contracts/Voting02.sol\":2788:3033  function noOpenMotions() view private returns (bool){... */\n    tag_364:\n      swap1\n      jump\t// out\n        /* \"contracts/Voting02.sol\":9071:9524  function transfer(address fromwhom_, address towhom_, uint which_) private{... */\n    tag_205:\n        /* \"contracts/Voting02.sol\":9172:9173  1 */\n      0x01\n        /* \"contracts/Voting02.sol\":9164:9170  which_ */\n      dup2\n        /* \"contracts/Voting02.sol\":9164:9173  which_==1 */\n      eq\n        /* \"contracts/Voting02.sol\":9164:9186  which_==1 || which_==2 */\n      dup1\n      tag_378\n      jumpi\n      pop\n        /* \"contracts/Voting02.sol\":9185:9186  2 */\n      0x02\n        /* \"contracts/Voting02.sol\":9177:9183  which_ */\n      dup2\n        /* \"contracts/Voting02.sol\":9177:9186  which_==2 */\n      eq\n        /* \"contracts/Voting02.sol\":9164:9186  which_==1 || which_==2 */\n    tag_378:\n        /* \"contracts/Voting02.sol\":9156:9187  require(which_==1 || which_==2) */\n      tag_379\n      jumpi\n      0x00\n      dup1\n      revert\n    tag_379:\n        /* \"contracts/Voting02.sol\":9256:9257  0 */\n      0x00\n        /* \"contracts/Voting02.sol\":9206:9258  participants[towhom_].votingRight1from == address(0) */\n      0xffffffffffffffffffffffffffffffffffffffff\n      and\n        /* \"contracts/Voting02.sol\":9206:9218  participants */\n      0x02\n        /* \"contracts/Voting02.sol\":9206:9227  participants[towhom_] */\n      0x00\n        /* \"contracts/Voting02.sol\":9219:9226  towhom_ */\n      dup5\n        /* \"contracts/Voting02.sol\":9206:9227  participants[towhom_] */\n      0xffffffffffffffffffffffffffffffffffffffff\n      and\n      0xffffffffffffffffffffffffffffffffffffffff\n      and\n      dup2\n      mstore\n      0x20\n      add\n      swap1\n      dup2\n      mstore\n      0x20\n      add\n      0x00\n      keccak256\n        /* \"contracts/Voting02.sol\":9206:9244  participants[towhom_].votingRight1from */\n      0x00\n      add\n      0x01\n      swap1\n      sload\n      swap1\n      0x0100\n      exp\n      swap1\n      div\n      0xffffffffffffffffffffffffffffffffffffffff\n      and\n        /* \"contracts/Voting02.sol\":9206:9258  participants[towhom_].votingRight1from == address(0) */\n      0xffffffffffffffffffffffffffffffffffffffff\n      and\n      sub\n        /* \"contracts/Voting02.sol\":9203:9418  if(participants[towhom_].votingRight1from == address(0)){... */\n      tag_380\n      jumpi\n        /* \"contracts/Voting02.sol\":9315:9324  fromwhom_ */\n      dup3\n        /* \"contracts/Voting02.sol\":9274:9286  participants */\n      0x02\n        /* \"contracts/Voting02.sol\":9274:9295  participants[towhom_] */\n      0x00\n        /* \"contracts/Voting02.sol\":9287:9294  towhom_ */\n      dup5\n        /* \"contracts/Voting02.sol\":9274:9295  participants[towhom_] */\n      0xffffffffffffffffffffffffffffffffffffffff\n      and\n      0xffffffffffffffffffffffffffffffffffffffff\n      and\n      dup2\n      mstore\n      0x20\n      add\n      swap1\n      dup2\n      mstore\n      0x20\n      add\n      0x00\n      keccak256\n        /* \"contracts/Voting02.sol\":9274:9312  participants[towhom_].votingRight1from */\n      0x00\n      add\n      0x01\n        /* \"contracts/Voting02.sol\":9274:9324  participants[towhom_].votingRight1from = fromwhom_ */\n      0x0100\n      exp\n      dup2\n      sload\n      dup2\n      0xffffffffffffffffffffffffffffffffffffffff\n      mul\n      not\n      and\n      swap1\n      dup4\n      0xffffffffffffffffffffffffffffffffffffffff\n      and\n      mul\n      or\n      swap1\n      sstore\n      pop\n        /* \"contracts/Voting02.sol\":9203:9418  if(participants[towhom_].votingRight1from == address(0)){... */\n      jump(tag_381)\n    tag_380:\n        /* \"contracts/Voting02.sol\":9397:9406  fromwhom_ */\n      dup3\n        /* \"contracts/Voting02.sol\":9356:9368  participants */\n      0x02\n        /* \"contracts/Voting02.sol\":9356:9377  participants[towhom_] */\n      0x00\n        /* \"contracts/Voting02.sol\":9369:9376  towhom_ */\n      dup5\n        /* \"contracts/Voting02.sol\":9356:9377  participants[towhom_] */\n      0xffffffffffffffffffffffffffffffffffffffff\n      and\n      0xffffffffffffffffffffffffffffffffffffffff\n      and\n      dup2\n      mstore\n      0x20\n      add\n      swap1\n      dup2\n      mstore\n      0x20\n      add\n      0x00\n      keccak256\n        /* \"contracts/Voting02.sol\":9356:9394  participants[towhom_].votingRight2from */\n      0x01\n      add\n      0x00\n        /* \"contracts/Voting02.sol\":9356:9406  participants[towhom_].votingRight2from = fromwhom_ */\n      0x0100\n      exp\n      dup2\n      sload\n      dup2\n      0xffffffffffffffffffffffffffffffffffffffff\n      mul\n      not\n      and\n      swap1\n      dup4\n      0xffffffffffffffffffffffffffffffffffffffff\n      and\n      mul\n      or\n      swap1\n      sstore\n      pop\n        /* \"contracts/Voting02.sol\":9203:9418  if(participants[towhom_].votingRight1from == address(0)){... */\n    tag_381:\n        /* \"contracts/Voting02.sol\":9439:9440  1 */\n      0x01\n        /* \"contracts/Voting02.sol\":9431:9437  which_ */\n      dup2\n        /* \"contracts/Voting02.sol\":9431:9440  which_==1 */\n      sub\n        /* \"contracts/Voting02.sol\":9428:9517  if(which_==1){... */\n      tag_382\n      jumpi\n        /* \"contracts/Voting02.sol\":9503:9504  0 */\n      0x00\n        /* \"contracts/Voting02.sol\":9452:9464  participants */\n      0x02\n        /* \"contracts/Voting02.sol\":9452:9475  participants[fromwhom_] */\n      0x00\n        /* \"contracts/Voting02.sol\":9465:9474  fromwhom_ */\n      dup6\n        /* \"contracts/Voting02.sol\":9452:9475  participants[fromwhom_] */\n      0xffffffffffffffffffffffffffffffffffffffff\n      and\n      0xffffffffffffffffffffffffffffffffffffffff\n      and\n      dup2\n      mstore\n      0x20\n      add\n      swap1\n      dup2\n      mstore\n      0x20\n      add\n      0x00\n      keccak256\n        /* \"contracts/Voting02.sol\":9452:9492  participants[fromwhom_].votingRight1from */\n      0x00\n      add\n      0x01\n        /* \"contracts/Voting02.sol\":9452:9505  participants[fromwhom_].votingRight1from = address(0) */\n      0x0100\n      exp\n      dup2\n      sload\n      dup2\n      0xffffffffffffffffffffffffffffffffffffffff\n      mul\n      not\n      and\n      swap1\n      dup4\n      0xffffffffffffffffffffffffffffffffffffffff\n      and\n      mul\n      or\n      swap1\n      sstore\n      pop\n        /* \"contracts/Voting02.sol\":9428:9517  if(which_==1){... */\n    tag_382:\n        /* \"contracts/Voting02.sol\":9071:9524  function transfer(address fromwhom_, address towhom_, uint which_) private{... */\n      pop\n      pop\n      pop\n      jump\t// out\n    tag_136:\n      mload(0x40)\n      dup1\n      0x60\n      add\n      0x40\n      mstore\n      dup1\n      0x00\n      0x04\n      dup2\n      gt\n      iszero\n      tag_383\n      jumpi\n      tag_384\n      tag_68\n      jump\t// in\n    tag_384:\n    tag_383:\n      dup2\n      mstore\n      0x20\n      add\n      and(0xffffffffffffffffffffffffffffffffffffffff, 0x00)\n      dup2\n      mstore\n      0x20\n      add\n      and(0xffffffffffffffffffffffffffffffffffffffff, 0x00)\n      dup2\n      mstore\n      pop\n      swap1\n      jump\t// out\n        /* \"#utility.yul\":7:82   */\n    tag_385:\n        /* \"#utility.yul\":40:46   */\n      0x00\n        /* \"#utility.yul\":73:75   */\n      0x40\n        /* \"#utility.yul\":67:76   */\n      mload\n        /* \"#utility.yul\":57:76   */\n      swap1\n      pop\n        /* \"#utility.yul\":7:82   */\n      swap1\n      jump\t// out\n        /* \"#utility.yul\":88:205   */\n    tag_386:\n        /* \"#utility.yul\":197:198   */\n      0x00\n        /* \"#utility.yul\":194:195   */\n      dup1\n        /* \"#utility.yul\":187:199   */\n      revert\n        /* \"#utility.yul\":211:328   */\n    tag_387:\n        /* \"#utility.yul\":320:321   */\n      0x00\n        /* \"#utility.yul\":317:318   */\n      dup1\n        /* \"#utility.yul\":310:322   */\n      revert\n        /* \"#utility.yul\":334:460   */\n    tag_388:\n        /* \"#utility.yul\":371:378   */\n      0x00\n        /* \"#utility.yul\":411:453   */\n      0xffffffffffffffffffffffffffffffffffffffff\n        /* \"#utility.yul\":404:409   */\n      dup3\n        /* \"#utility.yul\":400:454   */\n      and\n        /* \"#utility.yul\":389:454   */\n      swap1\n      pop\n        /* \"#utility.yul\":334:460   */\n      swap2\n      swap1\n      pop\n      jump\t// out\n        /* \"#utility.yul\":466:562   */\n    tag_389:\n        /* \"#utility.yul\":503:510   */\n      0x00\n        /* \"#utility.yul\":532:556   */\n      tag_487\n        /* \"#utility.yul\":550:555   */\n      dup3\n        /* \"#utility.yul\":532:556   */\n      tag_388\n      jump\t// in\n    tag_487:\n        /* \"#utility.yul\":521:556   */\n      swap1\n      pop\n        /* \"#utility.yul\":466:562   */\n      swap2\n      swap1\n      pop\n      jump\t// out\n        /* \"#utility.yul\":568:690   */\n    tag_390:\n        /* \"#utility.yul\":641:665   */\n      tag_489\n        /* \"#utility.yul\":659:664   */\n      dup2\n        /* \"#utility.yul\":641:665   */\n      tag_389\n      jump\t// in\n    tag_489:\n        /* \"#utility.yul\":634:639   */\n      dup2\n        /* \"#utility.yul\":631:666   */\n      eq\n        /* \"#utility.yul\":621:684   */\n      tag_490\n      jumpi\n        /* \"#utility.yul\":680:681   */\n      0x00\n        /* \"#utility.yul\":677:678   */\n      dup1\n        /* \"#utility.yul\":670:682   */\n      revert\n        /* \"#utility.yul\":621:684   */\n    tag_490:\n        /* \"#utility.yul\":568:690   */\n      pop\n      jump\t// out\n        /* \"#utility.yul\":696:835   */\n    tag_391:\n        /* \"#utility.yul\":742:747   */\n      0x00\n        /* \"#utility.yul\":780:786   */\n      dup2\n        /* \"#utility.yul\":767:787   */\n      calldataload\n        /* \"#utility.yul\":758:787   */\n      swap1\n      pop\n        /* \"#utility.yul\":796:829   */\n      tag_492\n        /* \"#utility.yul\":823:828   */\n      dup2\n        /* \"#utility.yul\":796:829   */\n      tag_390\n      jump\t// in\n    tag_492:\n        /* \"#utility.yul\":696:835   */\n      swap3\n      swap2\n      pop\n      pop\n      jump\t// out\n        /* \"#utility.yul\":841:1170   */\n    tag_18:\n        /* \"#utility.yul\":900:906   */\n      0x00\n        /* \"#utility.yul\":949:951   */\n      0x20\n        /* \"#utility.yul\":937:946   */\n      dup3\n        /* \"#utility.yul\":928:935   */\n      dup5\n        /* \"#utility.yul\":924:947   */\n      sub\n        /* \"#utility.yul\":920:952   */\n      slt\n        /* \"#utility.yul\":917:1036   */\n      iszero\n      tag_494\n      jumpi\n        /* \"#utility.yul\":955:1034   */\n      tag_495\n      tag_386\n      jump\t// in\n    tag_495:\n        /* \"#utility.yul\":917:1036   */\n    tag_494:\n        /* \"#utility.yul\":1075:1076   */\n      0x00\n        /* \"#utility.yul\":1100:1153   */\n      tag_496\n        /* \"#utility.yul\":1145:1152   */\n      dup5\n        /* \"#utility.yul\":1136:1142   */\n      dup3\n        /* \"#utility.yul\":1125:1134   */\n      dup6\n        /* \"#utility.yul\":1121:1143   */\n      add\n        /* \"#utility.yul\":1100:1153   */\n      tag_391\n      jump\t// in\n    tag_496:\n        /* \"#utility.yul\":1090:1153   */\n      swap2\n      pop\n        /* \"#utility.yul\":1046:1163   */\n      pop\n        /* \"#utility.yul\":841:1170   */\n      swap3\n      swap2\n      pop\n      pop\n      jump\t// out\n        /* \"#utility.yul\":1176:1356   */\n    tag_68:\n        /* \"#utility.yul\":1224:1301   */\n      0x4e487b7100000000000000000000000000000000000000000000000000000000\n        /* \"#utility.yul\":1221:1222   */\n      0x00\n        /* \"#utility.yul\":1214:1302   */\n      mstore\n        /* \"#utility.yul\":1321:1325   */\n      0x21\n        /* \"#utility.yul\":1318:1319   */\n      0x04\n        /* \"#utility.yul\":1311:1326   */\n      mstore\n        /* \"#utility.yul\":1345:1349   */\n      0x24\n        /* \"#utility.yul\":1342:1343   */\n      0x00\n        /* \"#utility.yul\":1335:1350   */\n      revert\n        /* \"#utility.yul\":1362:1483   */\n    tag_392:\n        /* \"#utility.yul\":1451:1452   */\n      0x05\n        /* \"#utility.yul\":1444:1449   */\n      dup2\n        /* \"#utility.yul\":1441:1453   */\n      lt\n        /* \"#utility.yul\":1431:1477   */\n      tag_499\n      jumpi\n        /* \"#utility.yul\":1457:1475   */\n      tag_500\n      tag_68\n      jump\t// in\n    tag_500:\n        /* \"#utility.yul\":1431:1477   */\n    tag_499:\n        /* \"#utility.yul\":1362:1483   */\n      pop\n      jump\t// out\n        /* \"#utility.yul\":1489:1632   */\n    tag_393:\n        /* \"#utility.yul\":1542:1549   */\n      0x00\n        /* \"#utility.yul\":1571:1576   */\n      dup2\n        /* \"#utility.yul\":1560:1576   */\n      swap1\n      pop\n        /* \"#utility.yul\":1577:1626   */\n      tag_502\n        /* \"#utility.yul\":1620:1625   */\n      dup3\n        /* \"#utility.yul\":1577:1626   */\n      tag_392\n      jump\t// in\n    tag_502:\n        /* \"#utility.yul\":1489:1632   */\n      swap2\n      swap1\n      pop\n      jump\t// out\n        /* \"#utility.yul\":1638:1781   */\n    tag_394:\n        /* \"#utility.yul\":1702:1711   */\n      0x00\n        /* \"#utility.yul\":1735:1775   */\n      tag_504\n        /* \"#utility.yul\":1769:1774   */\n      dup3\n        /* \"#utility.yul\":1735:1775   */\n      tag_393\n      jump\t// in\n    tag_504:\n        /* \"#utility.yul\":1722:1775   */\n      swap1\n      pop\n        /* \"#utility.yul\":1638:1781   */\n      swap2\n      swap1\n      pop\n      jump\t// out\n        /* \"#utility.yul\":1787:1946   */\n    tag_395:\n        /* \"#utility.yul\":1888:1939   */\n      tag_506\n        /* \"#utility.yul\":1933:1938   */\n      dup2\n        /* \"#utility.yul\":1888:1939   */\n      tag_394\n      jump\t// in\n    tag_506:\n        /* \"#utility.yul\":1883:1886   */\n      dup3\n        /* \"#utility.yul\":1876:1940   */\n      mstore\n        /* \"#utility.yul\":1787:1946   */\n      pop\n      pop\n      jump\t// out\n        /* \"#utility.yul\":1952:2070   */\n    tag_396:\n        /* \"#utility.yul\":2039:2063   */\n      tag_508\n        /* \"#utility.yul\":2057:2062   */\n      dup2\n        /* \"#utility.yul\":2039:2063   */\n      tag_389\n      jump\t// in\n    tag_508:\n        /* \"#utility.yul\":2034:2037   */\n      dup3\n        /* \"#utility.yul\":2027:2064   */\n      mstore\n        /* \"#utility.yul\":1952:2070   */\n      pop\n      pop\n      jump\t// out\n        /* \"#utility.yul\":2076:2546   */\n    tag_21:\n        /* \"#utility.yul\":2239:2243   */\n      0x00\n        /* \"#utility.yul\":2277:2279   */\n      0x60\n        /* \"#utility.yul\":2266:2275   */\n      dup3\n        /* \"#utility.yul\":2262:2280   */\n      add\n        /* \"#utility.yul\":2254:2280   */\n      swap1\n      pop\n        /* \"#utility.yul\":2290:2375   */\n      tag_510\n        /* \"#utility.yul\":2372:2373   */\n      0x00\n        /* \"#utility.yul\":2361:2370   */\n      dup4\n        /* \"#utility.yul\":2357:2374   */\n      add\n        /* \"#utility.yul\":2348:2354   */\n      dup7\n        /* \"#utility.yul\":2290:2375   */\n      tag_395\n      jump\t// in\n    tag_510:\n        /* \"#utility.yul\":2385:2457   */\n      tag_511\n        /* \"#utility.yul\":2453:2455   */\n      0x20\n        /* \"#utility.yul\":2442:2451   */\n      dup4\n        /* \"#utility.yul\":2438:2456   */\n      add\n        /* \"#utility.yul\":2429:2435   */\n      dup6\n        /* \"#utility.yul\":2385:2457   */\n      tag_396\n      jump\t// in\n    tag_511:\n        /* \"#utility.yul\":2467:2539   */\n      tag_512\n        /* \"#utility.yul\":2535:2537   */\n      0x40\n        /* \"#utility.yul\":2524:2533   */\n      dup4\n        /* \"#utility.yul\":2520:2538   */\n      add\n        /* \"#utility.yul\":2511:2517   */\n      dup5\n        /* \"#utility.yul\":2467:2539   */\n      tag_396\n      jump\t// in\n    tag_512:\n        /* \"#utility.yul\":2076:2546   */\n      swap5\n      swap4\n      pop\n      pop\n      pop\n      pop\n      jump\t// out\n        /* \"#utility.yul\":2552:2629   */\n    tag_397:\n        /* \"#utility.yul\":2589:2596   */\n      0x00\n        /* \"#utility.yul\":2618:2623   */\n      dup2\n        /* \"#utility.yul\":2607:2623   */\n      swap1\n      pop\n        /* \"#utility.yul\":2552:2629   */\n      swap2\n      swap1\n      pop\n      jump\t// out\n        /* \"#utility.yul\":2635:2757   */\n    tag_398:\n        /* \"#utility.yul\":2708:2732   */\n      tag_515\n        /* \"#utility.yul\":2726:2731   */\n      dup2\n        /* \"#utility.yul\":2708:2732   */\n      tag_397\n      jump\t// in\n    tag_515:\n        /* \"#utility.yul\":2701:2706   */\n      dup2\n        /* \"#utility.yul\":2698:2733   */\n      eq\n        /* \"#utility.yul\":2688:2751   */\n      tag_516\n      jumpi\n        /* \"#utility.yul\":2747:2748   */\n      0x00\n        /* \"#utility.yul\":2744:2745   */\n      dup1\n        /* \"#utility.yul\":2737:2749   */\n      revert\n        /* \"#utility.yul\":2688:2751   */\n    tag_516:\n        /* \"#utility.yul\":2635:2757   */\n      pop\n      jump\t// out\n        /* \"#utility.yul\":2763:2902   */\n    tag_399:\n        /* \"#utility.yul\":2809:2814   */\n      0x00\n        /* \"#utility.yul\":2847:2853   */\n      dup2\n        /* \"#utility.yul\":2834:2854   */\n      calldataload\n        /* \"#utility.yul\":2825:2854   */\n      swap1\n      pop\n        /* \"#utility.yul\":2863:2896   */\n      tag_518\n        /* \"#utility.yul\":2890:2895   */\n      dup2\n        /* \"#utility.yul\":2863:2896   */\n      tag_398\n      jump\t// in\n    tag_518:\n        /* \"#utility.yul\":2763:2902   */\n      swap3\n      swap2\n      pop\n      pop\n      jump\t// out\n        /* \"#utility.yul\":2908:3237   */\n    tag_24:\n        /* \"#utility.yul\":2967:2973   */\n      0x00\n        /* \"#utility.yul\":3016:3018   */\n      0x20\n        /* \"#utility.yul\":3004:3013   */\n      dup3\n        /* \"#utility.yul\":2995:3002   */\n      dup5\n        /* \"#utility.yul\":2991:3014   */\n      sub\n        /* \"#utility.yul\":2987:3019   */\n      slt\n        /* \"#utility.yul\":2984:3103   */\n      iszero\n      tag_520\n      jumpi\n        /* \"#utility.yul\":3022:3101   */\n      tag_521\n      tag_386\n      jump\t// in\n    tag_521:\n        /* \"#utility.yul\":2984:3103   */\n    tag_520:\n        /* \"#utility.yul\":3142:3143   */\n      0x00\n        /* \"#utility.yul\":3167:3220   */\n      tag_522\n        /* \"#utility.yul\":3212:3219   */\n      dup5\n        /* \"#utility.yul\":3203:3209   */\n      dup3\n        /* \"#utility.yul\":3192:3201   */\n      dup6\n        /* \"#utility.yul\":3188:3210   */\n      add\n        /* \"#utility.yul\":3167:3220   */\n      tag_399\n      jump\t// in\n    tag_522:\n        /* \"#utility.yul\":3157:3220   */\n      swap2\n      pop\n        /* \"#utility.yul\":3113:3230   */\n      pop\n        /* \"#utility.yul\":2908:3237   */\n      swap3\n      swap2\n      pop\n      pop\n      jump\t// out\n        /* \"#utility.yul\":3243:3333   */\n    tag_400:\n        /* \"#utility.yul\":3277:3284   */\n      0x00\n        /* \"#utility.yul\":3320:3325   */\n      dup2\n        /* \"#utility.yul\":3313:3326   */\n      iszero\n        /* \"#utility.yul\":3306:3327   */\n      iszero\n        /* \"#utility.yul\":3295:3327   */\n      swap1\n      pop\n        /* \"#utility.yul\":3243:3333   */\n      swap2\n      swap1\n      pop\n      jump\t// out\n        /* \"#utility.yul\":3339:3448   */\n    tag_401:\n        /* \"#utility.yul\":3420:3441   */\n      tag_525\n        /* \"#utility.yul\":3435:3440   */\n      dup2\n        /* \"#utility.yul\":3420:3441   */\n      tag_400\n      jump\t// in\n    tag_525:\n        /* \"#utility.yul\":3415:3418   */\n      dup3\n        /* \"#utility.yul\":3408:3442   */\n      mstore\n        /* \"#utility.yul\":3339:3448   */\n      pop\n      pop\n      jump\t// out\n        /* \"#utility.yul\":3454:3664   */\n    tag_30:\n        /* \"#utility.yul\":3541:3545   */\n      0x00\n        /* \"#utility.yul\":3579:3581   */\n      0x20\n        /* \"#utility.yul\":3568:3577   */\n      dup3\n        /* \"#utility.yul\":3564:3582   */\n      add\n        /* \"#utility.yul\":3556:3582   */\n      swap1\n      pop\n        /* \"#utility.yul\":3592:3657   */\n      tag_527\n        /* \"#utility.yul\":3654:3655   */\n      0x00\n        /* \"#utility.yul\":3643:3652   */\n      dup4\n        /* \"#utility.yul\":3639:3656   */\n      add\n        /* \"#utility.yul\":3630:3636   */\n      dup5\n        /* \"#utility.yul\":3592:3657   */\n      tag_401\n      jump\t// in\n    tag_527:\n        /* \"#utility.yul\":3454:3664   */\n      swap3\n      swap2\n      pop\n      pop\n      jump\t// out\n        /* \"#utility.yul\":3670:3785   */\n    tag_402:\n        /* \"#utility.yul\":3759:3760   */\n      0x05\n        /* \"#utility.yul\":3752:3757   */\n      dup2\n        /* \"#utility.yul\":3749:3761   */\n      lt\n        /* \"#utility.yul\":3739:3779   */\n      tag_529\n      jumpi\n        /* \"#utility.yul\":3775:3776   */\n      0x00\n        /* \"#utility.yul\":3772:3773   */\n      dup1\n        /* \"#utility.yul\":3765:3777   */\n      revert\n        /* \"#utility.yul\":3739:3779   */\n    tag_529:\n        /* \"#utility.yul\":3670:3785   */\n      pop\n      jump\t// out\n        /* \"#utility.yul\":3791:3962   */\n    tag_403:\n        /* \"#utility.yul\":3853:3858   */\n      0x00\n        /* \"#utility.yul\":3891:3897   */\n      dup2\n        /* \"#utility.yul\":3878:3898   */\n      calldataload\n        /* \"#utility.yul\":3869:3898   */\n      swap1\n      pop\n        /* \"#utility.yul\":3907:3956   */\n      tag_531\n        /* \"#utility.yul\":3950:3955   */\n      dup2\n        /* \"#utility.yul\":3907:3956   */\n      tag_402\n      jump\t// in\n    tag_531:\n        /* \"#utility.yul\":3791:3962   */\n      swap3\n      swap2\n      pop\n      pop\n      jump\t// out\n        /* \"#utility.yul\":3968:4474   */\n    tag_33:\n        /* \"#utility.yul\":4052:4058   */\n      0x00\n        /* \"#utility.yul\":4060:4066   */\n      dup1\n        /* \"#utility.yul\":4109:4111   */\n      0x40\n        /* \"#utility.yul\":4097:4106   */\n      dup4\n        /* \"#utility.yul\":4088:4095   */\n      dup6\n        /* \"#utility.yul\":4084:4107   */\n      sub\n        /* \"#utility.yul\":4080:4112   */\n      slt\n        /* \"#utility.yul\":4077:4196   */\n      iszero\n      tag_533\n      jumpi\n        /* \"#utility.yul\":4115:4194   */\n      tag_534\n      tag_386\n      jump\t// in\n    tag_534:\n        /* \"#utility.yul\":4077:4196   */\n    tag_533:\n        /* \"#utility.yul\":4235:4236   */\n      0x00\n        /* \"#utility.yul\":4260:4329   */\n      tag_535\n        /* \"#utility.yul\":4321:4328   */\n      dup6\n        /* \"#utility.yul\":4312:4318   */\n      dup3\n        /* \"#utility.yul\":4301:4310   */\n      dup7\n        /* \"#utility.yul\":4297:4319   */\n      add\n        /* \"#utility.yul\":4260:4329   */\n      tag_403\n      jump\t// in\n    tag_535:\n        /* \"#utility.yul\":4250:4329   */\n      swap3\n      pop\n        /* \"#utility.yul\":4206:4339   */\n      pop\n        /* \"#utility.yul\":4378:4380   */\n      0x20\n        /* \"#utility.yul\":4404:4457   */\n      tag_536\n        /* \"#utility.yul\":4449:4456   */\n      dup6\n        /* \"#utility.yul\":4440:4446   */\n      dup3\n        /* \"#utility.yul\":4429:4438   */\n      dup7\n        /* \"#utility.yul\":4425:4447   */\n      add\n        /* \"#utility.yul\":4404:4457   */\n      tag_391\n      jump\t// in\n    tag_536:\n        /* \"#utility.yul\":4394:4457   */\n      swap2\n      pop\n        /* \"#utility.yul\":4349:4467   */\n      pop\n        /* \"#utility.yul\":3968:4474   */\n      swap3\n      pop\n      swap3\n      swap1\n      pop\n      jump\t// out\n        /* \"#utility.yul\":4480:4597   */\n    tag_404:\n        /* \"#utility.yul\":4589:4590   */\n      0x00\n        /* \"#utility.yul\":4586:4587   */\n      dup1\n        /* \"#utility.yul\":4579:4591   */\n      revert\n        /* \"#utility.yul\":4603:4720   */\n    tag_405:\n        /* \"#utility.yul\":4712:4713   */\n      0x00\n        /* \"#utility.yul\":4709:4710   */\n      dup1\n        /* \"#utility.yul\":4702:4714   */\n      revert\n        /* \"#utility.yul\":4726:4828   */\n    tag_406:\n        /* \"#utility.yul\":4767:4773   */\n      0x00\n        /* \"#utility.yul\":4818:4820   */\n      0x1f\n        /* \"#utility.yul\":4814:4821   */\n      not\n        /* \"#utility.yul\":4809:4811   */\n      0x1f\n        /* \"#utility.yul\":4802:4807   */\n      dup4\n        /* \"#utility.yul\":4798:4812   */\n      add\n        /* \"#utility.yul\":4794:4822   */\n      and\n        /* \"#utility.yul\":4784:4822   */\n      swap1\n      pop\n        /* \"#utility.yul\":4726:4828   */\n      swap2\n      swap1\n      pop\n      jump\t// out\n        /* \"#utility.yul\":4834:5014   */\n    tag_407:\n        /* \"#utility.yul\":4882:4959   */\n      0x4e487b7100000000000000000000000000000000000000000000000000000000\n        /* \"#utility.yul\":4879:4880   */\n      0x00\n        /* \"#utility.yul\":4872:4960   */\n      mstore\n        /* \"#utility.yul\":4979:4983   */\n      0x41\n        /* \"#utility.yul\":4976:4977   */\n      0x04\n        /* \"#utility.yul\":4969:4984   */\n      mstore\n        /* \"#utility.yul\":5003:5007   */\n      0x24\n        /* \"#utility.yul\":5000:5001   */\n      0x00\n        /* \"#utility.yul\":4993:5008   */\n      revert\n        /* \"#utility.yul\":5020:5301   */\n    tag_408:\n        /* \"#utility.yul\":5103:5130   */\n      tag_542\n        /* \"#utility.yul\":5125:5129   */\n      dup3\n        /* \"#utility.yul\":5103:5130   */\n      tag_406\n      jump\t// in\n    tag_542:\n        /* \"#utility.yul\":5095:5101   */\n      dup2\n        /* \"#utility.yul\":5091:5131   */\n      add\n        /* \"#utility.yul\":5233:5239   */\n      dup2\n        /* \"#utility.yul\":5221:5231   */\n      dup2\n        /* \"#utility.yul\":5218:5240   */\n      lt\n        /* \"#utility.yul\":5197:5215   */\n      0xffffffffffffffff\n        /* \"#utility.yul\":5185:5195   */\n      dup3\n        /* \"#utility.yul\":5182:5216   */\n      gt\n        /* \"#utility.yul\":5179:5241   */\n      or\n        /* \"#utility.yul\":5176:5264   */\n      iszero\n      tag_543\n      jumpi\n        /* \"#utility.yul\":5244:5262   */\n      tag_544\n      tag_407\n      jump\t// in\n    tag_544:\n        /* \"#utility.yul\":5176:5264   */\n    tag_543:\n        /* \"#utility.yul\":5284:5294   */\n      dup1\n        /* \"#utility.yul\":5280:5282   */\n      0x40\n        /* \"#utility.yul\":5273:5295   */\n      mstore\n        /* \"#utility.yul\":5063:5301   */\n      pop\n        /* \"#utility.yul\":5020:5301   */\n      pop\n      pop\n      jump\t// out\n        /* \"#utility.yul\":5307:5436   */\n    tag_409:\n        /* \"#utility.yul\":5341:5347   */\n      0x00\n        /* \"#utility.yul\":5368:5388   */\n      tag_546\n      tag_385\n      jump\t// in\n    tag_546:\n        /* \"#utility.yul\":5358:5388   */\n      swap1\n      pop\n        /* \"#utility.yul\":5397:5430   */\n      tag_547\n        /* \"#utility.yul\":5425:5429   */\n      dup3\n        /* \"#utility.yul\":5417:5423   */\n      dup3\n        /* \"#utility.yul\":5397:5430   */\n      tag_408\n      jump\t// in\n    tag_547:\n        /* \"#utility.yul\":5307:5436   */\n      swap2\n      swap1\n      pop\n      jump\t// out\n        /* \"#utility.yul\":5442:5750   */\n    tag_410:\n        /* \"#utility.yul\":5504:5508   */\n      0x00\n        /* \"#utility.yul\":5594:5612   */\n      0xffffffffffffffff\n        /* \"#utility.yul\":5586:5592   */\n      dup3\n        /* \"#utility.yul\":5583:5613   */\n      gt\n        /* \"#utility.yul\":5580:5636   */\n      iszero\n      tag_549\n      jumpi\n        /* \"#utility.yul\":5616:5634   */\n      tag_550\n      tag_407\n      jump\t// in\n    tag_550:\n        /* \"#utility.yul\":5580:5636   */\n    tag_549:\n        /* \"#utility.yul\":5654:5683   */\n      tag_551\n        /* \"#utility.yul\":5676:5682   */\n      dup3\n        /* \"#utility.yul\":5654:5683   */\n      tag_406\n      jump\t// in\n    tag_551:\n        /* \"#utility.yul\":5646:5683   */\n      swap1\n      pop\n        /* \"#utility.yul\":5738:5742   */\n      0x20\n        /* \"#utility.yul\":5732:5736   */\n      dup2\n        /* \"#utility.yul\":5728:5743   */\n      add\n        /* \"#utility.yul\":5720:5743   */\n      swap1\n      pop\n        /* \"#utility.yul\":5442:5750   */\n      swap2\n      swap1\n      pop\n      jump\t// out\n        /* \"#utility.yul\":5756:5902   */\n    tag_411:\n        /* \"#utility.yul\":5853:5859   */\n      dup3\n        /* \"#utility.yul\":5848:5851   */\n      dup2\n        /* \"#utility.yul\":5843:5846   */\n      dup4\n        /* \"#utility.yul\":5830:5860   */\n      calldatacopy\n        /* \"#utility.yul\":5894:5895   */\n      0x00\n        /* \"#utility.yul\":5885:5891   */\n      dup4\n        /* \"#utility.yul\":5880:5883   */\n      dup4\n        /* \"#utility.yul\":5876:5892   */\n      add\n        /* \"#utility.yul\":5869:5896   */\n      mstore\n        /* \"#utility.yul\":5756:5902   */\n      pop\n      pop\n      pop\n      jump\t// out\n        /* \"#utility.yul\":5908:6333   */\n    tag_412:\n        /* \"#utility.yul\":5986:5991   */\n      0x00\n        /* \"#utility.yul\":6011:6077   */\n      tag_554\n        /* \"#utility.yul\":6027:6076   */\n      tag_555\n        /* \"#utility.yul\":6069:6075   */\n      dup5\n        /* \"#utility.yul\":6027:6076   */\n      tag_410\n      jump\t// in\n    tag_555:\n        /* \"#utility.yul\":6011:6077   */\n      tag_409\n      jump\t// in\n    tag_554:\n        /* \"#utility.yul\":6002:6077   */\n      swap1\n      pop\n        /* \"#utility.yul\":6100:6106   */\n      dup3\n        /* \"#utility.yul\":6093:6098   */\n      dup2\n        /* \"#utility.yul\":6086:6107   */\n      mstore\n        /* \"#utility.yul\":6138:6142   */\n      0x20\n        /* \"#utility.yul\":6131:6136   */\n      dup2\n        /* \"#utility.yul\":6127:6143   */\n      add\n        /* \"#utility.yul\":6176:6179   */\n      dup5\n        /* \"#utility.yul\":6167:6173   */\n      dup5\n        /* \"#utility.yul\":6162:6165   */\n      dup5\n        /* \"#utility.yul\":6158:6174   */\n      add\n        /* \"#utility.yul\":6155:6180   */\n      gt\n        /* \"#utility.yul\":6152:6264   */\n      iszero\n      tag_556\n      jumpi\n        /* \"#utility.yul\":6183:6262   */\n      tag_557\n      tag_405\n      jump\t// in\n    tag_557:\n        /* \"#utility.yul\":6152:6264   */\n    tag_556:\n        /* \"#utility.yul\":6273:6327   */\n      tag_558\n        /* \"#utility.yul\":6320:6326   */\n      dup5\n        /* \"#utility.yul\":6315:6318   */\n      dup3\n        /* \"#utility.yul\":6310:6313   */\n      dup6\n        /* \"#utility.yul\":6273:6327   */\n      tag_411\n      jump\t// in\n    tag_558:\n        /* \"#utility.yul\":5992:6333   */\n      pop\n        /* \"#utility.yul\":5908:6333   */\n      swap4\n      swap3\n      pop\n      pop\n      pop\n      jump\t// out\n        /* \"#utility.yul\":6353:6693   */\n    tag_413:\n        /* \"#utility.yul\":6409:6414   */\n      0x00\n        /* \"#utility.yul\":6458:6461   */\n      dup3\n        /* \"#utility.yul\":6451:6455   */\n      0x1f\n        /* \"#utility.yul\":6443:6449   */\n      dup4\n        /* \"#utility.yul\":6439:6456   */\n      add\n        /* \"#utility.yul\":6435:6462   */\n      slt\n        /* \"#utility.yul\":6425:6547   */\n      tag_560\n      jumpi\n        /* \"#utility.yul\":6466:6545   */\n      tag_561\n      tag_404\n      jump\t// in\n    tag_561:\n        /* \"#utility.yul\":6425:6547   */\n    tag_560:\n        /* \"#utility.yul\":6583:6589   */\n      dup2\n        /* \"#utility.yul\":6570:6590   */\n      calldataload\n        /* \"#utility.yul\":6608:6687   */\n      tag_562\n        /* \"#utility.yul\":6683:6686   */\n      dup5\n        /* \"#utility.yul\":6675:6681   */\n      dup3\n        /* \"#utility.yul\":6668:6672   */\n      0x20\n        /* \"#utility.yul\":6660:6666   */\n      dup7\n        /* \"#utility.yul\":6656:6673   */\n      add\n        /* \"#utility.yul\":6608:6687   */\n      tag_412\n      jump\t// in\n    tag_562:\n        /* \"#utility.yul\":6599:6687   */\n      swap2\n      pop\n        /* \"#utility.yul\":6415:6693   */\n      pop\n        /* \"#utility.yul\":6353:6693   */\n      swap3\n      swap2\n      pop\n      pop\n      jump\t// out\n        /* \"#utility.yul\":6699:7208   */\n    tag_43:\n        /* \"#utility.yul\":6768:6774   */\n      0x00\n        /* \"#utility.yul\":6817:6819   */\n      0x20\n        /* \"#utility.yul\":6805:6814   */\n      dup3\n        /* \"#utility.yul\":6796:6803   */\n      dup5\n        /* \"#utility.yul\":6792:6815   */\n      sub\n        /* \"#utility.yul\":6788:6820   */\n      slt\n        /* \"#utility.yul\":6785:6904   */\n      iszero\n      tag_564\n      jumpi\n        /* \"#utility.yul\":6823:6902   */\n      tag_565\n      tag_386\n      jump\t// in\n    tag_565:\n        /* \"#utility.yul\":6785:6904   */\n    tag_564:\n        /* \"#utility.yul\":6971:6972   */\n      0x00\n        /* \"#utility.yul\":6960:6969   */\n      dup3\n        /* \"#utility.yul\":6956:6973   */\n      add\n        /* \"#utility.yul\":6943:6974   */\n      calldataload\n        /* \"#utility.yul\":7001:7019   */\n      0xffffffffffffffff\n        /* \"#utility.yul\":6993:6999   */\n      dup2\n        /* \"#utility.yul\":6990:7020   */\n      gt\n        /* \"#utility.yul\":6987:7104   */\n      iszero\n      tag_566\n      jumpi\n        /* \"#utility.yul\":7023:7102   */\n      tag_567\n      tag_387\n      jump\t// in\n    tag_567:\n        /* \"#utility.yul\":6987:7104   */\n    tag_566:\n        /* \"#utility.yul\":7128:7191   */\n      tag_568\n        /* \"#utility.yul\":7183:7190   */\n      dup5\n        /* \"#utility.yul\":7174:7180   */\n      dup3\n        /* \"#utility.yul\":7163:7172   */\n      dup6\n        /* \"#utility.yul\":7159:7181   */\n      add\n        /* \"#utility.yul\":7128:7191   */\n      tag_413\n      jump\t// in\n    tag_568:\n        /* \"#utility.yul\":7118:7191   */\n      swap2\n      pop\n        /* \"#utility.yul\":6914:7201   */\n      pop\n        /* \"#utility.yul\":6699:7208   */\n      swap3\n      swap2\n      pop\n      pop\n      jump\t// out\n        /* \"#utility.yul\":7214:7332   */\n    tag_414:\n        /* \"#utility.yul\":7301:7325   */\n      tag_570\n        /* \"#utility.yul\":7319:7324   */\n      dup2\n        /* \"#utility.yul\":7301:7325   */\n      tag_397\n      jump\t// in\n    tag_570:\n        /* \"#utility.yul\":7296:7299   */\n      dup3\n        /* \"#utility.yul\":7289:7326   */\n      mstore\n        /* \"#utility.yul\":7214:7332   */\n      pop\n      pop\n      jump\t// out\n        /* \"#utility.yul\":7338:7560   */\n    tag_46:\n        /* \"#utility.yul\":7431:7435   */\n      0x00\n        /* \"#utility.yul\":7469:7471   */\n      0x20\n        /* \"#utility.yul\":7458:7467   */\n      dup3\n        /* \"#utility.yul\":7454:7472   */\n      add\n        /* \"#utility.yul\":7446:7472   */\n      swap1\n      pop\n        /* \"#utility.yul\":7482:7553   */\n      tag_572\n        /* \"#utility.yul\":7550:7551   */\n      0x00\n        /* \"#utility.yul\":7539:7548   */\n      dup4\n        /* \"#utility.yul\":7535:7552   */\n      add\n        /* \"#utility.yul\":7526:7532   */\n      dup5\n        /* \"#utility.yul\":7482:7553   */\n      tag_414\n      jump\t// in\n    tag_572:\n        /* \"#utility.yul\":7338:7560   */\n      swap3\n      swap2\n      pop\n      pop\n      jump\t// out\n        /* \"#utility.yul\":7566:8040   */\n    tag_55:\n        /* \"#utility.yul\":7634:7640   */\n      0x00\n        /* \"#utility.yul\":7642:7648   */\n      dup1\n        /* \"#utility.yul\":7691:7693   */\n      0x40\n        /* \"#utility.yul\":7679:7688   */\n      dup4\n        /* \"#utility.yul\":7670:7677   */\n      dup6\n        /* \"#utility.yul\":7666:7689   */\n      sub\n        /* \"#utility.yul\":7662:7694   */\n      slt\n        /* \"#utility.yul\":7659:7778   */\n      iszero\n      tag_574\n      jumpi\n        /* \"#utility.yul\":7697:7776   */\n      tag_575\n      tag_386\n      jump\t// in\n    tag_575:\n        /* \"#utility.yul\":7659:7778   */\n    tag_574:\n        /* \"#utility.yul\":7817:7818   */\n      0x00\n        /* \"#utility.yul\":7842:7895   */\n      tag_576\n        /* \"#utility.yul\":7887:7894   */\n      dup6\n        /* \"#utility.yul\":7878:7884   */\n      dup3\n        /* \"#utility.yul\":7867:7876   */\n      dup7\n        /* \"#utility.yul\":7863:7885   */\n      add\n        /* \"#utility.yul\":7842:7895   */\n      tag_399\n      jump\t// in\n    tag_576:\n        /* \"#utility.yul\":7832:7895   */\n      swap3\n      pop\n        /* \"#utility.yul\":7788:7905   */\n      pop\n        /* \"#utility.yul\":7944:7946   */\n      0x20\n        /* \"#utility.yul\":7970:8023   */\n      tag_577\n        /* \"#utility.yul\":8015:8022   */\n      dup6\n        /* \"#utility.yul\":8006:8012   */\n      dup3\n        /* \"#utility.yul\":7995:8004   */\n      dup7\n        /* \"#utility.yul\":7991:8013   */\n      add\n        /* \"#utility.yul\":7970:8023   */\n      tag_399\n      jump\t// in\n    tag_577:\n        /* \"#utility.yul\":7960:8023   */\n      swap2\n      pop\n        /* \"#utility.yul\":7915:8033   */\n      pop\n        /* \"#utility.yul\":7566:8040   */\n      swap3\n      pop\n      swap3\n      swap1\n      pop\n      jump\t// out\n        /* \"#utility.yul\":8046:8357   */\n    tag_415:\n        /* \"#utility.yul\":8123:8127   */\n      0x00\n        /* \"#utility.yul\":8213:8231   */\n      0xffffffffffffffff\n        /* \"#utility.yul\":8205:8211   */\n      dup3\n        /* \"#utility.yul\":8202:8232   */\n      gt\n        /* \"#utility.yul\":8199:8255   */\n      iszero\n      tag_579\n      jumpi\n        /* \"#utility.yul\":8235:8253   */\n      tag_580\n      tag_407\n      jump\t// in\n    tag_580:\n        /* \"#utility.yul\":8199:8255   */\n    tag_579:\n        /* \"#utility.yul\":8285:8289   */\n      0x20\n        /* \"#utility.yul\":8277:8283   */\n      dup3\n        /* \"#utility.yul\":8273:8290   */\n      mul\n        /* \"#utility.yul\":8265:8290   */\n      swap1\n      pop\n        /* \"#utility.yul\":8345:8349   */\n      0x20\n        /* \"#utility.yul\":8339:8343   */\n      dup2\n        /* \"#utility.yul\":8335:8350   */\n      add\n        /* \"#utility.yul\":8327:8350   */\n      swap1\n      pop\n        /* \"#utility.yul\":8046:8357   */\n      swap2\n      swap1\n      pop\n      jump\t// out\n        /* \"#utility.yul\":8363:8480   */\n    tag_416:\n        /* \"#utility.yul\":8472:8473   */\n      0x00\n        /* \"#utility.yul\":8469:8470   */\n      dup1\n        /* \"#utility.yul\":8462:8474   */\n      revert\n        /* \"#utility.yul\":8503:9213   */\n    tag_417:\n        /* \"#utility.yul\":8599:8604   */\n      0x00\n        /* \"#utility.yul\":8624:8705   */\n      tag_583\n        /* \"#utility.yul\":8640:8704   */\n      tag_584\n        /* \"#utility.yul\":8697:8703   */\n      dup5\n        /* \"#utility.yul\":8640:8704   */\n      tag_415\n      jump\t// in\n    tag_584:\n        /* \"#utility.yul\":8624:8705   */\n      tag_409\n      jump\t// in\n    tag_583:\n        /* \"#utility.yul\":8615:8705   */\n      swap1\n      pop\n        /* \"#utility.yul\":8725:8730   */\n      dup1\n        /* \"#utility.yul\":8754:8760   */\n      dup4\n        /* \"#utility.yul\":8747:8752   */\n      dup3\n        /* \"#utility.yul\":8740:8761   */\n      mstore\n        /* \"#utility.yul\":8788:8792   */\n      0x20\n        /* \"#utility.yul\":8781:8786   */\n      dup3\n        /* \"#utility.yul\":8777:8793   */\n      add\n        /* \"#utility.yul\":8770:8793   */\n      swap1\n      pop\n        /* \"#utility.yul\":8841:8845   */\n      0x20\n        /* \"#utility.yul\":8833:8839   */\n      dup5\n        /* \"#utility.yul\":8829:8846   */\n      mul\n        /* \"#utility.yul\":8821:8827   */\n      dup4\n        /* \"#utility.yul\":8817:8847   */\n      add\n        /* \"#utility.yul\":8870:8873   */\n      dup6\n        /* \"#utility.yul\":8862:8868   */\n      dup2\n        /* \"#utility.yul\":8859:8874   */\n      gt\n        /* \"#utility.yul\":8856:8978   */\n      iszero\n      tag_585\n      jumpi\n        /* \"#utility.yul\":8889:8968   */\n      tag_586\n      tag_416\n      jump\t// in\n    tag_586:\n        /* \"#utility.yul\":8856:8978   */\n    tag_585:\n        /* \"#utility.yul\":9004:9010   */\n      dup4\n        /* \"#utility.yul\":8987:9207   */\n    tag_587:\n        /* \"#utility.yul\":9021:9027   */\n      dup2\n        /* \"#utility.yul\":9016:9019   */\n      dup2\n        /* \"#utility.yul\":9013:9028   */\n      lt\n        /* \"#utility.yul\":8987:9207   */\n      iszero\n      tag_589\n      jumpi\n        /* \"#utility.yul\":9096:9099   */\n      dup1\n        /* \"#utility.yul\":9125:9162   */\n      tag_590\n        /* \"#utility.yul\":9158:9161   */\n      dup9\n        /* \"#utility.yul\":9146:9156   */\n      dup3\n        /* \"#utility.yul\":9125:9162   */\n      tag_391\n      jump\t// in\n    tag_590:\n        /* \"#utility.yul\":9120:9123   */\n      dup5\n        /* \"#utility.yul\":9113:9163   */\n      mstore\n        /* \"#utility.yul\":9192:9196   */\n      0x20\n        /* \"#utility.yul\":9187:9190   */\n      dup5\n        /* \"#utility.yul\":9183:9197   */\n      add\n        /* \"#utility.yul\":9176:9197   */\n      swap4\n      pop\n        /* \"#utility.yul\":9063:9207   */\n      pop\n        /* \"#utility.yul\":9047:9051   */\n      0x20\n        /* \"#utility.yul\":9042:9045   */\n      dup2\n        /* \"#utility.yul\":9038:9052   */\n      add\n        /* \"#utility.yul\":9031:9052   */\n      swap1\n      pop\n        /* \"#utility.yul\":8987:9207   */\n      jump(tag_587)\n    tag_589:\n        /* \"#utility.yul\":8991:9012   */\n      pop\n        /* \"#utility.yul\":8605:9213   */\n      pop\n      pop\n        /* \"#utility.yul\":8503:9213   */\n      swap4\n      swap3\n      pop\n      pop\n      pop\n      jump\t// out\n        /* \"#utility.yul\":9236:9606   */\n    tag_418:\n        /* \"#utility.yul\":9307:9312   */\n      0x00\n        /* \"#utility.yul\":9356:9359   */\n      dup3\n        /* \"#utility.yul\":9349:9353   */\n      0x1f\n        /* \"#utility.yul\":9341:9347   */\n      dup4\n        /* \"#utility.yul\":9337:9354   */\n      add\n        /* \"#utility.yul\":9333:9360   */\n      slt\n        /* \"#utility.yul\":9323:9445   */\n      tag_592\n      jumpi\n        /* \"#utility.yul\":9364:9443   */\n      tag_593\n      tag_404\n      jump\t// in\n    tag_593:\n        /* \"#utility.yul\":9323:9445   */\n    tag_592:\n        /* \"#utility.yul\":9481:9487   */\n      dup2\n        /* \"#utility.yul\":9468:9488   */\n      calldataload\n        /* \"#utility.yul\":9506:9600   */\n      tag_594\n        /* \"#utility.yul\":9596:9599   */\n      dup5\n        /* \"#utility.yul\":9588:9594   */\n      dup3\n        /* \"#utility.yul\":9581:9585   */\n      0x20\n        /* \"#utility.yul\":9573:9579   */\n      dup7\n        /* \"#utility.yul\":9569:9586   */\n      add\n        /* \"#utility.yul\":9506:9600   */\n      tag_417\n      jump\t// in\n    tag_594:\n        /* \"#utility.yul\":9497:9600   */\n      swap2\n      pop\n        /* \"#utility.yul\":9313:9606   */\n      pop\n        /* \"#utility.yul\":9236:9606   */\n      swap3\n      swap2\n      pop\n      pop\n      jump\t// out\n        /* \"#utility.yul\":9612:10296   */\n    tag_62:\n        /* \"#utility.yul\":9705:9711   */\n      0x00\n        /* \"#utility.yul\":9713:9719   */\n      dup1\n        /* \"#utility.yul\":9762:9764   */\n      0x40\n        /* \"#utility.yul\":9750:9759   */\n      dup4\n        /* \"#utility.yul\":9741:9748   */\n      dup6\n        /* \"#utility.yul\":9737:9760   */\n      sub\n        /* \"#utility.yul\":9733:9765   */\n      slt\n        /* \"#utility.yul\":9730:9849   */\n      iszero\n      tag_596\n      jumpi\n        /* \"#utility.yul\":9768:9847   */\n      tag_597\n      tag_386\n      jump\t// in\n    tag_597:\n        /* \"#utility.yul\":9730:9849   */\n    tag_596:\n        /* \"#utility.yul\":9916:9917   */\n      0x00\n        /* \"#utility.yul\":9905:9914   */\n      dup4\n        /* \"#utility.yul\":9901:9918   */\n      add\n        /* \"#utility.yul\":9888:9919   */\n      calldataload\n        /* \"#utility.yul\":9946:9964   */\n      0xffffffffffffffff\n        /* \"#utility.yul\":9938:9944   */\n      dup2\n        /* \"#utility.yul\":9935:9965   */\n      gt\n        /* \"#utility.yul\":9932:10049   */\n      iszero\n      tag_598\n      jumpi\n        /* \"#utility.yul\":9968:10047   */\n      tag_599\n      tag_387\n      jump\t// in\n    tag_599:\n        /* \"#utility.yul\":9932:10049   */\n    tag_598:\n        /* \"#utility.yul\":10073:10151   */\n      tag_600\n        /* \"#utility.yul\":10143:10150   */\n      dup6\n        /* \"#utility.yul\":10134:10140   */\n      dup3\n        /* \"#utility.yul\":10123:10132   */\n      dup7\n        /* \"#utility.yul\":10119:10141   */\n      add\n        /* \"#utility.yul\":10073:10151   */\n      tag_418\n      jump\t// in\n    tag_600:\n        /* \"#utility.yul\":10063:10151   */\n      swap3\n      pop\n        /* \"#utility.yul\":9859:10161   */\n      pop\n        /* \"#utility.yul\":10200:10202   */\n      0x20\n        /* \"#utility.yul\":10226:10279   */\n      tag_601\n        /* \"#utility.yul\":10271:10278   */\n      dup6\n        /* \"#utility.yul\":10262:10268   */\n      dup3\n        /* \"#utility.yul\":10251:10260   */\n      dup7\n        /* \"#utility.yul\":10247:10269   */\n      add\n        /* \"#utility.yul\":10226:10279   */\n      tag_391\n      jump\t// in\n    tag_601:\n        /* \"#utility.yul\":10216:10279   */\n      swap2\n      pop\n        /* \"#utility.yul\":10171:10289   */\n      pop\n        /* \"#utility.yul\":9612:10296   */\n      swap3\n      pop\n      swap3\n      swap1\n      pop\n      jump\t// out\n        /* \"#utility.yul\":10302:10471   */\n    tag_419:\n        /* \"#utility.yul\":10386:10397   */\n      0x00\n        /* \"#utility.yul\":10420:10426   */\n      dup3\n        /* \"#utility.yul\":10415:10418   */\n      dup3\n        /* \"#utility.yul\":10408:10427   */\n      mstore\n        /* \"#utility.yul\":10460:10464   */\n      0x20\n        /* \"#utility.yul\":10455:10458   */\n      dup3\n        /* \"#utility.yul\":10451:10465   */\n      add\n        /* \"#utility.yul\":10436:10465   */\n      swap1\n      pop\n        /* \"#utility.yul\":10302:10471   */\n      swap3\n      swap2\n      pop\n      pop\n      jump\t// out\n        /* \"#utility.yul\":10477:10722   */\n    tag_420:\n        /* \"#utility.yul\":10617:10651   */\n      0x4f6e6c79207061727479206d656d626572732063616e20696e697469616c6c79\n        /* \"#utility.yul\":10613:10614   */\n      0x00\n        /* \"#utility.yul\":10605:10611   */\n      dup3\n        /* \"#utility.yul\":10601:10615   */\n      add\n        /* \"#utility.yul\":10594:10652   */\n      mstore\n        /* \"#utility.yul\":10686:10714   */\n      0x20737570706f7274206120726567756c6172206d6f74696f6e2e000000000000\n        /* \"#utility.yul\":10681:10683   */\n      0x20\n        /* \"#utility.yul\":10673:10679   */\n      dup3\n        /* \"#utility.yul\":10669:10684   */\n      add\n        /* \"#utility.yul\":10662:10715   */\n      mstore\n        /* \"#utility.yul\":10477:10722   */\n      pop\n      jump\t// out\n        /* \"#utility.yul\":10728:11094   */\n    tag_421:\n        /* \"#utility.yul\":10870:10873   */\n      0x00\n        /* \"#utility.yul\":10891:10958   */\n      tag_605\n        /* \"#utility.yul\":10955:10957   */\n      0x3a\n        /* \"#utility.yul\":10950:10953   */\n      dup4\n        /* \"#utility.yul\":10891:10958   */\n      tag_419\n      jump\t// in\n    tag_605:\n        /* \"#utility.yul\":10884:10958   */\n      swap2\n      pop\n        /* \"#utility.yul\":10967:11060   */\n      tag_606\n        /* \"#utility.yul\":11056:11059   */\n      dup3\n        /* \"#utility.yul\":10967:11060   */\n      tag_420\n      jump\t// in\n    tag_606:\n        /* \"#utility.yul\":11085:11087   */\n      0x40\n        /* \"#utility.yul\":11080:11083   */\n      dup3\n        /* \"#utility.yul\":11076:11088   */\n      add\n        /* \"#utility.yul\":11069:11088   */\n      swap1\n      pop\n        /* \"#utility.yul\":10728:11094   */\n      swap2\n      swap1\n      pop\n      jump\t// out\n        /* \"#utility.yul\":11100:11519   */\n    tag_73:\n        /* \"#utility.yul\":11266:11270   */\n      0x00\n        /* \"#utility.yul\":11304:11306   */\n      0x20\n        /* \"#utility.yul\":11293:11302   */\n      dup3\n        /* \"#utility.yul\":11289:11307   */\n      add\n        /* \"#utility.yul\":11281:11307   */\n      swap1\n      pop\n        /* \"#utility.yul\":11353:11362   */\n      dup2\n        /* \"#utility.yul\":11347:11351   */\n      dup2\n        /* \"#utility.yul\":11343:11363   */\n      sub\n        /* \"#utility.yul\":11339:11340   */\n      0x00\n        /* \"#utility.yul\":11328:11337   */\n      dup4\n        /* \"#utility.yul\":11324:11341   */\n      add\n        /* \"#utility.yul\":11317:11364   */\n      mstore\n        /* \"#utility.yul\":11381:11512   */\n      tag_608\n        /* \"#utility.yul\":11507:11511   */\n      dup2\n        /* \"#utility.yul\":11381:11512   */\n      tag_421\n      jump\t// in\n    tag_608:\n        /* \"#utility.yul\":11373:11512   */\n      swap1\n      pop\n        /* \"#utility.yul\":11100:11519   */\n      swap2\n      swap1\n      pop\n      jump\t// out\n        /* \"#utility.yul\":11525:11705   */\n    tag_77:\n        /* \"#utility.yul\":11573:11650   */\n      0x4e487b7100000000000000000000000000000000000000000000000000000000\n        /* \"#utility.yul\":11570:11571   */\n      0x00\n        /* \"#utility.yul\":11563:11651   */\n      mstore\n        /* \"#utility.yul\":11670:11674   */\n      0x32\n        /* \"#utility.yul\":11667:11668   */\n      0x04\n        /* \"#utility.yul\":11660:11675   */\n      mstore\n        /* \"#utility.yul\":11694:11698   */\n      0x24\n        /* \"#utility.yul\":11691:11692   */\n      0x00\n        /* \"#utility.yul\":11684:11699   */\n      revert\n        /* \"#utility.yul\":11711:11956   */\n    tag_422:\n        /* \"#utility.yul\":11851:11885   */\n      0x41206d656d6265722063616e206f6e6c79206f6e636520737570706f72742061\n        /* \"#utility.yul\":11847:11848   */\n      0x00\n        /* \"#utility.yul\":11839:11845   */\n      dup3\n        /* \"#utility.yul\":11835:11849   */\n      add\n        /* \"#utility.yul\":11828:11886   */\n      mstore\n        /* \"#utility.yul\":11920:11948   */\n      0x20726567756c6172206d6f74696f6e20696e697469616c6c792e000000000000\n        /* \"#utility.yul\":11915:11917   */\n      0x20\n        /* \"#utility.yul\":11907:11913   */\n      dup3\n        /* \"#utility.yul\":11903:11918   */\n      add\n        /* \"#utility.yul\":11896:11949   */\n      mstore\n        /* \"#utility.yul\":11711:11956   */\n      pop\n      jump\t// out\n        /* \"#utility.yul\":11962:12328   */\n    tag_423:\n        /* \"#utility.yul\":12104:12107   */\n      0x00\n        /* \"#utility.yul\":12125:12192   */\n      tag_612\n        /* \"#utility.yul\":12189:12191   */\n      0x3a\n        /* \"#utility.yul\":12184:12187   */\n      dup4\n        /* \"#utility.yul\":12125:12192   */\n      tag_419\n      jump\t// in\n    tag_612:\n        /* \"#utility.yul\":12118:12192   */\n      swap2\n      pop\n        /* \"#utility.yul\":12201:12294   */\n      tag_613\n        /* \"#utility.yul\":12290:12293   */\n      dup3\n        /* \"#utility.yul\":12201:12294   */\n      tag_422\n      jump\t// in\n    tag_613:\n        /* \"#utility.yul\":12319:12321   */\n      0x40\n        /* \"#utility.yul\":12314:12317   */\n      dup3\n        /* \"#utility.yul\":12310:12322   */\n      add\n        /* \"#utility.yul\":12303:12322   */\n      swap1\n      pop\n        /* \"#utility.yul\":11962:12328   */\n      swap2\n      swap1\n      pop\n      jump\t// out\n        /* \"#utility.yul\":12334:12753   */\n    tag_83:\n        /* \"#utility.yul\":12500:12504   */\n      0x00\n        /* \"#utility.yul\":12538:12540   */\n      0x20\n        /* \"#utility.yul\":12527:12536   */\n      dup3\n        /* \"#utility.yul\":12523:12541   */\n      add\n        /* \"#utility.yul\":12515:12541   */\n      swap1\n      pop\n        /* \"#utility.yul\":12587:12596   */\n      dup2\n        /* \"#utility.yul\":12581:12585   */\n      dup2\n        /* \"#utility.yul\":12577:12597   */\n      sub\n        /* \"#utility.yul\":12573:12574   */\n      0x00\n        /* \"#utility.yul\":12562:12571   */\n      dup4\n        /* \"#utility.yul\":12558:12575   */\n      add\n        /* \"#utility.yul\":12551:12598   */\n      mstore\n        /* \"#utility.yul\":12615:12746   */\n      tag_615\n        /* \"#utility.yul\":12741:12745   */\n      dup2\n        /* \"#utility.yul\":12615:12746   */\n      tag_423\n      jump\t// in\n    tag_615:\n        /* \"#utility.yul\":12607:12746   */\n      swap1\n      pop\n        /* \"#utility.yul\":12334:12753   */\n      swap2\n      swap1\n      pop\n      jump\t// out\n        /* \"#utility.yul\":12759:12939   */\n    tag_424:\n        /* \"#utility.yul\":12807:12884   */\n      0x4e487b7100000000000000000000000000000000000000000000000000000000\n        /* \"#utility.yul\":12804:12805   */\n      0x00\n        /* \"#utility.yul\":12797:12885   */\n      mstore\n        /* \"#utility.yul\":12904:12908   */\n      0x11\n        /* \"#utility.yul\":12901:12902   */\n      0x04\n        /* \"#utility.yul\":12894:12909   */\n      mstore\n        /* \"#utility.yul\":12928:12932   */\n      0x24\n        /* \"#utility.yul\":12925:12926   */\n      0x00\n        /* \"#utility.yul\":12918:12933   */\n      revert\n        /* \"#utility.yul\":12945:13178   */\n    tag_114:\n        /* \"#utility.yul\":12984:12987   */\n      0x00\n        /* \"#utility.yul\":13007:13031   */\n      tag_618\n        /* \"#utility.yul\":13025:13030   */\n      dup3\n        /* \"#utility.yul\":13007:13031   */\n      tag_397\n      jump\t// in\n    tag_618:\n        /* \"#utility.yul\":12998:13031   */\n      swap2\n      pop\n        /* \"#utility.yul\":13053:13119   */\n      0xffffffffffffffffffffffffffffffffffffffffffffffffffffffffffffffff\n        /* \"#utility.yul\":13046:13051   */\n      dup3\n        /* \"#utility.yul\":13043:13120   */\n      sub\n        /* \"#utility.yul\":13040:13143   */\n      tag_619\n      jumpi\n        /* \"#utility.yul\":13123:13141   */\n      tag_620\n      tag_424\n      jump\t// in\n    tag_620:\n        /* \"#utility.yul\":13040:13143   */\n    tag_619:\n        /* \"#utility.yul\":13170:13171   */\n      0x01\n        /* \"#utility.yul\":13163:13168   */\n      dup3\n        /* \"#utility.yul\":13159:13172   */\n      add\n        /* \"#utility.yul\":13152:13172   */\n      swap1\n      pop\n        /* \"#utility.yul\":12945:13178   */\n      swap2\n      swap1\n      pop\n      jump\t// out\n        /* \"#utility.yul\":13184:13419   */\n    tag_425:\n        /* \"#utility.yul\":13324:13358   */\n      0x4f6e6c792061646d696e732063616e20616464206e657720636f6e76656e7469\n        /* \"#utility.yul\":13320:13321   */\n      0x00\n        /* \"#utility.yul\":13312:13318   */\n      dup3\n        /* \"#utility.yul\":13308:13322   */\n      add\n        /* \"#utility.yul\":13301:13359   */\n      mstore\n        /* \"#utility.yul\":13393:13411   */\n      0x6f6e207061727469636970616e74732e00000000000000000000000000000000\n        /* \"#utility.yul\":13388:13390   */\n      0x20\n        /* \"#utility.yul\":13380:13386   */\n      dup3\n        /* \"#utility.yul\":13376:13391   */\n      add\n        /* \"#utility.yul\":13369:13412   */\n      mstore\n        /* \"#utility.yul\":13184:13419   */\n      pop\n      jump\t// out\n        /* \"#utility.yul\":13425:13791   */\n    tag_426:\n        /* \"#utility.yul\":13567:13570   */\n      0x00\n        /* \"#utility.yul\":13588:13655   */\n      tag_623\n        /* \"#utility.yul\":13652:13654   */\n      0x30\n        /* \"#utility.yul\":13647:13650   */\n      dup4\n        /* \"#utility.yul\":13588:13655   */\n      tag_419\n      jump\t// in\n    tag_623:\n        /* \"#utility.yul\":13581:13655   */\n      swap2\n      pop\n        /* \"#utility.yul\":13664:13757   */\n      tag_624\n        /* \"#utility.yul\":13753:13756   */\n      dup3\n        /* \"#utility.yul\":13664:13757   */\n      tag_425\n      jump\t// in\n    tag_624:\n        /* \"#utility.yul\":13782:13784   */\n      0x40\n        /* \"#utility.yul\":13777:13780   */\n      dup3\n        /* \"#utility.yul\":13773:13785   */\n      add\n        /* \"#utility.yul\":13766:13785   */\n      swap1\n      pop\n        /* \"#utility.yul\":13425:13791   */\n      swap2\n      swap1\n      pop\n      jump\t// out\n        /* \"#utility.yul\":13797:14216   */\n    tag_125:\n        /* \"#utility.yul\":13963:13967   */\n      0x00\n        /* \"#utility.yul\":14001:14003   */\n      0x20\n        /* \"#utility.yul\":13990:13999   */\n      dup3\n        /* \"#utility.yul\":13986:14004   */\n      add\n        /* \"#utility.yul\":13978:14004   */\n      swap1\n      pop\n        /* \"#utility.yul\":14050:14059   */\n      dup2\n        /* \"#utility.yul\":14044:14048   */\n      dup2\n        /* \"#utility.yul\":14040:14060   */\n      sub\n        /* \"#utility.yul\":14036:14037   */\n      0x00\n        /* \"#utility.yul\":14025:14034   */\n      dup4\n        /* \"#utility.yul\":14021:14038   */\n      add\n        /* \"#utility.yul\":14014:14061   */\n      mstore\n        /* \"#utility.yul\":14078:14209   */\n      tag_626\n        /* \"#utility.yul\":14204:14208   */\n      dup2\n        /* \"#utility.yul\":14078:14209   */\n      tag_426\n      jump\t// in\n    tag_626:\n        /* \"#utility.yul\":14070:14209   */\n      swap1\n      pop\n        /* \"#utility.yul\":13797:14216   */\n      swap2\n      swap1\n      pop\n      jump\t// out\n        /* \"#utility.yul\":14222:14467   */\n    tag_427:\n        /* \"#utility.yul\":14362:14396   */\n      0x546865205061727469636970616e742077617320616c72656164792061646465\n        /* \"#utility.yul\":14358:14359   */\n      0x00\n        /* \"#utility.yul\":14350:14356   */\n      dup3\n        /* \"#utility.yul\":14346:14360   */\n      add\n        /* \"#utility.yul\":14339:14397   */\n      mstore\n        /* \"#utility.yul\":14431:14459   */\n      0x6420616e6420686f6c647320766f74696e67207269676874732e000000000000\n        /* \"#utility.yul\":14426:14428   */\n      0x20\n        /* \"#utility.yul\":14418:14424   */\n      dup3\n        /* \"#utility.yul\":14414:14429   */\n      add\n        /* \"#utility.yul\":14407:14460   */\n      mstore\n        /* \"#utility.yul\":14222:14467   */\n      pop\n      jump\t// out\n        /* \"#utility.yul\":14473:14839   */\n    tag_428:\n        /* \"#utility.yul\":14615:14618   */\n      0x00\n        /* \"#utility.yul\":14636:14703   */\n      tag_629\n        /* \"#utility.yul\":14700:14702   */\n      0x3a\n        /* \"#utility.yul\":14695:14698   */\n      dup4\n        /* \"#utility.yul\":14636:14703   */\n      tag_419\n      jump\t// in\n    tag_629:\n        /* \"#utility.yul\":14629:14703   */\n      swap2\n      pop\n        /* \"#utility.yul\":14712:14805   */\n      tag_630\n        /* \"#utility.yul\":14801:14804   */\n      dup3\n        /* \"#utility.yul\":14712:14805   */\n      tag_427\n      jump\t// in\n    tag_630:\n        /* \"#utility.yul\":14830:14832   */\n      0x40\n        /* \"#utility.yul\":14825:14828   */\n      dup3\n        /* \"#utility.yul\":14821:14833   */\n      add\n        /* \"#utility.yul\":14814:14833   */\n      swap1\n      pop\n        /* \"#utility.yul\":14473:14839   */\n      swap2\n      swap1\n      pop\n      jump\t// out\n        /* \"#utility.yul\":14845:15264   */\n    tag_129:\n        /* \"#utility.yul\":15011:15015   */\n      0x00\n        /* \"#utility.yul\":15049:15051   */\n      0x20\n        /* \"#utility.yul\":15038:15047   */\n      dup3\n        /* \"#utility.yul\":15034:15052   */\n      add\n        /* \"#utility.yul\":15026:15052   */\n      swap1\n      pop\n        /* \"#utility.yul\":15098:15107   */\n      dup2\n        /* \"#utility.yul\":15092:15096   */\n      dup2\n        /* \"#utility.yul\":15088:15108   */\n      sub\n        /* \"#utility.yul\":15084:15085   */\n      0x00\n        /* \"#utility.yul\":15073:15082   */\n      dup4\n        /* \"#utility.yul\":15069:15086   */\n      add\n        /* \"#utility.yul\":15062:15109   */\n      mstore\n        /* \"#utility.yul\":15126:15257   */\n      tag_632\n        /* \"#utility.yul\":15252:15256   */\n      dup2\n        /* \"#utility.yul\":15126:15257   */\n      tag_428\n      jump\t// in\n    tag_632:\n        /* \"#utility.yul\":15118:15257   */\n      swap1\n      pop\n        /* \"#utility.yul\":14845:15264   */\n      swap2\n      swap1\n      pop\n      jump\t// out\n        /* \"#utility.yul\":15270:15511   */\n    tag_429:\n        /* \"#utility.yul\":15410:15444   */\n      0x43616e206e6f7420616464206e6577207061727469636970616e747320776869\n        /* \"#utility.yul\":15406:15407   */\n      0x00\n        /* \"#utility.yul\":15398:15404   */\n      dup3\n        /* \"#utility.yul\":15394:15408   */\n      add\n        /* \"#utility.yul\":15387:15445   */\n      mstore\n        /* \"#utility.yul\":15479:15503   */\n      0x6c6520766f74696e6720697320676f696e67206f6e2e00000000000000000000\n        /* \"#utility.yul\":15474:15476   */\n      0x20\n        /* \"#utility.yul\":15466:15472   */\n      dup3\n        /* \"#utility.yul\":15462:15477   */\n      add\n        /* \"#utility.yul\":15455:15504   */\n      mstore\n        /* \"#utility.yul\":15270:15511   */\n      pop\n      jump\t// out\n        /* \"#utility.yul\":15517:15883   */\n    tag_430:\n        /* \"#utility.yul\":15659:15662   */\n      0x00\n        /* \"#utility.yul\":15680:15747   */\n      tag_635\n        /* \"#utility.yul\":15744:15746   */\n      0x36\n        /* \"#utility.yul\":15739:15742   */\n      dup4\n        /* \"#utility.yul\":15680:15747   */\n      tag_419\n      jump\t// in\n    tag_635:\n        /* \"#utility.yul\":15673:15747   */\n      swap2\n      pop\n        /* \"#utility.yul\":15756:15849   */\n      tag_636\n        /* \"#utility.yul\":15845:15848   */\n      dup3\n        /* \"#utility.yul\":15756:15849   */\n      tag_429\n      jump\t// in\n    tag_636:\n        /* \"#utility.yul\":15874:15876   */\n      0x40\n        /* \"#utility.yul\":15869:15872   */\n      dup3\n        /* \"#utility.yul\":15865:15877   */\n      add\n        /* \"#utility.yul\":15858:15877   */\n      swap1\n      pop\n        /* \"#utility.yul\":15517:15883   */\n      swap2\n      swap1\n      pop\n      jump\t// out\n        /* \"#utility.yul\":15889:16308   */\n    tag_134:\n        /* \"#utility.yul\":16055:16059   */\n      0x00\n        /* \"#utility.yul\":16093:16095   */\n      0x20\n        /* \"#utility.yul\":16082:16091   */\n      dup3\n        /* \"#utility.yul\":16078:16096   */\n      add\n        /* \"#utility.yul\":16070:16096   */\n      swap1\n      pop\n        /* \"#utility.yul\":16142:16151   */\n      dup2\n        /* \"#utility.yul\":16136:16140   */\n      dup2\n        /* \"#utility.yul\":16132:16152   */\n      sub\n        /* \"#utility.yul\":16128:16129   */\n      0x00\n        /* \"#utility.yul\":16117:16126   */\n      dup4\n        /* \"#utility.yul\":16113:16130   */\n      add\n        /* \"#utility.yul\":16106:16153   */\n      mstore\n        /* \"#utility.yul\":16170:16301   */\n      tag_638\n        /* \"#utility.yul\":16296:16300   */\n      dup2\n        /* \"#utility.yul\":16170:16301   */\n      tag_430\n      jump\t// in\n    tag_638:\n        /* \"#utility.yul\":16162:16301   */\n      swap1\n      pop\n        /* \"#utility.yul\":15889:16308   */\n      swap2\n      swap1\n      pop\n      jump\t// out\n        /* \"#utility.yul\":16314:16494   */\n    tag_431:\n        /* \"#utility.yul\":16454:16486   */\n      0x4f6e6c792061646d696e732063616e20636c6f7365206d6f74696f6e732e0000\n        /* \"#utility.yul\":16450:16451   */\n      0x00\n        /* \"#utility.yul\":16442:16448   */\n      dup3\n        /* \"#utility.yul\":16438:16452   */\n      add\n        /* \"#utility.yul\":16431:16487   */\n      mstore\n        /* \"#utility.yul\":16314:16494   */\n      pop\n      jump\t// out\n        /* \"#utility.yul\":16500:16866   */\n    tag_432:\n        /* \"#utility.yul\":16642:16645   */\n      0x00\n        /* \"#utility.yul\":16663:16730   */\n      tag_641\n        /* \"#utility.yul\":16727:16729   */\n      0x1e\n        /* \"#utility.yul\":16722:16725   */\n      dup4\n        /* \"#utility.yul\":16663:16730   */\n      tag_419\n      jump\t// in\n    tag_641:\n        /* \"#utility.yul\":16656:16730   */\n      swap2\n      pop\n        /* \"#utility.yul\":16739:16832   */\n      tag_642\n        /* \"#utility.yul\":16828:16831   */\n      dup3\n        /* \"#utility.yul\":16739:16832   */\n      tag_431\n      jump\t// in\n    tag_642:\n        /* \"#utility.yul\":16857:16859   */\n      0x20\n        /* \"#utility.yul\":16852:16855   */\n      dup3\n        /* \"#utility.yul\":16848:16860   */\n      add\n        /* \"#utility.yul\":16841:16860   */\n      swap1\n      pop\n        /* \"#utility.yul\":16500:16866   */\n      swap2\n      swap1\n      pop\n      jump\t// out\n        /* \"#utility.yul\":16872:17291   */\n    tag_162:\n        /* \"#utility.yul\":17038:17042   */\n      0x00\n        /* \"#utility.yul\":17076:17078   */\n      0x20\n        /* \"#utility.yul\":17065:17074   */\n      dup3\n        /* \"#utility.yul\":17061:17079   */\n      add\n        /* \"#utility.yul\":17053:17079   */\n      swap1\n      pop\n        /* \"#utility.yul\":17125:17134   */\n      dup2\n        /* \"#utility.yul\":17119:17123   */\n      dup2\n        /* \"#utility.yul\":17115:17135   */\n      sub\n        /* \"#utility.yul\":17111:17112   */\n      0x00\n        /* \"#utility.yul\":17100:17109   */\n      dup4\n        /* \"#utility.yul\":17096:17113   */\n      add\n        /* \"#utility.yul\":17089:17136   */\n      mstore\n        /* \"#utility.yul\":17153:17284   */\n      tag_644\n        /* \"#utility.yul\":17279:17283   */\n      dup2\n        /* \"#utility.yul\":17153:17284   */\n      tag_432\n      jump\t// in\n    tag_644:\n        /* \"#utility.yul\":17145:17284   */\n      swap1\n      pop\n        /* \"#utility.yul\":16872:17291   */\n      swap2\n      swap1\n      pop\n      jump\t// out\n        /* \"#utility.yul\":17297:17479   */\n    tag_433:\n        /* \"#utility.yul\":17437:17471   */\n      0x4f6e6c79206f70656e206d6f74696f6e732063616e20626520636c6f7365642e\n        /* \"#utility.yul\":17433:17434   */\n      0x00\n        /* \"#utility.yul\":17425:17431   */\n      dup3\n        /* \"#utility.yul\":17421:17435   */\n      add\n        /* \"#utility.yul\":17414:17472   */\n      mstore\n        /* \"#utility.yul\":17297:17479   */\n      pop\n      jump\t// out\n        /* \"#utility.yul\":17485:17851   */\n    tag_434:\n        /* \"#utility.yul\":17627:17630   */\n      0x00\n        /* \"#utility.yul\":17648:17715   */\n      tag_647\n        /* \"#utility.yul\":17712:17714   */\n      0x20\n        /* \"#utility.yul\":17707:17710   */\n      dup4\n        /* \"#utility.yul\":17648:17715   */\n      tag_419\n      jump\t// in\n    tag_647:\n        /* \"#utility.yul\":17641:17715   */\n      swap2\n      pop\n        /* \"#utility.yul\":17724:17817   */\n      tag_648\n        /* \"#utility.yul\":17813:17816   */\n      dup3\n        /* \"#utility.yul\":17724:17817   */\n      tag_433\n      jump\t// in\n    tag_648:\n        /* \"#utility.yul\":17842:17844   */\n      0x20\n        /* \"#utility.yul\":17837:17840   */\n      dup3\n        /* \"#utility.yul\":17833:17845   */\n      add\n        /* \"#utility.yul\":17826:17845   */\n      swap1\n      pop\n        /* \"#utility.yul\":17485:17851   */\n      swap2\n      swap1\n      pop\n      jump\t// out\n        /* \"#utility.yul\":17857:18276   */\n    tag_172:\n        /* \"#utility.yul\":18023:18027   */\n      0x00\n        /* \"#utility.yul\":18061:18063   */\n      0x20\n        /* \"#utility.yul\":18050:18059   */\n      dup3\n        /* \"#utility.yul\":18046:18064   */\n      add\n        /* \"#utility.yul\":18038:18064   */\n      swap1\n      pop\n        /* \"#utility.yul\":18110:18119   */\n      dup2\n        /* \"#utility.yul\":18104:18108   */\n      dup2\n        /* \"#utility.yul\":18100:18120   */\n      sub\n        /* \"#utility.yul\":18096:18097   */\n      0x00\n        /* \"#utility.yul\":18085:18094   */\n      dup4\n        /* \"#utility.yul\":18081:18098   */\n      add\n        /* \"#utility.yul\":18074:18121   */\n      mstore\n        /* \"#utility.yul\":18138:18269   */\n      tag_650\n        /* \"#utility.yul\":18264:18268   */\n      dup2\n        /* \"#utility.yul\":18138:18269   */\n      tag_434\n      jump\t// in\n    tag_650:\n        /* \"#utility.yul\":18130:18269   */\n      swap1\n      pop\n        /* \"#utility.yul\":17857:18276   */\n      swap2\n      swap1\n      pop\n      jump\t// out\n        /* \"#utility.yul\":18282:18524   */\n    tag_435:\n        /* \"#utility.yul\":18422:18456   */\n      0x4f6e6c7920287265706c6163656d656e742964656c6567617465732063616e20\n        /* \"#utility.yul\":18418:18419   */\n      0x00\n        /* \"#utility.yul\":18410:18416   */\n      dup3\n        /* \"#utility.yul\":18406:18420   */\n      add\n        /* \"#utility.yul\":18399:18457   */\n      mstore\n        /* \"#utility.yul\":18491:18516   */\n      0x7472616e7366657220766f74696e67207269676874732e000000000000000000\n        /* \"#utility.yul\":18486:18488   */\n      0x20\n        /* \"#utility.yul\":18478:18484   */\n      dup3\n        /* \"#utility.yul\":18474:18489   */\n      add\n        /* \"#utility.yul\":18467:18517   */\n      mstore\n        /* \"#utility.yul\":18282:18524   */\n      pop\n      jump\t// out\n        /* \"#utility.yul\":18530:18896   */\n    tag_436:\n        /* \"#utility.yul\":18672:18675   */\n      0x00\n        /* \"#utility.yul\":18693:18760   */\n      tag_653\n        /* \"#utility.yul\":18757:18759   */\n      0x37\n        /* \"#utility.yul\":18752:18755   */\n      dup4\n        /* \"#utility.yul\":18693:18760   */\n      tag_419\n      jump\t// in\n    tag_653:\n        /* \"#utility.yul\":18686:18760   */\n      swap2\n      pop\n        /* \"#utility.yul\":18769:18862   */\n      tag_654\n        /* \"#utility.yul\":18858:18861   */\n      dup3\n        /* \"#utility.yul\":18769:18862   */\n      tag_435\n      jump\t// in\n    tag_654:\n        /* \"#utility.yul\":18887:18889   */\n      0x40\n        /* \"#utility.yul\":18882:18885   */\n      dup3\n        /* \"#utility.yul\":18878:18890   */\n      add\n        /* \"#utility.yul\":18871:18890   */\n      swap1\n      pop\n        /* \"#utility.yul\":18530:18896   */\n      swap2\n      swap1\n      pop\n      jump\t// out\n        /* \"#utility.yul\":18902:19321   */\n    tag_185:\n        /* \"#utility.yul\":19068:19072   */\n      0x00\n        /* \"#utility.yul\":19106:19108   */\n      0x20\n        /* \"#utility.yul\":19095:19104   */\n      dup3\n        /* \"#utility.yul\":19091:19109   */\n      add\n        /* \"#utility.yul\":19083:19109   */\n      swap1\n      pop\n        /* \"#utility.yul\":19155:19164   */\n      dup2\n        /* \"#utility.yul\":19149:19153   */\n      dup2\n        /* \"#utility.yul\":19145:19165   */\n      sub\n        /* \"#utility.yul\":19141:19142   */\n      0x00\n        /* \"#utility.yul\":19130:19139   */\n      dup4\n        /* \"#utility.yul\":19126:19143   */\n      add\n        /* \"#utility.yul\":19119:19166   */\n      mstore\n        /* \"#utility.yul\":19183:19314   */\n      tag_656\n        /* \"#utility.yul\":19309:19313   */\n      dup2\n        /* \"#utility.yul\":19183:19314   */\n      tag_436\n      jump\t// in\n    tag_656:\n        /* \"#utility.yul\":19175:19314   */\n      swap1\n      pop\n        /* \"#utility.yul\":18902:19321   */\n      swap2\n      swap1\n      pop\n      jump\t// out\n        /* \"#utility.yul\":19327:19568   */\n    tag_437:\n        /* \"#utility.yul\":19467:19501   */\n      0x4f6e6c7920287265706c6163656d656e742964656c6567617465732063616e20\n        /* \"#utility.yul\":19463:19464   */\n      0x00\n        /* \"#utility.yul\":19455:19461   */\n      dup3\n        /* \"#utility.yul\":19451:19465   */\n      add\n        /* \"#utility.yul\":19444:19502   */\n      mstore\n        /* \"#utility.yul\":19536:19560   */\n      0x7265636569766520766f74696e67207269676874732e00000000000000000000\n        /* \"#utility.yul\":19531:19533   */\n      0x20\n        /* \"#utility.yul\":19523:19529   */\n      dup3\n        /* \"#utility.yul\":19519:19534   */\n      add\n        /* \"#utility.yul\":19512:19561   */\n      mstore\n        /* \"#utility.yul\":19327:19568   */\n      pop\n      jump\t// out\n        /* \"#utility.yul\":19574:19940   */\n    tag_438:\n        /* \"#utility.yul\":19716:19719   */\n      0x00\n        /* \"#utility.yul\":19737:19804   */\n      tag_659\n        /* \"#utility.yul\":19801:19803   */\n      0x36\n        /* \"#utility.yul\":19796:19799   */\n      dup4\n        /* \"#utility.yul\":19737:19804   */\n      tag_419\n      jump\t// in\n    tag_659:\n        /* \"#utility.yul\":19730:19804   */\n      swap2\n      pop\n        /* \"#utility.yul\":19813:19906   */\n      tag_660\n        /* \"#utility.yul\":19902:19905   */\n      dup3\n        /* \"#utility.yul\":19813:19906   */\n      tag_437\n      jump\t// in\n    tag_660:\n        /* \"#utility.yul\":19931:19933   */\n      0x40\n        /* \"#utility.yul\":19926:19929   */\n      dup3\n        /* \"#utility.yul\":19922:19934   */\n      add\n        /* \"#utility.yul\":19915:19934   */\n      swap1\n      pop\n        /* \"#utility.yul\":19574:19940   */\n      swap2\n      swap1\n      pop\n      jump\t// out\n        /* \"#utility.yul\":19946:20365   */\n    tag_192:\n        /* \"#utility.yul\":20112:20116   */\n      0x00\n        /* \"#utility.yul\":20150:20152   */\n      0x20\n        /* \"#utility.yul\":20139:20148   */\n      dup3\n        /* \"#utility.yul\":20135:20153   */\n      add\n        /* \"#utility.yul\":20127:20153   */\n      swap1\n      pop\n        /* \"#utility.yul\":20199:20208   */\n      dup2\n        /* \"#utility.yul\":20193:20197   */\n      dup2\n        /* \"#utility.yul\":20189:20209   */\n      sub\n        /* \"#utility.yul\":20185:20186   */\n      0x00\n        /* \"#utility.yul\":20174:20183   */\n      dup4\n        /* \"#utility.yul\":20170:20187   */\n      add\n        /* \"#utility.yul\":20163:20210   */\n      mstore\n        /* \"#utility.yul\":20227:20358   */\n      tag_662\n        /* \"#utility.yul\":20353:20357   */\n      dup2\n        /* \"#utility.yul\":20227:20358   */\n      tag_438\n      jump\t// in\n    tag_662:\n        /* \"#utility.yul\":20219:20358   */\n      swap1\n      pop\n        /* \"#utility.yul\":19946:20365   */\n      swap2\n      swap1\n      pop\n      jump\t// out\n        /* \"#utility.yul\":20371:20606   */\n    tag_439:\n        /* \"#utility.yul\":20511:20545   */\n      0x4d6573736167652073656e64657220646f6573206e6f7420686f6c6420616e79\n        /* \"#utility.yul\":20507:20508   */\n      0x00\n        /* \"#utility.yul\":20499:20505   */\n      dup3\n        /* \"#utility.yul\":20495:20509   */\n      add\n        /* \"#utility.yul\":20488:20546   */\n      mstore\n        /* \"#utility.yul\":20580:20598   */\n      0x20766f74696e6720726967687420312e00000000000000000000000000000000\n        /* \"#utility.yul\":20575:20577   */\n      0x20\n        /* \"#utility.yul\":20567:20573   */\n      dup3\n        /* \"#utility.yul\":20563:20578   */\n      add\n        /* \"#utility.yul\":20556:20599   */\n      mstore\n        /* \"#utility.yul\":20371:20606   */\n      pop\n      jump\t// out\n        /* \"#utility.yul\":20612:20978   */\n    tag_440:\n        /* \"#utility.yul\":20754:20757   */\n      0x00\n        /* \"#utility.yul\":20775:20842   */\n      tag_665\n        /* \"#utility.yul\":20839:20841   */\n      0x30\n        /* \"#utility.yul\":20834:20837   */\n      dup4\n        /* \"#utility.yul\":20775:20842   */\n      tag_419\n      jump\t// in\n    tag_665:\n        /* \"#utility.yul\":20768:20842   */\n      swap2\n      pop\n        /* \"#utility.yul\":20851:20944   */\n      tag_666\n        /* \"#utility.yul\":20940:20943   */\n      dup3\n        /* \"#utility.yul\":20851:20944   */\n      tag_439\n      jump\t// in\n    tag_666:\n        /* \"#utility.yul\":20969:20971   */\n      0x40\n        /* \"#utility.yul\":20964:20967   */\n      dup3\n        /* \"#utility.yul\":20960:20972   */\n      add\n        /* \"#utility.yul\":20953:20972   */\n      swap1\n      pop\n        /* \"#utility.yul\":20612:20978   */\n      swap2\n      swap1\n      pop\n      jump\t// out\n        /* \"#utility.yul\":20984:21403   */\n    tag_195:\n        /* \"#utility.yul\":21150:21154   */\n      0x00\n        /* \"#utility.yul\":21188:21190   */\n      0x20\n        /* \"#utility.yul\":21177:21186   */\n      dup3\n        /* \"#utility.yul\":21173:21191   */\n      add\n        /* \"#utility.yul\":21165:21191   */\n      swap1\n      pop\n        /* \"#utility.yul\":21237:21246   */\n      dup2\n        /* \"#utility.yul\":21231:21235   */\n      dup2\n        /* \"#utility.yul\":21227:21247   */\n      sub\n        /* \"#utility.yul\":21223:21224   */\n      0x00\n        /* \"#utility.yul\":21212:21221   */\n      dup4\n        /* \"#utility.yul\":21208:21225   */\n      add\n        /* \"#utility.yul\":21201:21248   */\n      mstore\n        /* \"#utility.yul\":21265:21396   */\n      tag_668\n        /* \"#utility.yul\":21391:21395   */\n      dup2\n        /* \"#utility.yul\":21265:21396   */\n      tag_440\n      jump\t// in\n    tag_668:\n        /* \"#utility.yul\":21257:21396   */\n      swap1\n      pop\n        /* \"#utility.yul\":20984:21403   */\n      swap2\n      swap1\n      pop\n      jump\t// out\n        /* \"#utility.yul\":21409:21699   */\n    tag_441:\n        /* \"#utility.yul\":21549:21583   */\n      0x526563656976696e6720287265706c6163656d656e742964656c656761746520\n        /* \"#utility.yul\":21545:21546   */\n      0x00\n        /* \"#utility.yul\":21537:21543   */\n      dup3\n        /* \"#utility.yul\":21533:21547   */\n      add\n        /* \"#utility.yul\":21526:21584   */\n      mstore\n        /* \"#utility.yul\":21618:21652   */\n      0x68617320616c726561647920322061637469766520766f74696e672072696768\n        /* \"#utility.yul\":21613:21615   */\n      0x20\n        /* \"#utility.yul\":21605:21611   */\n      dup3\n        /* \"#utility.yul\":21601:21616   */\n      add\n        /* \"#utility.yul\":21594:21653   */\n      mstore\n        /* \"#utility.yul\":21687:21691   */\n      0x7473000000000000000000000000000000000000000000000000000000000000\n        /* \"#utility.yul\":21682:21684   */\n      0x40\n        /* \"#utility.yul\":21674:21680   */\n      dup3\n        /* \"#utility.yul\":21670:21685   */\n      add\n        /* \"#utility.yul\":21663:21692   */\n      mstore\n        /* \"#utility.yul\":21409:21699   */\n      pop\n      jump\t// out\n        /* \"#utility.yul\":21705:22071   */\n    tag_442:\n        /* \"#utility.yul\":21847:21850   */\n      0x00\n        /* \"#utility.yul\":21868:21935   */\n      tag_671\n        /* \"#utility.yul\":21932:21934   */\n      0x42\n        /* \"#utility.yul\":21927:21930   */\n      dup4\n        /* \"#utility.yul\":21868:21935   */\n      tag_419\n      jump\t// in\n    tag_671:\n        /* \"#utility.yul\":21861:21935   */\n      swap2\n      pop\n        /* \"#utility.yul\":21944:22037   */\n      tag_672\n        /* \"#utility.yul\":22033:22036   */\n      dup3\n        /* \"#utility.yul\":21944:22037   */\n      tag_441\n      jump\t// in\n    tag_672:\n        /* \"#utility.yul\":22062:22064   */\n      0x60\n        /* \"#utility.yul\":22057:22060   */\n      dup3\n        /* \"#utility.yul\":22053:22065   */\n      add\n        /* \"#utility.yul\":22046:22065   */\n      swap1\n      pop\n        /* \"#utility.yul\":21705:22071   */\n      swap2\n      swap1\n      pop\n      jump\t// out\n        /* \"#utility.yul\":22077:22496   */\n    tag_199:\n        /* \"#utility.yul\":22243:22247   */\n      0x00\n        /* \"#utility.yul\":22281:22283   */\n      0x20\n        /* \"#utility.yul\":22270:22279   */\n      dup3\n        /* \"#utility.yul\":22266:22284   */\n      add\n        /* \"#utility.yul\":22258:22284   */\n      swap1\n      pop\n        /* \"#utility.yul\":22330:22339   */\n      dup2\n        /* \"#utility.yul\":22324:22328   */\n      dup2\n        /* \"#utility.yul\":22320:22340   */\n      sub\n        /* \"#utility.yul\":22316:22317   */\n      0x00\n        /* \"#utility.yul\":22305:22314   */\n      dup4\n        /* \"#utility.yul\":22301:22318   */\n      add\n        /* \"#utility.yul\":22294:22341   */\n      mstore\n        /* \"#utility.yul\":22358:22489   */\n      tag_674\n        /* \"#utility.yul\":22484:22488   */\n      dup2\n        /* \"#utility.yul\":22358:22489   */\n      tag_442\n      jump\t// in\n    tag_674:\n        /* \"#utility.yul\":22350:22489   */\n      swap1\n      pop\n        /* \"#utility.yul\":22077:22496   */\n      swap2\n      swap1\n      pop\n      jump\t// out\n        /* \"#utility.yul\":22502:22740   */\n    tag_443:\n        /* \"#utility.yul\":22642:22676   */\n      0x43616e206e6f74207472616e7366657220766f74657320647572696e67206f70\n        /* \"#utility.yul\":22638:22639   */\n      0x00\n        /* \"#utility.yul\":22630:22636   */\n      dup3\n        /* \"#utility.yul\":22626:22640   */\n      add\n        /* \"#utility.yul\":22619:22677   */\n      mstore\n        /* \"#utility.yul\":22711:22732   */\n      0x656e20766f74696e672070726f63657373657300000000000000000000000000\n        /* \"#utility.yul\":22706:22708   */\n      0x20\n        /* \"#utility.yul\":22698:22704   */\n      dup3\n        /* \"#utility.yul\":22694:22709   */\n      add\n        /* \"#utility.yul\":22687:22733   */\n      mstore\n        /* \"#utility.yul\":22502:22740   */\n      pop\n      jump\t// out\n        /* \"#utility.yul\":22746:23112   */\n    tag_444:\n        /* \"#utility.yul\":22888:22891   */\n      0x00\n        /* \"#utility.yul\":22909:22976   */\n      tag_677\n        /* \"#utility.yul\":22973:22975   */\n      0x33\n        /* \"#utility.yul\":22968:22971   */\n      dup4\n        /* \"#utility.yul\":22909:22976   */\n      tag_419\n      jump\t// in\n    tag_677:\n        /* \"#utility.yul\":22902:22976   */\n      swap2\n      pop\n        /* \"#utility.yul\":22985:23078   */\n      tag_678\n        /* \"#utility.yul\":23074:23077   */\n      dup3\n        /* \"#utility.yul\":22985:23078   */\n      tag_443\n      jump\t// in\n    tag_678:\n        /* \"#utility.yul\":23103:23105   */\n      0x40\n        /* \"#utility.yul\":23098:23101   */\n      dup3\n        /* \"#utility.yul\":23094:23106   */\n      add\n        /* \"#utility.yul\":23087:23106   */\n      swap1\n      pop\n        /* \"#utility.yul\":22746:23112   */\n      swap2\n      swap1\n      pop\n      jump\t// out\n        /* \"#utility.yul\":23118:23537   */\n    tag_203:\n        /* \"#utility.yul\":23284:23288   */\n      0x00\n        /* \"#utility.yul\":23322:23324   */\n      0x20\n        /* \"#utility.yul\":23311:23320   */\n      dup3\n        /* \"#utility.yul\":23307:23325   */\n      add\n        /* \"#utility.yul\":23299:23325   */\n      swap1\n      pop\n        /* \"#utility.yul\":23371:23380   */\n      dup2\n        /* \"#utility.yul\":23365:23369   */\n      dup2\n        /* \"#utility.yul\":23361:23381   */\n      sub\n        /* \"#utility.yul\":23357:23358   */\n      0x00\n        /* \"#utility.yul\":23346:23355   */\n      dup4\n        /* \"#utility.yul\":23342:23359   */\n      add\n        /* \"#utility.yul\":23335:23382   */\n      mstore\n        /* \"#utility.yul\":23399:23530   */\n      tag_680\n        /* \"#utility.yul\":23525:23529   */\n      dup2\n        /* \"#utility.yul\":23399:23530   */\n      tag_444\n      jump\t// in\n    tag_680:\n        /* \"#utility.yul\":23391:23530   */\n      swap1\n      pop\n        /* \"#utility.yul\":23118:23537   */\n      swap2\n      swap1\n      pop\n      jump\t// out\n        /* \"#utility.yul\":23543:23777   */\n    tag_445:\n        /* \"#utility.yul\":23683:23717   */\n      0x4f6e6c79207061727479206d656d626572732063616e20637265617465206120\n        /* \"#utility.yul\":23679:23680   */\n      0x00\n        /* \"#utility.yul\":23671:23677   */\n      dup3\n        /* \"#utility.yul\":23667:23681   */\n      add\n        /* \"#utility.yul\":23660:23718   */\n      mstore\n        /* \"#utility.yul\":23752:23769   */\n      0x726567756c6172206d6f74696f6e2e0000000000000000000000000000000000\n        /* \"#utility.yul\":23747:23749   */\n      0x20\n        /* \"#utility.yul\":23739:23745   */\n      dup3\n        /* \"#utility.yul\":23735:23750   */\n      add\n        /* \"#utility.yul\":23728:23770   */\n      mstore\n        /* \"#utility.yul\":23543:23777   */\n      pop\n      jump\t// out\n        /* \"#utility.yul\":23783:24149   */\n    tag_446:\n        /* \"#utility.yul\":23925:23928   */\n      0x00\n        /* \"#utility.yul\":23946:24013   */\n      tag_683\n        /* \"#utility.yul\":24010:24012   */\n      0x2f\n        /* \"#utility.yul\":24005:24008   */\n      dup4\n        /* \"#utility.yul\":23946:24013   */\n      tag_419\n      jump\t// in\n    tag_683:\n        /* \"#utility.yul\":23939:24013   */\n      swap2\n      pop\n        /* \"#utility.yul\":24022:24115   */\n      tag_684\n        /* \"#utility.yul\":24111:24114   */\n      dup3\n        /* \"#utility.yul\":24022:24115   */\n      tag_445\n      jump\t// in\n    tag_684:\n        /* \"#utility.yul\":24140:24142   */\n      0x40\n        /* \"#utility.yul\":24135:24138   */\n      dup3\n        /* \"#utility.yul\":24131:24143   */\n      add\n        /* \"#utility.yul\":24124:24143   */\n      swap1\n      pop\n        /* \"#utility.yul\":23783:24149   */\n      swap2\n      swap1\n      pop\n      jump\t// out\n        /* \"#utility.yul\":24155:24574   */\n    tag_213:\n        /* \"#utility.yul\":24321:24325   */\n      0x00\n        /* \"#utility.yul\":24359:24361   */\n      0x20\n        /* \"#utility.yul\":24348:24357   */\n      dup3\n        /* \"#utility.yul\":24344:24362   */\n      add\n        /* \"#utility.yul\":24336:24362   */\n      swap1\n      pop\n        /* \"#utility.yul\":24408:24417   */\n      dup2\n        /* \"#utility.yul\":24402:24406   */\n      dup2\n        /* \"#utility.yul\":24398:24418   */\n      sub\n        /* \"#utility.yul\":24394:24395   */\n      0x00\n        /* \"#utility.yul\":24383:24392   */\n      dup4\n        /* \"#utility.yul\":24379:24396   */\n      add\n        /* \"#utility.yul\":24372:24419   */\n      mstore\n        /* \"#utility.yul\":24436:24567   */\n      tag_686\n        /* \"#utility.yul\":24562:24566   */\n      dup2\n        /* \"#utility.yul\":24436:24567   */\n      tag_446\n      jump\t// in\n    tag_686:\n        /* \"#utility.yul\":24428:24567   */\n      swap1\n      pop\n        /* \"#utility.yul\":24155:24574   */\n      swap2\n      swap1\n      pop\n      jump\t// out\n        /* \"#utility.yul\":24580:24819   */\n    tag_447:\n        /* \"#utility.yul\":24720:24754   */\n      0x43616e206e6f7420637265617465206e6577206d6f74696f6e73207768696c65\n        /* \"#utility.yul\":24716:24717   */\n      0x00\n        /* \"#utility.yul\":24708:24714   */\n      dup3\n        /* \"#utility.yul\":24704:24718   */\n      add\n        /* \"#utility.yul\":24697:24755   */\n      mstore\n        /* \"#utility.yul\":24789:24811   */\n      0x20766f74696e6720697320676f696e67206f6e2e000000000000000000000000\n        /* \"#utility.yul\":24784:24786   */\n      0x20\n        /* \"#utility.yul\":24776:24782   */\n      dup3\n        /* \"#utility.yul\":24772:24787   */\n      add\n        /* \"#utility.yul\":24765:24812   */\n      mstore\n        /* \"#utility.yul\":24580:24819   */\n      pop\n      jump\t// out\n        /* \"#utility.yul\":24825:25191   */\n    tag_448:\n        /* \"#utility.yul\":24967:24970   */\n      0x00\n        /* \"#utility.yul\":24988:25055   */\n      tag_689\n        /* \"#utility.yul\":25052:25054   */\n      0x34\n        /* \"#utility.yul\":25047:25050   */\n      dup4\n        /* \"#utility.yul\":24988:25055   */\n      tag_419\n      jump\t// in\n    tag_689:\n        /* \"#utility.yul\":24981:25055   */\n      swap2\n      pop\n        /* \"#utility.yul\":25064:25157   */\n      tag_690\n        /* \"#utility.yul\":25153:25156   */\n      dup3\n        /* \"#utility.yul\":25064:25157   */\n      tag_447\n      jump\t// in\n    tag_690:\n        /* \"#utility.yul\":25182:25184   */\n      0x40\n        /* \"#utility.yul\":25177:25180   */\n      dup3\n        /* \"#utility.yul\":25173:25185   */\n      add\n        /* \"#utility.yul\":25166:25185   */\n      swap1\n      pop\n        /* \"#utility.yul\":24825:25191   */\n      swap2\n      swap1\n      pop\n      jump\t// out\n        /* \"#utility.yul\":25197:25616   */\n    tag_217:\n        /* \"#utility.yul\":25363:25367   */\n      0x00\n        /* \"#utility.yul\":25401:25403   */\n      0x20\n        /* \"#utility.yul\":25390:25399   */\n      dup3\n        /* \"#utility.yul\":25386:25404   */\n      add\n        /* \"#utility.yul\":25378:25404   */\n      swap1\n      pop\n        /* \"#utility.yul\":25450:25459   */\n      dup2\n        /* \"#utility.yul\":25444:25448   */\n      dup2\n        /* \"#utility.yul\":25440:25460   */\n      sub\n        /* \"#utility.yul\":25436:25437   */\n      0x00\n        /* \"#utility.yul\":25425:25434   */\n      dup4\n        /* \"#utility.yul\":25421:25438   */\n      add\n        /* \"#utility.yul\":25414:25461   */\n      mstore\n        /* \"#utility.yul\":25478:25609   */\n      tag_692\n        /* \"#utility.yul\":25604:25608   */\n      dup2\n        /* \"#utility.yul\":25478:25609   */\n      tag_448\n      jump\t// in\n    tag_692:\n        /* \"#utility.yul\":25470:25609   */\n      swap1\n      pop\n        /* \"#utility.yul\":25197:25616   */\n      swap2\n      swap1\n      pop\n      jump\t// out\n        /* \"#utility.yul\":25622:25721   */\n    tag_449:\n        /* \"#utility.yul\":25674:25680   */\n      0x00\n        /* \"#utility.yul\":25708:25713   */\n      dup2\n        /* \"#utility.yul\":25702:25714   */\n      mload\n        /* \"#utility.yul\":25692:25714   */\n      swap1\n      pop\n        /* \"#utility.yul\":25622:25721   */\n      swap2\n      swap1\n      pop\n      jump\t// out\n        /* \"#utility.yul\":25727:25907   */\n    tag_450:\n        /* \"#utility.yul\":25775:25852   */\n      0x4e487b7100000000000000000000000000000000000000000000000000000000\n        /* \"#utility.yul\":25772:25773   */\n      0x00\n        /* \"#utility.yul\":25765:25853   */\n      mstore\n        /* \"#utility.yul\":25872:25876   */\n      0x22\n        /* \"#utility.yul\":25869:25870   */\n      0x04\n        /* \"#utility.yul\":25862:25877   */\n      mstore\n        /* \"#utility.yul\":25896:25900   */\n      0x24\n        /* \"#utility.yul\":25893:25894   */\n      0x00\n        /* \"#utility.yul\":25886:25901   */\n      revert\n        /* \"#utility.yul\":25913:26233   */\n    tag_451:\n        /* \"#utility.yul\":25957:25963   */\n      0x00\n        /* \"#utility.yul\":25994:25995   */\n      0x02\n        /* \"#utility.yul\":25988:25992   */\n      dup3\n        /* \"#utility.yul\":25984:25996   */\n      div\n        /* \"#utility.yul\":25974:25996   */\n      swap1\n      pop\n        /* \"#utility.yul\":26041:26042   */\n      0x01\n        /* \"#utility.yul\":26035:26039   */\n      dup3\n        /* \"#utility.yul\":26031:26043   */\n      and\n        /* \"#utility.yul\":26062:26080   */\n      dup1\n        /* \"#utility.yul\":26052:26133   */\n      tag_696\n      jumpi\n        /* \"#utility.yul\":26118:26122   */\n      0x7f\n        /* \"#utility.yul\":26110:26116   */\n      dup3\n        /* \"#utility.yul\":26106:26123   */\n      and\n        /* \"#utility.yul\":26096:26123   */\n      swap2\n      pop\n        /* \"#utility.yul\":26052:26133   */\n    tag_696:\n        /* \"#utility.yul\":26180:26182   */\n      0x20\n        /* \"#utility.yul\":26172:26178   */\n      dup3\n        /* \"#utility.yul\":26169:26183   */\n      lt\n        /* \"#utility.yul\":26149:26167   */\n      dup2\n        /* \"#utility.yul\":26146:26184   */\n      sub\n        /* \"#utility.yul\":26143:26227   */\n      tag_697\n      jumpi\n        /* \"#utility.yul\":26199:26217   */\n      tag_698\n      tag_450\n      jump\t// in\n    tag_698:\n        /* \"#utility.yul\":26143:26227   */\n    tag_697:\n        /* \"#utility.yul\":25964:26233   */\n      pop\n        /* \"#utility.yul\":25913:26233   */\n      swap2\n      swap1\n      pop\n      jump\t// out\n        /* \"#utility.yul\":26239:26380   */\n    tag_452:\n        /* \"#utility.yul\":26288:26292   */\n      0x00\n        /* \"#utility.yul\":26311:26314   */\n      dup2\n        /* \"#utility.yul\":26303:26314   */\n      swap1\n      pop\n        /* \"#utility.yul\":26334:26337   */\n      dup2\n        /* \"#utility.yul\":26331:26332   */\n      0x00\n        /* \"#utility.yul\":26324:26338   */\n      mstore\n        /* \"#utility.yul\":26368:26372   */\n      0x20\n        /* \"#utility.yul\":26365:26366   */\n      0x00\n        /* \"#utility.yul\":26355:26373   */\n      keccak256\n        /* \"#utility.yul\":26347:26373   */\n      swap1\n      pop\n        /* \"#utility.yul\":26239:26380   */\n      swap2\n      swap1\n      pop\n      jump\t// out\n        /* \"#utility.yul\":26386:26479   */\n    tag_453:\n        /* \"#utility.yul\":26423:26429   */\n      0x00\n        /* \"#utility.yul\":26470:26472   */\n      0x20\n        /* \"#utility.yul\":26465:26467   */\n      0x1f\n        /* \"#utility.yul\":26458:26463   */\n      dup4\n        /* \"#utility.yul\":26454:26468   */\n      add\n        /* \"#utility.yul\":26450:26473   */\n      div\n        /* \"#utility.yul\":26440:26473   */\n      swap1\n      pop\n        /* \"#utility.yul\":26386:26479   */\n      swap2\n      swap1\n      pop\n      jump\t// out\n        /* \"#utility.yul\":26485:26592   */\n    tag_454:\n        /* \"#utility.yul\":26529:26537   */\n      0x00\n        /* \"#utility.yul\":26579:26584   */\n      dup3\n        /* \"#utility.yul\":26573:26577   */\n      dup3\n        /* \"#utility.yul\":26569:26585   */\n      shl\n        /* \"#utility.yul\":26548:26585   */\n      swap1\n      pop\n        /* \"#utility.yul\":26485:26592   */\n      swap3\n      swap2\n      pop\n      pop\n      jump\t// out\n        /* \"#utility.yul\":26598:26991   */\n    tag_455:\n        /* \"#utility.yul\":26667:26673   */\n      0x00\n        /* \"#utility.yul\":26717:26718   */\n      0x08\n        /* \"#utility.yul\":26705:26715   */\n      dup4\n        /* \"#utility.yul\":26701:26719   */\n      mul\n        /* \"#utility.yul\":26740:26837   */\n      tag_703\n        /* \"#utility.yul\":26770:26836   */\n      0xffffffffffffffffffffffffffffffffffffffffffffffffffffffffffffffff\n        /* \"#utility.yul\":26759:26768   */\n      dup3\n        /* \"#utility.yul\":26740:26837   */\n      tag_454\n      jump\t// in\n    tag_703:\n        /* \"#utility.yul\":26858:26897   */\n      tag_704\n        /* \"#utility.yul\":26888:26896   */\n      dup7\n        /* \"#utility.yul\":26877:26886   */\n      dup4\n        /* \"#utility.yul\":26858:26897   */\n      tag_454\n      jump\t// in\n    tag_704:\n        /* \"#utility.yul\":26846:26897   */\n      swap6\n      pop\n        /* \"#utility.yul\":26930:26934   */\n      dup1\n        /* \"#utility.yul\":26926:26935   */\n      not\n        /* \"#utility.yul\":26919:26924   */\n      dup5\n        /* \"#utility.yul\":26915:26936   */\n      and\n        /* \"#utility.yul\":26906:26936   */\n      swap4\n      pop\n        /* \"#utility.yul\":26979:26983   */\n      dup1\n        /* \"#utility.yul\":26969:26977   */\n      dup7\n        /* \"#utility.yul\":26965:26984   */\n      and\n        /* \"#utility.yul\":26958:26963   */\n      dup5\n        /* \"#utility.yul\":26955:26985   */\n      or\n        /* \"#utility.yul\":26945:26985   */\n      swap3\n      pop\n        /* \"#utility.yul\":26674:26991   */\n      pop\n      pop\n        /* \"#utility.yul\":26598:26991   */\n      swap4\n      swap3\n      pop\n      pop\n      pop\n      jump\t// out\n        /* \"#utility.yul\":26997:27057   */\n    tag_456:\n        /* \"#utility.yul\":27025:27028   */\n      0x00\n        /* \"#utility.yul\":27046:27051   */\n      dup2\n        /* \"#utility.yul\":27039:27051   */\n      swap1\n      pop\n        /* \"#utility.yul\":26997:27057   */\n      swap2\n      swap1\n      pop\n      jump\t// out\n        /* \"#utility.yul\":27063:27205   */\n    tag_457:\n        /* \"#utility.yul\":27113:27122   */\n      0x00\n        /* \"#utility.yul\":27146:27199   */\n      tag_707\n        /* \"#utility.yul\":27164:27198   */\n      tag_708\n        /* \"#utility.yul\":27173:27197   */\n      tag_709\n        /* \"#utility.yul\":27191:27196   */\n      dup5\n        /* \"#utility.yul\":27173:27197   */\n      tag_397\n      jump\t// in\n    tag_709:\n        /* \"#utility.yul\":27164:27198   */\n      tag_456\n      jump\t// in\n    tag_708:\n        /* \"#utility.yul\":27146:27199   */\n      tag_397\n      jump\t// in\n    tag_707:\n        /* \"#utility.yul\":27133:27199   */\n      swap1\n      pop\n        /* \"#utility.yul\":27063:27205   */\n      swap2\n      swap1\n      pop\n      jump\t// out\n        /* \"#utility.yul\":27211:27286   */\n    tag_458:\n        /* \"#utility.yul\":27254:27257   */\n      0x00\n        /* \"#utility.yul\":27275:27280   */\n      dup2\n        /* \"#utility.yul\":27268:27280   */\n      swap1\n      pop\n        /* \"#utility.yul\":27211:27286   */\n      swap2\n      swap1\n      pop\n      jump\t// out\n        /* \"#utility.yul\":27292:27561   */\n    tag_459:\n        /* \"#utility.yul\":27402:27441   */\n      tag_712\n        /* \"#utility.yul\":27433:27440   */\n      dup4\n        /* \"#utility.yul\":27402:27441   */\n      tag_457\n      jump\t// in\n    tag_712:\n        /* \"#utility.yul\":27463:27554   */\n      tag_713\n        /* \"#utility.yul\":27512:27553   */\n      tag_714\n        /* \"#utility.yul\":27536:27552   */\n      dup3\n        /* \"#utility.yul\":27512:27553   */\n      tag_458\n      jump\t// in\n    tag_714:\n        /* \"#utility.yul\":27504:27510   */\n      dup5\n        /* \"#utility.yul\":27497:27501   */\n      dup5\n        /* \"#utility.yul\":27491:27502   */\n      sload\n        /* \"#utility.yul\":27463:27554   */\n      tag_455\n      jump\t// in\n    tag_713:\n        /* \"#utility.yul\":27457:27461   */\n      dup3\n        /* \"#utility.yul\":27450:27555   */\n      sstore\n        /* \"#utility.yul\":27368:27561   */\n      pop\n        /* \"#utility.yul\":27292:27561   */\n      pop\n      pop\n      pop\n      jump\t// out\n        /* \"#utility.yul\":27567:27640   */\n    tag_460:\n        /* \"#utility.yul\":27612:27615   */\n      0x00\n        /* \"#utility.yul\":27567:27640   */\n      swap1\n      jump\t// out\n        /* \"#utility.yul\":27646:27835   */\n    tag_461:\n        /* \"#utility.yul\":27723:27755   */\n      tag_717\n      tag_460\n      jump\t// in\n    tag_717:\n        /* \"#utility.yul\":27764:27829   */\n      tag_718\n        /* \"#utility.yul\":27822:27828   */\n      dup2\n        /* \"#utility.yul\":27814:27820   */\n      dup5\n        /* \"#utility.yul\":27808:27812   */\n      dup5\n        /* \"#utility.yul\":27764:27829   */\n      tag_459\n      jump\t// in\n    tag_718:\n        /* \"#utility.yul\":27699:27835   */\n      pop\n        /* \"#utility.yul\":27646:27835   */\n      pop\n      pop\n      jump\t// out\n        /* \"#utility.yul\":27841:28027   */\n    tag_462:\n        /* \"#utility.yul\":27901:28021   */\n    tag_720:\n        /* \"#utility.yul\":27918:27921   */\n      dup2\n        /* \"#utility.yul\":27911:27916   */\n      dup2\n        /* \"#utility.yul\":27908:27922   */\n      lt\n        /* \"#utility.yul\":27901:28021   */\n      iszero\n      tag_722\n      jumpi\n        /* \"#utility.yul\":27972:28011   */\n      tag_723\n        /* \"#utility.yul\":28009:28010   */\n      0x00\n        /* \"#utility.yul\":28002:28007   */\n      dup3\n        /* \"#utility.yul\":27972:28011   */\n      tag_461\n      jump\t// in\n    tag_723:\n        /* \"#utility.yul\":27945:27946   */\n      0x01\n        /* \"#utility.yul\":27938:27943   */\n      dup2\n        /* \"#utility.yul\":27934:27947   */\n      add\n        /* \"#utility.yul\":27925:27947   */\n      swap1\n      pop\n        /* \"#utility.yul\":27901:28021   */\n      jump(tag_720)\n    tag_722:\n        /* \"#utility.yul\":27841:28027   */\n      pop\n      pop\n      jump\t// out\n        /* \"#utility.yul\":28033:28576   */\n    tag_463:\n        /* \"#utility.yul\":28134:28136   */\n      0x1f\n        /* \"#utility.yul\":28129:28132   */\n      dup3\n        /* \"#utility.yul\":28126:28137   */\n      gt\n        /* \"#utility.yul\":28123:28569   */\n      iszero\n      tag_725\n      jumpi\n        /* \"#utility.yul\":28168:28206   */\n      tag_726\n        /* \"#utility.yul\":28200:28205   */\n      dup2\n        /* \"#utility.yul\":28168:28206   */\n      tag_452\n      jump\t// in\n    tag_726:\n        /* \"#utility.yul\":28252:28281   */\n      tag_727\n        /* \"#utility.yul\":28270:28280   */\n      dup5\n        /* \"#utility.yul\":28252:28281   */\n      tag_453\n      jump\t// in\n    tag_727:\n        /* \"#utility.yul\":28242:28250   */\n      dup2\n        /* \"#utility.yul\":28238:28282   */\n      add\n        /* \"#utility.yul\":28435:28437   */\n      0x20\n        /* \"#utility.yul\":28423:28433   */\n      dup6\n        /* \"#utility.yul\":28420:28438   */\n      lt\n        /* \"#utility.yul\":28417:28466   */\n      iszero\n      tag_728\n      jumpi\n        /* \"#utility.yul\":28456:28464   */\n      dup2\n        /* \"#utility.yul\":28441:28464   */\n      swap1\n      pop\n        /* \"#utility.yul\":28417:28466   */\n    tag_728:\n        /* \"#utility.yul\":28479:28559   */\n      tag_729\n        /* \"#utility.yul\":28535:28557   */\n      tag_730\n        /* \"#utility.yul\":28553:28556   */\n      dup6\n        /* \"#utility.yul\":28535:28557   */\n      tag_453\n      jump\t// in\n    tag_730:\n        /* \"#utility.yul\":28525:28533   */\n      dup4\n        /* \"#utility.yul\":28521:28558   */\n      add\n        /* \"#utility.yul\":28508:28519   */\n      dup3\n        /* \"#utility.yul\":28479:28559   */\n      tag_462\n      jump\t// in\n    tag_729:\n        /* \"#utility.yul\":28138:28569   */\n      pop\n      pop\n        /* \"#utility.yul\":28123:28569   */\n    tag_725:\n        /* \"#utility.yul\":28033:28576   */\n      pop\n      pop\n      pop\n      jump\t// out\n        /* \"#utility.yul\":28582:28699   */\n    tag_464:\n        /* \"#utility.yul\":28636:28644   */\n      0x00\n        /* \"#utility.yul\":28686:28691   */\n      dup3\n        /* \"#utility.yul\":28680:28684   */\n      dup3\n        /* \"#utility.yul\":28676:28692   */\n      shr\n        /* \"#utility.yul\":28655:28692   */\n      swap1\n      pop\n        /* \"#utility.yul\":28582:28699   */\n      swap3\n      swap2\n      pop\n      pop\n      jump\t// out\n        /* \"#utility.yul\":28705:28874   */\n    tag_465:\n        /* \"#utility.yul\":28749:28755   */\n      0x00\n        /* \"#utility.yul\":28782:28833   */\n      tag_733\n        /* \"#utility.yul\":28830:28831   */\n      0x00\n        /* \"#utility.yul\":28826:28832   */\n      not\n        /* \"#utility.yul\":28818:28823   */\n      dup5\n        /* \"#utility.yul\":28815:28816   */\n      0x08\n        /* \"#utility.yul\":28811:28824   */\n      mul\n        /* \"#utility.yul\":28782:28833   */\n      tag_464\n      jump\t// in\n    tag_733:\n        /* \"#utility.yul\":28778:28834   */\n      not\n        /* \"#utility.yul\":28863:28867   */\n      dup1\n        /* \"#utility.yul\":28857:28861   */\n      dup4\n        /* \"#utility.yul\":28853:28868   */\n      and\n        /* \"#utility.yul\":28843:28868   */\n      swap2\n      pop\n        /* \"#utility.yul\":28756:28874   */\n      pop\n        /* \"#utility.yul\":28705:28874   */\n      swap3\n      swap2\n      pop\n      pop\n      jump\t// out\n        /* \"#utility.yul\":28879:29174   */\n    tag_466:\n        /* \"#utility.yul\":28955:28959   */\n      0x00\n        /* \"#utility.yul\":29101:29130   */\n      tag_735\n        /* \"#utility.yul\":29126:29129   */\n      dup4\n        /* \"#utility.yul\":29120:29124   */\n      dup4\n        /* \"#utility.yul\":29101:29130   */\n      tag_465\n      jump\t// in\n    tag_735:\n        /* \"#utility.yul\":29093:29130   */\n      swap2\n      pop\n        /* \"#utility.yul\":29163:29166   */\n      dup3\n        /* \"#utility.yul\":29160:29161   */\n      0x02\n        /* \"#utility.yul\":29156:29167   */\n      mul\n        /* \"#utility.yul\":29150:29154   */\n      dup3\n        /* \"#utility.yul\":29147:29168   */\n      or\n        /* \"#utility.yul\":29139:29168   */\n      swap1\n      pop\n        /* \"#utility.yul\":28879:29174   */\n      swap3\n      swap2\n      pop\n      pop\n      jump\t// out\n        /* \"#utility.yul\":29179:30574   */\n    tag_220:\n        /* \"#utility.yul\":29296:29333   */\n      tag_737\n        /* \"#utility.yul\":29329:29332   */\n      dup3\n        /* \"#utility.yul\":29296:29333   */\n      tag_449\n      jump\t// in\n    tag_737:\n        /* \"#utility.yul\":29398:29416   */\n      0xffffffffffffffff\n        /* \"#utility.yul\":29390:29396   */\n      dup2\n        /* \"#utility.yul\":29387:29417   */\n      gt\n        /* \"#utility.yul\":29384:29440   */\n      iszero\n      tag_738\n      jumpi\n        /* \"#utility.yul\":29420:29438   */\n      tag_739\n      tag_407\n      jump\t// in\n    tag_739:\n        /* \"#utility.yul\":29384:29440   */\n    tag_738:\n        /* \"#utility.yul\":29464:29502   */\n      tag_740\n        /* \"#utility.yul\":29496:29500   */\n      dup3\n        /* \"#utility.yul\":29490:29501   */\n      sload\n        /* \"#utility.yul\":29464:29502   */\n      tag_451\n      jump\t// in\n    tag_740:\n        /* \"#utility.yul\":29549:29616   */\n      tag_741\n        /* \"#utility.yul\":29609:29615   */\n      dup3\n        /* \"#utility.yul\":29601:29607   */\n      dup3\n        /* \"#utility.yul\":29595:29599   */\n      dup6\n        /* \"#utility.yul\":29549:29616   */\n      tag_463\n      jump\t// in\n    tag_741:\n        /* \"#utility.yul\":29643:29644   */\n      0x00\n        /* \"#utility.yul\":29667:29671   */\n      0x20\n        /* \"#utility.yul\":29654:29671   */\n      swap1\n      pop\n        /* \"#utility.yul\":29699:29701   */\n      0x1f\n        /* \"#utility.yul\":29691:29697   */\n      dup4\n        /* \"#utility.yul\":29688:29702   */\n      gt\n        /* \"#utility.yul\":29716:29717   */\n      0x01\n        /* \"#utility.yul\":29711:30329   */\n      dup2\n      eq\n      tag_743\n      jumpi\n        /* \"#utility.yul\":30373:30374   */\n      0x00\n        /* \"#utility.yul\":30390:30396   */\n      dup5\n        /* \"#utility.yul\":30387:30464   */\n      iszero\n      tag_744\n      jumpi\n        /* \"#utility.yul\":30439:30448   */\n      dup3\n        /* \"#utility.yul\":30434:30437   */\n      dup8\n        /* \"#utility.yul\":30430:30449   */\n      add\n        /* \"#utility.yul\":30424:30450   */\n      mload\n        /* \"#utility.yul\":30415:30450   */\n      swap1\n      pop\n        /* \"#utility.yul\":30387:30464   */\n    tag_744:\n        /* \"#utility.yul\":30490:30557   */\n      tag_745\n        /* \"#utility.yul\":30550:30556   */\n      dup6\n        /* \"#utility.yul\":30543:30548   */\n      dup3\n        /* \"#utility.yul\":30490:30557   */\n      tag_466\n      jump\t// in\n    tag_745:\n        /* \"#utility.yul\":30484:30488   */\n      dup7\n        /* \"#utility.yul\":30477:30558   */\n      sstore\n        /* \"#utility.yul\":30346:30568   */\n      pop\n        /* \"#utility.yul\":29681:30568   */\n      jump(tag_742)\n        /* \"#utility.yul\":29711:30329   */\n    tag_743:\n        /* \"#utility.yul\":29763:29767   */\n      0x1f\n        /* \"#utility.yul\":29759:29768   */\n      not\n        /* \"#utility.yul\":29751:29757   */\n      dup5\n        /* \"#utility.yul\":29747:29769   */\n      and\n        /* \"#utility.yul\":29797:29834   */\n      tag_746\n        /* \"#utility.yul\":29829:29833   */\n      dup7\n        /* \"#utility.yul\":29797:29834   */\n      tag_452\n      jump\t// in\n    tag_746:\n        /* \"#utility.yul\":29856:29857   */\n      0x00\n        /* \"#utility.yul\":29870:30078   */\n    tag_747:\n        /* \"#utility.yul\":29884:29891   */\n      dup3\n        /* \"#utility.yul\":29881:29882   */\n      dup2\n        /* \"#utility.yul\":29878:29892   */\n      lt\n        /* \"#utility.yul\":29870:30078   */\n      iszero\n      tag_749\n      jumpi\n        /* \"#utility.yul\":29963:29972   */\n      dup5\n        /* \"#utility.yul\":29958:29961   */\n      dup10\n        /* \"#utility.yul\":29954:29973   */\n      add\n        /* \"#utility.yul\":29948:29974   */\n      mload\n        /* \"#utility.yul\":29940:29946   */\n      dup3\n        /* \"#utility.yul\":29933:29975   */\n      sstore\n        /* \"#utility.yul\":30014:30015   */\n      0x01\n        /* \"#utility.yul\":30006:30012   */\n      dup3\n        /* \"#utility.yul\":30002:30016   */\n      add\n        /* \"#utility.yul\":29992:30016   */\n      swap2\n      pop\n        /* \"#utility.yul\":30061:30063   */\n      0x20\n        /* \"#utility.yul\":30050:30059   */\n      dup6\n        /* \"#utility.yul\":30046:30064   */\n      add\n        /* \"#utility.yul\":30033:30064   */\n      swap5\n      pop\n        /* \"#utility.yul\":29907:29911   */\n      0x20\n        /* \"#utility.yul\":29904:29905   */\n      dup2\n        /* \"#utility.yul\":29900:29912   */\n      add\n        /* \"#utility.yul\":29895:29912   */\n      swap1\n      pop\n        /* \"#utility.yul\":29870:30078   */\n      jump(tag_747)\n    tag_749:\n        /* \"#utility.yul\":30106:30112   */\n      dup7\n        /* \"#utility.yul\":30097:30104   */\n      dup4\n        /* \"#utility.yul\":30094:30113   */\n      lt\n        /* \"#utility.yul\":30091:30270   */\n      iszero\n      tag_750\n      jumpi\n        /* \"#utility.yul\":30164:30173   */\n      dup5\n        /* \"#utility.yul\":30159:30162   */\n      dup10\n        /* \"#utility.yul\":30155:30174   */\n      add\n        /* \"#utility.yul\":30149:30175   */\n      mload\n        /* \"#utility.yul\":30207:30255   */\n      tag_751\n        /* \"#utility.yul\":30249:30253   */\n      0x1f\n        /* \"#utility.yul\":30241:30247   */\n      dup10\n        /* \"#utility.yul\":30237:30254   */\n      and\n        /* \"#utility.yul\":30226:30235   */\n      dup3\n        /* \"#utility.yul\":30207:30255   */\n      tag_465\n      jump\t// in\n    tag_751:\n        /* \"#utility.yul\":30199:30205   */\n      dup4\n        /* \"#utility.yul\":30192:30256   */\n      sstore\n        /* \"#utility.yul\":30114:30270   */\n      pop\n        /* \"#utility.yul\":30091:30270   */\n    tag_750:\n        /* \"#utility.yul\":30316:30317   */\n      0x01\n        /* \"#utility.yul\":30312:30313   */\n      0x02\n        /* \"#utility.yul\":30304:30310   */\n      dup9\n        /* \"#utility.yul\":30300:30314   */\n      mul\n        /* \"#utility.yul\":30296:30318   */\n      add\n        /* \"#utility.yul\":30290:30294   */\n      dup9\n        /* \"#utility.yul\":30283:30319   */\n      sstore\n        /* \"#utility.yul\":29718:30329   */\n      pop\n      pop\n      pop\n        /* \"#utility.yul\":29681:30568   */\n    tag_742:\n      pop\n        /* \"#utility.yul\":29271:30574   */\n      pop\n      pop\n      pop\n        /* \"#utility.yul\":29179:30574   */\n      pop\n      pop\n      jump\t// out\n        /* \"#utility.yul\":30580:30822   */\n    tag_467:\n        /* \"#utility.yul\":30720:30754   */\n      0x4f6e6c792064656c6567617465732063616e207265636c61696d207468656972\n        /* \"#utility.yul\":30716:30717   */\n      0x00\n        /* \"#utility.yul\":30708:30714   */\n      dup3\n        /* \"#utility.yul\":30704:30718   */\n      add\n        /* \"#utility.yul\":30697:30755   */\n      mstore\n        /* \"#utility.yul\":30789:30814   */\n      0x206f726967696e616c20766f74696e672072696768742e000000000000000000\n        /* \"#utility.yul\":30784:30786   */\n      0x20\n        /* \"#utility.yul\":30776:30782   */\n      dup3\n        /* \"#utility.yul\":30772:30787   */\n      add\n        /* \"#utility.yul\":30765:30815   */\n      mstore\n        /* \"#utility.yul\":30580:30822   */\n      pop\n      jump\t// out\n        /* \"#utility.yul\":30828:31194   */\n    tag_468:\n        /* \"#utility.yul\":30970:30973   */\n      0x00\n        /* \"#utility.yul\":30991:31058   */\n      tag_754\n        /* \"#utility.yul\":31055:31057   */\n      0x37\n        /* \"#utility.yul\":31050:31053   */\n      dup4\n        /* \"#utility.yul\":30991:31058   */\n      tag_419\n      jump\t// in\n    tag_754:\n        /* \"#utility.yul\":30984:31058   */\n      swap2\n      pop\n        /* \"#utility.yul\":31067:31160   */\n      tag_755\n        /* \"#utility.yul\":31156:31159   */\n      dup3\n        /* \"#utility.yul\":31067:31160   */\n      tag_467\n      jump\t// in\n    tag_755:\n        /* \"#utility.yul\":31185:31187   */\n      0x40\n        /* \"#utility.yul\":31180:31183   */\n      dup3\n        /* \"#utility.yul\":31176:31188   */\n      add\n        /* \"#utility.yul\":31169:31188   */\n      swap1\n      pop\n        /* \"#utility.yul\":30828:31194   */\n      swap2\n      swap1\n      pop\n      jump\t// out\n        /* \"#utility.yul\":31200:31619   */\n    tag_240:\n        /* \"#utility.yul\":31366:31370   */\n      0x00\n        /* \"#utility.yul\":31404:31406   */\n      0x20\n        /* \"#utility.yul\":31393:31402   */\n      dup3\n        /* \"#utility.yul\":31389:31407   */\n      add\n        /* \"#utility.yul\":31381:31407   */\n      swap1\n      pop\n        /* \"#utility.yul\":31453:31462   */\n      dup2\n        /* \"#utility.yul\":31447:31451   */\n      dup2\n        /* \"#utility.yul\":31443:31463   */\n      sub\n        /* \"#utility.yul\":31439:31440   */\n      0x00\n        /* \"#utility.yul\":31428:31437   */\n      dup4\n        /* \"#utility.yul\":31424:31441   */\n      add\n        /* \"#utility.yul\":31417:31464   */\n      mstore\n        /* \"#utility.yul\":31481:31612   */\n      tag_757\n        /* \"#utility.yul\":31607:31611   */\n      dup2\n        /* \"#utility.yul\":31481:31612   */\n      tag_468\n      jump\t// in\n    tag_757:\n        /* \"#utility.yul\":31473:31612   */\n      swap1\n      pop\n        /* \"#utility.yul\":31200:31619   */\n      swap2\n      swap1\n      pop\n      jump\t// out\n        /* \"#utility.yul\":31625:31858   */\n    tag_469:\n        /* \"#utility.yul\":31765:31799   */\n      0x5265636c61696d657220616c726561647920686f6c6473203220616374697665\n        /* \"#utility.yul\":31761:31762   */\n      0x00\n        /* \"#utility.yul\":31753:31759   */\n      dup3\n        /* \"#utility.yul\":31749:31763   */\n      add\n        /* \"#utility.yul\":31742:31800   */\n      mstore\n        /* \"#utility.yul\":31834:31850   */\n      0x20766f74696e6720726967687473000000000000000000000000000000000000\n        /* \"#utility.yul\":31829:31831   */\n      0x20\n        /* \"#utility.yul\":31821:31827   */\n      dup3\n        /* \"#utility.yul\":31817:31832   */\n      add\n        /* \"#utility.yul\":31810:31851   */\n      mstore\n        /* \"#utility.yul\":31625:31858   */\n      pop\n      jump\t// out\n        /* \"#utility.yul\":31864:32230   */\n    tag_470:\n        /* \"#utility.yul\":32006:32009   */\n      0x00\n        /* \"#utility.yul\":32027:32094   */\n      tag_760\n        /* \"#utility.yul\":32091:32093   */\n      0x2e\n        /* \"#utility.yul\":32086:32089   */\n      dup4\n        /* \"#utility.yul\":32027:32094   */\n      tag_419\n      jump\t// in\n    tag_760:\n        /* \"#utility.yul\":32020:32094   */\n      swap2\n      pop\n        /* \"#utility.yul\":32103:32196   */\n      tag_761\n        /* \"#utility.yul\":32192:32195   */\n      dup3\n        /* \"#utility.yul\":32103:32196   */\n      tag_469\n      jump\t// in\n    tag_761:\n        /* \"#utility.yul\":32221:32223   */\n      0x40\n        /* \"#utility.yul\":32216:32219   */\n      dup3\n        /* \"#utility.yul\":32212:32224   */\n      add\n        /* \"#utility.yul\":32205:32224   */\n      swap1\n      pop\n        /* \"#utility.yul\":31864:32230   */\n      swap2\n      swap1\n      pop\n      jump\t// out\n        /* \"#utility.yul\":32236:32655   */\n    tag_244:\n        /* \"#utility.yul\":32402:32406   */\n      0x00\n        /* \"#utility.yul\":32440:32442   */\n      0x20\n        /* \"#utility.yul\":32429:32438   */\n      dup3\n        /* \"#utility.yul\":32425:32443   */\n      add\n        /* \"#utility.yul\":32417:32443   */\n      swap1\n      pop\n        /* \"#utility.yul\":32489:32498   */\n      dup2\n        /* \"#utility.yul\":32483:32487   */\n      dup2\n        /* \"#utility.yul\":32479:32499   */\n      sub\n        /* \"#utility.yul\":32475:32476   */\n      0x00\n        /* \"#utility.yul\":32464:32473   */\n      dup4\n        /* \"#utility.yul\":32460:32477   */\n      add\n        /* \"#utility.yul\":32453:32500   */\n      mstore\n        /* \"#utility.yul\":32517:32648   */\n      tag_763\n        /* \"#utility.yul\":32643:32647   */\n      dup2\n        /* \"#utility.yul\":32517:32648   */\n      tag_470\n      jump\t// in\n    tag_763:\n        /* \"#utility.yul\":32509:32648   */\n      swap1\n      pop\n        /* \"#utility.yul\":32236:32655   */\n      swap2\n      swap1\n      pop\n      jump\t// out\n        /* \"#utility.yul\":32661:32901   */\n    tag_471:\n        /* \"#utility.yul\":32801:32835   */\n      0x5265636c61696d657220616c726561647920686f6c6473206869732f68657220\n        /* \"#utility.yul\":32797:32798   */\n      0x00\n        /* \"#utility.yul\":32789:32795   */\n      dup3\n        /* \"#utility.yul\":32785:32799   */\n      add\n        /* \"#utility.yul\":32778:32836   */\n      mstore\n        /* \"#utility.yul\":32870:32893   */\n      0x6f726967696e616c20766f74696e672072696768740000000000000000000000\n        /* \"#utility.yul\":32865:32867   */\n      0x20\n        /* \"#utility.yul\":32857:32863   */\n      dup3\n        /* \"#utility.yul\":32853:32868   */\n      add\n        /* \"#utility.yul\":32846:32894   */\n      mstore\n        /* \"#utility.yul\":32661:32901   */\n      pop\n      jump\t// out\n        /* \"#utility.yul\":32907:33273   */\n    tag_472:\n        /* \"#utility.yul\":33049:33052   */\n      0x00\n        /* \"#utility.yul\":33070:33137   */\n      tag_766\n        /* \"#utility.yul\":33134:33136   */\n      0x35\n        /* \"#utility.yul\":33129:33132   */\n      dup4\n        /* \"#utility.yul\":33070:33137   */\n      tag_419\n      jump\t// in\n    tag_766:\n        /* \"#utility.yul\":33063:33137   */\n      swap2\n      pop\n        /* \"#utility.yul\":33146:33239   */\n      tag_767\n        /* \"#utility.yul\":33235:33238   */\n      dup3\n        /* \"#utility.yul\":33146:33239   */\n      tag_471\n      jump\t// in\n    tag_767:\n        /* \"#utility.yul\":33264:33266   */\n      0x40\n        /* \"#utility.yul\":33259:33262   */\n      dup3\n        /* \"#utility.yul\":33255:33267   */\n      add\n        /* \"#utility.yul\":33248:33267   */\n      swap1\n      pop\n        /* \"#utility.yul\":32907:33273   */\n      swap2\n      swap1\n      pop\n      jump\t// out\n        /* \"#utility.yul\":33279:33698   */\n    tag_248:\n        /* \"#utility.yul\":33445:33449   */\n      0x00\n        /* \"#utility.yul\":33483:33485   */\n      0x20\n        /* \"#utility.yul\":33472:33481   */\n      dup3\n        /* \"#utility.yul\":33468:33486   */\n      add\n        /* \"#utility.yul\":33460:33486   */\n      swap1\n      pop\n        /* \"#utility.yul\":33532:33541   */\n      dup2\n        /* \"#utility.yul\":33526:33530   */\n      dup2\n        /* \"#utility.yul\":33522:33542   */\n      sub\n        /* \"#utility.yul\":33518:33519   */\n      0x00\n        /* \"#utility.yul\":33507:33516   */\n      dup4\n        /* \"#utility.yul\":33503:33520   */\n      add\n        /* \"#utility.yul\":33496:33543   */\n      mstore\n        /* \"#utility.yul\":33560:33691   */\n      tag_769\n        /* \"#utility.yul\":33686:33690   */\n      dup2\n        /* \"#utility.yul\":33560:33691   */\n      tag_472\n      jump\t// in\n    tag_769:\n        /* \"#utility.yul\":33552:33691   */\n      swap1\n      pop\n        /* \"#utility.yul\":33279:33698   */\n      swap2\n      swap1\n      pop\n      jump\t// out\n        /* \"#utility.yul\":33704:33934   */\n    tag_473:\n        /* \"#utility.yul\":33844:33878   */\n      0x4f6e6c7920287265706c6163656d656e742964656c6567617465732063616e20\n        /* \"#utility.yul\":33840:33841   */\n      0x00\n        /* \"#utility.yul\":33832:33838   */\n      dup3\n        /* \"#utility.yul\":33828:33842   */\n      add\n        /* \"#utility.yul\":33821:33879   */\n      mstore\n        /* \"#utility.yul\":33913:33926   */\n      0x6361737420766f7465732e000000000000000000000000000000000000000000\n        /* \"#utility.yul\":33908:33910   */\n      0x20\n        /* \"#utility.yul\":33900:33906   */\n      dup3\n        /* \"#utility.yul\":33896:33911   */\n      add\n        /* \"#utility.yul\":33889:33927   */\n      mstore\n        /* \"#utility.yul\":33704:33934   */\n      pop\n      jump\t// out\n        /* \"#utility.yul\":33940:34306   */\n    tag_474:\n        /* \"#utility.yul\":34082:34085   */\n      0x00\n        /* \"#utility.yul\":34103:34170   */\n      tag_772\n        /* \"#utility.yul\":34167:34169   */\n      0x2b\n        /* \"#utility.yul\":34162:34165   */\n      dup4\n        /* \"#utility.yul\":34103:34170   */\n      tag_419\n      jump\t// in\n    tag_772:\n        /* \"#utility.yul\":34096:34170   */\n      swap2\n      pop\n        /* \"#utility.yul\":34179:34272   */\n      tag_773\n        /* \"#utility.yul\":34268:34271   */\n      dup3\n        /* \"#utility.yul\":34179:34272   */\n      tag_473\n      jump\t// in\n    tag_773:\n        /* \"#utility.yul\":34297:34299   */\n      0x40\n        /* \"#utility.yul\":34292:34295   */\n      dup3\n        /* \"#utility.yul\":34288:34300   */\n      add\n        /* \"#utility.yul\":34281:34300   */\n      swap1\n      pop\n        /* \"#utility.yul\":33940:34306   */\n      swap2\n      swap1\n      pop\n      jump\t// out\n        /* \"#utility.yul\":34312:34731   */\n    tag_276:\n        /* \"#utility.yul\":34478:34482   */\n      0x00\n        /* \"#utility.yul\":34516:34518   */\n      0x20\n        /* \"#utility.yul\":34505:34514   */\n      dup3\n        /* \"#utility.yul\":34501:34519   */\n      add\n        /* \"#utility.yul\":34493:34519   */\n      swap1\n      pop\n        /* \"#utility.yul\":34565:34574   */\n      dup2\n        /* \"#utility.yul\":34559:34563   */\n      dup2\n        /* \"#utility.yul\":34555:34575   */\n      sub\n        /* \"#utility.yul\":34551:34552   */\n      0x00\n        /* \"#utility.yul\":34540:34549   */\n      dup4\n        /* \"#utility.yul\":34536:34553   */\n      add\n        /* \"#utility.yul\":34529:34576   */\n      mstore\n        /* \"#utility.yul\":34593:34724   */\n      tag_775\n        /* \"#utility.yul\":34719:34723   */\n      dup2\n        /* \"#utility.yul\":34593:34724   */\n      tag_474\n      jump\t// in\n    tag_775:\n        /* \"#utility.yul\":34585:34724   */\n      swap1\n      pop\n        /* \"#utility.yul\":34312:34731   */\n      swap2\n      swap1\n      pop\n      jump\t// out\n        /* \"#utility.yul\":34737:34917   */\n    tag_475:\n        /* \"#utility.yul\":34877:34909   */\n      0x4d6f74696f6e206973206e6f74206f70656e20666f7220766f74696e672e0000\n        /* \"#utility.yul\":34873:34874   */\n      0x00\n        /* \"#utility.yul\":34865:34871   */\n      dup3\n        /* \"#utility.yul\":34861:34875   */\n      add\n        /* \"#utility.yul\":34854:34910   */\n      mstore\n        /* \"#utility.yul\":34737:34917   */\n      pop\n      jump\t// out\n        /* \"#utility.yul\":34923:35289   */\n    tag_476:\n        /* \"#utility.yul\":35065:35068   */\n      0x00\n        /* \"#utility.yul\":35086:35153   */\n      tag_778\n        /* \"#utility.yul\":35150:35152   */\n      0x1e\n        /* \"#utility.yul\":35145:35148   */\n      dup4\n        /* \"#utility.yul\":35086:35153   */\n      tag_419\n      jump\t// in\n    tag_778:\n        /* \"#utility.yul\":35079:35153   */\n      swap2\n      pop\n        /* \"#utility.yul\":35162:35255   */\n      tag_779\n        /* \"#utility.yul\":35251:35254   */\n      dup3\n        /* \"#utility.yul\":35162:35255   */\n      tag_475\n      jump\t// in\n    tag_779:\n        /* \"#utility.yul\":35280:35282   */\n      0x20\n        /* \"#utility.yul\":35275:35278   */\n      dup3\n        /* \"#utility.yul\":35271:35283   */\n      add\n        /* \"#utility.yul\":35264:35283   */\n      swap1\n      pop\n        /* \"#utility.yul\":34923:35289   */\n      swap2\n      swap1\n      pop\n      jump\t// out\n        /* \"#utility.yul\":35295:35714   */\n    tag_286:\n        /* \"#utility.yul\":35461:35465   */\n      0x00\n        /* \"#utility.yul\":35499:35501   */\n      0x20\n        /* \"#utility.yul\":35488:35497   */\n      dup3\n        /* \"#utility.yul\":35484:35502   */\n      add\n        /* \"#utility.yul\":35476:35502   */\n      swap1\n      pop\n        /* \"#utility.yul\":35548:35557   */\n      dup2\n        /* \"#utility.yul\":35542:35546   */\n      dup2\n        /* \"#utility.yul\":35538:35558   */\n      sub\n        /* \"#utility.yul\":35534:35535   */\n      0x00\n        /* \"#utility.yul\":35523:35532   */\n      dup4\n        /* \"#utility.yul\":35519:35536   */\n      add\n        /* \"#utility.yul\":35512:35559   */\n      mstore\n        /* \"#utility.yul\":35576:35707   */\n      tag_781\n        /* \"#utility.yul\":35702:35706   */\n      dup2\n        /* \"#utility.yul\":35576:35707   */\n      tag_476\n      jump\t// in\n    tag_781:\n        /* \"#utility.yul\":35568:35707   */\n      swap1\n      pop\n        /* \"#utility.yul\":35295:35714   */\n      swap2\n      swap1\n      pop\n      jump\t// out\n        /* \"#utility.yul\":35720:35945   */\n    tag_477:\n        /* \"#utility.yul\":35860:35894   */\n      0x4e6f2061637469766520766f74696e67207269676874732068656c6420627920\n        /* \"#utility.yul\":35856:35857   */\n      0x00\n        /* \"#utility.yul\":35848:35854   */\n      dup3\n        /* \"#utility.yul\":35844:35858   */\n      add\n        /* \"#utility.yul\":35837:35895   */\n      mstore\n        /* \"#utility.yul\":35929:35937   */\n      0x73656e6465720000000000000000000000000000000000000000000000000000\n        /* \"#utility.yul\":35924:35926   */\n      0x20\n        /* \"#utility.yul\":35916:35922   */\n      dup3\n        /* \"#utility.yul\":35912:35927   */\n      add\n        /* \"#utility.yul\":35905:35938   */\n      mstore\n        /* \"#utility.yul\":35720:35945   */\n      pop\n      jump\t// out\n        /* \"#utility.yul\":35951:36317   */\n    tag_478:\n        /* \"#utility.yul\":36093:36096   */\n      0x00\n        /* \"#utility.yul\":36114:36181   */\n      tag_784\n        /* \"#utility.yul\":36178:36180   */\n      0x26\n        /* \"#utility.yul\":36173:36176   */\n      dup4\n        /* \"#utility.yul\":36114:36181   */\n      tag_419\n      jump\t// in\n    tag_784:\n        /* \"#utility.yul\":36107:36181   */\n      swap2\n      pop\n        /* \"#utility.yul\":36190:36283   */\n      tag_785\n        /* \"#utility.yul\":36279:36282   */\n      dup3\n        /* \"#utility.yul\":36190:36283   */\n      tag_477\n      jump\t// in\n    tag_785:\n        /* \"#utility.yul\":36308:36310   */\n      0x40\n        /* \"#utility.yul\":36303:36306   */\n      dup3\n        /* \"#utility.yul\":36299:36311   */\n      add\n        /* \"#utility.yul\":36292:36311   */\n      swap1\n      pop\n        /* \"#utility.yul\":35951:36317   */\n      swap2\n      swap1\n      pop\n      jump\t// out\n        /* \"#utility.yul\":36323:36742   */\n    tag_290:\n        /* \"#utility.yul\":36489:36493   */\n      0x00\n        /* \"#utility.yul\":36527:36529   */\n      0x20\n        /* \"#utility.yul\":36516:36525   */\n      dup3\n        /* \"#utility.yul\":36512:36530   */\n      add\n        /* \"#utility.yul\":36504:36530   */\n      swap1\n      pop\n        /* \"#utility.yul\":36576:36585   */\n      dup2\n        /* \"#utility.yul\":36570:36574   */\n      dup2\n        /* \"#utility.yul\":36566:36586   */\n      sub\n        /* \"#utility.yul\":36562:36563   */\n      0x00\n        /* \"#utility.yul\":36551:36560   */\n      dup4\n        /* \"#utility.yul\":36547:36564   */\n      add\n        /* \"#utility.yul\":36540:36587   */\n      mstore\n        /* \"#utility.yul\":36604:36735   */\n      tag_787\n        /* \"#utility.yul\":36730:36734   */\n      dup2\n        /* \"#utility.yul\":36604:36735   */\n      tag_478\n      jump\t// in\n    tag_787:\n        /* \"#utility.yul\":36596:36735   */\n      swap1\n      pop\n        /* \"#utility.yul\":36323:36742   */\n      swap2\n      swap1\n      pop\n      jump\t// out\n        /* \"#utility.yul\":36748:36923   */\n    tag_479:\n        /* \"#utility.yul\":36888:36915   */\n      0x566f7465287329207765726520616c7265616479206361737400000000000000\n        /* \"#utility.yul\":36884:36885   */\n      0x00\n        /* \"#utility.yul\":36876:36882   */\n      dup3\n        /* \"#utility.yul\":36872:36886   */\n      add\n        /* \"#utility.yul\":36865:36916   */\n      mstore\n        /* \"#utility.yul\":36748:36923   */\n      pop\n      jump\t// out\n        /* \"#utility.yul\":36929:37295   */\n    tag_480:\n        /* \"#utility.yul\":37071:37074   */\n      0x00\n        /* \"#utility.yul\":37092:37159   */\n      tag_790\n        /* \"#utility.yul\":37156:37158   */\n      0x19\n        /* \"#utility.yul\":37151:37154   */\n      dup4\n        /* \"#utility.yul\":37092:37159   */\n      tag_419\n      jump\t// in\n    tag_790:\n        /* \"#utility.yul\":37085:37159   */\n      swap2\n      pop\n        /* \"#utility.yul\":37168:37261   */\n      tag_791\n        /* \"#utility.yul\":37257:37260   */\n      dup3\n        /* \"#utility.yul\":37168:37261   */\n      tag_479\n      jump\t// in\n    tag_791:\n        /* \"#utility.yul\":37286:37288   */\n      0x20\n        /* \"#utility.yul\":37281:37284   */\n      dup3\n        /* \"#utility.yul\":37277:37289   */\n      add\n        /* \"#utility.yul\":37270:37289   */\n      swap1\n      pop\n        /* \"#utility.yul\":36929:37295   */\n      swap2\n      swap1\n      pop\n      jump\t// out\n        /* \"#utility.yul\":37301:37720   */\n    tag_308:\n        /* \"#utility.yul\":37467:37471   */\n      0x00\n        /* \"#utility.yul\":37505:37507   */\n      0x20\n        /* \"#utility.yul\":37494:37503   */\n      dup3\n        /* \"#utility.yul\":37490:37508   */\n      add\n        /* \"#utility.yul\":37482:37508   */\n      swap1\n      pop\n        /* \"#utility.yul\":37554:37563   */\n      dup2\n        /* \"#utility.yul\":37548:37552   */\n      dup2\n        /* \"#utility.yul\":37544:37564   */\n      sub\n        /* \"#utility.yul\":37540:37541   */\n      0x00\n        /* \"#utility.yul\":37529:37538   */\n      dup4\n        /* \"#utility.yul\":37525:37542   */\n      add\n        /* \"#utility.yul\":37518:37565   */\n      mstore\n        /* \"#utility.yul\":37582:37713   */\n      tag_793\n        /* \"#utility.yul\":37708:37712   */\n      dup2\n        /* \"#utility.yul\":37582:37713   */\n      tag_480\n      jump\t// in\n    tag_793:\n        /* \"#utility.yul\":37574:37713   */\n      swap1\n      pop\n        /* \"#utility.yul\":37301:37720   */\n      swap2\n      swap1\n      pop\n      jump\t// out\n\n    auxdata: 0xa2646970667358221220cf0cfa496125c76125918f6b7f76b991f503d6de73116b186ed9bc12b06599da64736f6c63430008130033\n}\n",
				"bytecode": {
					"linkReferences": {},
					"object": "60806040526000805560006001553480156200001a57600080fd5b50620000256200021c565b6004816000019060048111156200004157620000406200027e565b5b908160048111156200005857620000576200027e565b5b8152505033816020019073ffffffffffffffffffffffffffffffffffffffff16908173ffffffffffffffffffffffffffffffffffffffff168152505080600260003373ffffffffffffffffffffffffffffffffffffffff1673ffffffffffffffffffffffffffffffffffffffff16815260200190815260200160002060008201518160000160006101000a81548160ff021916908360048111156200010257620001016200027e565b5b021790555060208201518160000160016101000a81548173ffffffffffffffffffffffffffffffffffffffff021916908373ffffffffffffffffffffffffffffffffffffffff16021790555060408201518160010160006101000a81548173ffffffffffffffffffffffffffffffffffffffff021916908373ffffffffffffffffffffffffffffffffffffffff1602179055509050506003339080600181540180825580915050600190039060005260206000200160009091909190916101000a81548173ffffffffffffffffffffffffffffffffffffffff021916908373ffffffffffffffffffffffffffffffffffffffff160217905550600160008154809291906200021090620002e6565b91905055505062000333565b6040518060600160405280600060048111156200023e576200023d6200027e565b5b8152602001600073ffffffffffffffffffffffffffffffffffffffff168152602001600073ffffffffffffffffffffffffffffffffffffffff1681525090565b7f4e487b7100000000000000000000000000000000000000000000000000000000600052602160045260246000fd5b7f4e487b7100000000000000000000000000000000000000000000000000000000600052601160045260246000fd5b6000819050919050565b6000620002f382620002dc565b91507fffffffffffffffffffffffffffffffffffffffffffffffffffffffffffffffff8203620003285762000327620002ad565b5b600182019050919050565b61403380620003436000396000f3fe608060405234801561001057600080fd5b50600436106100b45760003560e01c8063bd7bb65411610071578063bd7bb6541461018b578063d5506819146101bb578063ecd2713a146101d9578063f513edb4146101f7578063fc14ebbb14610213578063fea2fa6a14610231576100b4565b806309e69ede146100b957806331b47842146100eb5780638a022b9c146101075780638de2fc3a146101375780639084f1f914610153578063a00f02361461016f575b600080fd5b6100d360048036038101906100ce9190612bd0565b610261565b6040516100e293929190612c83565b60405180910390f35b61010560048036038101906101009190612cf0565b6102d8565b005b610121600480360381019061011c9190612cf0565b610567565b60405161012e9190612d38565b60405180910390f35b610151600480360381019061014c9190612d78565b6106c9565b005b61016d60048036038101906101689190612cf0565b610b7d565b005b61018960048036038101906101849190612bd0565b610d1c565b005b6101a560048036038101906101a09190612efe565b61111b565b6040516101b29190612f56565b60405180910390f35b6101c36114a7565b6040516101d09190612d38565b60405180910390f35b6101e1611aaf565b6040516101ee9190612f56565b60405180910390f35b610211600480360381019061020c9190612f71565b611ab5565b005b61021b612793565b6040516102289190612f56565b60405180910390f35b61024b60048036038101906102469190613079565b612799565b6040516102589190612d38565b60405180910390f35b60026020528060005260406000206000915090508060000160009054906101000a900460ff16908060000160019054906101000a900473ffffffffffffffffffffffffffffffffffffffff16908060010160009054906101000a900473ffffffffffffffffffffffffffffffffffffffff16905083565b600160048111156102ec576102eb612bfd565b5b600260003373ffffffffffffffffffffffffffffffffffffffff1673ffffffffffffffffffffffffffffffffffffffff16815260200190815260200160002060000160009054906101000a900460ff16600481111561034e5761034d612bfd565b5b101561038f576040517f08c379a000000000000000000000000000000000000000000000000000000000815260040161038690613158565b60405180910390fd5b610442600482815481106103a6576103a5613178565b5b906000526020600020906006020160050180548060200260200160405190810160405280929190818152602001828054801561043757602002820191906000526020600020905b8160009054906101000a900473ffffffffffffffffffffffffffffffffffffffff1673ffffffffffffffffffffffffffffffffffffffff16815260200190600101908083116103ed575b505050505033612799565b610481576040517f08c379a000000000000000000000000000000000000000000000000000000000815260040161047890613219565b60405180910390fd5b6004818154811061049557610494613178565b5b9060005260206000209060060201600501339080600181540180825580915050600190039060005260206000200160009091909190916101000a81548173ffffffffffffffffffffffffffffffffffffffff021916908373ffffffffffffffffffffffffffffffffffffffff16021790555061051081610567565b156105645760016004828154811061052b5761052a613178565b5b906000526020600020906006020160020160016101000a81548160ff0219169083600281111561055e5761055d612bfd565b5b02179055505b50565b600080600090506000805b6004858154811061058657610585613178565b5b9060005260206000209060060201600501805490508110156106ae57600360048111156105b6576105b5612bfd565b5b60026000600488815481106105ce576105cd613178565b5b906000526020600020906006020160050184815481106105f1576105f0613178565b5b9060005260206000200160009054906101000a900473ffffffffffffffffffffffffffffffffffffffff1673ffffffffffffffffffffffffffffffffffffffff1673ffffffffffffffffffffffffffffffffffffffff16815260200190815260200160002060000160009054906101000a900460ff16600481111561067957610678612bfd565b5b1061068d57828061068990613268565b9350505b818061069890613268565b92505080806106a690613268565b915050610572565b50600a821015806106c05750601e8110155b92505050919050565b6004808111156106dc576106db612bfd565b5b600260003373ffffffffffffffffffffffffffffffffffffffff1673ffffffffffffffffffffffffffffffffffffffff16815260200190815260200160002060000160009054906101000a900460ff16600481111561073e5761073d612bfd565b5b1461077e576040517f08c379a000000000000000000000000000000000000000000000000000000000815260040161077590613322565b60405180910390fd5b600073ffffffffffffffffffffffffffffffffffffffff16600260008373ffffffffffffffffffffffffffffffffffffffff1673ffffffffffffffffffffffffffffffffffffffff16815260200190815260200160002060000160019054906101000a900473ffffffffffffffffffffffffffffffffffffffff1673ffffffffffffffffffffffffffffffffffffffff161480156108aa5750600073ffffffffffffffffffffffffffffffffffffffff16600260008373ffffffffffffffffffffffffffffffffffffffff1673ffffffffffffffffffffffffffffffffffffffff16815260200190815260200160002060010160009054906101000a900473ffffffffffffffffffffffffffffffffffffffff1673ffffffffffffffffffffffffffffffffffffffff16145b6108e9576040517f08c379a00000000000000000000000000000000000000000000000000000000081526004016108e0906133b4565b60405180910390fd5b6108f1612820565b610930576040517f08c379a000000000000000000000000000000000000000000000000000000000815260040161092790613446565b60405180910390fd5b610938612aff565b82816000019060048111156109505761094f612bfd565b5b9081600481111561096457610963612bfd565b5b815250506003600481111561097c5761097b612bfd565b5b83600481111561098f5761098e612bfd565b5b14806109be57506004808111156109a9576109a8612bfd565b5b8360048111156109bc576109bb612bfd565b5b145b15610a145781816020019073ffffffffffffffffffffffffffffffffffffffff16908173ffffffffffffffffffffffffffffffffffffffff168152505060016000815480929190610a0e90613268565b91905055505b80600260008473ffffffffffffffffffffffffffffffffffffffff1673ffffffffffffffffffffffffffffffffffffffff16815260200190815260200160002060008201518160000160006101000a81548160ff02191690836004811115610a7f57610a7e612bfd565b5b021790555060208201518160000160016101000a81548173ffffffffffffffffffffffffffffffffffffffff021916908373ffffffffffffffffffffffffffffffffffffffff16021790555060408201518160010160006101000a81548173ffffffffffffffffffffffffffffffffffffffff021916908373ffffffffffffffffffffffffffffffffffffffff1602179055509050506003829080600181540180825580915050600190039060005260206000200160009091909190916101000a81548173ffffffffffffffffffffffffffffffffffffffff021916908373ffffffffffffffffffffffffffffffffffffffff160217905550505050565b600480811115610b9057610b8f612bfd565b5b600260003373ffffffffffffffffffffffffffffffffffffffff1673ffffffffffffffffffffffffffffffffffffffff16815260200190815260200160002060000160009054906101000a900460ff166004811115610bf257610bf1612bfd565b5b14610c32576040517f08c379a0000000000000000000000000000000000000000000000000000000008152600401610c29906134b2565b60405180910390fd5b60016002811115610c4657610c45612bfd565b5b60048281548110610c5a57610c59613178565b5b906000526020600020906006020160020160019054906101000a900460ff166002811115610c8b57610c8a612bfd565b5b14610ccb576040517f08c379a0000000000000000000000000000000000000000000000000000000008152600401610cc29061351e565b60405180910390fd5b600260048281548110610ce157610ce0613178565b5b906000526020600020906006020160020160016101000a81548160ff02191690836002811115610d1457610d13612bfd565b5b021790555050565b60026004811115610d3057610d2f612bfd565b5b600260003373ffffffffffffffffffffffffffffffffffffffff1673ffffffffffffffffffffffffffffffffffffffff16815260200190815260200160002060000160009054906101000a900460ff166004811115610d9257610d91612bfd565b5b1015610dd3576040517f08c379a0000000000000000000000000000000000000000000000000000000008152600401610dca906135b0565b60405180910390fd5b60026004811115610de757610de6612bfd565b5b600260008373ffffffffffffffffffffffffffffffffffffffff1673ffffffffffffffffffffffffffffffffffffffff16815260200190815260200160002060000160009054906101000a900460ff166004811115610e4957610e48612bfd565b5b1015610e8a576040517f08c379a0000000000000000000000000000000000000000000000000000000008152600401610e8190613642565b60405180910390fd5b600073ffffffffffffffffffffffffffffffffffffffff16600260003373ffffffffffffffffffffffffffffffffffffffff1673ffffffffffffffffffffffffffffffffffffffff16815260200190815260200160002060000160019054906101000a900473ffffffffffffffffffffffffffffffffffffffff1673ffffffffffffffffffffffffffffffffffffffff1603610f5b576040517f08c379a0000000000000000000000000000000000000000000000000000000008152600401610f52906136d4565b60405180910390fd5b600073ffffffffffffffffffffffffffffffffffffffff16600260008373ffffffffffffffffffffffffffffffffffffffff1673ffffffffffffffffffffffffffffffffffffffff16815260200190815260200160002060000160019054906101000a900473ffffffffffffffffffffffffffffffffffffffff1673ffffffffffffffffffffffffffffffffffffffff1614806110865750600073ffffffffffffffffffffffffffffffffffffffff16600260008373ffffffffffffffffffffffffffffffffffffffff1673ffffffffffffffffffffffffffffffffffffffff16815260200190815260200160002060010160009054906101000a900473ffffffffffffffffffffffffffffffffffffffff1673ffffffffffffffffffffffffffffffffffffffff16145b6110c5576040517f08c379a00000000000000000000000000000000000000000000000000000000081526004016110bc9061378c565b60405180910390fd5b6110cd612820565b61110c576040517f08c379a00000000000000000000000000000000000000000000000000000000081526004016111039061381e565b60405180910390fd5b611118338260016128b9565b50565b60006001600481111561113157611130612bfd565b5b600260003373ffffffffffffffffffffffffffffffffffffffff1673ffffffffffffffffffffffffffffffffffffffff16815260200190815260200160002060000160009054906101000a900460ff16600481111561119357611192612bfd565b5b10156111d4576040517f08c379a00000000000000000000000000000000000000000000000000000000081526004016111cb906138b0565b60405180910390fd5b6111dc612820565b61121b576040517f08c379a000000000000000000000000000000000000000000000000000000000815260040161121290613942565b60405180910390fd5b60006004600181600181540180825580915050039060005260206000209060060201905060005481600001819055508281600101908161125b9190613b79565b5060008160020160006101000a81548160ff0219169083600181111561128457611283612bfd565b5b021790555060008160020160016101000a81548160ff021916908360028111156112b1576112b0612bfd565b5b021790555060008160030160018160018154018082558091505003906000526020600020906002020190506040518060400160405280600381526020017f79657300000000000000000000000000000000000000000000000000000000008152508160000190816113229190613b79565b506000816001018190555060008260030160018160018154018082558091505003906000526020600020906002020190506040518060400160405280600281526020017f6e6f0000000000000000000000000000000000000000000000000000000000008152508160000190816113999190613b79565b506000816001018190555060008360030160018160018154018082558091505003906000526020600020906002020190506040518060400160405280600781526020017f6162737461696e000000000000000000000000000000000000000000000000008152508160000190816114109190613b79565b506000816001018190555083600501339080600181540180825580915050600190039060005260206000200160009091909190916101000a81548173ffffffffffffffffffffffffffffffffffffffff021916908373ffffffffffffffffffffffffffffffffffffffff16021790555060008081548092919061149290613268565b91905055508360000154945050505050919050565b6000600360048111156114bd576114bc612bfd565b5b600260003373ffffffffffffffffffffffffffffffffffffffff1673ffffffffffffffffffffffffffffffffffffffff16815260200190815260200160002060000160009054906101000a900460ff16600481111561151f5761151e612bfd565b5b1015611560576040517f08c379a000000000000000000000000000000000000000000000000000000000815260040161155790613cbd565b60405180910390fd5b600073ffffffffffffffffffffffffffffffffffffffff16600260003373ffffffffffffffffffffffffffffffffffffffff1673ffffffffffffffffffffffffffffffffffffffff16815260200190815260200160002060000160019054906101000a900473ffffffffffffffffffffffffffffffffffffffff1673ffffffffffffffffffffffffffffffffffffffff16148061168b5750600073ffffffffffffffffffffffffffffffffffffffff16600260003373ffffffffffffffffffffffffffffffffffffffff1673ffffffffffffffffffffffffffffffffffffffff16815260200190815260200160002060010160009054906101000a900473ffffffffffffffffffffffffffffffffffffffff1673ffffffffffffffffffffffffffffffffffffffff16145b6116ca576040517f08c379a00000000000000000000000000000000000000000000000000000000081526004016116c190613d4f565b60405180910390fd5b3373ffffffffffffffffffffffffffffffffffffffff16600260003373ffffffffffffffffffffffffffffffffffffffff1673ffffffffffffffffffffffffffffffffffffffff16815260200190815260200160002060000160019054906101000a900473ffffffffffffffffffffffffffffffffffffffff1673ffffffffffffffffffffffffffffffffffffffff16141580156117f657503373ffffffffffffffffffffffffffffffffffffffff16600260003373ffffffffffffffffffffffffffffffffffffffff1673ffffffffffffffffffffffffffffffffffffffff16815260200190815260200160002060010160009054906101000a900473ffffffffffffffffffffffffffffffffffffffff1673ffffffffffffffffffffffffffffffffffffffff1614155b611835576040517f08c379a000000000000000000000000000000000000000000000000000000000815260040161182c90613de1565b60405180910390fd5b60005b600380549050811015611aa6573373ffffffffffffffffffffffffffffffffffffffff16600260006003848154811061187457611873613178565b5b9060005260206000200160009054906101000a900473ffffffffffffffffffffffffffffffffffffffff1673ffffffffffffffffffffffffffffffffffffffff1673ffffffffffffffffffffffffffffffffffffffff16815260200190815260200160002060000160019054906101000a900473ffffffffffffffffffffffffffffffffffffffff1673ffffffffffffffffffffffffffffffffffffffff160361196c576119626003828154811061192f5761192e613178565b5b9060005260206000200160009054906101000a900473ffffffffffffffffffffffffffffffffffffffff163360016128b9565b6001915050611aac565b3373ffffffffffffffffffffffffffffffffffffffff16600260006003848154811061199b5761199a613178565b5b9060005260206000200160009054906101000a900473ffffffffffffffffffffffffffffffffffffffff1673ffffffffffffffffffffffffffffffffffffffff1673ffffffffffffffffffffffffffffffffffffffff16815260200190815260200160002060010160009054906101000a900473ffffffffffffffffffffffffffffffffffffffff1673ffffffffffffffffffffffffffffffffffffffff1603611a9357611a8960038281548110611a5657611a55613178565b5b9060005260206000200160009054906101000a900473ffffffffffffffffffffffffffffffffffffffff163360026128b9565b6001915050611aac565b8080611a9e90613268565b915050611838565b50600090505b90565b60005481565b60026004811115611ac957611ac8612bfd565b5b600260003373ffffffffffffffffffffffffffffffffffffffff1673ffffffffffffffffffffffffffffffffffffffff16815260200190815260200160002060000160009054906101000a900460ff166004811115611b2b57611b2a612bfd565b5b1015611b6c576040517f08c379a0000000000000000000000000000000000000000000000000000000008152600401611b6390613e73565b60405180910390fd5b60016002811115611b8057611b7f612bfd565b5b60048381548110611b9457611b93613178565b5b906000526020600020906006020160020160019054906101000a900460ff166002811115611bc557611bc4612bfd565b5b14611c05576040517f08c379a0000000000000000000000000000000000000000000000000000000008152600401611bfc90613edf565b60405180910390fd5b600073ffffffffffffffffffffffffffffffffffffffff16600260003373ffffffffffffffffffffffffffffffffffffffff1673ffffffffffffffffffffffffffffffffffffffff16815260200190815260200160002060000160019054906101000a900473ffffffffffffffffffffffffffffffffffffffff1673ffffffffffffffffffffffffffffffffffffffff16141580611d325750600073ffffffffffffffffffffffffffffffffffffffff16600260003373ffffffffffffffffffffffffffffffffffffffff1673ffffffffffffffffffffffffffffffffffffffff16815260200190815260200160002060010160009054906101000a900473ffffffffffffffffffffffffffffffffffffffff1673ffffffffffffffffffffffffffffffffffffffff1614155b611d71576040517f08c379a0000000000000000000000000000000000000000000000000000000008152600401611d6890613f71565b60405180910390fd5b600073ffffffffffffffffffffffffffffffffffffffff16600260003373ffffffffffffffffffffffffffffffffffffffff1673ffffffffffffffffffffffffffffffffffffffff16815260200190815260200160002060000160019054906101000a900473ffffffffffffffffffffffffffffffffffffffff1673ffffffffffffffffffffffffffffffffffffffff1614158015611f215750611f2060048381548110611e2257611e21613178565b5b9060005260206000209060060201600401805480602002602001604051908101604052809291908181526020018280548015611eb357602002820191906000526020600020905b8160009054906101000a900473ffffffffffffffffffffffffffffffffffffffff1673ffffffffffffffffffffffffffffffffffffffff1681526020019060010190808311611e69575b5050505050600260003373ffffffffffffffffffffffffffffffffffffffff1673ffffffffffffffffffffffffffffffffffffffff16815260200190815260200160002060000160019054906101000a900473ffffffffffffffffffffffffffffffffffffffff16612799565b5b806120d85750600073ffffffffffffffffffffffffffffffffffffffff16600260003373ffffffffffffffffffffffffffffffffffffffff1673ffffffffffffffffffffffffffffffffffffffff16815260200190815260200160002060010160009054906101000a900473ffffffffffffffffffffffffffffffffffffffff1673ffffffffffffffffffffffffffffffffffffffff16141580156120d757506120d660048381548110611fd857611fd7613178565b5b906000526020600020906006020160040180548060200260200160405190810160405280929190818152602001828054801561206957602002820191906000526020600020905b8160009054906101000a900473ffffffffffffffffffffffffffffffffffffffff1673ffffffffffffffffffffffffffffffffffffffff168152602001906001019080831161201f575b5050505050600260003373ffffffffffffffffffffffffffffffffffffffff1673ffffffffffffffffffffffffffffffffffffffff16815260200190815260200160002060010160009054906101000a900473ffffffffffffffffffffffffffffffffffffffff16612799565b5b5b612117576040517f08c379a000000000000000000000000000000000000000000000000000000000815260040161210e90613fdd565b60405180910390fd5b600073ffffffffffffffffffffffffffffffffffffffff16600260003373ffffffffffffffffffffffffffffffffffffffff1673ffffffffffffffffffffffffffffffffffffffff16815260200190815260200160002060000160019054906101000a900473ffffffffffffffffffffffffffffffffffffffff1673ffffffffffffffffffffffffffffffffffffffff16141580156122c757506122c6600483815481106121c8576121c7613178565b5b906000526020600020906006020160040180548060200260200160405190810160405280929190818152602001828054801561225957602002820191906000526020600020905b8160009054906101000a900473ffffffffffffffffffffffffffffffffffffffff1673ffffffffffffffffffffffffffffffffffffffff168152602001906001019080831161220f575b5050505050600260003373ffffffffffffffffffffffffffffffffffffffff1673ffffffffffffffffffffffffffffffffffffffff16815260200190815260200160002060000160019054906101000a900473ffffffffffffffffffffffffffffffffffffffff16612799565b5b1561241357600482815481106122e0576122df613178565b5b9060005260206000209060060201600401600260003373ffffffffffffffffffffffffffffffffffffffff1673ffffffffffffffffffffffffffffffffffffffff16815260200190815260200160002060000160019054906101000a900473ffffffffffffffffffffffffffffffffffffffff169080600181540180825580915050600190039060005260206000200160009091909190916101000a81548173ffffffffffffffffffffffffffffffffffffffff021916908373ffffffffffffffffffffffffffffffffffffffff160217905550600482815481106123c8576123c7613178565b5b906000526020600020906006020160030181815481106123eb576123ea613178565b5b9060005260206000209060020201600101600081548092919061240d90613268565b91905055505b600073ffffffffffffffffffffffffffffffffffffffff16600260003373ffffffffffffffffffffffffffffffffffffffff1673ffffffffffffffffffffffffffffffffffffffff16815260200190815260200160002060010160009054906101000a900473ffffffffffffffffffffffffffffffffffffffff1673ffffffffffffffffffffffffffffffffffffffff16141580156125c357506125c2600483815481106124c4576124c3613178565b5b906000526020600020906006020160040180548060200260200160405190810160405280929190818152602001828054801561255557602002820191906000526020600020905b8160009054906101000a900473ffffffffffffffffffffffffffffffffffffffff1673ffffffffffffffffffffffffffffffffffffffff168152602001906001019080831161250b575b5050505050600260003373ffffffffffffffffffffffffffffffffffffffff1673ffffffffffffffffffffffffffffffffffffffff16815260200190815260200160002060010160009054906101000a900473ffffffffffffffffffffffffffffffffffffffff16612799565b5b1561270f57600482815481106125dc576125db613178565b5b9060005260206000209060060201600401600260003373ffffffffffffffffffffffffffffffffffffffff1673ffffffffffffffffffffffffffffffffffffffff16815260200190815260200160002060010160009054906101000a900473ffffffffffffffffffffffffffffffffffffffff169080600181540180825580915050600190039060005260206000200160009091909190916101000a81548173ffffffffffffffffffffffffffffffffffffffff021916908373ffffffffffffffffffffffffffffffffffffffff160217905550600482815481106126c4576126c3613178565b5b906000526020600020906006020160030181815481106126e7576126e6613178565b5b9060005260206000209060020201600101600081548092919061270990613268565b91905055505b6001546004838154811061272657612725613178565b5b9060005260206000209060060201600401805490501061278f5760026004838154811061275657612755613178565b5b906000526020600020906006020160020160016101000a81548160ff0219169083600281111561278957612788612bfd565b5b02179055505b5050565b60015481565b600080600090505b8351811015612814578273ffffffffffffffffffffffffffffffffffffffff168482815181106127d4576127d3613178565b5b602002602001015173ffffffffffffffffffffffffffffffffffffffff160361280157600091505061281a565b808061280c90613268565b9150506127a1565b50600190505b92915050565b600080600090505b6004805490508110156128b0576001600281111561284957612848612bfd565b5b6004828154811061285d5761285c613178565b5b906000526020600020906006020160020160019054906101000a900460ff16600281111561288e5761288d612bfd565b5b0361289d5760009150506128b6565b80806128a890613268565b915050612828565b50600190505b90565b60018114806128c85750600281145b6128d157600080fd5b600073ffffffffffffffffffffffffffffffffffffffff16600260008473ffffffffffffffffffffffffffffffffffffffff1673ffffffffffffffffffffffffffffffffffffffff16815260200190815260200160002060000160019054906101000a900473ffffffffffffffffffffffffffffffffffffffff1673ffffffffffffffffffffffffffffffffffffffff16036129ed5782600260008473ffffffffffffffffffffffffffffffffffffffff1673ffffffffffffffffffffffffffffffffffffffff16815260200190815260200160002060000160016101000a81548173ffffffffffffffffffffffffffffffffffffffff021916908373ffffffffffffffffffffffffffffffffffffffff160217905550612a6f565b82600260008473ffffffffffffffffffffffffffffffffffffffff1673ffffffffffffffffffffffffffffffffffffffff16815260200190815260200160002060010160006101000a81548173ffffffffffffffffffffffffffffffffffffffff021916908373ffffffffffffffffffffffffffffffffffffffff1602179055505b60018103612afa576000600260008573ffffffffffffffffffffffffffffffffffffffff1673ffffffffffffffffffffffffffffffffffffffff16815260200190815260200160002060000160016101000a81548173ffffffffffffffffffffffffffffffffffffffff021916908373ffffffffffffffffffffffffffffffffffffffff1602179055505b505050565b604051806060016040528060006004811115612b1e57612b1d612bfd565b5b8152602001600073ffffffffffffffffffffffffffffffffffffffff168152602001600073ffffffffffffffffffffffffffffffffffffffff1681525090565b6000604051905090565b600080fd5b600080fd5b600073ffffffffffffffffffffffffffffffffffffffff82169050919050565b6000612b9d82612b72565b9050919050565b612bad81612b92565b8114612bb857600080fd5b50565b600081359050612bca81612ba4565b92915050565b600060208284031215612be657612be5612b68565b5b6000612bf484828501612bbb565b91505092915050565b7f4e487b7100000000000000000000000000000000000000000000000000000000600052602160045260246000fd5b60058110612c3d57612c3c612bfd565b5b50565b6000819050612c4e82612c2c565b919050565b6000612c5e82612c40565b9050919050565b612c6e81612c53565b82525050565b612c7d81612b92565b82525050565b6000606082019050612c986000830186612c65565b612ca56020830185612c74565b612cb26040830184612c74565b949350505050565b6000819050919050565b612ccd81612cba565b8114612cd857600080fd5b50565b600081359050612cea81612cc4565b92915050565b600060208284031215612d0657612d05612b68565b5b6000612d1484828501612cdb565b91505092915050565b60008115159050919050565b612d3281612d1d565b82525050565b6000602082019050612d4d6000830184612d29565b92915050565b60058110612d6057600080fd5b50565b600081359050612d7281612d53565b92915050565b60008060408385031215612d8f57612d8e612b68565b5b6000612d9d85828601612d63565b9250506020612dae85828601612bbb565b9150509250929050565b600080fd5b600080fd5b6000601f19601f8301169050919050565b7f4e487b7100000000000000000000000000000000000000000000000000000000600052604160045260246000fd5b612e0b82612dc2565b810181811067ffffffffffffffff82111715612e2a57612e29612dd3565b5b80604052505050565b6000612e3d612b5e565b9050612e498282612e02565b919050565b600067ffffffffffffffff821115612e6957612e68612dd3565b5b612e7282612dc2565b9050602081019050919050565b82818337600083830152505050565b6000612ea1612e9c84612e4e565b612e33565b905082815260208101848484011115612ebd57612ebc612dbd565b5b612ec8848285612e7f565b509392505050565b600082601f830112612ee557612ee4612db8565b5b8135612ef5848260208601612e8e565b91505092915050565b600060208284031215612f1457612f13612b68565b5b600082013567ffffffffffffffff811115612f3257612f31612b6d565b5b612f3e84828501612ed0565b91505092915050565b612f5081612cba565b82525050565b6000602082019050612f6b6000830184612f47565b92915050565b60008060408385031215612f8857612f87612b68565b5b6000612f9685828601612cdb565b9250506020612fa785828601612cdb565b9150509250929050565b600067ffffffffffffffff821115612fcc57612fcb612dd3565b5b602082029050602081019050919050565b600080fd5b6000612ff5612ff084612fb1565b612e33565b9050808382526020820190506020840283018581111561301857613017612fdd565b5b835b81811015613041578061302d8882612bbb565b84526020840193505060208101905061301a565b5050509392505050565b600082601f8301126130605761305f612db8565b5b8135613070848260208601612fe2565b91505092915050565b600080604083850312156130905761308f612b68565b5b600083013567ffffffffffffffff8111156130ae576130ad612b6d565b5b6130ba8582860161304b565b92505060206130cb85828601612bbb565b9150509250929050565b600082825260208201905092915050565b7f4f6e6c79207061727479206d656d626572732063616e20696e697469616c6c7960008201527f20737570706f7274206120726567756c6172206d6f74696f6e2e000000000000602082015250565b6000613142603a836130d5565b915061314d826130e6565b604082019050919050565b6000602082019050818103600083015261317181613135565b9050919050565b7f4e487b7100000000000000000000000000000000000000000000000000000000600052603260045260246000fd5b7f41206d656d6265722063616e206f6e6c79206f6e636520737570706f7274206160008201527f20726567756c6172206d6f74696f6e20696e697469616c6c792e000000000000602082015250565b6000613203603a836130d5565b915061320e826131a7565b604082019050919050565b60006020820190508181036000830152613232816131f6565b9050919050565b7f4e487b7100000000000000000000000000000000000000000000000000000000600052601160045260246000fd5b600061327382612cba565b91507fffffffffffffffffffffffffffffffffffffffffffffffffffffffffffffffff82036132a5576132a4613239565b5b600182019050919050565b7f4f6e6c792061646d696e732063616e20616464206e657720636f6e76656e746960008201527f6f6e207061727469636970616e74732e00000000000000000000000000000000602082015250565b600061330c6030836130d5565b9150613317826132b0565b604082019050919050565b6000602082019050818103600083015261333b816132ff565b9050919050565b7f546865205061727469636970616e742077617320616c7265616479206164646560008201527f6420616e6420686f6c647320766f74696e67207269676874732e000000000000602082015250565b600061339e603a836130d5565b91506133a982613342565b604082019050919050565b600060208201905081810360008301526133cd81613391565b9050919050565b7f43616e206e6f7420616464206e6577207061727469636970616e74732077686960008201527f6c6520766f74696e6720697320676f696e67206f6e2e00000000000000000000602082015250565b60006134306036836130d5565b915061343b826133d4565b604082019050919050565b6000602082019050818103600083015261345f81613423565b9050919050565b7f4f6e6c792061646d696e732063616e20636c6f7365206d6f74696f6e732e0000600082015250565b600061349c601e836130d5565b91506134a782613466565b602082019050919050565b600060208201905081810360008301526134cb8161348f565b9050919050565b7f4f6e6c79206f70656e206d6f74696f6e732063616e20626520636c6f7365642e600082015250565b60006135086020836130d5565b9150613513826134d2565b602082019050919050565b60006020820190508181036000830152613537816134fb565b9050919050565b7f4f6e6c7920287265706c6163656d656e742964656c6567617465732063616e2060008201527f7472616e7366657220766f74696e67207269676874732e000000000000000000602082015250565b600061359a6037836130d5565b91506135a58261353e565b604082019050919050565b600060208201905081810360008301526135c98161358d565b9050919050565b7f4f6e6c7920287265706c6163656d656e742964656c6567617465732063616e2060008201527f7265636569766520766f74696e67207269676874732e00000000000000000000602082015250565b600061362c6036836130d5565b9150613637826135d0565b604082019050919050565b6000602082019050818103600083015261365b8161361f565b9050919050565b7f4d6573736167652073656e64657220646f6573206e6f7420686f6c6420616e7960008201527f20766f74696e6720726967687420312e00000000000000000000000000000000602082015250565b60006136be6030836130d5565b91506136c982613662565b604082019050919050565b600060208201905081810360008301526136ed816136b1565b9050919050565b7f526563656976696e6720287265706c6163656d656e742964656c65676174652060008201527f68617320616c726561647920322061637469766520766f74696e67207269676860208201527f7473000000000000000000000000000000000000000000000000000000000000604082015250565b60006137766042836130d5565b9150613781826136f4565b606082019050919050565b600060208201905081810360008301526137a581613769565b9050919050565b7f43616e206e6f74207472616e7366657220766f74657320647572696e67206f7060008201527f656e20766f74696e672070726f63657373657300000000000000000000000000602082015250565b60006138086033836130d5565b9150613813826137ac565b604082019050919050565b60006020820190508181036000830152613837816137fb565b9050919050565b7f4f6e6c79207061727479206d656d626572732063616e2063726561746520612060008201527f726567756c6172206d6f74696f6e2e0000000000000000000000000000000000602082015250565b600061389a602f836130d5565b91506138a58261383e565b604082019050919050565b600060208201905081810360008301526138c98161388d565b9050919050565b7f43616e206e6f7420637265617465206e6577206d6f74696f6e73207768696c6560008201527f20766f74696e6720697320676f696e67206f6e2e000000000000000000000000602082015250565b600061392c6034836130d5565b9150613937826138d0565b604082019050919050565b6000602082019050818103600083015261395b8161391f565b9050919050565b600081519050919050565b7f4e487b7100000000000000000000000000000000000000000000000000000000600052602260045260246000fd5b600060028204905060018216806139b457607f821691505b6020821081036139c7576139c661396d565b5b50919050565b60008190508160005260206000209050919050565b60006020601f8301049050919050565b600082821b905092915050565b600060088302613a2f7fffffffffffffffffffffffffffffffffffffffffffffffffffffffffffffffff826139f2565b613a3986836139f2565b95508019841693508086168417925050509392505050565b6000819050919050565b6000613a76613a71613a6c84612cba565b613a51565b612cba565b9050919050565b6000819050919050565b613a9083613a5b565b613aa4613a9c82613a7d565b8484546139ff565b825550505050565b600090565b613ab9613aac565b613ac4818484613a87565b505050565b5b81811015613ae857613add600082613ab1565b600181019050613aca565b5050565b601f821115613b2d57613afe816139cd565b613b07846139e2565b81016020851015613b16578190505b613b2a613b22856139e2565b830182613ac9565b50505b505050565b600082821c905092915050565b6000613b5060001984600802613b32565b1980831691505092915050565b6000613b698383613b3f565b9150826002028217905092915050565b613b8282613962565b67ffffffffffffffff811115613b9b57613b9a612dd3565b5b613ba5825461399c565b613bb0828285613aec565b600060209050601f831160018114613be35760008415613bd1578287015190505b613bdb8582613b5d565b865550613c43565b601f198416613bf1866139cd565b60005b82811015613c1957848901518255600182019150602085019450602081019050613bf4565b86831015613c365784890151613c32601f891682613b3f565b8355505b6001600288020188555050505b505050505050565b7f4f6e6c792064656c6567617465732063616e207265636c61696d20746865697260008201527f206f726967696e616c20766f74696e672072696768742e000000000000000000602082015250565b6000613ca76037836130d5565b9150613cb282613c4b565b604082019050919050565b60006020820190508181036000830152613cd681613c9a565b9050919050565b7f5265636c61696d657220616c726561647920686f6c647320322061637469766560008201527f20766f74696e6720726967687473000000000000000000000000000000000000602082015250565b6000613d39602e836130d5565b9150613d4482613cdd565b604082019050919050565b60006020820190508181036000830152613d6881613d2c565b9050919050565b7f5265636c61696d657220616c726561647920686f6c6473206869732f6865722060008201527f6f726967696e616c20766f74696e672072696768740000000000000000000000602082015250565b6000613dcb6035836130d5565b9150613dd682613d6f565b604082019050919050565b60006020820190508181036000830152613dfa81613dbe565b9050919050565b7f4f6e6c7920287265706c6163656d656e742964656c6567617465732063616e2060008201527f6361737420766f7465732e000000000000000000000000000000000000000000602082015250565b6000613e5d602b836130d5565b9150613e6882613e01565b604082019050919050565b60006020820190508181036000830152613e8c81613e50565b9050919050565b7f4d6f74696f6e206973206e6f74206f70656e20666f7220766f74696e672e0000600082015250565b6000613ec9601e836130d5565b9150613ed482613e93565b602082019050919050565b60006020820190508181036000830152613ef881613ebc565b9050919050565b7f4e6f2061637469766520766f74696e67207269676874732068656c642062792060008201527f73656e6465720000000000000000000000000000000000000000000000000000602082015250565b6000613f5b6026836130d5565b9150613f6682613eff565b604082019050919050565b60006020820190508181036000830152613f8a81613f4e565b9050919050565b7f566f7465287329207765726520616c7265616479206361737400000000000000600082015250565b6000613fc76019836130d5565b9150613fd282613f91565b602082019050919050565b60006020820190508181036000830152613ff681613fba565b905091905056fea2646970667358221220cf0cfa496125c76125918f6b7f76b991f503d6de73116b186ed9bc12b06599da64736f6c63430008130033",
					"opcodes": "PUSH1 0x80 PUSH1 0x40 MSTORE PUSH1 0x0 DUP1 SSTORE PUSH1 0x0 PUSH1 0x1 SSTORE CALLVALUE DUP1 ISZERO PUSH3 0x1A JUMPI PUSH1 0x0 DUP1 REVERT JUMPDEST POP PUSH3 0x25 PUSH3 0x21C JUMP JUMPDEST PUSH1 0x4 DUP2 PUSH1 0x0 ADD SWAP1 PUSH1 0x4 DUP2 GT ISZERO PUSH3 0x41 JUMPI PUSH3 0x40 PUSH3 0x27E JUMP JUMPDEST JUMPDEST SWAP1 DUP2 PUSH1 0x4 DUP2 GT ISZERO PUSH3 0x58 JUMPI PUSH3 0x57 PUSH3 0x27E JUMP JUMPDEST JUMPDEST DUP2 MSTORE POP POP CALLER DUP2 PUSH1 0x20 ADD SWAP1 PUSH20 0xFFFFFFFFFFFFFFFFFFFFFFFFFFFFFFFFFFFFFFFF AND SWAP1 DUP2 PUSH20 0xFFFFFFFFFFFFFFFFFFFFFFFFFFFFFFFFFFFFFFFF AND DUP2 MSTORE POP POP DUP1 PUSH1 0x2 PUSH1 0x0 CALLER PUSH20 0xFFFFFFFFFFFFFFFFFFFFFFFFFFFFFFFFFFFFFFFF AND PUSH20 0xFFFFFFFFFFFFFFFFFFFFFFFFFFFFFFFFFFFFFFFF AND DUP2 MSTORE PUSH1 0x20 ADD SWAP1 DUP2 MSTORE PUSH1 0x20 ADD PUSH1 0x0 KECCAK256 PUSH1 0x0 DUP3 ADD MLOAD DUP2 PUSH1 0x0 ADD PUSH1 0x0 PUSH2 0x100 EXP DUP2 SLOAD DUP2 PUSH1 0xFF MUL NOT AND SWAP1 DUP4 PUSH1 0x4 DUP2 GT ISZERO PUSH3 0x102 JUMPI PUSH3 0x101 PUSH3 0x27E JUMP JUMPDEST JUMPDEST MUL OR SWAP1 SSTORE POP PUSH1 0x20 DUP3 ADD MLOAD DUP2 PUSH1 0x0 ADD PUSH1 0x1 PUSH2 0x100 EXP DUP2 SLOAD DUP2 PUSH20 0xFFFFFFFFFFFFFFFFFFFFFFFFFFFFFFFFFFFFFFFF MUL NOT AND SWAP1 DUP4 PUSH20 0xFFFFFFFFFFFFFFFFFFFFFFFFFFFFFFFFFFFFFFFF AND MUL OR SWAP1 SSTORE POP PUSH1 0x40 DUP3 ADD MLOAD DUP2 PUSH1 0x1 ADD PUSH1 0x0 PUSH2 0x100 EXP DUP2 SLOAD DUP2 PUSH20 0xFFFFFFFFFFFFFFFFFFFFFFFFFFFFFFFFFFFFFFFF MUL NOT AND SWAP1 DUP4 PUSH20 0xFFFFFFFFFFFFFFFFFFFFFFFFFFFFFFFFFFFFFFFF AND MUL OR SWAP1 SSTORE POP SWAP1 POP POP PUSH1 0x3 CALLER SWAP1 DUP1 PUSH1 0x1 DUP2 SLOAD ADD DUP1 DUP3 SSTORE DUP1 SWAP2 POP POP PUSH1 0x1 SWAP1 SUB SWAP1 PUSH1 0x0 MSTORE PUSH1 0x20 PUSH1 0x0 KECCAK256 ADD PUSH1 0x0 SWAP1 SWAP2 SWAP1 SWAP2 SWAP1 SWAP2 PUSH2 0x100 EXP DUP2 SLOAD DUP2 PUSH20 0xFFFFFFFFFFFFFFFFFFFFFFFFFFFFFFFFFFFFFFFF MUL NOT AND SWAP1 DUP4 PUSH20 0xFFFFFFFFFFFFFFFFFFFFFFFFFFFFFFFFFFFFFFFF AND MUL OR SWAP1 SSTORE POP PUSH1 0x1 PUSH1 0x0 DUP2 SLOAD DUP1 SWAP3 SWAP2 SWAP1 PUSH3 0x210 SWAP1 PUSH3 0x2E6 JUMP JUMPDEST SWAP2 SWAP1 POP SSTORE POP POP PUSH3 0x333 JUMP JUMPDEST PUSH1 0x40 MLOAD DUP1 PUSH1 0x60 ADD PUSH1 0x40 MSTORE DUP1 PUSH1 0x0 PUSH1 0x4 DUP2 GT ISZERO PUSH3 0x23E JUMPI PUSH3 0x23D PUSH3 0x27E JUMP JUMPDEST JUMPDEST DUP2 MSTORE PUSH1 0x20 ADD PUSH1 0x0 PUSH20 0xFFFFFFFFFFFFFFFFFFFFFFFFFFFFFFFFFFFFFFFF AND DUP2 MSTORE PUSH1 0x20 ADD PUSH1 0x0 PUSH20 0xFFFFFFFFFFFFFFFFFFFFFFFFFFFFFFFFFFFFFFFF AND DUP2 MSTORE POP SWAP1 JUMP JUMPDEST PUSH32 0x4E487B7100000000000000000000000000000000000000000000000000000000 PUSH1 0x0 MSTORE PUSH1 0x21 PUSH1 0x4 MSTORE PUSH1 0x24 PUSH1 0x0 REVERT JUMPDEST PUSH32 0x4E487B7100000000000000000000000000000000000000000000000000000000 PUSH1 0x0 MSTORE PUSH1 0x11 PUSH1 0x4 MSTORE PUSH1 0x24 PUSH1 0x0 REVERT JUMPDEST PUSH1 0x0 DUP2 SWAP1 POP SWAP2 SWAP1 POP JUMP JUMPDEST PUSH1 0x0 PUSH3 0x2F3 DUP3 PUSH3 0x2DC JUMP JUMPDEST SWAP2 POP PUSH32 0xFFFFFFFFFFFFFFFFFFFFFFFFFFFFFFFFFFFFFFFFFFFFFFFFFFFFFFFFFFFFFFFF DUP3 SUB PUSH3 0x328 JUMPI PUSH3 0x327 PUSH3 0x2AD JUMP JUMPDEST JUMPDEST PUSH1 0x1 DUP3 ADD SWAP1 POP SWAP2 SWAP1 POP JUMP JUMPDEST PUSH2 0x4033 DUP1 PUSH3 0x343 PUSH1 0x0 CODECOPY PUSH1 0x0 RETURN INVALID PUSH1 0x80 PUSH1 0x40 MSTORE CALLVALUE DUP1 ISZERO PUSH2 0x10 JUMPI PUSH1 0x0 DUP1 REVERT JUMPDEST POP PUSH1 0x4 CALLDATASIZE LT PUSH2 0xB4 JUMPI PUSH1 0x0 CALLDATALOAD PUSH1 0xE0 SHR DUP1 PUSH4 0xBD7BB654 GT PUSH2 0x71 JUMPI DUP1 PUSH4 0xBD7BB654 EQ PUSH2 0x18B JUMPI DUP1 PUSH4 0xD5506819 EQ PUSH2 0x1BB JUMPI DUP1 PUSH4 0xECD2713A EQ PUSH2 0x1D9 JUMPI DUP1 PUSH4 0xF513EDB4 EQ PUSH2 0x1F7 JUMPI DUP1 PUSH4 0xFC14EBBB EQ PUSH2 0x213 JUMPI DUP1 PUSH4 0xFEA2FA6A EQ PUSH2 0x231 JUMPI PUSH2 0xB4 JUMP JUMPDEST DUP1 PUSH4 0x9E69EDE EQ PUSH2 0xB9 JUMPI DUP1 PUSH4 0x31B47842 EQ PUSH2 0xEB JUMPI DUP1 PUSH4 0x8A022B9C EQ PUSH2 0x107 JUMPI DUP1 PUSH4 0x8DE2FC3A EQ PUSH2 0x137 JUMPI DUP1 PUSH4 0x9084F1F9 EQ PUSH2 0x153 JUMPI DUP1 PUSH4 0xA00F0236 EQ PUSH2 0x16F JUMPI JUMPDEST PUSH1 0x0 DUP1 REVERT JUMPDEST PUSH2 0xD3 PUSH1 0x4 DUP1 CALLDATASIZE SUB DUP2 ADD SWAP1 PUSH2 0xCE SWAP2 SWAP1 PUSH2 0x2BD0 JUMP JUMPDEST PUSH2 0x261 JUMP JUMPDEST PUSH1 0x40 MLOAD PUSH2 0xE2 SWAP4 SWAP3 SWAP2 SWAP1 PUSH2 0x2C83 JUMP JUMPDEST PUSH1 0x40 MLOAD DUP1 SWAP2 SUB SWAP1 RETURN JUMPDEST PUSH2 0x105 PUSH1 0x4 DUP1 CALLDATASIZE SUB DUP2 ADD SWAP1 PUSH2 0x100 SWAP2 SWAP1 PUSH2 0x2CF0 JUMP JUMPDEST PUSH2 0x2D8 JUMP JUMPDEST STOP JUMPDEST PUSH2 0x121 PUSH1 0x4 DUP1 CALLDATASIZE SUB DUP2 ADD SWAP1 PUSH2 0x11C SWAP2 SWAP1 PUSH2 0x2CF0 JUMP JUMPDEST PUSH2 0x567 JUMP JUMPDEST PUSH1 0x40 MLOAD PUSH2 0x12E SWAP2 SWAP1 PUSH2 0x2D38 JUMP JUMPDEST PUSH1 0x40 MLOAD DUP1 SWAP2 SUB SWAP1 RETURN JUMPDEST PUSH2 0x151 PUSH1 0x4 DUP1 CALLDATASIZE SUB DUP2 ADD SWAP1 PUSH2 0x14C SWAP2 SWAP1 PUSH2 0x2D78 JUMP JUMPDEST PUSH2 0x6C9 JUMP JUMPDEST STOP JUMPDEST PUSH2 0x16D PUSH1 0x4 DUP1 CALLDATASIZE SUB DUP2 ADD SWAP1 PUSH2 0x168 SWAP2 SWAP1 PUSH2 0x2CF0 JUMP JUMPDEST PUSH2 0xB7D JUMP JUMPDEST STOP JUMPDEST PUSH2 0x189 PUSH1 0x4 DUP1 CALLDATASIZE SUB DUP2 ADD SWAP1 PUSH2 0x184 SWAP2 SWAP1 PUSH2 0x2BD0 JUMP JUMPDEST PUSH2 0xD1C JUMP JUMPDEST STOP JUMPDEST PUSH2 0x1A5 PUSH1 0x4 DUP1 CALLDATASIZE SUB DUP2 ADD SWAP1 PUSH2 0x1A0 SWAP2 SWAP1 PUSH2 0x2EFE JUMP JUMPDEST PUSH2 0x111B JUMP JUMPDEST PUSH1 0x40 MLOAD PUSH2 0x1B2 SWAP2 SWAP1 PUSH2 0x2F56 JUMP JUMPDEST PUSH1 0x40 MLOAD DUP1 SWAP2 SUB SWAP1 RETURN JUMPDEST PUSH2 0x1C3 PUSH2 0x14A7 JUMP JUMPDEST PUSH1 0x40 MLOAD PUSH2 0x1D0 SWAP2 SWAP1 PUSH2 0x2D38 JUMP JUMPDEST PUSH1 0x40 MLOAD DUP1 SWAP2 SUB SWAP1 RETURN JUMPDEST PUSH2 0x1E1 PUSH2 0x1AAF JUMP JUMPDEST PUSH1 0x40 MLOAD PUSH2 0x1EE SWAP2 SWAP1 PUSH2 0x2F56 JUMP JUMPDEST PUSH1 0x40 MLOAD DUP1 SWAP2 SUB SWAP1 RETURN JUMPDEST PUSH2 0x211 PUSH1 0x4 DUP1 CALLDATASIZE SUB DUP2 ADD SWAP1 PUSH2 0x20C SWAP2 SWAP1 PUSH2 0x2F71 JUMP JUMPDEST PUSH2 0x1AB5 JUMP JUMPDEST STOP JUMPDEST PUSH2 0x21B PUSH2 0x2793 JUMP JUMPDEST PUSH1 0x40 MLOAD PUSH2 0x228 SWAP2 SWAP1 PUSH2 0x2F56 JUMP JUMPDEST PUSH1 0x40 MLOAD DUP1 SWAP2 SUB SWAP1 RETURN JUMPDEST PUSH2 0x24B PUSH1 0x4 DUP1 CALLDATASIZE SUB DUP2 ADD SWAP1 PUSH2 0x246 SWAP2 SWAP1 PUSH2 0x3079 JUMP JUMPDEST PUSH2 0x2799 JUMP JUMPDEST PUSH1 0x40 MLOAD PUSH2 0x258 SWAP2 SWAP1 PUSH2 0x2D38 JUMP JUMPDEST PUSH1 0x40 MLOAD DUP1 SWAP2 SUB SWAP1 RETURN JUMPDEST PUSH1 0x2 PUSH1 0x20 MSTORE DUP1 PUSH1 0x0 MSTORE PUSH1 0x40 PUSH1 0x0 KECCAK256 PUSH1 0x0 SWAP2 POP SWAP1 POP DUP1 PUSH1 0x0 ADD PUSH1 0x0 SWAP1 SLOAD SWAP1 PUSH2 0x100 EXP SWAP1 DIV PUSH1 0xFF AND SWAP1 DUP1 PUSH1 0x0 ADD PUSH1 0x1 SWAP1 SLOAD SWAP1 PUSH2 0x100 EXP SWAP1 DIV PUSH20 0xFFFFFFFFFFFFFFFFFFFFFFFFFFFFFFFFFFFFFFFF AND SWAP1 DUP1 PUSH1 0x1 ADD PUSH1 0x0 SWAP1 SLOAD SWAP1 PUSH2 0x100 EXP SWAP1 DIV PUSH20 0xFFFFFFFFFFFFFFFFFFFFFFFFFFFFFFFFFFFFFFFF AND SWAP1 POP DUP4 JUMP JUMPDEST PUSH1 0x1 PUSH1 0x4 DUP2 GT ISZERO PUSH2 0x2EC JUMPI PUSH2 0x2EB PUSH2 0x2BFD JUMP JUMPDEST JUMPDEST PUSH1 0x2 PUSH1 0x0 CALLER PUSH20 0xFFFFFFFFFFFFFFFFFFFFFFFFFFFFFFFFFFFFFFFF AND PUSH20 0xFFFFFFFFFFFFFFFFFFFFFFFFFFFFFFFFFFFFFFFF AND DUP2 MSTORE PUSH1 0x20 ADD SWAP1 DUP2 MSTORE PUSH1 0x20 ADD PUSH1 0x0 KECCAK256 PUSH1 0x0 ADD PUSH1 0x0 SWAP1 SLOAD SWAP1 PUSH2 0x100 EXP SWAP1 DIV PUSH1 0xFF AND PUSH1 0x4 DUP2 GT ISZERO PUSH2 0x34E JUMPI PUSH2 0x34D PUSH2 0x2BFD JUMP JUMPDEST JUMPDEST LT ISZERO PUSH2 0x38F JUMPI PUSH1 0x40 MLOAD PUSH32 0x8C379A000000000000000000000000000000000000000000000000000000000 DUP2 MSTORE PUSH1 0x4 ADD PUSH2 0x386 SWAP1 PUSH2 0x3158 JUMP JUMPDEST PUSH1 0x40 MLOAD DUP1 SWAP2 SUB SWAP1 REVERT JUMPDEST PUSH2 0x442 PUSH1 0x4 DUP3 DUP2 SLOAD DUP2 LT PUSH2 0x3A6 JUMPI PUSH2 0x3A5 PUSH2 0x3178 JUMP JUMPDEST JUMPDEST SWAP1 PUSH1 0x0 MSTORE PUSH1 0x20 PUSH1 0x0 KECCAK256 SWAP1 PUSH1 0x6 MUL ADD PUSH1 0x5 ADD DUP1 SLOAD DUP1 PUSH1 0x20 MUL PUSH1 0x20 ADD PUSH1 0x40 MLOAD SWAP1 DUP2 ADD PUSH1 0x40 MSTORE DUP1 SWAP3 SWAP2 SWAP1 DUP2 DUP2 MSTORE PUSH1 0x20 ADD DUP3 DUP1 SLOAD DUP1 ISZERO PUSH2 0x437 JUMPI PUSH1 0x20 MUL DUP3 ADD SWAP2 SWAP1 PUSH1 0x0 MSTORE PUSH1 0x20 PUSH1 0x0 KECCAK256 SWAP1 JUMPDEST DUP2 PUSH1 0x0 SWAP1 SLOAD SWAP1 PUSH2 0x100 EXP SWAP1 DIV PUSH20 0xFFFFFFFFFFFFFFFFFFFFFFFFFFFFFFFFFFFFFFFF AND PUSH20 0xFFFFFFFFFFFFFFFFFFFFFFFFFFFFFFFFFFFFFFFF AND DUP2 MSTORE PUSH1 0x20 ADD SWAP1 PUSH1 0x1 ADD SWAP1 DUP1 DUP4 GT PUSH2 0x3ED JUMPI JUMPDEST POP POP POP POP POP CALLER PUSH2 0x2799 JUMP JUMPDEST PUSH2 0x481 JUMPI PUSH1 0x40 MLOAD PUSH32 0x8C379A000000000000000000000000000000000000000000000000000000000 DUP2 MSTORE PUSH1 0x4 ADD PUSH2 0x478 SWAP1 PUSH2 0x3219 JUMP JUMPDEST PUSH1 0x40 MLOAD DUP1 SWAP2 SUB SWAP1 REVERT JUMPDEST PUSH1 0x4 DUP2 DUP2 SLOAD DUP2 LT PUSH2 0x495 JUMPI PUSH2 0x494 PUSH2 0x3178 JUMP JUMPDEST JUMPDEST SWAP1 PUSH1 0x0 MSTORE PUSH1 0x20 PUSH1 0x0 KECCAK256 SWAP1 PUSH1 0x6 MUL ADD PUSH1 0x5 ADD CALLER SWAP1 DUP1 PUSH1 0x1 DUP2 SLOAD ADD DUP1 DUP3 SSTORE DUP1 SWAP2 POP POP PUSH1 0x1 SWAP1 SUB SWAP1 PUSH1 0x0 MSTORE PUSH1 0x20 PUSH1 0x0 KECCAK256 ADD PUSH1 0x0 SWAP1 SWAP2 SWAP1 SWAP2 SWAP1 SWAP2 PUSH2 0x100 EXP DUP2 SLOAD DUP2 PUSH20 0xFFFFFFFFFFFFFFFFFFFFFFFFFFFFFFFFFFFFFFFF MUL NOT AND SWAP1 DUP4 PUSH20 0xFFFFFFFFFFFFFFFFFFFFFFFFFFFFFFFFFFFFFFFF AND MUL OR SWAP1 SSTORE POP PUSH2 0x510 DUP2 PUSH2 0x567 JUMP JUMPDEST ISZERO PUSH2 0x564 JUMPI PUSH1 0x1 PUSH1 0x4 DUP3 DUP2 SLOAD DUP2 LT PUSH2 0x52B JUMPI PUSH2 0x52A PUSH2 0x3178 JUMP JUMPDEST JUMPDEST SWAP1 PUSH1 0x0 MSTORE PUSH1 0x20 PUSH1 0x0 KECCAK256 SWAP1 PUSH1 0x6 MUL ADD PUSH1 0x2 ADD PUSH1 0x1 PUSH2 0x100 EXP DUP2 SLOAD DUP2 PUSH1 0xFF MUL NOT AND SWAP1 DUP4 PUSH1 0x2 DUP2 GT ISZERO PUSH2 0x55E JUMPI PUSH2 0x55D PUSH2 0x2BFD JUMP JUMPDEST JUMPDEST MUL OR SWAP1 SSTORE POP JUMPDEST POP JUMP JUMPDEST PUSH1 0x0 DUP1 PUSH1 0x0 SWAP1 POP PUSH1 0x0 DUP1 JUMPDEST PUSH1 0x4 DUP6 DUP2 SLOAD DUP2 LT PUSH2 0x586 JUMPI PUSH2 0x585 PUSH2 0x3178 JUMP JUMPDEST JUMPDEST SWAP1 PUSH1 0x0 MSTORE PUSH1 0x20 PUSH1 0x0 KECCAK256 SWAP1 PUSH1 0x6 MUL ADD PUSH1 0x5 ADD DUP1 SLOAD SWAP1 POP DUP2 LT ISZERO PUSH2 0x6AE JUMPI PUSH1 0x3 PUSH1 0x4 DUP2 GT ISZERO PUSH2 0x5B6 JUMPI PUSH2 0x5B5 PUSH2 0x2BFD JUMP JUMPDEST JUMPDEST PUSH1 0x2 PUSH1 0x0 PUSH1 0x4 DUP9 DUP2 SLOAD DUP2 LT PUSH2 0x5CE JUMPI PUSH2 0x5CD PUSH2 0x3178 JUMP JUMPDEST JUMPDEST SWAP1 PUSH1 0x0 MSTORE PUSH1 0x20 PUSH1 0x0 KECCAK256 SWAP1 PUSH1 0x6 MUL ADD PUSH1 0x5 ADD DUP5 DUP2 SLOAD DUP2 LT PUSH2 0x5F1 JUMPI PUSH2 0x5F0 PUSH2 0x3178 JUMP JUMPDEST JUMPDEST SWAP1 PUSH1 0x0 MSTORE PUSH1 0x20 PUSH1 0x0 KECCAK256 ADD PUSH1 0x0 SWAP1 SLOAD SWAP1 PUSH2 0x100 EXP SWAP1 DIV PUSH20 0xFFFFFFFFFFFFFFFFFFFFFFFFFFFFFFFFFFFFFFFF AND PUSH20 0xFFFFFFFFFFFFFFFFFFFFFFFFFFFFFFFFFFFFFFFF AND PUSH20 0xFFFFFFFFFFFFFFFFFFFFFFFFFFFFFFFFFFFFFFFF AND DUP2 MSTORE PUSH1 0x20 ADD SWAP1 DUP2 MSTORE PUSH1 0x20 ADD PUSH1 0x0 KECCAK256 PUSH1 0x0 ADD PUSH1 0x0 SWAP1 SLOAD SWAP1 PUSH2 0x100 EXP SWAP1 DIV PUSH1 0xFF AND PUSH1 0x4 DUP2 GT ISZERO PUSH2 0x679 JUMPI PUSH2 0x678 PUSH2 0x2BFD JUMP JUMPDEST JUMPDEST LT PUSH2 0x68D JUMPI DUP3 DUP1 PUSH2 0x689 SWAP1 PUSH2 0x3268 JUMP JUMPDEST SWAP4 POP POP JUMPDEST DUP2 DUP1 PUSH2 0x698 SWAP1 PUSH2 0x3268 JUMP JUMPDEST SWAP3 POP POP DUP1 DUP1 PUSH2 0x6A6 SWAP1 PUSH2 0x3268 JUMP JUMPDEST SWAP2 POP POP PUSH2 0x572 JUMP JUMPDEST POP PUSH1 0xA DUP3 LT ISZERO DUP1 PUSH2 0x6C0 JUMPI POP PUSH1 0x1E DUP2 LT ISZERO JUMPDEST SWAP3 POP POP POP SWAP2 SWAP1 POP JUMP JUMPDEST PUSH1 0x4 DUP1 DUP2 GT ISZERO PUSH2 0x6DC JUMPI PUSH2 0x6DB PUSH2 0x2BFD JUMP JUMPDEST JUMPDEST PUSH1 0x2 PUSH1 0x0 CALLER PUSH20 0xFFFFFFFFFFFFFFFFFFFFFFFFFFFFFFFFFFFFFFFF AND PUSH20 0xFFFFFFFFFFFFFFFFFFFFFFFFFFFFFFFFFFFFFFFF AND DUP2 MSTORE PUSH1 0x20 ADD SWAP1 DUP2 MSTORE PUSH1 0x20 ADD PUSH1 0x0 KECCAK256 PUSH1 0x0 ADD PUSH1 0x0 SWAP1 SLOAD SWAP1 PUSH2 0x100 EXP SWAP1 DIV PUSH1 0xFF AND PUSH1 0x4 DUP2 GT ISZERO PUSH2 0x73E JUMPI PUSH2 0x73D PUSH2 0x2BFD JUMP JUMPDEST JUMPDEST EQ PUSH2 0x77E JUMPI PUSH1 0x40 MLOAD PUSH32 0x8C379A000000000000000000000000000000000000000000000000000000000 DUP2 MSTORE PUSH1 0x4 ADD PUSH2 0x775 SWAP1 PUSH2 0x3322 JUMP JUMPDEST PUSH1 0x40 MLOAD DUP1 SWAP2 SUB SWAP1 REVERT JUMPDEST PUSH1 0x0 PUSH20 0xFFFFFFFFFFFFFFFFFFFFFFFFFFFFFFFFFFFFFFFF AND PUSH1 0x2 PUSH1 0x0 DUP4 PUSH20 0xFFFFFFFFFFFFFFFFFFFFFFFFFFFFFFFFFFFFFFFF AND PUSH20 0xFFFFFFFFFFFFFFFFFFFFFFFFFFFFFFFFFFFFFFFF AND DUP2 MSTORE PUSH1 0x20 ADD SWAP1 DUP2 MSTORE PUSH1 0x20 ADD PUSH1 0x0 KECCAK256 PUSH1 0x0 ADD PUSH1 0x1 SWAP1 SLOAD SWAP1 PUSH2 0x100 EXP SWAP1 DIV PUSH20 0xFFFFFFFFFFFFFFFFFFFFFFFFFFFFFFFFFFFFFFFF AND PUSH20 0xFFFFFFFFFFFFFFFFFFFFFFFFFFFFFFFFFFFFFFFF AND EQ DUP1 ISZERO PUSH2 0x8AA JUMPI POP PUSH1 0x0 PUSH20 0xFFFFFFFFFFFFFFFFFFFFFFFFFFFFFFFFFFFFFFFF AND PUSH1 0x2 PUSH1 0x0 DUP4 PUSH20 0xFFFFFFFFFFFFFFFFFFFFFFFFFFFFFFFFFFFFFFFF AND PUSH20 0xFFFFFFFFFFFFFFFFFFFFFFFFFFFFFFFFFFFFFFFF AND DUP2 MSTORE PUSH1 0x20 ADD SWAP1 DUP2 MSTORE PUSH1 0x20 ADD PUSH1 0x0 KECCAK256 PUSH1 0x1 ADD PUSH1 0x0 SWAP1 SLOAD SWAP1 PUSH2 0x100 EXP SWAP1 DIV PUSH20 0xFFFFFFFFFFFFFFFFFFFFFFFFFFFFFFFFFFFFFFFF AND PUSH20 0xFFFFFFFFFFFFFFFFFFFFFFFFFFFFFFFFFFFFFFFF AND EQ JUMPDEST PUSH2 0x8E9 JUMPI PUSH1 0x40 MLOAD PUSH32 0x8C379A000000000000000000000000000000000000000000000000000000000 DUP2 MSTORE PUSH1 0x4 ADD PUSH2 0x8E0 SWAP1 PUSH2 0x33B4 JUMP JUMPDEST PUSH1 0x40 MLOAD DUP1 SWAP2 SUB SWAP1 REVERT JUMPDEST PUSH2 0x8F1 PUSH2 0x2820 JUMP JUMPDEST PUSH2 0x930 JUMPI PUSH1 0x40 MLOAD PUSH32 0x8C379A000000000000000000000000000000000000000000000000000000000 DUP2 MSTORE PUSH1 0x4 ADD PUSH2 0x927 SWAP1 PUSH2 0x3446 JUMP JUMPDEST PUSH1 0x40 MLOAD DUP1 SWAP2 SUB SWAP1 REVERT JUMPDEST PUSH2 0x938 PUSH2 0x2AFF JUMP JUMPDEST DUP3 DUP2 PUSH1 0x0 ADD SWAP1 PUSH1 0x4 DUP2 GT ISZERO PUSH2 0x950 JUMPI PUSH2 0x94F PUSH2 0x2BFD JUMP JUMPDEST JUMPDEST SWAP1 DUP2 PUSH1 0x4 DUP2 GT ISZERO PUSH2 0x964 JUMPI PUSH2 0x963 PUSH2 0x2BFD JUMP JUMPDEST JUMPDEST DUP2 MSTORE POP POP PUSH1 0x3 PUSH1 0x4 DUP2 GT ISZERO PUSH2 0x97C JUMPI PUSH2 0x97B PUSH2 0x2BFD JUMP JUMPDEST JUMPDEST DUP4 PUSH1 0x4 DUP2 GT ISZERO PUSH2 0x98F JUMPI PUSH2 0x98E PUSH2 0x2BFD JUMP JUMPDEST JUMPDEST EQ DUP1 PUSH2 0x9BE JUMPI POP PUSH1 0x4 DUP1 DUP2 GT ISZERO PUSH2 0x9A9 JUMPI PUSH2 0x9A8 PUSH2 0x2BFD JUMP JUMPDEST JUMPDEST DUP4 PUSH1 0x4 DUP2 GT ISZERO PUSH2 0x9BC JUMPI PUSH2 0x9BB PUSH2 0x2BFD JUMP JUMPDEST JUMPDEST EQ JUMPDEST ISZERO PUSH2 0xA14 JUMPI DUP2 DUP2 PUSH1 0x20 ADD SWAP1 PUSH20 0xFFFFFFFFFFFFFFFFFFFFFFFFFFFFFFFFFFFFFFFF AND SWAP1 DUP2 PUSH20 0xFFFFFFFFFFFFFFFFFFFFFFFFFFFFFFFFFFFFFFFF AND DUP2 MSTORE POP POP PUSH1 0x1 PUSH1 0x0 DUP2 SLOAD DUP1 SWAP3 SWAP2 SWAP1 PUSH2 0xA0E SWAP1 PUSH2 0x3268 JUMP JUMPDEST SWAP2 SWAP1 POP SSTORE POP JUMPDEST DUP1 PUSH1 0x2 PUSH1 0x0 DUP5 PUSH20 0xFFFFFFFFFFFFFFFFFFFFFFFFFFFFFFFFFFFFFFFF AND PUSH20 0xFFFFFFFFFFFFFFFFFFFFFFFFFFFFFFFFFFFFFFFF AND DUP2 MSTORE PUSH1 0x20 ADD SWAP1 DUP2 MSTORE PUSH1 0x20 ADD PUSH1 0x0 KECCAK256 PUSH1 0x0 DUP3 ADD MLOAD DUP2 PUSH1 0x0 ADD PUSH1 0x0 PUSH2 0x100 EXP DUP2 SLOAD DUP2 PUSH1 0xFF MUL NOT AND SWAP1 DUP4 PUSH1 0x4 DUP2 GT ISZERO PUSH2 0xA7F JUMPI PUSH2 0xA7E PUSH2 0x2BFD JUMP JUMPDEST JUMPDEST MUL OR SWAP1 SSTORE POP PUSH1 0x20 DUP3 ADD MLOAD DUP2 PUSH1 0x0 ADD PUSH1 0x1 PUSH2 0x100 EXP DUP2 SLOAD DUP2 PUSH20 0xFFFFFFFFFFFFFFFFFFFFFFFFFFFFFFFFFFFFFFFF MUL NOT AND SWAP1 DUP4 PUSH20 0xFFFFFFFFFFFFFFFFFFFFFFFFFFFFFFFFFFFFFFFF AND MUL OR SWAP1 SSTORE POP PUSH1 0x40 DUP3 ADD MLOAD DUP2 PUSH1 0x1 ADD PUSH1 0x0 PUSH2 0x100 EXP DUP2 SLOAD DUP2 PUSH20 0xFFFFFFFFFFFFFFFFFFFFFFFFFFFFFFFFFFFFFFFF MUL NOT AND SWAP1 DUP4 PUSH20 0xFFFFFFFFFFFFFFFFFFFFFFFFFFFFFFFFFFFFFFFF AND MUL OR SWAP1 SSTORE POP SWAP1 POP POP PUSH1 0x3 DUP3 SWAP1 DUP1 PUSH1 0x1 DUP2 SLOAD ADD DUP1 DUP3 SSTORE DUP1 SWAP2 POP POP PUSH1 0x1 SWAP1 SUB SWAP1 PUSH1 0x0 MSTORE PUSH1 0x20 PUSH1 0x0 KECCAK256 ADD PUSH1 0x0 SWAP1 SWAP2 SWAP1 SWAP2 SWAP1 SWAP2 PUSH2 0x100 EXP DUP2 SLOAD DUP2 PUSH20 0xFFFFFFFFFFFFFFFFFFFFFFFFFFFFFFFFFFFFFFFF MUL NOT AND SWAP1 DUP4 PUSH20 0xFFFFFFFFFFFFFFFFFFFFFFFFFFFFFFFFFFFFFFFF AND MUL OR SWAP1 SSTORE POP POP POP POP JUMP JUMPDEST PUSH1 0x4 DUP1 DUP2 GT ISZERO PUSH2 0xB90 JUMPI PUSH2 0xB8F PUSH2 0x2BFD JUMP JUMPDEST JUMPDEST PUSH1 0x2 PUSH1 0x0 CALLER PUSH20 0xFFFFFFFFFFFFFFFFFFFFFFFFFFFFFFFFFFFFFFFF AND PUSH20 0xFFFFFFFFFFFFFFFFFFFFFFFFFFFFFFFFFFFFFFFF AND DUP2 MSTORE PUSH1 0x20 ADD SWAP1 DUP2 MSTORE PUSH1 0x20 ADD PUSH1 0x0 KECCAK256 PUSH1 0x0 ADD PUSH1 0x0 SWAP1 SLOAD SWAP1 PUSH2 0x100 EXP SWAP1 DIV PUSH1 0xFF AND PUSH1 0x4 DUP2 GT ISZERO PUSH2 0xBF2 JUMPI PUSH2 0xBF1 PUSH2 0x2BFD JUMP JUMPDEST JUMPDEST EQ PUSH2 0xC32 JUMPI PUSH1 0x40 MLOAD PUSH32 0x8C379A000000000000000000000000000000000000000000000000000000000 DUP2 MSTORE PUSH1 0x4 ADD PUSH2 0xC29 SWAP1 PUSH2 0x34B2 JUMP JUMPDEST PUSH1 0x40 MLOAD DUP1 SWAP2 SUB SWAP1 REVERT JUMPDEST PUSH1 0x1 PUSH1 0x2 DUP2 GT ISZERO PUSH2 0xC46 JUMPI PUSH2 0xC45 PUSH2 0x2BFD JUMP JUMPDEST JUMPDEST PUSH1 0x4 DUP3 DUP2 SLOAD DUP2 LT PUSH2 0xC5A JUMPI PUSH2 0xC59 PUSH2 0x3178 JUMP JUMPDEST JUMPDEST SWAP1 PUSH1 0x0 MSTORE PUSH1 0x20 PUSH1 0x0 KECCAK256 SWAP1 PUSH1 0x6 MUL ADD PUSH1 0x2 ADD PUSH1 0x1 SWAP1 SLOAD SWAP1 PUSH2 0x100 EXP SWAP1 DIV PUSH1 0xFF AND PUSH1 0x2 DUP2 GT ISZERO PUSH2 0xC8B JUMPI PUSH2 0xC8A PUSH2 0x2BFD JUMP JUMPDEST JUMPDEST EQ PUSH2 0xCCB JUMPI PUSH1 0x40 MLOAD PUSH32 0x8C379A000000000000000000000000000000000000000000000000000000000 DUP2 MSTORE PUSH1 0x4 ADD PUSH2 0xCC2 SWAP1 PUSH2 0x351E JUMP JUMPDEST PUSH1 0x40 MLOAD DUP1 SWAP2 SUB SWAP1 REVERT JUMPDEST PUSH1 0x2 PUSH1 0x4 DUP3 DUP2 SLOAD DUP2 LT PUSH2 0xCE1 JUMPI PUSH2 0xCE0 PUSH2 0x3178 JUMP JUMPDEST JUMPDEST SWAP1 PUSH1 0x0 MSTORE PUSH1 0x20 PUSH1 0x0 KECCAK256 SWAP1 PUSH1 0x6 MUL ADD PUSH1 0x2 ADD PUSH1 0x1 PUSH2 0x100 EXP DUP2 SLOAD DUP2 PUSH1 0xFF MUL NOT AND SWAP1 DUP4 PUSH1 0x2 DUP2 GT ISZERO PUSH2 0xD14 JUMPI PUSH2 0xD13 PUSH2 0x2BFD JUMP JUMPDEST JUMPDEST MUL OR SWAP1 SSTORE POP POP JUMP JUMPDEST PUSH1 0x2 PUSH1 0x4 DUP2 GT ISZERO PUSH2 0xD30 JUMPI PUSH2 0xD2F PUSH2 0x2BFD JUMP JUMPDEST JUMPDEST PUSH1 0x2 PUSH1 0x0 CALLER PUSH20 0xFFFFFFFFFFFFFFFFFFFFFFFFFFFFFFFFFFFFFFFF AND PUSH20 0xFFFFFFFFFFFFFFFFFFFFFFFFFFFFFFFFFFFFFFFF AND DUP2 MSTORE PUSH1 0x20 ADD SWAP1 DUP2 MSTORE PUSH1 0x20 ADD PUSH1 0x0 KECCAK256 PUSH1 0x0 ADD PUSH1 0x0 SWAP1 SLOAD SWAP1 PUSH2 0x100 EXP SWAP1 DIV PUSH1 0xFF AND PUSH1 0x4 DUP2 GT ISZERO PUSH2 0xD92 JUMPI PUSH2 0xD91 PUSH2 0x2BFD JUMP JUMPDEST JUMPDEST LT ISZERO PUSH2 0xDD3 JUMPI PUSH1 0x40 MLOAD PUSH32 0x8C379A000000000000000000000000000000000000000000000000000000000 DUP2 MSTORE PUSH1 0x4 ADD PUSH2 0xDCA SWAP1 PUSH2 0x35B0 JUMP JUMPDEST PUSH1 0x40 MLOAD DUP1 SWAP2 SUB SWAP1 REVERT JUMPDEST PUSH1 0x2 PUSH1 0x4 DUP2 GT ISZERO PUSH2 0xDE7 JUMPI PUSH2 0xDE6 PUSH2 0x2BFD JUMP JUMPDEST JUMPDEST PUSH1 0x2 PUSH1 0x0 DUP4 PUSH20 0xFFFFFFFFFFFFFFFFFFFFFFFFFFFFFFFFFFFFFFFF AND PUSH20 0xFFFFFFFFFFFFFFFFFFFFFFFFFFFFFFFFFFFFFFFF AND DUP2 MSTORE PUSH1 0x20 ADD SWAP1 DUP2 MSTORE PUSH1 0x20 ADD PUSH1 0x0 KECCAK256 PUSH1 0x0 ADD PUSH1 0x0 SWAP1 SLOAD SWAP1 PUSH2 0x100 EXP SWAP1 DIV PUSH1 0xFF AND PUSH1 0x4 DUP2 GT ISZERO PUSH2 0xE49 JUMPI PUSH2 0xE48 PUSH2 0x2BFD JUMP JUMPDEST JUMPDEST LT ISZERO PUSH2 0xE8A JUMPI PUSH1 0x40 MLOAD PUSH32 0x8C379A000000000000000000000000000000000000000000000000000000000 DUP2 MSTORE PUSH1 0x4 ADD PUSH2 0xE81 SWAP1 PUSH2 0x3642 JUMP JUMPDEST PUSH1 0x40 MLOAD DUP1 SWAP2 SUB SWAP1 REVERT JUMPDEST PUSH1 0x0 PUSH20 0xFFFFFFFFFFFFFFFFFFFFFFFFFFFFFFFFFFFFFFFF AND PUSH1 0x2 PUSH1 0x0 CALLER PUSH20 0xFFFFFFFFFFFFFFFFFFFFFFFFFFFFFFFFFFFFFFFF AND PUSH20 0xFFFFFFFFFFFFFFFFFFFFFFFFFFFFFFFFFFFFFFFF AND DUP2 MSTORE PUSH1 0x20 ADD SWAP1 DUP2 MSTORE PUSH1 0x20 ADD PUSH1 0x0 KECCAK256 PUSH1 0x0 ADD PUSH1 0x1 SWAP1 SLOAD SWAP1 PUSH2 0x100 EXP SWAP1 DIV PUSH20 0xFFFFFFFFFFFFFFFFFFFFFFFFFFFFFFFFFFFFFFFF AND PUSH20 0xFFFFFFFFFFFFFFFFFFFFFFFFFFFFFFFFFFFFFFFF AND SUB PUSH2 0xF5B JUMPI PUSH1 0x40 MLOAD PUSH32 0x8C379A000000000000000000000000000000000000000000000000000000000 DUP2 MSTORE PUSH1 0x4 ADD PUSH2 0xF52 SWAP1 PUSH2 0x36D4 JUMP JUMPDEST PUSH1 0x40 MLOAD DUP1 SWAP2 SUB SWAP1 REVERT JUMPDEST PUSH1 0x0 PUSH20 0xFFFFFFFFFFFFFFFFFFFFFFFFFFFFFFFFFFFFFFFF AND PUSH1 0x2 PUSH1 0x0 DUP4 PUSH20 0xFFFFFFFFFFFFFFFFFFFFFFFFFFFFFFFFFFFFFFFF AND PUSH20 0xFFFFFFFFFFFFFFFFFFFFFFFFFFFFFFFFFFFFFFFF AND DUP2 MSTORE PUSH1 0x20 ADD SWAP1 DUP2 MSTORE PUSH1 0x20 ADD PUSH1 0x0 KECCAK256 PUSH1 0x0 ADD PUSH1 0x1 SWAP1 SLOAD SWAP1 PUSH2 0x100 EXP SWAP1 DIV PUSH20 0xFFFFFFFFFFFFFFFFFFFFFFFFFFFFFFFFFFFFFFFF AND PUSH20 0xFFFFFFFFFFFFFFFFFFFFFFFFFFFFFFFFFFFFFFFF AND EQ DUP1 PUSH2 0x1086 JUMPI POP PUSH1 0x0 PUSH20 0xFFFFFFFFFFFFFFFFFFFFFFFFFFFFFFFFFFFFFFFF AND PUSH1 0x2 PUSH1 0x0 DUP4 PUSH20 0xFFFFFFFFFFFFFFFFFFFFFFFFFFFFFFFFFFFFFFFF AND PUSH20 0xFFFFFFFFFFFFFFFFFFFFFFFFFFFFFFFFFFFFFFFF AND DUP2 MSTORE PUSH1 0x20 ADD SWAP1 DUP2 MSTORE PUSH1 0x20 ADD PUSH1 0x0 KECCAK256 PUSH1 0x1 ADD PUSH1 0x0 SWAP1 SLOAD SWAP1 PUSH2 0x100 EXP SWAP1 DIV PUSH20 0xFFFFFFFFFFFFFFFFFFFFFFFFFFFFFFFFFFFFFFFF AND PUSH20 0xFFFFFFFFFFFFFFFFFFFFFFFFFFFFFFFFFFFFFFFF AND EQ JUMPDEST PUSH2 0x10C5 JUMPI PUSH1 0x40 MLOAD PUSH32 0x8C379A000000000000000000000000000000000000000000000000000000000 DUP2 MSTORE PUSH1 0x4 ADD PUSH2 0x10BC SWAP1 PUSH2 0x378C JUMP JUMPDEST PUSH1 0x40 MLOAD DUP1 SWAP2 SUB SWAP1 REVERT JUMPDEST PUSH2 0x10CD PUSH2 0x2820 JUMP JUMPDEST PUSH2 0x110C JUMPI PUSH1 0x40 MLOAD PUSH32 0x8C379A000000000000000000000000000000000000000000000000000000000 DUP2 MSTORE PUSH1 0x4 ADD PUSH2 0x1103 SWAP1 PUSH2 0x381E JUMP JUMPDEST PUSH1 0x40 MLOAD DUP1 SWAP2 SUB SWAP1 REVERT JUMPDEST PUSH2 0x1118 CALLER DUP3 PUSH1 0x1 PUSH2 0x28B9 JUMP JUMPDEST POP JUMP JUMPDEST PUSH1 0x0 PUSH1 0x1 PUSH1 0x4 DUP2 GT ISZERO PUSH2 0x1131 JUMPI PUSH2 0x1130 PUSH2 0x2BFD JUMP JUMPDEST JUMPDEST PUSH1 0x2 PUSH1 0x0 CALLER PUSH20 0xFFFFFFFFFFFFFFFFFFFFFFFFFFFFFFFFFFFFFFFF AND PUSH20 0xFFFFFFFFFFFFFFFFFFFFFFFFFFFFFFFFFFFFFFFF AND DUP2 MSTORE PUSH1 0x20 ADD SWAP1 DUP2 MSTORE PUSH1 0x20 ADD PUSH1 0x0 KECCAK256 PUSH1 0x0 ADD PUSH1 0x0 SWAP1 SLOAD SWAP1 PUSH2 0x100 EXP SWAP1 DIV PUSH1 0xFF AND PUSH1 0x4 DUP2 GT ISZERO PUSH2 0x1193 JUMPI PUSH2 0x1192 PUSH2 0x2BFD JUMP JUMPDEST JUMPDEST LT ISZERO PUSH2 0x11D4 JUMPI PUSH1 0x40 MLOAD PUSH32 0x8C379A000000000000000000000000000000000000000000000000000000000 DUP2 MSTORE PUSH1 0x4 ADD PUSH2 0x11CB SWAP1 PUSH2 0x38B0 JUMP JUMPDEST PUSH1 0x40 MLOAD DUP1 SWAP2 SUB SWAP1 REVERT JUMPDEST PUSH2 0x11DC PUSH2 0x2820 JUMP JUMPDEST PUSH2 0x121B JUMPI PUSH1 0x40 MLOAD PUSH32 0x8C379A000000000000000000000000000000000000000000000000000000000 DUP2 MSTORE PUSH1 0x4 ADD PUSH2 0x1212 SWAP1 PUSH2 0x3942 JUMP JUMPDEST PUSH1 0x40 MLOAD DUP1 SWAP2 SUB SWAP1 REVERT JUMPDEST PUSH1 0x0 PUSH1 0x4 PUSH1 0x1 DUP2 PUSH1 0x1 DUP2 SLOAD ADD DUP1 DUP3 SSTORE DUP1 SWAP2 POP POP SUB SWAP1 PUSH1 0x0 MSTORE PUSH1 0x20 PUSH1 0x0 KECCAK256 SWAP1 PUSH1 0x6 MUL ADD SWAP1 POP PUSH1 0x0 SLOAD DUP2 PUSH1 0x0 ADD DUP2 SWAP1 SSTORE POP DUP3 DUP2 PUSH1 0x1 ADD SWAP1 DUP2 PUSH2 0x125B SWAP2 SWAP1 PUSH2 0x3B79 JUMP JUMPDEST POP PUSH1 0x0 DUP2 PUSH1 0x2 ADD PUSH1 0x0 PUSH2 0x100 EXP DUP2 SLOAD DUP2 PUSH1 0xFF MUL NOT AND SWAP1 DUP4 PUSH1 0x1 DUP2 GT ISZERO PUSH2 0x1284 JUMPI PUSH2 0x1283 PUSH2 0x2BFD JUMP JUMPDEST JUMPDEST MUL OR SWAP1 SSTORE POP PUSH1 0x0 DUP2 PUSH1 0x2 ADD PUSH1 0x1 PUSH2 0x100 EXP DUP2 SLOAD DUP2 PUSH1 0xFF MUL NOT AND SWAP1 DUP4 PUSH1 0x2 DUP2 GT ISZERO PUSH2 0x12B1 JUMPI PUSH2 0x12B0 PUSH2 0x2BFD JUMP JUMPDEST JUMPDEST MUL OR SWAP1 SSTORE POP PUSH1 0x0 DUP2 PUSH1 0x3 ADD PUSH1 0x1 DUP2 PUSH1 0x1 DUP2 SLOAD ADD DUP1 DUP3 SSTORE DUP1 SWAP2 POP POP SUB SWAP1 PUSH1 0x0 MSTORE PUSH1 0x20 PUSH1 0x0 KECCAK256 SWAP1 PUSH1 0x2 MUL ADD SWAP1 POP PUSH1 0x40 MLOAD DUP1 PUSH1 0x40 ADD PUSH1 0x40 MSTORE DUP1 PUSH1 0x3 DUP2 MSTORE PUSH1 0x20 ADD PUSH32 0x7965730000000000000000000000000000000000000000000000000000000000 DUP2 MSTORE POP DUP2 PUSH1 0x0 ADD SWAP1 DUP2 PUSH2 0x1322 SWAP2 SWAP1 PUSH2 0x3B79 JUMP JUMPDEST POP PUSH1 0x0 DUP2 PUSH1 0x1 ADD DUP2 SWAP1 SSTORE POP PUSH1 0x0 DUP3 PUSH1 0x3 ADD PUSH1 0x1 DUP2 PUSH1 0x1 DUP2 SLOAD ADD DUP1 DUP3 SSTORE DUP1 SWAP2 POP POP SUB SWAP1 PUSH1 0x0 MSTORE PUSH1 0x20 PUSH1 0x0 KECCAK256 SWAP1 PUSH1 0x2 MUL ADD SWAP1 POP PUSH1 0x40 MLOAD DUP1 PUSH1 0x40 ADD PUSH1 0x40 MSTORE DUP1 PUSH1 0x2 DUP2 MSTORE PUSH1 0x20 ADD PUSH32 0x6E6F000000000000000000000000000000000000000000000000000000000000 DUP2 MSTORE POP DUP2 PUSH1 0x0 ADD SWAP1 DUP2 PUSH2 0x1399 SWAP2 SWAP1 PUSH2 0x3B79 JUMP JUMPDEST POP PUSH1 0x0 DUP2 PUSH1 0x1 ADD DUP2 SWAP1 SSTORE POP PUSH1 0x0 DUP4 PUSH1 0x3 ADD PUSH1 0x1 DUP2 PUSH1 0x1 DUP2 SLOAD ADD DUP1 DUP3 SSTORE DUP1 SWAP2 POP POP SUB SWAP1 PUSH1 0x0 MSTORE PUSH1 0x20 PUSH1 0x0 KECCAK256 SWAP1 PUSH1 0x2 MUL ADD SWAP1 POP PUSH1 0x40 MLOAD DUP1 PUSH1 0x40 ADD PUSH1 0x40 MSTORE DUP1 PUSH1 0x7 DUP2 MSTORE PUSH1 0x20 ADD PUSH32 0x6162737461696E00000000000000000000000000000000000000000000000000 DUP2 MSTORE POP DUP2 PUSH1 0x0 ADD SWAP1 DUP2 PUSH2 0x1410 SWAP2 SWAP1 PUSH2 0x3B79 JUMP JUMPDEST POP PUSH1 0x0 DUP2 PUSH1 0x1 ADD DUP2 SWAP1 SSTORE POP DUP4 PUSH1 0x5 ADD CALLER SWAP1 DUP1 PUSH1 0x1 DUP2 SLOAD ADD DUP1 DUP3 SSTORE DUP1 SWAP2 POP POP PUSH1 0x1 SWAP1 SUB SWAP1 PUSH1 0x0 MSTORE PUSH1 0x20 PUSH1 0x0 KECCAK256 ADD PUSH1 0x0 SWAP1 SWAP2 SWAP1 SWAP2 SWAP1 SWAP2 PUSH2 0x100 EXP DUP2 SLOAD DUP2 PUSH20 0xFFFFFFFFFFFFFFFFFFFFFFFFFFFFFFFFFFFFFFFF MUL NOT AND SWAP1 DUP4 PUSH20 0xFFFFFFFFFFFFFFFFFFFFFFFFFFFFFFFFFFFFFFFF AND MUL OR SWAP1 SSTORE POP PUSH1 0x0 DUP1 DUP2 SLOAD DUP1 SWAP3 SWAP2 SWAP1 PUSH2 0x1492 SWAP1 PUSH2 0x3268 JUMP JUMPDEST SWAP2 SWAP1 POP SSTORE POP DUP4 PUSH1 0x0 ADD SLOAD SWAP5 POP POP POP POP POP SWAP2 SWAP1 POP JUMP JUMPDEST PUSH1 0x0 PUSH1 0x3 PUSH1 0x4 DUP2 GT ISZERO PUSH2 0x14BD JUMPI PUSH2 0x14BC PUSH2 0x2BFD JUMP JUMPDEST JUMPDEST PUSH1 0x2 PUSH1 0x0 CALLER PUSH20 0xFFFFFFFFFFFFFFFFFFFFFFFFFFFFFFFFFFFFFFFF AND PUSH20 0xFFFFFFFFFFFFFFFFFFFFFFFFFFFFFFFFFFFFFFFF AND DUP2 MSTORE PUSH1 0x20 ADD SWAP1 DUP2 MSTORE PUSH1 0x20 ADD PUSH1 0x0 KECCAK256 PUSH1 0x0 ADD PUSH1 0x0 SWAP1 SLOAD SWAP1 PUSH2 0x100 EXP SWAP1 DIV PUSH1 0xFF AND PUSH1 0x4 DUP2 GT ISZERO PUSH2 0x151F JUMPI PUSH2 0x151E PUSH2 0x2BFD JUMP JUMPDEST JUMPDEST LT ISZERO PUSH2 0x1560 JUMPI PUSH1 0x40 MLOAD PUSH32 0x8C379A000000000000000000000000000000000000000000000000000000000 DUP2 MSTORE PUSH1 0x4 ADD PUSH2 0x1557 SWAP1 PUSH2 0x3CBD JUMP JUMPDEST PUSH1 0x40 MLOAD DUP1 SWAP2 SUB SWAP1 REVERT JUMPDEST PUSH1 0x0 PUSH20 0xFFFFFFFFFFFFFFFFFFFFFFFFFFFFFFFFFFFFFFFF AND PUSH1 0x2 PUSH1 0x0 CALLER PUSH20 0xFFFFFFFFFFFFFFFFFFFFFFFFFFFFFFFFFFFFFFFF AND PUSH20 0xFFFFFFFFFFFFFFFFFFFFFFFFFFFFFFFFFFFFFFFF AND DUP2 MSTORE PUSH1 0x20 ADD SWAP1 DUP2 MSTORE PUSH1 0x20 ADD PUSH1 0x0 KECCAK256 PUSH1 0x0 ADD PUSH1 0x1 SWAP1 SLOAD SWAP1 PUSH2 0x100 EXP SWAP1 DIV PUSH20 0xFFFFFFFFFFFFFFFFFFFFFFFFFFFFFFFFFFFFFFFF AND PUSH20 0xFFFFFFFFFFFFFFFFFFFFFFFFFFFFFFFFFFFFFFFF AND EQ DUP1 PUSH2 0x168B JUMPI POP PUSH1 0x0 PUSH20 0xFFFFFFFFFFFFFFFFFFFFFFFFFFFFFFFFFFFFFFFF AND PUSH1 0x2 PUSH1 0x0 CALLER PUSH20 0xFFFFFFFFFFFFFFFFFFFFFFFFFFFFFFFFFFFFFFFF AND PUSH20 0xFFFFFFFFFFFFFFFFFFFFFFFFFFFFFFFFFFFFFFFF AND DUP2 MSTORE PUSH1 0x20 ADD SWAP1 DUP2 MSTORE PUSH1 0x20 ADD PUSH1 0x0 KECCAK256 PUSH1 0x1 ADD PUSH1 0x0 SWAP1 SLOAD SWAP1 PUSH2 0x100 EXP SWAP1 DIV PUSH20 0xFFFFFFFFFFFFFFFFFFFFFFFFFFFFFFFFFFFFFFFF AND PUSH20 0xFFFFFFFFFFFFFFFFFFFFFFFFFFFFFFFFFFFFFFFF AND EQ JUMPDEST PUSH2 0x16CA JUMPI PUSH1 0x40 MLOAD PUSH32 0x8C379A000000000000000000000000000000000000000000000000000000000 DUP2 MSTORE PUSH1 0x4 ADD PUSH2 0x16C1 SWAP1 PUSH2 0x3D4F JUMP JUMPDEST PUSH1 0x40 MLOAD DUP1 SWAP2 SUB SWAP1 REVERT JUMPDEST CALLER PUSH20 0xFFFFFFFFFFFFFFFFFFFFFFFFFFFFFFFFFFFFFFFF AND PUSH1 0x2 PUSH1 0x0 CALLER PUSH20 0xFFFFFFFFFFFFFFFFFFFFFFFFFFFFFFFFFFFFFFFF AND PUSH20 0xFFFFFFFFFFFFFFFFFFFFFFFFFFFFFFFFFFFFFFFF AND DUP2 MSTORE PUSH1 0x20 ADD SWAP1 DUP2 MSTORE PUSH1 0x20 ADD PUSH1 0x0 KECCAK256 PUSH1 0x0 ADD PUSH1 0x1 SWAP1 SLOAD SWAP1 PUSH2 0x100 EXP SWAP1 DIV PUSH20 0xFFFFFFFFFFFFFFFFFFFFFFFFFFFFFFFFFFFFFFFF AND PUSH20 0xFFFFFFFFFFFFFFFFFFFFFFFFFFFFFFFFFFFFFFFF AND EQ ISZERO DUP1 ISZERO PUSH2 0x17F6 JUMPI POP CALLER PUSH20 0xFFFFFFFFFFFFFFFFFFFFFFFFFFFFFFFFFFFFFFFF AND PUSH1 0x2 PUSH1 0x0 CALLER PUSH20 0xFFFFFFFFFFFFFFFFFFFFFFFFFFFFFFFFFFFFFFFF AND PUSH20 0xFFFFFFFFFFFFFFFFFFFFFFFFFFFFFFFFFFFFFFFF AND DUP2 MSTORE PUSH1 0x20 ADD SWAP1 DUP2 MSTORE PUSH1 0x20 ADD PUSH1 0x0 KECCAK256 PUSH1 0x1 ADD PUSH1 0x0 SWAP1 SLOAD SWAP1 PUSH2 0x100 EXP SWAP1 DIV PUSH20 0xFFFFFFFFFFFFFFFFFFFFFFFFFFFFFFFFFFFFFFFF AND PUSH20 0xFFFFFFFFFFFFFFFFFFFFFFFFFFFFFFFFFFFFFFFF AND EQ ISZERO JUMPDEST PUSH2 0x1835 JUMPI PUSH1 0x40 MLOAD PUSH32 0x8C379A000000000000000000000000000000000000000000000000000000000 DUP2 MSTORE PUSH1 0x4 ADD PUSH2 0x182C SWAP1 PUSH2 0x3DE1 JUMP JUMPDEST PUSH1 0x40 MLOAD DUP1 SWAP2 SUB SWAP1 REVERT JUMPDEST PUSH1 0x0 JUMPDEST PUSH1 0x3 DUP1 SLOAD SWAP1 POP DUP2 LT ISZERO PUSH2 0x1AA6 JUMPI CALLER PUSH20 0xFFFFFFFFFFFFFFFFFFFFFFFFFFFFFFFFFFFFFFFF AND PUSH1 0x2 PUSH1 0x0 PUSH1 0x3 DUP5 DUP2 SLOAD DUP2 LT PUSH2 0x1874 JUMPI PUSH2 0x1873 PUSH2 0x3178 JUMP JUMPDEST JUMPDEST SWAP1 PUSH1 0x0 MSTORE PUSH1 0x20 PUSH1 0x0 KECCAK256 ADD PUSH1 0x0 SWAP1 SLOAD SWAP1 PUSH2 0x100 EXP SWAP1 DIV PUSH20 0xFFFFFFFFFFFFFFFFFFFFFFFFFFFFFFFFFFFFFFFF AND PUSH20 0xFFFFFFFFFFFFFFFFFFFFFFFFFFFFFFFFFFFFFFFF AND PUSH20 0xFFFFFFFFFFFFFFFFFFFFFFFFFFFFFFFFFFFFFFFF AND DUP2 MSTORE PUSH1 0x20 ADD SWAP1 DUP2 MSTORE PUSH1 0x20 ADD PUSH1 0x0 KECCAK256 PUSH1 0x0 ADD PUSH1 0x1 SWAP1 SLOAD SWAP1 PUSH2 0x100 EXP SWAP1 DIV PUSH20 0xFFFFFFFFFFFFFFFFFFFFFFFFFFFFFFFFFFFFFFFF AND PUSH20 0xFFFFFFFFFFFFFFFFFFFFFFFFFFFFFFFFFFFFFFFF AND SUB PUSH2 0x196C JUMPI PUSH2 0x1962 PUSH1 0x3 DUP3 DUP2 SLOAD DUP2 LT PUSH2 0x192F JUMPI PUSH2 0x192E PUSH2 0x3178 JUMP JUMPDEST JUMPDEST SWAP1 PUSH1 0x0 MSTORE PUSH1 0x20 PUSH1 0x0 KECCAK256 ADD PUSH1 0x0 SWAP1 SLOAD SWAP1 PUSH2 0x100 EXP SWAP1 DIV PUSH20 0xFFFFFFFFFFFFFFFFFFFFFFFFFFFFFFFFFFFFFFFF AND CALLER PUSH1 0x1 PUSH2 0x28B9 JUMP JUMPDEST PUSH1 0x1 SWAP2 POP POP PUSH2 0x1AAC JUMP JUMPDEST CALLER PUSH20 0xFFFFFFFFFFFFFFFFFFFFFFFFFFFFFFFFFFFFFFFF AND PUSH1 0x2 PUSH1 0x0 PUSH1 0x3 DUP5 DUP2 SLOAD DUP2 LT PUSH2 0x199B JUMPI PUSH2 0x199A PUSH2 0x3178 JUMP JUMPDEST JUMPDEST SWAP1 PUSH1 0x0 MSTORE PUSH1 0x20 PUSH1 0x0 KECCAK256 ADD PUSH1 0x0 SWAP1 SLOAD SWAP1 PUSH2 0x100 EXP SWAP1 DIV PUSH20 0xFFFFFFFFFFFFFFFFFFFFFFFFFFFFFFFFFFFFFFFF AND PUSH20 0xFFFFFFFFFFFFFFFFFFFFFFFFFFFFFFFFFFFFFFFF AND PUSH20 0xFFFFFFFFFFFFFFFFFFFFFFFFFFFFFFFFFFFFFFFF AND DUP2 MSTORE PUSH1 0x20 ADD SWAP1 DUP2 MSTORE PUSH1 0x20 ADD PUSH1 0x0 KECCAK256 PUSH1 0x1 ADD PUSH1 0x0 SWAP1 SLOAD SWAP1 PUSH2 0x100 EXP SWAP1 DIV PUSH20 0xFFFFFFFFFFFFFFFFFFFFFFFFFFFFFFFFFFFFFFFF AND PUSH20 0xFFFFFFFFFFFFFFFFFFFFFFFFFFFFFFFFFFFFFFFF AND SUB PUSH2 0x1A93 JUMPI PUSH2 0x1A89 PUSH1 0x3 DUP3 DUP2 SLOAD DUP2 LT PUSH2 0x1A56 JUMPI PUSH2 0x1A55 PUSH2 0x3178 JUMP JUMPDEST JUMPDEST SWAP1 PUSH1 0x0 MSTORE PUSH1 0x20 PUSH1 0x0 KECCAK256 ADD PUSH1 0x0 SWAP1 SLOAD SWAP1 PUSH2 0x100 EXP SWAP1 DIV PUSH20 0xFFFFFFFFFFFFFFFFFFFFFFFFFFFFFFFFFFFFFFFF AND CALLER PUSH1 0x2 PUSH2 0x28B9 JUMP JUMPDEST PUSH1 0x1 SWAP2 POP POP PUSH2 0x1AAC JUMP JUMPDEST DUP1 DUP1 PUSH2 0x1A9E SWAP1 PUSH2 0x3268 JUMP JUMPDEST SWAP2 POP POP PUSH2 0x1838 JUMP JUMPDEST POP PUSH1 0x0 SWAP1 POP JUMPDEST SWAP1 JUMP JUMPDEST PUSH1 0x0 SLOAD DUP2 JUMP JUMPDEST PUSH1 0x2 PUSH1 0x4 DUP2 GT ISZERO PUSH2 0x1AC9 JUMPI PUSH2 0x1AC8 PUSH2 0x2BFD JUMP JUMPDEST JUMPDEST PUSH1 0x2 PUSH1 0x0 CALLER PUSH20 0xFFFFFFFFFFFFFFFFFFFFFFFFFFFFFFFFFFFFFFFF AND PUSH20 0xFFFFFFFFFFFFFFFFFFFFFFFFFFFFFFFFFFFFFFFF AND DUP2 MSTORE PUSH1 0x20 ADD SWAP1 DUP2 MSTORE PUSH1 0x20 ADD PUSH1 0x0 KECCAK256 PUSH1 0x0 ADD PUSH1 0x0 SWAP1 SLOAD SWAP1 PUSH2 0x100 EXP SWAP1 DIV PUSH1 0xFF AND PUSH1 0x4 DUP2 GT ISZERO PUSH2 0x1B2B JUMPI PUSH2 0x1B2A PUSH2 0x2BFD JUMP JUMPDEST JUMPDEST LT ISZERO PUSH2 0x1B6C JUMPI PUSH1 0x40 MLOAD PUSH32 0x8C379A000000000000000000000000000000000000000000000000000000000 DUP2 MSTORE PUSH1 0x4 ADD PUSH2 0x1B63 SWAP1 PUSH2 0x3E73 JUMP JUMPDEST PUSH1 0x40 MLOAD DUP1 SWAP2 SUB SWAP1 REVERT JUMPDEST PUSH1 0x1 PUSH1 0x2 DUP2 GT ISZERO PUSH2 0x1B80 JUMPI PUSH2 0x1B7F PUSH2 0x2BFD JUMP JUMPDEST JUMPDEST PUSH1 0x4 DUP4 DUP2 SLOAD DUP2 LT PUSH2 0x1B94 JUMPI PUSH2 0x1B93 PUSH2 0x3178 JUMP JUMPDEST JUMPDEST SWAP1 PUSH1 0x0 MSTORE PUSH1 0x20 PUSH1 0x0 KECCAK256 SWAP1 PUSH1 0x6 MUL ADD PUSH1 0x2 ADD PUSH1 0x1 SWAP1 SLOAD SWAP1 PUSH2 0x100 EXP SWAP1 DIV PUSH1 0xFF AND PUSH1 0x2 DUP2 GT ISZERO PUSH2 0x1BC5 JUMPI PUSH2 0x1BC4 PUSH2 0x2BFD JUMP JUMPDEST JUMPDEST EQ PUSH2 0x1C05 JUMPI PUSH1 0x40 MLOAD PUSH32 0x8C379A000000000000000000000000000000000000000000000000000000000 DUP2 MSTORE PUSH1 0x4 ADD PUSH2 0x1BFC SWAP1 PUSH2 0x3EDF JUMP JUMPDEST PUSH1 0x40 MLOAD DUP1 SWAP2 SUB SWAP1 REVERT JUMPDEST PUSH1 0x0 PUSH20 0xFFFFFFFFFFFFFFFFFFFFFFFFFFFFFFFFFFFFFFFF AND PUSH1 0x2 PUSH1 0x0 CALLER PUSH20 0xFFFFFFFFFFFFFFFFFFFFFFFFFFFFFFFFFFFFFFFF AND PUSH20 0xFFFFFFFFFFFFFFFFFFFFFFFFFFFFFFFFFFFFFFFF AND DUP2 MSTORE PUSH1 0x20 ADD SWAP1 DUP2 MSTORE PUSH1 0x20 ADD PUSH1 0x0 KECCAK256 PUSH1 0x0 ADD PUSH1 0x1 SWAP1 SLOAD SWAP1 PUSH2 0x100 EXP SWAP1 DIV PUSH20 0xFFFFFFFFFFFFFFFFFFFFFFFFFFFFFFFFFFFFFFFF AND PUSH20 0xFFFFFFFFFFFFFFFFFFFFFFFFFFFFFFFFFFFFFFFF AND EQ ISZERO DUP1 PUSH2 0x1D32 JUMPI POP PUSH1 0x0 PUSH20 0xFFFFFFFFFFFFFFFFFFFFFFFFFFFFFFFFFFFFFFFF AND PUSH1 0x2 PUSH1 0x0 CALLER PUSH20 0xFFFFFFFFFFFFFFFFFFFFFFFFFFFFFFFFFFFFFFFF AND PUSH20 0xFFFFFFFFFFFFFFFFFFFFFFFFFFFFFFFFFFFFFFFF AND DUP2 MSTORE PUSH1 0x20 ADD SWAP1 DUP2 MSTORE PUSH1 0x20 ADD PUSH1 0x0 KECCAK256 PUSH1 0x1 ADD PUSH1 0x0 SWAP1 SLOAD SWAP1 PUSH2 0x100 EXP SWAP1 DIV PUSH20 0xFFFFFFFFFFFFFFFFFFFFFFFFFFFFFFFFFFFFFFFF AND PUSH20 0xFFFFFFFFFFFFFFFFFFFFFFFFFFFFFFFFFFFFFFFF AND EQ ISZERO JUMPDEST PUSH2 0x1D71 JUMPI PUSH1 0x40 MLOAD PUSH32 0x8C379A000000000000000000000000000000000000000000000000000000000 DUP2 MSTORE PUSH1 0x4 ADD PUSH2 0x1D68 SWAP1 PUSH2 0x3F71 JUMP JUMPDEST PUSH1 0x40 MLOAD DUP1 SWAP2 SUB SWAP1 REVERT JUMPDEST PUSH1 0x0 PUSH20 0xFFFFFFFFFFFFFFFFFFFFFFFFFFFFFFFFFFFFFFFF AND PUSH1 0x2 PUSH1 0x0 CALLER PUSH20 0xFFFFFFFFFFFFFFFFFFFFFFFFFFFFFFFFFFFFFFFF AND PUSH20 0xFFFFFFFFFFFFFFFFFFFFFFFFFFFFFFFFFFFFFFFF AND DUP2 MSTORE PUSH1 0x20 ADD SWAP1 DUP2 MSTORE PUSH1 0x20 ADD PUSH1 0x0 KECCAK256 PUSH1 0x0 ADD PUSH1 0x1 SWAP1 SLOAD SWAP1 PUSH2 0x100 EXP SWAP1 DIV PUSH20 0xFFFFFFFFFFFFFFFFFFFFFFFFFFFFFFFFFFFFFFFF AND PUSH20 0xFFFFFFFFFFFFFFFFFFFFFFFFFFFFFFFFFFFFFFFF AND EQ ISZERO DUP1 ISZERO PUSH2 0x1F21 JUMPI POP PUSH2 0x1F20 PUSH1 0x4 DUP4 DUP2 SLOAD DUP2 LT PUSH2 0x1E22 JUMPI PUSH2 0x1E21 PUSH2 0x3178 JUMP JUMPDEST JUMPDEST SWAP1 PUSH1 0x0 MSTORE PUSH1 0x20 PUSH1 0x0 KECCAK256 SWAP1 PUSH1 0x6 MUL ADD PUSH1 0x4 ADD DUP1 SLOAD DUP1 PUSH1 0x20 MUL PUSH1 0x20 ADD PUSH1 0x40 MLOAD SWAP1 DUP2 ADD PUSH1 0x40 MSTORE DUP1 SWAP3 SWAP2 SWAP1 DUP2 DUP2 MSTORE PUSH1 0x20 ADD DUP3 DUP1 SLOAD DUP1 ISZERO PUSH2 0x1EB3 JUMPI PUSH1 0x20 MUL DUP3 ADD SWAP2 SWAP1 PUSH1 0x0 MSTORE PUSH1 0x20 PUSH1 0x0 KECCAK256 SWAP1 JUMPDEST DUP2 PUSH1 0x0 SWAP1 SLOAD SWAP1 PUSH2 0x100 EXP SWAP1 DIV PUSH20 0xFFFFFFFFFFFFFFFFFFFFFFFFFFFFFFFFFFFFFFFF AND PUSH20 0xFFFFFFFFFFFFFFFFFFFFFFFFFFFFFFFFFFFFFFFF AND DUP2 MSTORE PUSH1 0x20 ADD SWAP1 PUSH1 0x1 ADD SWAP1 DUP1 DUP4 GT PUSH2 0x1E69 JUMPI JUMPDEST POP POP POP POP POP PUSH1 0x2 PUSH1 0x0 CALLER PUSH20 0xFFFFFFFFFFFFFFFFFFFFFFFFFFFFFFFFFFFFFFFF AND PUSH20 0xFFFFFFFFFFFFFFFFFFFFFFFFFFFFFFFFFFFFFFFF AND DUP2 MSTORE PUSH1 0x20 ADD SWAP1 DUP2 MSTORE PUSH1 0x20 ADD PUSH1 0x0 KECCAK256 PUSH1 0x0 ADD PUSH1 0x1 SWAP1 SLOAD SWAP1 PUSH2 0x100 EXP SWAP1 DIV PUSH20 0xFFFFFFFFFFFFFFFFFFFFFFFFFFFFFFFFFFFFFFFF AND PUSH2 0x2799 JUMP JUMPDEST JUMPDEST DUP1 PUSH2 0x20D8 JUMPI POP PUSH1 0x0 PUSH20 0xFFFFFFFFFFFFFFFFFFFFFFFFFFFFFFFFFFFFFFFF AND PUSH1 0x2 PUSH1 0x0 CALLER PUSH20 0xFFFFFFFFFFFFFFFFFFFFFFFFFFFFFFFFFFFFFFFF AND PUSH20 0xFFFFFFFFFFFFFFFFFFFFFFFFFFFFFFFFFFFFFFFF AND DUP2 MSTORE PUSH1 0x20 ADD SWAP1 DUP2 MSTORE PUSH1 0x20 ADD PUSH1 0x0 KECCAK256 PUSH1 0x1 ADD PUSH1 0x0 SWAP1 SLOAD SWAP1 PUSH2 0x100 EXP SWAP1 DIV PUSH20 0xFFFFFFFFFFFFFFFFFFFFFFFFFFFFFFFFFFFFFFFF AND PUSH20 0xFFFFFFFFFFFFFFFFFFFFFFFFFFFFFFFFFFFFFFFF AND EQ ISZERO DUP1 ISZERO PUSH2 0x20D7 JUMPI POP PUSH2 0x20D6 PUSH1 0x4 DUP4 DUP2 SLOAD DUP2 LT PUSH2 0x1FD8 JUMPI PUSH2 0x1FD7 PUSH2 0x3178 JUMP JUMPDEST JUMPDEST SWAP1 PUSH1 0x0 MSTORE PUSH1 0x20 PUSH1 0x0 KECCAK256 SWAP1 PUSH1 0x6 MUL ADD PUSH1 0x4 ADD DUP1 SLOAD DUP1 PUSH1 0x20 MUL PUSH1 0x20 ADD PUSH1 0x40 MLOAD SWAP1 DUP2 ADD PUSH1 0x40 MSTORE DUP1 SWAP3 SWAP2 SWAP1 DUP2 DUP2 MSTORE PUSH1 0x20 ADD DUP3 DUP1 SLOAD DUP1 ISZERO PUSH2 0x2069 JUMPI PUSH1 0x20 MUL DUP3 ADD SWAP2 SWAP1 PUSH1 0x0 MSTORE PUSH1 0x20 PUSH1 0x0 KECCAK256 SWAP1 JUMPDEST DUP2 PUSH1 0x0 SWAP1 SLOAD SWAP1 PUSH2 0x100 EXP SWAP1 DIV PUSH20 0xFFFFFFFFFFFFFFFFFFFFFFFFFFFFFFFFFFFFFFFF AND PUSH20 0xFFFFFFFFFFFFFFFFFFFFFFFFFFFFFFFFFFFFFFFF AND DUP2 MSTORE PUSH1 0x20 ADD SWAP1 PUSH1 0x1 ADD SWAP1 DUP1 DUP4 GT PUSH2 0x201F JUMPI JUMPDEST POP POP POP POP POP PUSH1 0x2 PUSH1 0x0 CALLER PUSH20 0xFFFFFFFFFFFFFFFFFFFFFFFFFFFFFFFFFFFFFFFF AND PUSH20 0xFFFFFFFFFFFFFFFFFFFFFFFFFFFFFFFFFFFFFFFF AND DUP2 MSTORE PUSH1 0x20 ADD SWAP1 DUP2 MSTORE PUSH1 0x20 ADD PUSH1 0x0 KECCAK256 PUSH1 0x1 ADD PUSH1 0x0 SWAP1 SLOAD SWAP1 PUSH2 0x100 EXP SWAP1 DIV PUSH20 0xFFFFFFFFFFFFFFFFFFFFFFFFFFFFFFFFFFFFFFFF AND PUSH2 0x2799 JUMP JUMPDEST JUMPDEST JUMPDEST PUSH2 0x2117 JUMPI PUSH1 0x40 MLOAD PUSH32 0x8C379A000000000000000000000000000000000000000000000000000000000 DUP2 MSTORE PUSH1 0x4 ADD PUSH2 0x210E SWAP1 PUSH2 0x3FDD JUMP JUMPDEST PUSH1 0x40 MLOAD DUP1 SWAP2 SUB SWAP1 REVERT JUMPDEST PUSH1 0x0 PUSH20 0xFFFFFFFFFFFFFFFFFFFFFFFFFFFFFFFFFFFFFFFF AND PUSH1 0x2 PUSH1 0x0 CALLER PUSH20 0xFFFFFFFFFFFFFFFFFFFFFFFFFFFFFFFFFFFFFFFF AND PUSH20 0xFFFFFFFFFFFFFFFFFFFFFFFFFFFFFFFFFFFFFFFF AND DUP2 MSTORE PUSH1 0x20 ADD SWAP1 DUP2 MSTORE PUSH1 0x20 ADD PUSH1 0x0 KECCAK256 PUSH1 0x0 ADD PUSH1 0x1 SWAP1 SLOAD SWAP1 PUSH2 0x100 EXP SWAP1 DIV PUSH20 0xFFFFFFFFFFFFFFFFFFFFFFFFFFFFFFFFFFFFFFFF AND PUSH20 0xFFFFFFFFFFFFFFFFFFFFFFFFFFFFFFFFFFFFFFFF AND EQ ISZERO DUP1 ISZERO PUSH2 0x22C7 JUMPI POP PUSH2 0x22C6 PUSH1 0x4 DUP4 DUP2 SLOAD DUP2 LT PUSH2 0x21C8 JUMPI PUSH2 0x21C7 PUSH2 0x3178 JUMP JUMPDEST JUMPDEST SWAP1 PUSH1 0x0 MSTORE PUSH1 0x20 PUSH1 0x0 KECCAK256 SWAP1 PUSH1 0x6 MUL ADD PUSH1 0x4 ADD DUP1 SLOAD DUP1 PUSH1 0x20 MUL PUSH1 0x20 ADD PUSH1 0x40 MLOAD SWAP1 DUP2 ADD PUSH1 0x40 MSTORE DUP1 SWAP3 SWAP2 SWAP1 DUP2 DUP2 MSTORE PUSH1 0x20 ADD DUP3 DUP1 SLOAD DUP1 ISZERO PUSH2 0x2259 JUMPI PUSH1 0x20 MUL DUP3 ADD SWAP2 SWAP1 PUSH1 0x0 MSTORE PUSH1 0x20 PUSH1 0x0 KECCAK256 SWAP1 JUMPDEST DUP2 PUSH1 0x0 SWAP1 SLOAD SWAP1 PUSH2 0x100 EXP SWAP1 DIV PUSH20 0xFFFFFFFFFFFFFFFFFFFFFFFFFFFFFFFFFFFFFFFF AND PUSH20 0xFFFFFFFFFFFFFFFFFFFFFFFFFFFFFFFFFFFFFFFF AND DUP2 MSTORE PUSH1 0x20 ADD SWAP1 PUSH1 0x1 ADD SWAP1 DUP1 DUP4 GT PUSH2 0x220F JUMPI JUMPDEST POP POP POP POP POP PUSH1 0x2 PUSH1 0x0 CALLER PUSH20 0xFFFFFFFFFFFFFFFFFFFFFFFFFFFFFFFFFFFFFFFF AND PUSH20 0xFFFFFFFFFFFFFFFFFFFFFFFFFFFFFFFFFFFFFFFF AND DUP2 MSTORE PUSH1 0x20 ADD SWAP1 DUP2 MSTORE PUSH1 0x20 ADD PUSH1 0x0 KECCAK256 PUSH1 0x0 ADD PUSH1 0x1 SWAP1 SLOAD SWAP1 PUSH2 0x100 EXP SWAP1 DIV PUSH20 0xFFFFFFFFFFFFFFFFFFFFFFFFFFFFFFFFFFFFFFFF AND PUSH2 0x2799 JUMP JUMPDEST JUMPDEST ISZERO PUSH2 0x2413 JUMPI PUSH1 0x4 DUP3 DUP2 SLOAD DUP2 LT PUSH2 0x22E0 JUMPI PUSH2 0x22DF PUSH2 0x3178 JUMP JUMPDEST JUMPDEST SWAP1 PUSH1 0x0 MSTORE PUSH1 0x20 PUSH1 0x0 KECCAK256 SWAP1 PUSH1 0x6 MUL ADD PUSH1 0x4 ADD PUSH1 0x2 PUSH1 0x0 CALLER PUSH20 0xFFFFFFFFFFFFFFFFFFFFFFFFFFFFFFFFFFFFFFFF AND PUSH20 0xFFFFFFFFFFFFFFFFFFFFFFFFFFFFFFFFFFFFFFFF AND DUP2 MSTORE PUSH1 0x20 ADD SWAP1 DUP2 MSTORE PUSH1 0x20 ADD PUSH1 0x0 KECCAK256 PUSH1 0x0 ADD PUSH1 0x1 SWAP1 SLOAD SWAP1 PUSH2 0x100 EXP SWAP1 DIV PUSH20 0xFFFFFFFFFFFFFFFFFFFFFFFFFFFFFFFFFFFFFFFF AND SWAP1 DUP1 PUSH1 0x1 DUP2 SLOAD ADD DUP1 DUP3 SSTORE DUP1 SWAP2 POP POP PUSH1 0x1 SWAP1 SUB SWAP1 PUSH1 0x0 MSTORE PUSH1 0x20 PUSH1 0x0 KECCAK256 ADD PUSH1 0x0 SWAP1 SWAP2 SWAP1 SWAP2 SWAP1 SWAP2 PUSH2 0x100 EXP DUP2 SLOAD DUP2 PUSH20 0xFFFFFFFFFFFFFFFFFFFFFFFFFFFFFFFFFFFFFFFF MUL NOT AND SWAP1 DUP4 PUSH20 0xFFFFFFFFFFFFFFFFFFFFFFFFFFFFFFFFFFFFFFFF AND MUL OR SWAP1 SSTORE POP PUSH1 0x4 DUP3 DUP2 SLOAD DUP2 LT PUSH2 0x23C8 JUMPI PUSH2 0x23C7 PUSH2 0x3178 JUMP JUMPDEST JUMPDEST SWAP1 PUSH1 0x0 MSTORE PUSH1 0x20 PUSH1 0x0 KECCAK256 SWAP1 PUSH1 0x6 MUL ADD PUSH1 0x3 ADD DUP2 DUP2 SLOAD DUP2 LT PUSH2 0x23EB JUMPI PUSH2 0x23EA PUSH2 0x3178 JUMP JUMPDEST JUMPDEST SWAP1 PUSH1 0x0 MSTORE PUSH1 0x20 PUSH1 0x0 KECCAK256 SWAP1 PUSH1 0x2 MUL ADD PUSH1 0x1 ADD PUSH1 0x0 DUP2 SLOAD DUP1 SWAP3 SWAP2 SWAP1 PUSH2 0x240D SWAP1 PUSH2 0x3268 JUMP JUMPDEST SWAP2 SWAP1 POP SSTORE POP JUMPDEST PUSH1 0x0 PUSH20 0xFFFFFFFFFFFFFFFFFFFFFFFFFFFFFFFFFFFFFFFF AND PUSH1 0x2 PUSH1 0x0 CALLER PUSH20 0xFFFFFFFFFFFFFFFFFFFFFFFFFFFFFFFFFFFFFFFF AND PUSH20 0xFFFFFFFFFFFFFFFFFFFFFFFFFFFFFFFFFFFFFFFF AND DUP2 MSTORE PUSH1 0x20 ADD SWAP1 DUP2 MSTORE PUSH1 0x20 ADD PUSH1 0x0 KECCAK256 PUSH1 0x1 ADD PUSH1 0x0 SWAP1 SLOAD SWAP1 PUSH2 0x100 EXP SWAP1 DIV PUSH20 0xFFFFFFFFFFFFFFFFFFFFFFFFFFFFFFFFFFFFFFFF AND PUSH20 0xFFFFFFFFFFFFFFFFFFFFFFFFFFFFFFFFFFFFFFFF AND EQ ISZERO DUP1 ISZERO PUSH2 0x25C3 JUMPI POP PUSH2 0x25C2 PUSH1 0x4 DUP4 DUP2 SLOAD DUP2 LT PUSH2 0x24C4 JUMPI PUSH2 0x24C3 PUSH2 0x3178 JUMP JUMPDEST JUMPDEST SWAP1 PUSH1 0x0 MSTORE PUSH1 0x20 PUSH1 0x0 KECCAK256 SWAP1 PUSH1 0x6 MUL ADD PUSH1 0x4 ADD DUP1 SLOAD DUP1 PUSH1 0x20 MUL PUSH1 0x20 ADD PUSH1 0x40 MLOAD SWAP1 DUP2 ADD PUSH1 0x40 MSTORE DUP1 SWAP3 SWAP2 SWAP1 DUP2 DUP2 MSTORE PUSH1 0x20 ADD DUP3 DUP1 SLOAD DUP1 ISZERO PUSH2 0x2555 JUMPI PUSH1 0x20 MUL DUP3 ADD SWAP2 SWAP1 PUSH1 0x0 MSTORE PUSH1 0x20 PUSH1 0x0 KECCAK256 SWAP1 JUMPDEST DUP2 PUSH1 0x0 SWAP1 SLOAD SWAP1 PUSH2 0x100 EXP SWAP1 DIV PUSH20 0xFFFFFFFFFFFFFFFFFFFFFFFFFFFFFFFFFFFFFFFF AND PUSH20 0xFFFFFFFFFFFFFFFFFFFFFFFFFFFFFFFFFFFFFFFF AND DUP2 MSTORE PUSH1 0x20 ADD SWAP1 PUSH1 0x1 ADD SWAP1 DUP1 DUP4 GT PUSH2 0x250B JUMPI JUMPDEST POP POP POP POP POP PUSH1 0x2 PUSH1 0x0 CALLER PUSH20 0xFFFFFFFFFFFFFFFFFFFFFFFFFFFFFFFFFFFFFFFF AND PUSH20 0xFFFFFFFFFFFFFFFFFFFFFFFFFFFFFFFFFFFFFFFF AND DUP2 MSTORE PUSH1 0x20 ADD SWAP1 DUP2 MSTORE PUSH1 0x20 ADD PUSH1 0x0 KECCAK256 PUSH1 0x1 ADD PUSH1 0x0 SWAP1 SLOAD SWAP1 PUSH2 0x100 EXP SWAP1 DIV PUSH20 0xFFFFFFFFFFFFFFFFFFFFFFFFFFFFFFFFFFFFFFFF AND PUSH2 0x2799 JUMP JUMPDEST JUMPDEST ISZERO PUSH2 0x270F JUMPI PUSH1 0x4 DUP3 DUP2 SLOAD DUP2 LT PUSH2 0x25DC JUMPI PUSH2 0x25DB PUSH2 0x3178 JUMP JUMPDEST JUMPDEST SWAP1 PUSH1 0x0 MSTORE PUSH1 0x20 PUSH1 0x0 KECCAK256 SWAP1 PUSH1 0x6 MUL ADD PUSH1 0x4 ADD PUSH1 0x2 PUSH1 0x0 CALLER PUSH20 0xFFFFFFFFFFFFFFFFFFFFFFFFFFFFFFFFFFFFFFFF AND PUSH20 0xFFFFFFFFFFFFFFFFFFFFFFFFFFFFFFFFFFFFFFFF AND DUP2 MSTORE PUSH1 0x20 ADD SWAP1 DUP2 MSTORE PUSH1 0x20 ADD PUSH1 0x0 KECCAK256 PUSH1 0x1 ADD PUSH1 0x0 SWAP1 SLOAD SWAP1 PUSH2 0x100 EXP SWAP1 DIV PUSH20 0xFFFFFFFFFFFFFFFFFFFFFFFFFFFFFFFFFFFFFFFF AND SWAP1 DUP1 PUSH1 0x1 DUP2 SLOAD ADD DUP1 DUP3 SSTORE DUP1 SWAP2 POP POP PUSH1 0x1 SWAP1 SUB SWAP1 PUSH1 0x0 MSTORE PUSH1 0x20 PUSH1 0x0 KECCAK256 ADD PUSH1 0x0 SWAP1 SWAP2 SWAP1 SWAP2 SWAP1 SWAP2 PUSH2 0x100 EXP DUP2 SLOAD DUP2 PUSH20 0xFFFFFFFFFFFFFFFFFFFFFFFFFFFFFFFFFFFFFFFF MUL NOT AND SWAP1 DUP4 PUSH20 0xFFFFFFFFFFFFFFFFFFFFFFFFFFFFFFFFFFFFFFFF AND MUL OR SWAP1 SSTORE POP PUSH1 0x4 DUP3 DUP2 SLOAD DUP2 LT PUSH2 0x26C4 JUMPI PUSH2 0x26C3 PUSH2 0x3178 JUMP JUMPDEST JUMPDEST SWAP1 PUSH1 0x0 MSTORE PUSH1 0x20 PUSH1 0x0 KECCAK256 SWAP1 PUSH1 0x6 MUL ADD PUSH1 0x3 ADD DUP2 DUP2 SLOAD DUP2 LT PUSH2 0x26E7 JUMPI PUSH2 0x26E6 PUSH2 0x3178 JUMP JUMPDEST JUMPDEST SWAP1 PUSH1 0x0 MSTORE PUSH1 0x20 PUSH1 0x0 KECCAK256 SWAP1 PUSH1 0x2 MUL ADD PUSH1 0x1 ADD PUSH1 0x0 DUP2 SLOAD DUP1 SWAP3 SWAP2 SWAP1 PUSH2 0x2709 SWAP1 PUSH2 0x3268 JUMP JUMPDEST SWAP2 SWAP1 POP SSTORE POP JUMPDEST PUSH1 0x1 SLOAD PUSH1 0x4 DUP4 DUP2 SLOAD DUP2 LT PUSH2 0x2726 JUMPI PUSH2 0x2725 PUSH2 0x3178 JUMP JUMPDEST JUMPDEST SWAP1 PUSH1 0x0 MSTORE PUSH1 0x20 PUSH1 0x0 KECCAK256 SWAP1 PUSH1 0x6 MUL ADD PUSH1 0x4 ADD DUP1 SLOAD SWAP1 POP LT PUSH2 0x278F JUMPI PUSH1 0x2 PUSH1 0x4 DUP4 DUP2 SLOAD DUP2 LT PUSH2 0x2756 JUMPI PUSH2 0x2755 PUSH2 0x3178 JUMP JUMPDEST JUMPDEST SWAP1 PUSH1 0x0 MSTORE PUSH1 0x20 PUSH1 0x0 KECCAK256 SWAP1 PUSH1 0x6 MUL ADD PUSH1 0x2 ADD PUSH1 0x1 PUSH2 0x100 EXP DUP2 SLOAD DUP2 PUSH1 0xFF MUL NOT AND SWAP1 DUP4 PUSH1 0x2 DUP2 GT ISZERO PUSH2 0x2789 JUMPI PUSH2 0x2788 PUSH2 0x2BFD JUMP JUMPDEST JUMPDEST MUL OR SWAP1 SSTORE POP JUMPDEST POP POP JUMP JUMPDEST PUSH1 0x1 SLOAD DUP2 JUMP JUMPDEST PUSH1 0x0 DUP1 PUSH1 0x0 SWAP1 POP JUMPDEST DUP4 MLOAD DUP2 LT ISZERO PUSH2 0x2814 JUMPI DUP3 PUSH20 0xFFFFFFFFFFFFFFFFFFFFFFFFFFFFFFFFFFFFFFFF AND DUP5 DUP3 DUP2 MLOAD DUP2 LT PUSH2 0x27D4 JUMPI PUSH2 0x27D3 PUSH2 0x3178 JUMP JUMPDEST JUMPDEST PUSH1 0x20 MUL PUSH1 0x20 ADD ADD MLOAD PUSH20 0xFFFFFFFFFFFFFFFFFFFFFFFFFFFFFFFFFFFFFFFF AND SUB PUSH2 0x2801 JUMPI PUSH1 0x0 SWAP2 POP POP PUSH2 0x281A JUMP JUMPDEST DUP1 DUP1 PUSH2 0x280C SWAP1 PUSH2 0x3268 JUMP JUMPDEST SWAP2 POP POP PUSH2 0x27A1 JUMP JUMPDEST POP PUSH1 0x1 SWAP1 POP JUMPDEST SWAP3 SWAP2 POP POP JUMP JUMPDEST PUSH1 0x0 DUP1 PUSH1 0x0 SWAP1 POP JUMPDEST PUSH1 0x4 DUP1 SLOAD SWAP1 POP DUP2 LT ISZERO PUSH2 0x28B0 JUMPI PUSH1 0x1 PUSH1 0x2 DUP2 GT ISZERO PUSH2 0x2849 JUMPI PUSH2 0x2848 PUSH2 0x2BFD JUMP JUMPDEST JUMPDEST PUSH1 0x4 DUP3 DUP2 SLOAD DUP2 LT PUSH2 0x285D JUMPI PUSH2 0x285C PUSH2 0x3178 JUMP JUMPDEST JUMPDEST SWAP1 PUSH1 0x0 MSTORE PUSH1 0x20 PUSH1 0x0 KECCAK256 SWAP1 PUSH1 0x6 MUL ADD PUSH1 0x2 ADD PUSH1 0x1 SWAP1 SLOAD SWAP1 PUSH2 0x100 EXP SWAP1 DIV PUSH1 0xFF AND PUSH1 0x2 DUP2 GT ISZERO PUSH2 0x288E JUMPI PUSH2 0x288D PUSH2 0x2BFD JUMP JUMPDEST JUMPDEST SUB PUSH2 0x289D JUMPI PUSH1 0x0 SWAP2 POP POP PUSH2 0x28B6 JUMP JUMPDEST DUP1 DUP1 PUSH2 0x28A8 SWAP1 PUSH2 0x3268 JUMP JUMPDEST SWAP2 POP POP PUSH2 0x2828 JUMP JUMPDEST POP PUSH1 0x1 SWAP1 POP JUMPDEST SWAP1 JUMP JUMPDEST PUSH1 0x1 DUP2 EQ DUP1 PUSH2 0x28C8 JUMPI POP PUSH1 0x2 DUP2 EQ JUMPDEST PUSH2 0x28D1 JUMPI PUSH1 0x0 DUP1 REVERT JUMPDEST PUSH1 0x0 PUSH20 0xFFFFFFFFFFFFFFFFFFFFFFFFFFFFFFFFFFFFFFFF AND PUSH1 0x2 PUSH1 0x0 DUP5 PUSH20 0xFFFFFFFFFFFFFFFFFFFFFFFFFFFFFFFFFFFFFFFF AND PUSH20 0xFFFFFFFFFFFFFFFFFFFFFFFFFFFFFFFFFFFFFFFF AND DUP2 MSTORE PUSH1 0x20 ADD SWAP1 DUP2 MSTORE PUSH1 0x20 ADD PUSH1 0x0 KECCAK256 PUSH1 0x0 ADD PUSH1 0x1 SWAP1 SLOAD SWAP1 PUSH2 0x100 EXP SWAP1 DIV PUSH20 0xFFFFFFFFFFFFFFFFFFFFFFFFFFFFFFFFFFFFFFFF AND PUSH20 0xFFFFFFFFFFFFFFFFFFFFFFFFFFFFFFFFFFFFFFFF AND SUB PUSH2 0x29ED JUMPI DUP3 PUSH1 0x2 PUSH1 0x0 DUP5 PUSH20 0xFFFFFFFFFFFFFFFFFFFFFFFFFFFFFFFFFFFFFFFF AND PUSH20 0xFFFFFFFFFFFFFFFFFFFFFFFFFFFFFFFFFFFFFFFF AND DUP2 MSTORE PUSH1 0x20 ADD SWAP1 DUP2 MSTORE PUSH1 0x20 ADD PUSH1 0x0 KECCAK256 PUSH1 0x0 ADD PUSH1 0x1 PUSH2 0x100 EXP DUP2 SLOAD DUP2 PUSH20 0xFFFFFFFFFFFFFFFFFFFFFFFFFFFFFFFFFFFFFFFF MUL NOT AND SWAP1 DUP4 PUSH20 0xFFFFFFFFFFFFFFFFFFFFFFFFFFFFFFFFFFFFFFFF AND MUL OR SWAP1 SSTORE POP PUSH2 0x2A6F JUMP JUMPDEST DUP3 PUSH1 0x2 PUSH1 0x0 DUP5 PUSH20 0xFFFFFFFFFFFFFFFFFFFFFFFFFFFFFFFFFFFFFFFF AND PUSH20 0xFFFFFFFFFFFFFFFFFFFFFFFFFFFFFFFFFFFFFFFF AND DUP2 MSTORE PUSH1 0x20 ADD SWAP1 DUP2 MSTORE PUSH1 0x20 ADD PUSH1 0x0 KECCAK256 PUSH1 0x1 ADD PUSH1 0x0 PUSH2 0x100 EXP DUP2 SLOAD DUP2 PUSH20 0xFFFFFFFFFFFFFFFFFFFFFFFFFFFFFFFFFFFFFFFF MUL NOT AND SWAP1 DUP4 PUSH20 0xFFFFFFFFFFFFFFFFFFFFFFFFFFFFFFFFFFFFFFFF AND MUL OR SWAP1 SSTORE POP JUMPDEST PUSH1 0x1 DUP2 SUB PUSH2 0x2AFA JUMPI PUSH1 0x0 PUSH1 0x2 PUSH1 0x0 DUP6 PUSH20 0xFFFFFFFFFFFFFFFFFFFFFFFFFFFFFFFFFFFFFFFF AND PUSH20 0xFFFFFFFFFFFFFFFFFFFFFFFFFFFFFFFFFFFFFFFF AND DUP2 MSTORE PUSH1 0x20 ADD SWAP1 DUP2 MSTORE PUSH1 0x20 ADD PUSH1 0x0 KECCAK256 PUSH1 0x0 ADD PUSH1 0x1 PUSH2 0x100 EXP DUP2 SLOAD DUP2 PUSH20 0xFFFFFFFFFFFFFFFFFFFFFFFFFFFFFFFFFFFFFFFF MUL NOT AND SWAP1 DUP4 PUSH20 0xFFFFFFFFFFFFFFFFFFFFFFFFFFFFFFFFFFFFFFFF AND MUL OR SWAP1 SSTORE POP JUMPDEST POP POP POP JUMP JUMPDEST PUSH1 0x40 MLOAD DUP1 PUSH1 0x60 ADD PUSH1 0x40 MSTORE DUP1 PUSH1 0x0 PUSH1 0x4 DUP2 GT ISZERO PUSH2 0x2B1E JUMPI PUSH2 0x2B1D PUSH2 0x2BFD JUMP JUMPDEST JUMPDEST DUP2 MSTORE PUSH1 0x20 ADD PUSH1 0x0 PUSH20 0xFFFFFFFFFFFFFFFFFFFFFFFFFFFFFFFFFFFFFFFF AND DUP2 MSTORE PUSH1 0x20 ADD PUSH1 0x0 PUSH20 0xFFFFFFFFFFFFFFFFFFFFFFFFFFFFFFFFFFFFFFFF AND DUP2 MSTORE POP SWAP1 JUMP JUMPDEST PUSH1 0x0 PUSH1 0x40 MLOAD SWAP1 POP SWAP1 JUMP JUMPDEST PUSH1 0x0 DUP1 REVERT JUMPDEST PUSH1 0x0 DUP1 REVERT JUMPDEST PUSH1 0x0 PUSH20 0xFFFFFFFFFFFFFFFFFFFFFFFFFFFFFFFFFFFFFFFF DUP3 AND SWAP1 POP SWAP2 SWAP1 POP JUMP JUMPDEST PUSH1 0x0 PUSH2 0x2B9D DUP3 PUSH2 0x2B72 JUMP JUMPDEST SWAP1 POP SWAP2 SWAP1 POP JUMP JUMPDEST PUSH2 0x2BAD DUP2 PUSH2 0x2B92 JUMP JUMPDEST DUP2 EQ PUSH2 0x2BB8 JUMPI PUSH1 0x0 DUP1 REVERT JUMPDEST POP JUMP JUMPDEST PUSH1 0x0 DUP2 CALLDATALOAD SWAP1 POP PUSH2 0x2BCA DUP2 PUSH2 0x2BA4 JUMP JUMPDEST SWAP3 SWAP2 POP POP JUMP JUMPDEST PUSH1 0x0 PUSH1 0x20 DUP3 DUP5 SUB SLT ISZERO PUSH2 0x2BE6 JUMPI PUSH2 0x2BE5 PUSH2 0x2B68 JUMP JUMPDEST JUMPDEST PUSH1 0x0 PUSH2 0x2BF4 DUP5 DUP3 DUP6 ADD PUSH2 0x2BBB JUMP JUMPDEST SWAP2 POP POP SWAP3 SWAP2 POP POP JUMP JUMPDEST PUSH32 0x4E487B7100000000000000000000000000000000000000000000000000000000 PUSH1 0x0 MSTORE PUSH1 0x21 PUSH1 0x4 MSTORE PUSH1 0x24 PUSH1 0x0 REVERT JUMPDEST PUSH1 0x5 DUP2 LT PUSH2 0x2C3D JUMPI PUSH2 0x2C3C PUSH2 0x2BFD JUMP JUMPDEST JUMPDEST POP JUMP JUMPDEST PUSH1 0x0 DUP2 SWAP1 POP PUSH2 0x2C4E DUP3 PUSH2 0x2C2C JUMP JUMPDEST SWAP2 SWAP1 POP JUMP JUMPDEST PUSH1 0x0 PUSH2 0x2C5E DUP3 PUSH2 0x2C40 JUMP JUMPDEST SWAP1 POP SWAP2 SWAP1 POP JUMP JUMPDEST PUSH2 0x2C6E DUP2 PUSH2 0x2C53 JUMP JUMPDEST DUP3 MSTORE POP POP JUMP JUMPDEST PUSH2 0x2C7D DUP2 PUSH2 0x2B92 JUMP JUMPDEST DUP3 MSTORE POP POP JUMP JUMPDEST PUSH1 0x0 PUSH1 0x60 DUP3 ADD SWAP1 POP PUSH2 0x2C98 PUSH1 0x0 DUP4 ADD DUP7 PUSH2 0x2C65 JUMP JUMPDEST PUSH2 0x2CA5 PUSH1 0x20 DUP4 ADD DUP6 PUSH2 0x2C74 JUMP JUMPDEST PUSH2 0x2CB2 PUSH1 0x40 DUP4 ADD DUP5 PUSH2 0x2C74 JUMP JUMPDEST SWAP5 SWAP4 POP POP POP POP JUMP JUMPDEST PUSH1 0x0 DUP2 SWAP1 POP SWAP2 SWAP1 POP JUMP JUMPDEST PUSH2 0x2CCD DUP2 PUSH2 0x2CBA JUMP JUMPDEST DUP2 EQ PUSH2 0x2CD8 JUMPI PUSH1 0x0 DUP1 REVERT JUMPDEST POP JUMP JUMPDEST PUSH1 0x0 DUP2 CALLDATALOAD SWAP1 POP PUSH2 0x2CEA DUP2 PUSH2 0x2CC4 JUMP JUMPDEST SWAP3 SWAP2 POP POP JUMP JUMPDEST PUSH1 0x0 PUSH1 0x20 DUP3 DUP5 SUB SLT ISZERO PUSH2 0x2D06 JUMPI PUSH2 0x2D05 PUSH2 0x2B68 JUMP JUMPDEST JUMPDEST PUSH1 0x0 PUSH2 0x2D14 DUP5 DUP3 DUP6 ADD PUSH2 0x2CDB JUMP JUMPDEST SWAP2 POP POP SWAP3 SWAP2 POP POP JUMP JUMPDEST PUSH1 0x0 DUP2 ISZERO ISZERO SWAP1 POP SWAP2 SWAP1 POP JUMP JUMPDEST PUSH2 0x2D32 DUP2 PUSH2 0x2D1D JUMP JUMPDEST DUP3 MSTORE POP POP JUMP JUMPDEST PUSH1 0x0 PUSH1 0x20 DUP3 ADD SWAP1 POP PUSH2 0x2D4D PUSH1 0x0 DUP4 ADD DUP5 PUSH2 0x2D29 JUMP JUMPDEST SWAP3 SWAP2 POP POP JUMP JUMPDEST PUSH1 0x5 DUP2 LT PUSH2 0x2D60 JUMPI PUSH1 0x0 DUP1 REVERT JUMPDEST POP JUMP JUMPDEST PUSH1 0x0 DUP2 CALLDATALOAD SWAP1 POP PUSH2 0x2D72 DUP2 PUSH2 0x2D53 JUMP JUMPDEST SWAP3 SWAP2 POP POP JUMP JUMPDEST PUSH1 0x0 DUP1 PUSH1 0x40 DUP4 DUP6 SUB SLT ISZERO PUSH2 0x2D8F JUMPI PUSH2 0x2D8E PUSH2 0x2B68 JUMP JUMPDEST JUMPDEST PUSH1 0x0 PUSH2 0x2D9D DUP6 DUP3 DUP7 ADD PUSH2 0x2D63 JUMP JUMPDEST SWAP3 POP POP PUSH1 0x20 PUSH2 0x2DAE DUP6 DUP3 DUP7 ADD PUSH2 0x2BBB JUMP JUMPDEST SWAP2 POP POP SWAP3 POP SWAP3 SWAP1 POP JUMP JUMPDEST PUSH1 0x0 DUP1 REVERT JUMPDEST PUSH1 0x0 DUP1 REVERT JUMPDEST PUSH1 0x0 PUSH1 0x1F NOT PUSH1 0x1F DUP4 ADD AND SWAP1 POP SWAP2 SWAP1 POP JUMP JUMPDEST PUSH32 0x4E487B7100000000000000000000000000000000000000000000000000000000 PUSH1 0x0 MSTORE PUSH1 0x41 PUSH1 0x4 MSTORE PUSH1 0x24 PUSH1 0x0 REVERT JUMPDEST PUSH2 0x2E0B DUP3 PUSH2 0x2DC2 JUMP JUMPDEST DUP2 ADD DUP2 DUP2 LT PUSH8 0xFFFFFFFFFFFFFFFF DUP3 GT OR ISZERO PUSH2 0x2E2A JUMPI PUSH2 0x2E29 PUSH2 0x2DD3 JUMP JUMPDEST JUMPDEST DUP1 PUSH1 0x40 MSTORE POP POP POP JUMP JUMPDEST PUSH1 0x0 PUSH2 0x2E3D PUSH2 0x2B5E JUMP JUMPDEST SWAP1 POP PUSH2 0x2E49 DUP3 DUP3 PUSH2 0x2E02 JUMP JUMPDEST SWAP2 SWAP1 POP JUMP JUMPDEST PUSH1 0x0 PUSH8 0xFFFFFFFFFFFFFFFF DUP3 GT ISZERO PUSH2 0x2E69 JUMPI PUSH2 0x2E68 PUSH2 0x2DD3 JUMP JUMPDEST JUMPDEST PUSH2 0x2E72 DUP3 PUSH2 0x2DC2 JUMP JUMPDEST SWAP1 POP PUSH1 0x20 DUP2 ADD SWAP1 POP SWAP2 SWAP1 POP JUMP JUMPDEST DUP3 DUP2 DUP4 CALLDATACOPY PUSH1 0x0 DUP4 DUP4 ADD MSTORE POP POP POP JUMP JUMPDEST PUSH1 0x0 PUSH2 0x2EA1 PUSH2 0x2E9C DUP5 PUSH2 0x2E4E JUMP JUMPDEST PUSH2 0x2E33 JUMP JUMPDEST SWAP1 POP DUP3 DUP2 MSTORE PUSH1 0x20 DUP2 ADD DUP5 DUP5 DUP5 ADD GT ISZERO PUSH2 0x2EBD JUMPI PUSH2 0x2EBC PUSH2 0x2DBD JUMP JUMPDEST JUMPDEST PUSH2 0x2EC8 DUP5 DUP3 DUP6 PUSH2 0x2E7F JUMP JUMPDEST POP SWAP4 SWAP3 POP POP POP JUMP JUMPDEST PUSH1 0x0 DUP3 PUSH1 0x1F DUP4 ADD SLT PUSH2 0x2EE5 JUMPI PUSH2 0x2EE4 PUSH2 0x2DB8 JUMP JUMPDEST JUMPDEST DUP2 CALLDATALOAD PUSH2 0x2EF5 DUP5 DUP3 PUSH1 0x20 DUP7 ADD PUSH2 0x2E8E JUMP JUMPDEST SWAP2 POP POP SWAP3 SWAP2 POP POP JUMP JUMPDEST PUSH1 0x0 PUSH1 0x20 DUP3 DUP5 SUB SLT ISZERO PUSH2 0x2F14 JUMPI PUSH2 0x2F13 PUSH2 0x2B68 JUMP JUMPDEST JUMPDEST PUSH1 0x0 DUP3 ADD CALLDATALOAD PUSH8 0xFFFFFFFFFFFFFFFF DUP2 GT ISZERO PUSH2 0x2F32 JUMPI PUSH2 0x2F31 PUSH2 0x2B6D JUMP JUMPDEST JUMPDEST PUSH2 0x2F3E DUP5 DUP3 DUP6 ADD PUSH2 0x2ED0 JUMP JUMPDEST SWAP2 POP POP SWAP3 SWAP2 POP POP JUMP JUMPDEST PUSH2 0x2F50 DUP2 PUSH2 0x2CBA JUMP JUMPDEST DUP3 MSTORE POP POP JUMP JUMPDEST PUSH1 0x0 PUSH1 0x20 DUP3 ADD SWAP1 POP PUSH2 0x2F6B PUSH1 0x0 DUP4 ADD DUP5 PUSH2 0x2F47 JUMP JUMPDEST SWAP3 SWAP2 POP POP JUMP JUMPDEST PUSH1 0x0 DUP1 PUSH1 0x40 DUP4 DUP6 SUB SLT ISZERO PUSH2 0x2F88 JUMPI PUSH2 0x2F87 PUSH2 0x2B68 JUMP JUMPDEST JUMPDEST PUSH1 0x0 PUSH2 0x2F96 DUP6 DUP3 DUP7 ADD PUSH2 0x2CDB JUMP JUMPDEST SWAP3 POP POP PUSH1 0x20 PUSH2 0x2FA7 DUP6 DUP3 DUP7 ADD PUSH2 0x2CDB JUMP JUMPDEST SWAP2 POP POP SWAP3 POP SWAP3 SWAP1 POP JUMP JUMPDEST PUSH1 0x0 PUSH8 0xFFFFFFFFFFFFFFFF DUP3 GT ISZERO PUSH2 0x2FCC JUMPI PUSH2 0x2FCB PUSH2 0x2DD3 JUMP JUMPDEST JUMPDEST PUSH1 0x20 DUP3 MUL SWAP1 POP PUSH1 0x20 DUP2 ADD SWAP1 POP SWAP2 SWAP1 POP JUMP JUMPDEST PUSH1 0x0 DUP1 REVERT JUMPDEST PUSH1 0x0 PUSH2 0x2FF5 PUSH2 0x2FF0 DUP5 PUSH2 0x2FB1 JUMP JUMPDEST PUSH2 0x2E33 JUMP JUMPDEST SWAP1 POP DUP1 DUP4 DUP3 MSTORE PUSH1 0x20 DUP3 ADD SWAP1 POP PUSH1 0x20 DUP5 MUL DUP4 ADD DUP6 DUP2 GT ISZERO PUSH2 0x3018 JUMPI PUSH2 0x3017 PUSH2 0x2FDD JUMP JUMPDEST JUMPDEST DUP4 JUMPDEST DUP2 DUP2 LT ISZERO PUSH2 0x3041 JUMPI DUP1 PUSH2 0x302D DUP9 DUP3 PUSH2 0x2BBB JUMP JUMPDEST DUP5 MSTORE PUSH1 0x20 DUP5 ADD SWAP4 POP POP PUSH1 0x20 DUP2 ADD SWAP1 POP PUSH2 0x301A JUMP JUMPDEST POP POP POP SWAP4 SWAP3 POP POP POP JUMP JUMPDEST PUSH1 0x0 DUP3 PUSH1 0x1F DUP4 ADD SLT PUSH2 0x3060 JUMPI PUSH2 0x305F PUSH2 0x2DB8 JUMP JUMPDEST JUMPDEST DUP2 CALLDATALOAD PUSH2 0x3070 DUP5 DUP3 PUSH1 0x20 DUP7 ADD PUSH2 0x2FE2 JUMP JUMPDEST SWAP2 POP POP SWAP3 SWAP2 POP POP JUMP JUMPDEST PUSH1 0x0 DUP1 PUSH1 0x40 DUP4 DUP6 SUB SLT ISZERO PUSH2 0x3090 JUMPI PUSH2 0x308F PUSH2 0x2B68 JUMP JUMPDEST JUMPDEST PUSH1 0x0 DUP4 ADD CALLDATALOAD PUSH8 0xFFFFFFFFFFFFFFFF DUP2 GT ISZERO PUSH2 0x30AE JUMPI PUSH2 0x30AD PUSH2 0x2B6D JUMP JUMPDEST JUMPDEST PUSH2 0x30BA DUP6 DUP3 DUP7 ADD PUSH2 0x304B JUMP JUMPDEST SWAP3 POP POP PUSH1 0x20 PUSH2 0x30CB DUP6 DUP3 DUP7 ADD PUSH2 0x2BBB JUMP JUMPDEST SWAP2 POP POP SWAP3 POP SWAP3 SWAP1 POP JUMP JUMPDEST PUSH1 0x0 DUP3 DUP3 MSTORE PUSH1 0x20 DUP3 ADD SWAP1 POP SWAP3 SWAP2 POP POP JUMP JUMPDEST PUSH32 0x4F6E6C79207061727479206D656D626572732063616E20696E697469616C6C79 PUSH1 0x0 DUP3 ADD MSTORE PUSH32 0x20737570706F7274206120726567756C6172206D6F74696F6E2E000000000000 PUSH1 0x20 DUP3 ADD MSTORE POP JUMP JUMPDEST PUSH1 0x0 PUSH2 0x3142 PUSH1 0x3A DUP4 PUSH2 0x30D5 JUMP JUMPDEST SWAP2 POP PUSH2 0x314D DUP3 PUSH2 0x30E6 JUMP JUMPDEST PUSH1 0x40 DUP3 ADD SWAP1 POP SWAP2 SWAP1 POP JUMP JUMPDEST PUSH1 0x0 PUSH1 0x20 DUP3 ADD SWAP1 POP DUP2 DUP2 SUB PUSH1 0x0 DUP4 ADD MSTORE PUSH2 0x3171 DUP2 PUSH2 0x3135 JUMP JUMPDEST SWAP1 POP SWAP2 SWAP1 POP JUMP JUMPDEST PUSH32 0x4E487B7100000000000000000000000000000000000000000000000000000000 PUSH1 0x0 MSTORE PUSH1 0x32 PUSH1 0x4 MSTORE PUSH1 0x24 PUSH1 0x0 REVERT JUMPDEST PUSH32 0x41206D656D6265722063616E206F6E6C79206F6E636520737570706F72742061 PUSH1 0x0 DUP3 ADD MSTORE PUSH32 0x20726567756C6172206D6F74696F6E20696E697469616C6C792E000000000000 PUSH1 0x20 DUP3 ADD MSTORE POP JUMP JUMPDEST PUSH1 0x0 PUSH2 0x3203 PUSH1 0x3A DUP4 PUSH2 0x30D5 JUMP JUMPDEST SWAP2 POP PUSH2 0x320E DUP3 PUSH2 0x31A7 JUMP JUMPDEST PUSH1 0x40 DUP3 ADD SWAP1 POP SWAP2 SWAP1 POP JUMP JUMPDEST PUSH1 0x0 PUSH1 0x20 DUP3 ADD SWAP1 POP DUP2 DUP2 SUB PUSH1 0x0 DUP4 ADD MSTORE PUSH2 0x3232 DUP2 PUSH2 0x31F6 JUMP JUMPDEST SWAP1 POP SWAP2 SWAP1 POP JUMP JUMPDEST PUSH32 0x4E487B7100000000000000000000000000000000000000000000000000000000 PUSH1 0x0 MSTORE PUSH1 0x11 PUSH1 0x4 MSTORE PUSH1 0x24 PUSH1 0x0 REVERT JUMPDEST PUSH1 0x0 PUSH2 0x3273 DUP3 PUSH2 0x2CBA JUMP JUMPDEST SWAP2 POP PUSH32 0xFFFFFFFFFFFFFFFFFFFFFFFFFFFFFFFFFFFFFFFFFFFFFFFFFFFFFFFFFFFFFFFF DUP3 SUB PUSH2 0x32A5 JUMPI PUSH2 0x32A4 PUSH2 0x3239 JUMP JUMPDEST JUMPDEST PUSH1 0x1 DUP3 ADD SWAP1 POP SWAP2 SWAP1 POP JUMP JUMPDEST PUSH32 0x4F6E6C792061646D696E732063616E20616464206E657720636F6E76656E7469 PUSH1 0x0 DUP3 ADD MSTORE PUSH32 0x6F6E207061727469636970616E74732E00000000000000000000000000000000 PUSH1 0x20 DUP3 ADD MSTORE POP JUMP JUMPDEST PUSH1 0x0 PUSH2 0x330C PUSH1 0x30 DUP4 PUSH2 0x30D5 JUMP JUMPDEST SWAP2 POP PUSH2 0x3317 DUP3 PUSH2 0x32B0 JUMP JUMPDEST PUSH1 0x40 DUP3 ADD SWAP1 POP SWAP2 SWAP1 POP JUMP JUMPDEST PUSH1 0x0 PUSH1 0x20 DUP3 ADD SWAP1 POP DUP2 DUP2 SUB PUSH1 0x0 DUP4 ADD MSTORE PUSH2 0x333B DUP2 PUSH2 0x32FF JUMP JUMPDEST SWAP1 POP SWAP2 SWAP1 POP JUMP JUMPDEST PUSH32 0x546865205061727469636970616E742077617320616C72656164792061646465 PUSH1 0x0 DUP3 ADD MSTORE PUSH32 0x6420616E6420686F6C647320766F74696E67207269676874732E000000000000 PUSH1 0x20 DUP3 ADD MSTORE POP JUMP JUMPDEST PUSH1 0x0 PUSH2 0x339E PUSH1 0x3A DUP4 PUSH2 0x30D5 JUMP JUMPDEST SWAP2 POP PUSH2 0x33A9 DUP3 PUSH2 0x3342 JUMP JUMPDEST PUSH1 0x40 DUP3 ADD SWAP1 POP SWAP2 SWAP1 POP JUMP JUMPDEST PUSH1 0x0 PUSH1 0x20 DUP3 ADD SWAP1 POP DUP2 DUP2 SUB PUSH1 0x0 DUP4 ADD MSTORE PUSH2 0x33CD DUP2 PUSH2 0x3391 JUMP JUMPDEST SWAP1 POP SWAP2 SWAP1 POP JUMP JUMPDEST PUSH32 0x43616E206E6F7420616464206E6577207061727469636970616E747320776869 PUSH1 0x0 DUP3 ADD MSTORE PUSH32 0x6C6520766F74696E6720697320676F696E67206F6E2E00000000000000000000 PUSH1 0x20 DUP3 ADD MSTORE POP JUMP JUMPDEST PUSH1 0x0 PUSH2 0x3430 PUSH1 0x36 DUP4 PUSH2 0x30D5 JUMP JUMPDEST SWAP2 POP PUSH2 0x343B DUP3 PUSH2 0x33D4 JUMP JUMPDEST PUSH1 0x40 DUP3 ADD SWAP1 POP SWAP2 SWAP1 POP JUMP JUMPDEST PUSH1 0x0 PUSH1 0x20 DUP3 ADD SWAP1 POP DUP2 DUP2 SUB PUSH1 0x0 DUP4 ADD MSTORE PUSH2 0x345F DUP2 PUSH2 0x3423 JUMP JUMPDEST SWAP1 POP SWAP2 SWAP1 POP JUMP JUMPDEST PUSH32 0x4F6E6C792061646D696E732063616E20636C6F7365206D6F74696F6E732E0000 PUSH1 0x0 DUP3 ADD MSTORE POP JUMP JUMPDEST PUSH1 0x0 PUSH2 0x349C PUSH1 0x1E DUP4 PUSH2 0x30D5 JUMP JUMPDEST SWAP2 POP PUSH2 0x34A7 DUP3 PUSH2 0x3466 JUMP JUMPDEST PUSH1 0x20 DUP3 ADD SWAP1 POP SWAP2 SWAP1 POP JUMP JUMPDEST PUSH1 0x0 PUSH1 0x20 DUP3 ADD SWAP1 POP DUP2 DUP2 SUB PUSH1 0x0 DUP4 ADD MSTORE PUSH2 0x34CB DUP2 PUSH2 0x348F JUMP JUMPDEST SWAP1 POP SWAP2 SWAP1 POP JUMP JUMPDEST PUSH32 0x4F6E6C79206F70656E206D6F74696F6E732063616E20626520636C6F7365642E PUSH1 0x0 DUP3 ADD MSTORE POP JUMP JUMPDEST PUSH1 0x0 PUSH2 0x3508 PUSH1 0x20 DUP4 PUSH2 0x30D5 JUMP JUMPDEST SWAP2 POP PUSH2 0x3513 DUP3 PUSH2 0x34D2 JUMP JUMPDEST PUSH1 0x20 DUP3 ADD SWAP1 POP SWAP2 SWAP1 POP JUMP JUMPDEST PUSH1 0x0 PUSH1 0x20 DUP3 ADD SWAP1 POP DUP2 DUP2 SUB PUSH1 0x0 DUP4 ADD MSTORE PUSH2 0x3537 DUP2 PUSH2 0x34FB JUMP JUMPDEST SWAP1 POP SWAP2 SWAP1 POP JUMP JUMPDEST PUSH32 0x4F6E6C7920287265706C6163656D656E742964656C6567617465732063616E20 PUSH1 0x0 DUP3 ADD MSTORE PUSH32 0x7472616E7366657220766F74696E67207269676874732E000000000000000000 PUSH1 0x20 DUP3 ADD MSTORE POP JUMP JUMPDEST PUSH1 0x0 PUSH2 0x359A PUSH1 0x37 DUP4 PUSH2 0x30D5 JUMP JUMPDEST SWAP2 POP PUSH2 0x35A5 DUP3 PUSH2 0x353E JUMP JUMPDEST PUSH1 0x40 DUP3 ADD SWAP1 POP SWAP2 SWAP1 POP JUMP JUMPDEST PUSH1 0x0 PUSH1 0x20 DUP3 ADD SWAP1 POP DUP2 DUP2 SUB PUSH1 0x0 DUP4 ADD MSTORE PUSH2 0x35C9 DUP2 PUSH2 0x358D JUMP JUMPDEST SWAP1 POP SWAP2 SWAP1 POP JUMP JUMPDEST PUSH32 0x4F6E6C7920287265706C6163656D656E742964656C6567617465732063616E20 PUSH1 0x0 DUP3 ADD MSTORE PUSH32 0x7265636569766520766F74696E67207269676874732E00000000000000000000 PUSH1 0x20 DUP3 ADD MSTORE POP JUMP JUMPDEST PUSH1 0x0 PUSH2 0x362C PUSH1 0x36 DUP4 PUSH2 0x30D5 JUMP JUMPDEST SWAP2 POP PUSH2 0x3637 DUP3 PUSH2 0x35D0 JUMP JUMPDEST PUSH1 0x40 DUP3 ADD SWAP1 POP SWAP2 SWAP1 POP JUMP JUMPDEST PUSH1 0x0 PUSH1 0x20 DUP3 ADD SWAP1 POP DUP2 DUP2 SUB PUSH1 0x0 DUP4 ADD MSTORE PUSH2 0x365B DUP2 PUSH2 0x361F JUMP JUMPDEST SWAP1 POP SWAP2 SWAP1 POP JUMP JUMPDEST PUSH32 0x4D6573736167652073656E64657220646F6573206E6F7420686F6C6420616E79 PUSH1 0x0 DUP3 ADD MSTORE PUSH32 0x20766F74696E6720726967687420312E00000000000000000000000000000000 PUSH1 0x20 DUP3 ADD MSTORE POP JUMP JUMPDEST PUSH1 0x0 PUSH2 0x36BE PUSH1 0x30 DUP4 PUSH2 0x30D5 JUMP JUMPDEST SWAP2 POP PUSH2 0x36C9 DUP3 PUSH2 0x3662 JUMP JUMPDEST PUSH1 0x40 DUP3 ADD SWAP1 POP SWAP2 SWAP1 POP JUMP JUMPDEST PUSH1 0x0 PUSH1 0x20 DUP3 ADD SWAP1 POP DUP2 DUP2 SUB PUSH1 0x0 DUP4 ADD MSTORE PUSH2 0x36ED DUP2 PUSH2 0x36B1 JUMP JUMPDEST SWAP1 POP SWAP2 SWAP1 POP JUMP JUMPDEST PUSH32 0x526563656976696E6720287265706C6163656D656E742964656C656761746520 PUSH1 0x0 DUP3 ADD MSTORE PUSH32 0x68617320616C726561647920322061637469766520766F74696E672072696768 PUSH1 0x20 DUP3 ADD MSTORE PUSH32 0x7473000000000000000000000000000000000000000000000000000000000000 PUSH1 0x40 DUP3 ADD MSTORE POP JUMP JUMPDEST PUSH1 0x0 PUSH2 0x3776 PUSH1 0x42 DUP4 PUSH2 0x30D5 JUMP JUMPDEST SWAP2 POP PUSH2 0x3781 DUP3 PUSH2 0x36F4 JUMP JUMPDEST PUSH1 0x60 DUP3 ADD SWAP1 POP SWAP2 SWAP1 POP JUMP JUMPDEST PUSH1 0x0 PUSH1 0x20 DUP3 ADD SWAP1 POP DUP2 DUP2 SUB PUSH1 0x0 DUP4 ADD MSTORE PUSH2 0x37A5 DUP2 PUSH2 0x3769 JUMP JUMPDEST SWAP1 POP SWAP2 SWAP1 POP JUMP JUMPDEST PUSH32 0x43616E206E6F74207472616E7366657220766F74657320647572696E67206F70 PUSH1 0x0 DUP3 ADD MSTORE PUSH32 0x656E20766F74696E672070726F63657373657300000000000000000000000000 PUSH1 0x20 DUP3 ADD MSTORE POP JUMP JUMPDEST PUSH1 0x0 PUSH2 0x3808 PUSH1 0x33 DUP4 PUSH2 0x30D5 JUMP JUMPDEST SWAP2 POP PUSH2 0x3813 DUP3 PUSH2 0x37AC JUMP JUMPDEST PUSH1 0x40 DUP3 ADD SWAP1 POP SWAP2 SWAP1 POP JUMP JUMPDEST PUSH1 0x0 PUSH1 0x20 DUP3 ADD SWAP1 POP DUP2 DUP2 SUB PUSH1 0x0 DUP4 ADD MSTORE PUSH2 0x3837 DUP2 PUSH2 0x37FB JUMP JUMPDEST SWAP1 POP SWAP2 SWAP1 POP JUMP JUMPDEST PUSH32 0x4F6E6C79207061727479206D656D626572732063616E20637265617465206120 PUSH1 0x0 DUP3 ADD MSTORE PUSH32 0x726567756C6172206D6F74696F6E2E0000000000000000000000000000000000 PUSH1 0x20 DUP3 ADD MSTORE POP JUMP JUMPDEST PUSH1 0x0 PUSH2 0x389A PUSH1 0x2F DUP4 PUSH2 0x30D5 JUMP JUMPDEST SWAP2 POP PUSH2 0x38A5 DUP3 PUSH2 0x383E JUMP JUMPDEST PUSH1 0x40 DUP3 ADD SWAP1 POP SWAP2 SWAP1 POP JUMP JUMPDEST PUSH1 0x0 PUSH1 0x20 DUP3 ADD SWAP1 POP DUP2 DUP2 SUB PUSH1 0x0 DUP4 ADD MSTORE PUSH2 0x38C9 DUP2 PUSH2 0x388D JUMP JUMPDEST SWAP1 POP SWAP2 SWAP1 POP JUMP JUMPDEST PUSH32 0x43616E206E6F7420637265617465206E6577206D6F74696F6E73207768696C65 PUSH1 0x0 DUP3 ADD MSTORE PUSH32 0x20766F74696E6720697320676F696E67206F6E2E000000000000000000000000 PUSH1 0x20 DUP3 ADD MSTORE POP JUMP JUMPDEST PUSH1 0x0 PUSH2 0x392C PUSH1 0x34 DUP4 PUSH2 0x30D5 JUMP JUMPDEST SWAP2 POP PUSH2 0x3937 DUP3 PUSH2 0x38D0 JUMP JUMPDEST PUSH1 0x40 DUP3 ADD SWAP1 POP SWAP2 SWAP1 POP JUMP JUMPDEST PUSH1 0x0 PUSH1 0x20 DUP3 ADD SWAP1 POP DUP2 DUP2 SUB PUSH1 0x0 DUP4 ADD MSTORE PUSH2 0x395B DUP2 PUSH2 0x391F JUMP JUMPDEST SWAP1 POP SWAP2 SWAP1 POP JUMP JUMPDEST PUSH1 0x0 DUP2 MLOAD SWAP1 POP SWAP2 SWAP1 POP JUMP JUMPDEST PUSH32 0x4E487B7100000000000000000000000000000000000000000000000000000000 PUSH1 0x0 MSTORE PUSH1 0x22 PUSH1 0x4 MSTORE PUSH1 0x24 PUSH1 0x0 REVERT JUMPDEST PUSH1 0x0 PUSH1 0x2 DUP3 DIV SWAP1 POP PUSH1 0x1 DUP3 AND DUP1 PUSH2 0x39B4 JUMPI PUSH1 0x7F DUP3 AND SWAP2 POP JUMPDEST PUSH1 0x20 DUP3 LT DUP2 SUB PUSH2 0x39C7 JUMPI PUSH2 0x39C6 PUSH2 0x396D JUMP JUMPDEST JUMPDEST POP SWAP2 SWAP1 POP JUMP JUMPDEST PUSH1 0x0 DUP2 SWAP1 POP DUP2 PUSH1 0x0 MSTORE PUSH1 0x20 PUSH1 0x0 KECCAK256 SWAP1 POP SWAP2 SWAP1 POP JUMP JUMPDEST PUSH1 0x0 PUSH1 0x20 PUSH1 0x1F DUP4 ADD DIV SWAP1 POP SWAP2 SWAP1 POP JUMP JUMPDEST PUSH1 0x0 DUP3 DUP3 SHL SWAP1 POP SWAP3 SWAP2 POP POP JUMP JUMPDEST PUSH1 0x0 PUSH1 0x8 DUP4 MUL PUSH2 0x3A2F PUSH32 0xFFFFFFFFFFFFFFFFFFFFFFFFFFFFFFFFFFFFFFFFFFFFFFFFFFFFFFFFFFFFFFFF DUP3 PUSH2 0x39F2 JUMP JUMPDEST PUSH2 0x3A39 DUP7 DUP4 PUSH2 0x39F2 JUMP JUMPDEST SWAP6 POP DUP1 NOT DUP5 AND SWAP4 POP DUP1 DUP7 AND DUP5 OR SWAP3 POP POP POP SWAP4 SWAP3 POP POP POP JUMP JUMPDEST PUSH1 0x0 DUP2 SWAP1 POP SWAP2 SWAP1 POP JUMP JUMPDEST PUSH1 0x0 PUSH2 0x3A76 PUSH2 0x3A71 PUSH2 0x3A6C DUP5 PUSH2 0x2CBA JUMP JUMPDEST PUSH2 0x3A51 JUMP JUMPDEST PUSH2 0x2CBA JUMP JUMPDEST SWAP1 POP SWAP2 SWAP1 POP JUMP JUMPDEST PUSH1 0x0 DUP2 SWAP1 POP SWAP2 SWAP1 POP JUMP JUMPDEST PUSH2 0x3A90 DUP4 PUSH2 0x3A5B JUMP JUMPDEST PUSH2 0x3AA4 PUSH2 0x3A9C DUP3 PUSH2 0x3A7D JUMP JUMPDEST DUP5 DUP5 SLOAD PUSH2 0x39FF JUMP JUMPDEST DUP3 SSTORE POP POP POP POP JUMP JUMPDEST PUSH1 0x0 SWAP1 JUMP JUMPDEST PUSH2 0x3AB9 PUSH2 0x3AAC JUMP JUMPDEST PUSH2 0x3AC4 DUP2 DUP5 DUP5 PUSH2 0x3A87 JUMP JUMPDEST POP POP POP JUMP JUMPDEST JUMPDEST DUP2 DUP2 LT ISZERO PUSH2 0x3AE8 JUMPI PUSH2 0x3ADD PUSH1 0x0 DUP3 PUSH2 0x3AB1 JUMP JUMPDEST PUSH1 0x1 DUP2 ADD SWAP1 POP PUSH2 0x3ACA JUMP JUMPDEST POP POP JUMP JUMPDEST PUSH1 0x1F DUP3 GT ISZERO PUSH2 0x3B2D JUMPI PUSH2 0x3AFE DUP2 PUSH2 0x39CD JUMP JUMPDEST PUSH2 0x3B07 DUP5 PUSH2 0x39E2 JUMP JUMPDEST DUP2 ADD PUSH1 0x20 DUP6 LT ISZERO PUSH2 0x3B16 JUMPI DUP2 SWAP1 POP JUMPDEST PUSH2 0x3B2A PUSH2 0x3B22 DUP6 PUSH2 0x39E2 JUMP JUMPDEST DUP4 ADD DUP3 PUSH2 0x3AC9 JUMP JUMPDEST POP POP JUMPDEST POP POP POP JUMP JUMPDEST PUSH1 0x0 DUP3 DUP3 SHR SWAP1 POP SWAP3 SWAP2 POP POP JUMP JUMPDEST PUSH1 0x0 PUSH2 0x3B50 PUSH1 0x0 NOT DUP5 PUSH1 0x8 MUL PUSH2 0x3B32 JUMP JUMPDEST NOT DUP1 DUP4 AND SWAP2 POP POP SWAP3 SWAP2 POP POP JUMP JUMPDEST PUSH1 0x0 PUSH2 0x3B69 DUP4 DUP4 PUSH2 0x3B3F JUMP JUMPDEST SWAP2 POP DUP3 PUSH1 0x2 MUL DUP3 OR SWAP1 POP SWAP3 SWAP2 POP POP JUMP JUMPDEST PUSH2 0x3B82 DUP3 PUSH2 0x3962 JUMP JUMPDEST PUSH8 0xFFFFFFFFFFFFFFFF DUP2 GT ISZERO PUSH2 0x3B9B JUMPI PUSH2 0x3B9A PUSH2 0x2DD3 JUMP JUMPDEST JUMPDEST PUSH2 0x3BA5 DUP3 SLOAD PUSH2 0x399C JUMP JUMPDEST PUSH2 0x3BB0 DUP3 DUP3 DUP6 PUSH2 0x3AEC JUMP JUMPDEST PUSH1 0x0 PUSH1 0x20 SWAP1 POP PUSH1 0x1F DUP4 GT PUSH1 0x1 DUP2 EQ PUSH2 0x3BE3 JUMPI PUSH1 0x0 DUP5 ISZERO PUSH2 0x3BD1 JUMPI DUP3 DUP8 ADD MLOAD SWAP1 POP JUMPDEST PUSH2 0x3BDB DUP6 DUP3 PUSH2 0x3B5D JUMP JUMPDEST DUP7 SSTORE POP PUSH2 0x3C43 JUMP JUMPDEST PUSH1 0x1F NOT DUP5 AND PUSH2 0x3BF1 DUP7 PUSH2 0x39CD JUMP JUMPDEST PUSH1 0x0 JUMPDEST DUP3 DUP2 LT ISZERO PUSH2 0x3C19 JUMPI DUP5 DUP10 ADD MLOAD DUP3 SSTORE PUSH1 0x1 DUP3 ADD SWAP2 POP PUSH1 0x20 DUP6 ADD SWAP5 POP PUSH1 0x20 DUP2 ADD SWAP1 POP PUSH2 0x3BF4 JUMP JUMPDEST DUP7 DUP4 LT ISZERO PUSH2 0x3C36 JUMPI DUP5 DUP10 ADD MLOAD PUSH2 0x3C32 PUSH1 0x1F DUP10 AND DUP3 PUSH2 0x3B3F JUMP JUMPDEST DUP4 SSTORE POP JUMPDEST PUSH1 0x1 PUSH1 0x2 DUP9 MUL ADD DUP9 SSTORE POP POP POP JUMPDEST POP POP POP POP POP POP JUMP JUMPDEST PUSH32 0x4F6E6C792064656C6567617465732063616E207265636C61696D207468656972 PUSH1 0x0 DUP3 ADD MSTORE PUSH32 0x206F726967696E616C20766F74696E672072696768742E000000000000000000 PUSH1 0x20 DUP3 ADD MSTORE POP JUMP JUMPDEST PUSH1 0x0 PUSH2 0x3CA7 PUSH1 0x37 DUP4 PUSH2 0x30D5 JUMP JUMPDEST SWAP2 POP PUSH2 0x3CB2 DUP3 PUSH2 0x3C4B JUMP JUMPDEST PUSH1 0x40 DUP3 ADD SWAP1 POP SWAP2 SWAP1 POP JUMP JUMPDEST PUSH1 0x0 PUSH1 0x20 DUP3 ADD SWAP1 POP DUP2 DUP2 SUB PUSH1 0x0 DUP4 ADD MSTORE PUSH2 0x3CD6 DUP2 PUSH2 0x3C9A JUMP JUMPDEST SWAP1 POP SWAP2 SWAP1 POP JUMP JUMPDEST PUSH32 0x5265636C61696D657220616C726561647920686F6C6473203220616374697665 PUSH1 0x0 DUP3 ADD MSTORE PUSH32 0x20766F74696E6720726967687473000000000000000000000000000000000000 PUSH1 0x20 DUP3 ADD MSTORE POP JUMP JUMPDEST PUSH1 0x0 PUSH2 0x3D39 PUSH1 0x2E DUP4 PUSH2 0x30D5 JUMP JUMPDEST SWAP2 POP PUSH2 0x3D44 DUP3 PUSH2 0x3CDD JUMP JUMPDEST PUSH1 0x40 DUP3 ADD SWAP1 POP SWAP2 SWAP1 POP JUMP JUMPDEST PUSH1 0x0 PUSH1 0x20 DUP3 ADD SWAP1 POP DUP2 DUP2 SUB PUSH1 0x0 DUP4 ADD MSTORE PUSH2 0x3D68 DUP2 PUSH2 0x3D2C JUMP JUMPDEST SWAP1 POP SWAP2 SWAP1 POP JUMP JUMPDEST PUSH32 0x5265636C61696D657220616C726561647920686F6C6473206869732F68657220 PUSH1 0x0 DUP3 ADD MSTORE PUSH32 0x6F726967696E616C20766F74696E672072696768740000000000000000000000 PUSH1 0x20 DUP3 ADD MSTORE POP JUMP JUMPDEST PUSH1 0x0 PUSH2 0x3DCB PUSH1 0x35 DUP4 PUSH2 0x30D5 JUMP JUMPDEST SWAP2 POP PUSH2 0x3DD6 DUP3 PUSH2 0x3D6F JUMP JUMPDEST PUSH1 0x40 DUP3 ADD SWAP1 POP SWAP2 SWAP1 POP JUMP JUMPDEST PUSH1 0x0 PUSH1 0x20 DUP3 ADD SWAP1 POP DUP2 DUP2 SUB PUSH1 0x0 DUP4 ADD MSTORE PUSH2 0x3DFA DUP2 PUSH2 0x3DBE JUMP JUMPDEST SWAP1 POP SWAP2 SWAP1 POP JUMP JUMPDEST PUSH32 0x4F6E6C7920287265706C6163656D656E742964656C6567617465732063616E20 PUSH1 0x0 DUP3 ADD MSTORE PUSH32 0x6361737420766F7465732E000000000000000000000000000000000000000000 PUSH1 0x20 DUP3 ADD MSTORE POP JUMP JUMPDEST PUSH1 0x0 PUSH2 0x3E5D PUSH1 0x2B DUP4 PUSH2 0x30D5 JUMP JUMPDEST SWAP2 POP PUSH2 0x3E68 DUP3 PUSH2 0x3E01 JUMP JUMPDEST PUSH1 0x40 DUP3 ADD SWAP1 POP SWAP2 SWAP1 POP JUMP JUMPDEST PUSH1 0x0 PUSH1 0x20 DUP3 ADD SWAP1 POP DUP2 DUP2 SUB PUSH1 0x0 DUP4 ADD MSTORE PUSH2 0x3E8C DUP2 PUSH2 0x3E50 JUMP JUMPDEST SWAP1 POP SWAP2 SWAP1 POP JUMP JUMPDEST PUSH32 0x4D6F74696F6E206973206E6F74206F70656E20666F7220766F74696E672E0000 PUSH1 0x0 DUP3 ADD MSTORE POP JUMP JUMPDEST PUSH1 0x0 PUSH2 0x3EC9 PUSH1 0x1E DUP4 PUSH2 0x30D5 JUMP JUMPDEST SWAP2 POP PUSH2 0x3ED4 DUP3 PUSH2 0x3E93 JUMP JUMPDEST PUSH1 0x20 DUP3 ADD SWAP1 POP SWAP2 SWAP1 POP JUMP JUMPDEST PUSH1 0x0 PUSH1 0x20 DUP3 ADD SWAP1 POP DUP2 DUP2 SUB PUSH1 0x0 DUP4 ADD MSTORE PUSH2 0x3EF8 DUP2 PUSH2 0x3EBC JUMP JUMPDEST SWAP1 POP SWAP2 SWAP1 POP JUMP JUMPDEST PUSH32 0x4E6F2061637469766520766F74696E67207269676874732068656C6420627920 PUSH1 0x0 DUP3 ADD MSTORE PUSH32 0x73656E6465720000000000000000000000000000000000000000000000000000 PUSH1 0x20 DUP3 ADD MSTORE POP JUMP JUMPDEST PUSH1 0x0 PUSH2 0x3F5B PUSH1 0x26 DUP4 PUSH2 0x30D5 JUMP JUMPDEST SWAP2 POP PUSH2 0x3F66 DUP3 PUSH2 0x3EFF JUMP JUMPDEST PUSH1 0x40 DUP3 ADD SWAP1 POP SWAP2 SWAP1 POP JUMP JUMPDEST PUSH1 0x0 PUSH1 0x20 DUP3 ADD SWAP1 POP DUP2 DUP2 SUB PUSH1 0x0 DUP4 ADD MSTORE PUSH2 0x3F8A DUP2 PUSH2 0x3F4E JUMP JUMPDEST SWAP1 POP SWAP2 SWAP1 POP JUMP JUMPDEST PUSH32 0x566F7465287329207765726520616C7265616479206361737400000000000000 PUSH1 0x0 DUP3 ADD MSTORE POP JUMP JUMPDEST PUSH1 0x0 PUSH2 0x3FC7 PUSH1 0x19 DUP4 PUSH2 0x30D5 JUMP JUMPDEST SWAP2 POP PUSH2 0x3FD2 DUP3 PUSH2 0x3F91 JUMP JUMPDEST PUSH1 0x20 DUP3 ADD SWAP1 POP SWAP2 SWAP1 POP JUMP JUMPDEST PUSH1 0x0 PUSH1 0x20 DUP3 ADD SWAP1 POP DUP2 DUP2 SUB PUSH1 0x0 DUP4 ADD MSTORE PUSH2 0x3FF6 DUP2 PUSH2 0x3FBA JUMP JUMPDEST SWAP1 POP SWAP2 SWAP1 POP JUMP INVALID LOG2 PUSH5 0x6970667358 0x22 SLT KECCAK256 0xCF 0xC STATICCALL 0x49 PUSH2 0x25C7 PUSH2 0x2591 DUP16 PUSH12 0x7F76B991F503D6DE73116B18 PUSH15 0xD9BC12B06599DA64736F6C63430008 SGT STOP CALLER "
				},
				"gasEstimates": {
					"creation": {
						"codeDepositCost": "3287000",
						"executionCost": "159885",
						"totalCost": "3446885"
					},
					"external": {
						"addParticipant(uint8,address)": "infinite",
						"closeMotion(uint256)": "33793",
						"createRegularMotion(string)": "infinite",
						"enoughSupporters(uint256)": "infinite",
						"initiallySupportMotion(uint256)": "infinite",
						"motionCounter()": "2473",
						"notContainedInArray(address[],address)": "infinite",
						"participants(address)": "infinite",
						"reclaimOriginalVotingRight()": "infinite",
						"transferVotingRight1(address)": "infinite",
						"voteForMotion(uint256,uint256)": "infinite",
						"votingRightsCounter()": "2517"
					},
					"internal": {
						"noOpenMotions()": "infinite",
						"transfer(address,address,uint256)": "51249"
					}
				},
				"methodIdentifiers": {
					"addParticipant(uint8,address)": "8de2fc3a",
					"closeMotion(uint256)": "9084f1f9",
					"createRegularMotion(string)": "bd7bb654",
					"enoughSupporters(uint256)": "8a022b9c",
					"initiallySupportMotion(uint256)": "31b47842",
					"motionCounter()": "ecd2713a",
					"notContainedInArray(address[],address)": "fea2fa6a",
					"participants(address)": "09e69ede",
					"reclaimOriginalVotingRight()": "d5506819",
					"transferVotingRight1(address)": "a00f0236",
					"voteForMotion(uint256,uint256)": "f513edb4",
					"votingRightsCounter()": "fc14ebbb"
				}
			},
			"storageLayout": {
				"storage": [
					{
						"astId": 17,
						"contract": "contracts/Voting02.sol:PartyConvention",
						"label": "motionCounter",
						"offset": 0,
						"slot": "0",
						"type": "t_uint256"
					},
					{
						"astId": 20,
						"contract": "contracts/Voting02.sol:PartyConvention",
						"label": "votingRightsCounter",
						"offset": 0,
						"slot": "1",
						"type": "t_uint256"
					},
					{
						"astId": 59,
						"contract": "contracts/Voting02.sol:PartyConvention",
						"label": "participants",
						"offset": 0,
						"slot": "2",
						"type": "t_mapping(t_address,t_struct(Participant)28_storage)"
					},
					{
						"astId": 62,
						"contract": "contracts/Voting02.sol:PartyConvention",
						"label": "participantsArray",
						"offset": 0,
						"slot": "3",
						"type": "t_array(t_address)dyn_storage"
					},
					{
						"astId": 66,
						"contract": "contracts/Voting02.sol:PartyConvention",
						"label": "motions",
						"offset": 0,
						"slot": "4",
						"type": "t_array(t_struct(Motion)54_storage)dyn_storage"
					}
				],
				"types": {
					"t_address": {
						"encoding": "inplace",
						"label": "address",
						"numberOfBytes": "20"
					},
					"t_array(t_address)dyn_storage": {
						"base": "t_address",
						"encoding": "dynamic_array",
						"label": "address[]",
						"numberOfBytes": "32"
					},
					"t_array(t_struct(Motion)54_storage)dyn_storage": {
						"base": "t_struct(Motion)54_storage",
						"encoding": "dynamic_array",
						"label": "struct PartyConvention.Motion[]",
						"numberOfBytes": "32"
					},
					"t_array(t_struct(Option)33_storage)dyn_storage": {
						"base": "t_struct(Option)33_storage",
						"encoding": "dynamic_array",
						"label": "struct PartyConvention.Option[]",
						"numberOfBytes": "32"
					},
					"t_enum(ConventionRole)7": {
						"encoding": "inplace",
						"label": "enum PartyConvention.ConventionRole",
						"numberOfBytes": "1"
					},
					"t_enum(MotionStatus)11": {
						"encoding": "inplace",
						"label": "enum PartyConvention.MotionStatus",
						"numberOfBytes": "1"
					},
					"t_enum(MotionType)14": {
						"encoding": "inplace",
						"label": "enum PartyConvention.MotionType",
						"numberOfBytes": "1"
					},
					"t_mapping(t_address,t_struct(Participant)28_storage)": {
						"encoding": "mapping",
						"key": "t_address",
						"label": "mapping(address => struct PartyConvention.Participant)",
						"numberOfBytes": "32",
						"value": "t_struct(Participant)28_storage"
					},
					"t_string_storage": {
						"encoding": "bytes",
						"label": "string",
						"numberOfBytes": "32"
					},
					"t_struct(Motion)54_storage": {
						"encoding": "inplace",
						"label": "struct PartyConvention.Motion",
						"members": [
							{
								"astId": 35,
								"contract": "contracts/Voting02.sol:PartyConvention",
								"label": "id",
								"offset": 0,
								"slot": "0",
								"type": "t_uint256"
							},
							{
								"astId": 37,
								"contract": "contracts/Voting02.sol:PartyConvention",
								"label": "text",
								"offset": 0,
								"slot": "1",
								"type": "t_string_storage"
							},
							{
								"astId": 40,
								"contract": "contracts/Voting02.sol:PartyConvention",
								"label": "mtype",
								"offset": 0,
								"slot": "2",
								"type": "t_enum(MotionType)14"
							},
							{
								"astId": 43,
								"contract": "contracts/Voting02.sol:PartyConvention",
								"label": "status",
								"offset": 1,
								"slot": "2",
								"type": "t_enum(MotionStatus)11"
							},
							{
								"astId": 47,
								"contract": "contracts/Voting02.sol:PartyConvention",
								"label": "options",
								"offset": 0,
								"slot": "3",
								"type": "t_array(t_struct(Option)33_storage)dyn_storage"
							},
							{
								"astId": 50,
								"contract": "contracts/Voting02.sol:PartyConvention",
								"label": "voters",
								"offset": 0,
								"slot": "4",
								"type": "t_array(t_address)dyn_storage"
							},
							{
								"astId": 53,
								"contract": "contracts/Voting02.sol:PartyConvention",
								"label": "initialSupporters",
								"offset": 0,
								"slot": "5",
								"type": "t_array(t_address)dyn_storage"
							}
						],
						"numberOfBytes": "192"
					},
					"t_struct(Option)33_storage": {
						"encoding": "inplace",
						"label": "struct PartyConvention.Option",
						"members": [
							{
								"astId": 30,
								"contract": "contracts/Voting02.sol:PartyConvention",
								"label": "name",
								"offset": 0,
								"slot": "0",
								"type": "t_string_storage"
							},
							{
								"astId": 32,
								"contract": "contracts/Voting02.sol:PartyConvention",
								"label": "voteCount",
								"offset": 0,
								"slot": "1",
								"type": "t_uint256"
							}
						],
						"numberOfBytes": "64"
					},
					"t_struct(Participant)28_storage": {
						"encoding": "inplace",
						"label": "struct PartyConvention.Participant",
						"members": [
							{
								"astId": 23,
								"contract": "contracts/Voting02.sol:PartyConvention",
								"label": "role",
								"offset": 0,
								"slot": "0",
								"type": "t_enum(ConventionRole)7"
							},
							{
								"astId": 25,
								"contract": "contracts/Voting02.sol:PartyConvention",
								"label": "votingRight1from",
								"offset": 1,
								"slot": "0",
								"type": "t_address"
							},
							{
								"astId": 27,
								"contract": "contracts/Voting02.sol:PartyConvention",
								"label": "votingRight2from",
								"offset": 0,
								"slot": "1",
								"type": "t_address"
							}
						],
						"numberOfBytes": "64"
					},
					"t_uint256": {
						"encoding": "inplace",
						"label": "uint256",
						"numberOfBytes": "32"
					}
				}
			},
			"userdoc": {
				"kind": "user",
				"methods": {},
				"version": 1
			}
		}
	}
}