{
	"contracts/Voting02.sol": {
		"PartyConvention": {
			"abi": [
				{
					"inputs": [],
					"stateMutability": "nonpayable",
					"type": "constructor"
				},
				{
					"inputs": [
						{
							"internalType": "enum PartyConvention.ConventionRole",
							"name": "role_",
							"type": "uint8"
						},
						{
							"internalType": "address",
							"name": "addr_",
							"type": "address"
						}
					],
					"name": "addParticipant",
					"outputs": [],
					"stateMutability": "nonpayable",
					"type": "function"
				},
				{
					"inputs": [
						{
							"internalType": "uint256",
							"name": "id_",
							"type": "uint256"
						}
					],
					"name": "closeMotion",
					"outputs": [],
					"stateMutability": "nonpayable",
					"type": "function"
				},
				{
					"inputs": [
						{
							"internalType": "string",
							"name": "txt_",
							"type": "string"
						}
					],
					"name": "createRegularMotion",
					"outputs": [
						{
							"internalType": "uint256",
							"name": "",
							"type": "uint256"
						}
					],
					"stateMutability": "nonpayable",
					"type": "function"
				},
				{
					"inputs": [
						{
							"internalType": "uint256",
							"name": "id_",
							"type": "uint256"
						}
					],
					"name": "initiallySupportMotion",
					"outputs": [],
					"stateMutability": "nonpayable",
					"type": "function"
				},
				{
					"inputs": [],
					"name": "motionCounter",
					"outputs": [
						{
							"internalType": "uint256",
							"name": "",
							"type": "uint256"
						}
					],
					"stateMutability": "view",
					"type": "function"
				},
				{
					"inputs": [
						{
							"internalType": "address",
							"name": "",
							"type": "address"
						}
					],
					"name": "participants",
					"outputs": [
						{
							"internalType": "enum PartyConvention.ConventionRole",
							"name": "role",
							"type": "uint8"
						},
						{
							"internalType": "address",
							"name": "votingRight1from",
							"type": "address"
						},
						{
							"internalType": "address",
							"name": "votingRight2from",
							"type": "address"
						}
					],
					"stateMutability": "view",
					"type": "function"
				},
				{
					"inputs": [],
					"name": "reclaimOriginalVotingRight",
					"outputs": [
						{
							"internalType": "bool",
							"name": "",
							"type": "bool"
						}
					],
					"stateMutability": "nonpayable",
					"type": "function"
				},
				{
					"inputs": [
						{
							"internalType": "uint256",
							"name": "motionid_",
							"type": "uint256"
						}
					],
					"name": "seeResults",
					"outputs": [
						{
							"internalType": "string",
							"name": "result",
							"type": "string"
						}
					],
					"stateMutability": "view",
					"type": "function"
				},
				{
					"inputs": [
						{
							"internalType": "address",
							"name": "towhom_",
							"type": "address"
						}
					],
					"name": "transferVotingRight1",
					"outputs": [],
					"stateMutability": "nonpayable",
					"type": "function"
				},
				{
					"inputs": [
						{
							"internalType": "uint256",
							"name": "motionid_",
							"type": "uint256"
						},
						{
							"internalType": "uint256",
							"name": "optionid_",
							"type": "uint256"
						}
					],
					"name": "voteForMotion",
					"outputs": [],
					"stateMutability": "nonpayable",
					"type": "function"
				},
				{
					"inputs": [],
					"name": "votingRightsCounter",
					"outputs": [
						{
							"internalType": "uint256",
							"name": "",
							"type": "uint256"
						}
					],
					"stateMutability": "view",
					"type": "function"
				}
			],
			"devdoc": {
				"kind": "dev",
				"methods": {},
				"version": 1
			},
			"evm": {
				"assembly": "    /* \"contracts/Voting02.sol\":148:12485  contract PartyConvention {... */\n  mstore(0x40, 0x80)\n    /* \"contracts/Voting02.sol\":1553:1554  0 */\n  0x00\n    /* \"contracts/Voting02.sol\":1525:1554  uint public motionCounter = 0 */\n  dup1\n  sstore\n    /* \"contracts/Voting02.sol\":1595:1596  0 */\n  0x00\n    /* \"contracts/Voting02.sol\":1561:1596  uint public votingRightsCounter = 0 */\n  0x01\n  sstore\n    /* \"contracts/Voting02.sol\":2978:3248  constructor(){... */\n  callvalue\n  dup1\n  iszero\n  tag_1\n  jumpi\n  0x00\n  dup1\n  revert\ntag_1:\n  pop\n    /* \"contracts/Voting02.sol\":3002:3028  Participant memory creator */\n  tag_4\n  tag_5\n  jump\t// in\ntag_4:\n    /* \"contracts/Voting02.sol\":3052:3072  ConventionRole.ADMIN */\n  0x04\n    /* \"contracts/Voting02.sol\":3039:3046  creator */\n  dup2\n    /* \"contracts/Voting02.sol\":3039:3051  creator.role */\n  0x00\n  add\n    /* \"contracts/Voting02.sol\":3039:3072  creator.role=ConventionRole.ADMIN */\n  swap1\n  0x04\n  dup2\n  gt\n  iszero\n  tag_6\n  jumpi\n  tag_7\n  tag_8\n  jump\t// in\ntag_7:\ntag_6:\n  swap1\n  dup2\n  0x04\n  dup2\n  gt\n  iszero\n  tag_9\n  jumpi\n  tag_10\n  tag_8\n  jump\t// in\ntag_10:\ntag_9:\n  dup2\n  mstore\n  pop\n  pop\n    /* \"contracts/Voting02.sol\":3108:3118  msg.sender */\n  caller\n    /* \"contracts/Voting02.sol\":3083:3090  creator */\n  dup2\n    /* \"contracts/Voting02.sol\":3083:3107  creator.votingRight1from */\n  0x20\n  add\n    /* \"contracts/Voting02.sol\":3083:3118  creator.votingRight1from=msg.sender */\n  swap1\n  0xffffffffffffffffffffffffffffffffffffffff\n  and\n  swap1\n  dup2\n  0xffffffffffffffffffffffffffffffffffffffff\n  and\n  dup2\n  mstore\n  pop\n  pop\n    /* \"contracts/Voting02.sol\":3156:3163  creator */\n  dup1\n    /* \"contracts/Voting02.sol\":3129:3141  participants */\n  0x02\n    /* \"contracts/Voting02.sol\":3129:3153  participants[msg.sender] */\n  0x00\n    /* \"contracts/Voting02.sol\":3142:3152  msg.sender */\n  caller\n    /* \"contracts/Voting02.sol\":3129:3153  participants[msg.sender] */\n  0xffffffffffffffffffffffffffffffffffffffff\n  and\n  0xffffffffffffffffffffffffffffffffffffffff\n  and\n  dup2\n  mstore\n  0x20\n  add\n  swap1\n  dup2\n  mstore\n  0x20\n  add\n  0x00\n  keccak256\n    /* \"contracts/Voting02.sol\":3129:3163  participants[msg.sender] = creator */\n  0x00\n  dup3\n  add\n  mload\n  dup2\n  0x00\n  add\n  exp(0x0100, 0x00)\n  dup2\n  sload\n  dup2\n  0xff\n  mul\n  not\n  and\n  swap1\n  dup4\n  0x04\n  dup2\n  gt\n  iszero\n  tag_11\n  jumpi\n  tag_12\n  tag_8\n  jump\t// in\ntag_12:\ntag_11:\n  mul\n  or\n  swap1\n  sstore\n  pop\n  0x20\n  dup3\n  add\n  mload\n  dup2\n  0x00\n  add\n  exp(0x0100, 0x01)\n  dup2\n  sload\n  dup2\n  0xffffffffffffffffffffffffffffffffffffffff\n  mul\n  not\n  and\n  swap1\n  dup4\n  0xffffffffffffffffffffffffffffffffffffffff\n  and\n  mul\n  or\n  swap1\n  sstore\n  pop\n  0x40\n  dup3\n  add\n  mload\n  dup2\n  0x01\n  add\n  exp(0x0100, 0x00)\n  dup2\n  sload\n  dup2\n  0xffffffffffffffffffffffffffffffffffffffff\n  mul\n  not\n  and\n  swap1\n  dup4\n  0xffffffffffffffffffffffffffffffffffffffff\n  and\n  mul\n  or\n  swap1\n  sstore\n  pop\n  swap1\n  pop\n  pop\n    /* \"contracts/Voting02.sol\":3174:3191  participantsArray */\n  0x03\n    /* \"contracts/Voting02.sol\":3197:3207  msg.sender */\n  caller\n    /* \"contracts/Voting02.sol\":3174:3208  participantsArray.push(msg.sender) */\n  swap1\n  dup1\n  0x01\n  dup2\n  sload\n  add\n  dup1\n  dup3\n  sstore\n  dup1\n  swap2\n  pop\n  pop\n  0x01\n  swap1\n  sub\n  swap1\n  0x00\n  mstore\n  keccak256(0x00, 0x20)\n  add\n  0x00\n  swap1\n  swap2\n  swap1\n  swap2\n  swap1\n  swap2\n  0x0100\n  exp\n  dup2\n  sload\n  dup2\n  0xffffffffffffffffffffffffffffffffffffffff\n  mul\n  not\n  and\n  swap1\n  dup4\n  0xffffffffffffffffffffffffffffffffffffffff\n  and\n  mul\n  or\n  swap1\n  sstore\n  pop\n    /* \"contracts/Voting02.sol\":3219:3238  votingRightsCounter */\n  0x01\n  0x00\n    /* \"contracts/Voting02.sol\":3219:3240  votingRightsCounter++ */\n  dup2\n  sload\n  dup1\n  swap3\n  swap2\n  swap1\n  tag_14\n  swap1\n  tag_15\n  jump\t// in\ntag_14:\n  swap2\n  swap1\n  pop\n  sstore\n  pop\n    /* \"contracts/Voting02.sol\":2991:3248  {... */\n  pop\n    /* \"contracts/Voting02.sol\":148:12485  contract PartyConvention {... */\n  jump(tag_16)\ntag_5:\n  mload(0x40)\n  dup1\n  0x60\n  add\n  0x40\n  mstore\n  dup1\n  0x00\n  0x04\n  dup2\n  gt\n  iszero\n  tag_17\n  jumpi\n  tag_18\n  tag_8\n  jump\t// in\ntag_18:\ntag_17:\n  dup2\n  mstore\n  0x20\n  add\n  and(0xffffffffffffffffffffffffffffffffffffffff, 0x00)\n  dup2\n  mstore\n  0x20\n  add\n  and(0xffffffffffffffffffffffffffffffffffffffff, 0x00)\n  dup2\n  mstore\n  pop\n  swap1\n  jump\t// out\n    /* \"#utility.yul\":7:187   */\ntag_8:\n    /* \"#utility.yul\":55:132   */\n  0x4e487b7100000000000000000000000000000000000000000000000000000000\n    /* \"#utility.yul\":52:53   */\n  0x00\n    /* \"#utility.yul\":45:133   */\n  mstore\n    /* \"#utility.yul\":152:156   */\n  0x21\n    /* \"#utility.yul\":149:150   */\n  0x04\n    /* \"#utility.yul\":142:157   */\n  mstore\n    /* \"#utility.yul\":176:180   */\n  0x24\n    /* \"#utility.yul\":173:174   */\n  0x00\n    /* \"#utility.yul\":166:181   */\n  revert\n    /* \"#utility.yul\":193:373   */\ntag_19:\n    /* \"#utility.yul\":241:318   */\n  0x4e487b7100000000000000000000000000000000000000000000000000000000\n    /* \"#utility.yul\":238:239   */\n  0x00\n    /* \"#utility.yul\":231:319   */\n  mstore\n    /* \"#utility.yul\":338:342   */\n  0x11\n    /* \"#utility.yul\":335:336   */\n  0x04\n    /* \"#utility.yul\":328:343   */\n  mstore\n    /* \"#utility.yul\":362:366   */\n  0x24\n    /* \"#utility.yul\":359:360   */\n  0x00\n    /* \"#utility.yul\":352:367   */\n  revert\n    /* \"#utility.yul\":379:456   */\ntag_20:\n    /* \"#utility.yul\":416:423   */\n  0x00\n    /* \"#utility.yul\":445:450   */\n  dup2\n    /* \"#utility.yul\":434:450   */\n  swap1\n  pop\n    /* \"#utility.yul\":379:456   */\n  swap2\n  swap1\n  pop\n  jump\t// out\n    /* \"#utility.yul\":462:695   */\ntag_15:\n    /* \"#utility.yul\":501:504   */\n  0x00\n    /* \"#utility.yul\":524:548   */\n  tag_26\n    /* \"#utility.yul\":542:547   */\n  dup3\n    /* \"#utility.yul\":524:548   */\n  tag_20\n  jump\t// in\ntag_26:\n    /* \"#utility.yul\":515:548   */\n  swap2\n  pop\n    /* \"#utility.yul\":570:636   */\n  0xffffffffffffffffffffffffffffffffffffffffffffffffffffffffffffffff\n    /* \"#utility.yul\":563:568   */\n  dup3\n    /* \"#utility.yul\":560:637   */\n  sub\n    /* \"#utility.yul\":557:660   */\n  tag_27\n  jumpi\n    /* \"#utility.yul\":640:658   */\n  tag_28\n  tag_19\n  jump\t// in\ntag_28:\n    /* \"#utility.yul\":557:660   */\ntag_27:\n    /* \"#utility.yul\":687:688   */\n  0x01\n    /* \"#utility.yul\":680:685   */\n  dup3\n    /* \"#utility.yul\":676:689   */\n  add\n    /* \"#utility.yul\":669:689   */\n  swap1\n  pop\n    /* \"#utility.yul\":462:695   */\n  swap2\n  swap1\n  pop\n  jump\t// out\n    /* \"contracts/Voting02.sol\":148:12485  contract PartyConvention {... */\ntag_16:\n  dataSize(sub_0)\n  dup1\n  dataOffset(sub_0)\n  0x00\n  codecopy\n  0x00\n  return\nstop\n\nsub_0: assembly {\n        /* \"contracts/Voting02.sol\":148:12485  contract PartyConvention {... */\n      mstore(0x40, 0x80)\n      callvalue\n      dup1\n      iszero\n      tag_1\n      jumpi\n      0x00\n      dup1\n      revert\n    tag_1:\n      pop\n      jumpi(tag_2, lt(calldatasize, 0x04))\n      shr(0xe0, calldataload(0x00))\n      dup1\n      0xa00f0236\n      gt\n      tag_14\n      jumpi\n      dup1\n      0xa00f0236\n      eq\n      tag_8\n      jumpi\n      dup1\n      0xbd7bb654\n      eq\n      tag_9\n      jumpi\n      dup1\n      0xd5506819\n      eq\n      tag_10\n      jumpi\n      dup1\n      0xecd2713a\n      eq\n      tag_11\n      jumpi\n      dup1\n      0xf513edb4\n      eq\n      tag_12\n      jumpi\n      dup1\n      0xfc14ebbb\n      eq\n      tag_13\n      jumpi\n      jump(tag_2)\n    tag_14:\n      dup1\n      0x09e69ede\n      eq\n      tag_3\n      jumpi\n      dup1\n      0x31b47842\n      eq\n      tag_4\n      jumpi\n      dup1\n      0x7d47318a\n      eq\n      tag_5\n      jumpi\n      dup1\n      0x8de2fc3a\n      eq\n      tag_6\n      jumpi\n      dup1\n      0x9084f1f9\n      eq\n      tag_7\n      jumpi\n    tag_2:\n      0x00\n      dup1\n      revert\n        /* \"contracts/Voting02.sol\":1605:1656  mapping(address => Participant) public participants */\n    tag_3:\n      tag_15\n      0x04\n      dup1\n      calldatasize\n      sub\n      dup2\n      add\n      swap1\n      tag_16\n      swap2\n      swap1\n      tag_17\n      jump\t// in\n    tag_16:\n      tag_18\n      jump\t// in\n    tag_15:\n      mload(0x40)\n      tag_19\n      swap4\n      swap3\n      swap2\n      swap1\n      tag_20\n      jump\t// in\n    tag_19:\n      mload(0x40)\n      dup1\n      swap2\n      sub\n      swap1\n      return\n        /* \"contracts/Voting02.sol\":11212:11938  function initiallySupportMotion(uint id_) public{... */\n    tag_4:\n      tag_21\n      0x04\n      dup1\n      calldatasize\n      sub\n      dup2\n      add\n      swap1\n      tag_22\n      swap2\n      swap1\n      tag_23\n      jump\t// in\n    tag_22:\n      tag_24\n      jump\t// in\n    tag_21:\n      stop\n        /* \"contracts/Voting02.sol\":11970:12464  function seeResults(uint motionid_) view public returns(string memory result){... */\n    tag_5:\n      tag_25\n      0x04\n      dup1\n      calldatasize\n      sub\n      dup2\n      add\n      swap1\n      tag_26\n      swap2\n      swap1\n      tag_23\n      jump\t// in\n    tag_26:\n      tag_27\n      jump\t// in\n    tag_25:\n      mload(0x40)\n      tag_28\n      swap2\n      swap1\n      tag_29\n      jump\t// in\n    tag_28:\n      mload(0x40)\n      dup1\n      swap2\n      sub\n      swap1\n      return\n        /* \"contracts/Voting02.sol\":5519:6363  function addParticipant(ConventionRole role_, address addr_ ) external {... */\n    tag_6:\n      tag_30\n      0x04\n      dup1\n      calldatasize\n      sub\n      dup2\n      add\n      swap1\n      tag_31\n      swap2\n      swap1\n      tag_32\n      jump\t// in\n    tag_31:\n      tag_33\n      jump\t// in\n    tag_30:\n      stop\n        /* \"contracts/Voting02.sol\":6371:6672  function closeMotion(uint id_) external{... */\n    tag_7:\n      tag_34\n      0x04\n      dup1\n      calldatasize\n      sub\n      dup2\n      add\n      swap1\n      tag_35\n      swap2\n      swap1\n      tag_23\n      jump\t// in\n    tag_35:\n      tag_36\n      jump\t// in\n    tag_34:\n      stop\n        /* \"contracts/Voting02.sol\":9453:10272  function transferVotingRight1(address towhom_) public{... */\n    tag_8:\n      tag_37\n      0x04\n      dup1\n      calldatasize\n      sub\n      dup2\n      add\n      swap1\n      tag_38\n      swap2\n      swap1\n      tag_17\n      jump\t// in\n    tag_38:\n      tag_39\n      jump\t// in\n    tag_37:\n      stop\n        /* \"contracts/Voting02.sol\":10298:11198  function createRegularMotion(string memory txt_) external returns (uint){... */\n    tag_9:\n      tag_40\n      0x04\n      dup1\n      calldatasize\n      sub\n      dup2\n      add\n      swap1\n      tag_41\n      swap2\n      swap1\n      tag_42\n      jump\t// in\n    tag_41:\n      tag_43\n      jump\t// in\n    tag_40:\n      mload(0x40)\n      tag_44\n      swap2\n      swap1\n      tag_45\n      jump\t// in\n    tag_44:\n      mload(0x40)\n      dup1\n      swap2\n      sub\n      swap1\n      return\n        /* \"contracts/Voting02.sol\":6704:7751  function reclaimOriginalVotingRight() public returns(bool){... */\n    tag_10:\n      tag_46\n      tag_47\n      jump\t// in\n    tag_46:\n      mload(0x40)\n      tag_48\n      swap2\n      swap1\n      tag_49\n      jump\t// in\n    tag_48:\n      mload(0x40)\n      dup1\n      swap2\n      sub\n      swap1\n      return\n        /* \"contracts/Voting02.sol\":1525:1554  uint public motionCounter = 0 */\n    tag_11:\n      tag_50\n      tag_51\n      jump\t// in\n    tag_50:\n      mload(0x40)\n      tag_52\n      swap2\n      swap1\n      tag_45\n      jump\t// in\n    tag_52:\n      mload(0x40)\n      dup1\n      swap2\n      sub\n      swap1\n      return\n        /* \"contracts/Voting02.sol\":7792:9445  function voteForMotion(uint motionid_, uint optionid_) public{... */\n    tag_12:\n      tag_53\n      0x04\n      dup1\n      calldatasize\n      sub\n      dup2\n      add\n      swap1\n      tag_54\n      swap2\n      swap1\n      tag_55\n      jump\t// in\n    tag_54:\n      tag_56\n      jump\t// in\n    tag_53:\n      stop\n        /* \"contracts/Voting02.sol\":1561:1596  uint public votingRightsCounter = 0 */\n    tag_13:\n      tag_57\n      tag_58\n      jump\t// in\n    tag_57:\n      mload(0x40)\n      tag_59\n      swap2\n      swap1\n      tag_45\n      jump\t// in\n    tag_59:\n      mload(0x40)\n      dup1\n      swap2\n      sub\n      swap1\n      return\n        /* \"contracts/Voting02.sol\":1605:1656  mapping(address => Participant) public participants */\n    tag_18:\n      mstore(0x20, 0x02)\n      dup1\n      0x00\n      mstore\n      keccak256(0x00, 0x40)\n      0x00\n      swap2\n      pop\n      swap1\n      pop\n      dup1\n      0x00\n      add\n      0x00\n      swap1\n      sload\n      swap1\n      0x0100\n      exp\n      swap1\n      div\n      0xff\n      and\n      swap1\n      dup1\n      0x00\n      add\n      0x01\n      swap1\n      sload\n      swap1\n      0x0100\n      exp\n      swap1\n      div\n      0xffffffffffffffffffffffffffffffffffffffff\n      and\n      swap1\n      dup1\n      0x01\n      add\n      0x00\n      swap1\n      sload\n      swap1\n      0x0100\n      exp\n      swap1\n      div\n      0xffffffffffffffffffffffffffffffffffffffff\n      and\n      swap1\n      pop\n      dup4\n      jump\t// out\n        /* \"contracts/Voting02.sol\":11212:11938  function initiallySupportMotion(uint id_) public{... */\n    tag_24:\n        /* \"contracts/Voting02.sol\":11311:11332  ConventionRole.MEMBER */\n      0x01\n        /* \"contracts/Voting02.sol\":11279:11332  participants[msg.sender].role >=ConventionRole.MEMBER */\n      0x04\n      dup2\n      gt\n      iszero\n      tag_61\n      jumpi\n      tag_62\n      tag_63\n      jump\t// in\n    tag_62:\n    tag_61:\n        /* \"contracts/Voting02.sol\":11279:11291  participants */\n      0x02\n        /* \"contracts/Voting02.sol\":11279:11303  participants[msg.sender] */\n      0x00\n        /* \"contracts/Voting02.sol\":11292:11302  msg.sender */\n      caller\n        /* \"contracts/Voting02.sol\":11279:11303  participants[msg.sender] */\n      0xffffffffffffffffffffffffffffffffffffffff\n      and\n      0xffffffffffffffffffffffffffffffffffffffff\n      and\n      dup2\n      mstore\n      0x20\n      add\n      swap1\n      dup2\n      mstore\n      0x20\n      add\n      0x00\n      keccak256\n        /* \"contracts/Voting02.sol\":11279:11308  participants[msg.sender].role */\n      0x00\n      add\n      0x00\n      swap1\n      sload\n      swap1\n      0x0100\n      exp\n      swap1\n      div\n      0xff\n      and\n        /* \"contracts/Voting02.sol\":11279:11332  participants[msg.sender].role >=ConventionRole.MEMBER */\n      0x04\n      dup2\n      gt\n      iszero\n      tag_64\n      jumpi\n      tag_65\n      tag_63\n      jump\t// in\n    tag_65:\n    tag_64:\n      lt\n      iszero\n        /* \"contracts/Voting02.sol\":11271:11395  require(participants[msg.sender].role >=ConventionRole.MEMBER, \"Only party members can initially support a regular motion.\") */\n      tag_66\n      jumpi\n      mload(0x40)\n      0x08c379a000000000000000000000000000000000000000000000000000000000\n      dup2\n      mstore\n      0x04\n      add\n      tag_67\n      swap1\n      tag_68\n      jump\t// in\n    tag_67:\n      mload(0x40)\n      dup1\n      swap2\n      sub\n      swap1\n      revert\n    tag_66:\n        /* \"contracts/Voting02.sol\":11414:11476  notContainedInArray(motions[id_].initialSupporters,msg.sender) */\n      tag_69\n        /* \"contracts/Voting02.sol\":11434:11441  motions */\n      0x04\n        /* \"contracts/Voting02.sol\":11442:11445  id_ */\n      dup3\n        /* \"contracts/Voting02.sol\":11434:11446  motions[id_] */\n      dup2\n      sload\n      dup2\n      lt\n      tag_70\n      jumpi\n      tag_71\n      tag_72\n      jump\t// in\n    tag_71:\n    tag_70:\n      swap1\n      0x00\n      mstore\n      keccak256(0x00, 0x20)\n      swap1\n      0x06\n      mul\n      add\n        /* \"contracts/Voting02.sol\":11434:11464  motions[id_].initialSupporters */\n      0x05\n      add\n        /* \"contracts/Voting02.sol\":11414:11476  notContainedInArray(motions[id_].initialSupporters,msg.sender) */\n      dup1\n      sload\n      dup1\n      0x20\n      mul\n      0x20\n      add\n      mload(0x40)\n      swap1\n      dup2\n      add\n      0x40\n      mstore\n      dup1\n      swap3\n      swap2\n      swap1\n      dup2\n      dup2\n      mstore\n      0x20\n      add\n      dup3\n      dup1\n      sload\n      dup1\n      iszero\n      tag_74\n      jumpi\n      0x20\n      mul\n      dup3\n      add\n      swap2\n      swap1\n      0x00\n      mstore\n      keccak256(0x00, 0x20)\n      swap1\n    tag_75:\n      dup2\n      0x00\n      swap1\n      sload\n      swap1\n      0x0100\n      exp\n      swap1\n      div\n      0xffffffffffffffffffffffffffffffffffffffff\n      and\n      0xffffffffffffffffffffffffffffffffffffffff\n      and\n      dup2\n      mstore\n      0x20\n      add\n      swap1\n      0x01\n      add\n      swap1\n      dup1\n      dup4\n      gt\n      tag_75\n      jumpi\n    tag_74:\n      pop\n      pop\n      pop\n      pop\n      pop\n        /* \"contracts/Voting02.sol\":11465:11475  msg.sender */\n      caller\n        /* \"contracts/Voting02.sol\":11414:11433  notContainedInArray */\n      tag_76\n        /* \"contracts/Voting02.sol\":11414:11476  notContainedInArray(motions[id_].initialSupporters,msg.sender) */\n      jump\t// in\n    tag_69:\n        /* \"contracts/Voting02.sol\":11406:11539  require(notContainedInArray(motions[id_].initialSupporters,msg.sender), \"A member can only once support a regular motion initially.\") */\n      tag_77\n      jumpi\n      mload(0x40)\n      0x08c379a000000000000000000000000000000000000000000000000000000000\n      dup2\n      mstore\n      0x04\n      add\n      tag_78\n      swap1\n      tag_79\n      jump\t// in\n    tag_78:\n      mload(0x40)\n      dup1\n      swap2\n      sub\n      swap1\n      revert\n    tag_77:\n        /* \"contracts/Voting02.sol\":11643:11650  motions */\n      0x04\n        /* \"contracts/Voting02.sol\":11651:11654  id_ */\n      dup2\n        /* \"contracts/Voting02.sol\":11643:11655  motions[id_] */\n      dup2\n      sload\n      dup2\n      lt\n      tag_80\n      jumpi\n      tag_81\n      tag_72\n      jump\t// in\n    tag_81:\n    tag_80:\n      swap1\n      0x00\n      mstore\n      keccak256(0x00, 0x20)\n      swap1\n      0x06\n      mul\n      add\n        /* \"contracts/Voting02.sol\":11643:11673  motions[id_].initialSupporters */\n      0x05\n      add\n        /* \"contracts/Voting02.sol\":11679:11689  msg.sender */\n      caller\n        /* \"contracts/Voting02.sol\":11643:11690  motions[id_].initialSupporters.push(msg.sender) */\n      swap1\n      dup1\n      0x01\n      dup2\n      sload\n      add\n      dup1\n      dup3\n      sstore\n      dup1\n      swap2\n      pop\n      pop\n      0x01\n      swap1\n      sub\n      swap1\n      0x00\n      mstore\n      keccak256(0x00, 0x20)\n      add\n      0x00\n      swap1\n      swap2\n      swap1\n      swap2\n      swap1\n      swap2\n      0x0100\n      exp\n      dup2\n      sload\n      dup2\n      0xffffffffffffffffffffffffffffffffffffffff\n      mul\n      not\n      and\n      swap1\n      dup4\n      0xffffffffffffffffffffffffffffffffffffffff\n      and\n      mul\n      or\n      swap1\n      sstore\n      pop\n        /* \"contracts/Voting02.sol\":11746:11767  enoughSupporters(id_) */\n      tag_84\n        /* \"contracts/Voting02.sol\":11763:11766  id_ */\n      dup2\n        /* \"contracts/Voting02.sol\":11746:11762  enoughSupporters */\n      tag_85\n        /* \"contracts/Voting02.sol\":11746:11767  enoughSupporters(id_) */\n      jump\t// in\n    tag_84:\n        /* \"contracts/Voting02.sol\":11742:11931  if (enoughSupporters(id_)){... */\n      iszero\n      tag_86\n      jumpi\n        /* \"contracts/Voting02.sol\":11803:11820  MotionStatus.OPEN */\n      0x01\n        /* \"contracts/Voting02.sol\":11783:11790  motions */\n      0x04\n        /* \"contracts/Voting02.sol\":11791:11794  id_ */\n      dup3\n        /* \"contracts/Voting02.sol\":11783:11795  motions[id_] */\n      dup2\n      sload\n      dup2\n      lt\n      tag_87\n      jumpi\n      tag_88\n      tag_72\n      jump\t// in\n    tag_88:\n    tag_87:\n      swap1\n      0x00\n      mstore\n      keccak256(0x00, 0x20)\n      swap1\n      0x06\n      mul\n      add\n        /* \"contracts/Voting02.sol\":11783:11802  motions[id_].status */\n      0x02\n      add\n      0x01\n        /* \"contracts/Voting02.sol\":11783:11820  motions[id_].status=MotionStatus.OPEN */\n      0x0100\n      exp\n      dup2\n      sload\n      dup2\n      0xff\n      mul\n      not\n      and\n      swap1\n      dup4\n      0x02\n      dup2\n      gt\n      iszero\n      tag_90\n      jumpi\n      tag_91\n      tag_63\n      jump\t// in\n    tag_91:\n    tag_90:\n      mul\n      or\n      swap1\n      sstore\n      pop\n        /* \"contracts/Voting02.sol\":11742:11931  if (enoughSupporters(id_)){... */\n    tag_86:\n        /* \"contracts/Voting02.sol\":11212:11938  function initiallySupportMotion(uint id_) public{... */\n      pop\n      jump\t// out\n        /* \"contracts/Voting02.sol\":11970:12464  function seeResults(uint motionid_) view public returns(string memory result){... */\n    tag_27:\n        /* \"contracts/Voting02.sol\":12026:12046  string memory result */\n      0x60\n        /* \"contracts/Voting02.sol\":12095:12114  MotionStatus.CLOSED */\n      0x02\n        /* \"contracts/Voting02.sol\":12066:12114  motions[motionid_].status == MotionStatus.CLOSED */\n      dup1\n      dup2\n      gt\n      iszero\n      tag_93\n      jumpi\n      tag_94\n      tag_63\n      jump\t// in\n    tag_94:\n    tag_93:\n        /* \"contracts/Voting02.sol\":12066:12073  motions */\n      0x04\n        /* \"contracts/Voting02.sol\":12074:12083  motionid_ */\n      dup4\n        /* \"contracts/Voting02.sol\":12066:12084  motions[motionid_] */\n      dup2\n      sload\n      dup2\n      lt\n      tag_95\n      jumpi\n      tag_96\n      tag_72\n      jump\t// in\n    tag_96:\n    tag_95:\n      swap1\n      0x00\n      mstore\n      keccak256(0x00, 0x20)\n      swap1\n      0x06\n      mul\n      add\n        /* \"contracts/Voting02.sol\":12066:12091  motions[motionid_].status */\n      0x02\n      add\n      0x01\n      swap1\n      sload\n      swap1\n      0x0100\n      exp\n      swap1\n      div\n      0xff\n      and\n        /* \"contracts/Voting02.sol\":12066:12114  motions[motionid_].status == MotionStatus.CLOSED */\n      0x02\n      dup2\n      gt\n      iszero\n      tag_98\n      jumpi\n      tag_99\n      tag_63\n      jump\t// in\n    tag_99:\n    tag_98:\n      eq\n        /* \"contracts/Voting02.sol\":12058:12144  require(motions[motionid_].status == MotionStatus.CLOSED, \"Motion is not closed yet.\") */\n      tag_100\n      jumpi\n      mload(0x40)\n      0x08c379a000000000000000000000000000000000000000000000000000000000\n      dup2\n      mstore\n      0x04\n      add\n      tag_101\n      swap1\n      tag_102\n      jump\t// in\n    tag_101:\n      mload(0x40)\n      dup1\n      swap2\n      sub\n      swap1\n      revert\n    tag_100:\n        /* \"contracts/Voting02.sol\":12155:12166  result = \"\" */\n      mload(0x40)\n      dup1\n      0x20\n      add\n      0x40\n      mstore\n      dup1\n      0x00\n      dup2\n      mstore\n      pop\n      swap1\n      pop\n        /* \"contracts/Voting02.sol\":12182:12188  uint i */\n      0x00\n        /* \"contracts/Voting02.sol\":12177:12431  for (uint i =0; i < motions[motionid_].options.length;i++){... */\n    tag_103:\n        /* \"contracts/Voting02.sol\":12197:12204  motions */\n      0x04\n        /* \"contracts/Voting02.sol\":12205:12214  motionid_ */\n      dup4\n        /* \"contracts/Voting02.sol\":12197:12215  motions[motionid_] */\n      dup2\n      sload\n      dup2\n      lt\n      tag_106\n      jumpi\n      tag_107\n      tag_72\n      jump\t// in\n    tag_107:\n    tag_106:\n      swap1\n      0x00\n      mstore\n      keccak256(0x00, 0x20)\n      swap1\n      0x06\n      mul\n      add\n        /* \"contracts/Voting02.sol\":12197:12223  motions[motionid_].options */\n      0x03\n      add\n        /* \"contracts/Voting02.sol\":12197:12230  motions[motionid_].options.length */\n      dup1\n      sload\n      swap1\n      pop\n        /* \"contracts/Voting02.sol\":12193:12194  i */\n      dup2\n        /* \"contracts/Voting02.sol\":12193:12230  i < motions[motionid_].options.length */\n      lt\n        /* \"contracts/Voting02.sol\":12177:12431  for (uint i =0; i < motions[motionid_].options.length;i++){... */\n      iszero\n      tag_104\n      jumpi\n        /* \"contracts/Voting02.sol\":12250:12269  string memory count */\n      0x00\n        /* \"contracts/Voting02.sol\":12272:12329  Strings.toString(motions[motionid_].options[i].voteCount) */\n      tag_109\n        /* \"contracts/Voting02.sol\":12289:12296  motions */\n      0x04\n        /* \"contracts/Voting02.sol\":12297:12306  motionid_ */\n      dup6\n        /* \"contracts/Voting02.sol\":12289:12307  motions[motionid_] */\n      dup2\n      sload\n      dup2\n      lt\n      tag_110\n      jumpi\n      tag_111\n      tag_72\n      jump\t// in\n    tag_111:\n    tag_110:\n      swap1\n      0x00\n      mstore\n      keccak256(0x00, 0x20)\n      swap1\n      0x06\n      mul\n      add\n        /* \"contracts/Voting02.sol\":12289:12315  motions[motionid_].options */\n      0x03\n      add\n        /* \"contracts/Voting02.sol\":12316:12317  i */\n      dup4\n        /* \"contracts/Voting02.sol\":12289:12318  motions[motionid_].options[i] */\n      dup2\n      sload\n      dup2\n      lt\n      tag_113\n      jumpi\n      tag_114\n      tag_72\n      jump\t// in\n    tag_114:\n    tag_113:\n      swap1\n      0x00\n      mstore\n      keccak256(0x00, 0x20)\n      swap1\n      0x02\n      mul\n      add\n        /* \"contracts/Voting02.sol\":12289:12328  motions[motionid_].options[i].voteCount */\n      0x01\n      add\n      sload\n        /* \"contracts/Voting02.sol\":12272:12288  Strings.toString */\n      tag_116\n        /* \"contracts/Voting02.sol\":12272:12329  Strings.toString(motions[motionid_].options[i].voteCount) */\n      jump\t// in\n    tag_109:\n        /* \"contracts/Voting02.sol\":12250:12329  string memory count = Strings.toString(motions[motionid_].options[i].voteCount) */\n      swap1\n      pop\n        /* \"contracts/Voting02.sol\":12353:12419  append(result, motions[motionid_].options[i].text, \":\",count,\".\" ) */\n      tag_117\n        /* \"contracts/Voting02.sol\":12360:12366  result */\n      dup4\n        /* \"contracts/Voting02.sol\":12368:12375  motions */\n      0x04\n        /* \"contracts/Voting02.sol\":12376:12385  motionid_ */\n      dup7\n        /* \"contracts/Voting02.sol\":12368:12386  motions[motionid_] */\n      dup2\n      sload\n      dup2\n      lt\n      tag_118\n      jumpi\n      tag_119\n      tag_72\n      jump\t// in\n    tag_119:\n    tag_118:\n      swap1\n      0x00\n      mstore\n      keccak256(0x00, 0x20)\n      swap1\n      0x06\n      mul\n      add\n        /* \"contracts/Voting02.sol\":12368:12394  motions[motionid_].options */\n      0x03\n      add\n        /* \"contracts/Voting02.sol\":12395:12396  i */\n      dup5\n        /* \"contracts/Voting02.sol\":12368:12397  motions[motionid_].options[i] */\n      dup2\n      sload\n      dup2\n      lt\n      tag_121\n      jumpi\n      tag_122\n      tag_72\n      jump\t// in\n    tag_122:\n    tag_121:\n      swap1\n      0x00\n      mstore\n      keccak256(0x00, 0x20)\n      swap1\n      0x02\n      mul\n      add\n        /* \"contracts/Voting02.sol\":12368:12402  motions[motionid_].options[i].text */\n      0x00\n      add\n        /* \"contracts/Voting02.sol\":12353:12419  append(result, motions[motionid_].options[i].text, \":\",count,\".\" ) */\n      dup1\n      sload\n      tag_124\n      swap1\n      tag_125\n      jump\t// in\n    tag_124:\n      dup1\n      0x1f\n      add\n      0x20\n      dup1\n      swap2\n      div\n      mul\n      0x20\n      add\n      mload(0x40)\n      swap1\n      dup2\n      add\n      0x40\n      mstore\n      dup1\n      swap3\n      swap2\n      swap1\n      dup2\n      dup2\n      mstore\n      0x20\n      add\n      dup3\n      dup1\n      sload\n      tag_126\n      swap1\n      tag_125\n      jump\t// in\n    tag_126:\n      dup1\n      iszero\n      tag_127\n      jumpi\n      dup1\n      0x1f\n      lt\n      tag_128\n      jumpi\n      0x0100\n      dup1\n      dup4\n      sload\n      div\n      mul\n      dup4\n      mstore\n      swap2\n      0x20\n      add\n      swap2\n      jump(tag_127)\n    tag_128:\n      dup3\n      add\n      swap2\n      swap1\n      0x00\n      mstore\n      keccak256(0x00, 0x20)\n      swap1\n    tag_129:\n      dup2\n      sload\n      dup2\n      mstore\n      swap1\n      0x01\n      add\n      swap1\n      0x20\n      add\n      dup1\n      dup4\n      gt\n      tag_129\n      jumpi\n      dup3\n      swap1\n      sub\n      0x1f\n      and\n      dup3\n      add\n      swap2\n    tag_127:\n      pop\n      pop\n      pop\n      pop\n      pop\n      mload(0x40)\n      dup1\n      0x40\n      add\n      0x40\n      mstore\n      dup1\n      0x01\n      dup2\n      mstore\n      0x20\n      add\n      0x3a00000000000000000000000000000000000000000000000000000000000000\n      dup2\n      mstore\n      pop\n        /* \"contracts/Voting02.sol\":12408:12413  count */\n      dup5\n        /* \"contracts/Voting02.sol\":12353:12419  append(result, motions[motionid_].options[i].text, \":\",count,\".\" ) */\n      mload(0x40)\n      dup1\n      0x40\n      add\n      0x40\n      mstore\n      dup1\n      0x01\n      dup2\n      mstore\n      0x20\n      add\n      0x2e00000000000000000000000000000000000000000000000000000000000000\n      dup2\n      mstore\n      pop\n        /* \"contracts/Voting02.sol\":12353:12359  append */\n      tag_130\n        /* \"contracts/Voting02.sol\":12353:12419  append(result, motions[motionid_].options[i].text, \":\",count,\".\" ) */\n      jump\t// in\n    tag_117:\n        /* \"contracts/Voting02.sol\":12344:12419  result = append(result, motions[motionid_].options[i].text, \":\",count,\".\" ) */\n      swap3\n      pop\n        /* \"contracts/Voting02.sol\":12235:12431  {... */\n      pop\n        /* \"contracts/Voting02.sol\":12231:12234  i++ */\n      dup1\n      dup1\n      tag_131\n      swap1\n      tag_132\n      jump\t// in\n    tag_131:\n      swap2\n      pop\n      pop\n        /* \"contracts/Voting02.sol\":12177:12431  for (uint i =0; i < motions[motionid_].options.length;i++){... */\n      jump(tag_103)\n    tag_104:\n      pop\n        /* \"contracts/Voting02.sol\":11970:12464  function seeResults(uint motionid_) view public returns(string memory result){... */\n      swap2\n      swap1\n      pop\n      jump\t// out\n        /* \"contracts/Voting02.sol\":5519:6363  function addParticipant(ConventionRole role_, address addr_ ) external {... */\n    tag_33:\n        /* \"contracts/Voting02.sol\":5642:5662  ConventionRole.ADMIN */\n      0x04\n        /* \"contracts/Voting02.sol\":5609:5662  participants[msg.sender].role == ConventionRole.ADMIN */\n      dup1\n      dup2\n      gt\n      iszero\n      tag_134\n      jumpi\n      tag_135\n      tag_63\n      jump\t// in\n    tag_135:\n    tag_134:\n        /* \"contracts/Voting02.sol\":5609:5621  participants */\n      0x02\n        /* \"contracts/Voting02.sol\":5609:5633  participants[msg.sender] */\n      0x00\n        /* \"contracts/Voting02.sol\":5622:5632  msg.sender */\n      caller\n        /* \"contracts/Voting02.sol\":5609:5633  participants[msg.sender] */\n      0xffffffffffffffffffffffffffffffffffffffff\n      and\n      0xffffffffffffffffffffffffffffffffffffffff\n      and\n      dup2\n      mstore\n      0x20\n      add\n      swap1\n      dup2\n      mstore\n      0x20\n      add\n      0x00\n      keccak256\n        /* \"contracts/Voting02.sol\":5609:5638  participants[msg.sender].role */\n      0x00\n      add\n      0x00\n      swap1\n      sload\n      swap1\n      0x0100\n      exp\n      swap1\n      div\n      0xff\n      and\n        /* \"contracts/Voting02.sol\":5609:5662  participants[msg.sender].role == ConventionRole.ADMIN */\n      0x04\n      dup2\n      gt\n      iszero\n      tag_136\n      jumpi\n      tag_137\n      tag_63\n      jump\t// in\n    tag_137:\n    tag_136:\n      eq\n        /* \"contracts/Voting02.sol\":5601:5715  require(participants[msg.sender].role == ConventionRole.ADMIN, \"Only admins can add new convention participants.\") */\n      tag_138\n      jumpi\n      mload(0x40)\n      0x08c379a000000000000000000000000000000000000000000000000000000000\n      dup2\n      mstore\n      0x04\n      add\n      tag_139\n      swap1\n      tag_140\n      jump\t// in\n    tag_139:\n      mload(0x40)\n      dup1\n      swap2\n      sub\n      swap1\n      revert\n    tag_138:\n        /* \"contracts/Voting02.sol\":5781:5782  0 */\n      0x00\n        /* \"contracts/Voting02.sol\":5735:5783  participants[addr_].votingRight1from==address(0) */\n      0xffffffffffffffffffffffffffffffffffffffff\n      and\n        /* \"contracts/Voting02.sol\":5735:5747  participants */\n      0x02\n        /* \"contracts/Voting02.sol\":5735:5754  participants[addr_] */\n      0x00\n        /* \"contracts/Voting02.sol\":5748:5753  addr_ */\n      dup4\n        /* \"contracts/Voting02.sol\":5735:5754  participants[addr_] */\n      0xffffffffffffffffffffffffffffffffffffffff\n      and\n      0xffffffffffffffffffffffffffffffffffffffff\n      and\n      dup2\n      mstore\n      0x20\n      add\n      swap1\n      dup2\n      mstore\n      0x20\n      add\n      0x00\n      keccak256\n        /* \"contracts/Voting02.sol\":5735:5771  participants[addr_].votingRight1from */\n      0x00\n      add\n      0x01\n      swap1\n      sload\n      swap1\n      0x0100\n      exp\n      swap1\n      div\n      0xffffffffffffffffffffffffffffffffffffffff\n      and\n        /* \"contracts/Voting02.sol\":5735:5783  participants[addr_].votingRight1from==address(0) */\n      0xffffffffffffffffffffffffffffffffffffffff\n      and\n      eq\n        /* \"contracts/Voting02.sol\":5735:5835  participants[addr_].votingRight1from==address(0) && participants[addr_].votingRight2from==address(0) */\n      dup1\n      iszero\n      tag_141\n      jumpi\n      pop\n        /* \"contracts/Voting02.sol\":5833:5834  0 */\n      0x00\n        /* \"contracts/Voting02.sol\":5787:5835  participants[addr_].votingRight2from==address(0) */\n      0xffffffffffffffffffffffffffffffffffffffff\n      and\n        /* \"contracts/Voting02.sol\":5787:5799  participants */\n      0x02\n        /* \"contracts/Voting02.sol\":5787:5806  participants[addr_] */\n      0x00\n        /* \"contracts/Voting02.sol\":5800:5805  addr_ */\n      dup4\n        /* \"contracts/Voting02.sol\":5787:5806  participants[addr_] */\n      0xffffffffffffffffffffffffffffffffffffffff\n      and\n      0xffffffffffffffffffffffffffffffffffffffff\n      and\n      dup2\n      mstore\n      0x20\n      add\n      swap1\n      dup2\n      mstore\n      0x20\n      add\n      0x00\n      keccak256\n        /* \"contracts/Voting02.sol\":5787:5823  participants[addr_].votingRight2from */\n      0x01\n      add\n      0x00\n      swap1\n      sload\n      swap1\n      0x0100\n      exp\n      swap1\n      div\n      0xffffffffffffffffffffffffffffffffffffffff\n      and\n        /* \"contracts/Voting02.sol\":5787:5835  participants[addr_].votingRight2from==address(0) */\n      0xffffffffffffffffffffffffffffffffffffffff\n      and\n      eq\n        /* \"contracts/Voting02.sol\":5735:5835  participants[addr_].votingRight1from==address(0) && participants[addr_].votingRight2from==address(0) */\n    tag_141:\n        /* \"contracts/Voting02.sol\":5727:5899  require(participants[addr_].votingRight1from==address(0) && participants[addr_].votingRight2from==address(0), \"The Participant was already added and holds voting rights.\" ) */\n      tag_142\n      jumpi\n      mload(0x40)\n      0x08c379a000000000000000000000000000000000000000000000000000000000\n      dup2\n      mstore\n      0x04\n      add\n      tag_143\n      swap1\n      tag_144\n      jump\t// in\n    tag_143:\n      mload(0x40)\n      dup1\n      swap2\n      sub\n      swap1\n      revert\n    tag_142:\n        /* \"contracts/Voting02.sol\":5918:5933  noOpenMotions() */\n      tag_145\n        /* \"contracts/Voting02.sol\":5918:5931  noOpenMotions */\n      tag_146\n        /* \"contracts/Voting02.sol\":5918:5933  noOpenMotions() */\n      jump\t// in\n    tag_145:\n        /* \"contracts/Voting02.sol\":5910:5992  require(noOpenMotions(), \"Can not add new participants while voting is going on.\") */\n      tag_147\n      jumpi\n      mload(0x40)\n      0x08c379a000000000000000000000000000000000000000000000000000000000\n      dup2\n      mstore\n      0x04\n      add\n      tag_148\n      swap1\n      tag_149\n      jump\t// in\n    tag_148:\n      mload(0x40)\n      dup1\n      swap2\n      sub\n      swap1\n      revert\n    tag_147:\n        /* \"contracts/Voting02.sol\":6005:6038  Participant memory newParticipant */\n      tag_150\n      tag_151\n      jump\t// in\n    tag_150:\n        /* \"contracts/Voting02.sol\":6071:6076  role_ */\n      dup3\n        /* \"contracts/Voting02.sol\":6049:6063  newParticipant */\n      dup2\n        /* \"contracts/Voting02.sol\":6049:6068  newParticipant.role */\n      0x00\n      add\n        /* \"contracts/Voting02.sol\":6049:6076  newParticipant.role = role_ */\n      swap1\n      0x04\n      dup2\n      gt\n      iszero\n      tag_152\n      jumpi\n      tag_153\n      tag_63\n      jump\t// in\n    tag_153:\n    tag_152:\n      swap1\n      dup2\n      0x04\n      dup2\n      gt\n      iszero\n      tag_154\n      jumpi\n      tag_155\n      tag_63\n      jump\t// in\n    tag_155:\n    tag_154:\n      dup2\n      mstore\n      pop\n      pop\n        /* \"contracts/Voting02.sol\":6100:6123  ConventionRole.DELEGATE */\n      0x03\n        /* \"contracts/Voting02.sol\":6091:6123  role_ == ConventionRole.DELEGATE */\n      0x04\n      dup2\n      gt\n      iszero\n      tag_156\n      jumpi\n      tag_157\n      tag_63\n      jump\t// in\n    tag_157:\n    tag_156:\n        /* \"contracts/Voting02.sol\":6091:6096  role_ */\n      dup4\n        /* \"contracts/Voting02.sol\":6091:6123  role_ == ConventionRole.DELEGATE */\n      0x04\n      dup2\n      gt\n      iszero\n      tag_158\n      jumpi\n      tag_159\n      tag_63\n      jump\t// in\n    tag_159:\n    tag_158:\n      eq\n        /* \"contracts/Voting02.sol\":6091:6156  role_ == ConventionRole.DELEGATE || role_ == ConventionRole.ADMIN */\n      dup1\n      tag_160\n      jumpi\n      pop\n        /* \"contracts/Voting02.sol\":6136:6156  ConventionRole.ADMIN */\n      0x04\n        /* \"contracts/Voting02.sol\":6127:6156  role_ == ConventionRole.ADMIN */\n      dup1\n      dup2\n      gt\n      iszero\n      tag_161\n      jumpi\n      tag_162\n      tag_63\n      jump\t// in\n    tag_162:\n    tag_161:\n        /* \"contracts/Voting02.sol\":6127:6132  role_ */\n      dup4\n        /* \"contracts/Voting02.sol\":6127:6156  role_ == ConventionRole.ADMIN */\n      0x04\n      dup2\n      gt\n      iszero\n      tag_163\n      jumpi\n      tag_164\n      tag_63\n      jump\t// in\n    tag_164:\n    tag_163:\n      eq\n        /* \"contracts/Voting02.sol\":6091:6156  role_ == ConventionRole.DELEGATE || role_ == ConventionRole.ADMIN */\n    tag_160:\n        /* \"contracts/Voting02.sol\":6087:6258  if (role_ == ConventionRole.DELEGATE || role_ == ConventionRole.ADMIN){... */\n      iszero\n      tag_165\n      jumpi\n        /* \"contracts/Voting02.sol\":6205:6210  addr_ */\n      dup2\n        /* \"contracts/Voting02.sol\":6172:6186  newParticipant */\n      dup2\n        /* \"contracts/Voting02.sol\":6172:6203  newParticipant.votingRight1from */\n      0x20\n      add\n        /* \"contracts/Voting02.sol\":6172:6210  newParticipant.votingRight1from =addr_ */\n      swap1\n      0xffffffffffffffffffffffffffffffffffffffff\n      and\n      swap1\n      dup2\n      0xffffffffffffffffffffffffffffffffffffffff\n      and\n      dup2\n      mstore\n      pop\n      pop\n        /* \"contracts/Voting02.sol\":6225:6244  votingRightsCounter */\n      0x01\n      0x00\n        /* \"contracts/Voting02.sol\":6225:6246  votingRightsCounter++ */\n      dup2\n      sload\n      dup1\n      swap3\n      swap2\n      swap1\n      tag_166\n      swap1\n      tag_132\n      jump\t// in\n    tag_166:\n      swap2\n      swap1\n      pop\n      sstore\n      pop\n        /* \"contracts/Voting02.sol\":6087:6258  if (role_ == ConventionRole.DELEGATE || role_ == ConventionRole.ADMIN){... */\n    tag_165:\n        /* \"contracts/Voting02.sol\":6291:6305  newParticipant */\n      dup1\n        /* \"contracts/Voting02.sol\":6268:6280  participants */\n      0x02\n        /* \"contracts/Voting02.sol\":6268:6287  participants[addr_] */\n      0x00\n        /* \"contracts/Voting02.sol\":6281:6286  addr_ */\n      dup5\n        /* \"contracts/Voting02.sol\":6268:6287  participants[addr_] */\n      0xffffffffffffffffffffffffffffffffffffffff\n      and\n      0xffffffffffffffffffffffffffffffffffffffff\n      and\n      dup2\n      mstore\n      0x20\n      add\n      swap1\n      dup2\n      mstore\n      0x20\n      add\n      0x00\n      keccak256\n        /* \"contracts/Voting02.sol\":6268:6305  participants[addr_]  = newParticipant */\n      0x00\n      dup3\n      add\n      mload\n      dup2\n      0x00\n      add\n      exp(0x0100, 0x00)\n      dup2\n      sload\n      dup2\n      0xff\n      mul\n      not\n      and\n      swap1\n      dup4\n      0x04\n      dup2\n      gt\n      iszero\n      tag_167\n      jumpi\n      tag_168\n      tag_63\n      jump\t// in\n    tag_168:\n    tag_167:\n      mul\n      or\n      swap1\n      sstore\n      pop\n      0x20\n      dup3\n      add\n      mload\n      dup2\n      0x00\n      add\n      exp(0x0100, 0x01)\n      dup2\n      sload\n      dup2\n      0xffffffffffffffffffffffffffffffffffffffff\n      mul\n      not\n      and\n      swap1\n      dup4\n      0xffffffffffffffffffffffffffffffffffffffff\n      and\n      mul\n      or\n      swap1\n      sstore\n      pop\n      0x40\n      dup3\n      add\n      mload\n      dup2\n      0x01\n      add\n      exp(0x0100, 0x00)\n      dup2\n      sload\n      dup2\n      0xffffffffffffffffffffffffffffffffffffffff\n      mul\n      not\n      and\n      swap1\n      dup4\n      0xffffffffffffffffffffffffffffffffffffffff\n      and\n      mul\n      or\n      swap1\n      sstore\n      pop\n      swap1\n      pop\n      pop\n        /* \"contracts/Voting02.sol\":6316:6333  participantsArray */\n      0x03\n        /* \"contracts/Voting02.sol\":6339:6344  addr_ */\n      dup3\n        /* \"contracts/Voting02.sol\":6316:6345  participantsArray.push(addr_) */\n      swap1\n      dup1\n      0x01\n      dup2\n      sload\n      add\n      dup1\n      dup3\n      sstore\n      dup1\n      swap2\n      pop\n      pop\n      0x01\n      swap1\n      sub\n      swap1\n      0x00\n      mstore\n      keccak256(0x00, 0x20)\n      add\n      0x00\n      swap1\n      swap2\n      swap1\n      swap2\n      swap1\n      swap2\n      0x0100\n      exp\n      dup2\n      sload\n      dup2\n      0xffffffffffffffffffffffffffffffffffffffff\n      mul\n      not\n      and\n      swap1\n      dup4\n      0xffffffffffffffffffffffffffffffffffffffff\n      and\n      mul\n      or\n      swap1\n      sstore\n      pop\n        /* \"contracts/Voting02.sol\":5590:6363  {... */\n      pop\n        /* \"contracts/Voting02.sol\":5519:6363  function addParticipant(ConventionRole role_, address addr_ ) external {... */\n      pop\n      pop\n      jump\t// out\n        /* \"contracts/Voting02.sol\":6371:6672  function closeMotion(uint id_) external{... */\n    tag_36:\n        /* \"contracts/Voting02.sol\":6462:6482  ConventionRole.ADMIN */\n      0x04\n        /* \"contracts/Voting02.sol\":6429:6482  participants[msg.sender].role == ConventionRole.ADMIN */\n      dup1\n      dup2\n      gt\n      iszero\n      tag_171\n      jumpi\n      tag_172\n      tag_63\n      jump\t// in\n    tag_172:\n    tag_171:\n        /* \"contracts/Voting02.sol\":6429:6441  participants */\n      0x02\n        /* \"contracts/Voting02.sol\":6429:6453  participants[msg.sender] */\n      0x00\n        /* \"contracts/Voting02.sol\":6442:6452  msg.sender */\n      caller\n        /* \"contracts/Voting02.sol\":6429:6453  participants[msg.sender] */\n      0xffffffffffffffffffffffffffffffffffffffff\n      and\n      0xffffffffffffffffffffffffffffffffffffffff\n      and\n      dup2\n      mstore\n      0x20\n      add\n      swap1\n      dup2\n      mstore\n      0x20\n      add\n      0x00\n      keccak256\n        /* \"contracts/Voting02.sol\":6429:6458  participants[msg.sender].role */\n      0x00\n      add\n      0x00\n      swap1\n      sload\n      swap1\n      0x0100\n      exp\n      swap1\n      div\n      0xff\n      and\n        /* \"contracts/Voting02.sol\":6429:6482  participants[msg.sender].role == ConventionRole.ADMIN */\n      0x04\n      dup2\n      gt\n      iszero\n      tag_173\n      jumpi\n      tag_174\n      tag_63\n      jump\t// in\n    tag_174:\n    tag_173:\n      eq\n        /* \"contracts/Voting02.sol\":6421:6517  require(participants[msg.sender].role == ConventionRole.ADMIN, \"Only admins can close motions.\") */\n      tag_175\n      jumpi\n      mload(0x40)\n      0x08c379a000000000000000000000000000000000000000000000000000000000\n      dup2\n      mstore\n      0x04\n      add\n      tag_176\n      swap1\n      tag_177\n      jump\t// in\n    tag_176:\n      mload(0x40)\n      dup1\n      swap2\n      sub\n      swap1\n      revert\n    tag_175:\n        /* \"contracts/Voting02.sol\":6558:6575  MotionStatus.OPEN */\n      0x01\n        /* \"contracts/Voting02.sol\":6537:6575  motions[id_].status==MotionStatus.OPEN */\n      0x02\n      dup2\n      gt\n      iszero\n      tag_178\n      jumpi\n      tag_179\n      tag_63\n      jump\t// in\n    tag_179:\n    tag_178:\n        /* \"contracts/Voting02.sol\":6537:6544  motions */\n      0x04\n        /* \"contracts/Voting02.sol\":6545:6548  id_ */\n      dup3\n        /* \"contracts/Voting02.sol\":6537:6549  motions[id_] */\n      dup2\n      sload\n      dup2\n      lt\n      tag_180\n      jumpi\n      tag_181\n      tag_72\n      jump\t// in\n    tag_181:\n    tag_180:\n      swap1\n      0x00\n      mstore\n      keccak256(0x00, 0x20)\n      swap1\n      0x06\n      mul\n      add\n        /* \"contracts/Voting02.sol\":6537:6556  motions[id_].status */\n      0x02\n      add\n      0x01\n      swap1\n      sload\n      swap1\n      0x0100\n      exp\n      swap1\n      div\n      0xff\n      and\n        /* \"contracts/Voting02.sol\":6537:6575  motions[id_].status==MotionStatus.OPEN */\n      0x02\n      dup2\n      gt\n      iszero\n      tag_183\n      jumpi\n      tag_184\n      tag_63\n      jump\t// in\n    tag_184:\n    tag_183:\n      eq\n        /* \"contracts/Voting02.sol\":6529:6612  require(motions[id_].status==MotionStatus.OPEN, \"Only open motions can be closed.\") */\n      tag_185\n      jumpi\n      mload(0x40)\n      0x08c379a000000000000000000000000000000000000000000000000000000000\n      dup2\n      mstore\n      0x04\n      add\n      tag_186\n      swap1\n      tag_187\n      jump\t// in\n    tag_186:\n      mload(0x40)\n      dup1\n      swap2\n      sub\n      swap1\n      revert\n    tag_185:\n        /* \"contracts/Voting02.sol\":6645:6664  MotionStatus.CLOSED */\n      0x02\n        /* \"contracts/Voting02.sol\":6623:6630  motions */\n      0x04\n        /* \"contracts/Voting02.sol\":6631:6634  id_ */\n      dup3\n        /* \"contracts/Voting02.sol\":6623:6635  motions[id_] */\n      dup2\n      sload\n      dup2\n      lt\n      tag_188\n      jumpi\n      tag_189\n      tag_72\n      jump\t// in\n    tag_189:\n    tag_188:\n      swap1\n      0x00\n      mstore\n      keccak256(0x00, 0x20)\n      swap1\n      0x06\n      mul\n      add\n        /* \"contracts/Voting02.sol\":6623:6642  motions[id_].status */\n      0x02\n      add\n      0x01\n        /* \"contracts/Voting02.sol\":6623:6664  motions[id_].status = MotionStatus.CLOSED */\n      0x0100\n      exp\n      dup2\n      sload\n      dup2\n      0xff\n      mul\n      not\n      and\n      swap1\n      dup4\n      0x02\n      dup2\n      gt\n      iszero\n      tag_191\n      jumpi\n      tag_192\n      tag_63\n      jump\t// in\n    tag_192:\n    tag_191:\n      mul\n      or\n      swap1\n      sstore\n      pop\n        /* \"contracts/Voting02.sol\":6371:6672  function closeMotion(uint id_) external{... */\n      pop\n      jump\t// out\n        /* \"contracts/Voting02.sol\":9453:10272  function transferVotingRight1(address towhom_) public{... */\n    tag_39:\n        /* \"contracts/Voting02.sol\":9557:9591  ConventionRole.REPLACEMENTDELEGATE */\n      0x02\n        /* \"contracts/Voting02.sol\":9525:9591  participants[msg.sender].role >=ConventionRole.REPLACEMENTDELEGATE */\n      0x04\n      dup2\n      gt\n      iszero\n      tag_194\n      jumpi\n      tag_195\n      tag_63\n      jump\t// in\n    tag_195:\n    tag_194:\n        /* \"contracts/Voting02.sol\":9525:9537  participants */\n      0x02\n        /* \"contracts/Voting02.sol\":9525:9549  participants[msg.sender] */\n      0x00\n        /* \"contracts/Voting02.sol\":9538:9548  msg.sender */\n      caller\n        /* \"contracts/Voting02.sol\":9525:9549  participants[msg.sender] */\n      0xffffffffffffffffffffffffffffffffffffffff\n      and\n      0xffffffffffffffffffffffffffffffffffffffff\n      and\n      dup2\n      mstore\n      0x20\n      add\n      swap1\n      dup2\n      mstore\n      0x20\n      add\n      0x00\n      keccak256\n        /* \"contracts/Voting02.sol\":9525:9554  participants[msg.sender].role */\n      0x00\n      add\n      0x00\n      swap1\n      sload\n      swap1\n      0x0100\n      exp\n      swap1\n      div\n      0xff\n      and\n        /* \"contracts/Voting02.sol\":9525:9591  participants[msg.sender].role >=ConventionRole.REPLACEMENTDELEGATE */\n      0x04\n      dup2\n      gt\n      iszero\n      tag_196\n      jumpi\n      tag_197\n      tag_63\n      jump\t// in\n    tag_197:\n    tag_196:\n      lt\n      iszero\n        /* \"contracts/Voting02.sol\":9517:9651  require(participants[msg.sender].role >=ConventionRole.REPLACEMENTDELEGATE, \"Only (replacement)delegates can transfer voting rights.\") */\n      tag_198\n      jumpi\n      mload(0x40)\n      0x08c379a000000000000000000000000000000000000000000000000000000000\n      dup2\n      mstore\n      0x04\n      add\n      tag_199\n      swap1\n      tag_200\n      jump\t// in\n    tag_199:\n      mload(0x40)\n      dup1\n      swap2\n      sub\n      swap1\n      revert\n    tag_198:\n        /* \"contracts/Voting02.sol\":9699:9733  ConventionRole.REPLACEMENTDELEGATE */\n      0x02\n        /* \"contracts/Voting02.sol\":9670:9733  participants[towhom_].role >=ConventionRole.REPLACEMENTDELEGATE */\n      0x04\n      dup2\n      gt\n      iszero\n      tag_201\n      jumpi\n      tag_202\n      tag_63\n      jump\t// in\n    tag_202:\n    tag_201:\n        /* \"contracts/Voting02.sol\":9670:9682  participants */\n      0x02\n        /* \"contracts/Voting02.sol\":9670:9691  participants[towhom_] */\n      0x00\n        /* \"contracts/Voting02.sol\":9683:9690  towhom_ */\n      dup4\n        /* \"contracts/Voting02.sol\":9670:9691  participants[towhom_] */\n      0xffffffffffffffffffffffffffffffffffffffff\n      and\n      0xffffffffffffffffffffffffffffffffffffffff\n      and\n      dup2\n      mstore\n      0x20\n      add\n      swap1\n      dup2\n      mstore\n      0x20\n      add\n      0x00\n      keccak256\n        /* \"contracts/Voting02.sol\":9670:9696  participants[towhom_].role */\n      0x00\n      add\n      0x00\n      swap1\n      sload\n      swap1\n      0x0100\n      exp\n      swap1\n      div\n      0xff\n      and\n        /* \"contracts/Voting02.sol\":9670:9733  participants[towhom_].role >=ConventionRole.REPLACEMENTDELEGATE */\n      0x04\n      dup2\n      gt\n      iszero\n      tag_203\n      jumpi\n      tag_204\n      tag_63\n      jump\t// in\n    tag_204:\n    tag_203:\n      lt\n      iszero\n        /* \"contracts/Voting02.sol\":9662:9792  require(participants[towhom_].role >=ConventionRole.REPLACEMENTDELEGATE, \"Only (replacement)delegates can receive voting rights.\") */\n      tag_205\n      jumpi\n      mload(0x40)\n      0x08c379a000000000000000000000000000000000000000000000000000000000\n      dup2\n      mstore\n      0x04\n      add\n      tag_206\n      swap1\n      tag_207\n      jump\t// in\n    tag_206:\n      mload(0x40)\n      dup1\n      swap2\n      sub\n      swap1\n      revert\n    tag_205:\n        /* \"contracts/Voting02.sol\":9866:9867  0 */\n      0x00\n        /* \"contracts/Voting02.sol\":9813:9868  participants[msg.sender].votingRight1from != address(0) */\n      0xffffffffffffffffffffffffffffffffffffffff\n      and\n        /* \"contracts/Voting02.sol\":9813:9825  participants */\n      0x02\n        /* \"contracts/Voting02.sol\":9813:9837  participants[msg.sender] */\n      0x00\n        /* \"contracts/Voting02.sol\":9826:9836  msg.sender */\n      caller\n        /* \"contracts/Voting02.sol\":9813:9837  participants[msg.sender] */\n      0xffffffffffffffffffffffffffffffffffffffff\n      and\n      0xffffffffffffffffffffffffffffffffffffffff\n      and\n      dup2\n      mstore\n      0x20\n      add\n      swap1\n      dup2\n      mstore\n      0x20\n      add\n      0x00\n      keccak256\n        /* \"contracts/Voting02.sol\":9813:9854  participants[msg.sender].votingRight1from */\n      0x00\n      add\n      0x01\n      swap1\n      sload\n      swap1\n      0x0100\n      exp\n      swap1\n      div\n      0xffffffffffffffffffffffffffffffffffffffff\n      and\n        /* \"contracts/Voting02.sol\":9813:9868  participants[msg.sender].votingRight1from != address(0) */\n      0xffffffffffffffffffffffffffffffffffffffff\n      and\n      sub\n        /* \"contracts/Voting02.sol\":9805:9921  require(participants[msg.sender].votingRight1from != address(0), \"Message sender does not hold any voting right 1.\") */\n      tag_208\n      jumpi\n      mload(0x40)\n      0x08c379a000000000000000000000000000000000000000000000000000000000\n      dup2\n      mstore\n      0x04\n      add\n      tag_209\n      swap1\n      tag_210\n      jump\t// in\n    tag_209:\n      mload(0x40)\n      dup1\n      swap2\n      sub\n      swap1\n      revert\n    tag_208:\n        /* \"contracts/Voting02.sol\":9990:9991  0 */\n      0x00\n        /* \"contracts/Voting02.sol\":9940:9992  participants[towhom_].votingRight1from == address(0) */\n      0xffffffffffffffffffffffffffffffffffffffff\n      and\n        /* \"contracts/Voting02.sol\":9940:9952  participants */\n      0x02\n        /* \"contracts/Voting02.sol\":9940:9961  participants[towhom_] */\n      0x00\n        /* \"contracts/Voting02.sol\":9953:9960  towhom_ */\n      dup4\n        /* \"contracts/Voting02.sol\":9940:9961  participants[towhom_] */\n      0xffffffffffffffffffffffffffffffffffffffff\n      and\n      0xffffffffffffffffffffffffffffffffffffffff\n      and\n      dup2\n      mstore\n      0x20\n      add\n      swap1\n      dup2\n      mstore\n      0x20\n      add\n      0x00\n      keccak256\n        /* \"contracts/Voting02.sol\":9940:9978  participants[towhom_].votingRight1from */\n      0x00\n      add\n      0x01\n      swap1\n      sload\n      swap1\n      0x0100\n      exp\n      swap1\n      div\n      0xffffffffffffffffffffffffffffffffffffffff\n      and\n        /* \"contracts/Voting02.sol\":9940:9992  participants[towhom_].votingRight1from == address(0) */\n      0xffffffffffffffffffffffffffffffffffffffff\n      and\n      eq\n        /* \"contracts/Voting02.sol\":9940:10048  participants[towhom_].votingRight1from == address(0) || participants[towhom_].votingRight2from == address(0) */\n      dup1\n      tag_211\n      jumpi\n      pop\n        /* \"contracts/Voting02.sol\":10046:10047  0 */\n      0x00\n        /* \"contracts/Voting02.sol\":9996:10048  participants[towhom_].votingRight2from == address(0) */\n      0xffffffffffffffffffffffffffffffffffffffff\n      and\n        /* \"contracts/Voting02.sol\":9996:10008  participants */\n      0x02\n        /* \"contracts/Voting02.sol\":9996:10017  participants[towhom_] */\n      0x00\n        /* \"contracts/Voting02.sol\":10009:10016  towhom_ */\n      dup4\n        /* \"contracts/Voting02.sol\":9996:10017  participants[towhom_] */\n      0xffffffffffffffffffffffffffffffffffffffff\n      and\n      0xffffffffffffffffffffffffffffffffffffffff\n      and\n      dup2\n      mstore\n      0x20\n      add\n      swap1\n      dup2\n      mstore\n      0x20\n      add\n      0x00\n      keccak256\n        /* \"contracts/Voting02.sol\":9996:10034  participants[towhom_].votingRight2from */\n      0x01\n      add\n      0x00\n      swap1\n      sload\n      swap1\n      0x0100\n      exp\n      swap1\n      div\n      0xffffffffffffffffffffffffffffffffffffffff\n      and\n        /* \"contracts/Voting02.sol\":9996:10048  participants[towhom_].votingRight2from == address(0) */\n      0xffffffffffffffffffffffffffffffffffffffff\n      and\n      eq\n        /* \"contracts/Voting02.sol\":9940:10048  participants[towhom_].votingRight1from == address(0) || participants[towhom_].votingRight2from == address(0) */\n    tag_211:\n        /* \"contracts/Voting02.sol\":9932:10119  require(participants[towhom_].votingRight1from == address(0) || participants[towhom_].votingRight2from == address(0), \"Receiving (replacement)delegate has already 2 active voting rights\") */\n      tag_212\n      jumpi\n      mload(0x40)\n      0x08c379a000000000000000000000000000000000000000000000000000000000\n      dup2\n      mstore\n      0x04\n      add\n      tag_213\n      swap1\n      tag_214\n      jump\t// in\n    tag_213:\n      mload(0x40)\n      dup1\n      swap2\n      sub\n      swap1\n      revert\n    tag_212:\n        /* \"contracts/Voting02.sol\":10140:10155  noOpenMotions() */\n      tag_215\n        /* \"contracts/Voting02.sol\":10140:10153  noOpenMotions */\n      tag_146\n        /* \"contracts/Voting02.sol\":10140:10155  noOpenMotions() */\n      jump\t// in\n    tag_215:\n        /* \"contracts/Voting02.sol\":10132:10211  require(noOpenMotions(), \"Can not transfer votes during open voting processes\") */\n      tag_216\n      jumpi\n      mload(0x40)\n      0x08c379a000000000000000000000000000000000000000000000000000000000\n      dup2\n      mstore\n      0x04\n      add\n      tag_217\n      swap1\n      tag_218\n      jump\t// in\n    tag_217:\n      mload(0x40)\n      dup1\n      swap2\n      sub\n      swap1\n      revert\n    tag_216:\n        /* \"contracts/Voting02.sol\":10224:10255  transfer(msg.sender,towhom_, 1) */\n      tag_219\n        /* \"contracts/Voting02.sol\":10233:10243  msg.sender */\n      caller\n        /* \"contracts/Voting02.sol\":10244:10251  towhom_ */\n      dup3\n        /* \"contracts/Voting02.sol\":10253:10254  1 */\n      0x01\n        /* \"contracts/Voting02.sol\":10224:10232  transfer */\n      tag_220\n        /* \"contracts/Voting02.sol\":10224:10255  transfer(msg.sender,towhom_, 1) */\n      jump\t// in\n    tag_219:\n        /* \"contracts/Voting02.sol\":9453:10272  function transferVotingRight1(address towhom_) public{... */\n      pop\n      jump\t// out\n        /* \"contracts/Voting02.sol\":10298:11198  function createRegularMotion(string memory txt_) external returns (uint){... */\n    tag_43:\n        /* \"contracts/Voting02.sol\":10365:10369  uint */\n      0x00\n        /* \"contracts/Voting02.sol\":10421:10442  ConventionRole.MEMBER */\n      0x01\n        /* \"contracts/Voting02.sol\":10389:10442  participants[msg.sender].role >=ConventionRole.MEMBER */\n      0x04\n      dup2\n      gt\n      iszero\n      tag_222\n      jumpi\n      tag_223\n      tag_63\n      jump\t// in\n    tag_223:\n    tag_222:\n        /* \"contracts/Voting02.sol\":10389:10401  participants */\n      0x02\n        /* \"contracts/Voting02.sol\":10389:10413  participants[msg.sender] */\n      0x00\n        /* \"contracts/Voting02.sol\":10402:10412  msg.sender */\n      caller\n        /* \"contracts/Voting02.sol\":10389:10413  participants[msg.sender] */\n      0xffffffffffffffffffffffffffffffffffffffff\n      and\n      0xffffffffffffffffffffffffffffffffffffffff\n      and\n      dup2\n      mstore\n      0x20\n      add\n      swap1\n      dup2\n      mstore\n      0x20\n      add\n      0x00\n      keccak256\n        /* \"contracts/Voting02.sol\":10389:10418  participants[msg.sender].role */\n      0x00\n      add\n      0x00\n      swap1\n      sload\n      swap1\n      0x0100\n      exp\n      swap1\n      div\n      0xff\n      and\n        /* \"contracts/Voting02.sol\":10389:10442  participants[msg.sender].role >=ConventionRole.MEMBER */\n      0x04\n      dup2\n      gt\n      iszero\n      tag_224\n      jumpi\n      tag_225\n      tag_63\n      jump\t// in\n    tag_225:\n    tag_224:\n      lt\n      iszero\n        /* \"contracts/Voting02.sol\":10381:10494  require(participants[msg.sender].role >=ConventionRole.MEMBER, \"Only party members can create a regular motion.\") */\n      tag_226\n      jumpi\n      mload(0x40)\n      0x08c379a000000000000000000000000000000000000000000000000000000000\n      dup2\n      mstore\n      0x04\n      add\n      tag_227\n      swap1\n      tag_228\n      jump\t// in\n    tag_227:\n      mload(0x40)\n      dup1\n      swap2\n      sub\n      swap1\n      revert\n    tag_226:\n        /* \"contracts/Voting02.sol\":10513:10528  noOpenMotions() */\n      tag_229\n        /* \"contracts/Voting02.sol\":10513:10526  noOpenMotions */\n      tag_146\n        /* \"contracts/Voting02.sol\":10513:10528  noOpenMotions() */\n      jump\t// in\n    tag_229:\n        /* \"contracts/Voting02.sol\":10505:10585  require(noOpenMotions(), \"Can not create new motions while voting is going on.\") */\n      tag_230\n      jumpi\n      mload(0x40)\n      0x08c379a000000000000000000000000000000000000000000000000000000000\n      dup2\n      mstore\n      0x04\n      add\n      tag_231\n      swap1\n      tag_232\n      jump\t// in\n    tag_231:\n      mload(0x40)\n      dup1\n      swap2\n      sub\n      swap1\n      revert\n    tag_230:\n        /* \"contracts/Voting02.sol\":10605:10621  Motion storage m */\n      0x00\n        /* \"contracts/Voting02.sol\":10625:10632  motions */\n      0x04\n        /* \"contracts/Voting02.sol\":10625:10639  motions.push() */\n      0x01\n      dup2\n      0x01\n      dup2\n      sload\n      add\n      dup1\n      dup3\n      sstore\n      dup1\n      swap2\n      pop\n      pop\n      sub\n      swap1\n      0x00\n      mstore\n      keccak256(0x00, 0x20)\n      swap1\n      0x06\n      mul\n      add\n        /* \"contracts/Voting02.sol\":10605:10639  Motion storage m =  motions.push() */\n      swap1\n      pop\n        /* \"contracts/Voting02.sol\":10657:10670  motionCounter */\n      sload(0x00)\n        /* \"contracts/Voting02.sol\":10650:10651  m */\n      dup2\n        /* \"contracts/Voting02.sol\":10650:10654  m.id */\n      0x00\n      add\n        /* \"contracts/Voting02.sol\":10650:10670  m.id = motionCounter */\n      dup2\n      swap1\n      sstore\n      pop\n        /* \"contracts/Voting02.sol\":10690:10694  txt_ */\n      dup3\n        /* \"contracts/Voting02.sol\":10681:10682  m */\n      dup2\n        /* \"contracts/Voting02.sol\":10681:10687  m.text */\n      0x01\n      add\n        /* \"contracts/Voting02.sol\":10681:10694  m.text = txt_ */\n      swap1\n      dup2\n      tag_234\n      swap2\n      swap1\n      tag_235\n      jump\t// in\n    tag_234:\n      pop\n        /* \"contracts/Voting02.sol\":10715:10733  MotionType.REGULAR */\n      0x00\n        /* \"contracts/Voting02.sol\":10705:10706  m */\n      dup2\n        /* \"contracts/Voting02.sol\":10705:10712  m.mtype */\n      0x02\n      add\n      0x00\n        /* \"contracts/Voting02.sol\":10705:10733  m.mtype = MotionType.REGULAR */\n      0x0100\n      exp\n      dup2\n      sload\n      dup2\n      0xff\n      mul\n      not\n      and\n      swap1\n      dup4\n      0x01\n      dup2\n      gt\n      iszero\n      tag_236\n      jumpi\n      tag_237\n      tag_63\n      jump\t// in\n    tag_237:\n    tag_236:\n      mul\n      or\n      swap1\n      sstore\n      pop\n        /* \"contracts/Voting02.sol\":10755:10776  MotionStatus.PREPARED */\n      0x00\n        /* \"contracts/Voting02.sol\":10744:10745  m */\n      dup2\n        /* \"contracts/Voting02.sol\":10744:10752  m.status */\n      0x02\n      add\n      0x01\n        /* \"contracts/Voting02.sol\":10744:10776  m.status = MotionStatus.PREPARED */\n      0x0100\n      exp\n      dup2\n      sload\n      dup2\n      0xff\n      mul\n      not\n      and\n      swap1\n      dup4\n      0x02\n      dup2\n      gt\n      iszero\n      tag_238\n      jumpi\n      tag_239\n      tag_63\n      jump\t// in\n    tag_239:\n    tag_238:\n      mul\n      or\n      swap1\n      sstore\n      pop\n        /* \"contracts/Voting02.sol\":10789:10806  Option storage o1 */\n      0x00\n        /* \"contracts/Voting02.sol\":10809:10810  m */\n      dup2\n        /* \"contracts/Voting02.sol\":10809:10818  m.options */\n      0x03\n      add\n        /* \"contracts/Voting02.sol\":10809:10825  m.options.push() */\n      0x01\n      dup2\n      0x01\n      dup2\n      sload\n      add\n      dup1\n      dup3\n      sstore\n      dup1\n      swap2\n      pop\n      pop\n      sub\n      swap1\n      0x00\n      mstore\n      keccak256(0x00, 0x20)\n      swap1\n      0x02\n      mul\n      add\n        /* \"contracts/Voting02.sol\":10789:10825  Option storage o1 = m.options.push() */\n      swap1\n      pop\n        /* \"contracts/Voting02.sol\":10836:10851  o1.text = \"yes\" */\n      mload(0x40)\n      dup1\n      0x40\n      add\n      0x40\n      mstore\n      dup1\n      0x03\n      dup2\n      mstore\n      0x20\n      add\n      0x7965730000000000000000000000000000000000000000000000000000000000\n      dup2\n      mstore\n      pop\n        /* \"contracts/Voting02.sol\":10836:10838  o1 */\n      dup2\n        /* \"contracts/Voting02.sol\":10836:10843  o1.text */\n      0x00\n      add\n        /* \"contracts/Voting02.sol\":10836:10851  o1.text = \"yes\" */\n      swap1\n      dup2\n      tag_241\n      swap2\n      swap1\n      tag_235\n      jump\t// in\n    tag_241:\n      pop\n        /* \"contracts/Voting02.sol\":10877:10878  0 */\n      0x00\n        /* \"contracts/Voting02.sol\":10862:10864  o1 */\n      dup2\n        /* \"contracts/Voting02.sol\":10862:10874  o1.voteCount */\n      0x01\n      add\n        /* \"contracts/Voting02.sol\":10862:10878  o1.voteCount = 0 */\n      dup2\n      swap1\n      sstore\n      pop\n        /* \"contracts/Voting02.sol\":10891:10908  Option storage o2 */\n      0x00\n        /* \"contracts/Voting02.sol\":10911:10912  m */\n      dup3\n        /* \"contracts/Voting02.sol\":10911:10920  m.options */\n      0x03\n      add\n        /* \"contracts/Voting02.sol\":10911:10927  m.options.push() */\n      0x01\n      dup2\n      0x01\n      dup2\n      sload\n      add\n      dup1\n      dup3\n      sstore\n      dup1\n      swap2\n      pop\n      pop\n      sub\n      swap1\n      0x00\n      mstore\n      keccak256(0x00, 0x20)\n      swap1\n      0x02\n      mul\n      add\n        /* \"contracts/Voting02.sol\":10891:10927  Option storage o2 = m.options.push() */\n      swap1\n      pop\n        /* \"contracts/Voting02.sol\":10938:10952  o2.text = \"no\" */\n      mload(0x40)\n      dup1\n      0x40\n      add\n      0x40\n      mstore\n      dup1\n      0x02\n      dup2\n      mstore\n      0x20\n      add\n      0x6e6f000000000000000000000000000000000000000000000000000000000000\n      dup2\n      mstore\n      pop\n        /* \"contracts/Voting02.sol\":10938:10940  o2 */\n      dup2\n        /* \"contracts/Voting02.sol\":10938:10945  o2.text */\n      0x00\n      add\n        /* \"contracts/Voting02.sol\":10938:10952  o2.text = \"no\" */\n      swap1\n      dup2\n      tag_243\n      swap2\n      swap1\n      tag_235\n      jump\t// in\n    tag_243:\n      pop\n        /* \"contracts/Voting02.sol\":10978:10979  0 */\n      0x00\n        /* \"contracts/Voting02.sol\":10963:10965  o2 */\n      dup2\n        /* \"contracts/Voting02.sol\":10963:10975  o2.voteCount */\n      0x01\n      add\n        /* \"contracts/Voting02.sol\":10963:10979  o2.voteCount = 0 */\n      dup2\n      swap1\n      sstore\n      pop\n        /* \"contracts/Voting02.sol\":10992:11009  Option storage o3 */\n      0x00\n        /* \"contracts/Voting02.sol\":11012:11013  m */\n      dup4\n        /* \"contracts/Voting02.sol\":11012:11021  m.options */\n      0x03\n      add\n        /* \"contracts/Voting02.sol\":11012:11028  m.options.push() */\n      0x01\n      dup2\n      0x01\n      dup2\n      sload\n      add\n      dup1\n      dup3\n      sstore\n      dup1\n      swap2\n      pop\n      pop\n      sub\n      swap1\n      0x00\n      mstore\n      keccak256(0x00, 0x20)\n      swap1\n      0x02\n      mul\n      add\n        /* \"contracts/Voting02.sol\":10992:11028  Option storage o3 = m.options.push() */\n      swap1\n      pop\n        /* \"contracts/Voting02.sol\":11039:11058  o3.text = \"abstain\" */\n      mload(0x40)\n      dup1\n      0x40\n      add\n      0x40\n      mstore\n      dup1\n      0x07\n      dup2\n      mstore\n      0x20\n      add\n      0x6162737461696e00000000000000000000000000000000000000000000000000\n      dup2\n      mstore\n      pop\n        /* \"contracts/Voting02.sol\":11039:11041  o3 */\n      dup2\n        /* \"contracts/Voting02.sol\":11039:11046  o3.text */\n      0x00\n      add\n        /* \"contracts/Voting02.sol\":11039:11058  o3.text = \"abstain\" */\n      swap1\n      dup2\n      tag_245\n      swap2\n      swap1\n      tag_235\n      jump\t// in\n    tag_245:\n      pop\n        /* \"contracts/Voting02.sol\":11084:11085  0 */\n      0x00\n        /* \"contracts/Voting02.sol\":11069:11071  o3 */\n      dup2\n        /* \"contracts/Voting02.sol\":11069:11081  o3.voteCount */\n      0x01\n      add\n        /* \"contracts/Voting02.sol\":11069:11085  o3.voteCount = 0 */\n      dup2\n      swap1\n      sstore\n      pop\n        /* \"contracts/Voting02.sol\":11098:11099  m */\n      dup4\n        /* \"contracts/Voting02.sol\":11098:11117  m.initialSupporters */\n      0x05\n      add\n        /* \"contracts/Voting02.sol\":11123:11133  msg.sender */\n      caller\n        /* \"contracts/Voting02.sol\":11098:11134  m.initialSupporters.push(msg.sender) */\n      swap1\n      dup1\n      0x01\n      dup2\n      sload\n      add\n      dup1\n      dup3\n      sstore\n      dup1\n      swap2\n      pop\n      pop\n      0x01\n      swap1\n      sub\n      swap1\n      0x00\n      mstore\n      keccak256(0x00, 0x20)\n      add\n      0x00\n      swap1\n      swap2\n      swap1\n      swap2\n      swap1\n      swap2\n      0x0100\n      exp\n      dup2\n      sload\n      dup2\n      0xffffffffffffffffffffffffffffffffffffffff\n      mul\n      not\n      and\n      swap1\n      dup4\n      0xffffffffffffffffffffffffffffffffffffffff\n      and\n      mul\n      or\n      swap1\n      sstore\n      pop\n        /* \"contracts/Voting02.sol\":11153:11166  motionCounter */\n      0x00\n      dup1\n        /* \"contracts/Voting02.sol\":11153:11168  motionCounter++ */\n      dup2\n      sload\n      dup1\n      swap3\n      swap2\n      swap1\n      tag_247\n      swap1\n      tag_132\n      jump\t// in\n    tag_247:\n      swap2\n      swap1\n      pop\n      sstore\n      pop\n        /* \"contracts/Voting02.sol\":11186:11187  m */\n      dup4\n        /* \"contracts/Voting02.sol\":11186:11190  m.id */\n      0x00\n      add\n      sload\n        /* \"contracts/Voting02.sol\":11179:11190  return m.id */\n      swap5\n      pop\n      pop\n      pop\n      pop\n      pop\n        /* \"contracts/Voting02.sol\":10298:11198  function createRegularMotion(string memory txt_) external returns (uint){... */\n      swap2\n      swap1\n      pop\n      jump\t// out\n        /* \"contracts/Voting02.sol\":6704:7751  function reclaimOriginalVotingRight() public returns(bool){... */\n    tag_47:\n        /* \"contracts/Voting02.sol\":6757:6761  bool */\n      0x00\n        /* \"contracts/Voting02.sol\":6813:6836  ConventionRole.DELEGATE */\n      0x03\n        /* \"contracts/Voting02.sol\":6781:6836  participants[msg.sender].role >=ConventionRole.DELEGATE */\n      0x04\n      dup2\n      gt\n      iszero\n      tag_249\n      jumpi\n      tag_250\n      tag_63\n      jump\t// in\n    tag_250:\n    tag_249:\n        /* \"contracts/Voting02.sol\":6781:6793  participants */\n      0x02\n        /* \"contracts/Voting02.sol\":6781:6805  participants[msg.sender] */\n      0x00\n        /* \"contracts/Voting02.sol\":6794:6804  msg.sender */\n      caller\n        /* \"contracts/Voting02.sol\":6781:6805  participants[msg.sender] */\n      0xffffffffffffffffffffffffffffffffffffffff\n      and\n      0xffffffffffffffffffffffffffffffffffffffff\n      and\n      dup2\n      mstore\n      0x20\n      add\n      swap1\n      dup2\n      mstore\n      0x20\n      add\n      0x00\n      keccak256\n        /* \"contracts/Voting02.sol\":6781:6810  participants[msg.sender].role */\n      0x00\n      add\n      0x00\n      swap1\n      sload\n      swap1\n      0x0100\n      exp\n      swap1\n      div\n      0xff\n      and\n        /* \"contracts/Voting02.sol\":6781:6836  participants[msg.sender].role >=ConventionRole.DELEGATE */\n      0x04\n      dup2\n      gt\n      iszero\n      tag_251\n      jumpi\n      tag_252\n      tag_63\n      jump\t// in\n    tag_252:\n    tag_251:\n      lt\n      iszero\n        /* \"contracts/Voting02.sol\":6773:6896  require(participants[msg.sender].role >=ConventionRole.DELEGATE, \"Only delegates can reclaim their original voting right.\") */\n      tag_253\n      jumpi\n      mload(0x40)\n      0x08c379a000000000000000000000000000000000000000000000000000000000\n      dup2\n      mstore\n      0x04\n      add\n      tag_254\n      swap1\n      tag_255\n      jump\t// in\n    tag_254:\n      mload(0x40)\n      dup1\n      swap2\n      sub\n      swap1\n      revert\n    tag_253:\n        /* \"contracts/Voting02.sol\":6968:6969  0 */\n      0x00\n        /* \"contracts/Voting02.sol\":6915:6970  participants[msg.sender].votingRight1from == address(0) */\n      0xffffffffffffffffffffffffffffffffffffffff\n      and\n        /* \"contracts/Voting02.sol\":6915:6927  participants */\n      0x02\n        /* \"contracts/Voting02.sol\":6915:6939  participants[msg.sender] */\n      0x00\n        /* \"contracts/Voting02.sol\":6928:6938  msg.sender */\n      caller\n        /* \"contracts/Voting02.sol\":6915:6939  participants[msg.sender] */\n      0xffffffffffffffffffffffffffffffffffffffff\n      and\n      0xffffffffffffffffffffffffffffffffffffffff\n      and\n      dup2\n      mstore\n      0x20\n      add\n      swap1\n      dup2\n      mstore\n      0x20\n      add\n      0x00\n      keccak256\n        /* \"contracts/Voting02.sol\":6915:6956  participants[msg.sender].votingRight1from */\n      0x00\n      add\n      0x01\n      swap1\n      sload\n      swap1\n      0x0100\n      exp\n      swap1\n      div\n      0xffffffffffffffffffffffffffffffffffffffff\n      and\n        /* \"contracts/Voting02.sol\":6915:6970  participants[msg.sender].votingRight1from == address(0) */\n      0xffffffffffffffffffffffffffffffffffffffff\n      and\n      eq\n        /* \"contracts/Voting02.sol\":6915:7029  participants[msg.sender].votingRight1from == address(0) || participants[msg.sender].votingRight2from == address(0) */\n      dup1\n      tag_256\n      jumpi\n      pop\n        /* \"contracts/Voting02.sol\":7027:7028  0 */\n      0x00\n        /* \"contracts/Voting02.sol\":6974:7029  participants[msg.sender].votingRight2from == address(0) */\n      0xffffffffffffffffffffffffffffffffffffffff\n      and\n        /* \"contracts/Voting02.sol\":6974:6986  participants */\n      0x02\n        /* \"contracts/Voting02.sol\":6974:6998  participants[msg.sender] */\n      0x00\n        /* \"contracts/Voting02.sol\":6987:6997  msg.sender */\n      caller\n        /* \"contracts/Voting02.sol\":6974:6998  participants[msg.sender] */\n      0xffffffffffffffffffffffffffffffffffffffff\n      and\n      0xffffffffffffffffffffffffffffffffffffffff\n      and\n      dup2\n      mstore\n      0x20\n      add\n      swap1\n      dup2\n      mstore\n      0x20\n      add\n      0x00\n      keccak256\n        /* \"contracts/Voting02.sol\":6974:7015  participants[msg.sender].votingRight2from */\n      0x01\n      add\n      0x00\n      swap1\n      sload\n      swap1\n      0x0100\n      exp\n      swap1\n      div\n      0xffffffffffffffffffffffffffffffffffffffff\n      and\n        /* \"contracts/Voting02.sol\":6974:7029  participants[msg.sender].votingRight2from == address(0) */\n      0xffffffffffffffffffffffffffffffffffffffff\n      and\n      eq\n        /* \"contracts/Voting02.sol\":6915:7029  participants[msg.sender].votingRight1from == address(0) || participants[msg.sender].votingRight2from == address(0) */\n    tag_256:\n        /* \"contracts/Voting02.sol\":6907:7080  require(participants[msg.sender].votingRight1from == address(0) || participants[msg.sender].votingRight2from == address(0), \"Reclaimer already holds 2 active voting rights\") */\n      tag_257\n      jumpi\n      mload(0x40)\n      0x08c379a000000000000000000000000000000000000000000000000000000000\n      dup2\n      mstore\n      0x04\n      add\n      tag_258\n      swap1\n      tag_259\n      jump\t// in\n    tag_258:\n      mload(0x40)\n      dup1\n      swap2\n      sub\n      swap1\n      revert\n    tag_257:\n        /* \"contracts/Voting02.sol\":7144:7154  msg.sender */\n      caller\n        /* \"contracts/Voting02.sol\":7099:7154  participants[msg.sender].votingRight1from != msg.sender */\n      0xffffffffffffffffffffffffffffffffffffffff\n      and\n        /* \"contracts/Voting02.sol\":7099:7111  participants */\n      0x02\n        /* \"contracts/Voting02.sol\":7099:7123  participants[msg.sender] */\n      0x00\n        /* \"contracts/Voting02.sol\":7112:7122  msg.sender */\n      caller\n        /* \"contracts/Voting02.sol\":7099:7123  participants[msg.sender] */\n      0xffffffffffffffffffffffffffffffffffffffff\n      and\n      0xffffffffffffffffffffffffffffffffffffffff\n      and\n      dup2\n      mstore\n      0x20\n      add\n      swap1\n      dup2\n      mstore\n      0x20\n      add\n      0x00\n      keccak256\n        /* \"contracts/Voting02.sol\":7099:7140  participants[msg.sender].votingRight1from */\n      0x00\n      add\n      0x01\n      swap1\n      sload\n      swap1\n      0x0100\n      exp\n      swap1\n      div\n      0xffffffffffffffffffffffffffffffffffffffff\n      and\n        /* \"contracts/Voting02.sol\":7099:7154  participants[msg.sender].votingRight1from != msg.sender */\n      0xffffffffffffffffffffffffffffffffffffffff\n      and\n      eq\n      iszero\n        /* \"contracts/Voting02.sol\":7099:7213  participants[msg.sender].votingRight1from != msg.sender && participants[msg.sender].votingRight2from != msg.sender */\n      dup1\n      iszero\n      tag_260\n      jumpi\n      pop\n        /* \"contracts/Voting02.sol\":7203:7213  msg.sender */\n      caller\n        /* \"contracts/Voting02.sol\":7158:7213  participants[msg.sender].votingRight2from != msg.sender */\n      0xffffffffffffffffffffffffffffffffffffffff\n      and\n        /* \"contracts/Voting02.sol\":7158:7170  participants */\n      0x02\n        /* \"contracts/Voting02.sol\":7158:7182  participants[msg.sender] */\n      0x00\n        /* \"contracts/Voting02.sol\":7171:7181  msg.sender */\n      caller\n        /* \"contracts/Voting02.sol\":7158:7182  participants[msg.sender] */\n      0xffffffffffffffffffffffffffffffffffffffff\n      and\n      0xffffffffffffffffffffffffffffffffffffffff\n      and\n      dup2\n      mstore\n      0x20\n      add\n      swap1\n      dup2\n      mstore\n      0x20\n      add\n      0x00\n      keccak256\n        /* \"contracts/Voting02.sol\":7158:7199  participants[msg.sender].votingRight2from */\n      0x01\n      add\n      0x00\n      swap1\n      sload\n      swap1\n      0x0100\n      exp\n      swap1\n      div\n      0xffffffffffffffffffffffffffffffffffffffff\n      and\n        /* \"contracts/Voting02.sol\":7158:7213  participants[msg.sender].votingRight2from != msg.sender */\n      0xffffffffffffffffffffffffffffffffffffffff\n      and\n      eq\n      iszero\n        /* \"contracts/Voting02.sol\":7099:7213  participants[msg.sender].votingRight1from != msg.sender && participants[msg.sender].votingRight2from != msg.sender */\n    tag_260:\n        /* \"contracts/Voting02.sol\":7091:7271  require(participants[msg.sender].votingRight1from != msg.sender && participants[msg.sender].votingRight2from != msg.sender, \"Reclaimer already holds his/her original voting right\") */\n      tag_261\n      jumpi\n      mload(0x40)\n      0x08c379a000000000000000000000000000000000000000000000000000000000\n      dup2\n      mstore\n      0x04\n      add\n      tag_262\n      swap1\n      tag_263\n      jump\t// in\n    tag_262:\n      mload(0x40)\n      dup1\n      swap2\n      sub\n      swap1\n      revert\n    tag_261:\n        /* \"contracts/Voting02.sol\":7289:7295  uint i */\n      0x00\n        /* \"contracts/Voting02.sol\":7284:7721  for (uint i=0; i< participantsArray.length;i++){... */\n    tag_264:\n        /* \"contracts/Voting02.sol\":7302:7319  participantsArray */\n      0x03\n        /* \"contracts/Voting02.sol\":7302:7326  participantsArray.length */\n      dup1\n      sload\n      swap1\n      pop\n        /* \"contracts/Voting02.sol\":7299:7300  i */\n      dup2\n        /* \"contracts/Voting02.sol\":7299:7326  i< participantsArray.length */\n      lt\n        /* \"contracts/Voting02.sol\":7284:7721  for (uint i=0; i< participantsArray.length;i++){... */\n      iszero\n      tag_265\n      jumpi\n        /* \"contracts/Voting02.sol\":7402:7412  msg.sender */\n      caller\n        /* \"contracts/Voting02.sol\":7349:7412  participants[participantsArray[i]].votingRight1from==msg.sender */\n      0xffffffffffffffffffffffffffffffffffffffff\n      and\n        /* \"contracts/Voting02.sol\":7349:7361  participants */\n      0x02\n        /* \"contracts/Voting02.sol\":7349:7383  participants[participantsArray[i]] */\n      0x00\n        /* \"contracts/Voting02.sol\":7362:7379  participantsArray */\n      0x03\n        /* \"contracts/Voting02.sol\":7380:7381  i */\n      dup5\n        /* \"contracts/Voting02.sol\":7362:7382  participantsArray[i] */\n      dup2\n      sload\n      dup2\n      lt\n      tag_267\n      jumpi\n      tag_268\n      tag_72\n      jump\t// in\n    tag_268:\n    tag_267:\n      swap1\n      0x00\n      mstore\n      keccak256(0x00, 0x20)\n      add\n      0x00\n      swap1\n      sload\n      swap1\n      0x0100\n      exp\n      swap1\n      div\n      0xffffffffffffffffffffffffffffffffffffffff\n      and\n        /* \"contracts/Voting02.sol\":7349:7383  participants[participantsArray[i]] */\n      0xffffffffffffffffffffffffffffffffffffffff\n      and\n      0xffffffffffffffffffffffffffffffffffffffff\n      and\n      dup2\n      mstore\n      0x20\n      add\n      swap1\n      dup2\n      mstore\n      0x20\n      add\n      0x00\n      keccak256\n        /* \"contracts/Voting02.sol\":7349:7400  participants[participantsArray[i]].votingRight1from */\n      0x00\n      add\n      0x01\n      swap1\n      sload\n      swap1\n      0x0100\n      exp\n      swap1\n      div\n      0xffffffffffffffffffffffffffffffffffffffff\n      and\n        /* \"contracts/Voting02.sol\":7349:7412  participants[participantsArray[i]].votingRight1from==msg.sender */\n      0xffffffffffffffffffffffffffffffffffffffff\n      and\n      sub\n        /* \"contracts/Voting02.sol\":7346:7521  if(participants[participantsArray[i]].votingRight1from==msg.sender){... */\n      tag_270\n      jumpi\n        /* \"contracts/Voting02.sol\":7432:7475  transfer(participantsArray[i],msg.sender,1) */\n      tag_271\n        /* \"contracts/Voting02.sol\":7441:7458  participantsArray */\n      0x03\n        /* \"contracts/Voting02.sol\":7459:7460  i */\n      dup3\n        /* \"contracts/Voting02.sol\":7441:7461  participantsArray[i] */\n      dup2\n      sload\n      dup2\n      lt\n      tag_272\n      jumpi\n      tag_273\n      tag_72\n      jump\t// in\n    tag_273:\n    tag_272:\n      swap1\n      0x00\n      mstore\n      keccak256(0x00, 0x20)\n      add\n      0x00\n      swap1\n      sload\n      swap1\n      0x0100\n      exp\n      swap1\n      div\n      0xffffffffffffffffffffffffffffffffffffffff\n      and\n        /* \"contracts/Voting02.sol\":7462:7472  msg.sender */\n      caller\n        /* \"contracts/Voting02.sol\":7473:7474  1 */\n      0x01\n        /* \"contracts/Voting02.sol\":7432:7440  transfer */\n      tag_220\n        /* \"contracts/Voting02.sol\":7432:7475  transfer(participantsArray[i],msg.sender,1) */\n      jump\t// in\n    tag_271:\n        /* \"contracts/Voting02.sol\":7501:7505  true */\n      0x01\n        /* \"contracts/Voting02.sol\":7494:7505  return true */\n      swap2\n      pop\n      pop\n      jump(tag_248)\n        /* \"contracts/Voting02.sol\":7346:7521  if(participants[participantsArray[i]].votingRight1from==msg.sender){... */\n    tag_270:\n        /* \"contracts/Voting02.sol\":7591:7601  msg.sender */\n      caller\n        /* \"contracts/Voting02.sol\":7538:7601  participants[participantsArray[i]].votingRight2from==msg.sender */\n      0xffffffffffffffffffffffffffffffffffffffff\n      and\n        /* \"contracts/Voting02.sol\":7538:7550  participants */\n      0x02\n        /* \"contracts/Voting02.sol\":7538:7572  participants[participantsArray[i]] */\n      0x00\n        /* \"contracts/Voting02.sol\":7551:7568  participantsArray */\n      0x03\n        /* \"contracts/Voting02.sol\":7569:7570  i */\n      dup5\n        /* \"contracts/Voting02.sol\":7551:7571  participantsArray[i] */\n      dup2\n      sload\n      dup2\n      lt\n      tag_275\n      jumpi\n      tag_276\n      tag_72\n      jump\t// in\n    tag_276:\n    tag_275:\n      swap1\n      0x00\n      mstore\n      keccak256(0x00, 0x20)\n      add\n      0x00\n      swap1\n      sload\n      swap1\n      0x0100\n      exp\n      swap1\n      div\n      0xffffffffffffffffffffffffffffffffffffffff\n      and\n        /* \"contracts/Voting02.sol\":7538:7572  participants[participantsArray[i]] */\n      0xffffffffffffffffffffffffffffffffffffffff\n      and\n      0xffffffffffffffffffffffffffffffffffffffff\n      and\n      dup2\n      mstore\n      0x20\n      add\n      swap1\n      dup2\n      mstore\n      0x20\n      add\n      0x00\n      keccak256\n        /* \"contracts/Voting02.sol\":7538:7589  participants[participantsArray[i]].votingRight2from */\n      0x01\n      add\n      0x00\n      swap1\n      sload\n      swap1\n      0x0100\n      exp\n      swap1\n      div\n      0xffffffffffffffffffffffffffffffffffffffff\n      and\n        /* \"contracts/Voting02.sol\":7538:7601  participants[participantsArray[i]].votingRight2from==msg.sender */\n      0xffffffffffffffffffffffffffffffffffffffff\n      and\n      sub\n        /* \"contracts/Voting02.sol\":7535:7710  if(participants[participantsArray[i]].votingRight2from==msg.sender){... */\n      tag_278\n      jumpi\n        /* \"contracts/Voting02.sol\":7621:7664  transfer(participantsArray[i],msg.sender,2) */\n      tag_279\n        /* \"contracts/Voting02.sol\":7630:7647  participantsArray */\n      0x03\n        /* \"contracts/Voting02.sol\":7648:7649  i */\n      dup3\n        /* \"contracts/Voting02.sol\":7630:7650  participantsArray[i] */\n      dup2\n      sload\n      dup2\n      lt\n      tag_280\n      jumpi\n      tag_281\n      tag_72\n      jump\t// in\n    tag_281:\n    tag_280:\n      swap1\n      0x00\n      mstore\n      keccak256(0x00, 0x20)\n      add\n      0x00\n      swap1\n      sload\n      swap1\n      0x0100\n      exp\n      swap1\n      div\n      0xffffffffffffffffffffffffffffffffffffffff\n      and\n        /* \"contracts/Voting02.sol\":7651:7661  msg.sender */\n      caller\n        /* \"contracts/Voting02.sol\":7662:7663  2 */\n      0x02\n        /* \"contracts/Voting02.sol\":7621:7629  transfer */\n      tag_220\n        /* \"contracts/Voting02.sol\":7621:7664  transfer(participantsArray[i],msg.sender,2) */\n      jump\t// in\n    tag_279:\n        /* \"contracts/Voting02.sol\":7690:7694  true */\n      0x01\n        /* \"contracts/Voting02.sol\":7683:7694  return true */\n      swap2\n      pop\n      pop\n      jump(tag_248)\n        /* \"contracts/Voting02.sol\":7535:7710  if(participants[participantsArray[i]].votingRight2from==msg.sender){... */\n    tag_278:\n        /* \"contracts/Voting02.sol\":7327:7330  i++ */\n      dup1\n      dup1\n      tag_283\n      swap1\n      tag_132\n      jump\t// in\n    tag_283:\n      swap2\n      pop\n      pop\n        /* \"contracts/Voting02.sol\":7284:7721  for (uint i=0; i< participantsArray.length;i++){... */\n      jump(tag_264)\n    tag_265:\n      pop\n        /* \"contracts/Voting02.sol\":7738:7743  false */\n      0x00\n        /* \"contracts/Voting02.sol\":7731:7743  return false */\n      swap1\n      pop\n        /* \"contracts/Voting02.sol\":6704:7751  function reclaimOriginalVotingRight() public returns(bool){... */\n    tag_248:\n      swap1\n      jump\t// out\n        /* \"contracts/Voting02.sol\":1525:1554  uint public motionCounter = 0 */\n    tag_51:\n      sload(0x00)\n      dup2\n      jump\t// out\n        /* \"contracts/Voting02.sol\":7792:9445  function voteForMotion(uint motionid_, uint optionid_) public{... */\n    tag_56:\n        /* \"contracts/Voting02.sol\":7904:7938  ConventionRole.REPLACEMENTDELEGATE */\n      0x02\n        /* \"contracts/Voting02.sol\":7872:7938  participants[msg.sender].role >=ConventionRole.REPLACEMENTDELEGATE */\n      0x04\n      dup2\n      gt\n      iszero\n      tag_285\n      jumpi\n      tag_286\n      tag_63\n      jump\t// in\n    tag_286:\n    tag_285:\n        /* \"contracts/Voting02.sol\":7872:7884  participants */\n      0x02\n        /* \"contracts/Voting02.sol\":7872:7896  participants[msg.sender] */\n      0x00\n        /* \"contracts/Voting02.sol\":7885:7895  msg.sender */\n      caller\n        /* \"contracts/Voting02.sol\":7872:7896  participants[msg.sender] */\n      0xffffffffffffffffffffffffffffffffffffffff\n      and\n      0xffffffffffffffffffffffffffffffffffffffff\n      and\n      dup2\n      mstore\n      0x20\n      add\n      swap1\n      dup2\n      mstore\n      0x20\n      add\n      0x00\n      keccak256\n        /* \"contracts/Voting02.sol\":7872:7901  participants[msg.sender].role */\n      0x00\n      add\n      0x00\n      swap1\n      sload\n      swap1\n      0x0100\n      exp\n      swap1\n      div\n      0xff\n      and\n        /* \"contracts/Voting02.sol\":7872:7938  participants[msg.sender].role >=ConventionRole.REPLACEMENTDELEGATE */\n      0x04\n      dup2\n      gt\n      iszero\n      tag_287\n      jumpi\n      tag_288\n      tag_63\n      jump\t// in\n    tag_288:\n    tag_287:\n      lt\n      iszero\n        /* \"contracts/Voting02.sol\":7864:7986  require(participants[msg.sender].role >=ConventionRole.REPLACEMENTDELEGATE, \"Only (replacement)delegates can cast votes.\") */\n      tag_289\n      jumpi\n      mload(0x40)\n      0x08c379a000000000000000000000000000000000000000000000000000000000\n      dup2\n      mstore\n      0x04\n      add\n      tag_290\n      swap1\n      tag_291\n      jump\t// in\n    tag_290:\n      mload(0x40)\n      dup1\n      swap2\n      sub\n      swap1\n      revert\n    tag_289:\n        /* \"contracts/Voting02.sol\":8034:8051  MotionStatus.OPEN */\n      0x01\n        /* \"contracts/Voting02.sol\":8005:8051  motions[motionid_].status == MotionStatus.OPEN */\n      0x02\n      dup2\n      gt\n      iszero\n      tag_292\n      jumpi\n      tag_293\n      tag_63\n      jump\t// in\n    tag_293:\n    tag_292:\n        /* \"contracts/Voting02.sol\":8005:8012  motions */\n      0x04\n        /* \"contracts/Voting02.sol\":8013:8022  motionid_ */\n      dup4\n        /* \"contracts/Voting02.sol\":8005:8023  motions[motionid_] */\n      dup2\n      sload\n      dup2\n      lt\n      tag_294\n      jumpi\n      tag_295\n      tag_72\n      jump\t// in\n    tag_295:\n    tag_294:\n      swap1\n      0x00\n      mstore\n      keccak256(0x00, 0x20)\n      swap1\n      0x06\n      mul\n      add\n        /* \"contracts/Voting02.sol\":8005:8030  motions[motionid_].status */\n      0x02\n      add\n      0x01\n      swap1\n      sload\n      swap1\n      0x0100\n      exp\n      swap1\n      div\n      0xff\n      and\n        /* \"contracts/Voting02.sol\":8005:8051  motions[motionid_].status == MotionStatus.OPEN */\n      0x02\n      dup2\n      gt\n      iszero\n      tag_297\n      jumpi\n      tag_298\n      tag_63\n      jump\t// in\n    tag_298:\n    tag_297:\n      eq\n        /* \"contracts/Voting02.sol\":7997:8086  require(motions[motionid_].status == MotionStatus.OPEN, \"Motion is not open for voting.\") */\n      tag_299\n      jumpi\n      mload(0x40)\n      0x08c379a000000000000000000000000000000000000000000000000000000000\n      dup2\n      mstore\n      0x04\n      add\n      tag_300\n      swap1\n      tag_301\n      jump\t// in\n    tag_300:\n      mload(0x40)\n      dup1\n      swap2\n      sub\n      swap1\n      revert\n    tag_299:\n        /* \"contracts/Voting02.sol\":8156:8157  0 */\n      0x00\n        /* \"contracts/Voting02.sol\":8105:8158  participants[msg.sender].votingRight1from!=address(0) */\n      0xffffffffffffffffffffffffffffffffffffffff\n      and\n        /* \"contracts/Voting02.sol\":8105:8117  participants */\n      0x02\n        /* \"contracts/Voting02.sol\":8105:8129  participants[msg.sender] */\n      0x00\n        /* \"contracts/Voting02.sol\":8118:8128  msg.sender */\n      caller\n        /* \"contracts/Voting02.sol\":8105:8129  participants[msg.sender] */\n      0xffffffffffffffffffffffffffffffffffffffff\n      and\n      0xffffffffffffffffffffffffffffffffffffffff\n      and\n      dup2\n      mstore\n      0x20\n      add\n      swap1\n      dup2\n      mstore\n      0x20\n      add\n      0x00\n      keccak256\n        /* \"contracts/Voting02.sol\":8105:8146  participants[msg.sender].votingRight1from */\n      0x00\n      add\n      0x01\n      swap1\n      sload\n      swap1\n      0x0100\n      exp\n      swap1\n      div\n      0xffffffffffffffffffffffffffffffffffffffff\n      and\n        /* \"contracts/Voting02.sol\":8105:8158  participants[msg.sender].votingRight1from!=address(0) */\n      0xffffffffffffffffffffffffffffffffffffffff\n      and\n      eq\n      iszero\n        /* \"contracts/Voting02.sol\":8105:8215  participants[msg.sender].votingRight1from!=address(0) || participants[msg.sender].votingRight2from!=address(0) */\n      dup1\n      tag_302\n      jumpi\n      pop\n        /* \"contracts/Voting02.sol\":8213:8214  0 */\n      0x00\n        /* \"contracts/Voting02.sol\":8162:8215  participants[msg.sender].votingRight2from!=address(0) */\n      0xffffffffffffffffffffffffffffffffffffffff\n      and\n        /* \"contracts/Voting02.sol\":8162:8174  participants */\n      0x02\n        /* \"contracts/Voting02.sol\":8162:8186  participants[msg.sender] */\n      0x00\n        /* \"contracts/Voting02.sol\":8175:8185  msg.sender */\n      caller\n        /* \"contracts/Voting02.sol\":8162:8186  participants[msg.sender] */\n      0xffffffffffffffffffffffffffffffffffffffff\n      and\n      0xffffffffffffffffffffffffffffffffffffffff\n      and\n      dup2\n      mstore\n      0x20\n      add\n      swap1\n      dup2\n      mstore\n      0x20\n      add\n      0x00\n      keccak256\n        /* \"contracts/Voting02.sol\":8162:8203  participants[msg.sender].votingRight2from */\n      0x01\n      add\n      0x00\n      swap1\n      sload\n      swap1\n      0x0100\n      exp\n      swap1\n      div\n      0xffffffffffffffffffffffffffffffffffffffff\n      and\n        /* \"contracts/Voting02.sol\":8162:8215  participants[msg.sender].votingRight2from!=address(0) */\n      0xffffffffffffffffffffffffffffffffffffffff\n      and\n      eq\n      iszero\n        /* \"contracts/Voting02.sol\":8105:8215  participants[msg.sender].votingRight1from!=address(0) || participants[msg.sender].votingRight2from!=address(0) */\n    tag_302:\n        /* \"contracts/Voting02.sol\":8097:8258  require(participants[msg.sender].votingRight1from!=address(0) || participants[msg.sender].votingRight2from!=address(0), \"No active voting rights held by sender\") */\n      tag_303\n      jumpi\n      mload(0x40)\n      0x08c379a000000000000000000000000000000000000000000000000000000000\n      dup2\n      mstore\n      0x04\n      add\n      tag_304\n      swap1\n      tag_305\n      jump\t// in\n    tag_304:\n      mload(0x40)\n      dup1\n      swap2\n      sub\n      swap1\n      revert\n    tag_303:\n        /* \"contracts/Voting02.sol\":8328:8329  0 */\n      0x00\n        /* \"contracts/Voting02.sol\":8277:8330  participants[msg.sender].votingRight1from!=address(0) */\n      0xffffffffffffffffffffffffffffffffffffffff\n      and\n        /* \"contracts/Voting02.sol\":8277:8289  participants */\n      0x02\n        /* \"contracts/Voting02.sol\":8277:8301  participants[msg.sender] */\n      0x00\n        /* \"contracts/Voting02.sol\":8290:8300  msg.sender */\n      caller\n        /* \"contracts/Voting02.sol\":8277:8301  participants[msg.sender] */\n      0xffffffffffffffffffffffffffffffffffffffff\n      and\n      0xffffffffffffffffffffffffffffffffffffffff\n      and\n      dup2\n      mstore\n      0x20\n      add\n      swap1\n      dup2\n      mstore\n      0x20\n      add\n      0x00\n      keccak256\n        /* \"contracts/Voting02.sol\":8277:8318  participants[msg.sender].votingRight1from */\n      0x00\n      add\n      0x01\n      swap1\n      sload\n      swap1\n      0x0100\n      exp\n      swap1\n      div\n      0xffffffffffffffffffffffffffffffffffffffff\n      and\n        /* \"contracts/Voting02.sol\":8277:8330  participants[msg.sender].votingRight1from!=address(0) */\n      0xffffffffffffffffffffffffffffffffffffffff\n      and\n      eq\n      iszero\n        /* \"contracts/Voting02.sol\":8277:8423  participants[msg.sender].votingRight1from!=address(0) && notContainedInArray(motions[motionid_].voters, participants[msg.sender].votingRight1from) */\n      dup1\n      iszero\n      tag_306\n      jumpi\n      pop\n        /* \"contracts/Voting02.sol\":8334:8423  notContainedInArray(motions[motionid_].voters, participants[msg.sender].votingRight1from) */\n      tag_307\n        /* \"contracts/Voting02.sol\":8354:8361  motions */\n      0x04\n        /* \"contracts/Voting02.sol\":8362:8371  motionid_ */\n      dup4\n        /* \"contracts/Voting02.sol\":8354:8372  motions[motionid_] */\n      dup2\n      sload\n      dup2\n      lt\n      tag_308\n      jumpi\n      tag_309\n      tag_72\n      jump\t// in\n    tag_309:\n    tag_308:\n      swap1\n      0x00\n      mstore\n      keccak256(0x00, 0x20)\n      swap1\n      0x06\n      mul\n      add\n        /* \"contracts/Voting02.sol\":8354:8379  motions[motionid_].voters */\n      0x04\n      add\n        /* \"contracts/Voting02.sol\":8334:8423  notContainedInArray(motions[motionid_].voters, participants[msg.sender].votingRight1from) */\n      dup1\n      sload\n      dup1\n      0x20\n      mul\n      0x20\n      add\n      mload(0x40)\n      swap1\n      dup2\n      add\n      0x40\n      mstore\n      dup1\n      swap3\n      swap2\n      swap1\n      dup2\n      dup2\n      mstore\n      0x20\n      add\n      dup3\n      dup1\n      sload\n      dup1\n      iszero\n      tag_311\n      jumpi\n      0x20\n      mul\n      dup3\n      add\n      swap2\n      swap1\n      0x00\n      mstore\n      keccak256(0x00, 0x20)\n      swap1\n    tag_312:\n      dup2\n      0x00\n      swap1\n      sload\n      swap1\n      0x0100\n      exp\n      swap1\n      div\n      0xffffffffffffffffffffffffffffffffffffffff\n      and\n      0xffffffffffffffffffffffffffffffffffffffff\n      and\n      dup2\n      mstore\n      0x20\n      add\n      swap1\n      0x01\n      add\n      swap1\n      dup1\n      dup4\n      gt\n      tag_312\n      jumpi\n    tag_311:\n      pop\n      pop\n      pop\n      pop\n      pop\n        /* \"contracts/Voting02.sol\":8381:8393  participants */\n      0x02\n        /* \"contracts/Voting02.sol\":8381:8405  participants[msg.sender] */\n      0x00\n        /* \"contracts/Voting02.sol\":8394:8404  msg.sender */\n      caller\n        /* \"contracts/Voting02.sol\":8381:8405  participants[msg.sender] */\n      0xffffffffffffffffffffffffffffffffffffffff\n      and\n      0xffffffffffffffffffffffffffffffffffffffff\n      and\n      dup2\n      mstore\n      0x20\n      add\n      swap1\n      dup2\n      mstore\n      0x20\n      add\n      0x00\n      keccak256\n        /* \"contracts/Voting02.sol\":8381:8422  participants[msg.sender].votingRight1from */\n      0x00\n      add\n      0x01\n      swap1\n      sload\n      swap1\n      0x0100\n      exp\n      swap1\n      div\n      0xffffffffffffffffffffffffffffffffffffffff\n      and\n        /* \"contracts/Voting02.sol\":8334:8353  notContainedInArray */\n      tag_76\n        /* \"contracts/Voting02.sol\":8334:8423  notContainedInArray(motions[motionid_].voters, participants[msg.sender].votingRight1from) */\n      jump\t// in\n    tag_307:\n        /* \"contracts/Voting02.sol\":8277:8423  participants[msg.sender].votingRight1from!=address(0) && notContainedInArray(motions[motionid_].voters, participants[msg.sender].votingRight1from) */\n    tag_306:\n        /* \"contracts/Voting02.sol\":8277:8588  participants[msg.sender].votingRight1from!=address(0) && notContainedInArray(motions[motionid_].voters, participants[msg.sender].votingRight1from) ... */\n      dup1\n      tag_313\n      jumpi\n      pop\n        /* \"contracts/Voting02.sol\":8493:8494  0 */\n      0x00\n        /* \"contracts/Voting02.sol\":8442:8495  participants[msg.sender].votingRight2from!=address(0) */\n      0xffffffffffffffffffffffffffffffffffffffff\n      and\n        /* \"contracts/Voting02.sol\":8442:8454  participants */\n      0x02\n        /* \"contracts/Voting02.sol\":8442:8466  participants[msg.sender] */\n      0x00\n        /* \"contracts/Voting02.sol\":8455:8465  msg.sender */\n      caller\n        /* \"contracts/Voting02.sol\":8442:8466  participants[msg.sender] */\n      0xffffffffffffffffffffffffffffffffffffffff\n      and\n      0xffffffffffffffffffffffffffffffffffffffff\n      and\n      dup2\n      mstore\n      0x20\n      add\n      swap1\n      dup2\n      mstore\n      0x20\n      add\n      0x00\n      keccak256\n        /* \"contracts/Voting02.sol\":8442:8483  participants[msg.sender].votingRight2from */\n      0x01\n      add\n      0x00\n      swap1\n      sload\n      swap1\n      0x0100\n      exp\n      swap1\n      div\n      0xffffffffffffffffffffffffffffffffffffffff\n      and\n        /* \"contracts/Voting02.sol\":8442:8495  participants[msg.sender].votingRight2from!=address(0) */\n      0xffffffffffffffffffffffffffffffffffffffff\n      and\n      eq\n      iszero\n        /* \"contracts/Voting02.sol\":8442:8588  participants[msg.sender].votingRight2from!=address(0) && notContainedInArray(motions[motionid_].voters, participants[msg.sender].votingRight2from) */\n      dup1\n      iszero\n      tag_314\n      jumpi\n      pop\n        /* \"contracts/Voting02.sol\":8499:8588  notContainedInArray(motions[motionid_].voters, participants[msg.sender].votingRight2from) */\n      tag_315\n        /* \"contracts/Voting02.sol\":8519:8526  motions */\n      0x04\n        /* \"contracts/Voting02.sol\":8527:8536  motionid_ */\n      dup4\n        /* \"contracts/Voting02.sol\":8519:8537  motions[motionid_] */\n      dup2\n      sload\n      dup2\n      lt\n      tag_316\n      jumpi\n      tag_317\n      tag_72\n      jump\t// in\n    tag_317:\n    tag_316:\n      swap1\n      0x00\n      mstore\n      keccak256(0x00, 0x20)\n      swap1\n      0x06\n      mul\n      add\n        /* \"contracts/Voting02.sol\":8519:8544  motions[motionid_].voters */\n      0x04\n      add\n        /* \"contracts/Voting02.sol\":8499:8588  notContainedInArray(motions[motionid_].voters, participants[msg.sender].votingRight2from) */\n      dup1\n      sload\n      dup1\n      0x20\n      mul\n      0x20\n      add\n      mload(0x40)\n      swap1\n      dup2\n      add\n      0x40\n      mstore\n      dup1\n      swap3\n      swap2\n      swap1\n      dup2\n      dup2\n      mstore\n      0x20\n      add\n      dup3\n      dup1\n      sload\n      dup1\n      iszero\n      tag_319\n      jumpi\n      0x20\n      mul\n      dup3\n      add\n      swap2\n      swap1\n      0x00\n      mstore\n      keccak256(0x00, 0x20)\n      swap1\n    tag_320:\n      dup2\n      0x00\n      swap1\n      sload\n      swap1\n      0x0100\n      exp\n      swap1\n      div\n      0xffffffffffffffffffffffffffffffffffffffff\n      and\n      0xffffffffffffffffffffffffffffffffffffffff\n      and\n      dup2\n      mstore\n      0x20\n      add\n      swap1\n      0x01\n      add\n      swap1\n      dup1\n      dup4\n      gt\n      tag_320\n      jumpi\n    tag_319:\n      pop\n      pop\n      pop\n      pop\n      pop\n        /* \"contracts/Voting02.sol\":8546:8558  participants */\n      0x02\n        /* \"contracts/Voting02.sol\":8546:8570  participants[msg.sender] */\n      0x00\n        /* \"contracts/Voting02.sol\":8559:8569  msg.sender */\n      caller\n        /* \"contracts/Voting02.sol\":8546:8570  participants[msg.sender] */\n      0xffffffffffffffffffffffffffffffffffffffff\n      and\n      0xffffffffffffffffffffffffffffffffffffffff\n      and\n      dup2\n      mstore\n      0x20\n      add\n      swap1\n      dup2\n      mstore\n      0x20\n      add\n      0x00\n      keccak256\n        /* \"contracts/Voting02.sol\":8546:8587  participants[msg.sender].votingRight2from */\n      0x01\n      add\n      0x00\n      swap1\n      sload\n      swap1\n      0x0100\n      exp\n      swap1\n      div\n      0xffffffffffffffffffffffffffffffffffffffff\n      and\n        /* \"contracts/Voting02.sol\":8499:8518  notContainedInArray */\n      tag_76\n        /* \"contracts/Voting02.sol\":8499:8588  notContainedInArray(motions[motionid_].voters, participants[msg.sender].votingRight2from) */\n      jump\t// in\n    tag_315:\n        /* \"contracts/Voting02.sol\":8442:8588  participants[msg.sender].votingRight2from!=address(0) && notContainedInArray(motions[motionid_].voters, participants[msg.sender].votingRight2from) */\n    tag_314:\n        /* \"contracts/Voting02.sol\":8277:8588  participants[msg.sender].votingRight1from!=address(0) && notContainedInArray(motions[motionid_].voters, participants[msg.sender].votingRight1from) ... */\n    tag_313:\n        /* \"contracts/Voting02.sol\":8269:8618  require(participants[msg.sender].votingRight1from!=address(0) && notContainedInArray(motions[motionid_].voters, participants[msg.sender].votingRight1from) ... */\n      tag_321\n      jumpi\n      mload(0x40)\n      0x08c379a000000000000000000000000000000000000000000000000000000000\n      dup2\n      mstore\n      0x04\n      add\n      tag_322\n      swap1\n      tag_323\n      jump\t// in\n    tag_322:\n      mload(0x40)\n      dup1\n      swap2\n      sub\n      swap1\n      revert\n    tag_321:\n        /* \"contracts/Voting02.sol\":8685:8686  0 */\n      0x00\n        /* \"contracts/Voting02.sol\":8634:8687  participants[msg.sender].votingRight1from!=address(0) */\n      0xffffffffffffffffffffffffffffffffffffffff\n      and\n        /* \"contracts/Voting02.sol\":8634:8646  participants */\n      0x02\n        /* \"contracts/Voting02.sol\":8634:8658  participants[msg.sender] */\n      0x00\n        /* \"contracts/Voting02.sol\":8647:8657  msg.sender */\n      caller\n        /* \"contracts/Voting02.sol\":8634:8658  participants[msg.sender] */\n      0xffffffffffffffffffffffffffffffffffffffff\n      and\n      0xffffffffffffffffffffffffffffffffffffffff\n      and\n      dup2\n      mstore\n      0x20\n      add\n      swap1\n      dup2\n      mstore\n      0x20\n      add\n      0x00\n      keccak256\n        /* \"contracts/Voting02.sol\":8634:8675  participants[msg.sender].votingRight1from */\n      0x00\n      add\n      0x01\n      swap1\n      sload\n      swap1\n      0x0100\n      exp\n      swap1\n      div\n      0xffffffffffffffffffffffffffffffffffffffff\n      and\n        /* \"contracts/Voting02.sol\":8634:8687  participants[msg.sender].votingRight1from!=address(0) */\n      0xffffffffffffffffffffffffffffffffffffffff\n      and\n      eq\n      iszero\n        /* \"contracts/Voting02.sol\":8634:8780  participants[msg.sender].votingRight1from!=address(0) && notContainedInArray(motions[motionid_].voters, participants[msg.sender].votingRight1from) */\n      dup1\n      iszero\n      tag_324\n      jumpi\n      pop\n        /* \"contracts/Voting02.sol\":8691:8780  notContainedInArray(motions[motionid_].voters, participants[msg.sender].votingRight1from) */\n      tag_325\n        /* \"contracts/Voting02.sol\":8711:8718  motions */\n      0x04\n        /* \"contracts/Voting02.sol\":8719:8728  motionid_ */\n      dup4\n        /* \"contracts/Voting02.sol\":8711:8729  motions[motionid_] */\n      dup2\n      sload\n      dup2\n      lt\n      tag_326\n      jumpi\n      tag_327\n      tag_72\n      jump\t// in\n    tag_327:\n    tag_326:\n      swap1\n      0x00\n      mstore\n      keccak256(0x00, 0x20)\n      swap1\n      0x06\n      mul\n      add\n        /* \"contracts/Voting02.sol\":8711:8736  motions[motionid_].voters */\n      0x04\n      add\n        /* \"contracts/Voting02.sol\":8691:8780  notContainedInArray(motions[motionid_].voters, participants[msg.sender].votingRight1from) */\n      dup1\n      sload\n      dup1\n      0x20\n      mul\n      0x20\n      add\n      mload(0x40)\n      swap1\n      dup2\n      add\n      0x40\n      mstore\n      dup1\n      swap3\n      swap2\n      swap1\n      dup2\n      dup2\n      mstore\n      0x20\n      add\n      dup3\n      dup1\n      sload\n      dup1\n      iszero\n      tag_329\n      jumpi\n      0x20\n      mul\n      dup3\n      add\n      swap2\n      swap1\n      0x00\n      mstore\n      keccak256(0x00, 0x20)\n      swap1\n    tag_330:\n      dup2\n      0x00\n      swap1\n      sload\n      swap1\n      0x0100\n      exp\n      swap1\n      div\n      0xffffffffffffffffffffffffffffffffffffffff\n      and\n      0xffffffffffffffffffffffffffffffffffffffff\n      and\n      dup2\n      mstore\n      0x20\n      add\n      swap1\n      0x01\n      add\n      swap1\n      dup1\n      dup4\n      gt\n      tag_330\n      jumpi\n    tag_329:\n      pop\n      pop\n      pop\n      pop\n      pop\n        /* \"contracts/Voting02.sol\":8738:8750  participants */\n      0x02\n        /* \"contracts/Voting02.sol\":8738:8762  participants[msg.sender] */\n      0x00\n        /* \"contracts/Voting02.sol\":8751:8761  msg.sender */\n      caller\n        /* \"contracts/Voting02.sol\":8738:8762  participants[msg.sender] */\n      0xffffffffffffffffffffffffffffffffffffffff\n      and\n      0xffffffffffffffffffffffffffffffffffffffff\n      and\n      dup2\n      mstore\n      0x20\n      add\n      swap1\n      dup2\n      mstore\n      0x20\n      add\n      0x00\n      keccak256\n        /* \"contracts/Voting02.sol\":8738:8779  participants[msg.sender].votingRight1from */\n      0x00\n      add\n      0x01\n      swap1\n      sload\n      swap1\n      0x0100\n      exp\n      swap1\n      div\n      0xffffffffffffffffffffffffffffffffffffffff\n      and\n        /* \"contracts/Voting02.sol\":8691:8710  notContainedInArray */\n      tag_76\n        /* \"contracts/Voting02.sol\":8691:8780  notContainedInArray(motions[motionid_].voters, participants[msg.sender].votingRight1from) */\n      jump\t// in\n    tag_325:\n        /* \"contracts/Voting02.sol\":8634:8780  participants[msg.sender].votingRight1from!=address(0) && notContainedInArray(motions[motionid_].voters, participants[msg.sender].votingRight1from) */\n    tag_324:\n        /* \"contracts/Voting02.sol\":8631:8945  if(participants[msg.sender].votingRight1from!=address(0) && notContainedInArray(motions[motionid_].voters, participants[msg.sender].votingRight1from)){... */\n      iszero\n      tag_331\n      jumpi\n        /* \"contracts/Voting02.sol\":8796:8803  motions */\n      0x04\n        /* \"contracts/Voting02.sol\":8804:8813  motionid_ */\n      dup3\n        /* \"contracts/Voting02.sol\":8796:8814  motions[motionid_] */\n      dup2\n      sload\n      dup2\n      lt\n      tag_332\n      jumpi\n      tag_333\n      tag_72\n      jump\t// in\n    tag_333:\n    tag_332:\n      swap1\n      0x00\n      mstore\n      keccak256(0x00, 0x20)\n      swap1\n      0x06\n      mul\n      add\n        /* \"contracts/Voting02.sol\":8796:8821  motions[motionid_].voters */\n      0x04\n      add\n        /* \"contracts/Voting02.sol\":8827:8839  participants */\n      0x02\n        /* \"contracts/Voting02.sol\":8827:8851  participants[msg.sender] */\n      0x00\n        /* \"contracts/Voting02.sol\":8840:8850  msg.sender */\n      caller\n        /* \"contracts/Voting02.sol\":8827:8851  participants[msg.sender] */\n      0xffffffffffffffffffffffffffffffffffffffff\n      and\n      0xffffffffffffffffffffffffffffffffffffffff\n      and\n      dup2\n      mstore\n      0x20\n      add\n      swap1\n      dup2\n      mstore\n      0x20\n      add\n      0x00\n      keccak256\n        /* \"contracts/Voting02.sol\":8827:8868  participants[msg.sender].votingRight1from */\n      0x00\n      add\n      0x01\n      swap1\n      sload\n      swap1\n      0x0100\n      exp\n      swap1\n      div\n      0xffffffffffffffffffffffffffffffffffffffff\n      and\n        /* \"contracts/Voting02.sol\":8796:8869  motions[motionid_].voters.push(participants[msg.sender].votingRight1from) */\n      swap1\n      dup1\n      0x01\n      dup2\n      sload\n      add\n      dup1\n      dup3\n      sstore\n      dup1\n      swap2\n      pop\n      pop\n      0x01\n      swap1\n      sub\n      swap1\n      0x00\n      mstore\n      keccak256(0x00, 0x20)\n      add\n      0x00\n      swap1\n      swap2\n      swap1\n      swap2\n      swap1\n      swap2\n      0x0100\n      exp\n      dup2\n      sload\n      dup2\n      0xffffffffffffffffffffffffffffffffffffffff\n      mul\n      not\n      and\n      swap1\n      dup4\n      0xffffffffffffffffffffffffffffffffffffffff\n      and\n      mul\n      or\n      swap1\n      sstore\n      pop\n        /* \"contracts/Voting02.sol\":8884:8891  motions */\n      0x04\n        /* \"contracts/Voting02.sol\":8892:8901  motionid_ */\n      dup3\n        /* \"contracts/Voting02.sol\":8884:8902  motions[motionid_] */\n      dup2\n      sload\n      dup2\n      lt\n      tag_336\n      jumpi\n      tag_337\n      tag_72\n      jump\t// in\n    tag_337:\n    tag_336:\n      swap1\n      0x00\n      mstore\n      keccak256(0x00, 0x20)\n      swap1\n      0x06\n      mul\n      add\n        /* \"contracts/Voting02.sol\":8884:8910  motions[motionid_].options */\n      0x03\n      add\n        /* \"contracts/Voting02.sol\":8911:8920  optionid_ */\n      dup2\n        /* \"contracts/Voting02.sol\":8884:8921  motions[motionid_].options[optionid_] */\n      dup2\n      sload\n      dup2\n      lt\n      tag_339\n      jumpi\n      tag_340\n      tag_72\n      jump\t// in\n    tag_340:\n    tag_339:\n      swap1\n      0x00\n      mstore\n      keccak256(0x00, 0x20)\n      swap1\n      0x02\n      mul\n      add\n        /* \"contracts/Voting02.sol\":8884:8931  motions[motionid_].options[optionid_].voteCount */\n      0x01\n      add\n      0x00\n        /* \"contracts/Voting02.sol\":8884:8933  motions[motionid_].options[optionid_].voteCount++ */\n      dup2\n      sload\n      dup1\n      swap3\n      swap2\n      swap1\n      tag_342\n      swap1\n      tag_132\n      jump\t// in\n    tag_342:\n      swap2\n      swap1\n      pop\n      sstore\n      pop\n        /* \"contracts/Voting02.sol\":8631:8945  if(participants[msg.sender].votingRight1from!=address(0) && notContainedInArray(motions[motionid_].voters, participants[msg.sender].votingRight1from)){... */\n    tag_331:\n        /* \"contracts/Voting02.sol\":9011:9012  0 */\n      0x00\n        /* \"contracts/Voting02.sol\":8960:9013  participants[msg.sender].votingRight2from!=address(0) */\n      0xffffffffffffffffffffffffffffffffffffffff\n      and\n        /* \"contracts/Voting02.sol\":8960:8972  participants */\n      0x02\n        /* \"contracts/Voting02.sol\":8960:8984  participants[msg.sender] */\n      0x00\n        /* \"contracts/Voting02.sol\":8973:8983  msg.sender */\n      caller\n        /* \"contracts/Voting02.sol\":8960:8984  participants[msg.sender] */\n      0xffffffffffffffffffffffffffffffffffffffff\n      and\n      0xffffffffffffffffffffffffffffffffffffffff\n      and\n      dup2\n      mstore\n      0x20\n      add\n      swap1\n      dup2\n      mstore\n      0x20\n      add\n      0x00\n      keccak256\n        /* \"contracts/Voting02.sol\":8960:9001  participants[msg.sender].votingRight2from */\n      0x01\n      add\n      0x00\n      swap1\n      sload\n      swap1\n      0x0100\n      exp\n      swap1\n      div\n      0xffffffffffffffffffffffffffffffffffffffff\n      and\n        /* \"contracts/Voting02.sol\":8960:9013  participants[msg.sender].votingRight2from!=address(0) */\n      0xffffffffffffffffffffffffffffffffffffffff\n      and\n      eq\n      iszero\n        /* \"contracts/Voting02.sol\":8960:9106  participants[msg.sender].votingRight2from!=address(0) && notContainedInArray(motions[motionid_].voters, participants[msg.sender].votingRight2from) */\n      dup1\n      iszero\n      tag_343\n      jumpi\n      pop\n        /* \"contracts/Voting02.sol\":9017:9106  notContainedInArray(motions[motionid_].voters, participants[msg.sender].votingRight2from) */\n      tag_344\n        /* \"contracts/Voting02.sol\":9037:9044  motions */\n      0x04\n        /* \"contracts/Voting02.sol\":9045:9054  motionid_ */\n      dup4\n        /* \"contracts/Voting02.sol\":9037:9055  motions[motionid_] */\n      dup2\n      sload\n      dup2\n      lt\n      tag_345\n      jumpi\n      tag_346\n      tag_72\n      jump\t// in\n    tag_346:\n    tag_345:\n      swap1\n      0x00\n      mstore\n      keccak256(0x00, 0x20)\n      swap1\n      0x06\n      mul\n      add\n        /* \"contracts/Voting02.sol\":9037:9062  motions[motionid_].voters */\n      0x04\n      add\n        /* \"contracts/Voting02.sol\":9017:9106  notContainedInArray(motions[motionid_].voters, participants[msg.sender].votingRight2from) */\n      dup1\n      sload\n      dup1\n      0x20\n      mul\n      0x20\n      add\n      mload(0x40)\n      swap1\n      dup2\n      add\n      0x40\n      mstore\n      dup1\n      swap3\n      swap2\n      swap1\n      dup2\n      dup2\n      mstore\n      0x20\n      add\n      dup3\n      dup1\n      sload\n      dup1\n      iszero\n      tag_348\n      jumpi\n      0x20\n      mul\n      dup3\n      add\n      swap2\n      swap1\n      0x00\n      mstore\n      keccak256(0x00, 0x20)\n      swap1\n    tag_349:\n      dup2\n      0x00\n      swap1\n      sload\n      swap1\n      0x0100\n      exp\n      swap1\n      div\n      0xffffffffffffffffffffffffffffffffffffffff\n      and\n      0xffffffffffffffffffffffffffffffffffffffff\n      and\n      dup2\n      mstore\n      0x20\n      add\n      swap1\n      0x01\n      add\n      swap1\n      dup1\n      dup4\n      gt\n      tag_349\n      jumpi\n    tag_348:\n      pop\n      pop\n      pop\n      pop\n      pop\n        /* \"contracts/Voting02.sol\":9064:9076  participants */\n      0x02\n        /* \"contracts/Voting02.sol\":9064:9088  participants[msg.sender] */\n      0x00\n        /* \"contracts/Voting02.sol\":9077:9087  msg.sender */\n      caller\n        /* \"contracts/Voting02.sol\":9064:9088  participants[msg.sender] */\n      0xffffffffffffffffffffffffffffffffffffffff\n      and\n      0xffffffffffffffffffffffffffffffffffffffff\n      and\n      dup2\n      mstore\n      0x20\n      add\n      swap1\n      dup2\n      mstore\n      0x20\n      add\n      0x00\n      keccak256\n        /* \"contracts/Voting02.sol\":9064:9105  participants[msg.sender].votingRight2from */\n      0x01\n      add\n      0x00\n      swap1\n      sload\n      swap1\n      0x0100\n      exp\n      swap1\n      div\n      0xffffffffffffffffffffffffffffffffffffffff\n      and\n        /* \"contracts/Voting02.sol\":9017:9036  notContainedInArray */\n      tag_76\n        /* \"contracts/Voting02.sol\":9017:9106  notContainedInArray(motions[motionid_].voters, participants[msg.sender].votingRight2from) */\n      jump\t// in\n    tag_344:\n        /* \"contracts/Voting02.sol\":8960:9106  participants[msg.sender].votingRight2from!=address(0) && notContainedInArray(motions[motionid_].voters, participants[msg.sender].votingRight2from) */\n    tag_343:\n        /* \"contracts/Voting02.sol\":8957:9271  if(participants[msg.sender].votingRight2from!=address(0) && notContainedInArray(motions[motionid_].voters, participants[msg.sender].votingRight2from)){... */\n      iszero\n      tag_350\n      jumpi\n        /* \"contracts/Voting02.sol\":9122:9129  motions */\n      0x04\n        /* \"contracts/Voting02.sol\":9130:9139  motionid_ */\n      dup3\n        /* \"contracts/Voting02.sol\":9122:9140  motions[motionid_] */\n      dup2\n      sload\n      dup2\n      lt\n      tag_351\n      jumpi\n      tag_352\n      tag_72\n      jump\t// in\n    tag_352:\n    tag_351:\n      swap1\n      0x00\n      mstore\n      keccak256(0x00, 0x20)\n      swap1\n      0x06\n      mul\n      add\n        /* \"contracts/Voting02.sol\":9122:9147  motions[motionid_].voters */\n      0x04\n      add\n        /* \"contracts/Voting02.sol\":9153:9165  participants */\n      0x02\n        /* \"contracts/Voting02.sol\":9153:9177  participants[msg.sender] */\n      0x00\n        /* \"contracts/Voting02.sol\":9166:9176  msg.sender */\n      caller\n        /* \"contracts/Voting02.sol\":9153:9177  participants[msg.sender] */\n      0xffffffffffffffffffffffffffffffffffffffff\n      and\n      0xffffffffffffffffffffffffffffffffffffffff\n      and\n      dup2\n      mstore\n      0x20\n      add\n      swap1\n      dup2\n      mstore\n      0x20\n      add\n      0x00\n      keccak256\n        /* \"contracts/Voting02.sol\":9153:9194  participants[msg.sender].votingRight2from */\n      0x01\n      add\n      0x00\n      swap1\n      sload\n      swap1\n      0x0100\n      exp\n      swap1\n      div\n      0xffffffffffffffffffffffffffffffffffffffff\n      and\n        /* \"contracts/Voting02.sol\":9122:9195  motions[motionid_].voters.push(participants[msg.sender].votingRight2from) */\n      swap1\n      dup1\n      0x01\n      dup2\n      sload\n      add\n      dup1\n      dup3\n      sstore\n      dup1\n      swap2\n      pop\n      pop\n      0x01\n      swap1\n      sub\n      swap1\n      0x00\n      mstore\n      keccak256(0x00, 0x20)\n      add\n      0x00\n      swap1\n      swap2\n      swap1\n      swap2\n      swap1\n      swap2\n      0x0100\n      exp\n      dup2\n      sload\n      dup2\n      0xffffffffffffffffffffffffffffffffffffffff\n      mul\n      not\n      and\n      swap1\n      dup4\n      0xffffffffffffffffffffffffffffffffffffffff\n      and\n      mul\n      or\n      swap1\n      sstore\n      pop\n        /* \"contracts/Voting02.sol\":9210:9217  motions */\n      0x04\n        /* \"contracts/Voting02.sol\":9218:9227  motionid_ */\n      dup3\n        /* \"contracts/Voting02.sol\":9210:9228  motions[motionid_] */\n      dup2\n      sload\n      dup2\n      lt\n      tag_355\n      jumpi\n      tag_356\n      tag_72\n      jump\t// in\n    tag_356:\n    tag_355:\n      swap1\n      0x00\n      mstore\n      keccak256(0x00, 0x20)\n      swap1\n      0x06\n      mul\n      add\n        /* \"contracts/Voting02.sol\":9210:9236  motions[motionid_].options */\n      0x03\n      add\n        /* \"contracts/Voting02.sol\":9237:9246  optionid_ */\n      dup2\n        /* \"contracts/Voting02.sol\":9210:9247  motions[motionid_].options[optionid_] */\n      dup2\n      sload\n      dup2\n      lt\n      tag_358\n      jumpi\n      tag_359\n      tag_72\n      jump\t// in\n    tag_359:\n    tag_358:\n      swap1\n      0x00\n      mstore\n      keccak256(0x00, 0x20)\n      swap1\n      0x02\n      mul\n      add\n        /* \"contracts/Voting02.sol\":9210:9257  motions[motionid_].options[optionid_].voteCount */\n      0x01\n      add\n      0x00\n        /* \"contracts/Voting02.sol\":9210:9259  motions[motionid_].options[optionid_].voteCount++ */\n      dup2\n      sload\n      dup1\n      swap3\n      swap2\n      swap1\n      tag_361\n      swap1\n      tag_132\n      jump\t// in\n    tag_361:\n      swap2\n      swap1\n      pop\n      sstore\n      pop\n        /* \"contracts/Voting02.sol\":8957:9271  if(participants[msg.sender].votingRight2from!=address(0) && notContainedInArray(motions[motionid_].voters, participants[msg.sender].votingRight2from)){... */\n    tag_350:\n        /* \"contracts/Voting02.sol\":9322:9341  votingRightsCounter */\n      sload(0x01)\n        /* \"contracts/Voting02.sol\":9286:9293  motions */\n      0x04\n        /* \"contracts/Voting02.sol\":9294:9303  motionid_ */\n      dup4\n        /* \"contracts/Voting02.sol\":9286:9304  motions[motionid_] */\n      dup2\n      sload\n      dup2\n      lt\n      tag_362\n      jumpi\n      tag_363\n      tag_72\n      jump\t// in\n    tag_363:\n    tag_362:\n      swap1\n      0x00\n      mstore\n      keccak256(0x00, 0x20)\n      swap1\n      0x06\n      mul\n      add\n        /* \"contracts/Voting02.sol\":9286:9311  motions[motionid_].voters */\n      0x04\n      add\n        /* \"contracts/Voting02.sol\":9286:9318  motions[motionid_].voters.length */\n      dup1\n      sload\n      swap1\n      pop\n        /* \"contracts/Voting02.sol\":9286:9341  motions[motionid_].voters.length >= votingRightsCounter */\n      lt\n        /* \"contracts/Voting02.sol\":9283:9436  if(motions[motionid_].voters.length >= votingRightsCounter){ // everyone has voted... */\n      tag_365\n      jumpi\n        /* \"contracts/Voting02.sol\":9405:9424  MotionStatus.CLOSED */\n      0x02\n        /* \"contracts/Voting02.sol\":9379:9386  motions */\n      0x04\n        /* \"contracts/Voting02.sol\":9387:9396  motionid_ */\n      dup4\n        /* \"contracts/Voting02.sol\":9379:9397  motions[motionid_] */\n      dup2\n      sload\n      dup2\n      lt\n      tag_366\n      jumpi\n      tag_367\n      tag_72\n      jump\t// in\n    tag_367:\n    tag_366:\n      swap1\n      0x00\n      mstore\n      keccak256(0x00, 0x20)\n      swap1\n      0x06\n      mul\n      add\n        /* \"contracts/Voting02.sol\":9379:9404  motions[motionid_].status */\n      0x02\n      add\n      0x01\n        /* \"contracts/Voting02.sol\":9379:9424  motions[motionid_].status=MotionStatus.CLOSED */\n      0x0100\n      exp\n      dup2\n      sload\n      dup2\n      0xff\n      mul\n      not\n      and\n      swap1\n      dup4\n      0x02\n      dup2\n      gt\n      iszero\n      tag_369\n      jumpi\n      tag_370\n      tag_63\n      jump\t// in\n    tag_370:\n    tag_369:\n      mul\n      or\n      swap1\n      sstore\n      pop\n        /* \"contracts/Voting02.sol\":9283:9436  if(motions[motionid_].voters.length >= votingRightsCounter){ // everyone has voted... */\n    tag_365:\n        /* \"contracts/Voting02.sol\":7792:9445  function voteForMotion(uint motionid_, uint optionid_) public{... */\n      pop\n      pop\n      jump\t// out\n        /* \"contracts/Voting02.sol\":1561:1596  uint public votingRightsCounter = 0 */\n    tag_58:\n      sload(0x01)\n      dup2\n      jump\t// out\n        /* \"contracts/Voting02.sol\":4091:4350  function notContainedInArray(address[] memory arr_, address el_) pure internal returns (bool){... */\n    tag_76:\n        /* \"contracts/Voting02.sol\":4179:4183  bool */\n      0x00\n        /* \"contracts/Voting02.sol\":4200:4206  uint i */\n      dup1\n        /* \"contracts/Voting02.sol\":4207:4208  0 */\n      0x00\n        /* \"contracts/Voting02.sol\":4200:4208  uint i=0 */\n      swap1\n      pop\n        /* \"contracts/Voting02.sol\":4195:4321  for (uint i=0; i<arr_.length;i++ ){... */\n    tag_372:\n        /* \"contracts/Voting02.sol\":4212:4216  arr_ */\n      dup4\n        /* \"contracts/Voting02.sol\":4212:4223  arr_.length */\n      mload\n        /* \"contracts/Voting02.sol\":4210:4211  i */\n      dup2\n        /* \"contracts/Voting02.sol\":4210:4223  i<arr_.length */\n      lt\n        /* \"contracts/Voting02.sol\":4195:4321  for (uint i=0; i<arr_.length;i++ ){... */\n      iszero\n      tag_373\n      jumpi\n        /* \"contracts/Voting02.sol\":4259:4262  el_ */\n      dup3\n        /* \"contracts/Voting02.sol\":4248:4262  arr_[i] == el_ */\n      0xffffffffffffffffffffffffffffffffffffffff\n      and\n        /* \"contracts/Voting02.sol\":4248:4252  arr_ */\n      dup5\n        /* \"contracts/Voting02.sol\":4253:4254  i */\n      dup3\n        /* \"contracts/Voting02.sol\":4248:4255  arr_[i] */\n      dup2\n      mload\n      dup2\n      lt\n      tag_375\n      jumpi\n      tag_376\n      tag_72\n      jump\t// in\n    tag_376:\n    tag_375:\n      0x20\n      mul\n      0x20\n      add\n      add\n      mload\n        /* \"contracts/Voting02.sol\":4248:4262  arr_[i] == el_ */\n      0xffffffffffffffffffffffffffffffffffffffff\n      and\n      sub\n        /* \"contracts/Voting02.sol\":4244:4310  if (arr_[i] == el_){... */\n      tag_377\n      jumpi\n        /* \"contracts/Voting02.sol\":4289:4294  false */\n      0x00\n        /* \"contracts/Voting02.sol\":4282:4294  return false */\n      swap2\n      pop\n      pop\n      jump(tag_371)\n        /* \"contracts/Voting02.sol\":4244:4310  if (arr_[i] == el_){... */\n    tag_377:\n        /* \"contracts/Voting02.sol\":4224:4227  i++ */\n      dup1\n      dup1\n      tag_378\n      swap1\n      tag_132\n      jump\t// in\n    tag_378:\n      swap2\n      pop\n      pop\n        /* \"contracts/Voting02.sol\":4195:4321  for (uint i=0; i<arr_.length;i++ ){... */\n      jump(tag_372)\n    tag_373:\n      pop\n        /* \"contracts/Voting02.sol\":4338:4342  true */\n      0x01\n        /* \"contracts/Voting02.sol\":4331:4342  return true */\n      swap1\n      pop\n        /* \"contracts/Voting02.sol\":4091:4350  function notContainedInArray(address[] memory arr_, address el_) pure internal returns (bool){... */\n    tag_371:\n      swap3\n      swap2\n      pop\n      pop\n      jump\t// out\n        /* \"contracts/Voting02.sol\":4824:5254  function enoughSupporters(uint id_) view internal returns (bool){... */\n    tag_85:\n        /* \"contracts/Voting02.sol\":4883:4887  bool */\n      0x00\n        /* \"contracts/Voting02.sol\":4899:4914  uint  delegates */\n      dup1\n        /* \"contracts/Voting02.sol\":4917:4918  0 */\n      0x00\n        /* \"contracts/Voting02.sol\":4899:4918  uint  delegates = 0 */\n      swap1\n      pop\n        /* \"contracts/Voting02.sol\":4929:4942  uint  members */\n      0x00\n        /* \"contracts/Voting02.sol\":4964:4970  uint i */\n      dup1\n        /* \"contracts/Voting02.sol\":4959:5198  for (uint i=0; i<motions[id_].initialSupporters.length;i++ ){... */\n    tag_380:\n        /* \"contracts/Voting02.sol\":4976:4983  motions */\n      0x04\n        /* \"contracts/Voting02.sol\":4984:4987  id_ */\n      dup6\n        /* \"contracts/Voting02.sol\":4976:4988  motions[id_] */\n      dup2\n      sload\n      dup2\n      lt\n      tag_383\n      jumpi\n      tag_384\n      tag_72\n      jump\t// in\n    tag_384:\n    tag_383:\n      swap1\n      0x00\n      mstore\n      keccak256(0x00, 0x20)\n      swap1\n      0x06\n      mul\n      add\n        /* \"contracts/Voting02.sol\":4976:5006  motions[id_].initialSupporters */\n      0x05\n      add\n        /* \"contracts/Voting02.sol\":4976:5013  motions[id_].initialSupporters.length */\n      dup1\n      sload\n      swap1\n      pop\n        /* \"contracts/Voting02.sol\":4974:4975  i */\n      dup2\n        /* \"contracts/Voting02.sol\":4974:5013  i<motions[id_].initialSupporters.length */\n      lt\n        /* \"contracts/Voting02.sol\":4959:5198  for (uint i=0; i<motions[id_].initialSupporters.length;i++ ){... */\n      iszero\n      tag_381\n      jumpi\n        /* \"contracts/Voting02.sol\":5094:5117  ConventionRole.DELEGATE */\n      0x03\n        /* \"contracts/Voting02.sol\":5038:5117  participants[motions[id_].initialSupporters[i]].role >= ConventionRole.DELEGATE */\n      0x04\n      dup2\n      gt\n      iszero\n      tag_386\n      jumpi\n      tag_387\n      tag_63\n      jump\t// in\n    tag_387:\n    tag_386:\n        /* \"contracts/Voting02.sol\":5038:5050  participants */\n      0x02\n        /* \"contracts/Voting02.sol\":5038:5085  participants[motions[id_].initialSupporters[i]] */\n      0x00\n        /* \"contracts/Voting02.sol\":5051:5058  motions */\n      0x04\n        /* \"contracts/Voting02.sol\":5059:5062  id_ */\n      dup9\n        /* \"contracts/Voting02.sol\":5051:5063  motions[id_] */\n      dup2\n      sload\n      dup2\n      lt\n      tag_388\n      jumpi\n      tag_389\n      tag_72\n      jump\t// in\n    tag_389:\n    tag_388:\n      swap1\n      0x00\n      mstore\n      keccak256(0x00, 0x20)\n      swap1\n      0x06\n      mul\n      add\n        /* \"contracts/Voting02.sol\":5051:5081  motions[id_].initialSupporters */\n      0x05\n      add\n        /* \"contracts/Voting02.sol\":5082:5083  i */\n      dup5\n        /* \"contracts/Voting02.sol\":5051:5084  motions[id_].initialSupporters[i] */\n      dup2\n      sload\n      dup2\n      lt\n      tag_391\n      jumpi\n      tag_392\n      tag_72\n      jump\t// in\n    tag_392:\n    tag_391:\n      swap1\n      0x00\n      mstore\n      keccak256(0x00, 0x20)\n      add\n      0x00\n      swap1\n      sload\n      swap1\n      0x0100\n      exp\n      swap1\n      div\n      0xffffffffffffffffffffffffffffffffffffffff\n      and\n        /* \"contracts/Voting02.sol\":5038:5085  participants[motions[id_].initialSupporters[i]] */\n      0xffffffffffffffffffffffffffffffffffffffff\n      and\n      0xffffffffffffffffffffffffffffffffffffffff\n      and\n      dup2\n      mstore\n      0x20\n      add\n      swap1\n      dup2\n      mstore\n      0x20\n      add\n      0x00\n      keccak256\n        /* \"contracts/Voting02.sol\":5038:5090  participants[motions[id_].initialSupporters[i]].role */\n      0x00\n      add\n      0x00\n      swap1\n      sload\n      swap1\n      0x0100\n      exp\n      swap1\n      div\n      0xff\n      and\n        /* \"contracts/Voting02.sol\":5038:5117  participants[motions[id_].initialSupporters[i]].role >= ConventionRole.DELEGATE */\n      0x04\n      dup2\n      gt\n      iszero\n      tag_394\n      jumpi\n      tag_395\n      tag_63\n      jump\t// in\n    tag_395:\n    tag_394:\n      lt\n        /* \"contracts/Voting02.sol\":5034:5163  if (participants[motions[id_].initialSupporters[i]].role >= ConventionRole.DELEGATE){... */\n      tag_396\n      jumpi\n        /* \"contracts/Voting02.sol\":5136:5147  delegates++ */\n      dup3\n      dup1\n      tag_397\n      swap1\n      tag_132\n      jump\t// in\n    tag_397:\n      swap4\n      pop\n      pop\n        /* \"contracts/Voting02.sol\":5034:5163  if (participants[motions[id_].initialSupporters[i]].role >= ConventionRole.DELEGATE){... */\n    tag_396:\n        /* \"contracts/Voting02.sol\":5177:5186  members++ */\n      dup2\n      dup1\n      tag_398\n      swap1\n      tag_132\n      jump\t// in\n    tag_398:\n      swap3\n      pop\n      pop\n        /* \"contracts/Voting02.sol\":5014:5017  i++ */\n      dup1\n      dup1\n      tag_399\n      swap1\n      tag_132\n      jump\t// in\n    tag_399:\n      swap2\n      pop\n      pop\n        /* \"contracts/Voting02.sol\":4959:5198  for (uint i=0; i<motions[id_].initialSupporters.length;i++ ){... */\n      jump(tag_380)\n    tag_381:\n      pop\n        /* \"contracts/Voting02.sol\":5226:5228  10 */\n      0x0a\n        /* \"contracts/Voting02.sol\":5215:5224  delegates */\n      dup3\n        /* \"contracts/Voting02.sol\":5215:5228  delegates>=10 */\n      lt\n      iszero\n        /* \"contracts/Voting02.sol\":5215:5244  delegates>=10 || members >=30 */\n      dup1\n      tag_400\n      jumpi\n      pop\n        /* \"contracts/Voting02.sol\":5242:5244  30 */\n      0x1e\n        /* \"contracts/Voting02.sol\":5232:5239  members */\n      dup2\n        /* \"contracts/Voting02.sol\":5232:5244  members >=30 */\n      lt\n      iszero\n        /* \"contracts/Voting02.sol\":5215:5244  delegates>=10 || members >=30 */\n    tag_400:\n        /* \"contracts/Voting02.sol\":5208:5244  return delegates>=10 || members >=30 */\n      swap3\n      pop\n      pop\n      pop\n        /* \"contracts/Voting02.sol\":4824:5254  function enoughSupporters(uint id_) view internal returns (bool){... */\n      swap2\n      swap1\n      pop\n      jump\t// out\n        /* \"@openzeppelin/contracts/utils/Strings.sol\":415:1111  function toString(uint256 value) internal pure returns (string memory) {... */\n    tag_116:\n        /* \"@openzeppelin/contracts/utils/Strings.sol\":471:484  string memory */\n      0x60\n        /* \"@openzeppelin/contracts/utils/Strings.sol\":520:534  uint256 length */\n      0x00\n        /* \"@openzeppelin/contracts/utils/Strings.sol\":557:558  1 */\n      0x01\n        /* \"@openzeppelin/contracts/utils/Strings.sol\":537:554  Math.log10(value) */\n      tag_402\n        /* \"@openzeppelin/contracts/utils/Strings.sol\":548:553  value */\n      dup5\n        /* \"@openzeppelin/contracts/utils/Strings.sol\":537:547  Math.log10 */\n      tag_403\n        /* \"@openzeppelin/contracts/utils/Strings.sol\":537:554  Math.log10(value) */\n      jump\t// in\n    tag_402:\n        /* \"@openzeppelin/contracts/utils/Strings.sol\":537:558  Math.log10(value) + 1 */\n      add\n        /* \"@openzeppelin/contracts/utils/Strings.sol\":520:558  uint256 length = Math.log10(value) + 1 */\n      swap1\n      pop\n        /* \"@openzeppelin/contracts/utils/Strings.sol\":572:592  string memory buffer */\n      0x00\n        /* \"@openzeppelin/contracts/utils/Strings.sol\":606:612  length */\n      dup2\n        /* \"@openzeppelin/contracts/utils/Strings.sol\":595:613  new string(length) */\n      0xffffffffffffffff\n      dup2\n      gt\n      iszero\n      tag_404\n      jumpi\n      tag_405\n      tag_406\n      jump\t// in\n    tag_405:\n    tag_404:\n      mload(0x40)\n      swap1\n      dup1\n      dup3\n      mstore\n      dup1\n      0x1f\n      add\n      not(0x1f)\n      and\n      0x20\n      add\n      dup3\n      add\n      0x40\n      mstore\n      dup1\n      iszero\n      tag_407\n      jumpi\n      dup2\n      0x20\n      add\n      0x01\n      dup3\n      mul\n      dup1\n      calldatasize\n      dup4\n      calldatacopy\n      dup1\n      dup3\n      add\n      swap2\n      pop\n      pop\n      swap1\n      pop\n    tag_407:\n      pop\n        /* \"@openzeppelin/contracts/utils/Strings.sol\":572:613  string memory buffer = new string(length) */\n      swap1\n      pop\n        /* \"@openzeppelin/contracts/utils/Strings.sol\":627:638  uint256 ptr */\n      0x00\n        /* \"@openzeppelin/contracts/utils/Strings.sol\":753:759  length */\n      dup3\n        /* \"@openzeppelin/contracts/utils/Strings.sol\":749:751  32 */\n      0x20\n        /* \"@openzeppelin/contracts/utils/Strings.sol\":745:760  add(32, length) */\n      add\n        /* \"@openzeppelin/contracts/utils/Strings.sol\":737:743  buffer */\n      dup3\n        /* \"@openzeppelin/contracts/utils/Strings.sol\":733:761  add(buffer, add(32, length)) */\n      add\n        /* \"@openzeppelin/contracts/utils/Strings.sol\":726:761  ptr := add(buffer, add(32, length)) */\n      swap1\n      pop\n        /* \"@openzeppelin/contracts/utils/Strings.sol\":788:1068  while (true) {... */\n    tag_408:\n        /* \"@openzeppelin/contracts/utils/Strings.sol\":795:799  true */\n      0x01\n        /* \"@openzeppelin/contracts/utils/Strings.sol\":788:1068  while (true) {... */\n      iszero\n      tag_409\n      jumpi\n        /* \"@openzeppelin/contracts/utils/Strings.sol\":819:824  ptr-- */\n      dup1\n      dup1\n      0x01\n      swap1\n      sub\n      swap2\n      pop\n      pop\n        /* \"@openzeppelin/contracts/utils/Strings.sol\":958:966  _SYMBOLS */\n      0x3031323334353637383961626364656600000000000000000000000000000000\n        /* \"@openzeppelin/contracts/utils/Strings.sol\":953:955  10 */\n      0x0a\n        /* \"@openzeppelin/contracts/utils/Strings.sol\":946:951  value */\n      dup7\n        /* \"@openzeppelin/contracts/utils/Strings.sol\":942:956  mod(value, 10) */\n      mod\n        /* \"@openzeppelin/contracts/utils/Strings.sol\":937:967  byte(mod(value, 10), _SYMBOLS) */\n      byte\n        /* \"@openzeppelin/contracts/utils/Strings.sol\":932:935  ptr */\n      dup2\n        /* \"@openzeppelin/contracts/utils/Strings.sol\":924:968  mstore8(ptr, byte(mod(value, 10), _SYMBOLS)) */\n      mstore8\n        /* \"@openzeppelin/contracts/utils/Strings.sol\":1012:1014  10 */\n      0x0a\n        /* \"@openzeppelin/contracts/utils/Strings.sol\":1003:1014  value /= 10 */\n      dup6\n      dup2\n      tag_410\n      jumpi\n      tag_411\n      tag_412\n      jump\t// in\n    tag_411:\n    tag_410:\n      div\n      swap5\n      pop\n        /* \"@openzeppelin/contracts/utils/Strings.sol\":1045:1046  0 */\n      0x00\n        /* \"@openzeppelin/contracts/utils/Strings.sol\":1036:1041  value */\n      dup6\n        /* \"@openzeppelin/contracts/utils/Strings.sol\":1036:1046  value == 0 */\n      sub\n        /* \"@openzeppelin/contracts/utils/Strings.sol\":788:1068  while (true) {... */\n      tag_408\n        /* \"@openzeppelin/contracts/utils/Strings.sol\":1032:1053  if (value == 0) break */\n      jumpi\n        /* \"@openzeppelin/contracts/utils/Strings.sol\":788:1068  while (true) {... */\n    tag_409:\n        /* \"@openzeppelin/contracts/utils/Strings.sol\":1088:1094  buffer */\n      dup2\n        /* \"@openzeppelin/contracts/utils/Strings.sol\":1081:1094  return buffer */\n      swap4\n      pop\n      pop\n      pop\n      pop\n        /* \"@openzeppelin/contracts/utils/Strings.sol\":415:1111  function toString(uint256 value) internal pure returns (string memory) {... */\n      swap2\n      swap1\n      pop\n      jump\t// out\n        /* \"contracts/Voting02.sol\":3510:3829  function append( string memory a, string memory b, string memory c, string memory d, string memory e) internal pure returns (string memory) { //this function is oriented at https://ethereum.stackexchange.com/questions/729/how-to-concatenate-strings-in-solidity... */\n    tag_130:\n        /* \"contracts/Voting02.sol\":3635:3648  string memory */\n      0x60\n        /* \"contracts/Voting02.sol\":3807:3808  a */\n      dup6\n        /* \"contracts/Voting02.sol\":3810:3811  b */\n      dup6\n        /* \"contracts/Voting02.sol\":3813:3814  c */\n      dup6\n        /* \"contracts/Voting02.sol\":3816:3817  d */\n      dup6\n        /* \"contracts/Voting02.sol\":3818:3819  e */\n      dup6\n        /* \"contracts/Voting02.sol\":3790:3820  abi.encodePacked(a, b, c, d,e) */\n      add(0x20, mload(0x40))\n      tag_415\n      swap6\n      swap5\n      swap4\n      swap3\n      swap2\n      swap1\n      tag_416\n      jump\t// in\n    tag_415:\n      mload(0x40)\n      0x20\n      dup2\n      dup4\n      sub\n      sub\n      dup2\n      mstore\n      swap1\n      0x40\n      mstore\n        /* \"contracts/Voting02.sol\":3776:3821  return string(abi.encodePacked(a, b, c, d,e)) */\n      swap1\n      pop\n        /* \"contracts/Voting02.sol\":3510:3829  function append( string memory a, string memory b, string memory c, string memory d, string memory e) internal pure returns (string memory) { //this function is oriented at https://ethereum.stackexchange.com/questions/729/how-to-concatenate-strings-in-solidity... */\n      swap6\n      swap5\n      pop\n      pop\n      pop\n      pop\n      pop\n      jump\t// out\n        /* \"contracts/Voting02.sol\":3837:4083  function noOpenMotions() internal view returns (bool){... */\n    tag_146:\n        /* \"contracts/Voting02.sol\":3885:3889  bool */\n      0x00\n        /* \"contracts/Voting02.sol\":3906:3912  uint i */\n      dup1\n        /* \"contracts/Voting02.sol\":3913:3914  0 */\n      0x00\n        /* \"contracts/Voting02.sol\":3906:3914  uint i=0 */\n      swap1\n      pop\n        /* \"contracts/Voting02.sol\":3901:4054  for (uint i=0; i<motions.length;i++ ){... */\n    tag_418:\n        /* \"contracts/Voting02.sol\":3918:3925  motions */\n      0x04\n        /* \"contracts/Voting02.sol\":3918:3932  motions.length */\n      dup1\n      sload\n      swap1\n      pop\n        /* \"contracts/Voting02.sol\":3916:3917  i */\n      dup2\n        /* \"contracts/Voting02.sol\":3916:3932  i<motions.length */\n      lt\n        /* \"contracts/Voting02.sol\":3901:4054  for (uint i=0; i<motions.length;i++ ){... */\n      iszero\n      tag_419\n      jumpi\n        /* \"contracts/Voting02.sol\":3978:3995  MotionStatus.OPEN */\n      0x01\n        /* \"contracts/Voting02.sol\":3957:3995  motions[i].status == MotionStatus.OPEN */\n      0x02\n      dup2\n      gt\n      iszero\n      tag_421\n      jumpi\n      tag_422\n      tag_63\n      jump\t// in\n    tag_422:\n    tag_421:\n        /* \"contracts/Voting02.sol\":3957:3964  motions */\n      0x04\n        /* \"contracts/Voting02.sol\":3965:3966  i */\n      dup3\n        /* \"contracts/Voting02.sol\":3957:3967  motions[i] */\n      dup2\n      sload\n      dup2\n      lt\n      tag_423\n      jumpi\n      tag_424\n      tag_72\n      jump\t// in\n    tag_424:\n    tag_423:\n      swap1\n      0x00\n      mstore\n      keccak256(0x00, 0x20)\n      swap1\n      0x06\n      mul\n      add\n        /* \"contracts/Voting02.sol\":3957:3974  motions[i].status */\n      0x02\n      add\n      0x01\n      swap1\n      sload\n      swap1\n      0x0100\n      exp\n      swap1\n      div\n      0xff\n      and\n        /* \"contracts/Voting02.sol\":3957:3995  motions[i].status == MotionStatus.OPEN */\n      0x02\n      dup2\n      gt\n      iszero\n      tag_426\n      jumpi\n      tag_427\n      tag_63\n      jump\t// in\n    tag_427:\n    tag_426:\n      sub\n        /* \"contracts/Voting02.sol\":3953:4043  if (motions[i].status == MotionStatus.OPEN){... */\n      tag_428\n      jumpi\n        /* \"contracts/Voting02.sol\":4022:4027  false */\n      0x00\n        /* \"contracts/Voting02.sol\":4015:4027  return false */\n      swap2\n      pop\n      pop\n      jump(tag_417)\n        /* \"contracts/Voting02.sol\":3953:4043  if (motions[i].status == MotionStatus.OPEN){... */\n    tag_428:\n        /* \"contracts/Voting02.sol\":3933:3936  i++ */\n      dup1\n      dup1\n      tag_429\n      swap1\n      tag_132\n      jump\t// in\n    tag_429:\n      swap2\n      pop\n      pop\n        /* \"contracts/Voting02.sol\":3901:4054  for (uint i=0; i<motions.length;i++ ){... */\n      jump(tag_418)\n    tag_419:\n      pop\n        /* \"contracts/Voting02.sol\":4071:4075  true */\n      0x01\n        /* \"contracts/Voting02.sol\":4064:4075  return true */\n      swap1\n      pop\n        /* \"contracts/Voting02.sol\":3837:4083  function noOpenMotions() internal view returns (bool){... */\n    tag_417:\n      swap1\n      jump\t// out\n        /* \"contracts/Voting02.sol\":4358:4812  function transfer(address fromwhom_, address towhom_, uint which_) internal{... */\n    tag_220:\n        /* \"contracts/Voting02.sol\":4460:4461  1 */\n      0x01\n        /* \"contracts/Voting02.sol\":4452:4458  which_ */\n      dup2\n        /* \"contracts/Voting02.sol\":4452:4461  which_==1 */\n      eq\n        /* \"contracts/Voting02.sol\":4452:4474  which_==1 || which_==2 */\n      dup1\n      tag_431\n      jumpi\n      pop\n        /* \"contracts/Voting02.sol\":4473:4474  2 */\n      0x02\n        /* \"contracts/Voting02.sol\":4465:4471  which_ */\n      dup2\n        /* \"contracts/Voting02.sol\":4465:4474  which_==2 */\n      eq\n        /* \"contracts/Voting02.sol\":4452:4474  which_==1 || which_==2 */\n    tag_431:\n        /* \"contracts/Voting02.sol\":4444:4475  require(which_==1 || which_==2) */\n      tag_432\n      jumpi\n      0x00\n      dup1\n      revert\n    tag_432:\n        /* \"contracts/Voting02.sol\":4544:4545  0 */\n      0x00\n        /* \"contracts/Voting02.sol\":4494:4546  participants[towhom_].votingRight1from == address(0) */\n      0xffffffffffffffffffffffffffffffffffffffff\n      and\n        /* \"contracts/Voting02.sol\":4494:4506  participants */\n      0x02\n        /* \"contracts/Voting02.sol\":4494:4515  participants[towhom_] */\n      0x00\n        /* \"contracts/Voting02.sol\":4507:4514  towhom_ */\n      dup5\n        /* \"contracts/Voting02.sol\":4494:4515  participants[towhom_] */\n      0xffffffffffffffffffffffffffffffffffffffff\n      and\n      0xffffffffffffffffffffffffffffffffffffffff\n      and\n      dup2\n      mstore\n      0x20\n      add\n      swap1\n      dup2\n      mstore\n      0x20\n      add\n      0x00\n      keccak256\n        /* \"contracts/Voting02.sol\":4494:4532  participants[towhom_].votingRight1from */\n      0x00\n      add\n      0x01\n      swap1\n      sload\n      swap1\n      0x0100\n      exp\n      swap1\n      div\n      0xffffffffffffffffffffffffffffffffffffffff\n      and\n        /* \"contracts/Voting02.sol\":4494:4546  participants[towhom_].votingRight1from == address(0) */\n      0xffffffffffffffffffffffffffffffffffffffff\n      and\n      sub\n        /* \"contracts/Voting02.sol\":4491:4706  if(participants[towhom_].votingRight1from == address(0)){... */\n      tag_433\n      jumpi\n        /* \"contracts/Voting02.sol\":4603:4612  fromwhom_ */\n      dup3\n        /* \"contracts/Voting02.sol\":4562:4574  participants */\n      0x02\n        /* \"contracts/Voting02.sol\":4562:4583  participants[towhom_] */\n      0x00\n        /* \"contracts/Voting02.sol\":4575:4582  towhom_ */\n      dup5\n        /* \"contracts/Voting02.sol\":4562:4583  participants[towhom_] */\n      0xffffffffffffffffffffffffffffffffffffffff\n      and\n      0xffffffffffffffffffffffffffffffffffffffff\n      and\n      dup2\n      mstore\n      0x20\n      add\n      swap1\n      dup2\n      mstore\n      0x20\n      add\n      0x00\n      keccak256\n        /* \"contracts/Voting02.sol\":4562:4600  participants[towhom_].votingRight1from */\n      0x00\n      add\n      0x01\n        /* \"contracts/Voting02.sol\":4562:4612  participants[towhom_].votingRight1from = fromwhom_ */\n      0x0100\n      exp\n      dup2\n      sload\n      dup2\n      0xffffffffffffffffffffffffffffffffffffffff\n      mul\n      not\n      and\n      swap1\n      dup4\n      0xffffffffffffffffffffffffffffffffffffffff\n      and\n      mul\n      or\n      swap1\n      sstore\n      pop\n        /* \"contracts/Voting02.sol\":4491:4706  if(participants[towhom_].votingRight1from == address(0)){... */\n      jump(tag_434)\n    tag_433:\n        /* \"contracts/Voting02.sol\":4685:4694  fromwhom_ */\n      dup3\n        /* \"contracts/Voting02.sol\":4644:4656  participants */\n      0x02\n        /* \"contracts/Voting02.sol\":4644:4665  participants[towhom_] */\n      0x00\n        /* \"contracts/Voting02.sol\":4657:4664  towhom_ */\n      dup5\n        /* \"contracts/Voting02.sol\":4644:4665  participants[towhom_] */\n      0xffffffffffffffffffffffffffffffffffffffff\n      and\n      0xffffffffffffffffffffffffffffffffffffffff\n      and\n      dup2\n      mstore\n      0x20\n      add\n      swap1\n      dup2\n      mstore\n      0x20\n      add\n      0x00\n      keccak256\n        /* \"contracts/Voting02.sol\":4644:4682  participants[towhom_].votingRight2from */\n      0x01\n      add\n      0x00\n        /* \"contracts/Voting02.sol\":4644:4694  participants[towhom_].votingRight2from = fromwhom_ */\n      0x0100\n      exp\n      dup2\n      sload\n      dup2\n      0xffffffffffffffffffffffffffffffffffffffff\n      mul\n      not\n      and\n      swap1\n      dup4\n      0xffffffffffffffffffffffffffffffffffffffff\n      and\n      mul\n      or\n      swap1\n      sstore\n      pop\n        /* \"contracts/Voting02.sol\":4491:4706  if(participants[towhom_].votingRight1from == address(0)){... */\n    tag_434:\n        /* \"contracts/Voting02.sol\":4727:4728  1 */\n      0x01\n        /* \"contracts/Voting02.sol\":4719:4725  which_ */\n      dup2\n        /* \"contracts/Voting02.sol\":4719:4728  which_==1 */\n      sub\n        /* \"contracts/Voting02.sol\":4716:4805  if(which_==1){... */\n      tag_435\n      jumpi\n        /* \"contracts/Voting02.sol\":4791:4792  0 */\n      0x00\n        /* \"contracts/Voting02.sol\":4740:4752  participants */\n      0x02\n        /* \"contracts/Voting02.sol\":4740:4763  participants[fromwhom_] */\n      0x00\n        /* \"contracts/Voting02.sol\":4753:4762  fromwhom_ */\n      dup6\n        /* \"contracts/Voting02.sol\":4740:4763  participants[fromwhom_] */\n      0xffffffffffffffffffffffffffffffffffffffff\n      and\n      0xffffffffffffffffffffffffffffffffffffffff\n      and\n      dup2\n      mstore\n      0x20\n      add\n      swap1\n      dup2\n      mstore\n      0x20\n      add\n      0x00\n      keccak256\n        /* \"contracts/Voting02.sol\":4740:4780  participants[fromwhom_].votingRight1from */\n      0x00\n      add\n      0x01\n        /* \"contracts/Voting02.sol\":4740:4793  participants[fromwhom_].votingRight1from = address(0) */\n      0x0100\n      exp\n      dup2\n      sload\n      dup2\n      0xffffffffffffffffffffffffffffffffffffffff\n      mul\n      not\n      and\n      swap1\n      dup4\n      0xffffffffffffffffffffffffffffffffffffffff\n      and\n      mul\n      or\n      swap1\n      sstore\n      pop\n        /* \"contracts/Voting02.sol\":4716:4805  if(which_==1){... */\n    tag_435:\n        /* \"contracts/Voting02.sol\":4358:4812  function transfer(address fromwhom_, address towhom_, uint which_) internal{... */\n      pop\n      pop\n      pop\n      jump\t// out\n        /* \"@openzeppelin/contracts/utils/math/Math.sol\":9889:10779  function log10(uint256 value) internal pure returns (uint256) {... */\n    tag_403:\n        /* \"@openzeppelin/contracts/utils/math/Math.sol\":9942:9949  uint256 */\n      0x00\n        /* \"@openzeppelin/contracts/utils/math/Math.sol\":9961:9975  uint256 result */\n      dup1\n        /* \"@openzeppelin/contracts/utils/math/Math.sol\":9978:9979  0 */\n      0x00\n        /* \"@openzeppelin/contracts/utils/math/Math.sol\":9961:9979  uint256 result = 0 */\n      swap1\n      pop\n        /* \"@openzeppelin/contracts/utils/math/Math.sol\":10026:10032  10**64 */\n      0x184f03e93ff9f4daa797ed6e38ed64bf6a1f010000000000000000\n        /* \"@openzeppelin/contracts/utils/math/Math.sol\":10017:10022  value */\n      dup4\n        /* \"@openzeppelin/contracts/utils/math/Math.sol\":10017:10032  value >= 10**64 */\n      lt\n        /* \"@openzeppelin/contracts/utils/math/Math.sol\":10013:10112  if (value >= 10**64) {... */\n      tag_437\n      jumpi\n        /* \"@openzeppelin/contracts/utils/math/Math.sol\":10061:10067  10**64 */\n      0x184f03e93ff9f4daa797ed6e38ed64bf6a1f010000000000000000\n        /* \"@openzeppelin/contracts/utils/math/Math.sol\":10052:10067  value /= 10**64 */\n      dup4\n      dup2\n      tag_438\n      jumpi\n      tag_439\n      tag_412\n      jump\t// in\n    tag_439:\n    tag_438:\n      div\n      swap3\n      pop\n        /* \"@openzeppelin/contracts/utils/math/Math.sol\":10095:10097  64 */\n      0x40\n        /* \"@openzeppelin/contracts/utils/math/Math.sol\":10085:10097  result += 64 */\n      dup2\n      add\n      swap1\n      pop\n        /* \"@openzeppelin/contracts/utils/math/Math.sol\":10013:10112  if (value >= 10**64) {... */\n    tag_437:\n        /* \"@openzeppelin/contracts/utils/math/Math.sol\":10138:10144  10**32 */\n      0x04ee2d6d415b85acef8100000000\n        /* \"@openzeppelin/contracts/utils/math/Math.sol\":10129:10134  value */\n      dup4\n        /* \"@openzeppelin/contracts/utils/math/Math.sol\":10129:10144  value >= 10**32 */\n      lt\n        /* \"@openzeppelin/contracts/utils/math/Math.sol\":10125:10224  if (value >= 10**32) {... */\n      tag_440\n      jumpi\n        /* \"@openzeppelin/contracts/utils/math/Math.sol\":10173:10179  10**32 */\n      0x04ee2d6d415b85acef8100000000\n        /* \"@openzeppelin/contracts/utils/math/Math.sol\":10164:10179  value /= 10**32 */\n      dup4\n      dup2\n      tag_441\n      jumpi\n      tag_442\n      tag_412\n      jump\t// in\n    tag_442:\n    tag_441:\n      div\n      swap3\n      pop\n        /* \"@openzeppelin/contracts/utils/math/Math.sol\":10207:10209  32 */\n      0x20\n        /* \"@openzeppelin/contracts/utils/math/Math.sol\":10197:10209  result += 32 */\n      dup2\n      add\n      swap1\n      pop\n        /* \"@openzeppelin/contracts/utils/math/Math.sol\":10125:10224  if (value >= 10**32) {... */\n    tag_440:\n        /* \"@openzeppelin/contracts/utils/math/Math.sol\":10250:10256  10**16 */\n      0x2386f26fc10000\n        /* \"@openzeppelin/contracts/utils/math/Math.sol\":10241:10246  value */\n      dup4\n        /* \"@openzeppelin/contracts/utils/math/Math.sol\":10241:10256  value >= 10**16 */\n      lt\n        /* \"@openzeppelin/contracts/utils/math/Math.sol\":10237:10336  if (value >= 10**16) {... */\n      tag_443\n      jumpi\n        /* \"@openzeppelin/contracts/utils/math/Math.sol\":10285:10291  10**16 */\n      0x2386f26fc10000\n        /* \"@openzeppelin/contracts/utils/math/Math.sol\":10276:10291  value /= 10**16 */\n      dup4\n      dup2\n      tag_444\n      jumpi\n      tag_445\n      tag_412\n      jump\t// in\n    tag_445:\n    tag_444:\n      div\n      swap3\n      pop\n        /* \"@openzeppelin/contracts/utils/math/Math.sol\":10319:10321  16 */\n      0x10\n        /* \"@openzeppelin/contracts/utils/math/Math.sol\":10309:10321  result += 16 */\n      dup2\n      add\n      swap1\n      pop\n        /* \"@openzeppelin/contracts/utils/math/Math.sol\":10237:10336  if (value >= 10**16) {... */\n    tag_443:\n        /* \"@openzeppelin/contracts/utils/math/Math.sol\":10362:10367  10**8 */\n      0x05f5e100\n        /* \"@openzeppelin/contracts/utils/math/Math.sol\":10353:10358  value */\n      dup4\n        /* \"@openzeppelin/contracts/utils/math/Math.sol\":10353:10367  value >= 10**8 */\n      lt\n        /* \"@openzeppelin/contracts/utils/math/Math.sol\":10349:10445  if (value >= 10**8) {... */\n      tag_446\n      jumpi\n        /* \"@openzeppelin/contracts/utils/math/Math.sol\":10396:10401  10**8 */\n      0x05f5e100\n        /* \"@openzeppelin/contracts/utils/math/Math.sol\":10387:10401  value /= 10**8 */\n      dup4\n      dup2\n      tag_447\n      jumpi\n      tag_448\n      tag_412\n      jump\t// in\n    tag_448:\n    tag_447:\n      div\n      swap3\n      pop\n        /* \"@openzeppelin/contracts/utils/math/Math.sol\":10429:10430  8 */\n      0x08\n        /* \"@openzeppelin/contracts/utils/math/Math.sol\":10419:10430  result += 8 */\n      dup2\n      add\n      swap1\n      pop\n        /* \"@openzeppelin/contracts/utils/math/Math.sol\":10349:10445  if (value >= 10**8) {... */\n    tag_446:\n        /* \"@openzeppelin/contracts/utils/math/Math.sol\":10471:10476  10**4 */\n      0x2710\n        /* \"@openzeppelin/contracts/utils/math/Math.sol\":10462:10467  value */\n      dup4\n        /* \"@openzeppelin/contracts/utils/math/Math.sol\":10462:10476  value >= 10**4 */\n      lt\n        /* \"@openzeppelin/contracts/utils/math/Math.sol\":10458:10554  if (value >= 10**4) {... */\n      tag_449\n      jumpi\n        /* \"@openzeppelin/contracts/utils/math/Math.sol\":10505:10510  10**4 */\n      0x2710\n        /* \"@openzeppelin/contracts/utils/math/Math.sol\":10496:10510  value /= 10**4 */\n      dup4\n      dup2\n      tag_450\n      jumpi\n      tag_451\n      tag_412\n      jump\t// in\n    tag_451:\n    tag_450:\n      div\n      swap3\n      pop\n        /* \"@openzeppelin/contracts/utils/math/Math.sol\":10538:10539  4 */\n      0x04\n        /* \"@openzeppelin/contracts/utils/math/Math.sol\":10528:10539  result += 4 */\n      dup2\n      add\n      swap1\n      pop\n        /* \"@openzeppelin/contracts/utils/math/Math.sol\":10458:10554  if (value >= 10**4) {... */\n    tag_449:\n        /* \"@openzeppelin/contracts/utils/math/Math.sol\":10580:10585  10**2 */\n      0x64\n        /* \"@openzeppelin/contracts/utils/math/Math.sol\":10571:10576  value */\n      dup4\n        /* \"@openzeppelin/contracts/utils/math/Math.sol\":10571:10585  value >= 10**2 */\n      lt\n        /* \"@openzeppelin/contracts/utils/math/Math.sol\":10567:10663  if (value >= 10**2) {... */\n      tag_452\n      jumpi\n        /* \"@openzeppelin/contracts/utils/math/Math.sol\":10614:10619  10**2 */\n      0x64\n        /* \"@openzeppelin/contracts/utils/math/Math.sol\":10605:10619  value /= 10**2 */\n      dup4\n      dup2\n      tag_453\n      jumpi\n      tag_454\n      tag_412\n      jump\t// in\n    tag_454:\n    tag_453:\n      div\n      swap3\n      pop\n        /* \"@openzeppelin/contracts/utils/math/Math.sol\":10647:10648  2 */\n      0x02\n        /* \"@openzeppelin/contracts/utils/math/Math.sol\":10637:10648  result += 2 */\n      dup2\n      add\n      swap1\n      pop\n        /* \"@openzeppelin/contracts/utils/math/Math.sol\":10567:10663  if (value >= 10**2) {... */\n    tag_452:\n        /* \"@openzeppelin/contracts/utils/math/Math.sol\":10689:10694  10**1 */\n      0x0a\n        /* \"@openzeppelin/contracts/utils/math/Math.sol\":10680:10685  value */\n      dup4\n        /* \"@openzeppelin/contracts/utils/math/Math.sol\":10680:10694  value >= 10**1 */\n      lt\n        /* \"@openzeppelin/contracts/utils/math/Math.sol\":10676:10740  if (value >= 10**1) {... */\n      tag_455\n      jumpi\n        /* \"@openzeppelin/contracts/utils/math/Math.sol\":10724:10725  1 */\n      0x01\n        /* \"@openzeppelin/contracts/utils/math/Math.sol\":10714:10725  result += 1 */\n      dup2\n      add\n      swap1\n      pop\n        /* \"@openzeppelin/contracts/utils/math/Math.sol\":10676:10740  if (value >= 10**1) {... */\n    tag_455:\n        /* \"@openzeppelin/contracts/utils/math/Math.sol\":10766:10772  result */\n      dup1\n        /* \"@openzeppelin/contracts/utils/math/Math.sol\":10759:10772  return result */\n      swap2\n      pop\n      pop\n        /* \"@openzeppelin/contracts/utils/math/Math.sol\":9889:10779  function log10(uint256 value) internal pure returns (uint256) {... */\n      swap2\n      swap1\n      pop\n      jump\t// out\n    tag_151:\n      mload(0x40)\n      dup1\n      0x60\n      add\n      0x40\n      mstore\n      dup1\n      0x00\n      0x04\n      dup2\n      gt\n      iszero\n      tag_456\n      jumpi\n      tag_457\n      tag_63\n      jump\t// in\n    tag_457:\n    tag_456:\n      dup2\n      mstore\n      0x20\n      add\n      and(0xffffffffffffffffffffffffffffffffffffffff, 0x00)\n      dup2\n      mstore\n      0x20\n      add\n      and(0xffffffffffffffffffffffffffffffffffffffff, 0x00)\n      dup2\n      mstore\n      pop\n      swap1\n      jump\t// out\n        /* \"#utility.yul\":7:82   */\n    tag_458:\n        /* \"#utility.yul\":40:46   */\n      0x00\n        /* \"#utility.yul\":73:75   */\n      0x40\n        /* \"#utility.yul\":67:76   */\n      mload\n        /* \"#utility.yul\":57:76   */\n      swap1\n      pop\n        /* \"#utility.yul\":7:82   */\n      swap1\n      jump\t// out\n        /* \"#utility.yul\":88:205   */\n    tag_459:\n        /* \"#utility.yul\":197:198   */\n      0x00\n        /* \"#utility.yul\":194:195   */\n      dup1\n        /* \"#utility.yul\":187:199   */\n      revert\n        /* \"#utility.yul\":211:328   */\n    tag_460:\n        /* \"#utility.yul\":320:321   */\n      0x00\n        /* \"#utility.yul\":317:318   */\n      dup1\n        /* \"#utility.yul\":310:322   */\n      revert\n        /* \"#utility.yul\":334:460   */\n    tag_461:\n        /* \"#utility.yul\":371:378   */\n      0x00\n        /* \"#utility.yul\":411:453   */\n      0xffffffffffffffffffffffffffffffffffffffff\n        /* \"#utility.yul\":404:409   */\n      dup3\n        /* \"#utility.yul\":400:454   */\n      and\n        /* \"#utility.yul\":389:454   */\n      swap1\n      pop\n        /* \"#utility.yul\":334:460   */\n      swap2\n      swap1\n      pop\n      jump\t// out\n        /* \"#utility.yul\":466:562   */\n    tag_462:\n        /* \"#utility.yul\":503:510   */\n      0x00\n        /* \"#utility.yul\":532:556   */\n      tag_560\n        /* \"#utility.yul\":550:555   */\n      dup3\n        /* \"#utility.yul\":532:556   */\n      tag_461\n      jump\t// in\n    tag_560:\n        /* \"#utility.yul\":521:556   */\n      swap1\n      pop\n        /* \"#utility.yul\":466:562   */\n      swap2\n      swap1\n      pop\n      jump\t// out\n        /* \"#utility.yul\":568:690   */\n    tag_463:\n        /* \"#utility.yul\":641:665   */\n      tag_562\n        /* \"#utility.yul\":659:664   */\n      dup2\n        /* \"#utility.yul\":641:665   */\n      tag_462\n      jump\t// in\n    tag_562:\n        /* \"#utility.yul\":634:639   */\n      dup2\n        /* \"#utility.yul\":631:666   */\n      eq\n        /* \"#utility.yul\":621:684   */\n      tag_563\n      jumpi\n        /* \"#utility.yul\":680:681   */\n      0x00\n        /* \"#utility.yul\":677:678   */\n      dup1\n        /* \"#utility.yul\":670:682   */\n      revert\n        /* \"#utility.yul\":621:684   */\n    tag_563:\n        /* \"#utility.yul\":568:690   */\n      pop\n      jump\t// out\n        /* \"#utility.yul\":696:835   */\n    tag_464:\n        /* \"#utility.yul\":742:747   */\n      0x00\n        /* \"#utility.yul\":780:786   */\n      dup2\n        /* \"#utility.yul\":767:787   */\n      calldataload\n        /* \"#utility.yul\":758:787   */\n      swap1\n      pop\n        /* \"#utility.yul\":796:829   */\n      tag_565\n        /* \"#utility.yul\":823:828   */\n      dup2\n        /* \"#utility.yul\":796:829   */\n      tag_463\n      jump\t// in\n    tag_565:\n        /* \"#utility.yul\":696:835   */\n      swap3\n      swap2\n      pop\n      pop\n      jump\t// out\n        /* \"#utility.yul\":841:1170   */\n    tag_17:\n        /* \"#utility.yul\":900:906   */\n      0x00\n        /* \"#utility.yul\":949:951   */\n      0x20\n        /* \"#utility.yul\":937:946   */\n      dup3\n        /* \"#utility.yul\":928:935   */\n      dup5\n        /* \"#utility.yul\":924:947   */\n      sub\n        /* \"#utility.yul\":920:952   */\n      slt\n        /* \"#utility.yul\":917:1036   */\n      iszero\n      tag_567\n      jumpi\n        /* \"#utility.yul\":955:1034   */\n      tag_568\n      tag_459\n      jump\t// in\n    tag_568:\n        /* \"#utility.yul\":917:1036   */\n    tag_567:\n        /* \"#utility.yul\":1075:1076   */\n      0x00\n        /* \"#utility.yul\":1100:1153   */\n      tag_569\n        /* \"#utility.yul\":1145:1152   */\n      dup5\n        /* \"#utility.yul\":1136:1142   */\n      dup3\n        /* \"#utility.yul\":1125:1134   */\n      dup6\n        /* \"#utility.yul\":1121:1143   */\n      add\n        /* \"#utility.yul\":1100:1153   */\n      tag_464\n      jump\t// in\n    tag_569:\n        /* \"#utility.yul\":1090:1153   */\n      swap2\n      pop\n        /* \"#utility.yul\":1046:1163   */\n      pop\n        /* \"#utility.yul\":841:1170   */\n      swap3\n      swap2\n      pop\n      pop\n      jump\t// out\n        /* \"#utility.yul\":1176:1356   */\n    tag_63:\n        /* \"#utility.yul\":1224:1301   */\n      0x4e487b7100000000000000000000000000000000000000000000000000000000\n        /* \"#utility.yul\":1221:1222   */\n      0x00\n        /* \"#utility.yul\":1214:1302   */\n      mstore\n        /* \"#utility.yul\":1321:1325   */\n      0x21\n        /* \"#utility.yul\":1318:1319   */\n      0x04\n        /* \"#utility.yul\":1311:1326   */\n      mstore\n        /* \"#utility.yul\":1345:1349   */\n      0x24\n        /* \"#utility.yul\":1342:1343   */\n      0x00\n        /* \"#utility.yul\":1335:1350   */\n      revert\n        /* \"#utility.yul\":1362:1486   */\n    tag_465:\n        /* \"#utility.yul\":1454:1455   */\n      0x05\n        /* \"#utility.yul\":1447:1452   */\n      dup2\n        /* \"#utility.yul\":1444:1456   */\n      lt\n        /* \"#utility.yul\":1434:1480   */\n      tag_572\n      jumpi\n        /* \"#utility.yul\":1460:1478   */\n      tag_573\n      tag_63\n      jump\t// in\n    tag_573:\n        /* \"#utility.yul\":1434:1480   */\n    tag_572:\n        /* \"#utility.yul\":1362:1486   */\n      pop\n      jump\t// out\n        /* \"#utility.yul\":1492:1641   */\n    tag_466:\n        /* \"#utility.yul\":1548:1555   */\n      0x00\n        /* \"#utility.yul\":1577:1582   */\n      dup2\n        /* \"#utility.yul\":1566:1582   */\n      swap1\n      pop\n        /* \"#utility.yul\":1583:1635   */\n      tag_575\n        /* \"#utility.yul\":1629:1634   */\n      dup3\n        /* \"#utility.yul\":1583:1635   */\n      tag_465\n      jump\t// in\n    tag_575:\n        /* \"#utility.yul\":1492:1641   */\n      swap2\n      swap1\n      pop\n      jump\t// out\n        /* \"#utility.yul\":1647:1796   */\n    tag_467:\n        /* \"#utility.yul\":1714:1723   */\n      0x00\n        /* \"#utility.yul\":1747:1790   */\n      tag_577\n        /* \"#utility.yul\":1784:1789   */\n      dup3\n        /* \"#utility.yul\":1747:1790   */\n      tag_466\n      jump\t// in\n    tag_577:\n        /* \"#utility.yul\":1734:1790   */\n      swap1\n      pop\n        /* \"#utility.yul\":1647:1796   */\n      swap2\n      swap1\n      pop\n      jump\t// out\n        /* \"#utility.yul\":1802:1967   */\n    tag_468:\n        /* \"#utility.yul\":1906:1960   */\n      tag_579\n        /* \"#utility.yul\":1954:1959   */\n      dup2\n        /* \"#utility.yul\":1906:1960   */\n      tag_467\n      jump\t// in\n    tag_579:\n        /* \"#utility.yul\":1901:1904   */\n      dup3\n        /* \"#utility.yul\":1894:1961   */\n      mstore\n        /* \"#utility.yul\":1802:1967   */\n      pop\n      pop\n      jump\t// out\n        /* \"#utility.yul\":1973:2091   */\n    tag_469:\n        /* \"#utility.yul\":2060:2084   */\n      tag_581\n        /* \"#utility.yul\":2078:2083   */\n      dup2\n        /* \"#utility.yul\":2060:2084   */\n      tag_462\n      jump\t// in\n    tag_581:\n        /* \"#utility.yul\":2055:2058   */\n      dup3\n        /* \"#utility.yul\":2048:2085   */\n      mstore\n        /* \"#utility.yul\":1973:2091   */\n      pop\n      pop\n      jump\t// out\n        /* \"#utility.yul\":2097:2573   */\n    tag_20:\n        /* \"#utility.yul\":2263:2267   */\n      0x00\n        /* \"#utility.yul\":2301:2303   */\n      0x60\n        /* \"#utility.yul\":2290:2299   */\n      dup3\n        /* \"#utility.yul\":2286:2304   */\n      add\n        /* \"#utility.yul\":2278:2304   */\n      swap1\n      pop\n        /* \"#utility.yul\":2314:2402   */\n      tag_583\n        /* \"#utility.yul\":2399:2400   */\n      0x00\n        /* \"#utility.yul\":2388:2397   */\n      dup4\n        /* \"#utility.yul\":2384:2401   */\n      add\n        /* \"#utility.yul\":2375:2381   */\n      dup7\n        /* \"#utility.yul\":2314:2402   */\n      tag_468\n      jump\t// in\n    tag_583:\n        /* \"#utility.yul\":2412:2484   */\n      tag_584\n        /* \"#utility.yul\":2480:2482   */\n      0x20\n        /* \"#utility.yul\":2469:2478   */\n      dup4\n        /* \"#utility.yul\":2465:2483   */\n      add\n        /* \"#utility.yul\":2456:2462   */\n      dup6\n        /* \"#utility.yul\":2412:2484   */\n      tag_469\n      jump\t// in\n    tag_584:\n        /* \"#utility.yul\":2494:2566   */\n      tag_585\n        /* \"#utility.yul\":2562:2564   */\n      0x40\n        /* \"#utility.yul\":2551:2560   */\n      dup4\n        /* \"#utility.yul\":2547:2565   */\n      add\n        /* \"#utility.yul\":2538:2544   */\n      dup5\n        /* \"#utility.yul\":2494:2566   */\n      tag_469\n      jump\t// in\n    tag_585:\n        /* \"#utility.yul\":2097:2573   */\n      swap5\n      swap4\n      pop\n      pop\n      pop\n      pop\n      jump\t// out\n        /* \"#utility.yul\":2579:2656   */\n    tag_470:\n        /* \"#utility.yul\":2616:2623   */\n      0x00\n        /* \"#utility.yul\":2645:2650   */\n      dup2\n        /* \"#utility.yul\":2634:2650   */\n      swap1\n      pop\n        /* \"#utility.yul\":2579:2656   */\n      swap2\n      swap1\n      pop\n      jump\t// out\n        /* \"#utility.yul\":2662:2784   */\n    tag_471:\n        /* \"#utility.yul\":2735:2759   */\n      tag_588\n        /* \"#utility.yul\":2753:2758   */\n      dup2\n        /* \"#utility.yul\":2735:2759   */\n      tag_470\n      jump\t// in\n    tag_588:\n        /* \"#utility.yul\":2728:2733   */\n      dup2\n        /* \"#utility.yul\":2725:2760   */\n      eq\n        /* \"#utility.yul\":2715:2778   */\n      tag_589\n      jumpi\n        /* \"#utility.yul\":2774:2775   */\n      0x00\n        /* \"#utility.yul\":2771:2772   */\n      dup1\n        /* \"#utility.yul\":2764:2776   */\n      revert\n        /* \"#utility.yul\":2715:2778   */\n    tag_589:\n        /* \"#utility.yul\":2662:2784   */\n      pop\n      jump\t// out\n        /* \"#utility.yul\":2790:2929   */\n    tag_472:\n        /* \"#utility.yul\":2836:2841   */\n      0x00\n        /* \"#utility.yul\":2874:2880   */\n      dup2\n        /* \"#utility.yul\":2861:2881   */\n      calldataload\n        /* \"#utility.yul\":2852:2881   */\n      swap1\n      pop\n        /* \"#utility.yul\":2890:2923   */\n      tag_591\n        /* \"#utility.yul\":2917:2922   */\n      dup2\n        /* \"#utility.yul\":2890:2923   */\n      tag_471\n      jump\t// in\n    tag_591:\n        /* \"#utility.yul\":2790:2929   */\n      swap3\n      swap2\n      pop\n      pop\n      jump\t// out\n        /* \"#utility.yul\":2935:3264   */\n    tag_23:\n        /* \"#utility.yul\":2994:3000   */\n      0x00\n        /* \"#utility.yul\":3043:3045   */\n      0x20\n        /* \"#utility.yul\":3031:3040   */\n      dup3\n        /* \"#utility.yul\":3022:3029   */\n      dup5\n        /* \"#utility.yul\":3018:3041   */\n      sub\n        /* \"#utility.yul\":3014:3046   */\n      slt\n        /* \"#utility.yul\":3011:3130   */\n      iszero\n      tag_593\n      jumpi\n        /* \"#utility.yul\":3049:3128   */\n      tag_594\n      tag_459\n      jump\t// in\n    tag_594:\n        /* \"#utility.yul\":3011:3130   */\n    tag_593:\n        /* \"#utility.yul\":3169:3170   */\n      0x00\n        /* \"#utility.yul\":3194:3247   */\n      tag_595\n        /* \"#utility.yul\":3239:3246   */\n      dup5\n        /* \"#utility.yul\":3230:3236   */\n      dup3\n        /* \"#utility.yul\":3219:3228   */\n      dup6\n        /* \"#utility.yul\":3215:3237   */\n      add\n        /* \"#utility.yul\":3194:3247   */\n      tag_472\n      jump\t// in\n    tag_595:\n        /* \"#utility.yul\":3184:3247   */\n      swap2\n      pop\n        /* \"#utility.yul\":3140:3257   */\n      pop\n        /* \"#utility.yul\":2935:3264   */\n      swap3\n      swap2\n      pop\n      pop\n      jump\t// out\n        /* \"#utility.yul\":3270:3369   */\n    tag_473:\n        /* \"#utility.yul\":3322:3328   */\n      0x00\n        /* \"#utility.yul\":3356:3361   */\n      dup2\n        /* \"#utility.yul\":3350:3362   */\n      mload\n        /* \"#utility.yul\":3340:3362   */\n      swap1\n      pop\n        /* \"#utility.yul\":3270:3369   */\n      swap2\n      swap1\n      pop\n      jump\t// out\n        /* \"#utility.yul\":3375:3544   */\n    tag_474:\n        /* \"#utility.yul\":3459:3470   */\n      0x00\n        /* \"#utility.yul\":3493:3499   */\n      dup3\n        /* \"#utility.yul\":3488:3491   */\n      dup3\n        /* \"#utility.yul\":3481:3500   */\n      mstore\n        /* \"#utility.yul\":3533:3537   */\n      0x20\n        /* \"#utility.yul\":3528:3531   */\n      dup3\n        /* \"#utility.yul\":3524:3538   */\n      add\n        /* \"#utility.yul\":3509:3538   */\n      swap1\n      pop\n        /* \"#utility.yul\":3375:3544   */\n      swap3\n      swap2\n      pop\n      pop\n      jump\t// out\n        /* \"#utility.yul\":3550:3796   */\n    tag_475:\n        /* \"#utility.yul\":3631:3632   */\n      0x00\n        /* \"#utility.yul\":3641:3754   */\n    tag_599:\n        /* \"#utility.yul\":3655:3661   */\n      dup4\n        /* \"#utility.yul\":3652:3653   */\n      dup2\n        /* \"#utility.yul\":3649:3662   */\n      lt\n        /* \"#utility.yul\":3641:3754   */\n      iszero\n      tag_601\n      jumpi\n        /* \"#utility.yul\":3740:3741   */\n      dup1\n        /* \"#utility.yul\":3735:3738   */\n      dup3\n        /* \"#utility.yul\":3731:3742   */\n      add\n        /* \"#utility.yul\":3725:3743   */\n      mload\n        /* \"#utility.yul\":3721:3722   */\n      dup2\n        /* \"#utility.yul\":3716:3719   */\n      dup5\n        /* \"#utility.yul\":3712:3723   */\n      add\n        /* \"#utility.yul\":3705:3744   */\n      mstore\n        /* \"#utility.yul\":3677:3679   */\n      0x20\n        /* \"#utility.yul\":3674:3675   */\n      dup2\n        /* \"#utility.yul\":3670:3680   */\n      add\n        /* \"#utility.yul\":3665:3680   */\n      swap1\n      pop\n        /* \"#utility.yul\":3641:3754   */\n      jump(tag_599)\n    tag_601:\n        /* \"#utility.yul\":3788:3789   */\n      0x00\n        /* \"#utility.yul\":3779:3785   */\n      dup5\n        /* \"#utility.yul\":3774:3777   */\n      dup5\n        /* \"#utility.yul\":3770:3786   */\n      add\n        /* \"#utility.yul\":3763:3790   */\n      mstore\n        /* \"#utility.yul\":3612:3796   */\n      pop\n        /* \"#utility.yul\":3550:3796   */\n      pop\n      pop\n      pop\n      jump\t// out\n        /* \"#utility.yul\":3802:3904   */\n    tag_476:\n        /* \"#utility.yul\":3843:3849   */\n      0x00\n        /* \"#utility.yul\":3894:3896   */\n      0x1f\n        /* \"#utility.yul\":3890:3897   */\n      not\n        /* \"#utility.yul\":3885:3887   */\n      0x1f\n        /* \"#utility.yul\":3878:3883   */\n      dup4\n        /* \"#utility.yul\":3874:3888   */\n      add\n        /* \"#utility.yul\":3870:3898   */\n      and\n        /* \"#utility.yul\":3860:3898   */\n      swap1\n      pop\n        /* \"#utility.yul\":3802:3904   */\n      swap2\n      swap1\n      pop\n      jump\t// out\n        /* \"#utility.yul\":3910:4287   */\n    tag_477:\n        /* \"#utility.yul\":3998:4001   */\n      0x00\n        /* \"#utility.yul\":4026:4065   */\n      tag_604\n        /* \"#utility.yul\":4059:4064   */\n      dup3\n        /* \"#utility.yul\":4026:4065   */\n      tag_473\n      jump\t// in\n    tag_604:\n        /* \"#utility.yul\":4081:4152   */\n      tag_605\n        /* \"#utility.yul\":4145:4151   */\n      dup2\n        /* \"#utility.yul\":4140:4143   */\n      dup6\n        /* \"#utility.yul\":4081:4152   */\n      tag_474\n      jump\t// in\n    tag_605:\n        /* \"#utility.yul\":4074:4152   */\n      swap4\n      pop\n        /* \"#utility.yul\":4161:4226   */\n      tag_606\n        /* \"#utility.yul\":4219:4225   */\n      dup2\n        /* \"#utility.yul\":4214:4217   */\n      dup6\n        /* \"#utility.yul\":4207:4211   */\n      0x20\n        /* \"#utility.yul\":4200:4205   */\n      dup7\n        /* \"#utility.yul\":4196:4212   */\n      add\n        /* \"#utility.yul\":4161:4226   */\n      tag_475\n      jump\t// in\n    tag_606:\n        /* \"#utility.yul\":4251:4280   */\n      tag_607\n        /* \"#utility.yul\":4273:4279   */\n      dup2\n        /* \"#utility.yul\":4251:4280   */\n      tag_476\n      jump\t// in\n    tag_607:\n        /* \"#utility.yul\":4246:4249   */\n      dup5\n        /* \"#utility.yul\":4242:4281   */\n      add\n        /* \"#utility.yul\":4235:4281   */\n      swap2\n      pop\n        /* \"#utility.yul\":4002:4287   */\n      pop\n        /* \"#utility.yul\":3910:4287   */\n      swap3\n      swap2\n      pop\n      pop\n      jump\t// out\n        /* \"#utility.yul\":4293:4606   */\n    tag_29:\n        /* \"#utility.yul\":4406:4410   */\n      0x00\n        /* \"#utility.yul\":4444:4446   */\n      0x20\n        /* \"#utility.yul\":4433:4442   */\n      dup3\n        /* \"#utility.yul\":4429:4447   */\n      add\n        /* \"#utility.yul\":4421:4447   */\n      swap1\n      pop\n        /* \"#utility.yul\":4493:4502   */\n      dup2\n        /* \"#utility.yul\":4487:4491   */\n      dup2\n        /* \"#utility.yul\":4483:4503   */\n      sub\n        /* \"#utility.yul\":4479:4480   */\n      0x00\n        /* \"#utility.yul\":4468:4477   */\n      dup4\n        /* \"#utility.yul\":4464:4481   */\n      add\n        /* \"#utility.yul\":4457:4504   */\n      mstore\n        /* \"#utility.yul\":4521:4599   */\n      tag_609\n        /* \"#utility.yul\":4594:4598   */\n      dup2\n        /* \"#utility.yul\":4585:4591   */\n      dup5\n        /* \"#utility.yul\":4521:4599   */\n      tag_477\n      jump\t// in\n    tag_609:\n        /* \"#utility.yul\":4513:4599   */\n      swap1\n      pop\n        /* \"#utility.yul\":4293:4606   */\n      swap3\n      swap2\n      pop\n      pop\n      jump\t// out\n        /* \"#utility.yul\":4612:4730   */\n    tag_478:\n        /* \"#utility.yul\":4704:4705   */\n      0x05\n        /* \"#utility.yul\":4697:4702   */\n      dup2\n        /* \"#utility.yul\":4694:4706   */\n      lt\n        /* \"#utility.yul\":4684:4724   */\n      tag_611\n      jumpi\n        /* \"#utility.yul\":4720:4721   */\n      0x00\n        /* \"#utility.yul\":4717:4718   */\n      dup1\n        /* \"#utility.yul\":4710:4722   */\n      revert\n        /* \"#utility.yul\":4684:4724   */\n    tag_611:\n        /* \"#utility.yul\":4612:4730   */\n      pop\n      jump\t// out\n        /* \"#utility.yul\":4736:4913   */\n    tag_479:\n        /* \"#utility.yul\":4801:4806   */\n      0x00\n        /* \"#utility.yul\":4839:4845   */\n      dup2\n        /* \"#utility.yul\":4826:4846   */\n      calldataload\n        /* \"#utility.yul\":4817:4846   */\n      swap1\n      pop\n        /* \"#utility.yul\":4855:4907   */\n      tag_613\n        /* \"#utility.yul\":4901:4906   */\n      dup2\n        /* \"#utility.yul\":4855:4907   */\n      tag_478\n      jump\t// in\n    tag_613:\n        /* \"#utility.yul\":4736:4913   */\n      swap3\n      swap2\n      pop\n      pop\n      jump\t// out\n        /* \"#utility.yul\":4919:5431   */\n    tag_32:\n        /* \"#utility.yul\":5006:5012   */\n      0x00\n        /* \"#utility.yul\":5014:5020   */\n      dup1\n        /* \"#utility.yul\":5063:5065   */\n      0x40\n        /* \"#utility.yul\":5051:5060   */\n      dup4\n        /* \"#utility.yul\":5042:5049   */\n      dup6\n        /* \"#utility.yul\":5038:5061   */\n      sub\n        /* \"#utility.yul\":5034:5066   */\n      slt\n        /* \"#utility.yul\":5031:5150   */\n      iszero\n      tag_615\n      jumpi\n        /* \"#utility.yul\":5069:5148   */\n      tag_616\n      tag_459\n      jump\t// in\n    tag_616:\n        /* \"#utility.yul\":5031:5150   */\n    tag_615:\n        /* \"#utility.yul\":5189:5190   */\n      0x00\n        /* \"#utility.yul\":5214:5286   */\n      tag_617\n        /* \"#utility.yul\":5278:5285   */\n      dup6\n        /* \"#utility.yul\":5269:5275   */\n      dup3\n        /* \"#utility.yul\":5258:5267   */\n      dup7\n        /* \"#utility.yul\":5254:5276   */\n      add\n        /* \"#utility.yul\":5214:5286   */\n      tag_479\n      jump\t// in\n    tag_617:\n        /* \"#utility.yul\":5204:5286   */\n      swap3\n      pop\n        /* \"#utility.yul\":5160:5296   */\n      pop\n        /* \"#utility.yul\":5335:5337   */\n      0x20\n        /* \"#utility.yul\":5361:5414   */\n      tag_618\n        /* \"#utility.yul\":5406:5413   */\n      dup6\n        /* \"#utility.yul\":5397:5403   */\n      dup3\n        /* \"#utility.yul\":5386:5395   */\n      dup7\n        /* \"#utility.yul\":5382:5404   */\n      add\n        /* \"#utility.yul\":5361:5414   */\n      tag_464\n      jump\t// in\n    tag_618:\n        /* \"#utility.yul\":5351:5414   */\n      swap2\n      pop\n        /* \"#utility.yul\":5306:5424   */\n      pop\n        /* \"#utility.yul\":4919:5431   */\n      swap3\n      pop\n      swap3\n      swap1\n      pop\n      jump\t// out\n        /* \"#utility.yul\":5437:5554   */\n    tag_480:\n        /* \"#utility.yul\":5546:5547   */\n      0x00\n        /* \"#utility.yul\":5543:5544   */\n      dup1\n        /* \"#utility.yul\":5536:5548   */\n      revert\n        /* \"#utility.yul\":5560:5677   */\n    tag_481:\n        /* \"#utility.yul\":5669:5670   */\n      0x00\n        /* \"#utility.yul\":5666:5667   */\n      dup1\n        /* \"#utility.yul\":5659:5671   */\n      revert\n        /* \"#utility.yul\":5683:5863   */\n    tag_406:\n        /* \"#utility.yul\":5731:5808   */\n      0x4e487b7100000000000000000000000000000000000000000000000000000000\n        /* \"#utility.yul\":5728:5729   */\n      0x00\n        /* \"#utility.yul\":5721:5809   */\n      mstore\n        /* \"#utility.yul\":5828:5832   */\n      0x41\n        /* \"#utility.yul\":5825:5826   */\n      0x04\n        /* \"#utility.yul\":5818:5833   */\n      mstore\n        /* \"#utility.yul\":5852:5856   */\n      0x24\n        /* \"#utility.yul\":5849:5850   */\n      0x00\n        /* \"#utility.yul\":5842:5857   */\n      revert\n        /* \"#utility.yul\":5869:6150   */\n    tag_482:\n        /* \"#utility.yul\":5952:5979   */\n      tag_623\n        /* \"#utility.yul\":5974:5978   */\n      dup3\n        /* \"#utility.yul\":5952:5979   */\n      tag_476\n      jump\t// in\n    tag_623:\n        /* \"#utility.yul\":5944:5950   */\n      dup2\n        /* \"#utility.yul\":5940:5980   */\n      add\n        /* \"#utility.yul\":6082:6088   */\n      dup2\n        /* \"#utility.yul\":6070:6080   */\n      dup2\n        /* \"#utility.yul\":6067:6089   */\n      lt\n        /* \"#utility.yul\":6046:6064   */\n      0xffffffffffffffff\n        /* \"#utility.yul\":6034:6044   */\n      dup3\n        /* \"#utility.yul\":6031:6065   */\n      gt\n        /* \"#utility.yul\":6028:6090   */\n      or\n        /* \"#utility.yul\":6025:6113   */\n      iszero\n      tag_624\n      jumpi\n        /* \"#utility.yul\":6093:6111   */\n      tag_625\n      tag_406\n      jump\t// in\n    tag_625:\n        /* \"#utility.yul\":6025:6113   */\n    tag_624:\n        /* \"#utility.yul\":6133:6143   */\n      dup1\n        /* \"#utility.yul\":6129:6131   */\n      0x40\n        /* \"#utility.yul\":6122:6144   */\n      mstore\n        /* \"#utility.yul\":5912:6150   */\n      pop\n        /* \"#utility.yul\":5869:6150   */\n      pop\n      pop\n      jump\t// out\n        /* \"#utility.yul\":6156:6285   */\n    tag_483:\n        /* \"#utility.yul\":6190:6196   */\n      0x00\n        /* \"#utility.yul\":6217:6237   */\n      tag_627\n      tag_458\n      jump\t// in\n    tag_627:\n        /* \"#utility.yul\":6207:6237   */\n      swap1\n      pop\n        /* \"#utility.yul\":6246:6279   */\n      tag_628\n        /* \"#utility.yul\":6274:6278   */\n      dup3\n        /* \"#utility.yul\":6266:6272   */\n      dup3\n        /* \"#utility.yul\":6246:6279   */\n      tag_482\n      jump\t// in\n    tag_628:\n        /* \"#utility.yul\":6156:6285   */\n      swap2\n      swap1\n      pop\n      jump\t// out\n        /* \"#utility.yul\":6291:6599   */\n    tag_484:\n        /* \"#utility.yul\":6353:6357   */\n      0x00\n        /* \"#utility.yul\":6443:6461   */\n      0xffffffffffffffff\n        /* \"#utility.yul\":6435:6441   */\n      dup3\n        /* \"#utility.yul\":6432:6462   */\n      gt\n        /* \"#utility.yul\":6429:6485   */\n      iszero\n      tag_630\n      jumpi\n        /* \"#utility.yul\":6465:6483   */\n      tag_631\n      tag_406\n      jump\t// in\n    tag_631:\n        /* \"#utility.yul\":6429:6485   */\n    tag_630:\n        /* \"#utility.yul\":6503:6532   */\n      tag_632\n        /* \"#utility.yul\":6525:6531   */\n      dup3\n        /* \"#utility.yul\":6503:6532   */\n      tag_476\n      jump\t// in\n    tag_632:\n        /* \"#utility.yul\":6495:6532   */\n      swap1\n      pop\n        /* \"#utility.yul\":6587:6591   */\n      0x20\n        /* \"#utility.yul\":6581:6585   */\n      dup2\n        /* \"#utility.yul\":6577:6592   */\n      add\n        /* \"#utility.yul\":6569:6592   */\n      swap1\n      pop\n        /* \"#utility.yul\":6291:6599   */\n      swap2\n      swap1\n      pop\n      jump\t// out\n        /* \"#utility.yul\":6605:6751   */\n    tag_485:\n        /* \"#utility.yul\":6702:6708   */\n      dup3\n        /* \"#utility.yul\":6697:6700   */\n      dup2\n        /* \"#utility.yul\":6692:6695   */\n      dup4\n        /* \"#utility.yul\":6679:6709   */\n      calldatacopy\n        /* \"#utility.yul\":6743:6744   */\n      0x00\n        /* \"#utility.yul\":6734:6740   */\n      dup4\n        /* \"#utility.yul\":6729:6732   */\n      dup4\n        /* \"#utility.yul\":6725:6741   */\n      add\n        /* \"#utility.yul\":6718:6745   */\n      mstore\n        /* \"#utility.yul\":6605:6751   */\n      pop\n      pop\n      pop\n      jump\t// out\n        /* \"#utility.yul\":6757:7182   */\n    tag_486:\n        /* \"#utility.yul\":6835:6840   */\n      0x00\n        /* \"#utility.yul\":6860:6926   */\n      tag_635\n        /* \"#utility.yul\":6876:6925   */\n      tag_636\n        /* \"#utility.yul\":6918:6924   */\n      dup5\n        /* \"#utility.yul\":6876:6925   */\n      tag_484\n      jump\t// in\n    tag_636:\n        /* \"#utility.yul\":6860:6926   */\n      tag_483\n      jump\t// in\n    tag_635:\n        /* \"#utility.yul\":6851:6926   */\n      swap1\n      pop\n        /* \"#utility.yul\":6949:6955   */\n      dup3\n        /* \"#utility.yul\":6942:6947   */\n      dup2\n        /* \"#utility.yul\":6935:6956   */\n      mstore\n        /* \"#utility.yul\":6987:6991   */\n      0x20\n        /* \"#utility.yul\":6980:6985   */\n      dup2\n        /* \"#utility.yul\":6976:6992   */\n      add\n        /* \"#utility.yul\":7025:7028   */\n      dup5\n        /* \"#utility.yul\":7016:7022   */\n      dup5\n        /* \"#utility.yul\":7011:7014   */\n      dup5\n        /* \"#utility.yul\":7007:7023   */\n      add\n        /* \"#utility.yul\":7004:7029   */\n      gt\n        /* \"#utility.yul\":7001:7113   */\n      iszero\n      tag_637\n      jumpi\n        /* \"#utility.yul\":7032:7111   */\n      tag_638\n      tag_481\n      jump\t// in\n    tag_638:\n        /* \"#utility.yul\":7001:7113   */\n    tag_637:\n        /* \"#utility.yul\":7122:7176   */\n      tag_639\n        /* \"#utility.yul\":7169:7175   */\n      dup5\n        /* \"#utility.yul\":7164:7167   */\n      dup3\n        /* \"#utility.yul\":7159:7162   */\n      dup6\n        /* \"#utility.yul\":7122:7176   */\n      tag_485\n      jump\t// in\n    tag_639:\n        /* \"#utility.yul\":6841:7182   */\n      pop\n        /* \"#utility.yul\":6757:7182   */\n      swap4\n      swap3\n      pop\n      pop\n      pop\n      jump\t// out\n        /* \"#utility.yul\":7202:7542   */\n    tag_487:\n        /* \"#utility.yul\":7258:7263   */\n      0x00\n        /* \"#utility.yul\":7307:7310   */\n      dup3\n        /* \"#utility.yul\":7300:7304   */\n      0x1f\n        /* \"#utility.yul\":7292:7298   */\n      dup4\n        /* \"#utility.yul\":7288:7305   */\n      add\n        /* \"#utility.yul\":7284:7311   */\n      slt\n        /* \"#utility.yul\":7274:7396   */\n      tag_641\n      jumpi\n        /* \"#utility.yul\":7315:7394   */\n      tag_642\n      tag_480\n      jump\t// in\n    tag_642:\n        /* \"#utility.yul\":7274:7396   */\n    tag_641:\n        /* \"#utility.yul\":7432:7438   */\n      dup2\n        /* \"#utility.yul\":7419:7439   */\n      calldataload\n        /* \"#utility.yul\":7457:7536   */\n      tag_643\n        /* \"#utility.yul\":7532:7535   */\n      dup5\n        /* \"#utility.yul\":7524:7530   */\n      dup3\n        /* \"#utility.yul\":7517:7521   */\n      0x20\n        /* \"#utility.yul\":7509:7515   */\n      dup7\n        /* \"#utility.yul\":7505:7522   */\n      add\n        /* \"#utility.yul\":7457:7536   */\n      tag_486\n      jump\t// in\n    tag_643:\n        /* \"#utility.yul\":7448:7536   */\n      swap2\n      pop\n        /* \"#utility.yul\":7264:7542   */\n      pop\n        /* \"#utility.yul\":7202:7542   */\n      swap3\n      swap2\n      pop\n      pop\n      jump\t// out\n        /* \"#utility.yul\":7548:8057   */\n    tag_42:\n        /* \"#utility.yul\":7617:7623   */\n      0x00\n        /* \"#utility.yul\":7666:7668   */\n      0x20\n        /* \"#utility.yul\":7654:7663   */\n      dup3\n        /* \"#utility.yul\":7645:7652   */\n      dup5\n        /* \"#utility.yul\":7641:7664   */\n      sub\n        /* \"#utility.yul\":7637:7669   */\n      slt\n        /* \"#utility.yul\":7634:7753   */\n      iszero\n      tag_645\n      jumpi\n        /* \"#utility.yul\":7672:7751   */\n      tag_646\n      tag_459\n      jump\t// in\n    tag_646:\n        /* \"#utility.yul\":7634:7753   */\n    tag_645:\n        /* \"#utility.yul\":7820:7821   */\n      0x00\n        /* \"#utility.yul\":7809:7818   */\n      dup3\n        /* \"#utility.yul\":7805:7822   */\n      add\n        /* \"#utility.yul\":7792:7823   */\n      calldataload\n        /* \"#utility.yul\":7850:7868   */\n      0xffffffffffffffff\n        /* \"#utility.yul\":7842:7848   */\n      dup2\n        /* \"#utility.yul\":7839:7869   */\n      gt\n        /* \"#utility.yul\":7836:7953   */\n      iszero\n      tag_647\n      jumpi\n        /* \"#utility.yul\":7872:7951   */\n      tag_648\n      tag_460\n      jump\t// in\n    tag_648:\n        /* \"#utility.yul\":7836:7953   */\n    tag_647:\n        /* \"#utility.yul\":7977:8040   */\n      tag_649\n        /* \"#utility.yul\":8032:8039   */\n      dup5\n        /* \"#utility.yul\":8023:8029   */\n      dup3\n        /* \"#utility.yul\":8012:8021   */\n      dup6\n        /* \"#utility.yul\":8008:8030   */\n      add\n        /* \"#utility.yul\":7977:8040   */\n      tag_487\n      jump\t// in\n    tag_649:\n        /* \"#utility.yul\":7967:8040   */\n      swap2\n      pop\n        /* \"#utility.yul\":7763:8050   */\n      pop\n        /* \"#utility.yul\":7548:8057   */\n      swap3\n      swap2\n      pop\n      pop\n      jump\t// out\n        /* \"#utility.yul\":8063:8181   */\n    tag_488:\n        /* \"#utility.yul\":8150:8174   */\n      tag_651\n        /* \"#utility.yul\":8168:8173   */\n      dup2\n        /* \"#utility.yul\":8150:8174   */\n      tag_470\n      jump\t// in\n    tag_651:\n        /* \"#utility.yul\":8145:8148   */\n      dup3\n        /* \"#utility.yul\":8138:8175   */\n      mstore\n        /* \"#utility.yul\":8063:8181   */\n      pop\n      pop\n      jump\t// out\n        /* \"#utility.yul\":8187:8409   */\n    tag_45:\n        /* \"#utility.yul\":8280:8284   */\n      0x00\n        /* \"#utility.yul\":8318:8320   */\n      0x20\n        /* \"#utility.yul\":8307:8316   */\n      dup3\n        /* \"#utility.yul\":8303:8321   */\n      add\n        /* \"#utility.yul\":8295:8321   */\n      swap1\n      pop\n        /* \"#utility.yul\":8331:8402   */\n      tag_653\n        /* \"#utility.yul\":8399:8400   */\n      0x00\n        /* \"#utility.yul\":8388:8397   */\n      dup4\n        /* \"#utility.yul\":8384:8401   */\n      add\n        /* \"#utility.yul\":8375:8381   */\n      dup5\n        /* \"#utility.yul\":8331:8402   */\n      tag_488\n      jump\t// in\n    tag_653:\n        /* \"#utility.yul\":8187:8409   */\n      swap3\n      swap2\n      pop\n      pop\n      jump\t// out\n        /* \"#utility.yul\":8415:8505   */\n    tag_489:\n        /* \"#utility.yul\":8449:8456   */\n      0x00\n        /* \"#utility.yul\":8492:8497   */\n      dup2\n        /* \"#utility.yul\":8485:8498   */\n      iszero\n        /* \"#utility.yul\":8478:8499   */\n      iszero\n        /* \"#utility.yul\":8467:8499   */\n      swap1\n      pop\n        /* \"#utility.yul\":8415:8505   */\n      swap2\n      swap1\n      pop\n      jump\t// out\n        /* \"#utility.yul\":8511:8620   */\n    tag_490:\n        /* \"#utility.yul\":8592:8613   */\n      tag_656\n        /* \"#utility.yul\":8607:8612   */\n      dup2\n        /* \"#utility.yul\":8592:8613   */\n      tag_489\n      jump\t// in\n    tag_656:\n        /* \"#utility.yul\":8587:8590   */\n      dup3\n        /* \"#utility.yul\":8580:8614   */\n      mstore\n        /* \"#utility.yul\":8511:8620   */\n      pop\n      pop\n      jump\t// out\n        /* \"#utility.yul\":8626:8836   */\n    tag_49:\n        /* \"#utility.yul\":8713:8717   */\n      0x00\n        /* \"#utility.yul\":8751:8753   */\n      0x20\n        /* \"#utility.yul\":8740:8749   */\n      dup3\n        /* \"#utility.yul\":8736:8754   */\n      add\n        /* \"#utility.yul\":8728:8754   */\n      swap1\n      pop\n        /* \"#utility.yul\":8764:8829   */\n      tag_658\n        /* \"#utility.yul\":8826:8827   */\n      0x00\n        /* \"#utility.yul\":8815:8824   */\n      dup4\n        /* \"#utility.yul\":8811:8828   */\n      add\n        /* \"#utility.yul\":8802:8808   */\n      dup5\n        /* \"#utility.yul\":8764:8829   */\n      tag_490\n      jump\t// in\n    tag_658:\n        /* \"#utility.yul\":8626:8836   */\n      swap3\n      swap2\n      pop\n      pop\n      jump\t// out\n        /* \"#utility.yul\":8842:9316   */\n    tag_55:\n        /* \"#utility.yul\":8910:8916   */\n      0x00\n        /* \"#utility.yul\":8918:8924   */\n      dup1\n        /* \"#utility.yul\":8967:8969   */\n      0x40\n        /* \"#utility.yul\":8955:8964   */\n      dup4\n        /* \"#utility.yul\":8946:8953   */\n      dup6\n        /* \"#utility.yul\":8942:8965   */\n      sub\n        /* \"#utility.yul\":8938:8970   */\n      slt\n        /* \"#utility.yul\":8935:9054   */\n      iszero\n      tag_660\n      jumpi\n        /* \"#utility.yul\":8973:9052   */\n      tag_661\n      tag_459\n      jump\t// in\n    tag_661:\n        /* \"#utility.yul\":8935:9054   */\n    tag_660:\n        /* \"#utility.yul\":9093:9094   */\n      0x00\n        /* \"#utility.yul\":9118:9171   */\n      tag_662\n        /* \"#utility.yul\":9163:9170   */\n      dup6\n        /* \"#utility.yul\":9154:9160   */\n      dup3\n        /* \"#utility.yul\":9143:9152   */\n      dup7\n        /* \"#utility.yul\":9139:9161   */\n      add\n        /* \"#utility.yul\":9118:9171   */\n      tag_472\n      jump\t// in\n    tag_662:\n        /* \"#utility.yul\":9108:9171   */\n      swap3\n      pop\n        /* \"#utility.yul\":9064:9181   */\n      pop\n        /* \"#utility.yul\":9220:9222   */\n      0x20\n        /* \"#utility.yul\":9246:9299   */\n      tag_663\n        /* \"#utility.yul\":9291:9298   */\n      dup6\n        /* \"#utility.yul\":9282:9288   */\n      dup3\n        /* \"#utility.yul\":9271:9280   */\n      dup7\n        /* \"#utility.yul\":9267:9289   */\n      add\n        /* \"#utility.yul\":9246:9299   */\n      tag_472\n      jump\t// in\n    tag_663:\n        /* \"#utility.yul\":9236:9299   */\n      swap2\n      pop\n        /* \"#utility.yul\":9191:9309   */\n      pop\n        /* \"#utility.yul\":8842:9316   */\n      swap3\n      pop\n      swap3\n      swap1\n      pop\n      jump\t// out\n        /* \"#utility.yul\":9322:9567   */\n    tag_491:\n        /* \"#utility.yul\":9462:9496   */\n      0x4f6e6c79207061727479206d656d626572732063616e20696e697469616c6c79\n        /* \"#utility.yul\":9458:9459   */\n      0x00\n        /* \"#utility.yul\":9450:9456   */\n      dup3\n        /* \"#utility.yul\":9446:9460   */\n      add\n        /* \"#utility.yul\":9439:9497   */\n      mstore\n        /* \"#utility.yul\":9531:9559   */\n      0x20737570706f7274206120726567756c6172206d6f74696f6e2e000000000000\n        /* \"#utility.yul\":9526:9528   */\n      0x20\n        /* \"#utility.yul\":9518:9524   */\n      dup3\n        /* \"#utility.yul\":9514:9529   */\n      add\n        /* \"#utility.yul\":9507:9560   */\n      mstore\n        /* \"#utility.yul\":9322:9567   */\n      pop\n      jump\t// out\n        /* \"#utility.yul\":9573:9939   */\n    tag_492:\n        /* \"#utility.yul\":9715:9718   */\n      0x00\n        /* \"#utility.yul\":9736:9803   */\n      tag_666\n        /* \"#utility.yul\":9800:9802   */\n      0x3a\n        /* \"#utility.yul\":9795:9798   */\n      dup4\n        /* \"#utility.yul\":9736:9803   */\n      tag_474\n      jump\t// in\n    tag_666:\n        /* \"#utility.yul\":9729:9803   */\n      swap2\n      pop\n        /* \"#utility.yul\":9812:9905   */\n      tag_667\n        /* \"#utility.yul\":9901:9904   */\n      dup3\n        /* \"#utility.yul\":9812:9905   */\n      tag_491\n      jump\t// in\n    tag_667:\n        /* \"#utility.yul\":9930:9932   */\n      0x40\n        /* \"#utility.yul\":9925:9928   */\n      dup3\n        /* \"#utility.yul\":9921:9933   */\n      add\n        /* \"#utility.yul\":9914:9933   */\n      swap1\n      pop\n        /* \"#utility.yul\":9573:9939   */\n      swap2\n      swap1\n      pop\n      jump\t// out\n        /* \"#utility.yul\":9945:10364   */\n    tag_68:\n        /* \"#utility.yul\":10111:10115   */\n      0x00\n        /* \"#utility.yul\":10149:10151   */\n      0x20\n        /* \"#utility.yul\":10138:10147   */\n      dup3\n        /* \"#utility.yul\":10134:10152   */\n      add\n        /* \"#utility.yul\":10126:10152   */\n      swap1\n      pop\n        /* \"#utility.yul\":10198:10207   */\n      dup2\n        /* \"#utility.yul\":10192:10196   */\n      dup2\n        /* \"#utility.yul\":10188:10208   */\n      sub\n        /* \"#utility.yul\":10184:10185   */\n      0x00\n        /* \"#utility.yul\":10173:10182   */\n      dup4\n        /* \"#utility.yul\":10169:10186   */\n      add\n        /* \"#utility.yul\":10162:10209   */\n      mstore\n        /* \"#utility.yul\":10226:10357   */\n      tag_669\n        /* \"#utility.yul\":10352:10356   */\n      dup2\n        /* \"#utility.yul\":10226:10357   */\n      tag_492\n      jump\t// in\n    tag_669:\n        /* \"#utility.yul\":10218:10357   */\n      swap1\n      pop\n        /* \"#utility.yul\":9945:10364   */\n      swap2\n      swap1\n      pop\n      jump\t// out\n        /* \"#utility.yul\":10370:10550   */\n    tag_72:\n        /* \"#utility.yul\":10418:10495   */\n      0x4e487b7100000000000000000000000000000000000000000000000000000000\n        /* \"#utility.yul\":10415:10416   */\n      0x00\n        /* \"#utility.yul\":10408:10496   */\n      mstore\n        /* \"#utility.yul\":10515:10519   */\n      0x32\n        /* \"#utility.yul\":10512:10513   */\n      0x04\n        /* \"#utility.yul\":10505:10520   */\n      mstore\n        /* \"#utility.yul\":10539:10543   */\n      0x24\n        /* \"#utility.yul\":10536:10537   */\n      0x00\n        /* \"#utility.yul\":10529:10544   */\n      revert\n        /* \"#utility.yul\":10556:10801   */\n    tag_493:\n        /* \"#utility.yul\":10696:10730   */\n      0x41206d656d6265722063616e206f6e6c79206f6e636520737570706f72742061\n        /* \"#utility.yul\":10692:10693   */\n      0x00\n        /* \"#utility.yul\":10684:10690   */\n      dup3\n        /* \"#utility.yul\":10680:10694   */\n      add\n        /* \"#utility.yul\":10673:10731   */\n      mstore\n        /* \"#utility.yul\":10765:10793   */\n      0x20726567756c6172206d6f74696f6e20696e697469616c6c792e000000000000\n        /* \"#utility.yul\":10760:10762   */\n      0x20\n        /* \"#utility.yul\":10752:10758   */\n      dup3\n        /* \"#utility.yul\":10748:10763   */\n      add\n        /* \"#utility.yul\":10741:10794   */\n      mstore\n        /* \"#utility.yul\":10556:10801   */\n      pop\n      jump\t// out\n        /* \"#utility.yul\":10807:11173   */\n    tag_494:\n        /* \"#utility.yul\":10949:10952   */\n      0x00\n        /* \"#utility.yul\":10970:11037   */\n      tag_673\n        /* \"#utility.yul\":11034:11036   */\n      0x3a\n        /* \"#utility.yul\":11029:11032   */\n      dup4\n        /* \"#utility.yul\":10970:11037   */\n      tag_474\n      jump\t// in\n    tag_673:\n        /* \"#utility.yul\":10963:11037   */\n      swap2\n      pop\n        /* \"#utility.yul\":11046:11139   */\n      tag_674\n        /* \"#utility.yul\":11135:11138   */\n      dup3\n        /* \"#utility.yul\":11046:11139   */\n      tag_493\n      jump\t// in\n    tag_674:\n        /* \"#utility.yul\":11164:11166   */\n      0x40\n        /* \"#utility.yul\":11159:11162   */\n      dup3\n        /* \"#utility.yul\":11155:11167   */\n      add\n        /* \"#utility.yul\":11148:11167   */\n      swap1\n      pop\n        /* \"#utility.yul\":10807:11173   */\n      swap2\n      swap1\n      pop\n      jump\t// out\n        /* \"#utility.yul\":11179:11598   */\n    tag_79:\n        /* \"#utility.yul\":11345:11349   */\n      0x00\n        /* \"#utility.yul\":11383:11385   */\n      0x20\n        /* \"#utility.yul\":11372:11381   */\n      dup3\n        /* \"#utility.yul\":11368:11386   */\n      add\n        /* \"#utility.yul\":11360:11386   */\n      swap1\n      pop\n        /* \"#utility.yul\":11432:11441   */\n      dup2\n        /* \"#utility.yul\":11426:11430   */\n      dup2\n        /* \"#utility.yul\":11422:11442   */\n      sub\n        /* \"#utility.yul\":11418:11419   */\n      0x00\n        /* \"#utility.yul\":11407:11416   */\n      dup4\n        /* \"#utility.yul\":11403:11420   */\n      add\n        /* \"#utility.yul\":11396:11443   */\n      mstore\n        /* \"#utility.yul\":11460:11591   */\n      tag_676\n        /* \"#utility.yul\":11586:11590   */\n      dup2\n        /* \"#utility.yul\":11460:11591   */\n      tag_494\n      jump\t// in\n    tag_676:\n        /* \"#utility.yul\":11452:11591   */\n      swap1\n      pop\n        /* \"#utility.yul\":11179:11598   */\n      swap2\n      swap1\n      pop\n      jump\t// out\n        /* \"#utility.yul\":11604:11779   */\n    tag_495:\n        /* \"#utility.yul\":11744:11771   */\n      0x4d6f74696f6e206973206e6f7420636c6f736564207965742e00000000000000\n        /* \"#utility.yul\":11740:11741   */\n      0x00\n        /* \"#utility.yul\":11732:11738   */\n      dup3\n        /* \"#utility.yul\":11728:11742   */\n      add\n        /* \"#utility.yul\":11721:11772   */\n      mstore\n        /* \"#utility.yul\":11604:11779   */\n      pop\n      jump\t// out\n        /* \"#utility.yul\":11785:12151   */\n    tag_496:\n        /* \"#utility.yul\":11927:11930   */\n      0x00\n        /* \"#utility.yul\":11948:12015   */\n      tag_679\n        /* \"#utility.yul\":12012:12014   */\n      0x19\n        /* \"#utility.yul\":12007:12010   */\n      dup4\n        /* \"#utility.yul\":11948:12015   */\n      tag_474\n      jump\t// in\n    tag_679:\n        /* \"#utility.yul\":11941:12015   */\n      swap2\n      pop\n        /* \"#utility.yul\":12024:12117   */\n      tag_680\n        /* \"#utility.yul\":12113:12116   */\n      dup3\n        /* \"#utility.yul\":12024:12117   */\n      tag_495\n      jump\t// in\n    tag_680:\n        /* \"#utility.yul\":12142:12144   */\n      0x20\n        /* \"#utility.yul\":12137:12140   */\n      dup3\n        /* \"#utility.yul\":12133:12145   */\n      add\n        /* \"#utility.yul\":12126:12145   */\n      swap1\n      pop\n        /* \"#utility.yul\":11785:12151   */\n      swap2\n      swap1\n      pop\n      jump\t// out\n        /* \"#utility.yul\":12157:12576   */\n    tag_102:\n        /* \"#utility.yul\":12323:12327   */\n      0x00\n        /* \"#utility.yul\":12361:12363   */\n      0x20\n        /* \"#utility.yul\":12350:12359   */\n      dup3\n        /* \"#utility.yul\":12346:12364   */\n      add\n        /* \"#utility.yul\":12338:12364   */\n      swap1\n      pop\n        /* \"#utility.yul\":12410:12419   */\n      dup2\n        /* \"#utility.yul\":12404:12408   */\n      dup2\n        /* \"#utility.yul\":12400:12420   */\n      sub\n        /* \"#utility.yul\":12396:12397   */\n      0x00\n        /* \"#utility.yul\":12385:12394   */\n      dup4\n        /* \"#utility.yul\":12381:12398   */\n      add\n        /* \"#utility.yul\":12374:12421   */\n      mstore\n        /* \"#utility.yul\":12438:12569   */\n      tag_682\n        /* \"#utility.yul\":12564:12568   */\n      dup2\n        /* \"#utility.yul\":12438:12569   */\n      tag_496\n      jump\t// in\n    tag_682:\n        /* \"#utility.yul\":12430:12569   */\n      swap1\n      pop\n        /* \"#utility.yul\":12157:12576   */\n      swap2\n      swap1\n      pop\n      jump\t// out\n        /* \"#utility.yul\":12582:12762   */\n    tag_497:\n        /* \"#utility.yul\":12630:12707   */\n      0x4e487b7100000000000000000000000000000000000000000000000000000000\n        /* \"#utility.yul\":12627:12628   */\n      0x00\n        /* \"#utility.yul\":12620:12708   */\n      mstore\n        /* \"#utility.yul\":12727:12731   */\n      0x22\n        /* \"#utility.yul\":12724:12725   */\n      0x04\n        /* \"#utility.yul\":12717:12732   */\n      mstore\n        /* \"#utility.yul\":12751:12755   */\n      0x24\n        /* \"#utility.yul\":12748:12749   */\n      0x00\n        /* \"#utility.yul\":12741:12756   */\n      revert\n        /* \"#utility.yul\":12768:13088   */\n    tag_125:\n        /* \"#utility.yul\":12812:12818   */\n      0x00\n        /* \"#utility.yul\":12849:12850   */\n      0x02\n        /* \"#utility.yul\":12843:12847   */\n      dup3\n        /* \"#utility.yul\":12839:12851   */\n      div\n        /* \"#utility.yul\":12829:12851   */\n      swap1\n      pop\n        /* \"#utility.yul\":12896:12897   */\n      0x01\n        /* \"#utility.yul\":12890:12894   */\n      dup3\n        /* \"#utility.yul\":12886:12898   */\n      and\n        /* \"#utility.yul\":12917:12935   */\n      dup1\n        /* \"#utility.yul\":12907:12988   */\n      tag_685\n      jumpi\n        /* \"#utility.yul\":12973:12977   */\n      0x7f\n        /* \"#utility.yul\":12965:12971   */\n      dup3\n        /* \"#utility.yul\":12961:12978   */\n      and\n        /* \"#utility.yul\":12951:12978   */\n      swap2\n      pop\n        /* \"#utility.yul\":12907:12988   */\n    tag_685:\n        /* \"#utility.yul\":13035:13037   */\n      0x20\n        /* \"#utility.yul\":13027:13033   */\n      dup3\n        /* \"#utility.yul\":13024:13038   */\n      lt\n        /* \"#utility.yul\":13004:13022   */\n      dup2\n        /* \"#utility.yul\":13001:13039   */\n      sub\n        /* \"#utility.yul\":12998:13082   */\n      tag_686\n      jumpi\n        /* \"#utility.yul\":13054:13072   */\n      tag_687\n      tag_497\n      jump\t// in\n    tag_687:\n        /* \"#utility.yul\":12998:13082   */\n    tag_686:\n        /* \"#utility.yul\":12819:13088   */\n      pop\n        /* \"#utility.yul\":12768:13088   */\n      swap2\n      swap1\n      pop\n      jump\t// out\n        /* \"#utility.yul\":13094:13274   */\n    tag_498:\n        /* \"#utility.yul\":13142:13219   */\n      0x4e487b7100000000000000000000000000000000000000000000000000000000\n        /* \"#utility.yul\":13139:13140   */\n      0x00\n        /* \"#utility.yul\":13132:13220   */\n      mstore\n        /* \"#utility.yul\":13239:13243   */\n      0x11\n        /* \"#utility.yul\":13236:13237   */\n      0x04\n        /* \"#utility.yul\":13229:13244   */\n      mstore\n        /* \"#utility.yul\":13263:13267   */\n      0x24\n        /* \"#utility.yul\":13260:13261   */\n      0x00\n        /* \"#utility.yul\":13253:13268   */\n      revert\n        /* \"#utility.yul\":13280:13513   */\n    tag_132:\n        /* \"#utility.yul\":13319:13322   */\n      0x00\n        /* \"#utility.yul\":13342:13366   */\n      tag_690\n        /* \"#utility.yul\":13360:13365   */\n      dup3\n        /* \"#utility.yul\":13342:13366   */\n      tag_470\n      jump\t// in\n    tag_690:\n        /* \"#utility.yul\":13333:13366   */\n      swap2\n      pop\n        /* \"#utility.yul\":13388:13454   */\n      0xffffffffffffffffffffffffffffffffffffffffffffffffffffffffffffffff\n        /* \"#utility.yul\":13381:13386   */\n      dup3\n        /* \"#utility.yul\":13378:13455   */\n      sub\n        /* \"#utility.yul\":13375:13478   */\n      tag_691\n      jumpi\n        /* \"#utility.yul\":13458:13476   */\n      tag_692\n      tag_498\n      jump\t// in\n    tag_692:\n        /* \"#utility.yul\":13375:13478   */\n    tag_691:\n        /* \"#utility.yul\":13505:13506   */\n      0x01\n        /* \"#utility.yul\":13498:13503   */\n      dup3\n        /* \"#utility.yul\":13494:13507   */\n      add\n        /* \"#utility.yul\":13487:13507   */\n      swap1\n      pop\n        /* \"#utility.yul\":13280:13513   */\n      swap2\n      swap1\n      pop\n      jump\t// out\n        /* \"#utility.yul\":13519:13754   */\n    tag_499:\n        /* \"#utility.yul\":13659:13693   */\n      0x4f6e6c792061646d696e732063616e20616464206e657720636f6e76656e7469\n        /* \"#utility.yul\":13655:13656   */\n      0x00\n        /* \"#utility.yul\":13647:13653   */\n      dup3\n        /* \"#utility.yul\":13643:13657   */\n      add\n        /* \"#utility.yul\":13636:13694   */\n      mstore\n        /* \"#utility.yul\":13728:13746   */\n      0x6f6e207061727469636970616e74732e00000000000000000000000000000000\n        /* \"#utility.yul\":13723:13725   */\n      0x20\n        /* \"#utility.yul\":13715:13721   */\n      dup3\n        /* \"#utility.yul\":13711:13726   */\n      add\n        /* \"#utility.yul\":13704:13747   */\n      mstore\n        /* \"#utility.yul\":13519:13754   */\n      pop\n      jump\t// out\n        /* \"#utility.yul\":13760:14126   */\n    tag_500:\n        /* \"#utility.yul\":13902:13905   */\n      0x00\n        /* \"#utility.yul\":13923:13990   */\n      tag_695\n        /* \"#utility.yul\":13987:13989   */\n      0x30\n        /* \"#utility.yul\":13982:13985   */\n      dup4\n        /* \"#utility.yul\":13923:13990   */\n      tag_474\n      jump\t// in\n    tag_695:\n        /* \"#utility.yul\":13916:13990   */\n      swap2\n      pop\n        /* \"#utility.yul\":13999:14092   */\n      tag_696\n        /* \"#utility.yul\":14088:14091   */\n      dup3\n        /* \"#utility.yul\":13999:14092   */\n      tag_499\n      jump\t// in\n    tag_696:\n        /* \"#utility.yul\":14117:14119   */\n      0x40\n        /* \"#utility.yul\":14112:14115   */\n      dup3\n        /* \"#utility.yul\":14108:14120   */\n      add\n        /* \"#utility.yul\":14101:14120   */\n      swap1\n      pop\n        /* \"#utility.yul\":13760:14126   */\n      swap2\n      swap1\n      pop\n      jump\t// out\n        /* \"#utility.yul\":14132:14551   */\n    tag_140:\n        /* \"#utility.yul\":14298:14302   */\n      0x00\n        /* \"#utility.yul\":14336:14338   */\n      0x20\n        /* \"#utility.yul\":14325:14334   */\n      dup3\n        /* \"#utility.yul\":14321:14339   */\n      add\n        /* \"#utility.yul\":14313:14339   */\n      swap1\n      pop\n        /* \"#utility.yul\":14385:14394   */\n      dup2\n        /* \"#utility.yul\":14379:14383   */\n      dup2\n        /* \"#utility.yul\":14375:14395   */\n      sub\n        /* \"#utility.yul\":14371:14372   */\n      0x00\n        /* \"#utility.yul\":14360:14369   */\n      dup4\n        /* \"#utility.yul\":14356:14373   */\n      add\n        /* \"#utility.yul\":14349:14396   */\n      mstore\n        /* \"#utility.yul\":14413:14544   */\n      tag_698\n        /* \"#utility.yul\":14539:14543   */\n      dup2\n        /* \"#utility.yul\":14413:14544   */\n      tag_500\n      jump\t// in\n    tag_698:\n        /* \"#utility.yul\":14405:14544   */\n      swap1\n      pop\n        /* \"#utility.yul\":14132:14551   */\n      swap2\n      swap1\n      pop\n      jump\t// out\n        /* \"#utility.yul\":14557:14802   */\n    tag_501:\n        /* \"#utility.yul\":14697:14731   */\n      0x546865205061727469636970616e742077617320616c72656164792061646465\n        /* \"#utility.yul\":14693:14694   */\n      0x00\n        /* \"#utility.yul\":14685:14691   */\n      dup3\n        /* \"#utility.yul\":14681:14695   */\n      add\n        /* \"#utility.yul\":14674:14732   */\n      mstore\n        /* \"#utility.yul\":14766:14794   */\n      0x6420616e6420686f6c647320766f74696e67207269676874732e000000000000\n        /* \"#utility.yul\":14761:14763   */\n      0x20\n        /* \"#utility.yul\":14753:14759   */\n      dup3\n        /* \"#utility.yul\":14749:14764   */\n      add\n        /* \"#utility.yul\":14742:14795   */\n      mstore\n        /* \"#utility.yul\":14557:14802   */\n      pop\n      jump\t// out\n        /* \"#utility.yul\":14808:15174   */\n    tag_502:\n        /* \"#utility.yul\":14950:14953   */\n      0x00\n        /* \"#utility.yul\":14971:15038   */\n      tag_701\n        /* \"#utility.yul\":15035:15037   */\n      0x3a\n        /* \"#utility.yul\":15030:15033   */\n      dup4\n        /* \"#utility.yul\":14971:15038   */\n      tag_474\n      jump\t// in\n    tag_701:\n        /* \"#utility.yul\":14964:15038   */\n      swap2\n      pop\n        /* \"#utility.yul\":15047:15140   */\n      tag_702\n        /* \"#utility.yul\":15136:15139   */\n      dup3\n        /* \"#utility.yul\":15047:15140   */\n      tag_501\n      jump\t// in\n    tag_702:\n        /* \"#utility.yul\":15165:15167   */\n      0x40\n        /* \"#utility.yul\":15160:15163   */\n      dup3\n        /* \"#utility.yul\":15156:15168   */\n      add\n        /* \"#utility.yul\":15149:15168   */\n      swap1\n      pop\n        /* \"#utility.yul\":14808:15174   */\n      swap2\n      swap1\n      pop\n      jump\t// out\n        /* \"#utility.yul\":15180:15599   */\n    tag_144:\n        /* \"#utility.yul\":15346:15350   */\n      0x00\n        /* \"#utility.yul\":15384:15386   */\n      0x20\n        /* \"#utility.yul\":15373:15382   */\n      dup3\n        /* \"#utility.yul\":15369:15387   */\n      add\n        /* \"#utility.yul\":15361:15387   */\n      swap1\n      pop\n        /* \"#utility.yul\":15433:15442   */\n      dup2\n        /* \"#utility.yul\":15427:15431   */\n      dup2\n        /* \"#utility.yul\":15423:15443   */\n      sub\n        /* \"#utility.yul\":15419:15420   */\n      0x00\n        /* \"#utility.yul\":15408:15417   */\n      dup4\n        /* \"#utility.yul\":15404:15421   */\n      add\n        /* \"#utility.yul\":15397:15444   */\n      mstore\n        /* \"#utility.yul\":15461:15592   */\n      tag_704\n        /* \"#utility.yul\":15587:15591   */\n      dup2\n        /* \"#utility.yul\":15461:15592   */\n      tag_502\n      jump\t// in\n    tag_704:\n        /* \"#utility.yul\":15453:15592   */\n      swap1\n      pop\n        /* \"#utility.yul\":15180:15599   */\n      swap2\n      swap1\n      pop\n      jump\t// out\n        /* \"#utility.yul\":15605:15846   */\n    tag_503:\n        /* \"#utility.yul\":15745:15779   */\n      0x43616e206e6f7420616464206e6577207061727469636970616e747320776869\n        /* \"#utility.yul\":15741:15742   */\n      0x00\n        /* \"#utility.yul\":15733:15739   */\n      dup3\n        /* \"#utility.yul\":15729:15743   */\n      add\n        /* \"#utility.yul\":15722:15780   */\n      mstore\n        /* \"#utility.yul\":15814:15838   */\n      0x6c6520766f74696e6720697320676f696e67206f6e2e00000000000000000000\n        /* \"#utility.yul\":15809:15811   */\n      0x20\n        /* \"#utility.yul\":15801:15807   */\n      dup3\n        /* \"#utility.yul\":15797:15812   */\n      add\n        /* \"#utility.yul\":15790:15839   */\n      mstore\n        /* \"#utility.yul\":15605:15846   */\n      pop\n      jump\t// out\n        /* \"#utility.yul\":15852:16218   */\n    tag_504:\n        /* \"#utility.yul\":15994:15997   */\n      0x00\n        /* \"#utility.yul\":16015:16082   */\n      tag_707\n        /* \"#utility.yul\":16079:16081   */\n      0x36\n        /* \"#utility.yul\":16074:16077   */\n      dup4\n        /* \"#utility.yul\":16015:16082   */\n      tag_474\n      jump\t// in\n    tag_707:\n        /* \"#utility.yul\":16008:16082   */\n      swap2\n      pop\n        /* \"#utility.yul\":16091:16184   */\n      tag_708\n        /* \"#utility.yul\":16180:16183   */\n      dup3\n        /* \"#utility.yul\":16091:16184   */\n      tag_503\n      jump\t// in\n    tag_708:\n        /* \"#utility.yul\":16209:16211   */\n      0x40\n        /* \"#utility.yul\":16204:16207   */\n      dup3\n        /* \"#utility.yul\":16200:16212   */\n      add\n        /* \"#utility.yul\":16193:16212   */\n      swap1\n      pop\n        /* \"#utility.yul\":15852:16218   */\n      swap2\n      swap1\n      pop\n      jump\t// out\n        /* \"#utility.yul\":16224:16643   */\n    tag_149:\n        /* \"#utility.yul\":16390:16394   */\n      0x00\n        /* \"#utility.yul\":16428:16430   */\n      0x20\n        /* \"#utility.yul\":16417:16426   */\n      dup3\n        /* \"#utility.yul\":16413:16431   */\n      add\n        /* \"#utility.yul\":16405:16431   */\n      swap1\n      pop\n        /* \"#utility.yul\":16477:16486   */\n      dup2\n        /* \"#utility.yul\":16471:16475   */\n      dup2\n        /* \"#utility.yul\":16467:16487   */\n      sub\n        /* \"#utility.yul\":16463:16464   */\n      0x00\n        /* \"#utility.yul\":16452:16461   */\n      dup4\n        /* \"#utility.yul\":16448:16465   */\n      add\n        /* \"#utility.yul\":16441:16488   */\n      mstore\n        /* \"#utility.yul\":16505:16636   */\n      tag_710\n        /* \"#utility.yul\":16631:16635   */\n      dup2\n        /* \"#utility.yul\":16505:16636   */\n      tag_504\n      jump\t// in\n    tag_710:\n        /* \"#utility.yul\":16497:16636   */\n      swap1\n      pop\n        /* \"#utility.yul\":16224:16643   */\n      swap2\n      swap1\n      pop\n      jump\t// out\n        /* \"#utility.yul\":16649:16829   */\n    tag_505:\n        /* \"#utility.yul\":16789:16821   */\n      0x4f6e6c792061646d696e732063616e20636c6f7365206d6f74696f6e732e0000\n        /* \"#utility.yul\":16785:16786   */\n      0x00\n        /* \"#utility.yul\":16777:16783   */\n      dup3\n        /* \"#utility.yul\":16773:16787   */\n      add\n        /* \"#utility.yul\":16766:16822   */\n      mstore\n        /* \"#utility.yul\":16649:16829   */\n      pop\n      jump\t// out\n        /* \"#utility.yul\":16835:17201   */\n    tag_506:\n        /* \"#utility.yul\":16977:16980   */\n      0x00\n        /* \"#utility.yul\":16998:17065   */\n      tag_713\n        /* \"#utility.yul\":17062:17064   */\n      0x1e\n        /* \"#utility.yul\":17057:17060   */\n      dup4\n        /* \"#utility.yul\":16998:17065   */\n      tag_474\n      jump\t// in\n    tag_713:\n        /* \"#utility.yul\":16991:17065   */\n      swap2\n      pop\n        /* \"#utility.yul\":17074:17167   */\n      tag_714\n        /* \"#utility.yul\":17163:17166   */\n      dup3\n        /* \"#utility.yul\":17074:17167   */\n      tag_505\n      jump\t// in\n    tag_714:\n        /* \"#utility.yul\":17192:17194   */\n      0x20\n        /* \"#utility.yul\":17187:17190   */\n      dup3\n        /* \"#utility.yul\":17183:17195   */\n      add\n        /* \"#utility.yul\":17176:17195   */\n      swap1\n      pop\n        /* \"#utility.yul\":16835:17201   */\n      swap2\n      swap1\n      pop\n      jump\t// out\n        /* \"#utility.yul\":17207:17626   */\n    tag_177:\n        /* \"#utility.yul\":17373:17377   */\n      0x00\n        /* \"#utility.yul\":17411:17413   */\n      0x20\n        /* \"#utility.yul\":17400:17409   */\n      dup3\n        /* \"#utility.yul\":17396:17414   */\n      add\n        /* \"#utility.yul\":17388:17414   */\n      swap1\n      pop\n        /* \"#utility.yul\":17460:17469   */\n      dup2\n        /* \"#utility.yul\":17454:17458   */\n      dup2\n        /* \"#utility.yul\":17450:17470   */\n      sub\n        /* \"#utility.yul\":17446:17447   */\n      0x00\n        /* \"#utility.yul\":17435:17444   */\n      dup4\n        /* \"#utility.yul\":17431:17448   */\n      add\n        /* \"#utility.yul\":17424:17471   */\n      mstore\n        /* \"#utility.yul\":17488:17619   */\n      tag_716\n        /* \"#utility.yul\":17614:17618   */\n      dup2\n        /* \"#utility.yul\":17488:17619   */\n      tag_506\n      jump\t// in\n    tag_716:\n        /* \"#utility.yul\":17480:17619   */\n      swap1\n      pop\n        /* \"#utility.yul\":17207:17626   */\n      swap2\n      swap1\n      pop\n      jump\t// out\n        /* \"#utility.yul\":17632:17814   */\n    tag_507:\n        /* \"#utility.yul\":17772:17806   */\n      0x4f6e6c79206f70656e206d6f74696f6e732063616e20626520636c6f7365642e\n        /* \"#utility.yul\":17768:17769   */\n      0x00\n        /* \"#utility.yul\":17760:17766   */\n      dup3\n        /* \"#utility.yul\":17756:17770   */\n      add\n        /* \"#utility.yul\":17749:17807   */\n      mstore\n        /* \"#utility.yul\":17632:17814   */\n      pop\n      jump\t// out\n        /* \"#utility.yul\":17820:18186   */\n    tag_508:\n        /* \"#utility.yul\":17962:17965   */\n      0x00\n        /* \"#utility.yul\":17983:18050   */\n      tag_719\n        /* \"#utility.yul\":18047:18049   */\n      0x20\n        /* \"#utility.yul\":18042:18045   */\n      dup4\n        /* \"#utility.yul\":17983:18050   */\n      tag_474\n      jump\t// in\n    tag_719:\n        /* \"#utility.yul\":17976:18050   */\n      swap2\n      pop\n        /* \"#utility.yul\":18059:18152   */\n      tag_720\n        /* \"#utility.yul\":18148:18151   */\n      dup3\n        /* \"#utility.yul\":18059:18152   */\n      tag_507\n      jump\t// in\n    tag_720:\n        /* \"#utility.yul\":18177:18179   */\n      0x20\n        /* \"#utility.yul\":18172:18175   */\n      dup3\n        /* \"#utility.yul\":18168:18180   */\n      add\n        /* \"#utility.yul\":18161:18180   */\n      swap1\n      pop\n        /* \"#utility.yul\":17820:18186   */\n      swap2\n      swap1\n      pop\n      jump\t// out\n        /* \"#utility.yul\":18192:18611   */\n    tag_187:\n        /* \"#utility.yul\":18358:18362   */\n      0x00\n        /* \"#utility.yul\":18396:18398   */\n      0x20\n        /* \"#utility.yul\":18385:18394   */\n      dup3\n        /* \"#utility.yul\":18381:18399   */\n      add\n        /* \"#utility.yul\":18373:18399   */\n      swap1\n      pop\n        /* \"#utility.yul\":18445:18454   */\n      dup2\n        /* \"#utility.yul\":18439:18443   */\n      dup2\n        /* \"#utility.yul\":18435:18455   */\n      sub\n        /* \"#utility.yul\":18431:18432   */\n      0x00\n        /* \"#utility.yul\":18420:18429   */\n      dup4\n        /* \"#utility.yul\":18416:18433   */\n      add\n        /* \"#utility.yul\":18409:18456   */\n      mstore\n        /* \"#utility.yul\":18473:18604   */\n      tag_722\n        /* \"#utility.yul\":18599:18603   */\n      dup2\n        /* \"#utility.yul\":18473:18604   */\n      tag_508\n      jump\t// in\n    tag_722:\n        /* \"#utility.yul\":18465:18604   */\n      swap1\n      pop\n        /* \"#utility.yul\":18192:18611   */\n      swap2\n      swap1\n      pop\n      jump\t// out\n        /* \"#utility.yul\":18617:18859   */\n    tag_509:\n        /* \"#utility.yul\":18757:18791   */\n      0x4f6e6c7920287265706c6163656d656e742964656c6567617465732063616e20\n        /* \"#utility.yul\":18753:18754   */\n      0x00\n        /* \"#utility.yul\":18745:18751   */\n      dup3\n        /* \"#utility.yul\":18741:18755   */\n      add\n        /* \"#utility.yul\":18734:18792   */\n      mstore\n        /* \"#utility.yul\":18826:18851   */\n      0x7472616e7366657220766f74696e67207269676874732e000000000000000000\n        /* \"#utility.yul\":18821:18823   */\n      0x20\n        /* \"#utility.yul\":18813:18819   */\n      dup3\n        /* \"#utility.yul\":18809:18824   */\n      add\n        /* \"#utility.yul\":18802:18852   */\n      mstore\n        /* \"#utility.yul\":18617:18859   */\n      pop\n      jump\t// out\n        /* \"#utility.yul\":18865:19231   */\n    tag_510:\n        /* \"#utility.yul\":19007:19010   */\n      0x00\n        /* \"#utility.yul\":19028:19095   */\n      tag_725\n        /* \"#utility.yul\":19092:19094   */\n      0x37\n        /* \"#utility.yul\":19087:19090   */\n      dup4\n        /* \"#utility.yul\":19028:19095   */\n      tag_474\n      jump\t// in\n    tag_725:\n        /* \"#utility.yul\":19021:19095   */\n      swap2\n      pop\n        /* \"#utility.yul\":19104:19197   */\n      tag_726\n        /* \"#utility.yul\":19193:19196   */\n      dup3\n        /* \"#utility.yul\":19104:19197   */\n      tag_509\n      jump\t// in\n    tag_726:\n        /* \"#utility.yul\":19222:19224   */\n      0x40\n        /* \"#utility.yul\":19217:19220   */\n      dup3\n        /* \"#utility.yul\":19213:19225   */\n      add\n        /* \"#utility.yul\":19206:19225   */\n      swap1\n      pop\n        /* \"#utility.yul\":18865:19231   */\n      swap2\n      swap1\n      pop\n      jump\t// out\n        /* \"#utility.yul\":19237:19656   */\n    tag_200:\n        /* \"#utility.yul\":19403:19407   */\n      0x00\n        /* \"#utility.yul\":19441:19443   */\n      0x20\n        /* \"#utility.yul\":19430:19439   */\n      dup3\n        /* \"#utility.yul\":19426:19444   */\n      add\n        /* \"#utility.yul\":19418:19444   */\n      swap1\n      pop\n        /* \"#utility.yul\":19490:19499   */\n      dup2\n        /* \"#utility.yul\":19484:19488   */\n      dup2\n        /* \"#utility.yul\":19480:19500   */\n      sub\n        /* \"#utility.yul\":19476:19477   */\n      0x00\n        /* \"#utility.yul\":19465:19474   */\n      dup4\n        /* \"#utility.yul\":19461:19478   */\n      add\n        /* \"#utility.yul\":19454:19501   */\n      mstore\n        /* \"#utility.yul\":19518:19649   */\n      tag_728\n        /* \"#utility.yul\":19644:19648   */\n      dup2\n        /* \"#utility.yul\":19518:19649   */\n      tag_510\n      jump\t// in\n    tag_728:\n        /* \"#utility.yul\":19510:19649   */\n      swap1\n      pop\n        /* \"#utility.yul\":19237:19656   */\n      swap2\n      swap1\n      pop\n      jump\t// out\n        /* \"#utility.yul\":19662:19903   */\n    tag_511:\n        /* \"#utility.yul\":19802:19836   */\n      0x4f6e6c7920287265706c6163656d656e742964656c6567617465732063616e20\n        /* \"#utility.yul\":19798:19799   */\n      0x00\n        /* \"#utility.yul\":19790:19796   */\n      dup3\n        /* \"#utility.yul\":19786:19800   */\n      add\n        /* \"#utility.yul\":19779:19837   */\n      mstore\n        /* \"#utility.yul\":19871:19895   */\n      0x7265636569766520766f74696e67207269676874732e00000000000000000000\n        /* \"#utility.yul\":19866:19868   */\n      0x20\n        /* \"#utility.yul\":19858:19864   */\n      dup3\n        /* \"#utility.yul\":19854:19869   */\n      add\n        /* \"#utility.yul\":19847:19896   */\n      mstore\n        /* \"#utility.yul\":19662:19903   */\n      pop\n      jump\t// out\n        /* \"#utility.yul\":19909:20275   */\n    tag_512:\n        /* \"#utility.yul\":20051:20054   */\n      0x00\n        /* \"#utility.yul\":20072:20139   */\n      tag_731\n        /* \"#utility.yul\":20136:20138   */\n      0x36\n        /* \"#utility.yul\":20131:20134   */\n      dup4\n        /* \"#utility.yul\":20072:20139   */\n      tag_474\n      jump\t// in\n    tag_731:\n        /* \"#utility.yul\":20065:20139   */\n      swap2\n      pop\n        /* \"#utility.yul\":20148:20241   */\n      tag_732\n        /* \"#utility.yul\":20237:20240   */\n      dup3\n        /* \"#utility.yul\":20148:20241   */\n      tag_511\n      jump\t// in\n    tag_732:\n        /* \"#utility.yul\":20266:20268   */\n      0x40\n        /* \"#utility.yul\":20261:20264   */\n      dup3\n        /* \"#utility.yul\":20257:20269   */\n      add\n        /* \"#utility.yul\":20250:20269   */\n      swap1\n      pop\n        /* \"#utility.yul\":19909:20275   */\n      swap2\n      swap1\n      pop\n      jump\t// out\n        /* \"#utility.yul\":20281:20700   */\n    tag_207:\n        /* \"#utility.yul\":20447:20451   */\n      0x00\n        /* \"#utility.yul\":20485:20487   */\n      0x20\n        /* \"#utility.yul\":20474:20483   */\n      dup3\n        /* \"#utility.yul\":20470:20488   */\n      add\n        /* \"#utility.yul\":20462:20488   */\n      swap1\n      pop\n        /* \"#utility.yul\":20534:20543   */\n      dup2\n        /* \"#utility.yul\":20528:20532   */\n      dup2\n        /* \"#utility.yul\":20524:20544   */\n      sub\n        /* \"#utility.yul\":20520:20521   */\n      0x00\n        /* \"#utility.yul\":20509:20518   */\n      dup4\n        /* \"#utility.yul\":20505:20522   */\n      add\n        /* \"#utility.yul\":20498:20545   */\n      mstore\n        /* \"#utility.yul\":20562:20693   */\n      tag_734\n        /* \"#utility.yul\":20688:20692   */\n      dup2\n        /* \"#utility.yul\":20562:20693   */\n      tag_512\n      jump\t// in\n    tag_734:\n        /* \"#utility.yul\":20554:20693   */\n      swap1\n      pop\n        /* \"#utility.yul\":20281:20700   */\n      swap2\n      swap1\n      pop\n      jump\t// out\n        /* \"#utility.yul\":20706:20941   */\n    tag_513:\n        /* \"#utility.yul\":20846:20880   */\n      0x4d6573736167652073656e64657220646f6573206e6f7420686f6c6420616e79\n        /* \"#utility.yul\":20842:20843   */\n      0x00\n        /* \"#utility.yul\":20834:20840   */\n      dup3\n        /* \"#utility.yul\":20830:20844   */\n      add\n        /* \"#utility.yul\":20823:20881   */\n      mstore\n        /* \"#utility.yul\":20915:20933   */\n      0x20766f74696e6720726967687420312e00000000000000000000000000000000\n        /* \"#utility.yul\":20910:20912   */\n      0x20\n        /* \"#utility.yul\":20902:20908   */\n      dup3\n        /* \"#utility.yul\":20898:20913   */\n      add\n        /* \"#utility.yul\":20891:20934   */\n      mstore\n        /* \"#utility.yul\":20706:20941   */\n      pop\n      jump\t// out\n        /* \"#utility.yul\":20947:21313   */\n    tag_514:\n        /* \"#utility.yul\":21089:21092   */\n      0x00\n        /* \"#utility.yul\":21110:21177   */\n      tag_737\n        /* \"#utility.yul\":21174:21176   */\n      0x30\n        /* \"#utility.yul\":21169:21172   */\n      dup4\n        /* \"#utility.yul\":21110:21177   */\n      tag_474\n      jump\t// in\n    tag_737:\n        /* \"#utility.yul\":21103:21177   */\n      swap2\n      pop\n        /* \"#utility.yul\":21186:21279   */\n      tag_738\n        /* \"#utility.yul\":21275:21278   */\n      dup3\n        /* \"#utility.yul\":21186:21279   */\n      tag_513\n      jump\t// in\n    tag_738:\n        /* \"#utility.yul\":21304:21306   */\n      0x40\n        /* \"#utility.yul\":21299:21302   */\n      dup3\n        /* \"#utility.yul\":21295:21307   */\n      add\n        /* \"#utility.yul\":21288:21307   */\n      swap1\n      pop\n        /* \"#utility.yul\":20947:21313   */\n      swap2\n      swap1\n      pop\n      jump\t// out\n        /* \"#utility.yul\":21319:21738   */\n    tag_210:\n        /* \"#utility.yul\":21485:21489   */\n      0x00\n        /* \"#utility.yul\":21523:21525   */\n      0x20\n        /* \"#utility.yul\":21512:21521   */\n      dup3\n        /* \"#utility.yul\":21508:21526   */\n      add\n        /* \"#utility.yul\":21500:21526   */\n      swap1\n      pop\n        /* \"#utility.yul\":21572:21581   */\n      dup2\n        /* \"#utility.yul\":21566:21570   */\n      dup2\n        /* \"#utility.yul\":21562:21582   */\n      sub\n        /* \"#utility.yul\":21558:21559   */\n      0x00\n        /* \"#utility.yul\":21547:21556   */\n      dup4\n        /* \"#utility.yul\":21543:21560   */\n      add\n        /* \"#utility.yul\":21536:21583   */\n      mstore\n        /* \"#utility.yul\":21600:21731   */\n      tag_740\n        /* \"#utility.yul\":21726:21730   */\n      dup2\n        /* \"#utility.yul\":21600:21731   */\n      tag_514\n      jump\t// in\n    tag_740:\n        /* \"#utility.yul\":21592:21731   */\n      swap1\n      pop\n        /* \"#utility.yul\":21319:21738   */\n      swap2\n      swap1\n      pop\n      jump\t// out\n        /* \"#utility.yul\":21744:22034   */\n    tag_515:\n        /* \"#utility.yul\":21884:21918   */\n      0x526563656976696e6720287265706c6163656d656e742964656c656761746520\n        /* \"#utility.yul\":21880:21881   */\n      0x00\n        /* \"#utility.yul\":21872:21878   */\n      dup3\n        /* \"#utility.yul\":21868:21882   */\n      add\n        /* \"#utility.yul\":21861:21919   */\n      mstore\n        /* \"#utility.yul\":21953:21987   */\n      0x68617320616c726561647920322061637469766520766f74696e672072696768\n        /* \"#utility.yul\":21948:21950   */\n      0x20\n        /* \"#utility.yul\":21940:21946   */\n      dup3\n        /* \"#utility.yul\":21936:21951   */\n      add\n        /* \"#utility.yul\":21929:21988   */\n      mstore\n        /* \"#utility.yul\":22022:22026   */\n      0x7473000000000000000000000000000000000000000000000000000000000000\n        /* \"#utility.yul\":22017:22019   */\n      0x40\n        /* \"#utility.yul\":22009:22015   */\n      dup3\n        /* \"#utility.yul\":22005:22020   */\n      add\n        /* \"#utility.yul\":21998:22027   */\n      mstore\n        /* \"#utility.yul\":21744:22034   */\n      pop\n      jump\t// out\n        /* \"#utility.yul\":22040:22406   */\n    tag_516:\n        /* \"#utility.yul\":22182:22185   */\n      0x00\n        /* \"#utility.yul\":22203:22270   */\n      tag_743\n        /* \"#utility.yul\":22267:22269   */\n      0x42\n        /* \"#utility.yul\":22262:22265   */\n      dup4\n        /* \"#utility.yul\":22203:22270   */\n      tag_474\n      jump\t// in\n    tag_743:\n        /* \"#utility.yul\":22196:22270   */\n      swap2\n      pop\n        /* \"#utility.yul\":22279:22372   */\n      tag_744\n        /* \"#utility.yul\":22368:22371   */\n      dup3\n        /* \"#utility.yul\":22279:22372   */\n      tag_515\n      jump\t// in\n    tag_744:\n        /* \"#utility.yul\":22397:22399   */\n      0x60\n        /* \"#utility.yul\":22392:22395   */\n      dup3\n        /* \"#utility.yul\":22388:22400   */\n      add\n        /* \"#utility.yul\":22381:22400   */\n      swap1\n      pop\n        /* \"#utility.yul\":22040:22406   */\n      swap2\n      swap1\n      pop\n      jump\t// out\n        /* \"#utility.yul\":22412:22831   */\n    tag_214:\n        /* \"#utility.yul\":22578:22582   */\n      0x00\n        /* \"#utility.yul\":22616:22618   */\n      0x20\n        /* \"#utility.yul\":22605:22614   */\n      dup3\n        /* \"#utility.yul\":22601:22619   */\n      add\n        /* \"#utility.yul\":22593:22619   */\n      swap1\n      pop\n        /* \"#utility.yul\":22665:22674   */\n      dup2\n        /* \"#utility.yul\":22659:22663   */\n      dup2\n        /* \"#utility.yul\":22655:22675   */\n      sub\n        /* \"#utility.yul\":22651:22652   */\n      0x00\n        /* \"#utility.yul\":22640:22649   */\n      dup4\n        /* \"#utility.yul\":22636:22653   */\n      add\n        /* \"#utility.yul\":22629:22676   */\n      mstore\n        /* \"#utility.yul\":22693:22824   */\n      tag_746\n        /* \"#utility.yul\":22819:22823   */\n      dup2\n        /* \"#utility.yul\":22693:22824   */\n      tag_516\n      jump\t// in\n    tag_746:\n        /* \"#utility.yul\":22685:22824   */\n      swap1\n      pop\n        /* \"#utility.yul\":22412:22831   */\n      swap2\n      swap1\n      pop\n      jump\t// out\n        /* \"#utility.yul\":22837:23075   */\n    tag_517:\n        /* \"#utility.yul\":22977:23011   */\n      0x43616e206e6f74207472616e7366657220766f74657320647572696e67206f70\n        /* \"#utility.yul\":22973:22974   */\n      0x00\n        /* \"#utility.yul\":22965:22971   */\n      dup3\n        /* \"#utility.yul\":22961:22975   */\n      add\n        /* \"#utility.yul\":22954:23012   */\n      mstore\n        /* \"#utility.yul\":23046:23067   */\n      0x656e20766f74696e672070726f63657373657300000000000000000000000000\n        /* \"#utility.yul\":23041:23043   */\n      0x20\n        /* \"#utility.yul\":23033:23039   */\n      dup3\n        /* \"#utility.yul\":23029:23044   */\n      add\n        /* \"#utility.yul\":23022:23068   */\n      mstore\n        /* \"#utility.yul\":22837:23075   */\n      pop\n      jump\t// out\n        /* \"#utility.yul\":23081:23447   */\n    tag_518:\n        /* \"#utility.yul\":23223:23226   */\n      0x00\n        /* \"#utility.yul\":23244:23311   */\n      tag_749\n        /* \"#utility.yul\":23308:23310   */\n      0x33\n        /* \"#utility.yul\":23303:23306   */\n      dup4\n        /* \"#utility.yul\":23244:23311   */\n      tag_474\n      jump\t// in\n    tag_749:\n        /* \"#utility.yul\":23237:23311   */\n      swap2\n      pop\n        /* \"#utility.yul\":23320:23413   */\n      tag_750\n        /* \"#utility.yul\":23409:23412   */\n      dup3\n        /* \"#utility.yul\":23320:23413   */\n      tag_517\n      jump\t// in\n    tag_750:\n        /* \"#utility.yul\":23438:23440   */\n      0x40\n        /* \"#utility.yul\":23433:23436   */\n      dup3\n        /* \"#utility.yul\":23429:23441   */\n      add\n        /* \"#utility.yul\":23422:23441   */\n      swap1\n      pop\n        /* \"#utility.yul\":23081:23447   */\n      swap2\n      swap1\n      pop\n      jump\t// out\n        /* \"#utility.yul\":23453:23872   */\n    tag_218:\n        /* \"#utility.yul\":23619:23623   */\n      0x00\n        /* \"#utility.yul\":23657:23659   */\n      0x20\n        /* \"#utility.yul\":23646:23655   */\n      dup3\n        /* \"#utility.yul\":23642:23660   */\n      add\n        /* \"#utility.yul\":23634:23660   */\n      swap1\n      pop\n        /* \"#utility.yul\":23706:23715   */\n      dup2\n        /* \"#utility.yul\":23700:23704   */\n      dup2\n        /* \"#utility.yul\":23696:23716   */\n      sub\n        /* \"#utility.yul\":23692:23693   */\n      0x00\n        /* \"#utility.yul\":23681:23690   */\n      dup4\n        /* \"#utility.yul\":23677:23694   */\n      add\n        /* \"#utility.yul\":23670:23717   */\n      mstore\n        /* \"#utility.yul\":23734:23865   */\n      tag_752\n        /* \"#utility.yul\":23860:23864   */\n      dup2\n        /* \"#utility.yul\":23734:23865   */\n      tag_518\n      jump\t// in\n    tag_752:\n        /* \"#utility.yul\":23726:23865   */\n      swap1\n      pop\n        /* \"#utility.yul\":23453:23872   */\n      swap2\n      swap1\n      pop\n      jump\t// out\n        /* \"#utility.yul\":23878:24112   */\n    tag_519:\n        /* \"#utility.yul\":24018:24052   */\n      0x4f6e6c79207061727479206d656d626572732063616e20637265617465206120\n        /* \"#utility.yul\":24014:24015   */\n      0x00\n        /* \"#utility.yul\":24006:24012   */\n      dup3\n        /* \"#utility.yul\":24002:24016   */\n      add\n        /* \"#utility.yul\":23995:24053   */\n      mstore\n        /* \"#utility.yul\":24087:24104   */\n      0x726567756c6172206d6f74696f6e2e0000000000000000000000000000000000\n        /* \"#utility.yul\":24082:24084   */\n      0x20\n        /* \"#utility.yul\":24074:24080   */\n      dup3\n        /* \"#utility.yul\":24070:24085   */\n      add\n        /* \"#utility.yul\":24063:24105   */\n      mstore\n        /* \"#utility.yul\":23878:24112   */\n      pop\n      jump\t// out\n        /* \"#utility.yul\":24118:24484   */\n    tag_520:\n        /* \"#utility.yul\":24260:24263   */\n      0x00\n        /* \"#utility.yul\":24281:24348   */\n      tag_755\n        /* \"#utility.yul\":24345:24347   */\n      0x2f\n        /* \"#utility.yul\":24340:24343   */\n      dup4\n        /* \"#utility.yul\":24281:24348   */\n      tag_474\n      jump\t// in\n    tag_755:\n        /* \"#utility.yul\":24274:24348   */\n      swap2\n      pop\n        /* \"#utility.yul\":24357:24450   */\n      tag_756\n        /* \"#utility.yul\":24446:24449   */\n      dup3\n        /* \"#utility.yul\":24357:24450   */\n      tag_519\n      jump\t// in\n    tag_756:\n        /* \"#utility.yul\":24475:24477   */\n      0x40\n        /* \"#utility.yul\":24470:24473   */\n      dup3\n        /* \"#utility.yul\":24466:24478   */\n      add\n        /* \"#utility.yul\":24459:24478   */\n      swap1\n      pop\n        /* \"#utility.yul\":24118:24484   */\n      swap2\n      swap1\n      pop\n      jump\t// out\n        /* \"#utility.yul\":24490:24909   */\n    tag_228:\n        /* \"#utility.yul\":24656:24660   */\n      0x00\n        /* \"#utility.yul\":24694:24696   */\n      0x20\n        /* \"#utility.yul\":24683:24692   */\n      dup3\n        /* \"#utility.yul\":24679:24697   */\n      add\n        /* \"#utility.yul\":24671:24697   */\n      swap1\n      pop\n        /* \"#utility.yul\":24743:24752   */\n      dup2\n        /* \"#utility.yul\":24737:24741   */\n      dup2\n        /* \"#utility.yul\":24733:24753   */\n      sub\n        /* \"#utility.yul\":24729:24730   */\n      0x00\n        /* \"#utility.yul\":24718:24727   */\n      dup4\n        /* \"#utility.yul\":24714:24731   */\n      add\n        /* \"#utility.yul\":24707:24754   */\n      mstore\n        /* \"#utility.yul\":24771:24902   */\n      tag_758\n        /* \"#utility.yul\":24897:24901   */\n      dup2\n        /* \"#utility.yul\":24771:24902   */\n      tag_520\n      jump\t// in\n    tag_758:\n        /* \"#utility.yul\":24763:24902   */\n      swap1\n      pop\n        /* \"#utility.yul\":24490:24909   */\n      swap2\n      swap1\n      pop\n      jump\t// out\n        /* \"#utility.yul\":24915:25154   */\n    tag_521:\n        /* \"#utility.yul\":25055:25089   */\n      0x43616e206e6f7420637265617465206e6577206d6f74696f6e73207768696c65\n        /* \"#utility.yul\":25051:25052   */\n      0x00\n        /* \"#utility.yul\":25043:25049   */\n      dup3\n        /* \"#utility.yul\":25039:25053   */\n      add\n        /* \"#utility.yul\":25032:25090   */\n      mstore\n        /* \"#utility.yul\":25124:25146   */\n      0x20766f74696e6720697320676f696e67206f6e2e000000000000000000000000\n        /* \"#utility.yul\":25119:25121   */\n      0x20\n        /* \"#utility.yul\":25111:25117   */\n      dup3\n        /* \"#utility.yul\":25107:25122   */\n      add\n        /* \"#utility.yul\":25100:25147   */\n      mstore\n        /* \"#utility.yul\":24915:25154   */\n      pop\n      jump\t// out\n        /* \"#utility.yul\":25160:25526   */\n    tag_522:\n        /* \"#utility.yul\":25302:25305   */\n      0x00\n        /* \"#utility.yul\":25323:25390   */\n      tag_761\n        /* \"#utility.yul\":25387:25389   */\n      0x34\n        /* \"#utility.yul\":25382:25385   */\n      dup4\n        /* \"#utility.yul\":25323:25390   */\n      tag_474\n      jump\t// in\n    tag_761:\n        /* \"#utility.yul\":25316:25390   */\n      swap2\n      pop\n        /* \"#utility.yul\":25399:25492   */\n      tag_762\n        /* \"#utility.yul\":25488:25491   */\n      dup3\n        /* \"#utility.yul\":25399:25492   */\n      tag_521\n      jump\t// in\n    tag_762:\n        /* \"#utility.yul\":25517:25519   */\n      0x40\n        /* \"#utility.yul\":25512:25515   */\n      dup3\n        /* \"#utility.yul\":25508:25520   */\n      add\n        /* \"#utility.yul\":25501:25520   */\n      swap1\n      pop\n        /* \"#utility.yul\":25160:25526   */\n      swap2\n      swap1\n      pop\n      jump\t// out\n        /* \"#utility.yul\":25532:25951   */\n    tag_232:\n        /* \"#utility.yul\":25698:25702   */\n      0x00\n        /* \"#utility.yul\":25736:25738   */\n      0x20\n        /* \"#utility.yul\":25725:25734   */\n      dup3\n        /* \"#utility.yul\":25721:25739   */\n      add\n        /* \"#utility.yul\":25713:25739   */\n      swap1\n      pop\n        /* \"#utility.yul\":25785:25794   */\n      dup2\n        /* \"#utility.yul\":25779:25783   */\n      dup2\n        /* \"#utility.yul\":25775:25795   */\n      sub\n        /* \"#utility.yul\":25771:25772   */\n      0x00\n        /* \"#utility.yul\":25760:25769   */\n      dup4\n        /* \"#utility.yul\":25756:25773   */\n      add\n        /* \"#utility.yul\":25749:25796   */\n      mstore\n        /* \"#utility.yul\":25813:25944   */\n      tag_764\n        /* \"#utility.yul\":25939:25943   */\n      dup2\n        /* \"#utility.yul\":25813:25944   */\n      tag_522\n      jump\t// in\n    tag_764:\n        /* \"#utility.yul\":25805:25944   */\n      swap1\n      pop\n        /* \"#utility.yul\":25532:25951   */\n      swap2\n      swap1\n      pop\n      jump\t// out\n        /* \"#utility.yul\":25957:26098   */\n    tag_523:\n        /* \"#utility.yul\":26006:26010   */\n      0x00\n        /* \"#utility.yul\":26029:26032   */\n      dup2\n        /* \"#utility.yul\":26021:26032   */\n      swap1\n      pop\n        /* \"#utility.yul\":26052:26055   */\n      dup2\n        /* \"#utility.yul\":26049:26050   */\n      0x00\n        /* \"#utility.yul\":26042:26056   */\n      mstore\n        /* \"#utility.yul\":26086:26090   */\n      0x20\n        /* \"#utility.yul\":26083:26084   */\n      0x00\n        /* \"#utility.yul\":26073:26091   */\n      keccak256\n        /* \"#utility.yul\":26065:26091   */\n      swap1\n      pop\n        /* \"#utility.yul\":25957:26098   */\n      swap2\n      swap1\n      pop\n      jump\t// out\n        /* \"#utility.yul\":26104:26197   */\n    tag_524:\n        /* \"#utility.yul\":26141:26147   */\n      0x00\n        /* \"#utility.yul\":26188:26190   */\n      0x20\n        /* \"#utility.yul\":26183:26185   */\n      0x1f\n        /* \"#utility.yul\":26176:26181   */\n      dup4\n        /* \"#utility.yul\":26172:26186   */\n      add\n        /* \"#utility.yul\":26168:26191   */\n      div\n        /* \"#utility.yul\":26158:26191   */\n      swap1\n      pop\n        /* \"#utility.yul\":26104:26197   */\n      swap2\n      swap1\n      pop\n      jump\t// out\n        /* \"#utility.yul\":26203:26310   */\n    tag_525:\n        /* \"#utility.yul\":26247:26255   */\n      0x00\n        /* \"#utility.yul\":26297:26302   */\n      dup3\n        /* \"#utility.yul\":26291:26295   */\n      dup3\n        /* \"#utility.yul\":26287:26303   */\n      shl\n        /* \"#utility.yul\":26266:26303   */\n      swap1\n      pop\n        /* \"#utility.yul\":26203:26310   */\n      swap3\n      swap2\n      pop\n      pop\n      jump\t// out\n        /* \"#utility.yul\":26316:26709   */\n    tag_526:\n        /* \"#utility.yul\":26385:26391   */\n      0x00\n        /* \"#utility.yul\":26435:26436   */\n      0x08\n        /* \"#utility.yul\":26423:26433   */\n      dup4\n        /* \"#utility.yul\":26419:26437   */\n      mul\n        /* \"#utility.yul\":26458:26555   */\n      tag_769\n        /* \"#utility.yul\":26488:26554   */\n      0xffffffffffffffffffffffffffffffffffffffffffffffffffffffffffffffff\n        /* \"#utility.yul\":26477:26486   */\n      dup3\n        /* \"#utility.yul\":26458:26555   */\n      tag_525\n      jump\t// in\n    tag_769:\n        /* \"#utility.yul\":26576:26615   */\n      tag_770\n        /* \"#utility.yul\":26606:26614   */\n      dup7\n        /* \"#utility.yul\":26595:26604   */\n      dup4\n        /* \"#utility.yul\":26576:26615   */\n      tag_525\n      jump\t// in\n    tag_770:\n        /* \"#utility.yul\":26564:26615   */\n      swap6\n      pop\n        /* \"#utility.yul\":26648:26652   */\n      dup1\n        /* \"#utility.yul\":26644:26653   */\n      not\n        /* \"#utility.yul\":26637:26642   */\n      dup5\n        /* \"#utility.yul\":26633:26654   */\n      and\n        /* \"#utility.yul\":26624:26654   */\n      swap4\n      pop\n        /* \"#utility.yul\":26697:26701   */\n      dup1\n        /* \"#utility.yul\":26687:26695   */\n      dup7\n        /* \"#utility.yul\":26683:26702   */\n      and\n        /* \"#utility.yul\":26676:26681   */\n      dup5\n        /* \"#utility.yul\":26673:26703   */\n      or\n        /* \"#utility.yul\":26663:26703   */\n      swap3\n      pop\n        /* \"#utility.yul\":26392:26709   */\n      pop\n      pop\n        /* \"#utility.yul\":26316:26709   */\n      swap4\n      swap3\n      pop\n      pop\n      pop\n      jump\t// out\n        /* \"#utility.yul\":26715:26775   */\n    tag_527:\n        /* \"#utility.yul\":26743:26746   */\n      0x00\n        /* \"#utility.yul\":26764:26769   */\n      dup2\n        /* \"#utility.yul\":26757:26769   */\n      swap1\n      pop\n        /* \"#utility.yul\":26715:26775   */\n      swap2\n      swap1\n      pop\n      jump\t// out\n        /* \"#utility.yul\":26781:26923   */\n    tag_528:\n        /* \"#utility.yul\":26831:26840   */\n      0x00\n        /* \"#utility.yul\":26864:26917   */\n      tag_773\n        /* \"#utility.yul\":26882:26916   */\n      tag_774\n        /* \"#utility.yul\":26891:26915   */\n      tag_775\n        /* \"#utility.yul\":26909:26914   */\n      dup5\n        /* \"#utility.yul\":26891:26915   */\n      tag_470\n      jump\t// in\n    tag_775:\n        /* \"#utility.yul\":26882:26916   */\n      tag_527\n      jump\t// in\n    tag_774:\n        /* \"#utility.yul\":26864:26917   */\n      tag_470\n      jump\t// in\n    tag_773:\n        /* \"#utility.yul\":26851:26917   */\n      swap1\n      pop\n        /* \"#utility.yul\":26781:26923   */\n      swap2\n      swap1\n      pop\n      jump\t// out\n        /* \"#utility.yul\":26929:27004   */\n    tag_529:\n        /* \"#utility.yul\":26972:26975   */\n      0x00\n        /* \"#utility.yul\":26993:26998   */\n      dup2\n        /* \"#utility.yul\":26986:26998   */\n      swap1\n      pop\n        /* \"#utility.yul\":26929:27004   */\n      swap2\n      swap1\n      pop\n      jump\t// out\n        /* \"#utility.yul\":27010:27279   */\n    tag_530:\n        /* \"#utility.yul\":27120:27159   */\n      tag_778\n        /* \"#utility.yul\":27151:27158   */\n      dup4\n        /* \"#utility.yul\":27120:27159   */\n      tag_528\n      jump\t// in\n    tag_778:\n        /* \"#utility.yul\":27181:27272   */\n      tag_779\n        /* \"#utility.yul\":27230:27271   */\n      tag_780\n        /* \"#utility.yul\":27254:27270   */\n      dup3\n        /* \"#utility.yul\":27230:27271   */\n      tag_529\n      jump\t// in\n    tag_780:\n        /* \"#utility.yul\":27222:27228   */\n      dup5\n        /* \"#utility.yul\":27215:27219   */\n      dup5\n        /* \"#utility.yul\":27209:27220   */\n      sload\n        /* \"#utility.yul\":27181:27272   */\n      tag_526\n      jump\t// in\n    tag_779:\n        /* \"#utility.yul\":27175:27179   */\n      dup3\n        /* \"#utility.yul\":27168:27273   */\n      sstore\n        /* \"#utility.yul\":27086:27279   */\n      pop\n        /* \"#utility.yul\":27010:27279   */\n      pop\n      pop\n      pop\n      jump\t// out\n        /* \"#utility.yul\":27285:27358   */\n    tag_531:\n        /* \"#utility.yul\":27330:27333   */\n      0x00\n        /* \"#utility.yul\":27285:27358   */\n      swap1\n      jump\t// out\n        /* \"#utility.yul\":27364:27553   */\n    tag_532:\n        /* \"#utility.yul\":27441:27473   */\n      tag_783\n      tag_531\n      jump\t// in\n    tag_783:\n        /* \"#utility.yul\":27482:27547   */\n      tag_784\n        /* \"#utility.yul\":27540:27546   */\n      dup2\n        /* \"#utility.yul\":27532:27538   */\n      dup5\n        /* \"#utility.yul\":27526:27530   */\n      dup5\n        /* \"#utility.yul\":27482:27547   */\n      tag_530\n      jump\t// in\n    tag_784:\n        /* \"#utility.yul\":27417:27553   */\n      pop\n        /* \"#utility.yul\":27364:27553   */\n      pop\n      pop\n      jump\t// out\n        /* \"#utility.yul\":27559:27745   */\n    tag_533:\n        /* \"#utility.yul\":27619:27739   */\n    tag_786:\n        /* \"#utility.yul\":27636:27639   */\n      dup2\n        /* \"#utility.yul\":27629:27634   */\n      dup2\n        /* \"#utility.yul\":27626:27640   */\n      lt\n        /* \"#utility.yul\":27619:27739   */\n      iszero\n      tag_788\n      jumpi\n        /* \"#utility.yul\":27690:27729   */\n      tag_789\n        /* \"#utility.yul\":27727:27728   */\n      0x00\n        /* \"#utility.yul\":27720:27725   */\n      dup3\n        /* \"#utility.yul\":27690:27729   */\n      tag_532\n      jump\t// in\n    tag_789:\n        /* \"#utility.yul\":27663:27664   */\n      0x01\n        /* \"#utility.yul\":27656:27661   */\n      dup2\n        /* \"#utility.yul\":27652:27665   */\n      add\n        /* \"#utility.yul\":27643:27665   */\n      swap1\n      pop\n        /* \"#utility.yul\":27619:27739   */\n      jump(tag_786)\n    tag_788:\n        /* \"#utility.yul\":27559:27745   */\n      pop\n      pop\n      jump\t// out\n        /* \"#utility.yul\":27751:28294   */\n    tag_534:\n        /* \"#utility.yul\":27852:27854   */\n      0x1f\n        /* \"#utility.yul\":27847:27850   */\n      dup3\n        /* \"#utility.yul\":27844:27855   */\n      gt\n        /* \"#utility.yul\":27841:28287   */\n      iszero\n      tag_791\n      jumpi\n        /* \"#utility.yul\":27886:27924   */\n      tag_792\n        /* \"#utility.yul\":27918:27923   */\n      dup2\n        /* \"#utility.yul\":27886:27924   */\n      tag_523\n      jump\t// in\n    tag_792:\n        /* \"#utility.yul\":27970:27999   */\n      tag_793\n        /* \"#utility.yul\":27988:27998   */\n      dup5\n        /* \"#utility.yul\":27970:27999   */\n      tag_524\n      jump\t// in\n    tag_793:\n        /* \"#utility.yul\":27960:27968   */\n      dup2\n        /* \"#utility.yul\":27956:28000   */\n      add\n        /* \"#utility.yul\":28153:28155   */\n      0x20\n        /* \"#utility.yul\":28141:28151   */\n      dup6\n        /* \"#utility.yul\":28138:28156   */\n      lt\n        /* \"#utility.yul\":28135:28184   */\n      iszero\n      tag_794\n      jumpi\n        /* \"#utility.yul\":28174:28182   */\n      dup2\n        /* \"#utility.yul\":28159:28182   */\n      swap1\n      pop\n        /* \"#utility.yul\":28135:28184   */\n    tag_794:\n        /* \"#utility.yul\":28197:28277   */\n      tag_795\n        /* \"#utility.yul\":28253:28275   */\n      tag_796\n        /* \"#utility.yul\":28271:28274   */\n      dup6\n        /* \"#utility.yul\":28253:28275   */\n      tag_524\n      jump\t// in\n    tag_796:\n        /* \"#utility.yul\":28243:28251   */\n      dup4\n        /* \"#utility.yul\":28239:28276   */\n      add\n        /* \"#utility.yul\":28226:28237   */\n      dup3\n        /* \"#utility.yul\":28197:28277   */\n      tag_533\n      jump\t// in\n    tag_795:\n        /* \"#utility.yul\":27856:28287   */\n      pop\n      pop\n        /* \"#utility.yul\":27841:28287   */\n    tag_791:\n        /* \"#utility.yul\":27751:28294   */\n      pop\n      pop\n      pop\n      jump\t// out\n        /* \"#utility.yul\":28300:28417   */\n    tag_535:\n        /* \"#utility.yul\":28354:28362   */\n      0x00\n        /* \"#utility.yul\":28404:28409   */\n      dup3\n        /* \"#utility.yul\":28398:28402   */\n      dup3\n        /* \"#utility.yul\":28394:28410   */\n      shr\n        /* \"#utility.yul\":28373:28410   */\n      swap1\n      pop\n        /* \"#utility.yul\":28300:28417   */\n      swap3\n      swap2\n      pop\n      pop\n      jump\t// out\n        /* \"#utility.yul\":28423:28592   */\n    tag_536:\n        /* \"#utility.yul\":28467:28473   */\n      0x00\n        /* \"#utility.yul\":28500:28551   */\n      tag_799\n        /* \"#utility.yul\":28548:28549   */\n      0x00\n        /* \"#utility.yul\":28544:28550   */\n      not\n        /* \"#utility.yul\":28536:28541   */\n      dup5\n        /* \"#utility.yul\":28533:28534   */\n      0x08\n        /* \"#utility.yul\":28529:28542   */\n      mul\n        /* \"#utility.yul\":28500:28551   */\n      tag_535\n      jump\t// in\n    tag_799:\n        /* \"#utility.yul\":28496:28552   */\n      not\n        /* \"#utility.yul\":28581:28585   */\n      dup1\n        /* \"#utility.yul\":28575:28579   */\n      dup4\n        /* \"#utility.yul\":28571:28586   */\n      and\n        /* \"#utility.yul\":28561:28586   */\n      swap2\n      pop\n        /* \"#utility.yul\":28474:28592   */\n      pop\n        /* \"#utility.yul\":28423:28592   */\n      swap3\n      swap2\n      pop\n      pop\n      jump\t// out\n        /* \"#utility.yul\":28597:28892   */\n    tag_537:\n        /* \"#utility.yul\":28673:28677   */\n      0x00\n        /* \"#utility.yul\":28819:28848   */\n      tag_801\n        /* \"#utility.yul\":28844:28847   */\n      dup4\n        /* \"#utility.yul\":28838:28842   */\n      dup4\n        /* \"#utility.yul\":28819:28848   */\n      tag_536\n      jump\t// in\n    tag_801:\n        /* \"#utility.yul\":28811:28848   */\n      swap2\n      pop\n        /* \"#utility.yul\":28881:28884   */\n      dup3\n        /* \"#utility.yul\":28878:28879   */\n      0x02\n        /* \"#utility.yul\":28874:28885   */\n      mul\n        /* \"#utility.yul\":28868:28872   */\n      dup3\n        /* \"#utility.yul\":28865:28886   */\n      or\n        /* \"#utility.yul\":28857:28886   */\n      swap1\n      pop\n        /* \"#utility.yul\":28597:28892   */\n      swap3\n      swap2\n      pop\n      pop\n      jump\t// out\n        /* \"#utility.yul\":28897:30292   */\n    tag_235:\n        /* \"#utility.yul\":29014:29051   */\n      tag_803\n        /* \"#utility.yul\":29047:29050   */\n      dup3\n        /* \"#utility.yul\":29014:29051   */\n      tag_473\n      jump\t// in\n    tag_803:\n        /* \"#utility.yul\":29116:29134   */\n      0xffffffffffffffff\n        /* \"#utility.yul\":29108:29114   */\n      dup2\n        /* \"#utility.yul\":29105:29135   */\n      gt\n        /* \"#utility.yul\":29102:29158   */\n      iszero\n      tag_804\n      jumpi\n        /* \"#utility.yul\":29138:29156   */\n      tag_805\n      tag_406\n      jump\t// in\n    tag_805:\n        /* \"#utility.yul\":29102:29158   */\n    tag_804:\n        /* \"#utility.yul\":29182:29220   */\n      tag_806\n        /* \"#utility.yul\":29214:29218   */\n      dup3\n        /* \"#utility.yul\":29208:29219   */\n      sload\n        /* \"#utility.yul\":29182:29220   */\n      tag_125\n      jump\t// in\n    tag_806:\n        /* \"#utility.yul\":29267:29334   */\n      tag_807\n        /* \"#utility.yul\":29327:29333   */\n      dup3\n        /* \"#utility.yul\":29319:29325   */\n      dup3\n        /* \"#utility.yul\":29313:29317   */\n      dup6\n        /* \"#utility.yul\":29267:29334   */\n      tag_534\n      jump\t// in\n    tag_807:\n        /* \"#utility.yul\":29361:29362   */\n      0x00\n        /* \"#utility.yul\":29385:29389   */\n      0x20\n        /* \"#utility.yul\":29372:29389   */\n      swap1\n      pop\n        /* \"#utility.yul\":29417:29419   */\n      0x1f\n        /* \"#utility.yul\":29409:29415   */\n      dup4\n        /* \"#utility.yul\":29406:29420   */\n      gt\n        /* \"#utility.yul\":29434:29435   */\n      0x01\n        /* \"#utility.yul\":29429:30047   */\n      dup2\n      eq\n      tag_809\n      jumpi\n        /* \"#utility.yul\":30091:30092   */\n      0x00\n        /* \"#utility.yul\":30108:30114   */\n      dup5\n        /* \"#utility.yul\":30105:30182   */\n      iszero\n      tag_810\n      jumpi\n        /* \"#utility.yul\":30157:30166   */\n      dup3\n        /* \"#utility.yul\":30152:30155   */\n      dup8\n        /* \"#utility.yul\":30148:30167   */\n      add\n        /* \"#utility.yul\":30142:30168   */\n      mload\n        /* \"#utility.yul\":30133:30168   */\n      swap1\n      pop\n        /* \"#utility.yul\":30105:30182   */\n    tag_810:\n        /* \"#utility.yul\":30208:30275   */\n      tag_811\n        /* \"#utility.yul\":30268:30274   */\n      dup6\n        /* \"#utility.yul\":30261:30266   */\n      dup3\n        /* \"#utility.yul\":30208:30275   */\n      tag_537\n      jump\t// in\n    tag_811:\n        /* \"#utility.yul\":30202:30206   */\n      dup7\n        /* \"#utility.yul\":30195:30276   */\n      sstore\n        /* \"#utility.yul\":30064:30286   */\n      pop\n        /* \"#utility.yul\":29399:30286   */\n      jump(tag_808)\n        /* \"#utility.yul\":29429:30047   */\n    tag_809:\n        /* \"#utility.yul\":29481:29485   */\n      0x1f\n        /* \"#utility.yul\":29477:29486   */\n      not\n        /* \"#utility.yul\":29469:29475   */\n      dup5\n        /* \"#utility.yul\":29465:29487   */\n      and\n        /* \"#utility.yul\":29515:29552   */\n      tag_812\n        /* \"#utility.yul\":29547:29551   */\n      dup7\n        /* \"#utility.yul\":29515:29552   */\n      tag_523\n      jump\t// in\n    tag_812:\n        /* \"#utility.yul\":29574:29575   */\n      0x00\n        /* \"#utility.yul\":29588:29796   */\n    tag_813:\n        /* \"#utility.yul\":29602:29609   */\n      dup3\n        /* \"#utility.yul\":29599:29600   */\n      dup2\n        /* \"#utility.yul\":29596:29610   */\n      lt\n        /* \"#utility.yul\":29588:29796   */\n      iszero\n      tag_815\n      jumpi\n        /* \"#utility.yul\":29681:29690   */\n      dup5\n        /* \"#utility.yul\":29676:29679   */\n      dup10\n        /* \"#utility.yul\":29672:29691   */\n      add\n        /* \"#utility.yul\":29666:29692   */\n      mload\n        /* \"#utility.yul\":29658:29664   */\n      dup3\n        /* \"#utility.yul\":29651:29693   */\n      sstore\n        /* \"#utility.yul\":29732:29733   */\n      0x01\n        /* \"#utility.yul\":29724:29730   */\n      dup3\n        /* \"#utility.yul\":29720:29734   */\n      add\n        /* \"#utility.yul\":29710:29734   */\n      swap2\n      pop\n        /* \"#utility.yul\":29779:29781   */\n      0x20\n        /* \"#utility.yul\":29768:29777   */\n      dup6\n        /* \"#utility.yul\":29764:29782   */\n      add\n        /* \"#utility.yul\":29751:29782   */\n      swap5\n      pop\n        /* \"#utility.yul\":29625:29629   */\n      0x20\n        /* \"#utility.yul\":29622:29623   */\n      dup2\n        /* \"#utility.yul\":29618:29630   */\n      add\n        /* \"#utility.yul\":29613:29630   */\n      swap1\n      pop\n        /* \"#utility.yul\":29588:29796   */\n      jump(tag_813)\n    tag_815:\n        /* \"#utility.yul\":29824:29830   */\n      dup7\n        /* \"#utility.yul\":29815:29822   */\n      dup4\n        /* \"#utility.yul\":29812:29831   */\n      lt\n        /* \"#utility.yul\":29809:29988   */\n      iszero\n      tag_816\n      jumpi\n        /* \"#utility.yul\":29882:29891   */\n      dup5\n        /* \"#utility.yul\":29877:29880   */\n      dup10\n        /* \"#utility.yul\":29873:29892   */\n      add\n        /* \"#utility.yul\":29867:29893   */\n      mload\n        /* \"#utility.yul\":29925:29973   */\n      tag_817\n        /* \"#utility.yul\":29967:29971   */\n      0x1f\n        /* \"#utility.yul\":29959:29965   */\n      dup10\n        /* \"#utility.yul\":29955:29972   */\n      and\n        /* \"#utility.yul\":29944:29953   */\n      dup3\n        /* \"#utility.yul\":29925:29973   */\n      tag_536\n      jump\t// in\n    tag_817:\n        /* \"#utility.yul\":29917:29923   */\n      dup4\n        /* \"#utility.yul\":29910:29974   */\n      sstore\n        /* \"#utility.yul\":29832:29988   */\n      pop\n        /* \"#utility.yul\":29809:29988   */\n    tag_816:\n        /* \"#utility.yul\":30034:30035   */\n      0x01\n        /* \"#utility.yul\":30030:30031   */\n      0x02\n        /* \"#utility.yul\":30022:30028   */\n      dup9\n        /* \"#utility.yul\":30018:30032   */\n      mul\n        /* \"#utility.yul\":30014:30036   */\n      add\n        /* \"#utility.yul\":30008:30012   */\n      dup9\n        /* \"#utility.yul\":30001:30037   */\n      sstore\n        /* \"#utility.yul\":29436:30047   */\n      pop\n      pop\n      pop\n        /* \"#utility.yul\":29399:30286   */\n    tag_808:\n      pop\n        /* \"#utility.yul\":28989:30292   */\n      pop\n      pop\n      pop\n        /* \"#utility.yul\":28897:30292   */\n      pop\n      pop\n      jump\t// out\n        /* \"#utility.yul\":30298:30540   */\n    tag_538:\n        /* \"#utility.yul\":30438:30472   */\n      0x4f6e6c792064656c6567617465732063616e207265636c61696d207468656972\n        /* \"#utility.yul\":30434:30435   */\n      0x00\n        /* \"#utility.yul\":30426:30432   */\n      dup3\n        /* \"#utility.yul\":30422:30436   */\n      add\n        /* \"#utility.yul\":30415:30473   */\n      mstore\n        /* \"#utility.yul\":30507:30532   */\n      0x206f726967696e616c20766f74696e672072696768742e000000000000000000\n        /* \"#utility.yul\":30502:30504   */\n      0x20\n        /* \"#utility.yul\":30494:30500   */\n      dup3\n        /* \"#utility.yul\":30490:30505   */\n      add\n        /* \"#utility.yul\":30483:30533   */\n      mstore\n        /* \"#utility.yul\":30298:30540   */\n      pop\n      jump\t// out\n        /* \"#utility.yul\":30546:30912   */\n    tag_539:\n        /* \"#utility.yul\":30688:30691   */\n      0x00\n        /* \"#utility.yul\":30709:30776   */\n      tag_820\n        /* \"#utility.yul\":30773:30775   */\n      0x37\n        /* \"#utility.yul\":30768:30771   */\n      dup4\n        /* \"#utility.yul\":30709:30776   */\n      tag_474\n      jump\t// in\n    tag_820:\n        /* \"#utility.yul\":30702:30776   */\n      swap2\n      pop\n        /* \"#utility.yul\":30785:30878   */\n      tag_821\n        /* \"#utility.yul\":30874:30877   */\n      dup3\n        /* \"#utility.yul\":30785:30878   */\n      tag_538\n      jump\t// in\n    tag_821:\n        /* \"#utility.yul\":30903:30905   */\n      0x40\n        /* \"#utility.yul\":30898:30901   */\n      dup3\n        /* \"#utility.yul\":30894:30906   */\n      add\n        /* \"#utility.yul\":30887:30906   */\n      swap1\n      pop\n        /* \"#utility.yul\":30546:30912   */\n      swap2\n      swap1\n      pop\n      jump\t// out\n        /* \"#utility.yul\":30918:31337   */\n    tag_255:\n        /* \"#utility.yul\":31084:31088   */\n      0x00\n        /* \"#utility.yul\":31122:31124   */\n      0x20\n        /* \"#utility.yul\":31111:31120   */\n      dup3\n        /* \"#utility.yul\":31107:31125   */\n      add\n        /* \"#utility.yul\":31099:31125   */\n      swap1\n      pop\n        /* \"#utility.yul\":31171:31180   */\n      dup2\n        /* \"#utility.yul\":31165:31169   */\n      dup2\n        /* \"#utility.yul\":31161:31181   */\n      sub\n        /* \"#utility.yul\":31157:31158   */\n      0x00\n        /* \"#utility.yul\":31146:31155   */\n      dup4\n        /* \"#utility.yul\":31142:31159   */\n      add\n        /* \"#utility.yul\":31135:31182   */\n      mstore\n        /* \"#utility.yul\":31199:31330   */\n      tag_823\n        /* \"#utility.yul\":31325:31329   */\n      dup2\n        /* \"#utility.yul\":31199:31330   */\n      tag_539\n      jump\t// in\n    tag_823:\n        /* \"#utility.yul\":31191:31330   */\n      swap1\n      pop\n        /* \"#utility.yul\":30918:31337   */\n      swap2\n      swap1\n      pop\n      jump\t// out\n        /* \"#utility.yul\":31343:31576   */\n    tag_540:\n        /* \"#utility.yul\":31483:31517   */\n      0x5265636c61696d657220616c726561647920686f6c6473203220616374697665\n        /* \"#utility.yul\":31479:31480   */\n      0x00\n        /* \"#utility.yul\":31471:31477   */\n      dup3\n        /* \"#utility.yul\":31467:31481   */\n      add\n        /* \"#utility.yul\":31460:31518   */\n      mstore\n        /* \"#utility.yul\":31552:31568   */\n      0x20766f74696e6720726967687473000000000000000000000000000000000000\n        /* \"#utility.yul\":31547:31549   */\n      0x20\n        /* \"#utility.yul\":31539:31545   */\n      dup3\n        /* \"#utility.yul\":31535:31550   */\n      add\n        /* \"#utility.yul\":31528:31569   */\n      mstore\n        /* \"#utility.yul\":31343:31576   */\n      pop\n      jump\t// out\n        /* \"#utility.yul\":31582:31948   */\n    tag_541:\n        /* \"#utility.yul\":31724:31727   */\n      0x00\n        /* \"#utility.yul\":31745:31812   */\n      tag_826\n        /* \"#utility.yul\":31809:31811   */\n      0x2e\n        /* \"#utility.yul\":31804:31807   */\n      dup4\n        /* \"#utility.yul\":31745:31812   */\n      tag_474\n      jump\t// in\n    tag_826:\n        /* \"#utility.yul\":31738:31812   */\n      swap2\n      pop\n        /* \"#utility.yul\":31821:31914   */\n      tag_827\n        /* \"#utility.yul\":31910:31913   */\n      dup3\n        /* \"#utility.yul\":31821:31914   */\n      tag_540\n      jump\t// in\n    tag_827:\n        /* \"#utility.yul\":31939:31941   */\n      0x40\n        /* \"#utility.yul\":31934:31937   */\n      dup3\n        /* \"#utility.yul\":31930:31942   */\n      add\n        /* \"#utility.yul\":31923:31942   */\n      swap1\n      pop\n        /* \"#utility.yul\":31582:31948   */\n      swap2\n      swap1\n      pop\n      jump\t// out\n        /* \"#utility.yul\":31954:32373   */\n    tag_259:\n        /* \"#utility.yul\":32120:32124   */\n      0x00\n        /* \"#utility.yul\":32158:32160   */\n      0x20\n        /* \"#utility.yul\":32147:32156   */\n      dup3\n        /* \"#utility.yul\":32143:32161   */\n      add\n        /* \"#utility.yul\":32135:32161   */\n      swap1\n      pop\n        /* \"#utility.yul\":32207:32216   */\n      dup2\n        /* \"#utility.yul\":32201:32205   */\n      dup2\n        /* \"#utility.yul\":32197:32217   */\n      sub\n        /* \"#utility.yul\":32193:32194   */\n      0x00\n        /* \"#utility.yul\":32182:32191   */\n      dup4\n        /* \"#utility.yul\":32178:32195   */\n      add\n        /* \"#utility.yul\":32171:32218   */\n      mstore\n        /* \"#utility.yul\":32235:32366   */\n      tag_829\n        /* \"#utility.yul\":32361:32365   */\n      dup2\n        /* \"#utility.yul\":32235:32366   */\n      tag_541\n      jump\t// in\n    tag_829:\n        /* \"#utility.yul\":32227:32366   */\n      swap1\n      pop\n        /* \"#utility.yul\":31954:32373   */\n      swap2\n      swap1\n      pop\n      jump\t// out\n        /* \"#utility.yul\":32379:32619   */\n    tag_542:\n        /* \"#utility.yul\":32519:32553   */\n      0x5265636c61696d657220616c726561647920686f6c6473206869732f68657220\n        /* \"#utility.yul\":32515:32516   */\n      0x00\n        /* \"#utility.yul\":32507:32513   */\n      dup3\n        /* \"#utility.yul\":32503:32517   */\n      add\n        /* \"#utility.yul\":32496:32554   */\n      mstore\n        /* \"#utility.yul\":32588:32611   */\n      0x6f726967696e616c20766f74696e672072696768740000000000000000000000\n        /* \"#utility.yul\":32583:32585   */\n      0x20\n        /* \"#utility.yul\":32575:32581   */\n      dup3\n        /* \"#utility.yul\":32571:32586   */\n      add\n        /* \"#utility.yul\":32564:32612   */\n      mstore\n        /* \"#utility.yul\":32379:32619   */\n      pop\n      jump\t// out\n        /* \"#utility.yul\":32625:32991   */\n    tag_543:\n        /* \"#utility.yul\":32767:32770   */\n      0x00\n        /* \"#utility.yul\":32788:32855   */\n      tag_832\n        /* \"#utility.yul\":32852:32854   */\n      0x35\n        /* \"#utility.yul\":32847:32850   */\n      dup4\n        /* \"#utility.yul\":32788:32855   */\n      tag_474\n      jump\t// in\n    tag_832:\n        /* \"#utility.yul\":32781:32855   */\n      swap2\n      pop\n        /* \"#utility.yul\":32864:32957   */\n      tag_833\n        /* \"#utility.yul\":32953:32956   */\n      dup3\n        /* \"#utility.yul\":32864:32957   */\n      tag_542\n      jump\t// in\n    tag_833:\n        /* \"#utility.yul\":32982:32984   */\n      0x40\n        /* \"#utility.yul\":32977:32980   */\n      dup3\n        /* \"#utility.yul\":32973:32985   */\n      add\n        /* \"#utility.yul\":32966:32985   */\n      swap1\n      pop\n        /* \"#utility.yul\":32625:32991   */\n      swap2\n      swap1\n      pop\n      jump\t// out\n        /* \"#utility.yul\":32997:33416   */\n    tag_263:\n        /* \"#utility.yul\":33163:33167   */\n      0x00\n        /* \"#utility.yul\":33201:33203   */\n      0x20\n        /* \"#utility.yul\":33190:33199   */\n      dup3\n        /* \"#utility.yul\":33186:33204   */\n      add\n        /* \"#utility.yul\":33178:33204   */\n      swap1\n      pop\n        /* \"#utility.yul\":33250:33259   */\n      dup2\n        /* \"#utility.yul\":33244:33248   */\n      dup2\n        /* \"#utility.yul\":33240:33260   */\n      sub\n        /* \"#utility.yul\":33236:33237   */\n      0x00\n        /* \"#utility.yul\":33225:33234   */\n      dup4\n        /* \"#utility.yul\":33221:33238   */\n      add\n        /* \"#utility.yul\":33214:33261   */\n      mstore\n        /* \"#utility.yul\":33278:33409   */\n      tag_835\n        /* \"#utility.yul\":33404:33408   */\n      dup2\n        /* \"#utility.yul\":33278:33409   */\n      tag_543\n      jump\t// in\n    tag_835:\n        /* \"#utility.yul\":33270:33409   */\n      swap1\n      pop\n        /* \"#utility.yul\":32997:33416   */\n      swap2\n      swap1\n      pop\n      jump\t// out\n        /* \"#utility.yul\":33422:33652   */\n    tag_544:\n        /* \"#utility.yul\":33562:33596   */\n      0x4f6e6c7920287265706c6163656d656e742964656c6567617465732063616e20\n        /* \"#utility.yul\":33558:33559   */\n      0x00\n        /* \"#utility.yul\":33550:33556   */\n      dup3\n        /* \"#utility.yul\":33546:33560   */\n      add\n        /* \"#utility.yul\":33539:33597   */\n      mstore\n        /* \"#utility.yul\":33631:33644   */\n      0x6361737420766f7465732e000000000000000000000000000000000000000000\n        /* \"#utility.yul\":33626:33628   */\n      0x20\n        /* \"#utility.yul\":33618:33624   */\n      dup3\n        /* \"#utility.yul\":33614:33629   */\n      add\n        /* \"#utility.yul\":33607:33645   */\n      mstore\n        /* \"#utility.yul\":33422:33652   */\n      pop\n      jump\t// out\n        /* \"#utility.yul\":33658:34024   */\n    tag_545:\n        /* \"#utility.yul\":33800:33803   */\n      0x00\n        /* \"#utility.yul\":33821:33888   */\n      tag_838\n        /* \"#utility.yul\":33885:33887   */\n      0x2b\n        /* \"#utility.yul\":33880:33883   */\n      dup4\n        /* \"#utility.yul\":33821:33888   */\n      tag_474\n      jump\t// in\n    tag_838:\n        /* \"#utility.yul\":33814:33888   */\n      swap2\n      pop\n        /* \"#utility.yul\":33897:33990   */\n      tag_839\n        /* \"#utility.yul\":33986:33989   */\n      dup3\n        /* \"#utility.yul\":33897:33990   */\n      tag_544\n      jump\t// in\n    tag_839:\n        /* \"#utility.yul\":34015:34017   */\n      0x40\n        /* \"#utility.yul\":34010:34013   */\n      dup3\n        /* \"#utility.yul\":34006:34018   */\n      add\n        /* \"#utility.yul\":33999:34018   */\n      swap1\n      pop\n        /* \"#utility.yul\":33658:34024   */\n      swap2\n      swap1\n      pop\n      jump\t// out\n        /* \"#utility.yul\":34030:34449   */\n    tag_291:\n        /* \"#utility.yul\":34196:34200   */\n      0x00\n        /* \"#utility.yul\":34234:34236   */\n      0x20\n        /* \"#utility.yul\":34223:34232   */\n      dup3\n        /* \"#utility.yul\":34219:34237   */\n      add\n        /* \"#utility.yul\":34211:34237   */\n      swap1\n      pop\n        /* \"#utility.yul\":34283:34292   */\n      dup2\n        /* \"#utility.yul\":34277:34281   */\n      dup2\n        /* \"#utility.yul\":34273:34293   */\n      sub\n        /* \"#utility.yul\":34269:34270   */\n      0x00\n        /* \"#utility.yul\":34258:34267   */\n      dup4\n        /* \"#utility.yul\":34254:34271   */\n      add\n        /* \"#utility.yul\":34247:34294   */\n      mstore\n        /* \"#utility.yul\":34311:34442   */\n      tag_841\n        /* \"#utility.yul\":34437:34441   */\n      dup2\n        /* \"#utility.yul\":34311:34442   */\n      tag_545\n      jump\t// in\n    tag_841:\n        /* \"#utility.yul\":34303:34442   */\n      swap1\n      pop\n        /* \"#utility.yul\":34030:34449   */\n      swap2\n      swap1\n      pop\n      jump\t// out\n        /* \"#utility.yul\":34455:34635   */\n    tag_546:\n        /* \"#utility.yul\":34595:34627   */\n      0x4d6f74696f6e206973206e6f74206f70656e20666f7220766f74696e672e0000\n        /* \"#utility.yul\":34591:34592   */\n      0x00\n        /* \"#utility.yul\":34583:34589   */\n      dup3\n        /* \"#utility.yul\":34579:34593   */\n      add\n        /* \"#utility.yul\":34572:34628   */\n      mstore\n        /* \"#utility.yul\":34455:34635   */\n      pop\n      jump\t// out\n        /* \"#utility.yul\":34641:35007   */\n    tag_547:\n        /* \"#utility.yul\":34783:34786   */\n      0x00\n        /* \"#utility.yul\":34804:34871   */\n      tag_844\n        /* \"#utility.yul\":34868:34870   */\n      0x1e\n        /* \"#utility.yul\":34863:34866   */\n      dup4\n        /* \"#utility.yul\":34804:34871   */\n      tag_474\n      jump\t// in\n    tag_844:\n        /* \"#utility.yul\":34797:34871   */\n      swap2\n      pop\n        /* \"#utility.yul\":34880:34973   */\n      tag_845\n        /* \"#utility.yul\":34969:34972   */\n      dup3\n        /* \"#utility.yul\":34880:34973   */\n      tag_546\n      jump\t// in\n    tag_845:\n        /* \"#utility.yul\":34998:35000   */\n      0x20\n        /* \"#utility.yul\":34993:34996   */\n      dup3\n        /* \"#utility.yul\":34989:35001   */\n      add\n        /* \"#utility.yul\":34982:35001   */\n      swap1\n      pop\n        /* \"#utility.yul\":34641:35007   */\n      swap2\n      swap1\n      pop\n      jump\t// out\n        /* \"#utility.yul\":35013:35432   */\n    tag_301:\n        /* \"#utility.yul\":35179:35183   */\n      0x00\n        /* \"#utility.yul\":35217:35219   */\n      0x20\n        /* \"#utility.yul\":35206:35215   */\n      dup3\n        /* \"#utility.yul\":35202:35220   */\n      add\n        /* \"#utility.yul\":35194:35220   */\n      swap1\n      pop\n        /* \"#utility.yul\":35266:35275   */\n      dup2\n        /* \"#utility.yul\":35260:35264   */\n      dup2\n        /* \"#utility.yul\":35256:35276   */\n      sub\n        /* \"#utility.yul\":35252:35253   */\n      0x00\n        /* \"#utility.yul\":35241:35250   */\n      dup4\n        /* \"#utility.yul\":35237:35254   */\n      add\n        /* \"#utility.yul\":35230:35277   */\n      mstore\n        /* \"#utility.yul\":35294:35425   */\n      tag_847\n        /* \"#utility.yul\":35420:35424   */\n      dup2\n        /* \"#utility.yul\":35294:35425   */\n      tag_547\n      jump\t// in\n    tag_847:\n        /* \"#utility.yul\":35286:35425   */\n      swap1\n      pop\n        /* \"#utility.yul\":35013:35432   */\n      swap2\n      swap1\n      pop\n      jump\t// out\n        /* \"#utility.yul\":35438:35663   */\n    tag_548:\n        /* \"#utility.yul\":35578:35612   */\n      0x4e6f2061637469766520766f74696e67207269676874732068656c6420627920\n        /* \"#utility.yul\":35574:35575   */\n      0x00\n        /* \"#utility.yul\":35566:35572   */\n      dup3\n        /* \"#utility.yul\":35562:35576   */\n      add\n        /* \"#utility.yul\":35555:35613   */\n      mstore\n        /* \"#utility.yul\":35647:35655   */\n      0x73656e6465720000000000000000000000000000000000000000000000000000\n        /* \"#utility.yul\":35642:35644   */\n      0x20\n        /* \"#utility.yul\":35634:35640   */\n      dup3\n        /* \"#utility.yul\":35630:35645   */\n      add\n        /* \"#utility.yul\":35623:35656   */\n      mstore\n        /* \"#utility.yul\":35438:35663   */\n      pop\n      jump\t// out\n        /* \"#utility.yul\":35669:36035   */\n    tag_549:\n        /* \"#utility.yul\":35811:35814   */\n      0x00\n        /* \"#utility.yul\":35832:35899   */\n      tag_850\n        /* \"#utility.yul\":35896:35898   */\n      0x26\n        /* \"#utility.yul\":35891:35894   */\n      dup4\n        /* \"#utility.yul\":35832:35899   */\n      tag_474\n      jump\t// in\n    tag_850:\n        /* \"#utility.yul\":35825:35899   */\n      swap2\n      pop\n        /* \"#utility.yul\":35908:36001   */\n      tag_851\n        /* \"#utility.yul\":35997:36000   */\n      dup3\n        /* \"#utility.yul\":35908:36001   */\n      tag_548\n      jump\t// in\n    tag_851:\n        /* \"#utility.yul\":36026:36028   */\n      0x40\n        /* \"#utility.yul\":36021:36024   */\n      dup3\n        /* \"#utility.yul\":36017:36029   */\n      add\n        /* \"#utility.yul\":36010:36029   */\n      swap1\n      pop\n        /* \"#utility.yul\":35669:36035   */\n      swap2\n      swap1\n      pop\n      jump\t// out\n        /* \"#utility.yul\":36041:36460   */\n    tag_305:\n        /* \"#utility.yul\":36207:36211   */\n      0x00\n        /* \"#utility.yul\":36245:36247   */\n      0x20\n        /* \"#utility.yul\":36234:36243   */\n      dup3\n        /* \"#utility.yul\":36230:36248   */\n      add\n        /* \"#utility.yul\":36222:36248   */\n      swap1\n      pop\n        /* \"#utility.yul\":36294:36303   */\n      dup2\n        /* \"#utility.yul\":36288:36292   */\n      dup2\n        /* \"#utility.yul\":36284:36304   */\n      sub\n        /* \"#utility.yul\":36280:36281   */\n      0x00\n        /* \"#utility.yul\":36269:36278   */\n      dup4\n        /* \"#utility.yul\":36265:36282   */\n      add\n        /* \"#utility.yul\":36258:36305   */\n      mstore\n        /* \"#utility.yul\":36322:36453   */\n      tag_853\n        /* \"#utility.yul\":36448:36452   */\n      dup2\n        /* \"#utility.yul\":36322:36453   */\n      tag_549\n      jump\t// in\n    tag_853:\n        /* \"#utility.yul\":36314:36453   */\n      swap1\n      pop\n        /* \"#utility.yul\":36041:36460   */\n      swap2\n      swap1\n      pop\n      jump\t// out\n        /* \"#utility.yul\":36466:36641   */\n    tag_550:\n        /* \"#utility.yul\":36606:36633   */\n      0x566f7465287329207765726520616c7265616479206361737400000000000000\n        /* \"#utility.yul\":36602:36603   */\n      0x00\n        /* \"#utility.yul\":36594:36600   */\n      dup3\n        /* \"#utility.yul\":36590:36604   */\n      add\n        /* \"#utility.yul\":36583:36634   */\n      mstore\n        /* \"#utility.yul\":36466:36641   */\n      pop\n      jump\t// out\n        /* \"#utility.yul\":36647:37013   */\n    tag_551:\n        /* \"#utility.yul\":36789:36792   */\n      0x00\n        /* \"#utility.yul\":36810:36877   */\n      tag_856\n        /* \"#utility.yul\":36874:36876   */\n      0x19\n        /* \"#utility.yul\":36869:36872   */\n      dup4\n        /* \"#utility.yul\":36810:36877   */\n      tag_474\n      jump\t// in\n    tag_856:\n        /* \"#utility.yul\":36803:36877   */\n      swap2\n      pop\n        /* \"#utility.yul\":36886:36979   */\n      tag_857\n        /* \"#utility.yul\":36975:36978   */\n      dup3\n        /* \"#utility.yul\":36886:36979   */\n      tag_550\n      jump\t// in\n    tag_857:\n        /* \"#utility.yul\":37004:37006   */\n      0x20\n        /* \"#utility.yul\":36999:37002   */\n      dup3\n        /* \"#utility.yul\":36995:37007   */\n      add\n        /* \"#utility.yul\":36988:37007   */\n      swap1\n      pop\n        /* \"#utility.yul\":36647:37013   */\n      swap2\n      swap1\n      pop\n      jump\t// out\n        /* \"#utility.yul\":37019:37438   */\n    tag_323:\n        /* \"#utility.yul\":37185:37189   */\n      0x00\n        /* \"#utility.yul\":37223:37225   */\n      0x20\n        /* \"#utility.yul\":37212:37221   */\n      dup3\n        /* \"#utility.yul\":37208:37226   */\n      add\n        /* \"#utility.yul\":37200:37226   */\n      swap1\n      pop\n        /* \"#utility.yul\":37272:37281   */\n      dup2\n        /* \"#utility.yul\":37266:37270   */\n      dup2\n        /* \"#utility.yul\":37262:37282   */\n      sub\n        /* \"#utility.yul\":37258:37259   */\n      0x00\n        /* \"#utility.yul\":37247:37256   */\n      dup4\n        /* \"#utility.yul\":37243:37260   */\n      add\n        /* \"#utility.yul\":37236:37283   */\n      mstore\n        /* \"#utility.yul\":37300:37431   */\n      tag_859\n        /* \"#utility.yul\":37426:37430   */\n      dup2\n        /* \"#utility.yul\":37300:37431   */\n      tag_551\n      jump\t// in\n    tag_859:\n        /* \"#utility.yul\":37292:37431   */\n      swap1\n      pop\n        /* \"#utility.yul\":37019:37438   */\n      swap2\n      swap1\n      pop\n      jump\t// out\n        /* \"#utility.yul\":37444:37624   */\n    tag_412:\n        /* \"#utility.yul\":37492:37569   */\n      0x4e487b7100000000000000000000000000000000000000000000000000000000\n        /* \"#utility.yul\":37489:37490   */\n      0x00\n        /* \"#utility.yul\":37482:37570   */\n      mstore\n        /* \"#utility.yul\":37589:37593   */\n      0x12\n        /* \"#utility.yul\":37586:37587   */\n      0x04\n        /* \"#utility.yul\":37579:37594   */\n      mstore\n        /* \"#utility.yul\":37613:37617   */\n      0x24\n        /* \"#utility.yul\":37610:37611   */\n      0x00\n        /* \"#utility.yul\":37603:37618   */\n      revert\n        /* \"#utility.yul\":37630:37778   */\n    tag_552:\n        /* \"#utility.yul\":37732:37743   */\n      0x00\n        /* \"#utility.yul\":37769:37772   */\n      dup2\n        /* \"#utility.yul\":37754:37772   */\n      swap1\n      pop\n        /* \"#utility.yul\":37630:37778   */\n      swap3\n      swap2\n      pop\n      pop\n      jump\t// out\n        /* \"#utility.yul\":37784:38174   */\n    tag_553:\n        /* \"#utility.yul\":37890:37893   */\n      0x00\n        /* \"#utility.yul\":37918:37957   */\n      tag_863\n        /* \"#utility.yul\":37951:37956   */\n      dup3\n        /* \"#utility.yul\":37918:37957   */\n      tag_473\n      jump\t// in\n    tag_863:\n        /* \"#utility.yul\":37973:38062   */\n      tag_864\n        /* \"#utility.yul\":38055:38061   */\n      dup2\n        /* \"#utility.yul\":38050:38053   */\n      dup6\n        /* \"#utility.yul\":37973:38062   */\n      tag_552\n      jump\t// in\n    tag_864:\n        /* \"#utility.yul\":37966:38062   */\n      swap4\n      pop\n        /* \"#utility.yul\":38071:38136   */\n      tag_865\n        /* \"#utility.yul\":38129:38135   */\n      dup2\n        /* \"#utility.yul\":38124:38127   */\n      dup6\n        /* \"#utility.yul\":38117:38121   */\n      0x20\n        /* \"#utility.yul\":38110:38115   */\n      dup7\n        /* \"#utility.yul\":38106:38122   */\n      add\n        /* \"#utility.yul\":38071:38136   */\n      tag_475\n      jump\t// in\n    tag_865:\n        /* \"#utility.yul\":38161:38167   */\n      dup1\n        /* \"#utility.yul\":38156:38159   */\n      dup5\n        /* \"#utility.yul\":38152:38168   */\n      add\n        /* \"#utility.yul\":38145:38168   */\n      swap2\n      pop\n        /* \"#utility.yul\":37894:38174   */\n      pop\n        /* \"#utility.yul\":37784:38174   */\n      swap3\n      swap2\n      pop\n      pop\n      jump\t// out\n        /* \"#utility.yul\":38180:39095   */\n    tag_416:\n        /* \"#utility.yul\":38504:38507   */\n      0x00\n        /* \"#utility.yul\":38526:38621   */\n      tag_867\n        /* \"#utility.yul\":38617:38620   */\n      dup3\n        /* \"#utility.yul\":38608:38614   */\n      dup9\n        /* \"#utility.yul\":38526:38621   */\n      tag_553\n      jump\t// in\n    tag_867:\n        /* \"#utility.yul\":38519:38621   */\n      swap2\n      pop\n        /* \"#utility.yul\":38638:38733   */\n      tag_868\n        /* \"#utility.yul\":38729:38732   */\n      dup3\n        /* \"#utility.yul\":38720:38726   */\n      dup8\n        /* \"#utility.yul\":38638:38733   */\n      tag_553\n      jump\t// in\n    tag_868:\n        /* \"#utility.yul\":38631:38733   */\n      swap2\n      pop\n        /* \"#utility.yul\":38750:38845   */\n      tag_869\n        /* \"#utility.yul\":38841:38844   */\n      dup3\n        /* \"#utility.yul\":38832:38838   */\n      dup7\n        /* \"#utility.yul\":38750:38845   */\n      tag_553\n      jump\t// in\n    tag_869:\n        /* \"#utility.yul\":38743:38845   */\n      swap2\n      pop\n        /* \"#utility.yul\":38862:38957   */\n      tag_870\n        /* \"#utility.yul\":38953:38956   */\n      dup3\n        /* \"#utility.yul\":38944:38950   */\n      dup6\n        /* \"#utility.yul\":38862:38957   */\n      tag_553\n      jump\t// in\n    tag_870:\n        /* \"#utility.yul\":38855:38957   */\n      swap2\n      pop\n        /* \"#utility.yul\":38974:39069   */\n      tag_871\n        /* \"#utility.yul\":39065:39068   */\n      dup3\n        /* \"#utility.yul\":39056:39062   */\n      dup5\n        /* \"#utility.yul\":38974:39069   */\n      tag_553\n      jump\t// in\n    tag_871:\n        /* \"#utility.yul\":38967:39069   */\n      swap2\n      pop\n        /* \"#utility.yul\":39086:39089   */\n      dup2\n        /* \"#utility.yul\":39079:39089   */\n      swap1\n      pop\n        /* \"#utility.yul\":38180:39095   */\n      swap7\n      swap6\n      pop\n      pop\n      pop\n      pop\n      pop\n      pop\n      jump\t// out\n\n    auxdata: 0xa264697066735822122047a3cfacde3a9b01a2639282ee3ba3e062a32dc38430175ae1b4242afdf38cde64736f6c63430008120033\n}\n",
				"bytecode": {
					"linkReferences": {},
					"object": "60806040526000805560006001553480156200001a57600080fd5b50620000256200021c565b6004816000019060048111156200004157620000406200027e565b5b908160048111156200005857620000576200027e565b5b8152505033816020019073ffffffffffffffffffffffffffffffffffffffff16908173ffffffffffffffffffffffffffffffffffffffff168152505080600260003373ffffffffffffffffffffffffffffffffffffffff1673ffffffffffffffffffffffffffffffffffffffff16815260200190815260200160002060008201518160000160006101000a81548160ff021916908360048111156200010257620001016200027e565b5b021790555060208201518160000160016101000a81548173ffffffffffffffffffffffffffffffffffffffff021916908373ffffffffffffffffffffffffffffffffffffffff16021790555060408201518160010160006101000a81548173ffffffffffffffffffffffffffffffffffffffff021916908373ffffffffffffffffffffffffffffffffffffffff1602179055509050506003339080600181540180825580915050600190039060005260206000200160009091909190916101000a81548173ffffffffffffffffffffffffffffffffffffffff021916908373ffffffffffffffffffffffffffffffffffffffff160217905550600160008154809291906200021090620002e6565b91905055505062000333565b6040518060600160405280600060048111156200023e576200023d6200027e565b5b8152602001600073ffffffffffffffffffffffffffffffffffffffff168152602001600073ffffffffffffffffffffffffffffffffffffffff1681525090565b7f4e487b7100000000000000000000000000000000000000000000000000000000600052602160045260246000fd5b7f4e487b7100000000000000000000000000000000000000000000000000000000600052601160045260246000fd5b6000819050919050565b6000620002f382620002dc565b91507fffffffffffffffffffffffffffffffffffffffffffffffffffffffffffffffff8203620003285762000327620002ad565b5b600182019050919050565b61456880620003436000396000f3fe608060405234801561001057600080fd5b50600436106100a95760003560e01c8063a00f023611610071578063a00f023614610164578063bd7bb65414610180578063d5506819146101b0578063ecd2713a146101ce578063f513edb4146101ec578063fc14ebbb14610208576100a9565b806309e69ede146100ae57806331b47842146100e05780637d47318a146100fc5780638de2fc3a1461012c5780639084f1f914610148575b600080fd5b6100c860048036038101906100c39190613082565b610226565b6040516100d793929190613135565b60405180910390f35b6100fa60048036038101906100f591906131a2565b61029d565b005b610116600480360381019061011191906131a2565b61052c565b604051610123919061325f565b60405180910390f35b610146600480360381019061014191906132a6565b6107c3565b005b610162600480360381019061015d91906131a2565b610c77565b005b61017e60048036038101906101799190613082565b610e16565b005b61019a6004803603810190610195919061341b565b611215565b6040516101a79190613473565b60405180910390f35b6101b86115a1565b6040516101c591906134a9565b60405180910390f35b6101d6611ba9565b6040516101e39190613473565b60405180910390f35b610206600480360381019061020191906134c4565b611baf565b005b61021061288d565b60405161021d9190613473565b60405180910390f35b60026020528060005260406000206000915090508060000160009054906101000a900460ff16908060000160019054906101000a900473ffffffffffffffffffffffffffffffffffffffff16908060010160009054906101000a900473ffffffffffffffffffffffffffffffffffffffff16905083565b600160048111156102b1576102b06130af565b5b600260003373ffffffffffffffffffffffffffffffffffffffff1673ffffffffffffffffffffffffffffffffffffffff16815260200190815260200160002060000160009054906101000a900460ff166004811115610313576103126130af565b5b1015610354576040517f08c379a000000000000000000000000000000000000000000000000000000000815260040161034b90613576565b60405180910390fd5b6104076004828154811061036b5761036a613596565b5b90600052602060002090600602016005018054806020026020016040519081016040528092919081815260200182805480156103fc57602002820191906000526020600020905b8160009054906101000a900473ffffffffffffffffffffffffffffffffffffffff1673ffffffffffffffffffffffffffffffffffffffff16815260200190600101908083116103b2575b505050505033612893565b610446576040517f08c379a000000000000000000000000000000000000000000000000000000000815260040161043d90613637565b60405180910390fd5b6004818154811061045a57610459613596565b5b9060005260206000209060060201600501339080600181540180825580915050600190039060005260206000200160009091909190916101000a81548173ffffffffffffffffffffffffffffffffffffffff021916908373ffffffffffffffffffffffffffffffffffffffff1602179055506104d58161291a565b15610529576001600482815481106104f0576104ef613596565b5b906000526020600020906006020160020160016101000a81548160ff02191690836002811115610523576105226130af565b5b02179055505b50565b6060600280811115610541576105406130af565b5b6004838154811061055557610554613596565b5b906000526020600020906006020160020160019054906101000a900460ff166002811115610586576105856130af565b5b146105c6576040517f08c379a00000000000000000000000000000000000000000000000000000000081526004016105bd906136a3565b60405180910390fd5b60405180602001604052806000815250905060005b600483815481106105ef576105ee613596565b5b9060005260206000209060060201600301805490508110156107bd57600061065e6004858154811061062457610623613596565b5b9060005260206000209060060201600301838154811061064757610646613596565b5b906000526020600020906002020160010154612a7c565b90506107a7836004868154811061067857610677613596565b5b9060005260206000209060060201600301848154811061069b5761069a613596565b5b906000526020600020906002020160000180546106b7906136f2565b80601f01602080910402602001604051908101604052809291908181526020018280546106e3906136f2565b80156107305780601f1061070557610100808354040283529160200191610730565b820191906000526020600020905b81548152906001019060200180831161071357829003601f168201915b50505050506040518060400160405280600181526020017f3a00000000000000000000000000000000000000000000000000000000000000815250846040518060400160405280600181526020017f2e00000000000000000000000000000000000000000000000000000000000000815250612b4a565b92505080806107b590613752565b9150506105db565b50919050565b6004808111156107d6576107d56130af565b5b600260003373ffffffffffffffffffffffffffffffffffffffff1673ffffffffffffffffffffffffffffffffffffffff16815260200190815260200160002060000160009054906101000a900460ff166004811115610838576108376130af565b5b14610878576040517f08c379a000000000000000000000000000000000000000000000000000000000815260040161086f9061380c565b60405180910390fd5b600073ffffffffffffffffffffffffffffffffffffffff16600260008373ffffffffffffffffffffffffffffffffffffffff1673ffffffffffffffffffffffffffffffffffffffff16815260200190815260200160002060000160019054906101000a900473ffffffffffffffffffffffffffffffffffffffff1673ffffffffffffffffffffffffffffffffffffffff161480156109a45750600073ffffffffffffffffffffffffffffffffffffffff16600260008373ffffffffffffffffffffffffffffffffffffffff1673ffffffffffffffffffffffffffffffffffffffff16815260200190815260200160002060010160009054906101000a900473ffffffffffffffffffffffffffffffffffffffff1673ffffffffffffffffffffffffffffffffffffffff16145b6109e3576040517f08c379a00000000000000000000000000000000000000000000000000000000081526004016109da9061389e565b60405180910390fd5b6109eb612b7f565b610a2a576040517f08c379a0000000000000000000000000000000000000000000000000000000008152600401610a2190613930565b60405180910390fd5b610a32612fb1565b8281600001906004811115610a4a57610a496130af565b5b90816004811115610a5e57610a5d6130af565b5b8152505060036004811115610a7657610a756130af565b5b836004811115610a8957610a886130af565b5b1480610ab85750600480811115610aa357610aa26130af565b5b836004811115610ab657610ab56130af565b5b145b15610b0e5781816020019073ffffffffffffffffffffffffffffffffffffffff16908173ffffffffffffffffffffffffffffffffffffffff168152505060016000815480929190610b0890613752565b91905055505b80600260008473ffffffffffffffffffffffffffffffffffffffff1673ffffffffffffffffffffffffffffffffffffffff16815260200190815260200160002060008201518160000160006101000a81548160ff02191690836004811115610b7957610b786130af565b5b021790555060208201518160000160016101000a81548173ffffffffffffffffffffffffffffffffffffffff021916908373ffffffffffffffffffffffffffffffffffffffff16021790555060408201518160010160006101000a81548173ffffffffffffffffffffffffffffffffffffffff021916908373ffffffffffffffffffffffffffffffffffffffff1602179055509050506003829080600181540180825580915050600190039060005260206000200160009091909190916101000a81548173ffffffffffffffffffffffffffffffffffffffff021916908373ffffffffffffffffffffffffffffffffffffffff160217905550505050565b600480811115610c8a57610c896130af565b5b600260003373ffffffffffffffffffffffffffffffffffffffff1673ffffffffffffffffffffffffffffffffffffffff16815260200190815260200160002060000160009054906101000a900460ff166004811115610cec57610ceb6130af565b5b14610d2c576040517f08c379a0000000000000000000000000000000000000000000000000000000008152600401610d239061399c565b60405180910390fd5b60016002811115610d4057610d3f6130af565b5b60048281548110610d5457610d53613596565b5b906000526020600020906006020160020160019054906101000a900460ff166002811115610d8557610d846130af565b5b14610dc5576040517f08c379a0000000000000000000000000000000000000000000000000000000008152600401610dbc90613a08565b60405180910390fd5b600260048281548110610ddb57610dda613596565b5b906000526020600020906006020160020160016101000a81548160ff02191690836002811115610e0e57610e0d6130af565b5b021790555050565b60026004811115610e2a57610e296130af565b5b600260003373ffffffffffffffffffffffffffffffffffffffff1673ffffffffffffffffffffffffffffffffffffffff16815260200190815260200160002060000160009054906101000a900460ff166004811115610e8c57610e8b6130af565b5b1015610ecd576040517f08c379a0000000000000000000000000000000000000000000000000000000008152600401610ec490613a9a565b60405180910390fd5b60026004811115610ee157610ee06130af565b5b600260008373ffffffffffffffffffffffffffffffffffffffff1673ffffffffffffffffffffffffffffffffffffffff16815260200190815260200160002060000160009054906101000a900460ff166004811115610f4357610f426130af565b5b1015610f84576040517f08c379a0000000000000000000000000000000000000000000000000000000008152600401610f7b90613b2c565b60405180910390fd5b600073ffffffffffffffffffffffffffffffffffffffff16600260003373ffffffffffffffffffffffffffffffffffffffff1673ffffffffffffffffffffffffffffffffffffffff16815260200190815260200160002060000160019054906101000a900473ffffffffffffffffffffffffffffffffffffffff1673ffffffffffffffffffffffffffffffffffffffff1603611055576040517f08c379a000000000000000000000000000000000000000000000000000000000815260040161104c90613bbe565b60405180910390fd5b600073ffffffffffffffffffffffffffffffffffffffff16600260008373ffffffffffffffffffffffffffffffffffffffff1673ffffffffffffffffffffffffffffffffffffffff16815260200190815260200160002060000160019054906101000a900473ffffffffffffffffffffffffffffffffffffffff1673ffffffffffffffffffffffffffffffffffffffff1614806111805750600073ffffffffffffffffffffffffffffffffffffffff16600260008373ffffffffffffffffffffffffffffffffffffffff1673ffffffffffffffffffffffffffffffffffffffff16815260200190815260200160002060010160009054906101000a900473ffffffffffffffffffffffffffffffffffffffff1673ffffffffffffffffffffffffffffffffffffffff16145b6111bf576040517f08c379a00000000000000000000000000000000000000000000000000000000081526004016111b690613c76565b60405180910390fd5b6111c7612b7f565b611206576040517f08c379a00000000000000000000000000000000000000000000000000000000081526004016111fd90613d08565b60405180910390fd5b61121233826001612c18565b50565b60006001600481111561122b5761122a6130af565b5b600260003373ffffffffffffffffffffffffffffffffffffffff1673ffffffffffffffffffffffffffffffffffffffff16815260200190815260200160002060000160009054906101000a900460ff16600481111561128d5761128c6130af565b5b10156112ce576040517f08c379a00000000000000000000000000000000000000000000000000000000081526004016112c590613d9a565b60405180910390fd5b6112d6612b7f565b611315576040517f08c379a000000000000000000000000000000000000000000000000000000000815260040161130c90613e2c565b60405180910390fd5b6000600460018160018154018082558091505003906000526020600020906006020190506000548160000181905550828160010190816113559190613ff8565b5060008160020160006101000a81548160ff0219169083600181111561137e5761137d6130af565b5b021790555060008160020160016101000a81548160ff021916908360028111156113ab576113aa6130af565b5b021790555060008160030160018160018154018082558091505003906000526020600020906002020190506040518060400160405280600381526020017f796573000000000000000000000000000000000000000000000000000000000081525081600001908161141c9190613ff8565b506000816001018190555060008260030160018160018154018082558091505003906000526020600020906002020190506040518060400160405280600281526020017f6e6f0000000000000000000000000000000000000000000000000000000000008152508160000190816114939190613ff8565b506000816001018190555060008360030160018160018154018082558091505003906000526020600020906002020190506040518060400160405280600781526020017f6162737461696e0000000000000000000000000000000000000000000000000081525081600001908161150a9190613ff8565b506000816001018190555083600501339080600181540180825580915050600190039060005260206000200160009091909190916101000a81548173ffffffffffffffffffffffffffffffffffffffff021916908373ffffffffffffffffffffffffffffffffffffffff16021790555060008081548092919061158c90613752565b91905055508360000154945050505050919050565b6000600360048111156115b7576115b66130af565b5b600260003373ffffffffffffffffffffffffffffffffffffffff1673ffffffffffffffffffffffffffffffffffffffff16815260200190815260200160002060000160009054906101000a900460ff166004811115611619576116186130af565b5b101561165a576040517f08c379a00000000000000000000000000000000000000000000000000000000081526004016116519061413c565b60405180910390fd5b600073ffffffffffffffffffffffffffffffffffffffff16600260003373ffffffffffffffffffffffffffffffffffffffff1673ffffffffffffffffffffffffffffffffffffffff16815260200190815260200160002060000160019054906101000a900473ffffffffffffffffffffffffffffffffffffffff1673ffffffffffffffffffffffffffffffffffffffff1614806117855750600073ffffffffffffffffffffffffffffffffffffffff16600260003373ffffffffffffffffffffffffffffffffffffffff1673ffffffffffffffffffffffffffffffffffffffff16815260200190815260200160002060010160009054906101000a900473ffffffffffffffffffffffffffffffffffffffff1673ffffffffffffffffffffffffffffffffffffffff16145b6117c4576040517f08c379a00000000000000000000000000000000000000000000000000000000081526004016117bb906141ce565b60405180910390fd5b3373ffffffffffffffffffffffffffffffffffffffff16600260003373ffffffffffffffffffffffffffffffffffffffff1673ffffffffffffffffffffffffffffffffffffffff16815260200190815260200160002060000160019054906101000a900473ffffffffffffffffffffffffffffffffffffffff1673ffffffffffffffffffffffffffffffffffffffff16141580156118f057503373ffffffffffffffffffffffffffffffffffffffff16600260003373ffffffffffffffffffffffffffffffffffffffff1673ffffffffffffffffffffffffffffffffffffffff16815260200190815260200160002060010160009054906101000a900473ffffffffffffffffffffffffffffffffffffffff1673ffffffffffffffffffffffffffffffffffffffff1614155b61192f576040517f08c379a000000000000000000000000000000000000000000000000000000000815260040161192690614260565b60405180910390fd5b60005b600380549050811015611ba0573373ffffffffffffffffffffffffffffffffffffffff16600260006003848154811061196e5761196d613596565b5b9060005260206000200160009054906101000a900473ffffffffffffffffffffffffffffffffffffffff1673ffffffffffffffffffffffffffffffffffffffff1673ffffffffffffffffffffffffffffffffffffffff16815260200190815260200160002060000160019054906101000a900473ffffffffffffffffffffffffffffffffffffffff1673ffffffffffffffffffffffffffffffffffffffff1603611a6657611a5c60038281548110611a2957611a28613596565b5b9060005260206000200160009054906101000a900473ffffffffffffffffffffffffffffffffffffffff16336001612c18565b6001915050611ba6565b3373ffffffffffffffffffffffffffffffffffffffff166002600060038481548110611a9557611a94613596565b5b9060005260206000200160009054906101000a900473ffffffffffffffffffffffffffffffffffffffff1673ffffffffffffffffffffffffffffffffffffffff1673ffffffffffffffffffffffffffffffffffffffff16815260200190815260200160002060010160009054906101000a900473ffffffffffffffffffffffffffffffffffffffff1673ffffffffffffffffffffffffffffffffffffffff1603611b8d57611b8360038281548110611b5057611b4f613596565b5b9060005260206000200160009054906101000a900473ffffffffffffffffffffffffffffffffffffffff16336002612c18565b6001915050611ba6565b8080611b9890613752565b915050611932565b50600090505b90565b60005481565b60026004811115611bc357611bc26130af565b5b600260003373ffffffffffffffffffffffffffffffffffffffff1673ffffffffffffffffffffffffffffffffffffffff16815260200190815260200160002060000160009054906101000a900460ff166004811115611c2557611c246130af565b5b1015611c66576040517f08c379a0000000000000000000000000000000000000000000000000000000008152600401611c5d906142f2565b60405180910390fd5b60016002811115611c7a57611c796130af565b5b60048381548110611c8e57611c8d613596565b5b906000526020600020906006020160020160019054906101000a900460ff166002811115611cbf57611cbe6130af565b5b14611cff576040517f08c379a0000000000000000000000000000000000000000000000000000000008152600401611cf69061435e565b60405180910390fd5b600073ffffffffffffffffffffffffffffffffffffffff16600260003373ffffffffffffffffffffffffffffffffffffffff1673ffffffffffffffffffffffffffffffffffffffff16815260200190815260200160002060000160019054906101000a900473ffffffffffffffffffffffffffffffffffffffff1673ffffffffffffffffffffffffffffffffffffffff16141580611e2c5750600073ffffffffffffffffffffffffffffffffffffffff16600260003373ffffffffffffffffffffffffffffffffffffffff1673ffffffffffffffffffffffffffffffffffffffff16815260200190815260200160002060010160009054906101000a900473ffffffffffffffffffffffffffffffffffffffff1673ffffffffffffffffffffffffffffffffffffffff1614155b611e6b576040517f08c379a0000000000000000000000000000000000000000000000000000000008152600401611e62906143f0565b60405180910390fd5b600073ffffffffffffffffffffffffffffffffffffffff16600260003373ffffffffffffffffffffffffffffffffffffffff1673ffffffffffffffffffffffffffffffffffffffff16815260200190815260200160002060000160019054906101000a900473ffffffffffffffffffffffffffffffffffffffff1673ffffffffffffffffffffffffffffffffffffffff161415801561201b575061201a60048381548110611f1c57611f1b613596565b5b9060005260206000209060060201600401805480602002602001604051908101604052809291908181526020018280548015611fad57602002820191906000526020600020905b8160009054906101000a900473ffffffffffffffffffffffffffffffffffffffff1673ffffffffffffffffffffffffffffffffffffffff1681526020019060010190808311611f63575b5050505050600260003373ffffffffffffffffffffffffffffffffffffffff1673ffffffffffffffffffffffffffffffffffffffff16815260200190815260200160002060000160019054906101000a900473ffffffffffffffffffffffffffffffffffffffff16612893565b5b806121d25750600073ffffffffffffffffffffffffffffffffffffffff16600260003373ffffffffffffffffffffffffffffffffffffffff1673ffffffffffffffffffffffffffffffffffffffff16815260200190815260200160002060010160009054906101000a900473ffffffffffffffffffffffffffffffffffffffff1673ffffffffffffffffffffffffffffffffffffffff16141580156121d157506121d0600483815481106120d2576120d1613596565b5b906000526020600020906006020160040180548060200260200160405190810160405280929190818152602001828054801561216357602002820191906000526020600020905b8160009054906101000a900473ffffffffffffffffffffffffffffffffffffffff1673ffffffffffffffffffffffffffffffffffffffff1681526020019060010190808311612119575b5050505050600260003373ffffffffffffffffffffffffffffffffffffffff1673ffffffffffffffffffffffffffffffffffffffff16815260200190815260200160002060010160009054906101000a900473ffffffffffffffffffffffffffffffffffffffff16612893565b5b5b612211576040517f08c379a00000000000000000000000000000000000000000000000000000000081526004016122089061445c565b60405180910390fd5b600073ffffffffffffffffffffffffffffffffffffffff16600260003373ffffffffffffffffffffffffffffffffffffffff1673ffffffffffffffffffffffffffffffffffffffff16815260200190815260200160002060000160019054906101000a900473ffffffffffffffffffffffffffffffffffffffff1673ffffffffffffffffffffffffffffffffffffffff16141580156123c157506123c0600483815481106122c2576122c1613596565b5b906000526020600020906006020160040180548060200260200160405190810160405280929190818152602001828054801561235357602002820191906000526020600020905b8160009054906101000a900473ffffffffffffffffffffffffffffffffffffffff1673ffffffffffffffffffffffffffffffffffffffff1681526020019060010190808311612309575b5050505050600260003373ffffffffffffffffffffffffffffffffffffffff1673ffffffffffffffffffffffffffffffffffffffff16815260200190815260200160002060000160019054906101000a900473ffffffffffffffffffffffffffffffffffffffff16612893565b5b1561250d57600482815481106123da576123d9613596565b5b9060005260206000209060060201600401600260003373ffffffffffffffffffffffffffffffffffffffff1673ffffffffffffffffffffffffffffffffffffffff16815260200190815260200160002060000160019054906101000a900473ffffffffffffffffffffffffffffffffffffffff169080600181540180825580915050600190039060005260206000200160009091909190916101000a81548173ffffffffffffffffffffffffffffffffffffffff021916908373ffffffffffffffffffffffffffffffffffffffff160217905550600482815481106124c2576124c1613596565b5b906000526020600020906006020160030181815481106124e5576124e4613596565b5b9060005260206000209060020201600101600081548092919061250790613752565b91905055505b600073ffffffffffffffffffffffffffffffffffffffff16600260003373ffffffffffffffffffffffffffffffffffffffff1673ffffffffffffffffffffffffffffffffffffffff16815260200190815260200160002060010160009054906101000a900473ffffffffffffffffffffffffffffffffffffffff1673ffffffffffffffffffffffffffffffffffffffff16141580156126bd57506126bc600483815481106125be576125bd613596565b5b906000526020600020906006020160040180548060200260200160405190810160405280929190818152602001828054801561264f57602002820191906000526020600020905b8160009054906101000a900473ffffffffffffffffffffffffffffffffffffffff1673ffffffffffffffffffffffffffffffffffffffff1681526020019060010190808311612605575b5050505050600260003373ffffffffffffffffffffffffffffffffffffffff1673ffffffffffffffffffffffffffffffffffffffff16815260200190815260200160002060010160009054906101000a900473ffffffffffffffffffffffffffffffffffffffff16612893565b5b1561280957600482815481106126d6576126d5613596565b5b9060005260206000209060060201600401600260003373ffffffffffffffffffffffffffffffffffffffff1673ffffffffffffffffffffffffffffffffffffffff16815260200190815260200160002060010160009054906101000a900473ffffffffffffffffffffffffffffffffffffffff169080600181540180825580915050600190039060005260206000200160009091909190916101000a81548173ffffffffffffffffffffffffffffffffffffffff021916908373ffffffffffffffffffffffffffffffffffffffff160217905550600482815481106127be576127bd613596565b5b906000526020600020906006020160030181815481106127e1576127e0613596565b5b9060005260206000209060020201600101600081548092919061280390613752565b91905055505b600154600483815481106128205761281f613596565b5b90600052602060002090600602016004018054905010612889576002600483815481106128505761284f613596565b5b906000526020600020906006020160020160016101000a81548160ff02191690836002811115612883576128826130af565b5b02179055505b5050565b60015481565b600080600090505b835181101561290e578273ffffffffffffffffffffffffffffffffffffffff168482815181106128ce576128cd613596565b5b602002602001015173ffffffffffffffffffffffffffffffffffffffff16036128fb576000915050612914565b808061290690613752565b91505061289b565b50600190505b92915050565b600080600090506000805b6004858154811061293957612938613596565b5b906000526020600020906006020160050180549050811015612a615760036004811115612969576129686130af565b5b600260006004888154811061298157612980613596565b5b906000526020600020906006020160050184815481106129a4576129a3613596565b5b9060005260206000200160009054906101000a900473ffffffffffffffffffffffffffffffffffffffff1673ffffffffffffffffffffffffffffffffffffffff1673ffffffffffffffffffffffffffffffffffffffff16815260200190815260200160002060000160009054906101000a900460ff166004811115612a2c57612a2b6130af565b5b10612a40578280612a3c90613752565b9350505b8180612a4b90613752565b9250508080612a5990613752565b915050612925565b50600a82101580612a735750601e8110155b92505050919050565b606060006001612a8b84612e5e565b01905060008167ffffffffffffffff811115612aaa57612aa96132f0565b5b6040519080825280601f01601f191660200182016040528015612adc5781602001600182028036833780820191505090505b509050600082602001820190505b600115612b3f578080600190039150507f3031323334353637383961626364656600000000000000000000000000000000600a86061a8153600a8581612b3357612b3261447c565b5b04945060008503612aea575b819350505050919050565b60608585858585604051602001612b659594939291906144e7565b604051602081830303815290604052905095945050505050565b600080600090505b600480549050811015612c0f5760016002811115612ba857612ba76130af565b5b60048281548110612bbc57612bbb613596565b5b906000526020600020906006020160020160019054906101000a900460ff166002811115612bed57612bec6130af565b5b03612bfc576000915050612c15565b8080612c0790613752565b915050612b87565b50600190505b90565b6001811480612c275750600281145b612c3057600080fd5b600073ffffffffffffffffffffffffffffffffffffffff16600260008473ffffffffffffffffffffffffffffffffffffffff1673ffffffffffffffffffffffffffffffffffffffff16815260200190815260200160002060000160019054906101000a900473ffffffffffffffffffffffffffffffffffffffff1673ffffffffffffffffffffffffffffffffffffffff1603612d4c5782600260008473ffffffffffffffffffffffffffffffffffffffff1673ffffffffffffffffffffffffffffffffffffffff16815260200190815260200160002060000160016101000a81548173ffffffffffffffffffffffffffffffffffffffff021916908373ffffffffffffffffffffffffffffffffffffffff160217905550612dce565b82600260008473ffffffffffffffffffffffffffffffffffffffff1673ffffffffffffffffffffffffffffffffffffffff16815260200190815260200160002060010160006101000a81548173ffffffffffffffffffffffffffffffffffffffff021916908373ffffffffffffffffffffffffffffffffffffffff1602179055505b60018103612e59576000600260008573ffffffffffffffffffffffffffffffffffffffff1673ffffffffffffffffffffffffffffffffffffffff16815260200190815260200160002060000160016101000a81548173ffffffffffffffffffffffffffffffffffffffff021916908373ffffffffffffffffffffffffffffffffffffffff1602179055505b505050565b600080600090507a184f03e93ff9f4daa797ed6e38ed64bf6a1f0100000000000000008310612ebc577a184f03e93ff9f4daa797ed6e38ed64bf6a1f0100000000000000008381612eb257612eb161447c565b5b0492506040810190505b6d04ee2d6d415b85acef81000000008310612ef9576d04ee2d6d415b85acef81000000008381612eef57612eee61447c565b5b0492506020810190505b662386f26fc100008310612f2857662386f26fc100008381612f1e57612f1d61447c565b5b0492506010810190505b6305f5e1008310612f51576305f5e1008381612f4757612f4661447c565b5b0492506008810190505b6127108310612f76576127108381612f6c57612f6b61447c565b5b0492506004810190505b60648310612f995760648381612f8f57612f8e61447c565b5b0492506002810190505b600a8310612fa8576001810190505b80915050919050565b604051806060016040528060006004811115612fd057612fcf6130af565b5b8152602001600073ffffffffffffffffffffffffffffffffffffffff168152602001600073ffffffffffffffffffffffffffffffffffffffff1681525090565b6000604051905090565b600080fd5b600080fd5b600073ffffffffffffffffffffffffffffffffffffffff82169050919050565b600061304f82613024565b9050919050565b61305f81613044565b811461306a57600080fd5b50565b60008135905061307c81613056565b92915050565b6000602082840312156130985761309761301a565b5b60006130a68482850161306d565b91505092915050565b7f4e487b7100000000000000000000000000000000000000000000000000000000600052602160045260246000fd5b600581106130ef576130ee6130af565b5b50565b6000819050613100826130de565b919050565b6000613110826130f2565b9050919050565b61312081613105565b82525050565b61312f81613044565b82525050565b600060608201905061314a6000830186613117565b6131576020830185613126565b6131646040830184613126565b949350505050565b6000819050919050565b61317f8161316c565b811461318a57600080fd5b50565b60008135905061319c81613176565b92915050565b6000602082840312156131b8576131b761301a565b5b60006131c68482850161318d565b91505092915050565b600081519050919050565b600082825260208201905092915050565b60005b838110156132095780820151818401526020810190506131ee565b60008484015250505050565b6000601f19601f8301169050919050565b6000613231826131cf565b61323b81856131da565b935061324b8185602086016131eb565b61325481613215565b840191505092915050565b600060208201905081810360008301526132798184613226565b905092915050565b6005811061328e57600080fd5b50565b6000813590506132a081613281565b92915050565b600080604083850312156132bd576132bc61301a565b5b60006132cb85828601613291565b92505060206132dc8582860161306d565b9150509250929050565b600080fd5b600080fd5b7f4e487b7100000000000000000000000000000000000000000000000000000000600052604160045260246000fd5b61332882613215565b810181811067ffffffffffffffff82111715613347576133466132f0565b5b80604052505050565b600061335a613010565b9050613366828261331f565b919050565b600067ffffffffffffffff821115613386576133856132f0565b5b61338f82613215565b9050602081019050919050565b82818337600083830152505050565b60006133be6133b98461336b565b613350565b9050828152602081018484840111156133da576133d96132eb565b5b6133e584828561339c565b509392505050565b600082601f830112613402576134016132e6565b5b81356134128482602086016133ab565b91505092915050565b6000602082840312156134315761343061301a565b5b600082013567ffffffffffffffff81111561344f5761344e61301f565b5b61345b848285016133ed565b91505092915050565b61346d8161316c565b82525050565b60006020820190506134886000830184613464565b92915050565b60008115159050919050565b6134a38161348e565b82525050565b60006020820190506134be600083018461349a565b92915050565b600080604083850312156134db576134da61301a565b5b60006134e98582860161318d565b92505060206134fa8582860161318d565b9150509250929050565b7f4f6e6c79207061727479206d656d626572732063616e20696e697469616c6c7960008201527f20737570706f7274206120726567756c6172206d6f74696f6e2e000000000000602082015250565b6000613560603a836131da565b915061356b82613504565b604082019050919050565b6000602082019050818103600083015261358f81613553565b9050919050565b7f4e487b7100000000000000000000000000000000000000000000000000000000600052603260045260246000fd5b7f41206d656d6265722063616e206f6e6c79206f6e636520737570706f7274206160008201527f20726567756c6172206d6f74696f6e20696e697469616c6c792e000000000000602082015250565b6000613621603a836131da565b915061362c826135c5565b604082019050919050565b6000602082019050818103600083015261365081613614565b9050919050565b7f4d6f74696f6e206973206e6f7420636c6f736564207965742e00000000000000600082015250565b600061368d6019836131da565b915061369882613657565b602082019050919050565b600060208201905081810360008301526136bc81613680565b9050919050565b7f4e487b7100000000000000000000000000000000000000000000000000000000600052602260045260246000fd5b6000600282049050600182168061370a57607f821691505b60208210810361371d5761371c6136c3565b5b50919050565b7f4e487b7100000000000000000000000000000000000000000000000000000000600052601160045260246000fd5b600061375d8261316c565b91507fffffffffffffffffffffffffffffffffffffffffffffffffffffffffffffffff820361378f5761378e613723565b5b600182019050919050565b7f4f6e6c792061646d696e732063616e20616464206e657720636f6e76656e746960008201527f6f6e207061727469636970616e74732e00000000000000000000000000000000602082015250565b60006137f66030836131da565b91506138018261379a565b604082019050919050565b60006020820190508181036000830152613825816137e9565b9050919050565b7f546865205061727469636970616e742077617320616c7265616479206164646560008201527f6420616e6420686f6c647320766f74696e67207269676874732e000000000000602082015250565b6000613888603a836131da565b91506138938261382c565b604082019050919050565b600060208201905081810360008301526138b78161387b565b9050919050565b7f43616e206e6f7420616464206e6577207061727469636970616e74732077686960008201527f6c6520766f74696e6720697320676f696e67206f6e2e00000000000000000000602082015250565b600061391a6036836131da565b9150613925826138be565b604082019050919050565b600060208201905081810360008301526139498161390d565b9050919050565b7f4f6e6c792061646d696e732063616e20636c6f7365206d6f74696f6e732e0000600082015250565b6000613986601e836131da565b915061399182613950565b602082019050919050565b600060208201905081810360008301526139b581613979565b9050919050565b7f4f6e6c79206f70656e206d6f74696f6e732063616e20626520636c6f7365642e600082015250565b60006139f26020836131da565b91506139fd826139bc565b602082019050919050565b60006020820190508181036000830152613a21816139e5565b9050919050565b7f4f6e6c7920287265706c6163656d656e742964656c6567617465732063616e2060008201527f7472616e7366657220766f74696e67207269676874732e000000000000000000602082015250565b6000613a846037836131da565b9150613a8f82613a28565b604082019050919050565b60006020820190508181036000830152613ab381613a77565b9050919050565b7f4f6e6c7920287265706c6163656d656e742964656c6567617465732063616e2060008201527f7265636569766520766f74696e67207269676874732e00000000000000000000602082015250565b6000613b166036836131da565b9150613b2182613aba565b604082019050919050565b60006020820190508181036000830152613b4581613b09565b9050919050565b7f4d6573736167652073656e64657220646f6573206e6f7420686f6c6420616e7960008201527f20766f74696e6720726967687420312e00000000000000000000000000000000602082015250565b6000613ba86030836131da565b9150613bb382613b4c565b604082019050919050565b60006020820190508181036000830152613bd781613b9b565b9050919050565b7f526563656976696e6720287265706c6163656d656e742964656c65676174652060008201527f68617320616c726561647920322061637469766520766f74696e67207269676860208201527f7473000000000000000000000000000000000000000000000000000000000000604082015250565b6000613c606042836131da565b9150613c6b82613bde565b606082019050919050565b60006020820190508181036000830152613c8f81613c53565b9050919050565b7f43616e206e6f74207472616e7366657220766f74657320647572696e67206f7060008201527f656e20766f74696e672070726f63657373657300000000000000000000000000602082015250565b6000613cf26033836131da565b9150613cfd82613c96565b604082019050919050565b60006020820190508181036000830152613d2181613ce5565b9050919050565b7f4f6e6c79207061727479206d656d626572732063616e2063726561746520612060008201527f726567756c6172206d6f74696f6e2e0000000000000000000000000000000000602082015250565b6000613d84602f836131da565b9150613d8f82613d28565b604082019050919050565b60006020820190508181036000830152613db381613d77565b9050919050565b7f43616e206e6f7420637265617465206e6577206d6f74696f6e73207768696c6560008201527f20766f74696e6720697320676f696e67206f6e2e000000000000000000000000602082015250565b6000613e166034836131da565b9150613e2182613dba565b604082019050919050565b60006020820190508181036000830152613e4581613e09565b9050919050565b60008190508160005260206000209050919050565b60006020601f8301049050919050565b600082821b905092915050565b600060088302613eae7fffffffffffffffffffffffffffffffffffffffffffffffffffffffffffffffff82613e71565b613eb88683613e71565b95508019841693508086168417925050509392505050565b6000819050919050565b6000613ef5613ef0613eeb8461316c565b613ed0565b61316c565b9050919050565b6000819050919050565b613f0f83613eda565b613f23613f1b82613efc565b848454613e7e565b825550505050565b600090565b613f38613f2b565b613f43818484613f06565b505050565b5b81811015613f6757613f5c600082613f30565b600181019050613f49565b5050565b601f821115613fac57613f7d81613e4c565b613f8684613e61565b81016020851015613f95578190505b613fa9613fa185613e61565b830182613f48565b50505b505050565b600082821c905092915050565b6000613fcf60001984600802613fb1565b1980831691505092915050565b6000613fe88383613fbe565b9150826002028217905092915050565b614001826131cf565b67ffffffffffffffff81111561401a576140196132f0565b5b61402482546136f2565b61402f828285613f6b565b600060209050601f8311600181146140625760008415614050578287015190505b61405a8582613fdc565b8655506140c2565b601f19841661407086613e4c565b60005b8281101561409857848901518255600182019150602085019450602081019050614073565b868310156140b557848901516140b1601f891682613fbe565b8355505b6001600288020188555050505b505050505050565b7f4f6e6c792064656c6567617465732063616e207265636c61696d20746865697260008201527f206f726967696e616c20766f74696e672072696768742e000000000000000000602082015250565b60006141266037836131da565b9150614131826140ca565b604082019050919050565b6000602082019050818103600083015261415581614119565b9050919050565b7f5265636c61696d657220616c726561647920686f6c647320322061637469766560008201527f20766f74696e6720726967687473000000000000000000000000000000000000602082015250565b60006141b8602e836131da565b91506141c38261415c565b604082019050919050565b600060208201905081810360008301526141e7816141ab565b9050919050565b7f5265636c61696d657220616c726561647920686f6c6473206869732f6865722060008201527f6f726967696e616c20766f74696e672072696768740000000000000000000000602082015250565b600061424a6035836131da565b9150614255826141ee565b604082019050919050565b600060208201905081810360008301526142798161423d565b9050919050565b7f4f6e6c7920287265706c6163656d656e742964656c6567617465732063616e2060008201527f6361737420766f7465732e000000000000000000000000000000000000000000602082015250565b60006142dc602b836131da565b91506142e782614280565b604082019050919050565b6000602082019050818103600083015261430b816142cf565b9050919050565b7f4d6f74696f6e206973206e6f74206f70656e20666f7220766f74696e672e0000600082015250565b6000614348601e836131da565b915061435382614312565b602082019050919050565b600060208201905081810360008301526143778161433b565b9050919050565b7f4e6f2061637469766520766f74696e67207269676874732068656c642062792060008201527f73656e6465720000000000000000000000000000000000000000000000000000602082015250565b60006143da6026836131da565b91506143e58261437e565b604082019050919050565b60006020820190508181036000830152614409816143cd565b9050919050565b7f566f7465287329207765726520616c7265616479206361737400000000000000600082015250565b60006144466019836131da565b915061445182614410565b602082019050919050565b6000602082019050818103600083015261447581614439565b9050919050565b7f4e487b7100000000000000000000000000000000000000000000000000000000600052601260045260246000fd5b600081905092915050565b60006144c1826131cf565b6144cb81856144ab565b93506144db8185602086016131eb565b80840191505092915050565b60006144f382886144b6565b91506144ff82876144b6565b915061450b82866144b6565b915061451782856144b6565b915061452382846144b6565b9150819050969550505050505056fea264697066735822122047a3cfacde3a9b01a2639282ee3ba3e062a32dc38430175ae1b4242afdf38cde64736f6c63430008120033",
					"opcodes": "PUSH1 0x80 PUSH1 0x40 MSTORE PUSH1 0x0 DUP1 SSTORE PUSH1 0x0 PUSH1 0x1 SSTORE CALLVALUE DUP1 ISZERO PUSH3 0x1A JUMPI PUSH1 0x0 DUP1 REVERT JUMPDEST POP PUSH3 0x25 PUSH3 0x21C JUMP JUMPDEST PUSH1 0x4 DUP2 PUSH1 0x0 ADD SWAP1 PUSH1 0x4 DUP2 GT ISZERO PUSH3 0x41 JUMPI PUSH3 0x40 PUSH3 0x27E JUMP JUMPDEST JUMPDEST SWAP1 DUP2 PUSH1 0x4 DUP2 GT ISZERO PUSH3 0x58 JUMPI PUSH3 0x57 PUSH3 0x27E JUMP JUMPDEST JUMPDEST DUP2 MSTORE POP POP CALLER DUP2 PUSH1 0x20 ADD SWAP1 PUSH20 0xFFFFFFFFFFFFFFFFFFFFFFFFFFFFFFFFFFFFFFFF AND SWAP1 DUP2 PUSH20 0xFFFFFFFFFFFFFFFFFFFFFFFFFFFFFFFFFFFFFFFF AND DUP2 MSTORE POP POP DUP1 PUSH1 0x2 PUSH1 0x0 CALLER PUSH20 0xFFFFFFFFFFFFFFFFFFFFFFFFFFFFFFFFFFFFFFFF AND PUSH20 0xFFFFFFFFFFFFFFFFFFFFFFFFFFFFFFFFFFFFFFFF AND DUP2 MSTORE PUSH1 0x20 ADD SWAP1 DUP2 MSTORE PUSH1 0x20 ADD PUSH1 0x0 KECCAK256 PUSH1 0x0 DUP3 ADD MLOAD DUP2 PUSH1 0x0 ADD PUSH1 0x0 PUSH2 0x100 EXP DUP2 SLOAD DUP2 PUSH1 0xFF MUL NOT AND SWAP1 DUP4 PUSH1 0x4 DUP2 GT ISZERO PUSH3 0x102 JUMPI PUSH3 0x101 PUSH3 0x27E JUMP JUMPDEST JUMPDEST MUL OR SWAP1 SSTORE POP PUSH1 0x20 DUP3 ADD MLOAD DUP2 PUSH1 0x0 ADD PUSH1 0x1 PUSH2 0x100 EXP DUP2 SLOAD DUP2 PUSH20 0xFFFFFFFFFFFFFFFFFFFFFFFFFFFFFFFFFFFFFFFF MUL NOT AND SWAP1 DUP4 PUSH20 0xFFFFFFFFFFFFFFFFFFFFFFFFFFFFFFFFFFFFFFFF AND MUL OR SWAP1 SSTORE POP PUSH1 0x40 DUP3 ADD MLOAD DUP2 PUSH1 0x1 ADD PUSH1 0x0 PUSH2 0x100 EXP DUP2 SLOAD DUP2 PUSH20 0xFFFFFFFFFFFFFFFFFFFFFFFFFFFFFFFFFFFFFFFF MUL NOT AND SWAP1 DUP4 PUSH20 0xFFFFFFFFFFFFFFFFFFFFFFFFFFFFFFFFFFFFFFFF AND MUL OR SWAP1 SSTORE POP SWAP1 POP POP PUSH1 0x3 CALLER SWAP1 DUP1 PUSH1 0x1 DUP2 SLOAD ADD DUP1 DUP3 SSTORE DUP1 SWAP2 POP POP PUSH1 0x1 SWAP1 SUB SWAP1 PUSH1 0x0 MSTORE PUSH1 0x20 PUSH1 0x0 KECCAK256 ADD PUSH1 0x0 SWAP1 SWAP2 SWAP1 SWAP2 SWAP1 SWAP2 PUSH2 0x100 EXP DUP2 SLOAD DUP2 PUSH20 0xFFFFFFFFFFFFFFFFFFFFFFFFFFFFFFFFFFFFFFFF MUL NOT AND SWAP1 DUP4 PUSH20 0xFFFFFFFFFFFFFFFFFFFFFFFFFFFFFFFFFFFFFFFF AND MUL OR SWAP1 SSTORE POP PUSH1 0x1 PUSH1 0x0 DUP2 SLOAD DUP1 SWAP3 SWAP2 SWAP1 PUSH3 0x210 SWAP1 PUSH3 0x2E6 JUMP JUMPDEST SWAP2 SWAP1 POP SSTORE POP POP PUSH3 0x333 JUMP JUMPDEST PUSH1 0x40 MLOAD DUP1 PUSH1 0x60 ADD PUSH1 0x40 MSTORE DUP1 PUSH1 0x0 PUSH1 0x4 DUP2 GT ISZERO PUSH3 0x23E JUMPI PUSH3 0x23D PUSH3 0x27E JUMP JUMPDEST JUMPDEST DUP2 MSTORE PUSH1 0x20 ADD PUSH1 0x0 PUSH20 0xFFFFFFFFFFFFFFFFFFFFFFFFFFFFFFFFFFFFFFFF AND DUP2 MSTORE PUSH1 0x20 ADD PUSH1 0x0 PUSH20 0xFFFFFFFFFFFFFFFFFFFFFFFFFFFFFFFFFFFFFFFF AND DUP2 MSTORE POP SWAP1 JUMP JUMPDEST PUSH32 0x4E487B7100000000000000000000000000000000000000000000000000000000 PUSH1 0x0 MSTORE PUSH1 0x21 PUSH1 0x4 MSTORE PUSH1 0x24 PUSH1 0x0 REVERT JUMPDEST PUSH32 0x4E487B7100000000000000000000000000000000000000000000000000000000 PUSH1 0x0 MSTORE PUSH1 0x11 PUSH1 0x4 MSTORE PUSH1 0x24 PUSH1 0x0 REVERT JUMPDEST PUSH1 0x0 DUP2 SWAP1 POP SWAP2 SWAP1 POP JUMP JUMPDEST PUSH1 0x0 PUSH3 0x2F3 DUP3 PUSH3 0x2DC JUMP JUMPDEST SWAP2 POP PUSH32 0xFFFFFFFFFFFFFFFFFFFFFFFFFFFFFFFFFFFFFFFFFFFFFFFFFFFFFFFFFFFFFFFF DUP3 SUB PUSH3 0x328 JUMPI PUSH3 0x327 PUSH3 0x2AD JUMP JUMPDEST JUMPDEST PUSH1 0x1 DUP3 ADD SWAP1 POP SWAP2 SWAP1 POP JUMP JUMPDEST PUSH2 0x4568 DUP1 PUSH3 0x343 PUSH1 0x0 CODECOPY PUSH1 0x0 RETURN INVALID PUSH1 0x80 PUSH1 0x40 MSTORE CALLVALUE DUP1 ISZERO PUSH2 0x10 JUMPI PUSH1 0x0 DUP1 REVERT JUMPDEST POP PUSH1 0x4 CALLDATASIZE LT PUSH2 0xA9 JUMPI PUSH1 0x0 CALLDATALOAD PUSH1 0xE0 SHR DUP1 PUSH4 0xA00F0236 GT PUSH2 0x71 JUMPI DUP1 PUSH4 0xA00F0236 EQ PUSH2 0x164 JUMPI DUP1 PUSH4 0xBD7BB654 EQ PUSH2 0x180 JUMPI DUP1 PUSH4 0xD5506819 EQ PUSH2 0x1B0 JUMPI DUP1 PUSH4 0xECD2713A EQ PUSH2 0x1CE JUMPI DUP1 PUSH4 0xF513EDB4 EQ PUSH2 0x1EC JUMPI DUP1 PUSH4 0xFC14EBBB EQ PUSH2 0x208 JUMPI PUSH2 0xA9 JUMP JUMPDEST DUP1 PUSH4 0x9E69EDE EQ PUSH2 0xAE JUMPI DUP1 PUSH4 0x31B47842 EQ PUSH2 0xE0 JUMPI DUP1 PUSH4 0x7D47318A EQ PUSH2 0xFC JUMPI DUP1 PUSH4 0x8DE2FC3A EQ PUSH2 0x12C JUMPI DUP1 PUSH4 0x9084F1F9 EQ PUSH2 0x148 JUMPI JUMPDEST PUSH1 0x0 DUP1 REVERT JUMPDEST PUSH2 0xC8 PUSH1 0x4 DUP1 CALLDATASIZE SUB DUP2 ADD SWAP1 PUSH2 0xC3 SWAP2 SWAP1 PUSH2 0x3082 JUMP JUMPDEST PUSH2 0x226 JUMP JUMPDEST PUSH1 0x40 MLOAD PUSH2 0xD7 SWAP4 SWAP3 SWAP2 SWAP1 PUSH2 0x3135 JUMP JUMPDEST PUSH1 0x40 MLOAD DUP1 SWAP2 SUB SWAP1 RETURN JUMPDEST PUSH2 0xFA PUSH1 0x4 DUP1 CALLDATASIZE SUB DUP2 ADD SWAP1 PUSH2 0xF5 SWAP2 SWAP1 PUSH2 0x31A2 JUMP JUMPDEST PUSH2 0x29D JUMP JUMPDEST STOP JUMPDEST PUSH2 0x116 PUSH1 0x4 DUP1 CALLDATASIZE SUB DUP2 ADD SWAP1 PUSH2 0x111 SWAP2 SWAP1 PUSH2 0x31A2 JUMP JUMPDEST PUSH2 0x52C JUMP JUMPDEST PUSH1 0x40 MLOAD PUSH2 0x123 SWAP2 SWAP1 PUSH2 0x325F JUMP JUMPDEST PUSH1 0x40 MLOAD DUP1 SWAP2 SUB SWAP1 RETURN JUMPDEST PUSH2 0x146 PUSH1 0x4 DUP1 CALLDATASIZE SUB DUP2 ADD SWAP1 PUSH2 0x141 SWAP2 SWAP1 PUSH2 0x32A6 JUMP JUMPDEST PUSH2 0x7C3 JUMP JUMPDEST STOP JUMPDEST PUSH2 0x162 PUSH1 0x4 DUP1 CALLDATASIZE SUB DUP2 ADD SWAP1 PUSH2 0x15D SWAP2 SWAP1 PUSH2 0x31A2 JUMP JUMPDEST PUSH2 0xC77 JUMP JUMPDEST STOP JUMPDEST PUSH2 0x17E PUSH1 0x4 DUP1 CALLDATASIZE SUB DUP2 ADD SWAP1 PUSH2 0x179 SWAP2 SWAP1 PUSH2 0x3082 JUMP JUMPDEST PUSH2 0xE16 JUMP JUMPDEST STOP JUMPDEST PUSH2 0x19A PUSH1 0x4 DUP1 CALLDATASIZE SUB DUP2 ADD SWAP1 PUSH2 0x195 SWAP2 SWAP1 PUSH2 0x341B JUMP JUMPDEST PUSH2 0x1215 JUMP JUMPDEST PUSH1 0x40 MLOAD PUSH2 0x1A7 SWAP2 SWAP1 PUSH2 0x3473 JUMP JUMPDEST PUSH1 0x40 MLOAD DUP1 SWAP2 SUB SWAP1 RETURN JUMPDEST PUSH2 0x1B8 PUSH2 0x15A1 JUMP JUMPDEST PUSH1 0x40 MLOAD PUSH2 0x1C5 SWAP2 SWAP1 PUSH2 0x34A9 JUMP JUMPDEST PUSH1 0x40 MLOAD DUP1 SWAP2 SUB SWAP1 RETURN JUMPDEST PUSH2 0x1D6 PUSH2 0x1BA9 JUMP JUMPDEST PUSH1 0x40 MLOAD PUSH2 0x1E3 SWAP2 SWAP1 PUSH2 0x3473 JUMP JUMPDEST PUSH1 0x40 MLOAD DUP1 SWAP2 SUB SWAP1 RETURN JUMPDEST PUSH2 0x206 PUSH1 0x4 DUP1 CALLDATASIZE SUB DUP2 ADD SWAP1 PUSH2 0x201 SWAP2 SWAP1 PUSH2 0x34C4 JUMP JUMPDEST PUSH2 0x1BAF JUMP JUMPDEST STOP JUMPDEST PUSH2 0x210 PUSH2 0x288D JUMP JUMPDEST PUSH1 0x40 MLOAD PUSH2 0x21D SWAP2 SWAP1 PUSH2 0x3473 JUMP JUMPDEST PUSH1 0x40 MLOAD DUP1 SWAP2 SUB SWAP1 RETURN JUMPDEST PUSH1 0x2 PUSH1 0x20 MSTORE DUP1 PUSH1 0x0 MSTORE PUSH1 0x40 PUSH1 0x0 KECCAK256 PUSH1 0x0 SWAP2 POP SWAP1 POP DUP1 PUSH1 0x0 ADD PUSH1 0x0 SWAP1 SLOAD SWAP1 PUSH2 0x100 EXP SWAP1 DIV PUSH1 0xFF AND SWAP1 DUP1 PUSH1 0x0 ADD PUSH1 0x1 SWAP1 SLOAD SWAP1 PUSH2 0x100 EXP SWAP1 DIV PUSH20 0xFFFFFFFFFFFFFFFFFFFFFFFFFFFFFFFFFFFFFFFF AND SWAP1 DUP1 PUSH1 0x1 ADD PUSH1 0x0 SWAP1 SLOAD SWAP1 PUSH2 0x100 EXP SWAP1 DIV PUSH20 0xFFFFFFFFFFFFFFFFFFFFFFFFFFFFFFFFFFFFFFFF AND SWAP1 POP DUP4 JUMP JUMPDEST PUSH1 0x1 PUSH1 0x4 DUP2 GT ISZERO PUSH2 0x2B1 JUMPI PUSH2 0x2B0 PUSH2 0x30AF JUMP JUMPDEST JUMPDEST PUSH1 0x2 PUSH1 0x0 CALLER PUSH20 0xFFFFFFFFFFFFFFFFFFFFFFFFFFFFFFFFFFFFFFFF AND PUSH20 0xFFFFFFFFFFFFFFFFFFFFFFFFFFFFFFFFFFFFFFFF AND DUP2 MSTORE PUSH1 0x20 ADD SWAP1 DUP2 MSTORE PUSH1 0x20 ADD PUSH1 0x0 KECCAK256 PUSH1 0x0 ADD PUSH1 0x0 SWAP1 SLOAD SWAP1 PUSH2 0x100 EXP SWAP1 DIV PUSH1 0xFF AND PUSH1 0x4 DUP2 GT ISZERO PUSH2 0x313 JUMPI PUSH2 0x312 PUSH2 0x30AF JUMP JUMPDEST JUMPDEST LT ISZERO PUSH2 0x354 JUMPI PUSH1 0x40 MLOAD PUSH32 0x8C379A000000000000000000000000000000000000000000000000000000000 DUP2 MSTORE PUSH1 0x4 ADD PUSH2 0x34B SWAP1 PUSH2 0x3576 JUMP JUMPDEST PUSH1 0x40 MLOAD DUP1 SWAP2 SUB SWAP1 REVERT JUMPDEST PUSH2 0x407 PUSH1 0x4 DUP3 DUP2 SLOAD DUP2 LT PUSH2 0x36B JUMPI PUSH2 0x36A PUSH2 0x3596 JUMP JUMPDEST JUMPDEST SWAP1 PUSH1 0x0 MSTORE PUSH1 0x20 PUSH1 0x0 KECCAK256 SWAP1 PUSH1 0x6 MUL ADD PUSH1 0x5 ADD DUP1 SLOAD DUP1 PUSH1 0x20 MUL PUSH1 0x20 ADD PUSH1 0x40 MLOAD SWAP1 DUP2 ADD PUSH1 0x40 MSTORE DUP1 SWAP3 SWAP2 SWAP1 DUP2 DUP2 MSTORE PUSH1 0x20 ADD DUP3 DUP1 SLOAD DUP1 ISZERO PUSH2 0x3FC JUMPI PUSH1 0x20 MUL DUP3 ADD SWAP2 SWAP1 PUSH1 0x0 MSTORE PUSH1 0x20 PUSH1 0x0 KECCAK256 SWAP1 JUMPDEST DUP2 PUSH1 0x0 SWAP1 SLOAD SWAP1 PUSH2 0x100 EXP SWAP1 DIV PUSH20 0xFFFFFFFFFFFFFFFFFFFFFFFFFFFFFFFFFFFFFFFF AND PUSH20 0xFFFFFFFFFFFFFFFFFFFFFFFFFFFFFFFFFFFFFFFF AND DUP2 MSTORE PUSH1 0x20 ADD SWAP1 PUSH1 0x1 ADD SWAP1 DUP1 DUP4 GT PUSH2 0x3B2 JUMPI JUMPDEST POP POP POP POP POP CALLER PUSH2 0x2893 JUMP JUMPDEST PUSH2 0x446 JUMPI PUSH1 0x40 MLOAD PUSH32 0x8C379A000000000000000000000000000000000000000000000000000000000 DUP2 MSTORE PUSH1 0x4 ADD PUSH2 0x43D SWAP1 PUSH2 0x3637 JUMP JUMPDEST PUSH1 0x40 MLOAD DUP1 SWAP2 SUB SWAP1 REVERT JUMPDEST PUSH1 0x4 DUP2 DUP2 SLOAD DUP2 LT PUSH2 0x45A JUMPI PUSH2 0x459 PUSH2 0x3596 JUMP JUMPDEST JUMPDEST SWAP1 PUSH1 0x0 MSTORE PUSH1 0x20 PUSH1 0x0 KECCAK256 SWAP1 PUSH1 0x6 MUL ADD PUSH1 0x5 ADD CALLER SWAP1 DUP1 PUSH1 0x1 DUP2 SLOAD ADD DUP1 DUP3 SSTORE DUP1 SWAP2 POP POP PUSH1 0x1 SWAP1 SUB SWAP1 PUSH1 0x0 MSTORE PUSH1 0x20 PUSH1 0x0 KECCAK256 ADD PUSH1 0x0 SWAP1 SWAP2 SWAP1 SWAP2 SWAP1 SWAP2 PUSH2 0x100 EXP DUP2 SLOAD DUP2 PUSH20 0xFFFFFFFFFFFFFFFFFFFFFFFFFFFFFFFFFFFFFFFF MUL NOT AND SWAP1 DUP4 PUSH20 0xFFFFFFFFFFFFFFFFFFFFFFFFFFFFFFFFFFFFFFFF AND MUL OR SWAP1 SSTORE POP PUSH2 0x4D5 DUP2 PUSH2 0x291A JUMP JUMPDEST ISZERO PUSH2 0x529 JUMPI PUSH1 0x1 PUSH1 0x4 DUP3 DUP2 SLOAD DUP2 LT PUSH2 0x4F0 JUMPI PUSH2 0x4EF PUSH2 0x3596 JUMP JUMPDEST JUMPDEST SWAP1 PUSH1 0x0 MSTORE PUSH1 0x20 PUSH1 0x0 KECCAK256 SWAP1 PUSH1 0x6 MUL ADD PUSH1 0x2 ADD PUSH1 0x1 PUSH2 0x100 EXP DUP2 SLOAD DUP2 PUSH1 0xFF MUL NOT AND SWAP1 DUP4 PUSH1 0x2 DUP2 GT ISZERO PUSH2 0x523 JUMPI PUSH2 0x522 PUSH2 0x30AF JUMP JUMPDEST JUMPDEST MUL OR SWAP1 SSTORE POP JUMPDEST POP JUMP JUMPDEST PUSH1 0x60 PUSH1 0x2 DUP1 DUP2 GT ISZERO PUSH2 0x541 JUMPI PUSH2 0x540 PUSH2 0x30AF JUMP JUMPDEST JUMPDEST PUSH1 0x4 DUP4 DUP2 SLOAD DUP2 LT PUSH2 0x555 JUMPI PUSH2 0x554 PUSH2 0x3596 JUMP JUMPDEST JUMPDEST SWAP1 PUSH1 0x0 MSTORE PUSH1 0x20 PUSH1 0x0 KECCAK256 SWAP1 PUSH1 0x6 MUL ADD PUSH1 0x2 ADD PUSH1 0x1 SWAP1 SLOAD SWAP1 PUSH2 0x100 EXP SWAP1 DIV PUSH1 0xFF AND PUSH1 0x2 DUP2 GT ISZERO PUSH2 0x586 JUMPI PUSH2 0x585 PUSH2 0x30AF JUMP JUMPDEST JUMPDEST EQ PUSH2 0x5C6 JUMPI PUSH1 0x40 MLOAD PUSH32 0x8C379A000000000000000000000000000000000000000000000000000000000 DUP2 MSTORE PUSH1 0x4 ADD PUSH2 0x5BD SWAP1 PUSH2 0x36A3 JUMP JUMPDEST PUSH1 0x40 MLOAD DUP1 SWAP2 SUB SWAP1 REVERT JUMPDEST PUSH1 0x40 MLOAD DUP1 PUSH1 0x20 ADD PUSH1 0x40 MSTORE DUP1 PUSH1 0x0 DUP2 MSTORE POP SWAP1 POP PUSH1 0x0 JUMPDEST PUSH1 0x4 DUP4 DUP2 SLOAD DUP2 LT PUSH2 0x5EF JUMPI PUSH2 0x5EE PUSH2 0x3596 JUMP JUMPDEST JUMPDEST SWAP1 PUSH1 0x0 MSTORE PUSH1 0x20 PUSH1 0x0 KECCAK256 SWAP1 PUSH1 0x6 MUL ADD PUSH1 0x3 ADD DUP1 SLOAD SWAP1 POP DUP2 LT ISZERO PUSH2 0x7BD JUMPI PUSH1 0x0 PUSH2 0x65E PUSH1 0x4 DUP6 DUP2 SLOAD DUP2 LT PUSH2 0x624 JUMPI PUSH2 0x623 PUSH2 0x3596 JUMP JUMPDEST JUMPDEST SWAP1 PUSH1 0x0 MSTORE PUSH1 0x20 PUSH1 0x0 KECCAK256 SWAP1 PUSH1 0x6 MUL ADD PUSH1 0x3 ADD DUP4 DUP2 SLOAD DUP2 LT PUSH2 0x647 JUMPI PUSH2 0x646 PUSH2 0x3596 JUMP JUMPDEST JUMPDEST SWAP1 PUSH1 0x0 MSTORE PUSH1 0x20 PUSH1 0x0 KECCAK256 SWAP1 PUSH1 0x2 MUL ADD PUSH1 0x1 ADD SLOAD PUSH2 0x2A7C JUMP JUMPDEST SWAP1 POP PUSH2 0x7A7 DUP4 PUSH1 0x4 DUP7 DUP2 SLOAD DUP2 LT PUSH2 0x678 JUMPI PUSH2 0x677 PUSH2 0x3596 JUMP JUMPDEST JUMPDEST SWAP1 PUSH1 0x0 MSTORE PUSH1 0x20 PUSH1 0x0 KECCAK256 SWAP1 PUSH1 0x6 MUL ADD PUSH1 0x3 ADD DUP5 DUP2 SLOAD DUP2 LT PUSH2 0x69B JUMPI PUSH2 0x69A PUSH2 0x3596 JUMP JUMPDEST JUMPDEST SWAP1 PUSH1 0x0 MSTORE PUSH1 0x20 PUSH1 0x0 KECCAK256 SWAP1 PUSH1 0x2 MUL ADD PUSH1 0x0 ADD DUP1 SLOAD PUSH2 0x6B7 SWAP1 PUSH2 0x36F2 JUMP JUMPDEST DUP1 PUSH1 0x1F ADD PUSH1 0x20 DUP1 SWAP2 DIV MUL PUSH1 0x20 ADD PUSH1 0x40 MLOAD SWAP1 DUP2 ADD PUSH1 0x40 MSTORE DUP1 SWAP3 SWAP2 SWAP1 DUP2 DUP2 MSTORE PUSH1 0x20 ADD DUP3 DUP1 SLOAD PUSH2 0x6E3 SWAP1 PUSH2 0x36F2 JUMP JUMPDEST DUP1 ISZERO PUSH2 0x730 JUMPI DUP1 PUSH1 0x1F LT PUSH2 0x705 JUMPI PUSH2 0x100 DUP1 DUP4 SLOAD DIV MUL DUP4 MSTORE SWAP2 PUSH1 0x20 ADD SWAP2 PUSH2 0x730 JUMP JUMPDEST DUP3 ADD SWAP2 SWAP1 PUSH1 0x0 MSTORE PUSH1 0x20 PUSH1 0x0 KECCAK256 SWAP1 JUMPDEST DUP2 SLOAD DUP2 MSTORE SWAP1 PUSH1 0x1 ADD SWAP1 PUSH1 0x20 ADD DUP1 DUP4 GT PUSH2 0x713 JUMPI DUP3 SWAP1 SUB PUSH1 0x1F AND DUP3 ADD SWAP2 JUMPDEST POP POP POP POP POP PUSH1 0x40 MLOAD DUP1 PUSH1 0x40 ADD PUSH1 0x40 MSTORE DUP1 PUSH1 0x1 DUP2 MSTORE PUSH1 0x20 ADD PUSH32 0x3A00000000000000000000000000000000000000000000000000000000000000 DUP2 MSTORE POP DUP5 PUSH1 0x40 MLOAD DUP1 PUSH1 0x40 ADD PUSH1 0x40 MSTORE DUP1 PUSH1 0x1 DUP2 MSTORE PUSH1 0x20 ADD PUSH32 0x2E00000000000000000000000000000000000000000000000000000000000000 DUP2 MSTORE POP PUSH2 0x2B4A JUMP JUMPDEST SWAP3 POP POP DUP1 DUP1 PUSH2 0x7B5 SWAP1 PUSH2 0x3752 JUMP JUMPDEST SWAP2 POP POP PUSH2 0x5DB JUMP JUMPDEST POP SWAP2 SWAP1 POP JUMP JUMPDEST PUSH1 0x4 DUP1 DUP2 GT ISZERO PUSH2 0x7D6 JUMPI PUSH2 0x7D5 PUSH2 0x30AF JUMP JUMPDEST JUMPDEST PUSH1 0x2 PUSH1 0x0 CALLER PUSH20 0xFFFFFFFFFFFFFFFFFFFFFFFFFFFFFFFFFFFFFFFF AND PUSH20 0xFFFFFFFFFFFFFFFFFFFFFFFFFFFFFFFFFFFFFFFF AND DUP2 MSTORE PUSH1 0x20 ADD SWAP1 DUP2 MSTORE PUSH1 0x20 ADD PUSH1 0x0 KECCAK256 PUSH1 0x0 ADD PUSH1 0x0 SWAP1 SLOAD SWAP1 PUSH2 0x100 EXP SWAP1 DIV PUSH1 0xFF AND PUSH1 0x4 DUP2 GT ISZERO PUSH2 0x838 JUMPI PUSH2 0x837 PUSH2 0x30AF JUMP JUMPDEST JUMPDEST EQ PUSH2 0x878 JUMPI PUSH1 0x40 MLOAD PUSH32 0x8C379A000000000000000000000000000000000000000000000000000000000 DUP2 MSTORE PUSH1 0x4 ADD PUSH2 0x86F SWAP1 PUSH2 0x380C JUMP JUMPDEST PUSH1 0x40 MLOAD DUP1 SWAP2 SUB SWAP1 REVERT JUMPDEST PUSH1 0x0 PUSH20 0xFFFFFFFFFFFFFFFFFFFFFFFFFFFFFFFFFFFFFFFF AND PUSH1 0x2 PUSH1 0x0 DUP4 PUSH20 0xFFFFFFFFFFFFFFFFFFFFFFFFFFFFFFFFFFFFFFFF AND PUSH20 0xFFFFFFFFFFFFFFFFFFFFFFFFFFFFFFFFFFFFFFFF AND DUP2 MSTORE PUSH1 0x20 ADD SWAP1 DUP2 MSTORE PUSH1 0x20 ADD PUSH1 0x0 KECCAK256 PUSH1 0x0 ADD PUSH1 0x1 SWAP1 SLOAD SWAP1 PUSH2 0x100 EXP SWAP1 DIV PUSH20 0xFFFFFFFFFFFFFFFFFFFFFFFFFFFFFFFFFFFFFFFF AND PUSH20 0xFFFFFFFFFFFFFFFFFFFFFFFFFFFFFFFFFFFFFFFF AND EQ DUP1 ISZERO PUSH2 0x9A4 JUMPI POP PUSH1 0x0 PUSH20 0xFFFFFFFFFFFFFFFFFFFFFFFFFFFFFFFFFFFFFFFF AND PUSH1 0x2 PUSH1 0x0 DUP4 PUSH20 0xFFFFFFFFFFFFFFFFFFFFFFFFFFFFFFFFFFFFFFFF AND PUSH20 0xFFFFFFFFFFFFFFFFFFFFFFFFFFFFFFFFFFFFFFFF AND DUP2 MSTORE PUSH1 0x20 ADD SWAP1 DUP2 MSTORE PUSH1 0x20 ADD PUSH1 0x0 KECCAK256 PUSH1 0x1 ADD PUSH1 0x0 SWAP1 SLOAD SWAP1 PUSH2 0x100 EXP SWAP1 DIV PUSH20 0xFFFFFFFFFFFFFFFFFFFFFFFFFFFFFFFFFFFFFFFF AND PUSH20 0xFFFFFFFFFFFFFFFFFFFFFFFFFFFFFFFFFFFFFFFF AND EQ JUMPDEST PUSH2 0x9E3 JUMPI PUSH1 0x40 MLOAD PUSH32 0x8C379A000000000000000000000000000000000000000000000000000000000 DUP2 MSTORE PUSH1 0x4 ADD PUSH2 0x9DA SWAP1 PUSH2 0x389E JUMP JUMPDEST PUSH1 0x40 MLOAD DUP1 SWAP2 SUB SWAP1 REVERT JUMPDEST PUSH2 0x9EB PUSH2 0x2B7F JUMP JUMPDEST PUSH2 0xA2A JUMPI PUSH1 0x40 MLOAD PUSH32 0x8C379A000000000000000000000000000000000000000000000000000000000 DUP2 MSTORE PUSH1 0x4 ADD PUSH2 0xA21 SWAP1 PUSH2 0x3930 JUMP JUMPDEST PUSH1 0x40 MLOAD DUP1 SWAP2 SUB SWAP1 REVERT JUMPDEST PUSH2 0xA32 PUSH2 0x2FB1 JUMP JUMPDEST DUP3 DUP2 PUSH1 0x0 ADD SWAP1 PUSH1 0x4 DUP2 GT ISZERO PUSH2 0xA4A JUMPI PUSH2 0xA49 PUSH2 0x30AF JUMP JUMPDEST JUMPDEST SWAP1 DUP2 PUSH1 0x4 DUP2 GT ISZERO PUSH2 0xA5E JUMPI PUSH2 0xA5D PUSH2 0x30AF JUMP JUMPDEST JUMPDEST DUP2 MSTORE POP POP PUSH1 0x3 PUSH1 0x4 DUP2 GT ISZERO PUSH2 0xA76 JUMPI PUSH2 0xA75 PUSH2 0x30AF JUMP JUMPDEST JUMPDEST DUP4 PUSH1 0x4 DUP2 GT ISZERO PUSH2 0xA89 JUMPI PUSH2 0xA88 PUSH2 0x30AF JUMP JUMPDEST JUMPDEST EQ DUP1 PUSH2 0xAB8 JUMPI POP PUSH1 0x4 DUP1 DUP2 GT ISZERO PUSH2 0xAA3 JUMPI PUSH2 0xAA2 PUSH2 0x30AF JUMP JUMPDEST JUMPDEST DUP4 PUSH1 0x4 DUP2 GT ISZERO PUSH2 0xAB6 JUMPI PUSH2 0xAB5 PUSH2 0x30AF JUMP JUMPDEST JUMPDEST EQ JUMPDEST ISZERO PUSH2 0xB0E JUMPI DUP2 DUP2 PUSH1 0x20 ADD SWAP1 PUSH20 0xFFFFFFFFFFFFFFFFFFFFFFFFFFFFFFFFFFFFFFFF AND SWAP1 DUP2 PUSH20 0xFFFFFFFFFFFFFFFFFFFFFFFFFFFFFFFFFFFFFFFF AND DUP2 MSTORE POP POP PUSH1 0x1 PUSH1 0x0 DUP2 SLOAD DUP1 SWAP3 SWAP2 SWAP1 PUSH2 0xB08 SWAP1 PUSH2 0x3752 JUMP JUMPDEST SWAP2 SWAP1 POP SSTORE POP JUMPDEST DUP1 PUSH1 0x2 PUSH1 0x0 DUP5 PUSH20 0xFFFFFFFFFFFFFFFFFFFFFFFFFFFFFFFFFFFFFFFF AND PUSH20 0xFFFFFFFFFFFFFFFFFFFFFFFFFFFFFFFFFFFFFFFF AND DUP2 MSTORE PUSH1 0x20 ADD SWAP1 DUP2 MSTORE PUSH1 0x20 ADD PUSH1 0x0 KECCAK256 PUSH1 0x0 DUP3 ADD MLOAD DUP2 PUSH1 0x0 ADD PUSH1 0x0 PUSH2 0x100 EXP DUP2 SLOAD DUP2 PUSH1 0xFF MUL NOT AND SWAP1 DUP4 PUSH1 0x4 DUP2 GT ISZERO PUSH2 0xB79 JUMPI PUSH2 0xB78 PUSH2 0x30AF JUMP JUMPDEST JUMPDEST MUL OR SWAP1 SSTORE POP PUSH1 0x20 DUP3 ADD MLOAD DUP2 PUSH1 0x0 ADD PUSH1 0x1 PUSH2 0x100 EXP DUP2 SLOAD DUP2 PUSH20 0xFFFFFFFFFFFFFFFFFFFFFFFFFFFFFFFFFFFFFFFF MUL NOT AND SWAP1 DUP4 PUSH20 0xFFFFFFFFFFFFFFFFFFFFFFFFFFFFFFFFFFFFFFFF AND MUL OR SWAP1 SSTORE POP PUSH1 0x40 DUP3 ADD MLOAD DUP2 PUSH1 0x1 ADD PUSH1 0x0 PUSH2 0x100 EXP DUP2 SLOAD DUP2 PUSH20 0xFFFFFFFFFFFFFFFFFFFFFFFFFFFFFFFFFFFFFFFF MUL NOT AND SWAP1 DUP4 PUSH20 0xFFFFFFFFFFFFFFFFFFFFFFFFFFFFFFFFFFFFFFFF AND MUL OR SWAP1 SSTORE POP SWAP1 POP POP PUSH1 0x3 DUP3 SWAP1 DUP1 PUSH1 0x1 DUP2 SLOAD ADD DUP1 DUP3 SSTORE DUP1 SWAP2 POP POP PUSH1 0x1 SWAP1 SUB SWAP1 PUSH1 0x0 MSTORE PUSH1 0x20 PUSH1 0x0 KECCAK256 ADD PUSH1 0x0 SWAP1 SWAP2 SWAP1 SWAP2 SWAP1 SWAP2 PUSH2 0x100 EXP DUP2 SLOAD DUP2 PUSH20 0xFFFFFFFFFFFFFFFFFFFFFFFFFFFFFFFFFFFFFFFF MUL NOT AND SWAP1 DUP4 PUSH20 0xFFFFFFFFFFFFFFFFFFFFFFFFFFFFFFFFFFFFFFFF AND MUL OR SWAP1 SSTORE POP POP POP POP JUMP JUMPDEST PUSH1 0x4 DUP1 DUP2 GT ISZERO PUSH2 0xC8A JUMPI PUSH2 0xC89 PUSH2 0x30AF JUMP JUMPDEST JUMPDEST PUSH1 0x2 PUSH1 0x0 CALLER PUSH20 0xFFFFFFFFFFFFFFFFFFFFFFFFFFFFFFFFFFFFFFFF AND PUSH20 0xFFFFFFFFFFFFFFFFFFFFFFFFFFFFFFFFFFFFFFFF AND DUP2 MSTORE PUSH1 0x20 ADD SWAP1 DUP2 MSTORE PUSH1 0x20 ADD PUSH1 0x0 KECCAK256 PUSH1 0x0 ADD PUSH1 0x0 SWAP1 SLOAD SWAP1 PUSH2 0x100 EXP SWAP1 DIV PUSH1 0xFF AND PUSH1 0x4 DUP2 GT ISZERO PUSH2 0xCEC JUMPI PUSH2 0xCEB PUSH2 0x30AF JUMP JUMPDEST JUMPDEST EQ PUSH2 0xD2C JUMPI PUSH1 0x40 MLOAD PUSH32 0x8C379A000000000000000000000000000000000000000000000000000000000 DUP2 MSTORE PUSH1 0x4 ADD PUSH2 0xD23 SWAP1 PUSH2 0x399C JUMP JUMPDEST PUSH1 0x40 MLOAD DUP1 SWAP2 SUB SWAP1 REVERT JUMPDEST PUSH1 0x1 PUSH1 0x2 DUP2 GT ISZERO PUSH2 0xD40 JUMPI PUSH2 0xD3F PUSH2 0x30AF JUMP JUMPDEST JUMPDEST PUSH1 0x4 DUP3 DUP2 SLOAD DUP2 LT PUSH2 0xD54 JUMPI PUSH2 0xD53 PUSH2 0x3596 JUMP JUMPDEST JUMPDEST SWAP1 PUSH1 0x0 MSTORE PUSH1 0x20 PUSH1 0x0 KECCAK256 SWAP1 PUSH1 0x6 MUL ADD PUSH1 0x2 ADD PUSH1 0x1 SWAP1 SLOAD SWAP1 PUSH2 0x100 EXP SWAP1 DIV PUSH1 0xFF AND PUSH1 0x2 DUP2 GT ISZERO PUSH2 0xD85 JUMPI PUSH2 0xD84 PUSH2 0x30AF JUMP JUMPDEST JUMPDEST EQ PUSH2 0xDC5 JUMPI PUSH1 0x40 MLOAD PUSH32 0x8C379A000000000000000000000000000000000000000000000000000000000 DUP2 MSTORE PUSH1 0x4 ADD PUSH2 0xDBC SWAP1 PUSH2 0x3A08 JUMP JUMPDEST PUSH1 0x40 MLOAD DUP1 SWAP2 SUB SWAP1 REVERT JUMPDEST PUSH1 0x2 PUSH1 0x4 DUP3 DUP2 SLOAD DUP2 LT PUSH2 0xDDB JUMPI PUSH2 0xDDA PUSH2 0x3596 JUMP JUMPDEST JUMPDEST SWAP1 PUSH1 0x0 MSTORE PUSH1 0x20 PUSH1 0x0 KECCAK256 SWAP1 PUSH1 0x6 MUL ADD PUSH1 0x2 ADD PUSH1 0x1 PUSH2 0x100 EXP DUP2 SLOAD DUP2 PUSH1 0xFF MUL NOT AND SWAP1 DUP4 PUSH1 0x2 DUP2 GT ISZERO PUSH2 0xE0E JUMPI PUSH2 0xE0D PUSH2 0x30AF JUMP JUMPDEST JUMPDEST MUL OR SWAP1 SSTORE POP POP JUMP JUMPDEST PUSH1 0x2 PUSH1 0x4 DUP2 GT ISZERO PUSH2 0xE2A JUMPI PUSH2 0xE29 PUSH2 0x30AF JUMP JUMPDEST JUMPDEST PUSH1 0x2 PUSH1 0x0 CALLER PUSH20 0xFFFFFFFFFFFFFFFFFFFFFFFFFFFFFFFFFFFFFFFF AND PUSH20 0xFFFFFFFFFFFFFFFFFFFFFFFFFFFFFFFFFFFFFFFF AND DUP2 MSTORE PUSH1 0x20 ADD SWAP1 DUP2 MSTORE PUSH1 0x20 ADD PUSH1 0x0 KECCAK256 PUSH1 0x0 ADD PUSH1 0x0 SWAP1 SLOAD SWAP1 PUSH2 0x100 EXP SWAP1 DIV PUSH1 0xFF AND PUSH1 0x4 DUP2 GT ISZERO PUSH2 0xE8C JUMPI PUSH2 0xE8B PUSH2 0x30AF JUMP JUMPDEST JUMPDEST LT ISZERO PUSH2 0xECD JUMPI PUSH1 0x40 MLOAD PUSH32 0x8C379A000000000000000000000000000000000000000000000000000000000 DUP2 MSTORE PUSH1 0x4 ADD PUSH2 0xEC4 SWAP1 PUSH2 0x3A9A JUMP JUMPDEST PUSH1 0x40 MLOAD DUP1 SWAP2 SUB SWAP1 REVERT JUMPDEST PUSH1 0x2 PUSH1 0x4 DUP2 GT ISZERO PUSH2 0xEE1 JUMPI PUSH2 0xEE0 PUSH2 0x30AF JUMP JUMPDEST JUMPDEST PUSH1 0x2 PUSH1 0x0 DUP4 PUSH20 0xFFFFFFFFFFFFFFFFFFFFFFFFFFFFFFFFFFFFFFFF AND PUSH20 0xFFFFFFFFFFFFFFFFFFFFFFFFFFFFFFFFFFFFFFFF AND DUP2 MSTORE PUSH1 0x20 ADD SWAP1 DUP2 MSTORE PUSH1 0x20 ADD PUSH1 0x0 KECCAK256 PUSH1 0x0 ADD PUSH1 0x0 SWAP1 SLOAD SWAP1 PUSH2 0x100 EXP SWAP1 DIV PUSH1 0xFF AND PUSH1 0x4 DUP2 GT ISZERO PUSH2 0xF43 JUMPI PUSH2 0xF42 PUSH2 0x30AF JUMP JUMPDEST JUMPDEST LT ISZERO PUSH2 0xF84 JUMPI PUSH1 0x40 MLOAD PUSH32 0x8C379A000000000000000000000000000000000000000000000000000000000 DUP2 MSTORE PUSH1 0x4 ADD PUSH2 0xF7B SWAP1 PUSH2 0x3B2C JUMP JUMPDEST PUSH1 0x40 MLOAD DUP1 SWAP2 SUB SWAP1 REVERT JUMPDEST PUSH1 0x0 PUSH20 0xFFFFFFFFFFFFFFFFFFFFFFFFFFFFFFFFFFFFFFFF AND PUSH1 0x2 PUSH1 0x0 CALLER PUSH20 0xFFFFFFFFFFFFFFFFFFFFFFFFFFFFFFFFFFFFFFFF AND PUSH20 0xFFFFFFFFFFFFFFFFFFFFFFFFFFFFFFFFFFFFFFFF AND DUP2 MSTORE PUSH1 0x20 ADD SWAP1 DUP2 MSTORE PUSH1 0x20 ADD PUSH1 0x0 KECCAK256 PUSH1 0x0 ADD PUSH1 0x1 SWAP1 SLOAD SWAP1 PUSH2 0x100 EXP SWAP1 DIV PUSH20 0xFFFFFFFFFFFFFFFFFFFFFFFFFFFFFFFFFFFFFFFF AND PUSH20 0xFFFFFFFFFFFFFFFFFFFFFFFFFFFFFFFFFFFFFFFF AND SUB PUSH2 0x1055 JUMPI PUSH1 0x40 MLOAD PUSH32 0x8C379A000000000000000000000000000000000000000000000000000000000 DUP2 MSTORE PUSH1 0x4 ADD PUSH2 0x104C SWAP1 PUSH2 0x3BBE JUMP JUMPDEST PUSH1 0x40 MLOAD DUP1 SWAP2 SUB SWAP1 REVERT JUMPDEST PUSH1 0x0 PUSH20 0xFFFFFFFFFFFFFFFFFFFFFFFFFFFFFFFFFFFFFFFF AND PUSH1 0x2 PUSH1 0x0 DUP4 PUSH20 0xFFFFFFFFFFFFFFFFFFFFFFFFFFFFFFFFFFFFFFFF AND PUSH20 0xFFFFFFFFFFFFFFFFFFFFFFFFFFFFFFFFFFFFFFFF AND DUP2 MSTORE PUSH1 0x20 ADD SWAP1 DUP2 MSTORE PUSH1 0x20 ADD PUSH1 0x0 KECCAK256 PUSH1 0x0 ADD PUSH1 0x1 SWAP1 SLOAD SWAP1 PUSH2 0x100 EXP SWAP1 DIV PUSH20 0xFFFFFFFFFFFFFFFFFFFFFFFFFFFFFFFFFFFFFFFF AND PUSH20 0xFFFFFFFFFFFFFFFFFFFFFFFFFFFFFFFFFFFFFFFF AND EQ DUP1 PUSH2 0x1180 JUMPI POP PUSH1 0x0 PUSH20 0xFFFFFFFFFFFFFFFFFFFFFFFFFFFFFFFFFFFFFFFF AND PUSH1 0x2 PUSH1 0x0 DUP4 PUSH20 0xFFFFFFFFFFFFFFFFFFFFFFFFFFFFFFFFFFFFFFFF AND PUSH20 0xFFFFFFFFFFFFFFFFFFFFFFFFFFFFFFFFFFFFFFFF AND DUP2 MSTORE PUSH1 0x20 ADD SWAP1 DUP2 MSTORE PUSH1 0x20 ADD PUSH1 0x0 KECCAK256 PUSH1 0x1 ADD PUSH1 0x0 SWAP1 SLOAD SWAP1 PUSH2 0x100 EXP SWAP1 DIV PUSH20 0xFFFFFFFFFFFFFFFFFFFFFFFFFFFFFFFFFFFFFFFF AND PUSH20 0xFFFFFFFFFFFFFFFFFFFFFFFFFFFFFFFFFFFFFFFF AND EQ JUMPDEST PUSH2 0x11BF JUMPI PUSH1 0x40 MLOAD PUSH32 0x8C379A000000000000000000000000000000000000000000000000000000000 DUP2 MSTORE PUSH1 0x4 ADD PUSH2 0x11B6 SWAP1 PUSH2 0x3C76 JUMP JUMPDEST PUSH1 0x40 MLOAD DUP1 SWAP2 SUB SWAP1 REVERT JUMPDEST PUSH2 0x11C7 PUSH2 0x2B7F JUMP JUMPDEST PUSH2 0x1206 JUMPI PUSH1 0x40 MLOAD PUSH32 0x8C379A000000000000000000000000000000000000000000000000000000000 DUP2 MSTORE PUSH1 0x4 ADD PUSH2 0x11FD SWAP1 PUSH2 0x3D08 JUMP JUMPDEST PUSH1 0x40 MLOAD DUP1 SWAP2 SUB SWAP1 REVERT JUMPDEST PUSH2 0x1212 CALLER DUP3 PUSH1 0x1 PUSH2 0x2C18 JUMP JUMPDEST POP JUMP JUMPDEST PUSH1 0x0 PUSH1 0x1 PUSH1 0x4 DUP2 GT ISZERO PUSH2 0x122B JUMPI PUSH2 0x122A PUSH2 0x30AF JUMP JUMPDEST JUMPDEST PUSH1 0x2 PUSH1 0x0 CALLER PUSH20 0xFFFFFFFFFFFFFFFFFFFFFFFFFFFFFFFFFFFFFFFF AND PUSH20 0xFFFFFFFFFFFFFFFFFFFFFFFFFFFFFFFFFFFFFFFF AND DUP2 MSTORE PUSH1 0x20 ADD SWAP1 DUP2 MSTORE PUSH1 0x20 ADD PUSH1 0x0 KECCAK256 PUSH1 0x0 ADD PUSH1 0x0 SWAP1 SLOAD SWAP1 PUSH2 0x100 EXP SWAP1 DIV PUSH1 0xFF AND PUSH1 0x4 DUP2 GT ISZERO PUSH2 0x128D JUMPI PUSH2 0x128C PUSH2 0x30AF JUMP JUMPDEST JUMPDEST LT ISZERO PUSH2 0x12CE JUMPI PUSH1 0x40 MLOAD PUSH32 0x8C379A000000000000000000000000000000000000000000000000000000000 DUP2 MSTORE PUSH1 0x4 ADD PUSH2 0x12C5 SWAP1 PUSH2 0x3D9A JUMP JUMPDEST PUSH1 0x40 MLOAD DUP1 SWAP2 SUB SWAP1 REVERT JUMPDEST PUSH2 0x12D6 PUSH2 0x2B7F JUMP JUMPDEST PUSH2 0x1315 JUMPI PUSH1 0x40 MLOAD PUSH32 0x8C379A000000000000000000000000000000000000000000000000000000000 DUP2 MSTORE PUSH1 0x4 ADD PUSH2 0x130C SWAP1 PUSH2 0x3E2C JUMP JUMPDEST PUSH1 0x40 MLOAD DUP1 SWAP2 SUB SWAP1 REVERT JUMPDEST PUSH1 0x0 PUSH1 0x4 PUSH1 0x1 DUP2 PUSH1 0x1 DUP2 SLOAD ADD DUP1 DUP3 SSTORE DUP1 SWAP2 POP POP SUB SWAP1 PUSH1 0x0 MSTORE PUSH1 0x20 PUSH1 0x0 KECCAK256 SWAP1 PUSH1 0x6 MUL ADD SWAP1 POP PUSH1 0x0 SLOAD DUP2 PUSH1 0x0 ADD DUP2 SWAP1 SSTORE POP DUP3 DUP2 PUSH1 0x1 ADD SWAP1 DUP2 PUSH2 0x1355 SWAP2 SWAP1 PUSH2 0x3FF8 JUMP JUMPDEST POP PUSH1 0x0 DUP2 PUSH1 0x2 ADD PUSH1 0x0 PUSH2 0x100 EXP DUP2 SLOAD DUP2 PUSH1 0xFF MUL NOT AND SWAP1 DUP4 PUSH1 0x1 DUP2 GT ISZERO PUSH2 0x137E JUMPI PUSH2 0x137D PUSH2 0x30AF JUMP JUMPDEST JUMPDEST MUL OR SWAP1 SSTORE POP PUSH1 0x0 DUP2 PUSH1 0x2 ADD PUSH1 0x1 PUSH2 0x100 EXP DUP2 SLOAD DUP2 PUSH1 0xFF MUL NOT AND SWAP1 DUP4 PUSH1 0x2 DUP2 GT ISZERO PUSH2 0x13AB JUMPI PUSH2 0x13AA PUSH2 0x30AF JUMP JUMPDEST JUMPDEST MUL OR SWAP1 SSTORE POP PUSH1 0x0 DUP2 PUSH1 0x3 ADD PUSH1 0x1 DUP2 PUSH1 0x1 DUP2 SLOAD ADD DUP1 DUP3 SSTORE DUP1 SWAP2 POP POP SUB SWAP1 PUSH1 0x0 MSTORE PUSH1 0x20 PUSH1 0x0 KECCAK256 SWAP1 PUSH1 0x2 MUL ADD SWAP1 POP PUSH1 0x40 MLOAD DUP1 PUSH1 0x40 ADD PUSH1 0x40 MSTORE DUP1 PUSH1 0x3 DUP2 MSTORE PUSH1 0x20 ADD PUSH32 0x7965730000000000000000000000000000000000000000000000000000000000 DUP2 MSTORE POP DUP2 PUSH1 0x0 ADD SWAP1 DUP2 PUSH2 0x141C SWAP2 SWAP1 PUSH2 0x3FF8 JUMP JUMPDEST POP PUSH1 0x0 DUP2 PUSH1 0x1 ADD DUP2 SWAP1 SSTORE POP PUSH1 0x0 DUP3 PUSH1 0x3 ADD PUSH1 0x1 DUP2 PUSH1 0x1 DUP2 SLOAD ADD DUP1 DUP3 SSTORE DUP1 SWAP2 POP POP SUB SWAP1 PUSH1 0x0 MSTORE PUSH1 0x20 PUSH1 0x0 KECCAK256 SWAP1 PUSH1 0x2 MUL ADD SWAP1 POP PUSH1 0x40 MLOAD DUP1 PUSH1 0x40 ADD PUSH1 0x40 MSTORE DUP1 PUSH1 0x2 DUP2 MSTORE PUSH1 0x20 ADD PUSH32 0x6E6F000000000000000000000000000000000000000000000000000000000000 DUP2 MSTORE POP DUP2 PUSH1 0x0 ADD SWAP1 DUP2 PUSH2 0x1493 SWAP2 SWAP1 PUSH2 0x3FF8 JUMP JUMPDEST POP PUSH1 0x0 DUP2 PUSH1 0x1 ADD DUP2 SWAP1 SSTORE POP PUSH1 0x0 DUP4 PUSH1 0x3 ADD PUSH1 0x1 DUP2 PUSH1 0x1 DUP2 SLOAD ADD DUP1 DUP3 SSTORE DUP1 SWAP2 POP POP SUB SWAP1 PUSH1 0x0 MSTORE PUSH1 0x20 PUSH1 0x0 KECCAK256 SWAP1 PUSH1 0x2 MUL ADD SWAP1 POP PUSH1 0x40 MLOAD DUP1 PUSH1 0x40 ADD PUSH1 0x40 MSTORE DUP1 PUSH1 0x7 DUP2 MSTORE PUSH1 0x20 ADD PUSH32 0x6162737461696E00000000000000000000000000000000000000000000000000 DUP2 MSTORE POP DUP2 PUSH1 0x0 ADD SWAP1 DUP2 PUSH2 0x150A SWAP2 SWAP1 PUSH2 0x3FF8 JUMP JUMPDEST POP PUSH1 0x0 DUP2 PUSH1 0x1 ADD DUP2 SWAP1 SSTORE POP DUP4 PUSH1 0x5 ADD CALLER SWAP1 DUP1 PUSH1 0x1 DUP2 SLOAD ADD DUP1 DUP3 SSTORE DUP1 SWAP2 POP POP PUSH1 0x1 SWAP1 SUB SWAP1 PUSH1 0x0 MSTORE PUSH1 0x20 PUSH1 0x0 KECCAK256 ADD PUSH1 0x0 SWAP1 SWAP2 SWAP1 SWAP2 SWAP1 SWAP2 PUSH2 0x100 EXP DUP2 SLOAD DUP2 PUSH20 0xFFFFFFFFFFFFFFFFFFFFFFFFFFFFFFFFFFFFFFFF MUL NOT AND SWAP1 DUP4 PUSH20 0xFFFFFFFFFFFFFFFFFFFFFFFFFFFFFFFFFFFFFFFF AND MUL OR SWAP1 SSTORE POP PUSH1 0x0 DUP1 DUP2 SLOAD DUP1 SWAP3 SWAP2 SWAP1 PUSH2 0x158C SWAP1 PUSH2 0x3752 JUMP JUMPDEST SWAP2 SWAP1 POP SSTORE POP DUP4 PUSH1 0x0 ADD SLOAD SWAP5 POP POP POP POP POP SWAP2 SWAP1 POP JUMP JUMPDEST PUSH1 0x0 PUSH1 0x3 PUSH1 0x4 DUP2 GT ISZERO PUSH2 0x15B7 JUMPI PUSH2 0x15B6 PUSH2 0x30AF JUMP JUMPDEST JUMPDEST PUSH1 0x2 PUSH1 0x0 CALLER PUSH20 0xFFFFFFFFFFFFFFFFFFFFFFFFFFFFFFFFFFFFFFFF AND PUSH20 0xFFFFFFFFFFFFFFFFFFFFFFFFFFFFFFFFFFFFFFFF AND DUP2 MSTORE PUSH1 0x20 ADD SWAP1 DUP2 MSTORE PUSH1 0x20 ADD PUSH1 0x0 KECCAK256 PUSH1 0x0 ADD PUSH1 0x0 SWAP1 SLOAD SWAP1 PUSH2 0x100 EXP SWAP1 DIV PUSH1 0xFF AND PUSH1 0x4 DUP2 GT ISZERO PUSH2 0x1619 JUMPI PUSH2 0x1618 PUSH2 0x30AF JUMP JUMPDEST JUMPDEST LT ISZERO PUSH2 0x165A JUMPI PUSH1 0x40 MLOAD PUSH32 0x8C379A000000000000000000000000000000000000000000000000000000000 DUP2 MSTORE PUSH1 0x4 ADD PUSH2 0x1651 SWAP1 PUSH2 0x413C JUMP JUMPDEST PUSH1 0x40 MLOAD DUP1 SWAP2 SUB SWAP1 REVERT JUMPDEST PUSH1 0x0 PUSH20 0xFFFFFFFFFFFFFFFFFFFFFFFFFFFFFFFFFFFFFFFF AND PUSH1 0x2 PUSH1 0x0 CALLER PUSH20 0xFFFFFFFFFFFFFFFFFFFFFFFFFFFFFFFFFFFFFFFF AND PUSH20 0xFFFFFFFFFFFFFFFFFFFFFFFFFFFFFFFFFFFFFFFF AND DUP2 MSTORE PUSH1 0x20 ADD SWAP1 DUP2 MSTORE PUSH1 0x20 ADD PUSH1 0x0 KECCAK256 PUSH1 0x0 ADD PUSH1 0x1 SWAP1 SLOAD SWAP1 PUSH2 0x100 EXP SWAP1 DIV PUSH20 0xFFFFFFFFFFFFFFFFFFFFFFFFFFFFFFFFFFFFFFFF AND PUSH20 0xFFFFFFFFFFFFFFFFFFFFFFFFFFFFFFFFFFFFFFFF AND EQ DUP1 PUSH2 0x1785 JUMPI POP PUSH1 0x0 PUSH20 0xFFFFFFFFFFFFFFFFFFFFFFFFFFFFFFFFFFFFFFFF AND PUSH1 0x2 PUSH1 0x0 CALLER PUSH20 0xFFFFFFFFFFFFFFFFFFFFFFFFFFFFFFFFFFFFFFFF AND PUSH20 0xFFFFFFFFFFFFFFFFFFFFFFFFFFFFFFFFFFFFFFFF AND DUP2 MSTORE PUSH1 0x20 ADD SWAP1 DUP2 MSTORE PUSH1 0x20 ADD PUSH1 0x0 KECCAK256 PUSH1 0x1 ADD PUSH1 0x0 SWAP1 SLOAD SWAP1 PUSH2 0x100 EXP SWAP1 DIV PUSH20 0xFFFFFFFFFFFFFFFFFFFFFFFFFFFFFFFFFFFFFFFF AND PUSH20 0xFFFFFFFFFFFFFFFFFFFFFFFFFFFFFFFFFFFFFFFF AND EQ JUMPDEST PUSH2 0x17C4 JUMPI PUSH1 0x40 MLOAD PUSH32 0x8C379A000000000000000000000000000000000000000000000000000000000 DUP2 MSTORE PUSH1 0x4 ADD PUSH2 0x17BB SWAP1 PUSH2 0x41CE JUMP JUMPDEST PUSH1 0x40 MLOAD DUP1 SWAP2 SUB SWAP1 REVERT JUMPDEST CALLER PUSH20 0xFFFFFFFFFFFFFFFFFFFFFFFFFFFFFFFFFFFFFFFF AND PUSH1 0x2 PUSH1 0x0 CALLER PUSH20 0xFFFFFFFFFFFFFFFFFFFFFFFFFFFFFFFFFFFFFFFF AND PUSH20 0xFFFFFFFFFFFFFFFFFFFFFFFFFFFFFFFFFFFFFFFF AND DUP2 MSTORE PUSH1 0x20 ADD SWAP1 DUP2 MSTORE PUSH1 0x20 ADD PUSH1 0x0 KECCAK256 PUSH1 0x0 ADD PUSH1 0x1 SWAP1 SLOAD SWAP1 PUSH2 0x100 EXP SWAP1 DIV PUSH20 0xFFFFFFFFFFFFFFFFFFFFFFFFFFFFFFFFFFFFFFFF AND PUSH20 0xFFFFFFFFFFFFFFFFFFFFFFFFFFFFFFFFFFFFFFFF AND EQ ISZERO DUP1 ISZERO PUSH2 0x18F0 JUMPI POP CALLER PUSH20 0xFFFFFFFFFFFFFFFFFFFFFFFFFFFFFFFFFFFFFFFF AND PUSH1 0x2 PUSH1 0x0 CALLER PUSH20 0xFFFFFFFFFFFFFFFFFFFFFFFFFFFFFFFFFFFFFFFF AND PUSH20 0xFFFFFFFFFFFFFFFFFFFFFFFFFFFFFFFFFFFFFFFF AND DUP2 MSTORE PUSH1 0x20 ADD SWAP1 DUP2 MSTORE PUSH1 0x20 ADD PUSH1 0x0 KECCAK256 PUSH1 0x1 ADD PUSH1 0x0 SWAP1 SLOAD SWAP1 PUSH2 0x100 EXP SWAP1 DIV PUSH20 0xFFFFFFFFFFFFFFFFFFFFFFFFFFFFFFFFFFFFFFFF AND PUSH20 0xFFFFFFFFFFFFFFFFFFFFFFFFFFFFFFFFFFFFFFFF AND EQ ISZERO JUMPDEST PUSH2 0x192F JUMPI PUSH1 0x40 MLOAD PUSH32 0x8C379A000000000000000000000000000000000000000000000000000000000 DUP2 MSTORE PUSH1 0x4 ADD PUSH2 0x1926 SWAP1 PUSH2 0x4260 JUMP JUMPDEST PUSH1 0x40 MLOAD DUP1 SWAP2 SUB SWAP1 REVERT JUMPDEST PUSH1 0x0 JUMPDEST PUSH1 0x3 DUP1 SLOAD SWAP1 POP DUP2 LT ISZERO PUSH2 0x1BA0 JUMPI CALLER PUSH20 0xFFFFFFFFFFFFFFFFFFFFFFFFFFFFFFFFFFFFFFFF AND PUSH1 0x2 PUSH1 0x0 PUSH1 0x3 DUP5 DUP2 SLOAD DUP2 LT PUSH2 0x196E JUMPI PUSH2 0x196D PUSH2 0x3596 JUMP JUMPDEST JUMPDEST SWAP1 PUSH1 0x0 MSTORE PUSH1 0x20 PUSH1 0x0 KECCAK256 ADD PUSH1 0x0 SWAP1 SLOAD SWAP1 PUSH2 0x100 EXP SWAP1 DIV PUSH20 0xFFFFFFFFFFFFFFFFFFFFFFFFFFFFFFFFFFFFFFFF AND PUSH20 0xFFFFFFFFFFFFFFFFFFFFFFFFFFFFFFFFFFFFFFFF AND PUSH20 0xFFFFFFFFFFFFFFFFFFFFFFFFFFFFFFFFFFFFFFFF AND DUP2 MSTORE PUSH1 0x20 ADD SWAP1 DUP2 MSTORE PUSH1 0x20 ADD PUSH1 0x0 KECCAK256 PUSH1 0x0 ADD PUSH1 0x1 SWAP1 SLOAD SWAP1 PUSH2 0x100 EXP SWAP1 DIV PUSH20 0xFFFFFFFFFFFFFFFFFFFFFFFFFFFFFFFFFFFFFFFF AND PUSH20 0xFFFFFFFFFFFFFFFFFFFFFFFFFFFFFFFFFFFFFFFF AND SUB PUSH2 0x1A66 JUMPI PUSH2 0x1A5C PUSH1 0x3 DUP3 DUP2 SLOAD DUP2 LT PUSH2 0x1A29 JUMPI PUSH2 0x1A28 PUSH2 0x3596 JUMP JUMPDEST JUMPDEST SWAP1 PUSH1 0x0 MSTORE PUSH1 0x20 PUSH1 0x0 KECCAK256 ADD PUSH1 0x0 SWAP1 SLOAD SWAP1 PUSH2 0x100 EXP SWAP1 DIV PUSH20 0xFFFFFFFFFFFFFFFFFFFFFFFFFFFFFFFFFFFFFFFF AND CALLER PUSH1 0x1 PUSH2 0x2C18 JUMP JUMPDEST PUSH1 0x1 SWAP2 POP POP PUSH2 0x1BA6 JUMP JUMPDEST CALLER PUSH20 0xFFFFFFFFFFFFFFFFFFFFFFFFFFFFFFFFFFFFFFFF AND PUSH1 0x2 PUSH1 0x0 PUSH1 0x3 DUP5 DUP2 SLOAD DUP2 LT PUSH2 0x1A95 JUMPI PUSH2 0x1A94 PUSH2 0x3596 JUMP JUMPDEST JUMPDEST SWAP1 PUSH1 0x0 MSTORE PUSH1 0x20 PUSH1 0x0 KECCAK256 ADD PUSH1 0x0 SWAP1 SLOAD SWAP1 PUSH2 0x100 EXP SWAP1 DIV PUSH20 0xFFFFFFFFFFFFFFFFFFFFFFFFFFFFFFFFFFFFFFFF AND PUSH20 0xFFFFFFFFFFFFFFFFFFFFFFFFFFFFFFFFFFFFFFFF AND PUSH20 0xFFFFFFFFFFFFFFFFFFFFFFFFFFFFFFFFFFFFFFFF AND DUP2 MSTORE PUSH1 0x20 ADD SWAP1 DUP2 MSTORE PUSH1 0x20 ADD PUSH1 0x0 KECCAK256 PUSH1 0x1 ADD PUSH1 0x0 SWAP1 SLOAD SWAP1 PUSH2 0x100 EXP SWAP1 DIV PUSH20 0xFFFFFFFFFFFFFFFFFFFFFFFFFFFFFFFFFFFFFFFF AND PUSH20 0xFFFFFFFFFFFFFFFFFFFFFFFFFFFFFFFFFFFFFFFF AND SUB PUSH2 0x1B8D JUMPI PUSH2 0x1B83 PUSH1 0x3 DUP3 DUP2 SLOAD DUP2 LT PUSH2 0x1B50 JUMPI PUSH2 0x1B4F PUSH2 0x3596 JUMP JUMPDEST JUMPDEST SWAP1 PUSH1 0x0 MSTORE PUSH1 0x20 PUSH1 0x0 KECCAK256 ADD PUSH1 0x0 SWAP1 SLOAD SWAP1 PUSH2 0x100 EXP SWAP1 DIV PUSH20 0xFFFFFFFFFFFFFFFFFFFFFFFFFFFFFFFFFFFFFFFF AND CALLER PUSH1 0x2 PUSH2 0x2C18 JUMP JUMPDEST PUSH1 0x1 SWAP2 POP POP PUSH2 0x1BA6 JUMP JUMPDEST DUP1 DUP1 PUSH2 0x1B98 SWAP1 PUSH2 0x3752 JUMP JUMPDEST SWAP2 POP POP PUSH2 0x1932 JUMP JUMPDEST POP PUSH1 0x0 SWAP1 POP JUMPDEST SWAP1 JUMP JUMPDEST PUSH1 0x0 SLOAD DUP2 JUMP JUMPDEST PUSH1 0x2 PUSH1 0x4 DUP2 GT ISZERO PUSH2 0x1BC3 JUMPI PUSH2 0x1BC2 PUSH2 0x30AF JUMP JUMPDEST JUMPDEST PUSH1 0x2 PUSH1 0x0 CALLER PUSH20 0xFFFFFFFFFFFFFFFFFFFFFFFFFFFFFFFFFFFFFFFF AND PUSH20 0xFFFFFFFFFFFFFFFFFFFFFFFFFFFFFFFFFFFFFFFF AND DUP2 MSTORE PUSH1 0x20 ADD SWAP1 DUP2 MSTORE PUSH1 0x20 ADD PUSH1 0x0 KECCAK256 PUSH1 0x0 ADD PUSH1 0x0 SWAP1 SLOAD SWAP1 PUSH2 0x100 EXP SWAP1 DIV PUSH1 0xFF AND PUSH1 0x4 DUP2 GT ISZERO PUSH2 0x1C25 JUMPI PUSH2 0x1C24 PUSH2 0x30AF JUMP JUMPDEST JUMPDEST LT ISZERO PUSH2 0x1C66 JUMPI PUSH1 0x40 MLOAD PUSH32 0x8C379A000000000000000000000000000000000000000000000000000000000 DUP2 MSTORE PUSH1 0x4 ADD PUSH2 0x1C5D SWAP1 PUSH2 0x42F2 JUMP JUMPDEST PUSH1 0x40 MLOAD DUP1 SWAP2 SUB SWAP1 REVERT JUMPDEST PUSH1 0x1 PUSH1 0x2 DUP2 GT ISZERO PUSH2 0x1C7A JUMPI PUSH2 0x1C79 PUSH2 0x30AF JUMP JUMPDEST JUMPDEST PUSH1 0x4 DUP4 DUP2 SLOAD DUP2 LT PUSH2 0x1C8E JUMPI PUSH2 0x1C8D PUSH2 0x3596 JUMP JUMPDEST JUMPDEST SWAP1 PUSH1 0x0 MSTORE PUSH1 0x20 PUSH1 0x0 KECCAK256 SWAP1 PUSH1 0x6 MUL ADD PUSH1 0x2 ADD PUSH1 0x1 SWAP1 SLOAD SWAP1 PUSH2 0x100 EXP SWAP1 DIV PUSH1 0xFF AND PUSH1 0x2 DUP2 GT ISZERO PUSH2 0x1CBF JUMPI PUSH2 0x1CBE PUSH2 0x30AF JUMP JUMPDEST JUMPDEST EQ PUSH2 0x1CFF JUMPI PUSH1 0x40 MLOAD PUSH32 0x8C379A000000000000000000000000000000000000000000000000000000000 DUP2 MSTORE PUSH1 0x4 ADD PUSH2 0x1CF6 SWAP1 PUSH2 0x435E JUMP JUMPDEST PUSH1 0x40 MLOAD DUP1 SWAP2 SUB SWAP1 REVERT JUMPDEST PUSH1 0x0 PUSH20 0xFFFFFFFFFFFFFFFFFFFFFFFFFFFFFFFFFFFFFFFF AND PUSH1 0x2 PUSH1 0x0 CALLER PUSH20 0xFFFFFFFFFFFFFFFFFFFFFFFFFFFFFFFFFFFFFFFF AND PUSH20 0xFFFFFFFFFFFFFFFFFFFFFFFFFFFFFFFFFFFFFFFF AND DUP2 MSTORE PUSH1 0x20 ADD SWAP1 DUP2 MSTORE PUSH1 0x20 ADD PUSH1 0x0 KECCAK256 PUSH1 0x0 ADD PUSH1 0x1 SWAP1 SLOAD SWAP1 PUSH2 0x100 EXP SWAP1 DIV PUSH20 0xFFFFFFFFFFFFFFFFFFFFFFFFFFFFFFFFFFFFFFFF AND PUSH20 0xFFFFFFFFFFFFFFFFFFFFFFFFFFFFFFFFFFFFFFFF AND EQ ISZERO DUP1 PUSH2 0x1E2C JUMPI POP PUSH1 0x0 PUSH20 0xFFFFFFFFFFFFFFFFFFFFFFFFFFFFFFFFFFFFFFFF AND PUSH1 0x2 PUSH1 0x0 CALLER PUSH20 0xFFFFFFFFFFFFFFFFFFFFFFFFFFFFFFFFFFFFFFFF AND PUSH20 0xFFFFFFFFFFFFFFFFFFFFFFFFFFFFFFFFFFFFFFFF AND DUP2 MSTORE PUSH1 0x20 ADD SWAP1 DUP2 MSTORE PUSH1 0x20 ADD PUSH1 0x0 KECCAK256 PUSH1 0x1 ADD PUSH1 0x0 SWAP1 SLOAD SWAP1 PUSH2 0x100 EXP SWAP1 DIV PUSH20 0xFFFFFFFFFFFFFFFFFFFFFFFFFFFFFFFFFFFFFFFF AND PUSH20 0xFFFFFFFFFFFFFFFFFFFFFFFFFFFFFFFFFFFFFFFF AND EQ ISZERO JUMPDEST PUSH2 0x1E6B JUMPI PUSH1 0x40 MLOAD PUSH32 0x8C379A000000000000000000000000000000000000000000000000000000000 DUP2 MSTORE PUSH1 0x4 ADD PUSH2 0x1E62 SWAP1 PUSH2 0x43F0 JUMP JUMPDEST PUSH1 0x40 MLOAD DUP1 SWAP2 SUB SWAP1 REVERT JUMPDEST PUSH1 0x0 PUSH20 0xFFFFFFFFFFFFFFFFFFFFFFFFFFFFFFFFFFFFFFFF AND PUSH1 0x2 PUSH1 0x0 CALLER PUSH20 0xFFFFFFFFFFFFFFFFFFFFFFFFFFFFFFFFFFFFFFFF AND PUSH20 0xFFFFFFFFFFFFFFFFFFFFFFFFFFFFFFFFFFFFFFFF AND DUP2 MSTORE PUSH1 0x20 ADD SWAP1 DUP2 MSTORE PUSH1 0x20 ADD PUSH1 0x0 KECCAK256 PUSH1 0x0 ADD PUSH1 0x1 SWAP1 SLOAD SWAP1 PUSH2 0x100 EXP SWAP1 DIV PUSH20 0xFFFFFFFFFFFFFFFFFFFFFFFFFFFFFFFFFFFFFFFF AND PUSH20 0xFFFFFFFFFFFFFFFFFFFFFFFFFFFFFFFFFFFFFFFF AND EQ ISZERO DUP1 ISZERO PUSH2 0x201B JUMPI POP PUSH2 0x201A PUSH1 0x4 DUP4 DUP2 SLOAD DUP2 LT PUSH2 0x1F1C JUMPI PUSH2 0x1F1B PUSH2 0x3596 JUMP JUMPDEST JUMPDEST SWAP1 PUSH1 0x0 MSTORE PUSH1 0x20 PUSH1 0x0 KECCAK256 SWAP1 PUSH1 0x6 MUL ADD PUSH1 0x4 ADD DUP1 SLOAD DUP1 PUSH1 0x20 MUL PUSH1 0x20 ADD PUSH1 0x40 MLOAD SWAP1 DUP2 ADD PUSH1 0x40 MSTORE DUP1 SWAP3 SWAP2 SWAP1 DUP2 DUP2 MSTORE PUSH1 0x20 ADD DUP3 DUP1 SLOAD DUP1 ISZERO PUSH2 0x1FAD JUMPI PUSH1 0x20 MUL DUP3 ADD SWAP2 SWAP1 PUSH1 0x0 MSTORE PUSH1 0x20 PUSH1 0x0 KECCAK256 SWAP1 JUMPDEST DUP2 PUSH1 0x0 SWAP1 SLOAD SWAP1 PUSH2 0x100 EXP SWAP1 DIV PUSH20 0xFFFFFFFFFFFFFFFFFFFFFFFFFFFFFFFFFFFFFFFF AND PUSH20 0xFFFFFFFFFFFFFFFFFFFFFFFFFFFFFFFFFFFFFFFF AND DUP2 MSTORE PUSH1 0x20 ADD SWAP1 PUSH1 0x1 ADD SWAP1 DUP1 DUP4 GT PUSH2 0x1F63 JUMPI JUMPDEST POP POP POP POP POP PUSH1 0x2 PUSH1 0x0 CALLER PUSH20 0xFFFFFFFFFFFFFFFFFFFFFFFFFFFFFFFFFFFFFFFF AND PUSH20 0xFFFFFFFFFFFFFFFFFFFFFFFFFFFFFFFFFFFFFFFF AND DUP2 MSTORE PUSH1 0x20 ADD SWAP1 DUP2 MSTORE PUSH1 0x20 ADD PUSH1 0x0 KECCAK256 PUSH1 0x0 ADD PUSH1 0x1 SWAP1 SLOAD SWAP1 PUSH2 0x100 EXP SWAP1 DIV PUSH20 0xFFFFFFFFFFFFFFFFFFFFFFFFFFFFFFFFFFFFFFFF AND PUSH2 0x2893 JUMP JUMPDEST JUMPDEST DUP1 PUSH2 0x21D2 JUMPI POP PUSH1 0x0 PUSH20 0xFFFFFFFFFFFFFFFFFFFFFFFFFFFFFFFFFFFFFFFF AND PUSH1 0x2 PUSH1 0x0 CALLER PUSH20 0xFFFFFFFFFFFFFFFFFFFFFFFFFFFFFFFFFFFFFFFF AND PUSH20 0xFFFFFFFFFFFFFFFFFFFFFFFFFFFFFFFFFFFFFFFF AND DUP2 MSTORE PUSH1 0x20 ADD SWAP1 DUP2 MSTORE PUSH1 0x20 ADD PUSH1 0x0 KECCAK256 PUSH1 0x1 ADD PUSH1 0x0 SWAP1 SLOAD SWAP1 PUSH2 0x100 EXP SWAP1 DIV PUSH20 0xFFFFFFFFFFFFFFFFFFFFFFFFFFFFFFFFFFFFFFFF AND PUSH20 0xFFFFFFFFFFFFFFFFFFFFFFFFFFFFFFFFFFFFFFFF AND EQ ISZERO DUP1 ISZERO PUSH2 0x21D1 JUMPI POP PUSH2 0x21D0 PUSH1 0x4 DUP4 DUP2 SLOAD DUP2 LT PUSH2 0x20D2 JUMPI PUSH2 0x20D1 PUSH2 0x3596 JUMP JUMPDEST JUMPDEST SWAP1 PUSH1 0x0 MSTORE PUSH1 0x20 PUSH1 0x0 KECCAK256 SWAP1 PUSH1 0x6 MUL ADD PUSH1 0x4 ADD DUP1 SLOAD DUP1 PUSH1 0x20 MUL PUSH1 0x20 ADD PUSH1 0x40 MLOAD SWAP1 DUP2 ADD PUSH1 0x40 MSTORE DUP1 SWAP3 SWAP2 SWAP1 DUP2 DUP2 MSTORE PUSH1 0x20 ADD DUP3 DUP1 SLOAD DUP1 ISZERO PUSH2 0x2163 JUMPI PUSH1 0x20 MUL DUP3 ADD SWAP2 SWAP1 PUSH1 0x0 MSTORE PUSH1 0x20 PUSH1 0x0 KECCAK256 SWAP1 JUMPDEST DUP2 PUSH1 0x0 SWAP1 SLOAD SWAP1 PUSH2 0x100 EXP SWAP1 DIV PUSH20 0xFFFFFFFFFFFFFFFFFFFFFFFFFFFFFFFFFFFFFFFF AND PUSH20 0xFFFFFFFFFFFFFFFFFFFFFFFFFFFFFFFFFFFFFFFF AND DUP2 MSTORE PUSH1 0x20 ADD SWAP1 PUSH1 0x1 ADD SWAP1 DUP1 DUP4 GT PUSH2 0x2119 JUMPI JUMPDEST POP POP POP POP POP PUSH1 0x2 PUSH1 0x0 CALLER PUSH20 0xFFFFFFFFFFFFFFFFFFFFFFFFFFFFFFFFFFFFFFFF AND PUSH20 0xFFFFFFFFFFFFFFFFFFFFFFFFFFFFFFFFFFFFFFFF AND DUP2 MSTORE PUSH1 0x20 ADD SWAP1 DUP2 MSTORE PUSH1 0x20 ADD PUSH1 0x0 KECCAK256 PUSH1 0x1 ADD PUSH1 0x0 SWAP1 SLOAD SWAP1 PUSH2 0x100 EXP SWAP1 DIV PUSH20 0xFFFFFFFFFFFFFFFFFFFFFFFFFFFFFFFFFFFFFFFF AND PUSH2 0x2893 JUMP JUMPDEST JUMPDEST JUMPDEST PUSH2 0x2211 JUMPI PUSH1 0x40 MLOAD PUSH32 0x8C379A000000000000000000000000000000000000000000000000000000000 DUP2 MSTORE PUSH1 0x4 ADD PUSH2 0x2208 SWAP1 PUSH2 0x445C JUMP JUMPDEST PUSH1 0x40 MLOAD DUP1 SWAP2 SUB SWAP1 REVERT JUMPDEST PUSH1 0x0 PUSH20 0xFFFFFFFFFFFFFFFFFFFFFFFFFFFFFFFFFFFFFFFF AND PUSH1 0x2 PUSH1 0x0 CALLER PUSH20 0xFFFFFFFFFFFFFFFFFFFFFFFFFFFFFFFFFFFFFFFF AND PUSH20 0xFFFFFFFFFFFFFFFFFFFFFFFFFFFFFFFFFFFFFFFF AND DUP2 MSTORE PUSH1 0x20 ADD SWAP1 DUP2 MSTORE PUSH1 0x20 ADD PUSH1 0x0 KECCAK256 PUSH1 0x0 ADD PUSH1 0x1 SWAP1 SLOAD SWAP1 PUSH2 0x100 EXP SWAP1 DIV PUSH20 0xFFFFFFFFFFFFFFFFFFFFFFFFFFFFFFFFFFFFFFFF AND PUSH20 0xFFFFFFFFFFFFFFFFFFFFFFFFFFFFFFFFFFFFFFFF AND EQ ISZERO DUP1 ISZERO PUSH2 0x23C1 JUMPI POP PUSH2 0x23C0 PUSH1 0x4 DUP4 DUP2 SLOAD DUP2 LT PUSH2 0x22C2 JUMPI PUSH2 0x22C1 PUSH2 0x3596 JUMP JUMPDEST JUMPDEST SWAP1 PUSH1 0x0 MSTORE PUSH1 0x20 PUSH1 0x0 KECCAK256 SWAP1 PUSH1 0x6 MUL ADD PUSH1 0x4 ADD DUP1 SLOAD DUP1 PUSH1 0x20 MUL PUSH1 0x20 ADD PUSH1 0x40 MLOAD SWAP1 DUP2 ADD PUSH1 0x40 MSTORE DUP1 SWAP3 SWAP2 SWAP1 DUP2 DUP2 MSTORE PUSH1 0x20 ADD DUP3 DUP1 SLOAD DUP1 ISZERO PUSH2 0x2353 JUMPI PUSH1 0x20 MUL DUP3 ADD SWAP2 SWAP1 PUSH1 0x0 MSTORE PUSH1 0x20 PUSH1 0x0 KECCAK256 SWAP1 JUMPDEST DUP2 PUSH1 0x0 SWAP1 SLOAD SWAP1 PUSH2 0x100 EXP SWAP1 DIV PUSH20 0xFFFFFFFFFFFFFFFFFFFFFFFFFFFFFFFFFFFFFFFF AND PUSH20 0xFFFFFFFFFFFFFFFFFFFFFFFFFFFFFFFFFFFFFFFF AND DUP2 MSTORE PUSH1 0x20 ADD SWAP1 PUSH1 0x1 ADD SWAP1 DUP1 DUP4 GT PUSH2 0x2309 JUMPI JUMPDEST POP POP POP POP POP PUSH1 0x2 PUSH1 0x0 CALLER PUSH20 0xFFFFFFFFFFFFFFFFFFFFFFFFFFFFFFFFFFFFFFFF AND PUSH20 0xFFFFFFFFFFFFFFFFFFFFFFFFFFFFFFFFFFFFFFFF AND DUP2 MSTORE PUSH1 0x20 ADD SWAP1 DUP2 MSTORE PUSH1 0x20 ADD PUSH1 0x0 KECCAK256 PUSH1 0x0 ADD PUSH1 0x1 SWAP1 SLOAD SWAP1 PUSH2 0x100 EXP SWAP1 DIV PUSH20 0xFFFFFFFFFFFFFFFFFFFFFFFFFFFFFFFFFFFFFFFF AND PUSH2 0x2893 JUMP JUMPDEST JUMPDEST ISZERO PUSH2 0x250D JUMPI PUSH1 0x4 DUP3 DUP2 SLOAD DUP2 LT PUSH2 0x23DA JUMPI PUSH2 0x23D9 PUSH2 0x3596 JUMP JUMPDEST JUMPDEST SWAP1 PUSH1 0x0 MSTORE PUSH1 0x20 PUSH1 0x0 KECCAK256 SWAP1 PUSH1 0x6 MUL ADD PUSH1 0x4 ADD PUSH1 0x2 PUSH1 0x0 CALLER PUSH20 0xFFFFFFFFFFFFFFFFFFFFFFFFFFFFFFFFFFFFFFFF AND PUSH20 0xFFFFFFFFFFFFFFFFFFFFFFFFFFFFFFFFFFFFFFFF AND DUP2 MSTORE PUSH1 0x20 ADD SWAP1 DUP2 MSTORE PUSH1 0x20 ADD PUSH1 0x0 KECCAK256 PUSH1 0x0 ADD PUSH1 0x1 SWAP1 SLOAD SWAP1 PUSH2 0x100 EXP SWAP1 DIV PUSH20 0xFFFFFFFFFFFFFFFFFFFFFFFFFFFFFFFFFFFFFFFF AND SWAP1 DUP1 PUSH1 0x1 DUP2 SLOAD ADD DUP1 DUP3 SSTORE DUP1 SWAP2 POP POP PUSH1 0x1 SWAP1 SUB SWAP1 PUSH1 0x0 MSTORE PUSH1 0x20 PUSH1 0x0 KECCAK256 ADD PUSH1 0x0 SWAP1 SWAP2 SWAP1 SWAP2 SWAP1 SWAP2 PUSH2 0x100 EXP DUP2 SLOAD DUP2 PUSH20 0xFFFFFFFFFFFFFFFFFFFFFFFFFFFFFFFFFFFFFFFF MUL NOT AND SWAP1 DUP4 PUSH20 0xFFFFFFFFFFFFFFFFFFFFFFFFFFFFFFFFFFFFFFFF AND MUL OR SWAP1 SSTORE POP PUSH1 0x4 DUP3 DUP2 SLOAD DUP2 LT PUSH2 0x24C2 JUMPI PUSH2 0x24C1 PUSH2 0x3596 JUMP JUMPDEST JUMPDEST SWAP1 PUSH1 0x0 MSTORE PUSH1 0x20 PUSH1 0x0 KECCAK256 SWAP1 PUSH1 0x6 MUL ADD PUSH1 0x3 ADD DUP2 DUP2 SLOAD DUP2 LT PUSH2 0x24E5 JUMPI PUSH2 0x24E4 PUSH2 0x3596 JUMP JUMPDEST JUMPDEST SWAP1 PUSH1 0x0 MSTORE PUSH1 0x20 PUSH1 0x0 KECCAK256 SWAP1 PUSH1 0x2 MUL ADD PUSH1 0x1 ADD PUSH1 0x0 DUP2 SLOAD DUP1 SWAP3 SWAP2 SWAP1 PUSH2 0x2507 SWAP1 PUSH2 0x3752 JUMP JUMPDEST SWAP2 SWAP1 POP SSTORE POP JUMPDEST PUSH1 0x0 PUSH20 0xFFFFFFFFFFFFFFFFFFFFFFFFFFFFFFFFFFFFFFFF AND PUSH1 0x2 PUSH1 0x0 CALLER PUSH20 0xFFFFFFFFFFFFFFFFFFFFFFFFFFFFFFFFFFFFFFFF AND PUSH20 0xFFFFFFFFFFFFFFFFFFFFFFFFFFFFFFFFFFFFFFFF AND DUP2 MSTORE PUSH1 0x20 ADD SWAP1 DUP2 MSTORE PUSH1 0x20 ADD PUSH1 0x0 KECCAK256 PUSH1 0x1 ADD PUSH1 0x0 SWAP1 SLOAD SWAP1 PUSH2 0x100 EXP SWAP1 DIV PUSH20 0xFFFFFFFFFFFFFFFFFFFFFFFFFFFFFFFFFFFFFFFF AND PUSH20 0xFFFFFFFFFFFFFFFFFFFFFFFFFFFFFFFFFFFFFFFF AND EQ ISZERO DUP1 ISZERO PUSH2 0x26BD JUMPI POP PUSH2 0x26BC PUSH1 0x4 DUP4 DUP2 SLOAD DUP2 LT PUSH2 0x25BE JUMPI PUSH2 0x25BD PUSH2 0x3596 JUMP JUMPDEST JUMPDEST SWAP1 PUSH1 0x0 MSTORE PUSH1 0x20 PUSH1 0x0 KECCAK256 SWAP1 PUSH1 0x6 MUL ADD PUSH1 0x4 ADD DUP1 SLOAD DUP1 PUSH1 0x20 MUL PUSH1 0x20 ADD PUSH1 0x40 MLOAD SWAP1 DUP2 ADD PUSH1 0x40 MSTORE DUP1 SWAP3 SWAP2 SWAP1 DUP2 DUP2 MSTORE PUSH1 0x20 ADD DUP3 DUP1 SLOAD DUP1 ISZERO PUSH2 0x264F JUMPI PUSH1 0x20 MUL DUP3 ADD SWAP2 SWAP1 PUSH1 0x0 MSTORE PUSH1 0x20 PUSH1 0x0 KECCAK256 SWAP1 JUMPDEST DUP2 PUSH1 0x0 SWAP1 SLOAD SWAP1 PUSH2 0x100 EXP SWAP1 DIV PUSH20 0xFFFFFFFFFFFFFFFFFFFFFFFFFFFFFFFFFFFFFFFF AND PUSH20 0xFFFFFFFFFFFFFFFFFFFFFFFFFFFFFFFFFFFFFFFF AND DUP2 MSTORE PUSH1 0x20 ADD SWAP1 PUSH1 0x1 ADD SWAP1 DUP1 DUP4 GT PUSH2 0x2605 JUMPI JUMPDEST POP POP POP POP POP PUSH1 0x2 PUSH1 0x0 CALLER PUSH20 0xFFFFFFFFFFFFFFFFFFFFFFFFFFFFFFFFFFFFFFFF AND PUSH20 0xFFFFFFFFFFFFFFFFFFFFFFFFFFFFFFFFFFFFFFFF AND DUP2 MSTORE PUSH1 0x20 ADD SWAP1 DUP2 MSTORE PUSH1 0x20 ADD PUSH1 0x0 KECCAK256 PUSH1 0x1 ADD PUSH1 0x0 SWAP1 SLOAD SWAP1 PUSH2 0x100 EXP SWAP1 DIV PUSH20 0xFFFFFFFFFFFFFFFFFFFFFFFFFFFFFFFFFFFFFFFF AND PUSH2 0x2893 JUMP JUMPDEST JUMPDEST ISZERO PUSH2 0x2809 JUMPI PUSH1 0x4 DUP3 DUP2 SLOAD DUP2 LT PUSH2 0x26D6 JUMPI PUSH2 0x26D5 PUSH2 0x3596 JUMP JUMPDEST JUMPDEST SWAP1 PUSH1 0x0 MSTORE PUSH1 0x20 PUSH1 0x0 KECCAK256 SWAP1 PUSH1 0x6 MUL ADD PUSH1 0x4 ADD PUSH1 0x2 PUSH1 0x0 CALLER PUSH20 0xFFFFFFFFFFFFFFFFFFFFFFFFFFFFFFFFFFFFFFFF AND PUSH20 0xFFFFFFFFFFFFFFFFFFFFFFFFFFFFFFFFFFFFFFFF AND DUP2 MSTORE PUSH1 0x20 ADD SWAP1 DUP2 MSTORE PUSH1 0x20 ADD PUSH1 0x0 KECCAK256 PUSH1 0x1 ADD PUSH1 0x0 SWAP1 SLOAD SWAP1 PUSH2 0x100 EXP SWAP1 DIV PUSH20 0xFFFFFFFFFFFFFFFFFFFFFFFFFFFFFFFFFFFFFFFF AND SWAP1 DUP1 PUSH1 0x1 DUP2 SLOAD ADD DUP1 DUP3 SSTORE DUP1 SWAP2 POP POP PUSH1 0x1 SWAP1 SUB SWAP1 PUSH1 0x0 MSTORE PUSH1 0x20 PUSH1 0x0 KECCAK256 ADD PUSH1 0x0 SWAP1 SWAP2 SWAP1 SWAP2 SWAP1 SWAP2 PUSH2 0x100 EXP DUP2 SLOAD DUP2 PUSH20 0xFFFFFFFFFFFFFFFFFFFFFFFFFFFFFFFFFFFFFFFF MUL NOT AND SWAP1 DUP4 PUSH20 0xFFFFFFFFFFFFFFFFFFFFFFFFFFFFFFFFFFFFFFFF AND MUL OR SWAP1 SSTORE POP PUSH1 0x4 DUP3 DUP2 SLOAD DUP2 LT PUSH2 0x27BE JUMPI PUSH2 0x27BD PUSH2 0x3596 JUMP JUMPDEST JUMPDEST SWAP1 PUSH1 0x0 MSTORE PUSH1 0x20 PUSH1 0x0 KECCAK256 SWAP1 PUSH1 0x6 MUL ADD PUSH1 0x3 ADD DUP2 DUP2 SLOAD DUP2 LT PUSH2 0x27E1 JUMPI PUSH2 0x27E0 PUSH2 0x3596 JUMP JUMPDEST JUMPDEST SWAP1 PUSH1 0x0 MSTORE PUSH1 0x20 PUSH1 0x0 KECCAK256 SWAP1 PUSH1 0x2 MUL ADD PUSH1 0x1 ADD PUSH1 0x0 DUP2 SLOAD DUP1 SWAP3 SWAP2 SWAP1 PUSH2 0x2803 SWAP1 PUSH2 0x3752 JUMP JUMPDEST SWAP2 SWAP1 POP SSTORE POP JUMPDEST PUSH1 0x1 SLOAD PUSH1 0x4 DUP4 DUP2 SLOAD DUP2 LT PUSH2 0x2820 JUMPI PUSH2 0x281F PUSH2 0x3596 JUMP JUMPDEST JUMPDEST SWAP1 PUSH1 0x0 MSTORE PUSH1 0x20 PUSH1 0x0 KECCAK256 SWAP1 PUSH1 0x6 MUL ADD PUSH1 0x4 ADD DUP1 SLOAD SWAP1 POP LT PUSH2 0x2889 JUMPI PUSH1 0x2 PUSH1 0x4 DUP4 DUP2 SLOAD DUP2 LT PUSH2 0x2850 JUMPI PUSH2 0x284F PUSH2 0x3596 JUMP JUMPDEST JUMPDEST SWAP1 PUSH1 0x0 MSTORE PUSH1 0x20 PUSH1 0x0 KECCAK256 SWAP1 PUSH1 0x6 MUL ADD PUSH1 0x2 ADD PUSH1 0x1 PUSH2 0x100 EXP DUP2 SLOAD DUP2 PUSH1 0xFF MUL NOT AND SWAP1 DUP4 PUSH1 0x2 DUP2 GT ISZERO PUSH2 0x2883 JUMPI PUSH2 0x2882 PUSH2 0x30AF JUMP JUMPDEST JUMPDEST MUL OR SWAP1 SSTORE POP JUMPDEST POP POP JUMP JUMPDEST PUSH1 0x1 SLOAD DUP2 JUMP JUMPDEST PUSH1 0x0 DUP1 PUSH1 0x0 SWAP1 POP JUMPDEST DUP4 MLOAD DUP2 LT ISZERO PUSH2 0x290E JUMPI DUP3 PUSH20 0xFFFFFFFFFFFFFFFFFFFFFFFFFFFFFFFFFFFFFFFF AND DUP5 DUP3 DUP2 MLOAD DUP2 LT PUSH2 0x28CE JUMPI PUSH2 0x28CD PUSH2 0x3596 JUMP JUMPDEST JUMPDEST PUSH1 0x20 MUL PUSH1 0x20 ADD ADD MLOAD PUSH20 0xFFFFFFFFFFFFFFFFFFFFFFFFFFFFFFFFFFFFFFFF AND SUB PUSH2 0x28FB JUMPI PUSH1 0x0 SWAP2 POP POP PUSH2 0x2914 JUMP JUMPDEST DUP1 DUP1 PUSH2 0x2906 SWAP1 PUSH2 0x3752 JUMP JUMPDEST SWAP2 POP POP PUSH2 0x289B JUMP JUMPDEST POP PUSH1 0x1 SWAP1 POP JUMPDEST SWAP3 SWAP2 POP POP JUMP JUMPDEST PUSH1 0x0 DUP1 PUSH1 0x0 SWAP1 POP PUSH1 0x0 DUP1 JUMPDEST PUSH1 0x4 DUP6 DUP2 SLOAD DUP2 LT PUSH2 0x2939 JUMPI PUSH2 0x2938 PUSH2 0x3596 JUMP JUMPDEST JUMPDEST SWAP1 PUSH1 0x0 MSTORE PUSH1 0x20 PUSH1 0x0 KECCAK256 SWAP1 PUSH1 0x6 MUL ADD PUSH1 0x5 ADD DUP1 SLOAD SWAP1 POP DUP2 LT ISZERO PUSH2 0x2A61 JUMPI PUSH1 0x3 PUSH1 0x4 DUP2 GT ISZERO PUSH2 0x2969 JUMPI PUSH2 0x2968 PUSH2 0x30AF JUMP JUMPDEST JUMPDEST PUSH1 0x2 PUSH1 0x0 PUSH1 0x4 DUP9 DUP2 SLOAD DUP2 LT PUSH2 0x2981 JUMPI PUSH2 0x2980 PUSH2 0x3596 JUMP JUMPDEST JUMPDEST SWAP1 PUSH1 0x0 MSTORE PUSH1 0x20 PUSH1 0x0 KECCAK256 SWAP1 PUSH1 0x6 MUL ADD PUSH1 0x5 ADD DUP5 DUP2 SLOAD DUP2 LT PUSH2 0x29A4 JUMPI PUSH2 0x29A3 PUSH2 0x3596 JUMP JUMPDEST JUMPDEST SWAP1 PUSH1 0x0 MSTORE PUSH1 0x20 PUSH1 0x0 KECCAK256 ADD PUSH1 0x0 SWAP1 SLOAD SWAP1 PUSH2 0x100 EXP SWAP1 DIV PUSH20 0xFFFFFFFFFFFFFFFFFFFFFFFFFFFFFFFFFFFFFFFF AND PUSH20 0xFFFFFFFFFFFFFFFFFFFFFFFFFFFFFFFFFFFFFFFF AND PUSH20 0xFFFFFFFFFFFFFFFFFFFFFFFFFFFFFFFFFFFFFFFF AND DUP2 MSTORE PUSH1 0x20 ADD SWAP1 DUP2 MSTORE PUSH1 0x20 ADD PUSH1 0x0 KECCAK256 PUSH1 0x0 ADD PUSH1 0x0 SWAP1 SLOAD SWAP1 PUSH2 0x100 EXP SWAP1 DIV PUSH1 0xFF AND PUSH1 0x4 DUP2 GT ISZERO PUSH2 0x2A2C JUMPI PUSH2 0x2A2B PUSH2 0x30AF JUMP JUMPDEST JUMPDEST LT PUSH2 0x2A40 JUMPI DUP3 DUP1 PUSH2 0x2A3C SWAP1 PUSH2 0x3752 JUMP JUMPDEST SWAP4 POP POP JUMPDEST DUP2 DUP1 PUSH2 0x2A4B SWAP1 PUSH2 0x3752 JUMP JUMPDEST SWAP3 POP POP DUP1 DUP1 PUSH2 0x2A59 SWAP1 PUSH2 0x3752 JUMP JUMPDEST SWAP2 POP POP PUSH2 0x2925 JUMP JUMPDEST POP PUSH1 0xA DUP3 LT ISZERO DUP1 PUSH2 0x2A73 JUMPI POP PUSH1 0x1E DUP2 LT ISZERO JUMPDEST SWAP3 POP POP POP SWAP2 SWAP1 POP JUMP JUMPDEST PUSH1 0x60 PUSH1 0x0 PUSH1 0x1 PUSH2 0x2A8B DUP5 PUSH2 0x2E5E JUMP JUMPDEST ADD SWAP1 POP PUSH1 0x0 DUP2 PUSH8 0xFFFFFFFFFFFFFFFF DUP2 GT ISZERO PUSH2 0x2AAA JUMPI PUSH2 0x2AA9 PUSH2 0x32F0 JUMP JUMPDEST JUMPDEST PUSH1 0x40 MLOAD SWAP1 DUP1 DUP3 MSTORE DUP1 PUSH1 0x1F ADD PUSH1 0x1F NOT AND PUSH1 0x20 ADD DUP3 ADD PUSH1 0x40 MSTORE DUP1 ISZERO PUSH2 0x2ADC JUMPI DUP2 PUSH1 0x20 ADD PUSH1 0x1 DUP3 MUL DUP1 CALLDATASIZE DUP4 CALLDATACOPY DUP1 DUP3 ADD SWAP2 POP POP SWAP1 POP JUMPDEST POP SWAP1 POP PUSH1 0x0 DUP3 PUSH1 0x20 ADD DUP3 ADD SWAP1 POP JUMPDEST PUSH1 0x1 ISZERO PUSH2 0x2B3F JUMPI DUP1 DUP1 PUSH1 0x1 SWAP1 SUB SWAP2 POP POP PUSH32 0x3031323334353637383961626364656600000000000000000000000000000000 PUSH1 0xA DUP7 MOD BYTE DUP2 MSTORE8 PUSH1 0xA DUP6 DUP2 PUSH2 0x2B33 JUMPI PUSH2 0x2B32 PUSH2 0x447C JUMP JUMPDEST JUMPDEST DIV SWAP5 POP PUSH1 0x0 DUP6 SUB PUSH2 0x2AEA JUMPI JUMPDEST DUP2 SWAP4 POP POP POP POP SWAP2 SWAP1 POP JUMP JUMPDEST PUSH1 0x60 DUP6 DUP6 DUP6 DUP6 DUP6 PUSH1 0x40 MLOAD PUSH1 0x20 ADD PUSH2 0x2B65 SWAP6 SWAP5 SWAP4 SWAP3 SWAP2 SWAP1 PUSH2 0x44E7 JUMP JUMPDEST PUSH1 0x40 MLOAD PUSH1 0x20 DUP2 DUP4 SUB SUB DUP2 MSTORE SWAP1 PUSH1 0x40 MSTORE SWAP1 POP SWAP6 SWAP5 POP POP POP POP POP JUMP JUMPDEST PUSH1 0x0 DUP1 PUSH1 0x0 SWAP1 POP JUMPDEST PUSH1 0x4 DUP1 SLOAD SWAP1 POP DUP2 LT ISZERO PUSH2 0x2C0F JUMPI PUSH1 0x1 PUSH1 0x2 DUP2 GT ISZERO PUSH2 0x2BA8 JUMPI PUSH2 0x2BA7 PUSH2 0x30AF JUMP JUMPDEST JUMPDEST PUSH1 0x4 DUP3 DUP2 SLOAD DUP2 LT PUSH2 0x2BBC JUMPI PUSH2 0x2BBB PUSH2 0x3596 JUMP JUMPDEST JUMPDEST SWAP1 PUSH1 0x0 MSTORE PUSH1 0x20 PUSH1 0x0 KECCAK256 SWAP1 PUSH1 0x6 MUL ADD PUSH1 0x2 ADD PUSH1 0x1 SWAP1 SLOAD SWAP1 PUSH2 0x100 EXP SWAP1 DIV PUSH1 0xFF AND PUSH1 0x2 DUP2 GT ISZERO PUSH2 0x2BED JUMPI PUSH2 0x2BEC PUSH2 0x30AF JUMP JUMPDEST JUMPDEST SUB PUSH2 0x2BFC JUMPI PUSH1 0x0 SWAP2 POP POP PUSH2 0x2C15 JUMP JUMPDEST DUP1 DUP1 PUSH2 0x2C07 SWAP1 PUSH2 0x3752 JUMP JUMPDEST SWAP2 POP POP PUSH2 0x2B87 JUMP JUMPDEST POP PUSH1 0x1 SWAP1 POP JUMPDEST SWAP1 JUMP JUMPDEST PUSH1 0x1 DUP2 EQ DUP1 PUSH2 0x2C27 JUMPI POP PUSH1 0x2 DUP2 EQ JUMPDEST PUSH2 0x2C30 JUMPI PUSH1 0x0 DUP1 REVERT JUMPDEST PUSH1 0x0 PUSH20 0xFFFFFFFFFFFFFFFFFFFFFFFFFFFFFFFFFFFFFFFF AND PUSH1 0x2 PUSH1 0x0 DUP5 PUSH20 0xFFFFFFFFFFFFFFFFFFFFFFFFFFFFFFFFFFFFFFFF AND PUSH20 0xFFFFFFFFFFFFFFFFFFFFFFFFFFFFFFFFFFFFFFFF AND DUP2 MSTORE PUSH1 0x20 ADD SWAP1 DUP2 MSTORE PUSH1 0x20 ADD PUSH1 0x0 KECCAK256 PUSH1 0x0 ADD PUSH1 0x1 SWAP1 SLOAD SWAP1 PUSH2 0x100 EXP SWAP1 DIV PUSH20 0xFFFFFFFFFFFFFFFFFFFFFFFFFFFFFFFFFFFFFFFF AND PUSH20 0xFFFFFFFFFFFFFFFFFFFFFFFFFFFFFFFFFFFFFFFF AND SUB PUSH2 0x2D4C JUMPI DUP3 PUSH1 0x2 PUSH1 0x0 DUP5 PUSH20 0xFFFFFFFFFFFFFFFFFFFFFFFFFFFFFFFFFFFFFFFF AND PUSH20 0xFFFFFFFFFFFFFFFFFFFFFFFFFFFFFFFFFFFFFFFF AND DUP2 MSTORE PUSH1 0x20 ADD SWAP1 DUP2 MSTORE PUSH1 0x20 ADD PUSH1 0x0 KECCAK256 PUSH1 0x0 ADD PUSH1 0x1 PUSH2 0x100 EXP DUP2 SLOAD DUP2 PUSH20 0xFFFFFFFFFFFFFFFFFFFFFFFFFFFFFFFFFFFFFFFF MUL NOT AND SWAP1 DUP4 PUSH20 0xFFFFFFFFFFFFFFFFFFFFFFFFFFFFFFFFFFFFFFFF AND MUL OR SWAP1 SSTORE POP PUSH2 0x2DCE JUMP JUMPDEST DUP3 PUSH1 0x2 PUSH1 0x0 DUP5 PUSH20 0xFFFFFFFFFFFFFFFFFFFFFFFFFFFFFFFFFFFFFFFF AND PUSH20 0xFFFFFFFFFFFFFFFFFFFFFFFFFFFFFFFFFFFFFFFF AND DUP2 MSTORE PUSH1 0x20 ADD SWAP1 DUP2 MSTORE PUSH1 0x20 ADD PUSH1 0x0 KECCAK256 PUSH1 0x1 ADD PUSH1 0x0 PUSH2 0x100 EXP DUP2 SLOAD DUP2 PUSH20 0xFFFFFFFFFFFFFFFFFFFFFFFFFFFFFFFFFFFFFFFF MUL NOT AND SWAP1 DUP4 PUSH20 0xFFFFFFFFFFFFFFFFFFFFFFFFFFFFFFFFFFFFFFFF AND MUL OR SWAP1 SSTORE POP JUMPDEST PUSH1 0x1 DUP2 SUB PUSH2 0x2E59 JUMPI PUSH1 0x0 PUSH1 0x2 PUSH1 0x0 DUP6 PUSH20 0xFFFFFFFFFFFFFFFFFFFFFFFFFFFFFFFFFFFFFFFF AND PUSH20 0xFFFFFFFFFFFFFFFFFFFFFFFFFFFFFFFFFFFFFFFF AND DUP2 MSTORE PUSH1 0x20 ADD SWAP1 DUP2 MSTORE PUSH1 0x20 ADD PUSH1 0x0 KECCAK256 PUSH1 0x0 ADD PUSH1 0x1 PUSH2 0x100 EXP DUP2 SLOAD DUP2 PUSH20 0xFFFFFFFFFFFFFFFFFFFFFFFFFFFFFFFFFFFFFFFF MUL NOT AND SWAP1 DUP4 PUSH20 0xFFFFFFFFFFFFFFFFFFFFFFFFFFFFFFFFFFFFFFFF AND MUL OR SWAP1 SSTORE POP JUMPDEST POP POP POP JUMP JUMPDEST PUSH1 0x0 DUP1 PUSH1 0x0 SWAP1 POP PUSH27 0x184F03E93FF9F4DAA797ED6E38ED64BF6A1F010000000000000000 DUP4 LT PUSH2 0x2EBC JUMPI PUSH27 0x184F03E93FF9F4DAA797ED6E38ED64BF6A1F010000000000000000 DUP4 DUP2 PUSH2 0x2EB2 JUMPI PUSH2 0x2EB1 PUSH2 0x447C JUMP JUMPDEST JUMPDEST DIV SWAP3 POP PUSH1 0x40 DUP2 ADD SWAP1 POP JUMPDEST PUSH14 0x4EE2D6D415B85ACEF8100000000 DUP4 LT PUSH2 0x2EF9 JUMPI PUSH14 0x4EE2D6D415B85ACEF8100000000 DUP4 DUP2 PUSH2 0x2EEF JUMPI PUSH2 0x2EEE PUSH2 0x447C JUMP JUMPDEST JUMPDEST DIV SWAP3 POP PUSH1 0x20 DUP2 ADD SWAP1 POP JUMPDEST PUSH7 0x2386F26FC10000 DUP4 LT PUSH2 0x2F28 JUMPI PUSH7 0x2386F26FC10000 DUP4 DUP2 PUSH2 0x2F1E JUMPI PUSH2 0x2F1D PUSH2 0x447C JUMP JUMPDEST JUMPDEST DIV SWAP3 POP PUSH1 0x10 DUP2 ADD SWAP1 POP JUMPDEST PUSH4 0x5F5E100 DUP4 LT PUSH2 0x2F51 JUMPI PUSH4 0x5F5E100 DUP4 DUP2 PUSH2 0x2F47 JUMPI PUSH2 0x2F46 PUSH2 0x447C JUMP JUMPDEST JUMPDEST DIV SWAP3 POP PUSH1 0x8 DUP2 ADD SWAP1 POP JUMPDEST PUSH2 0x2710 DUP4 LT PUSH2 0x2F76 JUMPI PUSH2 0x2710 DUP4 DUP2 PUSH2 0x2F6C JUMPI PUSH2 0x2F6B PUSH2 0x447C JUMP JUMPDEST JUMPDEST DIV SWAP3 POP PUSH1 0x4 DUP2 ADD SWAP1 POP JUMPDEST PUSH1 0x64 DUP4 LT PUSH2 0x2F99 JUMPI PUSH1 0x64 DUP4 DUP2 PUSH2 0x2F8F JUMPI PUSH2 0x2F8E PUSH2 0x447C JUMP JUMPDEST JUMPDEST DIV SWAP3 POP PUSH1 0x2 DUP2 ADD SWAP1 POP JUMPDEST PUSH1 0xA DUP4 LT PUSH2 0x2FA8 JUMPI PUSH1 0x1 DUP2 ADD SWAP1 POP JUMPDEST DUP1 SWAP2 POP POP SWAP2 SWAP1 POP JUMP JUMPDEST PUSH1 0x40 MLOAD DUP1 PUSH1 0x60 ADD PUSH1 0x40 MSTORE DUP1 PUSH1 0x0 PUSH1 0x4 DUP2 GT ISZERO PUSH2 0x2FD0 JUMPI PUSH2 0x2FCF PUSH2 0x30AF JUMP JUMPDEST JUMPDEST DUP2 MSTORE PUSH1 0x20 ADD PUSH1 0x0 PUSH20 0xFFFFFFFFFFFFFFFFFFFFFFFFFFFFFFFFFFFFFFFF AND DUP2 MSTORE PUSH1 0x20 ADD PUSH1 0x0 PUSH20 0xFFFFFFFFFFFFFFFFFFFFFFFFFFFFFFFFFFFFFFFF AND DUP2 MSTORE POP SWAP1 JUMP JUMPDEST PUSH1 0x0 PUSH1 0x40 MLOAD SWAP1 POP SWAP1 JUMP JUMPDEST PUSH1 0x0 DUP1 REVERT JUMPDEST PUSH1 0x0 DUP1 REVERT JUMPDEST PUSH1 0x0 PUSH20 0xFFFFFFFFFFFFFFFFFFFFFFFFFFFFFFFFFFFFFFFF DUP3 AND SWAP1 POP SWAP2 SWAP1 POP JUMP JUMPDEST PUSH1 0x0 PUSH2 0x304F DUP3 PUSH2 0x3024 JUMP JUMPDEST SWAP1 POP SWAP2 SWAP1 POP JUMP JUMPDEST PUSH2 0x305F DUP2 PUSH2 0x3044 JUMP JUMPDEST DUP2 EQ PUSH2 0x306A JUMPI PUSH1 0x0 DUP1 REVERT JUMPDEST POP JUMP JUMPDEST PUSH1 0x0 DUP2 CALLDATALOAD SWAP1 POP PUSH2 0x307C DUP2 PUSH2 0x3056 JUMP JUMPDEST SWAP3 SWAP2 POP POP JUMP JUMPDEST PUSH1 0x0 PUSH1 0x20 DUP3 DUP5 SUB SLT ISZERO PUSH2 0x3098 JUMPI PUSH2 0x3097 PUSH2 0x301A JUMP JUMPDEST JUMPDEST PUSH1 0x0 PUSH2 0x30A6 DUP5 DUP3 DUP6 ADD PUSH2 0x306D JUMP JUMPDEST SWAP2 POP POP SWAP3 SWAP2 POP POP JUMP JUMPDEST PUSH32 0x4E487B7100000000000000000000000000000000000000000000000000000000 PUSH1 0x0 MSTORE PUSH1 0x21 PUSH1 0x4 MSTORE PUSH1 0x24 PUSH1 0x0 REVERT JUMPDEST PUSH1 0x5 DUP2 LT PUSH2 0x30EF JUMPI PUSH2 0x30EE PUSH2 0x30AF JUMP JUMPDEST JUMPDEST POP JUMP JUMPDEST PUSH1 0x0 DUP2 SWAP1 POP PUSH2 0x3100 DUP3 PUSH2 0x30DE JUMP JUMPDEST SWAP2 SWAP1 POP JUMP JUMPDEST PUSH1 0x0 PUSH2 0x3110 DUP3 PUSH2 0x30F2 JUMP JUMPDEST SWAP1 POP SWAP2 SWAP1 POP JUMP JUMPDEST PUSH2 0x3120 DUP2 PUSH2 0x3105 JUMP JUMPDEST DUP3 MSTORE POP POP JUMP JUMPDEST PUSH2 0x312F DUP2 PUSH2 0x3044 JUMP JUMPDEST DUP3 MSTORE POP POP JUMP JUMPDEST PUSH1 0x0 PUSH1 0x60 DUP3 ADD SWAP1 POP PUSH2 0x314A PUSH1 0x0 DUP4 ADD DUP7 PUSH2 0x3117 JUMP JUMPDEST PUSH2 0x3157 PUSH1 0x20 DUP4 ADD DUP6 PUSH2 0x3126 JUMP JUMPDEST PUSH2 0x3164 PUSH1 0x40 DUP4 ADD DUP5 PUSH2 0x3126 JUMP JUMPDEST SWAP5 SWAP4 POP POP POP POP JUMP JUMPDEST PUSH1 0x0 DUP2 SWAP1 POP SWAP2 SWAP1 POP JUMP JUMPDEST PUSH2 0x317F DUP2 PUSH2 0x316C JUMP JUMPDEST DUP2 EQ PUSH2 0x318A JUMPI PUSH1 0x0 DUP1 REVERT JUMPDEST POP JUMP JUMPDEST PUSH1 0x0 DUP2 CALLDATALOAD SWAP1 POP PUSH2 0x319C DUP2 PUSH2 0x3176 JUMP JUMPDEST SWAP3 SWAP2 POP POP JUMP JUMPDEST PUSH1 0x0 PUSH1 0x20 DUP3 DUP5 SUB SLT ISZERO PUSH2 0x31B8 JUMPI PUSH2 0x31B7 PUSH2 0x301A JUMP JUMPDEST JUMPDEST PUSH1 0x0 PUSH2 0x31C6 DUP5 DUP3 DUP6 ADD PUSH2 0x318D JUMP JUMPDEST SWAP2 POP POP SWAP3 SWAP2 POP POP JUMP JUMPDEST PUSH1 0x0 DUP2 MLOAD SWAP1 POP SWAP2 SWAP1 POP JUMP JUMPDEST PUSH1 0x0 DUP3 DUP3 MSTORE PUSH1 0x20 DUP3 ADD SWAP1 POP SWAP3 SWAP2 POP POP JUMP JUMPDEST PUSH1 0x0 JUMPDEST DUP4 DUP2 LT ISZERO PUSH2 0x3209 JUMPI DUP1 DUP3 ADD MLOAD DUP2 DUP5 ADD MSTORE PUSH1 0x20 DUP2 ADD SWAP1 POP PUSH2 0x31EE JUMP JUMPDEST PUSH1 0x0 DUP5 DUP5 ADD MSTORE POP POP POP POP JUMP JUMPDEST PUSH1 0x0 PUSH1 0x1F NOT PUSH1 0x1F DUP4 ADD AND SWAP1 POP SWAP2 SWAP1 POP JUMP JUMPDEST PUSH1 0x0 PUSH2 0x3231 DUP3 PUSH2 0x31CF JUMP JUMPDEST PUSH2 0x323B DUP2 DUP6 PUSH2 0x31DA JUMP JUMPDEST SWAP4 POP PUSH2 0x324B DUP2 DUP6 PUSH1 0x20 DUP7 ADD PUSH2 0x31EB JUMP JUMPDEST PUSH2 0x3254 DUP2 PUSH2 0x3215 JUMP JUMPDEST DUP5 ADD SWAP2 POP POP SWAP3 SWAP2 POP POP JUMP JUMPDEST PUSH1 0x0 PUSH1 0x20 DUP3 ADD SWAP1 POP DUP2 DUP2 SUB PUSH1 0x0 DUP4 ADD MSTORE PUSH2 0x3279 DUP2 DUP5 PUSH2 0x3226 JUMP JUMPDEST SWAP1 POP SWAP3 SWAP2 POP POP JUMP JUMPDEST PUSH1 0x5 DUP2 LT PUSH2 0x328E JUMPI PUSH1 0x0 DUP1 REVERT JUMPDEST POP JUMP JUMPDEST PUSH1 0x0 DUP2 CALLDATALOAD SWAP1 POP PUSH2 0x32A0 DUP2 PUSH2 0x3281 JUMP JUMPDEST SWAP3 SWAP2 POP POP JUMP JUMPDEST PUSH1 0x0 DUP1 PUSH1 0x40 DUP4 DUP6 SUB SLT ISZERO PUSH2 0x32BD JUMPI PUSH2 0x32BC PUSH2 0x301A JUMP JUMPDEST JUMPDEST PUSH1 0x0 PUSH2 0x32CB DUP6 DUP3 DUP7 ADD PUSH2 0x3291 JUMP JUMPDEST SWAP3 POP POP PUSH1 0x20 PUSH2 0x32DC DUP6 DUP3 DUP7 ADD PUSH2 0x306D JUMP JUMPDEST SWAP2 POP POP SWAP3 POP SWAP3 SWAP1 POP JUMP JUMPDEST PUSH1 0x0 DUP1 REVERT JUMPDEST PUSH1 0x0 DUP1 REVERT JUMPDEST PUSH32 0x4E487B7100000000000000000000000000000000000000000000000000000000 PUSH1 0x0 MSTORE PUSH1 0x41 PUSH1 0x4 MSTORE PUSH1 0x24 PUSH1 0x0 REVERT JUMPDEST PUSH2 0x3328 DUP3 PUSH2 0x3215 JUMP JUMPDEST DUP2 ADD DUP2 DUP2 LT PUSH8 0xFFFFFFFFFFFFFFFF DUP3 GT OR ISZERO PUSH2 0x3347 JUMPI PUSH2 0x3346 PUSH2 0x32F0 JUMP JUMPDEST JUMPDEST DUP1 PUSH1 0x40 MSTORE POP POP POP JUMP JUMPDEST PUSH1 0x0 PUSH2 0x335A PUSH2 0x3010 JUMP JUMPDEST SWAP1 POP PUSH2 0x3366 DUP3 DUP3 PUSH2 0x331F JUMP JUMPDEST SWAP2 SWAP1 POP JUMP JUMPDEST PUSH1 0x0 PUSH8 0xFFFFFFFFFFFFFFFF DUP3 GT ISZERO PUSH2 0x3386 JUMPI PUSH2 0x3385 PUSH2 0x32F0 JUMP JUMPDEST JUMPDEST PUSH2 0x338F DUP3 PUSH2 0x3215 JUMP JUMPDEST SWAP1 POP PUSH1 0x20 DUP2 ADD SWAP1 POP SWAP2 SWAP1 POP JUMP JUMPDEST DUP3 DUP2 DUP4 CALLDATACOPY PUSH1 0x0 DUP4 DUP4 ADD MSTORE POP POP POP JUMP JUMPDEST PUSH1 0x0 PUSH2 0x33BE PUSH2 0x33B9 DUP5 PUSH2 0x336B JUMP JUMPDEST PUSH2 0x3350 JUMP JUMPDEST SWAP1 POP DUP3 DUP2 MSTORE PUSH1 0x20 DUP2 ADD DUP5 DUP5 DUP5 ADD GT ISZERO PUSH2 0x33DA JUMPI PUSH2 0x33D9 PUSH2 0x32EB JUMP JUMPDEST JUMPDEST PUSH2 0x33E5 DUP5 DUP3 DUP6 PUSH2 0x339C JUMP JUMPDEST POP SWAP4 SWAP3 POP POP POP JUMP JUMPDEST PUSH1 0x0 DUP3 PUSH1 0x1F DUP4 ADD SLT PUSH2 0x3402 JUMPI PUSH2 0x3401 PUSH2 0x32E6 JUMP JUMPDEST JUMPDEST DUP2 CALLDATALOAD PUSH2 0x3412 DUP5 DUP3 PUSH1 0x20 DUP7 ADD PUSH2 0x33AB JUMP JUMPDEST SWAP2 POP POP SWAP3 SWAP2 POP POP JUMP JUMPDEST PUSH1 0x0 PUSH1 0x20 DUP3 DUP5 SUB SLT ISZERO PUSH2 0x3431 JUMPI PUSH2 0x3430 PUSH2 0x301A JUMP JUMPDEST JUMPDEST PUSH1 0x0 DUP3 ADD CALLDATALOAD PUSH8 0xFFFFFFFFFFFFFFFF DUP2 GT ISZERO PUSH2 0x344F JUMPI PUSH2 0x344E PUSH2 0x301F JUMP JUMPDEST JUMPDEST PUSH2 0x345B DUP5 DUP3 DUP6 ADD PUSH2 0x33ED JUMP JUMPDEST SWAP2 POP POP SWAP3 SWAP2 POP POP JUMP JUMPDEST PUSH2 0x346D DUP2 PUSH2 0x316C JUMP JUMPDEST DUP3 MSTORE POP POP JUMP JUMPDEST PUSH1 0x0 PUSH1 0x20 DUP3 ADD SWAP1 POP PUSH2 0x3488 PUSH1 0x0 DUP4 ADD DUP5 PUSH2 0x3464 JUMP JUMPDEST SWAP3 SWAP2 POP POP JUMP JUMPDEST PUSH1 0x0 DUP2 ISZERO ISZERO SWAP1 POP SWAP2 SWAP1 POP JUMP JUMPDEST PUSH2 0x34A3 DUP2 PUSH2 0x348E JUMP JUMPDEST DUP3 MSTORE POP POP JUMP JUMPDEST PUSH1 0x0 PUSH1 0x20 DUP3 ADD SWAP1 POP PUSH2 0x34BE PUSH1 0x0 DUP4 ADD DUP5 PUSH2 0x349A JUMP JUMPDEST SWAP3 SWAP2 POP POP JUMP JUMPDEST PUSH1 0x0 DUP1 PUSH1 0x40 DUP4 DUP6 SUB SLT ISZERO PUSH2 0x34DB JUMPI PUSH2 0x34DA PUSH2 0x301A JUMP JUMPDEST JUMPDEST PUSH1 0x0 PUSH2 0x34E9 DUP6 DUP3 DUP7 ADD PUSH2 0x318D JUMP JUMPDEST SWAP3 POP POP PUSH1 0x20 PUSH2 0x34FA DUP6 DUP3 DUP7 ADD PUSH2 0x318D JUMP JUMPDEST SWAP2 POP POP SWAP3 POP SWAP3 SWAP1 POP JUMP JUMPDEST PUSH32 0x4F6E6C79207061727479206D656D626572732063616E20696E697469616C6C79 PUSH1 0x0 DUP3 ADD MSTORE PUSH32 0x20737570706F7274206120726567756C6172206D6F74696F6E2E000000000000 PUSH1 0x20 DUP3 ADD MSTORE POP JUMP JUMPDEST PUSH1 0x0 PUSH2 0x3560 PUSH1 0x3A DUP4 PUSH2 0x31DA JUMP JUMPDEST SWAP2 POP PUSH2 0x356B DUP3 PUSH2 0x3504 JUMP JUMPDEST PUSH1 0x40 DUP3 ADD SWAP1 POP SWAP2 SWAP1 POP JUMP JUMPDEST PUSH1 0x0 PUSH1 0x20 DUP3 ADD SWAP1 POP DUP2 DUP2 SUB PUSH1 0x0 DUP4 ADD MSTORE PUSH2 0x358F DUP2 PUSH2 0x3553 JUMP JUMPDEST SWAP1 POP SWAP2 SWAP1 POP JUMP JUMPDEST PUSH32 0x4E487B7100000000000000000000000000000000000000000000000000000000 PUSH1 0x0 MSTORE PUSH1 0x32 PUSH1 0x4 MSTORE PUSH1 0x24 PUSH1 0x0 REVERT JUMPDEST PUSH32 0x41206D656D6265722063616E206F6E6C79206F6E636520737570706F72742061 PUSH1 0x0 DUP3 ADD MSTORE PUSH32 0x20726567756C6172206D6F74696F6E20696E697469616C6C792E000000000000 PUSH1 0x20 DUP3 ADD MSTORE POP JUMP JUMPDEST PUSH1 0x0 PUSH2 0x3621 PUSH1 0x3A DUP4 PUSH2 0x31DA JUMP JUMPDEST SWAP2 POP PUSH2 0x362C DUP3 PUSH2 0x35C5 JUMP JUMPDEST PUSH1 0x40 DUP3 ADD SWAP1 POP SWAP2 SWAP1 POP JUMP JUMPDEST PUSH1 0x0 PUSH1 0x20 DUP3 ADD SWAP1 POP DUP2 DUP2 SUB PUSH1 0x0 DUP4 ADD MSTORE PUSH2 0x3650 DUP2 PUSH2 0x3614 JUMP JUMPDEST SWAP1 POP SWAP2 SWAP1 POP JUMP JUMPDEST PUSH32 0x4D6F74696F6E206973206E6F7420636C6F736564207965742E00000000000000 PUSH1 0x0 DUP3 ADD MSTORE POP JUMP JUMPDEST PUSH1 0x0 PUSH2 0x368D PUSH1 0x19 DUP4 PUSH2 0x31DA JUMP JUMPDEST SWAP2 POP PUSH2 0x3698 DUP3 PUSH2 0x3657 JUMP JUMPDEST PUSH1 0x20 DUP3 ADD SWAP1 POP SWAP2 SWAP1 POP JUMP JUMPDEST PUSH1 0x0 PUSH1 0x20 DUP3 ADD SWAP1 POP DUP2 DUP2 SUB PUSH1 0x0 DUP4 ADD MSTORE PUSH2 0x36BC DUP2 PUSH2 0x3680 JUMP JUMPDEST SWAP1 POP SWAP2 SWAP1 POP JUMP JUMPDEST PUSH32 0x4E487B7100000000000000000000000000000000000000000000000000000000 PUSH1 0x0 MSTORE PUSH1 0x22 PUSH1 0x4 MSTORE PUSH1 0x24 PUSH1 0x0 REVERT JUMPDEST PUSH1 0x0 PUSH1 0x2 DUP3 DIV SWAP1 POP PUSH1 0x1 DUP3 AND DUP1 PUSH2 0x370A JUMPI PUSH1 0x7F DUP3 AND SWAP2 POP JUMPDEST PUSH1 0x20 DUP3 LT DUP2 SUB PUSH2 0x371D JUMPI PUSH2 0x371C PUSH2 0x36C3 JUMP JUMPDEST JUMPDEST POP SWAP2 SWAP1 POP JUMP JUMPDEST PUSH32 0x4E487B7100000000000000000000000000000000000000000000000000000000 PUSH1 0x0 MSTORE PUSH1 0x11 PUSH1 0x4 MSTORE PUSH1 0x24 PUSH1 0x0 REVERT JUMPDEST PUSH1 0x0 PUSH2 0x375D DUP3 PUSH2 0x316C JUMP JUMPDEST SWAP2 POP PUSH32 0xFFFFFFFFFFFFFFFFFFFFFFFFFFFFFFFFFFFFFFFFFFFFFFFFFFFFFFFFFFFFFFFF DUP3 SUB PUSH2 0x378F JUMPI PUSH2 0x378E PUSH2 0x3723 JUMP JUMPDEST JUMPDEST PUSH1 0x1 DUP3 ADD SWAP1 POP SWAP2 SWAP1 POP JUMP JUMPDEST PUSH32 0x4F6E6C792061646D696E732063616E20616464206E657720636F6E76656E7469 PUSH1 0x0 DUP3 ADD MSTORE PUSH32 0x6F6E207061727469636970616E74732E00000000000000000000000000000000 PUSH1 0x20 DUP3 ADD MSTORE POP JUMP JUMPDEST PUSH1 0x0 PUSH2 0x37F6 PUSH1 0x30 DUP4 PUSH2 0x31DA JUMP JUMPDEST SWAP2 POP PUSH2 0x3801 DUP3 PUSH2 0x379A JUMP JUMPDEST PUSH1 0x40 DUP3 ADD SWAP1 POP SWAP2 SWAP1 POP JUMP JUMPDEST PUSH1 0x0 PUSH1 0x20 DUP3 ADD SWAP1 POP DUP2 DUP2 SUB PUSH1 0x0 DUP4 ADD MSTORE PUSH2 0x3825 DUP2 PUSH2 0x37E9 JUMP JUMPDEST SWAP1 POP SWAP2 SWAP1 POP JUMP JUMPDEST PUSH32 0x546865205061727469636970616E742077617320616C72656164792061646465 PUSH1 0x0 DUP3 ADD MSTORE PUSH32 0x6420616E6420686F6C647320766F74696E67207269676874732E000000000000 PUSH1 0x20 DUP3 ADD MSTORE POP JUMP JUMPDEST PUSH1 0x0 PUSH2 0x3888 PUSH1 0x3A DUP4 PUSH2 0x31DA JUMP JUMPDEST SWAP2 POP PUSH2 0x3893 DUP3 PUSH2 0x382C JUMP JUMPDEST PUSH1 0x40 DUP3 ADD SWAP1 POP SWAP2 SWAP1 POP JUMP JUMPDEST PUSH1 0x0 PUSH1 0x20 DUP3 ADD SWAP1 POP DUP2 DUP2 SUB PUSH1 0x0 DUP4 ADD MSTORE PUSH2 0x38B7 DUP2 PUSH2 0x387B JUMP JUMPDEST SWAP1 POP SWAP2 SWAP1 POP JUMP JUMPDEST PUSH32 0x43616E206E6F7420616464206E6577207061727469636970616E747320776869 PUSH1 0x0 DUP3 ADD MSTORE PUSH32 0x6C6520766F74696E6720697320676F696E67206F6E2E00000000000000000000 PUSH1 0x20 DUP3 ADD MSTORE POP JUMP JUMPDEST PUSH1 0x0 PUSH2 0x391A PUSH1 0x36 DUP4 PUSH2 0x31DA JUMP JUMPDEST SWAP2 POP PUSH2 0x3925 DUP3 PUSH2 0x38BE JUMP JUMPDEST PUSH1 0x40 DUP3 ADD SWAP1 POP SWAP2 SWAP1 POP JUMP JUMPDEST PUSH1 0x0 PUSH1 0x20 DUP3 ADD SWAP1 POP DUP2 DUP2 SUB PUSH1 0x0 DUP4 ADD MSTORE PUSH2 0x3949 DUP2 PUSH2 0x390D JUMP JUMPDEST SWAP1 POP SWAP2 SWAP1 POP JUMP JUMPDEST PUSH32 0x4F6E6C792061646D696E732063616E20636C6F7365206D6F74696F6E732E0000 PUSH1 0x0 DUP3 ADD MSTORE POP JUMP JUMPDEST PUSH1 0x0 PUSH2 0x3986 PUSH1 0x1E DUP4 PUSH2 0x31DA JUMP JUMPDEST SWAP2 POP PUSH2 0x3991 DUP3 PUSH2 0x3950 JUMP JUMPDEST PUSH1 0x20 DUP3 ADD SWAP1 POP SWAP2 SWAP1 POP JUMP JUMPDEST PUSH1 0x0 PUSH1 0x20 DUP3 ADD SWAP1 POP DUP2 DUP2 SUB PUSH1 0x0 DUP4 ADD MSTORE PUSH2 0x39B5 DUP2 PUSH2 0x3979 JUMP JUMPDEST SWAP1 POP SWAP2 SWAP1 POP JUMP JUMPDEST PUSH32 0x4F6E6C79206F70656E206D6F74696F6E732063616E20626520636C6F7365642E PUSH1 0x0 DUP3 ADD MSTORE POP JUMP JUMPDEST PUSH1 0x0 PUSH2 0x39F2 PUSH1 0x20 DUP4 PUSH2 0x31DA JUMP JUMPDEST SWAP2 POP PUSH2 0x39FD DUP3 PUSH2 0x39BC JUMP JUMPDEST PUSH1 0x20 DUP3 ADD SWAP1 POP SWAP2 SWAP1 POP JUMP JUMPDEST PUSH1 0x0 PUSH1 0x20 DUP3 ADD SWAP1 POP DUP2 DUP2 SUB PUSH1 0x0 DUP4 ADD MSTORE PUSH2 0x3A21 DUP2 PUSH2 0x39E5 JUMP JUMPDEST SWAP1 POP SWAP2 SWAP1 POP JUMP JUMPDEST PUSH32 0x4F6E6C7920287265706C6163656D656E742964656C6567617465732063616E20 PUSH1 0x0 DUP3 ADD MSTORE PUSH32 0x7472616E7366657220766F74696E67207269676874732E000000000000000000 PUSH1 0x20 DUP3 ADD MSTORE POP JUMP JUMPDEST PUSH1 0x0 PUSH2 0x3A84 PUSH1 0x37 DUP4 PUSH2 0x31DA JUMP JUMPDEST SWAP2 POP PUSH2 0x3A8F DUP3 PUSH2 0x3A28 JUMP JUMPDEST PUSH1 0x40 DUP3 ADD SWAP1 POP SWAP2 SWAP1 POP JUMP JUMPDEST PUSH1 0x0 PUSH1 0x20 DUP3 ADD SWAP1 POP DUP2 DUP2 SUB PUSH1 0x0 DUP4 ADD MSTORE PUSH2 0x3AB3 DUP2 PUSH2 0x3A77 JUMP JUMPDEST SWAP1 POP SWAP2 SWAP1 POP JUMP JUMPDEST PUSH32 0x4F6E6C7920287265706C6163656D656E742964656C6567617465732063616E20 PUSH1 0x0 DUP3 ADD MSTORE PUSH32 0x7265636569766520766F74696E67207269676874732E00000000000000000000 PUSH1 0x20 DUP3 ADD MSTORE POP JUMP JUMPDEST PUSH1 0x0 PUSH2 0x3B16 PUSH1 0x36 DUP4 PUSH2 0x31DA JUMP JUMPDEST SWAP2 POP PUSH2 0x3B21 DUP3 PUSH2 0x3ABA JUMP JUMPDEST PUSH1 0x40 DUP3 ADD SWAP1 POP SWAP2 SWAP1 POP JUMP JUMPDEST PUSH1 0x0 PUSH1 0x20 DUP3 ADD SWAP1 POP DUP2 DUP2 SUB PUSH1 0x0 DUP4 ADD MSTORE PUSH2 0x3B45 DUP2 PUSH2 0x3B09 JUMP JUMPDEST SWAP1 POP SWAP2 SWAP1 POP JUMP JUMPDEST PUSH32 0x4D6573736167652073656E64657220646F6573206E6F7420686F6C6420616E79 PUSH1 0x0 DUP3 ADD MSTORE PUSH32 0x20766F74696E6720726967687420312E00000000000000000000000000000000 PUSH1 0x20 DUP3 ADD MSTORE POP JUMP JUMPDEST PUSH1 0x0 PUSH2 0x3BA8 PUSH1 0x30 DUP4 PUSH2 0x31DA JUMP JUMPDEST SWAP2 POP PUSH2 0x3BB3 DUP3 PUSH2 0x3B4C JUMP JUMPDEST PUSH1 0x40 DUP3 ADD SWAP1 POP SWAP2 SWAP1 POP JUMP JUMPDEST PUSH1 0x0 PUSH1 0x20 DUP3 ADD SWAP1 POP DUP2 DUP2 SUB PUSH1 0x0 DUP4 ADD MSTORE PUSH2 0x3BD7 DUP2 PUSH2 0x3B9B JUMP JUMPDEST SWAP1 POP SWAP2 SWAP1 POP JUMP JUMPDEST PUSH32 0x526563656976696E6720287265706C6163656D656E742964656C656761746520 PUSH1 0x0 DUP3 ADD MSTORE PUSH32 0x68617320616C726561647920322061637469766520766F74696E672072696768 PUSH1 0x20 DUP3 ADD MSTORE PUSH32 0x7473000000000000000000000000000000000000000000000000000000000000 PUSH1 0x40 DUP3 ADD MSTORE POP JUMP JUMPDEST PUSH1 0x0 PUSH2 0x3C60 PUSH1 0x42 DUP4 PUSH2 0x31DA JUMP JUMPDEST SWAP2 POP PUSH2 0x3C6B DUP3 PUSH2 0x3BDE JUMP JUMPDEST PUSH1 0x60 DUP3 ADD SWAP1 POP SWAP2 SWAP1 POP JUMP JUMPDEST PUSH1 0x0 PUSH1 0x20 DUP3 ADD SWAP1 POP DUP2 DUP2 SUB PUSH1 0x0 DUP4 ADD MSTORE PUSH2 0x3C8F DUP2 PUSH2 0x3C53 JUMP JUMPDEST SWAP1 POP SWAP2 SWAP1 POP JUMP JUMPDEST PUSH32 0x43616E206E6F74207472616E7366657220766F74657320647572696E67206F70 PUSH1 0x0 DUP3 ADD MSTORE PUSH32 0x656E20766F74696E672070726F63657373657300000000000000000000000000 PUSH1 0x20 DUP3 ADD MSTORE POP JUMP JUMPDEST PUSH1 0x0 PUSH2 0x3CF2 PUSH1 0x33 DUP4 PUSH2 0x31DA JUMP JUMPDEST SWAP2 POP PUSH2 0x3CFD DUP3 PUSH2 0x3C96 JUMP JUMPDEST PUSH1 0x40 DUP3 ADD SWAP1 POP SWAP2 SWAP1 POP JUMP JUMPDEST PUSH1 0x0 PUSH1 0x20 DUP3 ADD SWAP1 POP DUP2 DUP2 SUB PUSH1 0x0 DUP4 ADD MSTORE PUSH2 0x3D21 DUP2 PUSH2 0x3CE5 JUMP JUMPDEST SWAP1 POP SWAP2 SWAP1 POP JUMP JUMPDEST PUSH32 0x4F6E6C79207061727479206D656D626572732063616E20637265617465206120 PUSH1 0x0 DUP3 ADD MSTORE PUSH32 0x726567756C6172206D6F74696F6E2E0000000000000000000000000000000000 PUSH1 0x20 DUP3 ADD MSTORE POP JUMP JUMPDEST PUSH1 0x0 PUSH2 0x3D84 PUSH1 0x2F DUP4 PUSH2 0x31DA JUMP JUMPDEST SWAP2 POP PUSH2 0x3D8F DUP3 PUSH2 0x3D28 JUMP JUMPDEST PUSH1 0x40 DUP3 ADD SWAP1 POP SWAP2 SWAP1 POP JUMP JUMPDEST PUSH1 0x0 PUSH1 0x20 DUP3 ADD SWAP1 POP DUP2 DUP2 SUB PUSH1 0x0 DUP4 ADD MSTORE PUSH2 0x3DB3 DUP2 PUSH2 0x3D77 JUMP JUMPDEST SWAP1 POP SWAP2 SWAP1 POP JUMP JUMPDEST PUSH32 0x43616E206E6F7420637265617465206E6577206D6F74696F6E73207768696C65 PUSH1 0x0 DUP3 ADD MSTORE PUSH32 0x20766F74696E6720697320676F696E67206F6E2E000000000000000000000000 PUSH1 0x20 DUP3 ADD MSTORE POP JUMP JUMPDEST PUSH1 0x0 PUSH2 0x3E16 PUSH1 0x34 DUP4 PUSH2 0x31DA JUMP JUMPDEST SWAP2 POP PUSH2 0x3E21 DUP3 PUSH2 0x3DBA JUMP JUMPDEST PUSH1 0x40 DUP3 ADD SWAP1 POP SWAP2 SWAP1 POP JUMP JUMPDEST PUSH1 0x0 PUSH1 0x20 DUP3 ADD SWAP1 POP DUP2 DUP2 SUB PUSH1 0x0 DUP4 ADD MSTORE PUSH2 0x3E45 DUP2 PUSH2 0x3E09 JUMP JUMPDEST SWAP1 POP SWAP2 SWAP1 POP JUMP JUMPDEST PUSH1 0x0 DUP2 SWAP1 POP DUP2 PUSH1 0x0 MSTORE PUSH1 0x20 PUSH1 0x0 KECCAK256 SWAP1 POP SWAP2 SWAP1 POP JUMP JUMPDEST PUSH1 0x0 PUSH1 0x20 PUSH1 0x1F DUP4 ADD DIV SWAP1 POP SWAP2 SWAP1 POP JUMP JUMPDEST PUSH1 0x0 DUP3 DUP3 SHL SWAP1 POP SWAP3 SWAP2 POP POP JUMP JUMPDEST PUSH1 0x0 PUSH1 0x8 DUP4 MUL PUSH2 0x3EAE PUSH32 0xFFFFFFFFFFFFFFFFFFFFFFFFFFFFFFFFFFFFFFFFFFFFFFFFFFFFFFFFFFFFFFFF DUP3 PUSH2 0x3E71 JUMP JUMPDEST PUSH2 0x3EB8 DUP7 DUP4 PUSH2 0x3E71 JUMP JUMPDEST SWAP6 POP DUP1 NOT DUP5 AND SWAP4 POP DUP1 DUP7 AND DUP5 OR SWAP3 POP POP POP SWAP4 SWAP3 POP POP POP JUMP JUMPDEST PUSH1 0x0 DUP2 SWAP1 POP SWAP2 SWAP1 POP JUMP JUMPDEST PUSH1 0x0 PUSH2 0x3EF5 PUSH2 0x3EF0 PUSH2 0x3EEB DUP5 PUSH2 0x316C JUMP JUMPDEST PUSH2 0x3ED0 JUMP JUMPDEST PUSH2 0x316C JUMP JUMPDEST SWAP1 POP SWAP2 SWAP1 POP JUMP JUMPDEST PUSH1 0x0 DUP2 SWAP1 POP SWAP2 SWAP1 POP JUMP JUMPDEST PUSH2 0x3F0F DUP4 PUSH2 0x3EDA JUMP JUMPDEST PUSH2 0x3F23 PUSH2 0x3F1B DUP3 PUSH2 0x3EFC JUMP JUMPDEST DUP5 DUP5 SLOAD PUSH2 0x3E7E JUMP JUMPDEST DUP3 SSTORE POP POP POP POP JUMP JUMPDEST PUSH1 0x0 SWAP1 JUMP JUMPDEST PUSH2 0x3F38 PUSH2 0x3F2B JUMP JUMPDEST PUSH2 0x3F43 DUP2 DUP5 DUP5 PUSH2 0x3F06 JUMP JUMPDEST POP POP POP JUMP JUMPDEST JUMPDEST DUP2 DUP2 LT ISZERO PUSH2 0x3F67 JUMPI PUSH2 0x3F5C PUSH1 0x0 DUP3 PUSH2 0x3F30 JUMP JUMPDEST PUSH1 0x1 DUP2 ADD SWAP1 POP PUSH2 0x3F49 JUMP JUMPDEST POP POP JUMP JUMPDEST PUSH1 0x1F DUP3 GT ISZERO PUSH2 0x3FAC JUMPI PUSH2 0x3F7D DUP2 PUSH2 0x3E4C JUMP JUMPDEST PUSH2 0x3F86 DUP5 PUSH2 0x3E61 JUMP JUMPDEST DUP2 ADD PUSH1 0x20 DUP6 LT ISZERO PUSH2 0x3F95 JUMPI DUP2 SWAP1 POP JUMPDEST PUSH2 0x3FA9 PUSH2 0x3FA1 DUP6 PUSH2 0x3E61 JUMP JUMPDEST DUP4 ADD DUP3 PUSH2 0x3F48 JUMP JUMPDEST POP POP JUMPDEST POP POP POP JUMP JUMPDEST PUSH1 0x0 DUP3 DUP3 SHR SWAP1 POP SWAP3 SWAP2 POP POP JUMP JUMPDEST PUSH1 0x0 PUSH2 0x3FCF PUSH1 0x0 NOT DUP5 PUSH1 0x8 MUL PUSH2 0x3FB1 JUMP JUMPDEST NOT DUP1 DUP4 AND SWAP2 POP POP SWAP3 SWAP2 POP POP JUMP JUMPDEST PUSH1 0x0 PUSH2 0x3FE8 DUP4 DUP4 PUSH2 0x3FBE JUMP JUMPDEST SWAP2 POP DUP3 PUSH1 0x2 MUL DUP3 OR SWAP1 POP SWAP3 SWAP2 POP POP JUMP JUMPDEST PUSH2 0x4001 DUP3 PUSH2 0x31CF JUMP JUMPDEST PUSH8 0xFFFFFFFFFFFFFFFF DUP2 GT ISZERO PUSH2 0x401A JUMPI PUSH2 0x4019 PUSH2 0x32F0 JUMP JUMPDEST JUMPDEST PUSH2 0x4024 DUP3 SLOAD PUSH2 0x36F2 JUMP JUMPDEST PUSH2 0x402F DUP3 DUP3 DUP6 PUSH2 0x3F6B JUMP JUMPDEST PUSH1 0x0 PUSH1 0x20 SWAP1 POP PUSH1 0x1F DUP4 GT PUSH1 0x1 DUP2 EQ PUSH2 0x4062 JUMPI PUSH1 0x0 DUP5 ISZERO PUSH2 0x4050 JUMPI DUP3 DUP8 ADD MLOAD SWAP1 POP JUMPDEST PUSH2 0x405A DUP6 DUP3 PUSH2 0x3FDC JUMP JUMPDEST DUP7 SSTORE POP PUSH2 0x40C2 JUMP JUMPDEST PUSH1 0x1F NOT DUP5 AND PUSH2 0x4070 DUP7 PUSH2 0x3E4C JUMP JUMPDEST PUSH1 0x0 JUMPDEST DUP3 DUP2 LT ISZERO PUSH2 0x4098 JUMPI DUP5 DUP10 ADD MLOAD DUP3 SSTORE PUSH1 0x1 DUP3 ADD SWAP2 POP PUSH1 0x20 DUP6 ADD SWAP5 POP PUSH1 0x20 DUP2 ADD SWAP1 POP PUSH2 0x4073 JUMP JUMPDEST DUP7 DUP4 LT ISZERO PUSH2 0x40B5 JUMPI DUP5 DUP10 ADD MLOAD PUSH2 0x40B1 PUSH1 0x1F DUP10 AND DUP3 PUSH2 0x3FBE JUMP JUMPDEST DUP4 SSTORE POP JUMPDEST PUSH1 0x1 PUSH1 0x2 DUP9 MUL ADD DUP9 SSTORE POP POP POP JUMPDEST POP POP POP POP POP POP JUMP JUMPDEST PUSH32 0x4F6E6C792064656C6567617465732063616E207265636C61696D207468656972 PUSH1 0x0 DUP3 ADD MSTORE PUSH32 0x206F726967696E616C20766F74696E672072696768742E000000000000000000 PUSH1 0x20 DUP3 ADD MSTORE POP JUMP JUMPDEST PUSH1 0x0 PUSH2 0x4126 PUSH1 0x37 DUP4 PUSH2 0x31DA JUMP JUMPDEST SWAP2 POP PUSH2 0x4131 DUP3 PUSH2 0x40CA JUMP JUMPDEST PUSH1 0x40 DUP3 ADD SWAP1 POP SWAP2 SWAP1 POP JUMP JUMPDEST PUSH1 0x0 PUSH1 0x20 DUP3 ADD SWAP1 POP DUP2 DUP2 SUB PUSH1 0x0 DUP4 ADD MSTORE PUSH2 0x4155 DUP2 PUSH2 0x4119 JUMP JUMPDEST SWAP1 POP SWAP2 SWAP1 POP JUMP JUMPDEST PUSH32 0x5265636C61696D657220616C726561647920686F6C6473203220616374697665 PUSH1 0x0 DUP3 ADD MSTORE PUSH32 0x20766F74696E6720726967687473000000000000000000000000000000000000 PUSH1 0x20 DUP3 ADD MSTORE POP JUMP JUMPDEST PUSH1 0x0 PUSH2 0x41B8 PUSH1 0x2E DUP4 PUSH2 0x31DA JUMP JUMPDEST SWAP2 POP PUSH2 0x41C3 DUP3 PUSH2 0x415C JUMP JUMPDEST PUSH1 0x40 DUP3 ADD SWAP1 POP SWAP2 SWAP1 POP JUMP JUMPDEST PUSH1 0x0 PUSH1 0x20 DUP3 ADD SWAP1 POP DUP2 DUP2 SUB PUSH1 0x0 DUP4 ADD MSTORE PUSH2 0x41E7 DUP2 PUSH2 0x41AB JUMP JUMPDEST SWAP1 POP SWAP2 SWAP1 POP JUMP JUMPDEST PUSH32 0x5265636C61696D657220616C726561647920686F6C6473206869732F68657220 PUSH1 0x0 DUP3 ADD MSTORE PUSH32 0x6F726967696E616C20766F74696E672072696768740000000000000000000000 PUSH1 0x20 DUP3 ADD MSTORE POP JUMP JUMPDEST PUSH1 0x0 PUSH2 0x424A PUSH1 0x35 DUP4 PUSH2 0x31DA JUMP JUMPDEST SWAP2 POP PUSH2 0x4255 DUP3 PUSH2 0x41EE JUMP JUMPDEST PUSH1 0x40 DUP3 ADD SWAP1 POP SWAP2 SWAP1 POP JUMP JUMPDEST PUSH1 0x0 PUSH1 0x20 DUP3 ADD SWAP1 POP DUP2 DUP2 SUB PUSH1 0x0 DUP4 ADD MSTORE PUSH2 0x4279 DUP2 PUSH2 0x423D JUMP JUMPDEST SWAP1 POP SWAP2 SWAP1 POP JUMP JUMPDEST PUSH32 0x4F6E6C7920287265706C6163656D656E742964656C6567617465732063616E20 PUSH1 0x0 DUP3 ADD MSTORE PUSH32 0x6361737420766F7465732E000000000000000000000000000000000000000000 PUSH1 0x20 DUP3 ADD MSTORE POP JUMP JUMPDEST PUSH1 0x0 PUSH2 0x42DC PUSH1 0x2B DUP4 PUSH2 0x31DA JUMP JUMPDEST SWAP2 POP PUSH2 0x42E7 DUP3 PUSH2 0x4280 JUMP JUMPDEST PUSH1 0x40 DUP3 ADD SWAP1 POP SWAP2 SWAP1 POP JUMP JUMPDEST PUSH1 0x0 PUSH1 0x20 DUP3 ADD SWAP1 POP DUP2 DUP2 SUB PUSH1 0x0 DUP4 ADD MSTORE PUSH2 0x430B DUP2 PUSH2 0x42CF JUMP JUMPDEST SWAP1 POP SWAP2 SWAP1 POP JUMP JUMPDEST PUSH32 0x4D6F74696F6E206973206E6F74206F70656E20666F7220766F74696E672E0000 PUSH1 0x0 DUP3 ADD MSTORE POP JUMP JUMPDEST PUSH1 0x0 PUSH2 0x4348 PUSH1 0x1E DUP4 PUSH2 0x31DA JUMP JUMPDEST SWAP2 POP PUSH2 0x4353 DUP3 PUSH2 0x4312 JUMP JUMPDEST PUSH1 0x20 DUP3 ADD SWAP1 POP SWAP2 SWAP1 POP JUMP JUMPDEST PUSH1 0x0 PUSH1 0x20 DUP3 ADD SWAP1 POP DUP2 DUP2 SUB PUSH1 0x0 DUP4 ADD MSTORE PUSH2 0x4377 DUP2 PUSH2 0x433B JUMP JUMPDEST SWAP1 POP SWAP2 SWAP1 POP JUMP JUMPDEST PUSH32 0x4E6F2061637469766520766F74696E67207269676874732068656C6420627920 PUSH1 0x0 DUP3 ADD MSTORE PUSH32 0x73656E6465720000000000000000000000000000000000000000000000000000 PUSH1 0x20 DUP3 ADD MSTORE POP JUMP JUMPDEST PUSH1 0x0 PUSH2 0x43DA PUSH1 0x26 DUP4 PUSH2 0x31DA JUMP JUMPDEST SWAP2 POP PUSH2 0x43E5 DUP3 PUSH2 0x437E JUMP JUMPDEST PUSH1 0x40 DUP3 ADD SWAP1 POP SWAP2 SWAP1 POP JUMP JUMPDEST PUSH1 0x0 PUSH1 0x20 DUP3 ADD SWAP1 POP DUP2 DUP2 SUB PUSH1 0x0 DUP4 ADD MSTORE PUSH2 0x4409 DUP2 PUSH2 0x43CD JUMP JUMPDEST SWAP1 POP SWAP2 SWAP1 POP JUMP JUMPDEST PUSH32 0x566F7465287329207765726520616C7265616479206361737400000000000000 PUSH1 0x0 DUP3 ADD MSTORE POP JUMP JUMPDEST PUSH1 0x0 PUSH2 0x4446 PUSH1 0x19 DUP4 PUSH2 0x31DA JUMP JUMPDEST SWAP2 POP PUSH2 0x4451 DUP3 PUSH2 0x4410 JUMP JUMPDEST PUSH1 0x20 DUP3 ADD SWAP1 POP SWAP2 SWAP1 POP JUMP JUMPDEST PUSH1 0x0 PUSH1 0x20 DUP3 ADD SWAP1 POP DUP2 DUP2 SUB PUSH1 0x0 DUP4 ADD MSTORE PUSH2 0x4475 DUP2 PUSH2 0x4439 JUMP JUMPDEST SWAP1 POP SWAP2 SWAP1 POP JUMP JUMPDEST PUSH32 0x4E487B7100000000000000000000000000000000000000000000000000000000 PUSH1 0x0 MSTORE PUSH1 0x12 PUSH1 0x4 MSTORE PUSH1 0x24 PUSH1 0x0 REVERT JUMPDEST PUSH1 0x0 DUP2 SWAP1 POP SWAP3 SWAP2 POP POP JUMP JUMPDEST PUSH1 0x0 PUSH2 0x44C1 DUP3 PUSH2 0x31CF JUMP JUMPDEST PUSH2 0x44CB DUP2 DUP6 PUSH2 0x44AB JUMP JUMPDEST SWAP4 POP PUSH2 0x44DB DUP2 DUP6 PUSH1 0x20 DUP7 ADD PUSH2 0x31EB JUMP JUMPDEST DUP1 DUP5 ADD SWAP2 POP POP SWAP3 SWAP2 POP POP JUMP JUMPDEST PUSH1 0x0 PUSH2 0x44F3 DUP3 DUP9 PUSH2 0x44B6 JUMP JUMPDEST SWAP2 POP PUSH2 0x44FF DUP3 DUP8 PUSH2 0x44B6 JUMP JUMPDEST SWAP2 POP PUSH2 0x450B DUP3 DUP7 PUSH2 0x44B6 JUMP JUMPDEST SWAP2 POP PUSH2 0x4517 DUP3 DUP6 PUSH2 0x44B6 JUMP JUMPDEST SWAP2 POP PUSH2 0x4523 DUP3 DUP5 PUSH2 0x44B6 JUMP JUMPDEST SWAP2 POP DUP2 SWAP1 POP SWAP7 SWAP6 POP POP POP POP POP POP JUMP INVALID LOG2 PUSH5 0x6970667358 0x22 SLT KECCAK256 SELFBALANCE LOG3 0xCF 0xAC 0xDE GASPRICE SWAP12 ADD LOG2 PUSH4 0x9282EE3B LOG3 0xE0 PUSH3 0xA32DC3 DUP5 ADDRESS OR GAS 0xE1 0xB4 0x24 0x2A REVERT RETURN DUP13 0xDE PUSH5 0x736F6C6343 STOP ADDMOD SLT STOP CALLER "
				},
				"gasEstimates": {
					"creation": {
						"codeDepositCost": "3553600",
						"executionCost": "160224",
						"totalCost": "3713824"
					},
					"external": {
						"addParticipant(uint8,address)": "infinite",
						"closeMotion(uint256)": "33793",
						"createRegularMotion(string)": "infinite",
						"initiallySupportMotion(uint256)": "infinite",
						"motionCounter()": "2495",
						"participants(address)": "infinite",
						"reclaimOriginalVotingRight()": "infinite",
						"seeResults(uint256)": "infinite",
						"transferVotingRight1(address)": "infinite",
						"voteForMotion(uint256,uint256)": "infinite",
						"votingRightsCounter()": "2539"
					},
					"internal": {
						"append(string memory,string memory,string memory,string memory,string memory)": "infinite",
						"enoughSupporters(uint256)": "infinite",
						"noOpenMotions()": "infinite",
						"notContainedInArray(address[] memory,address)": "infinite",
						"transfer(address,address,uint256)": "51249"
					}
				},
				"methodIdentifiers": {
					"addParticipant(uint8,address)": "8de2fc3a",
					"closeMotion(uint256)": "9084f1f9",
					"createRegularMotion(string)": "bd7bb654",
					"initiallySupportMotion(uint256)": "31b47842",
					"motionCounter()": "ecd2713a",
					"participants(address)": "09e69ede",
					"reclaimOriginalVotingRight()": "d5506819",
					"seeResults(uint256)": "7d47318a",
					"transferVotingRight1(address)": "a00f0236",
					"voteForMotion(uint256,uint256)": "f513edb4",
					"votingRightsCounter()": "fc14ebbb"
				}
			},
			"storageLayout": {
				"storage": [
					{
						"astId": 1058,
						"contract": "contracts/Voting02.sol:PartyConvention",
						"label": "motionCounter",
						"offset": 0,
						"slot": "0",
						"type": "t_uint256"
					},
					{
						"astId": 1061,
						"contract": "contracts/Voting02.sol:PartyConvention",
						"label": "votingRightsCounter",
						"offset": 0,
						"slot": "1",
						"type": "t_uint256"
					},
					{
						"astId": 1066,
						"contract": "contracts/Voting02.sol:PartyConvention",
						"label": "participants",
						"offset": 0,
						"slot": "2",
						"type": "t_mapping(t_address,t_struct(Participant)1081_storage)"
					},
					{
						"astId": 1069,
						"contract": "contracts/Voting02.sol:PartyConvention",
						"label": "participantsArray",
						"offset": 0,
						"slot": "3",
						"type": "t_array(t_address)dyn_storage"
					},
					{
						"astId": 1073,
						"contract": "contracts/Voting02.sol:PartyConvention",
						"label": "motions",
						"offset": 0,
						"slot": "4",
						"type": "t_array(t_struct(Motion)1107_storage)dyn_storage"
					}
				],
				"types": {
					"t_address": {
						"encoding": "inplace",
						"label": "address",
						"numberOfBytes": "20"
					},
					"t_array(t_address)dyn_storage": {
						"base": "t_address",
						"encoding": "dynamic_array",
						"label": "address[]",
						"numberOfBytes": "32"
					},
					"t_array(t_struct(Motion)1107_storage)dyn_storage": {
						"base": "t_struct(Motion)1107_storage",
						"encoding": "dynamic_array",
						"label": "struct PartyConvention.Motion[]",
						"numberOfBytes": "32"
					},
					"t_array(t_struct(Option)1086_storage)dyn_storage": {
						"base": "t_struct(Option)1086_storage",
						"encoding": "dynamic_array",
						"label": "struct PartyConvention.Option[]",
						"numberOfBytes": "32"
					},
					"t_enum(ConventionRole)1048": {
						"encoding": "inplace",
						"label": "enum PartyConvention.ConventionRole",
						"numberOfBytes": "1"
					},
					"t_enum(MotionStatus)1052": {
						"encoding": "inplace",
						"label": "enum PartyConvention.MotionStatus",
						"numberOfBytes": "1"
					},
					"t_enum(MotionType)1055": {
						"encoding": "inplace",
						"label": "enum PartyConvention.MotionType",
						"numberOfBytes": "1"
					},
					"t_mapping(t_address,t_struct(Participant)1081_storage)": {
						"encoding": "mapping",
						"key": "t_address",
						"label": "mapping(address => struct PartyConvention.Participant)",
						"numberOfBytes": "32",
						"value": "t_struct(Participant)1081_storage"
					},
					"t_string_storage": {
						"encoding": "bytes",
						"label": "string",
						"numberOfBytes": "32"
					},
					"t_struct(Motion)1107_storage": {
						"encoding": "inplace",
						"label": "struct PartyConvention.Motion",
						"members": [
							{
								"astId": 1088,
								"contract": "contracts/Voting02.sol:PartyConvention",
								"label": "id",
								"offset": 0,
								"slot": "0",
								"type": "t_uint256"
							},
							{
								"astId": 1090,
								"contract": "contracts/Voting02.sol:PartyConvention",
								"label": "text",
								"offset": 0,
								"slot": "1",
								"type": "t_string_storage"
							},
							{
								"astId": 1093,
								"contract": "contracts/Voting02.sol:PartyConvention",
								"label": "mtype",
								"offset": 0,
								"slot": "2",
								"type": "t_enum(MotionType)1055"
							},
							{
								"astId": 1096,
								"contract": "contracts/Voting02.sol:PartyConvention",
								"label": "status",
								"offset": 1,
								"slot": "2",
								"type": "t_enum(MotionStatus)1052"
							},
							{
								"astId": 1100,
								"contract": "contracts/Voting02.sol:PartyConvention",
								"label": "options",
								"offset": 0,
								"slot": "3",
								"type": "t_array(t_struct(Option)1086_storage)dyn_storage"
							},
							{
								"astId": 1103,
								"contract": "contracts/Voting02.sol:PartyConvention",
								"label": "voters",
								"offset": 0,
								"slot": "4",
								"type": "t_array(t_address)dyn_storage"
							},
							{
								"astId": 1106,
								"contract": "contracts/Voting02.sol:PartyConvention",
								"label": "initialSupporters",
								"offset": 0,
								"slot": "5",
								"type": "t_array(t_address)dyn_storage"
							}
						],
						"numberOfBytes": "192"
					},
					"t_struct(Option)1086_storage": {
						"encoding": "inplace",
						"label": "struct PartyConvention.Option",
						"members": [
							{
								"astId": 1083,
								"contract": "contracts/Voting02.sol:PartyConvention",
								"label": "text",
								"offset": 0,
								"slot": "0",
								"type": "t_string_storage"
							},
							{
								"astId": 1085,
								"contract": "contracts/Voting02.sol:PartyConvention",
								"label": "voteCount",
								"offset": 0,
								"slot": "1",
								"type": "t_uint256"
							}
						],
						"numberOfBytes": "64"
					},
					"t_struct(Participant)1081_storage": {
						"encoding": "inplace",
						"label": "struct PartyConvention.Participant",
						"members": [
							{
								"astId": 1076,
								"contract": "contracts/Voting02.sol:PartyConvention",
								"label": "role",
								"offset": 0,
								"slot": "0",
								"type": "t_enum(ConventionRole)1048"
							},
							{
								"astId": 1078,
								"contract": "contracts/Voting02.sol:PartyConvention",
								"label": "votingRight1from",
								"offset": 1,
								"slot": "0",
								"type": "t_address"
							},
							{
								"astId": 1080,
								"contract": "contracts/Voting02.sol:PartyConvention",
								"label": "votingRight2from",
								"offset": 0,
								"slot": "1",
								"type": "t_address"
							}
						],
						"numberOfBytes": "64"
					},
					"t_uint256": {
						"encoding": "inplace",
						"label": "uint256",
						"numberOfBytes": "32"
					}
				}
			},
			"userdoc": {
				"kind": "user",
				"methods": {},
				"version": 1
			}
		}
	}
}